:040000009BEF01F081
:0E0008007C82E9CF3AF0EACF3BF06CED33F0AA
:100018007C80D8CFD3F0E8CFD4F0E0CFD5F0E9CFCB
:10002800D6F0EACFD7F0E1CFD8F0E2CFD9F0D9CFE8
:10003800DAF0DACFDBF0F3CFDCF0F4CFDDF0F6CF97
:10004800DEF0F7CFDFF0F8CFE0F0F5CFE1F0040015
:10005800F2A44DD1F294010184A508D0640E426F38
:10006800060E436F440E486F060E07D0240E426FEB
:10007800060E436FA90E486F050E496F83A7CDD0B2
:10008800640E0001F81903E0010183ABC6D0010139
:100098004C6B4A6B4B6B140E0001F81922E00101FE
:1000A8004C51010DF33AF43AF00EF416F3500F0BDD
:1000B800F412F00EF31648C1D1F049C1D2F0F35052
:1000C8000001D127F450D22301014A510001D12562
:1000D800D96E01014B510001D221DA6E0101DFA274
:1000E8008DD001014C51100D42C1D1F043C1D2F065
:1000F800F3500001D127F450D22301014A510001E5
:10010800D125D96E01014B510001D221DA6EDF50A1
:100118000101446F4C51400DF3504A2580093AECD7
:1001280048F001014C51010DF33AF43AF00EF4167F
:10013800F3500F0BF412F00EF31648C1D1F049C179
:10014800D2F0F3500001D127F450D22301014A51D3
:100158000001D125D96E01014B510001D221DA6E7F
:100168000101DFA025D04C51010DF33AF43AF00E0D
:10017800F416F3500F0BF412F00EF31648C1D1F039
:1001880049C1D2F0F3500001D127F450D223010124
:100198004A510001D125D96E01014B510001D221EC
:1001A800DA6E0101DFA002D083BD02D05F0E446F7A
:1001B8004451BCEC1FF087EC3AF001014C51010DA1
:1001C800F33AF43AF00EF416F3500F0BF412F00E63
:1001D800F31648C1D1F049C1D2F0F3500001D1273C
:1001E800F450D22301014A510001D125D96E0101F1
:1001F8004B510001D221DA6E0101DF924A4B4B2BA1
:100208004BBF49D74B5104E1100E4A5D01E243D779
:100218004C2B010E4C653DD7839B0001F85102E041
:10022800F8071BD00101838B140E0001F86F010140
:1002380083BD04D00001D16BD12B02D00001D16B5A
:10024800D13BD147D147010183510001D119BF0BDF
:10025800D1190101836FBBEC3DF00001F05102E0C0
:10026800F0073ED00101916B81A027D00F0E00014D
:10027800F11902E1F16B01D0F12BF1C045F1010157
:10028800476B040E466FD89045334607D8A04707FA
:1002980047BF04D04751F7E14605F5E20001F151A7
:1002A800020D8A50E00BF3108A6EF769F551F611CA
:1002B80017E0F507D8A0F60713D00001F72910E1D9
:1002C800F1C0F7F0F7517AEC42F00101916F010E9D
:1002D8000001F06F130EF66F880EF56F9BEC4AF075
:1002E80085EC18F0010184A1849363EC29F0E1C046
:1002F800F5FFE0C0F8FFDFC0F7FFDEC0F6FFDDC0A6
:10030800F4FFDCC0F3FFDBC0DAFFDAC0D9FFD9C0E5
:10031800E2FFD8C0E1FFD7C0EAFFD6C0E9FFD5C0E9
:10032800E0FFD4C0E8FFD3C0D8FF7C9010008AEF6C
:100338002FF04F6F69D34D6B4E6B12004E6B1FEF52
:1003480009F04E6B44EF08F04E6B4AEF08F04E6B25
:10035800040E4D6F040C4E6B47EF08F04E6B19EF0F
:1003680009F04E6B22EF09F04E6B25EF09F04E6B4A
:100378001CEF09F04E6B86EF08F04E6BE6EF08F0C5
:100388004E6B4DEF08F04E6B0D0E4D6F0D0C4E6B16
:100398008FEF08F04E6BF8EF08F04E6B5FEF08F048
:1003A8004E6BCBEF08F04E6B0DEF09F04E6B130E52
:1003B8004D6F130C4E6B140E4D6F140C4E6BC5EF36
:1003C80008F04E6B160E4D6F160C4E6BFBEF08F0D7
:1003D8004E6B180E4D6F180C4E6B190E4D6F190C95
:1003E8004E6B1A0E4D6F1A0C4E6BEFEF08F04E6BFA
:1003F8001C0E4D6F1C0C4E6B1D0E4D6F1D0C4E6B65
:100408001E0E4D6F1E0C4E6BD4EF08F04E6B98EF1E
:1004180008F04E6B210E4D6F210C4E6B220E4D6F66
:10042800220C4E6BDDEF08F04E6BA7EF08F04E6B19
:1004380016EF09F04E6B260E4D6F260C4E6B68EFCB
:1004480008F04E6B80EF08F04E6BDAEF08F04E6B59
:10045800ADEF08F04E6B10EF09F04E6B74EF08F03B
:100468004E6BCEEF08F04E6B9EEF08F04E6B04EF2C
:1004780009F04E6B300E4D6F300C4E6B5CEF08F090
:100488004E6B59EF08F04E6BB3EF08F04E6B83EFED
:1004980008F04E6BE9EF08F04E6B6BEF08F04E6B0F
:1004A800BFEF08F04E6B8CEF08F04E6B390E4D6FB6
:1004B800390C4E6B3A0E4D6F3A0C4E6B7DEF08F0CF
:1004C8004E6B92EF08F04E6BF2EF08F04E6B62EF56
:1004D80008F04E6BC8EF08F04E6B89EF08F04E6BD2
:1004E800E3EF08F04E6B50EF08F04E6BBCEF08F0EE
:1004F8004E6BFEEF08F04E6BA1EF08F04E6BA4EFC9
:1005080008F04E6B01EF09F04E6B6EEF08F04E6B82
:10051800D7EF08F04E6BB0EF08F04E6B0AEF09F01A
:100528004E6B77EF08F04E6BE0EF08F04E6BF5EF8F
:1005380008F04E6B95EF08F04E6B500E4D6F500C57
:100548004E6B7AEF08F04E6B13EF09F04E6BAAEF83
:1005580008F04E6BD1EF08F04E6B71EF08F04E6B60
:1005680007EF09F04E6B9BEF08F04E6B53EF08F066
:100578004E6BB6EF08F04E6BB9EF08F04E6B56EFC6
:1005880008F04E6BECEF08F04E6B5D0E4D6F5D0C96
:100598004E6BC2EF08F04E6B65EF08F04E6B600EC5
:1005A8004D6F600C4E6B610E4D6F610C4E6B620EA1
:1005B8004D6F620C4E6B630E4D6F630C4E6B640E89
:1005C8004D6F640C4E6B650E4D6F650C4E6B660E71
:1005D8004D6F660C4E6B670E4D6F670C4E6B680E59
:1005E8004D6F680C4E6B690E4D6F690C4E6B6A0E41
:1005F8004D6F6A0C4E6B6B0E4D6F6B0C4E6B6C0E29
:100608004D6F6C0C4E6B6D0E4D6F6D0C4E6B6E0E10
:100618004D6F6E0C4E6B6F0E4D6F6F0C4E6B700EF8
:100628004D6F700C4E6B710E4D6F710C4E6B720EE0
:100638004D6F720C4E6B730E4D6F730C4E6B740EC8
:100648004D6F740C4E6B750E4D6F750C4E6B760EB0
:100658004D6F760C4E6B770E4D6F770C4E6B780E98
:100668004D6F780C4E6B790E4D6F790C4E6B7A0E80
:100678004D6F7A0C4E6B7B0E4D6F7B0C4E6B7C0E68
:100688004D6F7C0C4E6B7D0E4D6F7D0C4E6B7E0E50
:100698004D6F7E0C4E6B7F0E4D6F7F0C040E4E6FB0
:1006A80044EF08F0040E4E6F4AEF08F0200E1CEFDE
:1006B80008F0040E4E6FAAEF08F0200E18EF08F0AD
:1006C800200E30EF08F0200E4E6F4D6F200C200EDC
:1006D80040EF08F0200E4E6F28EF09F0200E28EFAB
:1006E80008F0040E4E6F1CEF09F0200E3CEF08F0E6
:1006F800040E4E6F86EF08F0040E4E6F4DEF08F0B3
:10070800040E4E6FE6EF08F0040E4E6FF8EF08F097
:10071800040E4E6F13EF09F0200E0CEF08F0200EB8
:100728002CEF08F0200E34EF08F0200E14EF08F03C
:10073800200E08EF08F0200E24EF08F0200E10EF2E
:1007480008F0210E08EF08F0040E4E6FB6EF08F01F
:10075800200E38EF08F0040E4E6FB9EF08F0040EC3
:100768004E6FECEF08F0040E4E6F56EF08F0040ED3
:100778004E6F65EF08F04E6BA00E4D6FA00C040E87
:100788004E6F8FEF08F0040E4E6FC2EF08F0040EA4
:100798004E6F25EF09F04E6BA40E4D6FA40C040E9E
:1007A8004E6F900E4D6F900C4E6BA60E4D6FA60CB3
:1007B8004E6BA70E4D6FA70C040E4E6F1FEF09F07E
:1007C8004E6BA90E4D6FA90C040E4E6F4D6F040CA5
:1007D8004E6BAB0E4D6FAB0C4E6B28EF09F04E6BAA
:1007E800AD0E4D6FAD0C4E6BAE0E4D6FAE0C040ED4
:1007F8004E6F22EF09F04E6BB00E4D6FB00C4E6B82
:10080800B10E4D6FB10C040E4E6F19EF09F0040EC6
:100818004E6F07EF09F0040E4E6F910E4D6F910C5D
:100828004E6BB50E4D6FB50C4E6BB60E4D6FB60CCC
:100838004E6BB70E4D6FB70C040E4E6F7AEF08F083
:10084800210EFAD3040E4E6FD1EF08F04E6BBB0E9B
:100858004D6FBB0C040E4E6F53EF08F0040E4E6F35
:1008680047EF08F0040E4E6F71EF08F0040E4E6F5C
:100878009BEF08F0040E4E6F5FEF08F0040E4E6F0A
:10088800CBEF08F0040E4E6F0DEF09F0040ED8D32D
:10089800040EC2D3040E4E6FC5EF08F0040ECCD37D
:1008A800040E4E6FFBEF08F0040EB2D3040ED0D343
:1008B800040EBED3040E4E6FEFEF08F0040ED0D333
:1008C800040EAED3040EB0D3040E4E6FD4EF08F06E
:1008D800040E4E6F98EF08F0040ECED3040E94D396
:1008E800040E4E6FDDEF08F0040E4E6FA7EF08F010
:1008F800040E4E6F16EF09F0040EAED3040E4E6FC1
:10090800E3D3040E4E6FF8D3040E4E6FDAEF08F0FF
:10091800040E4E6FADEF08F0040E4E6F10EF09F0A5
:10092800040E4E6FDDD3040E4E6FCEEF08F0040EAA
:100938004E6F9EEF08F0040E4E6F04EF09F0040EA0
:1009480083D3040E4E6FB4D3040E4E6FAED3040E91
:100958004E6FB3EF08F0040E4E6FD1D3040E4E6FF6
:10096800E9EF08F0040E4E6FB2D3040E4E6FBFEFDE
:1009780008F0040E4E6FCCD3040E7AD3040E74D351
:10098800040E4E6FB6D3040E4E6FC8D3040E4E6FCE
:10099800F2EF08F0040E4E6F91D3040E4E6FF4D3AD
:1009A800040E4E6FB2D3040E4E6FE3EF08F0040E40
:1009B8004E6F72D3040E4E6FDBD3040E4E6FFEEFF4
:1009C80008F0040E4E6FB9D3040E4E6FB9D3040E5F
:1009D8004E6F01EF09F0040E4E6F7CD3040E4E6F7C
:1009E800E2D3040E4E6FB8D3040E4E6F0AEF09F02F
:1009F800040E4E6F78D3040E4E6FDED3040E4E6F86
:100A0800F0D3040E4E6F8DD301014F5101E193D401
:100A1800010A01E193D4030A01E193D4010A01E137
:100A280093D4070A01E193D4010A01E194D4030A9B
:100A380001E194D4010A01E194D40F0A01E194D4AC
:100A4800010A01E194D4030A01E194D4010A01E105
:100A580094D4070A01E194D4010A01E194D4030A69
:100A680001E195D4010A01E195D41F0A01E195D469
:100A7800010A01E195D4030A01E195D4010A01E1D3
:100A880095D4070A01E196D4010A01E197D4030A33
:100A980001E197D4010A01E198D40F0A01E198D441
:100AA800010A01E199D4030A01E19AD4010A01E19A
:100AB8009BD4070A01E19BD4010A01E19CD4030AF3
:100AC80001E19DD4010A01E19ED43F0A01E19ED4CF
:100AD800010A01E19ED4030A01E19FD4010A01E160
:100AE800A0D4070A01E1A0D4010A01E1A0D4030AB5
:100AF80001E1A0D4010A01E1A1D40F0A01E1A1D4C6
:100B0800010A01E1A1D4030A01E1A1D4010A01E12A
:100B1800A1D4070A01E1A1D4010A01E1A1D4030A81
:100B280001E1A1D4010A01E1A1D41F0A01E1A1D484
:100B3800010A01E1A2D4030A01E1A2D4010A01E1F8
:100B4800A2D4070A01E1A2D4010A01E1A2D4030A4E
:100B580001E1A2D4010A01E1A2D40F0A01E1A2D461
:100B6800010A01E1A2D4030A01E1A3D4010A01E1C7
:100B7800A4D4070A01E1A4D4010A01E1A4D4030A18
:100B880001E1A4D4010A01E1A4D47F0A01E1A4D4BB
:100B9800010A01E1A4D4030A01E1A4D4010A01E194
:100BA800A4D4070A01E1A4D4010A01E1A4D4030AE8
:100BB80001E1A4D4010A01E1A4D40F0A01E1A4D4FB
:100BC800010A01E1A4D4030A01E1A4D4010A01E164
:100BD800A4D4070A01E1A4D4010A01E1A4D4030AB8
:100BE80001E1A4D4010A01E1A4D41F0A01E1A4D4BB
:100BF800010A01E1A5D4030A01E1A5D4010A01E132
:100C0800A5D4070A01E1A5D4010A01E1A5D4030A84
:100C180001E1A5D4010A01E1A5D40F0A01E1A5D497
:100C2800010A01E1A5D4030A01E1A5D4010A01E101
:100C3800A5D4070A01E1A5D4010A01E1A5D4030A54
:100C480001E1A6D4010A01E1A6D43F0A01E1A6D434
:100C5800010A01E1A7D4030A01E1A8D4010A01E1CC
:100C6800A9D4070A01E1AAD4010A01E1ABD4030A15
:100C780001E1ACD4010A01E1ADD40F0A01E1AED41F
:100C8800010A01E1AFD4030A01E1B0D4010A01E18C
:100C9800B1D4070A01E1B2D4010A01E1B3D4030ACD
:100CA80001E1B4D4010A01E1B5D41F0A01E1B6D4C7
:100CB800010A01E1B7D4030A01E1B8D4010A01E14C
:100CC800B9D4070A01E1BAD4010A01E1BBD4030A85
:100CD80001E1BCD4010A01E1BDD40F0A01E1BED48F
:100CE800010A01E1BFD4030A01E1C0D4010A01E10C
:100CF800C1D4070A01E1C2D4010A01E1C3D4030A3D
:100D080001E1C4D4010A01E1C5D4FF0A01E1C6D456
:100D1800010A01E1C7D4030A01E1C8D4010A01E1CB
:100D2800C8D4070A01E1C9D4010A01E1C9D4030AF8
:100D380001E1C9D4010A01E1CAD40F0A01E1CAD408
:100D4800010A01E1CBD4030A01E1CBD4010A01E194
:100D5800CCD4070A01E1CCD4010A01E1CDD4030ABD
:100D680001E1CED4010A01E1CFD41F0A01E1D0D4B8
:100D7800010A01E1D1D4030A01E1D1D4010A01E158
:100D8800D1D4070A01E1D1D4010A01E1D1D4030A7F
:100D980001E1D1D4010A01E1D1D40F0A02E16DEFDA
:100DA80002F0010A01E1CDD4030A01E1CDD4010A20
:100DB80001E1CED4070A01E1CED4010A01E1CFD482
:100DC800030A01E1D0D4010A01E1D1D43F0A01E1CB
:100DD800D2D4010A01E1D3D4030A01E1D4D4010A2F
:100DE80001E1D5D4070A01E1D6D4010A01E1D7D43B
:100DF800030A01E1D9D4010A01E1DAD40F0A01E1B9
:100E0800DBD4010A01E1DCD4030A01E1DDD4010AE3
:100E180001E1DED4070A01E1DFD4010A01E1DFD4F0
:100E2800030A01E1E0D4010A01E1E1D41F0A01E16A
:100E3800E2D4010A01E1E3D4030A01E1E4D4010A9E
:100E480001E1E5D4070A01E1E6D4010A01E1E8D4A9
:100E5800030A01E1E9D4010A01E1EAD40F0A01E138
:100E6800EBD4010A01E1ECD4030A01E1EBD4010A55
:100E780001E1ECD4070A01E1EDD4010A01E1EED465
:100E8800030A01E1EFD4010A01E1F0D47F0A01E18C
:100E9800F1D4010A01E1F2D4030A01E1F3D4010A11
:100EA80001E1F4D4070A01E1F3D4010A01E1F2D423
:100EB800030A01E1F3D4010A01E1F2D40F0A01E1C6
:100EC800F3D4010A01E1F2D4030A01E1F1D4010AE1
:100ED80001E1F0D4070A01E1F1D4010A01E1F0D4FB
:100EE800030A01E1EFD4010A01E1EED41F0A01E18E
:100EF800EFD4010A01E1F0D4030A01E1EFD4010AB9
:100F080001E1EED4070A01E1EFD4010A01E1F0D4CE
:100F1800030A01E1F1D4010A01E1F0D40F0A01E169
:100F2800F0D4010A01E1F0D4030A01E1F1D4010A85
:100F380001E1F2D4070A01E1F3D4010A01E1F3D493
:100F4800030A01E1F4D4010A01E1F5D43F0A01E101
:100F5800F6D4010A01E1F5D4030A01E1F5D4010A46
:100F680001E1F5D4070A01E1F6D4010A01E1F6D45A
:100F7800030A01E1F7D4010A01E1F7D40F0A01E1FC
:100F8800F8D4010A01E1F8D4030A01E1F7D4010A0F
:100F980001E1F6D4070A01E1F6D4010A01E1F6D429
:100FA800030A01E1F7D4010A01E1F7D41F0A01E1BC
:100FB800F7D4010A01E1F7D4030A01E1F8D4010AE0
:100FC80001E1F8D4070A01E1F8D4010A01E1F9D4F2
:100FD800030A01E1F9D4010A01E1F9D40F0A01E198
:100FE800FAD4010A01E1FAD4030A01E1FAD4010AA8
:100FF80001E1FAD4070A01E1FBD4010A01E1FBD4BB
:10100800030A01E1FBD4FDD44E6F220E4D6F220C72
:101018004E6F180E4D6F180C4E6F140E4D6F140C4A
:101028004E6F1D0E4D6F1D0C4E6F1E0E4D6F1E0C1C
:101038004E6F1A0E4D6F1A0C4E6F160E4D6F160C22
:101048004E6F130E4D6F130C4E6F300E4D6F300CEC
:101058004E6F190E4D6F190C4E6F260E4D6F260CE4
:101068004E6F1C0E4D6F1C0C4E6F3A0E4D6F3A0CA6
:101078004E6F390E4D6F390C4E6F210E4D6F210C8E
:10108800020E4D6F020C050E4D6F050C030E4D6FD1
:10109800030C0C0E4D6F0C0C420E4D6F420C580E8B
:1010A8004D6F580C5B0E4D6F5B0C320E4D6F320C52
:1010B800310E4D6F310C100E4D6F100C3E0E4D6FF2
:1010C8003E0C5F0E4D6F5F0C270E4D6F270C360ED2
:1010D8004D6F360C480E4D6F480C550E4D6F550C24
:1010E8002C0E4D6F2C0C4C0E4D6F4C0C510E4D6F41
:1010F800510C3B0E4D6F3B0C280E4D6F280C340ED7
:101108004D6F340C0A0E4D6F0A0C400E4D6F400C9B
:10111800380E4D6F380C0E0E4D6F0E0C3C0E4D6F89
:101128003C0C4F0E4D6F4F0C200E4D6F200C570E80
:101138004D6F570C2E0E4D6F2E0C450E4D6F450CF6
:10114800460E4D6F460C240E4D6F240C530E4D6FFA
:10115800530C2A0E4D6F2A0C4A0E4D6F4A0C330E53
:101168004D6F330C590E4D6F590C5A0E4D6F5A0C6A
:10117800430E4D6F430C370E4D6F370C5E0E4D6F9F
:101188005E0C150E4D6F150C3F0E4D6F3F0C110E7A
:101198004D6F110C2D0E4D6F2D0C540E4D6F540CC0
:1011A8001F0E4D6F1F0C490E4D6F490C290E4D6FC8
:1011B800290C230E4D6F230C4D0E4D6F4D0C410E17
:1011C8004D6F410C0B0E4D6F0B0C350E4D6F350CE2
:1011D8005C0E4D6F5C0C1B0E4D6F1B0C3D0E4D6F66
:1011E8003D0C4E0E4D6F4E0C0F0E4D6F0F0C170E23
:1011F8004D6F170C440E4D6F440C470E4D6F470C46
:101208002F0E4D6F2F0C560E4D6F560C4B0E4D6F0B
:101218004B0C120E4D6F120C2B0E4D6F2B0C520EE9
:101228004D6F520C250E4D6F250C060E4D6F060C9A
:10123800090E4D6F090C010E4D6F010C070E4D6F15
:10124800070C080E4D6F080CAC0E4D6FAC0C99C115
:10125800CCF39AC1CDF36651671137E053EC0DF02A
:10126800DF50030B696F9AEC0DF0FC0B60EC0DF08E
:1012780053EC0DF063EC28F0696F694769479AEC05
:101288000DF0F30B60EC0DF053EC0DF0DFA802D07D
:10129800CC8902D00301CC9953EC0DF0DFAA03D01E
:1012A8000301CC8B02D00301CC9BF9DBDFAC03D06C
:1012B8000301CC8D02D00301CC9DF1DBDFAE03D05E
:1012C8000301CC8F02D00301CC9F0301CCA9DFEC32
:1012D80042F057C0DDF258C0DEF259C0DFF2DD0E31
:1012E8000401866F020E876F26EEA3F012EE30F02F
:1012F800130EDBCFE3FFE806FCE2300E886F020E28
:10130800896F24EE4BF012EEBCF0040EDBCFE3FF46
:10131800E806FCE2BC0E8A6F020E8B6F24EE50F0DA
:1013280012EEC1F0040EDBCFE3FFE806FCE2C10ECB
:101338008C6F020E8D6F24EE55F012EEC6F0040E7F
:10134800DBCFE3FFE806FCE2C60E8E6F020E8F6F5E
:1013580024EE5AF012EECBF0040EDBCFE3FFE806E2
:10136800FCE2CB0E906F020E916F24EE5FF012EE4E
:10137800D0F0040EDBCFE3FFE806FCE2D00E926F5C
:10138800020E936F24EE00F011EE6DF0050EDBCF28
:10139800E3FFE806FCE26D0E946F010E956F24EEF4
:1013A80064F012EED5F0040EDBCFE3FFE806FCE2B2
:1013B800D50E966F020E976F24EE06F012EE86F0A9
:1013C800050EDBCFE3FFE806FCE2860E986F020EFF
:1013D800996FDD0E9A6F020E9B6F300E9C6F020E96
:1013E8009D6F24EE0CF012EE8CF0050EDBCFE3FFC0
:1013F800E806FCE28C0E9E6F020E9F6F24EE12F040
:1014080012EE92F0050EDBCFE3FFE806FCE2920E47
:10141800A06F020EA16F24EE18F012EE98F0050EE0
:10142800DBCFE3FFE806FCE2980EA26F020EA36F83
:1014380024EE1EF012EE9EF0050EDBCFE3FFE80669
:10144800FCE29E0EA46F020EA56F24EE24F012EEAD
:10145800A4F0050EDBCFE3FFE806FCE2A40EA66FBE
:10146800020EA76F24EE2AF012EEAAF0050EDBCFCB
:10147800E3FFE806FCE2AA0EA86F020EA96F25EEAC
:101488009DF012EEB0F0050EDBCFE3FFE806FCE2BC
:10149800B00EAA6F020EAB6F25EEA3F012EEB6F0F7
:1014A800050EDBCFE3FFE806FCE2B60EAC6F020EDA
:1014B800AD6F5AC0DAF25BC0DBF25CC0DCF2DA0E68
:1014C800AE6F020EAF6F9BC1E0F29CC1E1F2E00E7D
:1014D800B06F020EB16F9DC1E2F29EC1E3F2E20E5F
:1014E800B26F020EB36F9FC1E4F2A0C1E5F2E40E41
:1014F800B46F020EB56FA1C1E6F2A2C1E7F2E60E23
:10150800B66F020EB76FA3C1E8F2A4C1E9F2E80E04
:10151800B86F020EB96FA5C1EAF2A6C1EBF2EA0EE6
:10152800BA6F020EBB6FA7C1ECF2A8C1EDF2EC0EC8
:10153800BC6F020EBD6FA9C1EEF2AAC1EFF2EE0EAA
:10154800BE6F020EBF6FABC1F0F2ACC1F1F2F00E8C
:10155800C06F020EC16F0101685103E11F0E686F71
:1015680001D068070301CA6B200ECA6501D02FD0CD
:10157800CA51040D030E9CDA6EDACAC3DFFFCA51E2
:10158800040D69DADF90CA51040D65DADF82CA51A9
:10159800040D8ADA60DADF6ACA51040D020E88DAAD
:1015A8005ADA200EDF6ECA51040D000E0101696F70
:1015B800030E6A6FF3506927F4506A230301CA5176
:1015C8003DDA69C1DEFF6AC1DDFFCA2BCDD7826B68
:1015D800CB6B0201FD6BF26BF36BF46BF56B0101E6
:1015E8006451651123E00201FB6B18D002016DDA2A
:1015F8000201FB51040D020E5BDA000EF324E16ECA
:10160800030EF420E26EDFCFE7FFFB51040D4CDA46
:1016180022DA010EDF6EFBC2CBF3FB2B56DADF506A
:10162800E5E168510301CB5D01E2CB2B0201FD51DD
:1016380026E00301CCBF12D0F2C251F1F3C252F13D
:10164800F4C253F1F5C254F12C0E0101556F010E8D
:1016580049EC23F0EFEC3FF0000911E00201FD6BCB
:10166800010168510301CB5D0AE201016851E6D925
:1016780010EE01F0EBD9E75002E10301CB2B1D0E70
:101688000101916503D0270E91650BD00301CCAF02
:10169800F0D02B0E0101911904E02C0E911901E0F4
:1016A800E8D00301CCBF10D032DA0EE120EE01F011
:1016B800F651D926F751DA22DF5003E1C40E0101B1
:1016C80018D0F64BF72B32D02C0E0101911902E1FC
:1016D800060E04D02B0E91190BE1070E0401882584
:1016E8000201F66F000E040189210201F76F1ED076
:1016F800C40E696F6A690301CC31E832030B0A0D25
:1017080001019151F326000EF422D890F336F436F5
:101718006951F3266A51F422860EF324D96E040E19
:10172800F420DA6EDECFF6F2DDCFF7F2F0D932E050
:101738000101685183D910EE01F088D9E7502AE1F8
:1017480068510301CB5D05E20201FD5102E003018E
:10175800CB2B0101685172D9E4D968C1FAF20ED0D5
:10176800DBD90201FA517ED90201FA518CD9FA511A
:1017780065D910EE03F06AD9E72AFA070201FA518F
:101788000301CB5DEDE3CB5159D9C8C3DEFFC9C313
:10179800DDFF04D00301CB5151D9C3D9F6C2D9FF1B
:1017A800F7C2DAFFA1D9DFCFE7FFCC51030BE80678
:1017B80002E1CB5104E0CC51030B020A08E120EE10
:1017C80002F07ED991D9E750C2EC24F0DF6E030114
:1017D80020EE03F075D9CBC3DFFF20EE01F070D9FE
:1017E800010EDF6E91C1FDF20101916B010E3AEC21
:1017F8004AF070EC4AF04DC1F2F24EC1F3F24FC11B
:10180800F4F250C1F5F20301CCAB33D001016651BB
:1018180067110DE0030120EE02F052D9010110EE2C
:1018280001F06651E1266751E222DFCFE7FF0301AD
:10183800C66B200EC66501D011D0C651FFD810EE78
:1018480001F004D9E7500AE0C651F8D810EE02F0CA
:10185800FDD843D9E7CFDFFFC62BEBD73ED9DF6AE8
:10186800CCA9DFEC42F0440E0101646F020E656FF3
:101878001200840E01014D6F030E4E6F200E4F6F44
:101888008CEC47F00301CB51D9D8DECF69F1DDCF1D
:101898006AF169C1D9FF6AC1DAFFDF80840E0101EC
:1018A800576F030E586F200E596F5A6B3AEC3FF082
:1018B800280E911915E1916B68510301CB5D01E385
:1018C800B5D6CB51BBD810EE01F0C0D8E75001E136
:1018D800ADD6CB2B000E3AEC4AF00201FD6BA6D632
:1018E800290E91190AE1916B0301CB5101E19ED6B2
:1018F800CB07000E3AEC4AF0F0D72A0E91192AE1EC
:10190800916B20EE01F06651D9266751DA22DF6A21
:101918000301C76B200EC76501D011D0C7518ED8FF
:1019280010EE01F093D8E7500AE0C75187D810EEBF
:1019380002F08CD8E0D8E7CFDFFFC72BEBD7DBD896
:10194800DF6ACCA9DFEC42F0650E0101646F020E7C
:10195800656F12000301CCBF0DD02B0E0101911948
:1019680009E1916B0301CCA9DFEC42F00101646B42
:10197800656B12000301CCBF50D02C0E01019119E8
:101988004CE1916B0201FD5102E00301CB2B0301F5
:10199800CB5101E14BD6C0D80301CB5163D8DECF80
:1019A800F8F2DDCFF9F2020120EE01F0ABD8DF6AE0
:1019B80020EE02F0A7D8200EDF6E20EE03F0A2D8AA
:1019C8001F0EDF6E0301CB050201FC6F1F0EFC65C5
:1019D80001D01CD0FC510101696F6A6BD89069373E
:1019E8006A37020E6927000E6A23840E6925D96EAC
:1019F800030E6A21DA6E0201FC5145D8FC511ED84B
:101A080010EE03F023D8E706FC2BE0D7F8C2C2F3A8
:101A1800F9C2C3F30301CB0760D72D0E0101911959
:101A280001E004D6916B0301CCBF9DD7CC0E010118
:101A3800606F030E616F4EEC27F0F8D5020D840E2F
:101A4800F324D96E030EF420DA6E1200DE50E1267C
:101A5800DD50E2221200000EF324D96E030EF420AA
:101A6800DA6E120001016B6F6C6BD8906B376C37B4
:101A780069516B276A516C23840E6B25D96E030E4E
:101A88006C21DA6E1200020D840EF324E16E030E4F
:101A9800F420E26EDECFE6FFDDCFE5FF120066C17F
:101AA800D9FF67C1DAFF1200F32A000EF422000CF6
:101AB800F326000EF422000C69190301CC6F120002
:101AC800C851D926C951DA221200FB5101016425F7
:101AD800D96E000E6521DA6E1200440EC625D96E45
:101AE800DA6A020EDA22120010EE02F0C851E1267C
:101AF800C951E2221200650EC725D96EDA6A020EB4
:101B0800DA221200F851D926F951DA22120001011D
:101B180091510201FD191200FE0E0101696F6A69F7
:101B2800FE0CDECFC8F3DDCFC9F312000301CC51A0
:101B3800010169191200DFEC42F00201836B60DBDE
:101B4800700E010193DBB7EC37F048DBA3C23FF21C
:101B5800A4C240F2A5C241F2A6C242F202019F6BA2
:101B68009F51040D6F0E276F020E86DB9F51020DE9
:101B78001BDB9F2B040E9F65F3D7A06BA051040DB0
:101B88009B0E276F020E78DBA051020D0A0E46DB72
:101B98000BDBA02BA051F2E0A16BA151040D470E65
:101BA800276F020E69DBA151020D0C0E37DBFCDA40
:101BB800A12B090EA165F1D7A90E01014D6F020EE7
:101BC8004E6FFEEC33F0020120EE01F0B151D92640
:101BD800B251DA22D4DA0A0E0101CDEC14F0CBECC2
:101BE8003BF04D51DF6E03DB0A0EACDAB7EC37F091
:101BF800F5DA020120EE01F0AF51D926B051DA2210
:101C0800BEDA060E0101CDEC14F0CBEC3BF04D51E1
:101C1800DF6EEDDA060E96DAB7EC37F0DFDAAFDA18
:101C2800180ECDEC14F0CBEC3BF04DC1A3F24EC135
:101C3800A4F24FC1A5F250C1A6F2020120EE01F0B4
:101C4800AB51D926AC51DA229ADA0A0E0101CDEC51
:101C580014F0CBEC3BF04D51DCDAA951D926AA514E
:101C6800DA22C5DA0A0EC7EC14F0B7EC37F04D519A
:101C7800D0DAB351D926B451DA223FC24DF140C26D
:101C88004EF141C24FF142C250F1A00E0101516F15
:101C9800050E526F536B546BB7EC37F04D29B9DA18
:101CA800C751D926C851EEDAB25126EC48F0B1DA5C
:101CB800C551D926C651F1DAB251D5EC46F0DF6EDE
:101CC800020120EE02F0C351D926C451DA22300EA7
:101CD800DF6EC3C2D9FFC4C2DAFFDF8220EE02F092
:101CE800C151D926C251DA22320EDF6EC1C2D9FFE4
:101CF800C2C2DAFFDF8220EE01F0BD51D926BE5103
:101D0800C1DAB15126EC48F084DABB51D926BC516E
:101D1800C4DAB151D5EC46F07CDAB751D926B851BE
:101D2800B1DA0201FF5126EC48F073DAB551D92631
:101D3800B651B3DA0201FF51D5EC46F0DF6E090E59
:101D48000201856FA86BA851F5D9B5C2DEFFB6C2EE
:101D5800DDFFE6D9B7C2DEFFB8C2DDFFE1D9BBC2FD
:101D6800DEFFBCC2DDFFDCD9BDC2DEFFBEC2DDFFC7
:101D7800D7D9C5C2DEFFC6C2DDFFD2D9C7C2DEFFD2
:101D8800C8C2DDFFCDD9A9C2DEFFAAC2DDFFC8D90E
:101D9800ABC2DEFFACC2DDFFC3D9AFC2DEFFB0C24B
:101DA800DDFFBED9B1C2DEFFB2C2DDFFA82B060E31
:101DB800A26F84690201A251BDD9DECF27F2DDCF1F
:101DC80028F227C2D9FF28C2DAFFDF8031DA10EE05
:101DD80001F0BD51E126BE51E222E750276F10EE17
:101DE80001F0BB51E126BC517ADA27250101616F68
:101DF800020110EE01F0B751E126B851E222E75096
:101E0800286F10EE01F0B551E126B65168DA2825A1
:101E18000101626F020110EE01F0C751E126C851BD
:101E2800E222E750296F10EE01F0C551E126C651B4
:101E380056DA2925F0EC3CF0DF6EA90E606F020E31
:101E4800616F59EC2AF05ADAE8EC47F00201846F26
:101E5800842914E0A2516ED910EE01F02AEC0DF09D
:101E680084C2E7FFDFD940EC47F002018551A2198F
:101E780002E1A26B01D0A22B010E836F280E010193
:101E880091190DE1916BA90E22DA40EC47F002019D
:101E98008551A21902E1A26B8DD7A22B8BD72C0EEC
:101EA80091190AE1916B0201C95104E0C90502E0E8
:101EB800C96B80D7C92B7ED7290E91190DE1916B7B
:101EC800A90E05DA40EC47F00201A25103E185C2F0
:101ED800A2F270D7A2076ED72A0E911901E019D184
:101EE800916B0201A76B835101E1FED057D92FD91D
:101EF800B9D933D9A76F0C0EA76505D093D940EC93
:101F080047F0020E58D0A7C286F225EE5AF012EE1C
:101F180033F00B0EDBCFE3FFE806FCE239D917D923
:101F28009DD91BD9A76FA7C227F2030E271702E175
:101F38001D0E346F84D90BD9CED90FD9A76F13D9F9
:101F4800D96E020E2A21DA6EA751DE5C1BE220EE62
:101F580001F0C1D9A2D9020106D9C6D9D5EC46F0FB
:101F680058D98951D9268A518DD90201FCD8BCD9B2
:101F780026EC48F0DF6EA90EAAD940EC47F0020122
:101F8800A26BB2D08FD9E3D893D9E7D8A76F170E31
:101F9800A76505D047D940EC47F0070E0CD077D994
:101FA800D6D891D9DAD8A76F3B0EA76507D03AD90A
:101FB80040EC47F0090E0201A26F96D0A76B276983
:101FC800286936D9DF50296F2A6B275129272851CC
:101FD8002A2329C24DF12AC24EF10101000E4EBF3B
:101FE800FF0E4F6F506F49EC29F0A1EC44F04DC142
:101FF8002BF24EC12CF24FC12DF250C12EF202012C
:1020080020EE01F055D976D94DD9D9D855D9A1ECBA
:1020180044F04D5102012B252F6F01014E51020151
:102028002C21306F01014F5102012D21316F010127
:10203800505102012E21326F20EE01F044D95AD9B5
:1020480026D9BDD83C0E59EC29F0A1EC44F04D51ED
:1020580002012F25436F01014E5102013021446FC7
:1020680001014F5102013121456F01015051020117
:102078003221466F43C24DF144C24EF145C24FF181
:1020880046C250F1640E010159EC29F0A1EC44F06C
:10209800DCD80201D4D85BD81ED95FD8FF6F7ED8B0
:1020A80056D8E0D85AD80101B16F020171D84FD87B
:1020B800D5D853D80101B26FF9EC3DF00201C91926
:1020C80003E0C951BCEC47F0E8C05BF1E9C05CF142
:1020D800EAC05DF1EBC05EF1FFC25FF1B1C160F132
:1020E800B2C161F1E3EC2DF00201A75101E062D623
:1020F800835102E0DFEF42F00101F9EC3DF002010B
:10210800C91902E1DFEF42F0C951BCEC47F0DFEF3B
:1021180042F02B0E911901E04DD6916BDFEF42F0A2
:10212800A82BA851020D870EF324D96E020EF420B5
:10213800DA6E1200020D870EF324D96E020EF42017
:10214800DA6E1200516F526B536B546B1200DA2225
:10215800DF50276F20EE01F01200DA22DF500A0D5F
:10216800F35027251200276928698651296F2A6BA1
:102178002751292728512A23330E29251200A3C2C3
:102188004DF1A4C24EF1A5C24FF1A6C250F1120002
:1021980020EE01F09151D9269251120020EE01F063
:1021A8008D51D9268E511200A90EF324D96E020E34
:1021B800F420DA6E27C2DEFF28C2DDFF1200DA2221
:1021C800DF50F326000EF422F3CF4DF1F4CF4EF199
:1021D80001014EBFFF0E4F6F506F12004DC1A3F2A9
:1021E8004EC1A4F24FC1A5F250C1A6F21200A3C27B
:1021F8004DF1A4C24EF1A5C24FF1A6C250F1120092
:10220800E8C04DF1E9C04EF1EAC04FF1EBC050F122
:102218001200DF6E020120EE01F01200F326000E1C
:10222800F422000CA90E0101536F020E546F120024
:1022380020EE01F0B351D926B451DA22120020EE73
:1022480001F08951D9268A5112004DC1E8F04EC1DA
:10225800E9F04FC1EAF050C1EBF012008F51D926D6
:10226800905112008B51D9268C511200516F170EC4
:10227800526F536B546B170C286FF3502727F45089
:1022880028231200DA220A0E01014D6F0A0C20EEF3
:1022980001F09951D9269A511200DA220A0E010149
:1022A8004D6F0A0C20EE01F09551D9269651120077
:1022B8009351D92694511200100E516F0E0E526F81
:1022C800536B546B0E0C9751D92698511200536FCB
:1022D800020E546F12008751D92688511200E2224B
:1022E800E7500A0DF3501200E16E020E2A21E26E49
:1022F800E7501200DA22DF500A0D1200090E010120
:102308004D6F000C84A903D08499DFEC42F0200EB5
:1023180091191AE1800EAF1904E1B00502E183A119
:1023280013D0916BDFEC42F083B104D00201A36BB0
:10233800A32B02D00201A36B010183510201A3194F
:10234800FE0BA3190101836F2D0E91190EE1800E6A
:10235800AF1902E1B00509E083A107D0916BAFC1C5
:10236800A1F2B0C1A2F2DAEC3AF083B311D029ECB1
:1023780023F0930E6A6F010E6B6F4AEC2BF044EC5E
:1023880023F0010183A103D08391DFEC42F0838322
:10239800800EAF1902E1B00502E083B15CD11FDB0A
:1023A8005D512AE047C04CF348C04DF349C04EF395
:1023B8004AC04FF3010E586F5D51010B3E6FD89024
:1023C8005D333E0509E14DC34CF34EC34DF35851FF
:1023D80047EC42F003014E6F582B030E5865ECD7BB
:1023E8004C0E0101576F030E586F596B0D0E5A6F43
:1023F800010E5B6F2CEC3BF025EE7CF013EE1EF02B
:10240800080EDBCFE3FFE806FCE204EC11F0640EF3
:10241800BADAB7EC37F085DA0A0EBBDACBEC3BF068
:102428004D5147EC42F00301256F95DA0A0EABDAFD
:10243800B7EC37F076DA060EACDACBEC3BF04D5160
:1024480047EC42F00301246F86DA060E9CDAB7ECFB
:1024580037F067DA0A0E9DDACBEC3BF04D5147ECCA
:1024680042F00301226F77DA0A0E8DDAB7EC37F003
:1024780058DA060E8EDACBEC3BF04D5147EC42F0C1
:102488000301216F68DA060E7EDAB7EC37F04DC12A
:1024980062F34EC163F34FC164F350C165F35BDA75
:1024A800180EA6EC10F0B7EC37F04D2903013F6F7A
:1024B80049DA180E01016DDACBEC3BF04DC162F33D
:1024C8004EC163F34FC164F350C165F33BDA0A0EA2
:1024D80060DACBEC3BF04D5147EC42F003011F6F43
:1024E8003ADA0A0E50DAB7EC37F04D5147EC42F0C1
:1024F80003011E6F010192052AE17B510001E85D8D
:102508000301386F01017C510001E9590301396F5A
:1025180001017D510001EA5903013A6F01017E5121
:102528000001EB5903013B6F3BBF11D03B513A11FE
:10253800391103E1C80E385D0AE3E8C07BF1E9C050
:102548007CF1EAC07DF1EBC07EF10101926B0101E3
:1025580046DA0101925116E1070E03015D1903E005
:10256800436B050E02D0436B040E426F1E0E010131
:10257800576F030E586F596B42C35AF15B6B2CECC3
:102588003BF042D0920540E185A922D033DA580EBB
:102598004F6FFF0E506FC3EC45F00001F35101017E
:1025A8005B6F5C6B5D6B5E6B2ADA060E616F8AECA3
:1025B80034F08CC15BF18DC15CF1000E5CBFFF0E85
:1025C8005D6F5E6F1CDA040E616F8AEC34F007D021
:1025D80011DA460E4F6FFF0E506FC3EC45F0070E31
:1025E80003015D1903E0456B050E02D0456B040E2F
:1025F800446F080E0101576F030E586F596B44C39F
:102608005AF15B6B2CEC3BF0070E03015D1903E0FC
:10261800476B020E02D0476B010E466F3F51FCEC30
:102628003EF041EC2BF0596B46C35AF15B6B2CEC36
:102638003BF0010183AF0FD0ADC13CF3AEC13DF318
:10264800080E03013C6F3C0E0101576F030E57EC57
:102658001DF02CEC3BF0010183B983B104D0C50E09
:10266800576FFD0E5AD1800EAF1903E1B00501E195
:102678004CD125EE24F013EE27F0100EDBCFE3FF4C
:10268800E806FCE2070E0301276F010E4A6F0101FD
:1026980083A104D003014A6BF10E2C6F0301536B25
:1026A800546B556B566B000E01015A6F030E5B6F2E
:1026B800530E5C6F030E5D6FAFC15EF1B0C15FF189
:1026C800AAEC3CF053C34DF154C34EF155C34FF13E
:1026D80056C350F1480E516F030E526F5E0E536F82
:1026E800030E546F4B0E556F030E566F570E576FF0
:1026F800030E586FBDEC3EF093C15BF194C15CF1E1
:1027080095C15DF196C15EF1600E5F6F030E606F5B
:10271800520E616F030E626FABEC41F05BD956D974
:1027280023EC46F04D5147EC42F00301326F3BD9A0
:1027380035D9EDEC44F059D94DD9506B060E4F6F91
:1027480023EC46F04D5147EC42F00301316F2BD991
:102758000101506B060E4F6FEDEC44F046D93A0E6E
:102768000301306F37D9010131D923EC46F04D51BF
:1027780047EC42F003012F6F16D910D9EDEC44F065
:102788004D5147EC42F003012E6F010E596F030EB5
:10279800596501D012D05751010B406FD89057336B
:1027A800400509E135C334F336C335F3595147ECD5
:1027B80042F00301366F592BEAD75251FCEC3EF038
:1027C8004DC150F34EC151F350C3F6FF51C3F7FF4B
:1027D8000800F5CF29F3010E030150250201A36F6C
:1027E800000E030151210201A46FA3C2F6FFA4C287
:1027F800F7FF0800F5CF2AF3270E0101576F030EE4
:10280800586F4AC359F15A6B5B6B2CEC3BF00101D2
:1028180083A1120025EE35F013EE11F00C0EDBCF7C
:10282800E3FFE806FCE203015C6B0C0E5B6F5B07E1
:102838009BD80A0E4F6F23EC46F04D5147EC42F0FF
:10284800BED80A0E4F6FEDEC44F0B2D88DD8060E04
:102858004F6F23EC46F04D5147EC42F0B0D8060ECE
:102868004F6FEDEC44F0A4D8D8A05C075B077CD888
:102878000A0E4F6F23EC46F04D5147EC42F0DF6EE5
:1028880003015B07D8A05C07110E5B25D96E030E08
:102898005C21DA6E5EC34DF15FC34EF17FD8EDEC7B
:1028A80044F04D5147EC42F0DF6EAFC1A3F2B0C126
:1028B800A4F20201D890A433A333D890A433A3334D
:1028C800D890A433A333A32903015A6F0A0E010138
:1028D8004D6F03015A5126EC48F047EC42F00301D2
:1028E800416F12C313F341C312F30A0E01014D6F76
:1028F80003015A51D5EC46F003015A6F5A51E6E1EB
:10290800110E0101576F030E08D083A103D0DFEC2D
:1029180042F08391A30E576FFD0E3EEC1DF02CEF95
:102928003BF04DC162F34EC163F34FC164F350C134
:1029380065F362C34DF163C34EF164C34FF165C3E0
:1029480050F1120062C34DF163C34EF164C34FF1FD
:1029580065C350F1120062C34DF163C34EF164C305
:102968004FF165C350F11200D8A05C07110E5B252A
:10297800D96E030E5C21DA6E5EC34DF15FC34EF172
:102988000101506B12000101516F526B536B546B74
:102998001200516F526B536B546B12000101506B54
:1029A8000A0E4F6F0A0C60C34DF161C34EF112005D
:1029B8004DC15EF34EC15FF303015B071200DF6E8A
:1029C8005EC34DF15FC34EF1506B1200506B0A0E9F
:1029D8004F6F0A0C60C34DF161C34EF112008F5165
:1029E8000201FE1103015D6F12004DC160F34EC17B
:1029F80061F31200080E4D6F030E4E6F1200080EA1
:102A08005F6F030E606F1200800E6C1907E16D0591
:102A180005E16AC132F26BC133F204D06CC132F203
:102A28006DC133F2020164DB2A0E01015A6F020EF6
:102A38005B6F860E5C6F020E5D6F32C25EF133C251
:102A48005FF1AAEC3CF00201346B862909E1872981
:102A580007E1882905E1892903E14ADB010E346F82
:102A680086C24DF187C24EF188C24FF189C250F13A
:102A78004E0E0101516F020E526F500E536F020E2F
:102A8800546F7F0E556F020E566F800E576F020EF1
:102A9800586FBDEC3EF0DFEC42F0010E0201816F91
:102AA8008C6B0A0E8C6501D02DD08C51040D030E51
:102AB80007DBDFDA8CC2DFFF8C51040DF32A000E2E
:102AC800F422D7DADF6A8C51040D020EF9DAD1DA72
:102AD800300EDF6E8C51040DCCDADF908C51040D72
:102AE800C8DADF928C51040D530E006F020E016F8D
:102AF800FADA8C51020D140EF324D96E020EECDAB8
:102B08008C2BCFD73A0E5D6F5B832D0E696F678371
:102B18003A0E756F73838D6B8D517ADA530EDE6EB4
:102B2800020E7EDA75DA570EDE6E020E79DA70DA88
:102B38005F0EDE6E020E74DA6BDA630EDE6E020E64
:102B48006FDA66DA6B0EDE6E020E6ADA61DA6F0E23
:102B5800DE6E020E65DA5CDA770EDE6E020E60DA81
:102B680057DA7B0EDE6E020EDD6E8D2B2B0E010109
:102B7800911904E1916BDFEC42F0000C2A0E9119D7
:102B880001E01FD2916B02015051006F5151016F4A
:102B9800026B036B0B0ED8900037013702370337EF
:102BA800E82EF9D77FC204F2056B066B076B160E89
:102BB800D8900437053706370737E82EF9D780C28B
:102BC80008F2096B0A6B0B6B1D0ED8900837093792
:102BD8000A370B37E82EF9D7045108250C6F055131
:102BE80009210D6F06510A210E6F07510B210F6F36
:102BF80000510C25106F01510D21116F02510E214A
:102C0800126F03510F21136F4E511025866F4F51CC
:102C18001121876F000E1221886F000E1321896F12
:102C28002A0E01015A6F020E5B6F860E5C6F020E50
:102C38005D6F6AC15EF16BC15FF173EC43F0DFEC6D
:102C480042F0010C50C28EF251C28FF220DA23EC0E
:102C580046F04D5102017C6F03DAEDEC44F0F6D9F1
:102C6800060E4F6F23EC46F04D510201786F8EC26D
:102C78004DF106DAEDEC44F0E9D90A0E4F6F23EC7A
:102C880046F04D510201706FEBD9EDEC44F04D5117
:102C980002016C6F4EC28EF24FC28FF2F8D923EC4C
:102CA80046F04D510201646FDBD9EDEC44F0CED90A
:102CB800060E4F6F23EC46F04D510201606F8EC235
:102CC8004DF1DED9EDEC44F0C1D90A0E4F6F23EC7B
:102CD80046F04D510201586FC3D9EDEC44F04D5107
:102CE8000201546F826B070E826501D010D08251A9
:102CF8008FD910EE02F02AEC0DF0825189D922EC1E
:102D08002BF047EC42F0E76E0201822BECD7CED9CC
:102D18003AEC3FF02D0E911904E00201340501E070
:102D280059D10101916B0201346B8B6BCDD98CECBD
:102D380047F002018B516CD9DECF00F2DDCF01F2F2
:102D480000C2D9FF01C2DAFFDF80836B070E8365FB
:102D580001D010D083515CD910EE02F02AEC0DF0AE
:102D6800835156D922EC2BF047EC42F0E76E020172
:102D7800832BECD79BD93AEC3FF02B0E911904E149
:102D8800916BDFEC42F026D12A0E911901E0A1D017
:102D9800916B010E0201526F4D6B64D04D51040DC1
:102DA800F3CF85F2855134D910EE01F02AEC0DF0FD
:102DB800E750356F855174D9020E3FD935D9366F32
:102DC80085516ED9040E39D92FD9376F855168D9F5
:102DD800060E33D929D9386F35510A0D36518DD998
:102DE800F4BE08D0F45003E1180EF35C03E385C287
:102DF8008BF20ED037510A0D38517FD9F4BE0AD064
:102E0800F45003E13C0EF35C05E38551020F8B6F30
:102E1800526B27D035C24DF101014E6B020E506F37
:102E2800580E4F6F61EC48F0020136513C0DF3CF5C
:102E380000F2F4CF01F237510A0D55D901014D5175
:102E48000201002701014E510201012338510027D8
:102E5800000E01234D51020D390EF324D96E020ED6
:102E68003BD94D2B020E4D6102D0525197E1525180
:102E780022E039513B5D3A513C591DE2846B030E07
:102E8800846501D015D08451C3D810EE01F02AEC26
:102E98000DF0845105D9080ED0D8DA6E00EE01F095
:102EA800DE50E926DD50EA22E7CFEFFF842BE7D793
:102EB800040E8B6F526B52511EE006D98CEC47F012
:102EC80039C24EF23AC24FF23BC250F23CC251F202
:102ED80081D0280E911907E1916B070E02018B61D1
:102EE8000AD08B2B08D0290E911905E1916B0201AC
:102EF8008B5101E08B0782EC11F0E8EC47F00201FE
:102F08008A6F8A2901E112D78B5182D810EE01F01D
:102F18002AEC0DF08AC2E7FF070E8B6107D78B2BCF
:102F280005D7080E0101576F090E586F02017F512E
:102F38007FEC45F0070E4D6F010EE8EC47F00201FB
:102F48008A6F8A2906E08A515AEC47F002017F1BF2
:102F580041D01E0E0101911904E1916B02017F6BB2
:102F680039D02D0E911936E1916B7F0E02017F6FDA
:102F780031D0040E0101576F080E586F02018051BD
:102F88007FEC45F0030E4D6F010EE8EC47F00201AF
:102F98008A6F8A2906E08A515AEC47F00201801BA1
:102FA80019D01E0E0101911904E1916B0201806B89
:102FB80011D02D0E91190EE1916B070E0201806F51
:102FC80009D002018151010A01E13CD6030AA9E0B6
:102FD800010ACFE0280E010191190BE1916BDFEC9A
:102FE80042F0030E0201811902E1010E0DD0812B7E
:102FF800BDD5290E911901E0B9D5916BDFEC42F0EE
:103008000201810503E1030E816FB0D58107AED5BA
:10301800020D3D0EF324D96E020EF420DA6E120072
:10302800DD6E8D2B8D511200DA6E10EE01F0DE5040
:10303800E126DD50E222E75012000027000E0123AE
:103048003D0E0025D96E020E012112004DC18EF2EF
:103058004EC18FF28EC24DF18FC24EF1506B1200ED
:103068008EC24DF18FC24EF10101506B0A0E4F6FA7
:103078000A0C530EF324D96E020EF420DA6E1200F5
:103088008FC24EF10101506B060E4F6F060C8EC2B7
:103098004DF18FC24EF10101506B0A0E4F6F0A0CB1
:1030A800006F016BD890003701371200140E010130
:1030B800576F020E586F0B0E596F050E5A6F050C9D
:1030C800F326000EF422000C3D0E01014D6F020E96
:1030D8004E6F080E4F6F080CF420DA6E00C2DEFF48
:1030E80001C2DDFF1200F3500027F4500123120043
:1030F800866B876B886B896B1200F326000EF422AF
:10310800000C010184A71200849785A312008597FB
:103118006CDA64DA04EC31F0000903E00101858718
:103128001200BB0E896FFF0E59DA04EC31F000096A
:1031380001E01200CF0E896FFB0E8A6F0FEC4AF088
:1031480087C08BF088C08CF07CDA04EC31F0000981
:1031580001E1E3D04FDA090E836F82EC4AF0BC6FCD
:1031680049DA080E836F82EC4AF07EDAB26F6DDAC4
:103178000C0E836F82EC4AF0BC6F3CDA0B0E836F47
:1031880082EC4AF071DAB16F60DA0F0E836F82EC6D
:103198004AF0BC6F2FDA0E0E836F82EC4AF00A0DEC
:1031A800F350BC250201FF6F180E0001836F22DA6D
:1031B80082EC4AF0BC6F170E836F1CDA82EC4AF07F
:1031C8000A0DBC51F324BD6F000EF420BE6FBF6B17
:1031D800BEBFBF07BF51C06FC169C269FFC295F0CA
:1031E800B1C194F00101B25134EC3DF0C36FC46B2E
:1031F800C151C327C251C423C3C09AF0C4C09BF0B5
:10320800000E9BBFFF0E9C6F9D6F800E9E6F510E30
:103218009F6F010EA06FA16BC7EC44F09AC0C5F078
:103228009BC0C6F09CC0C7F09DC0C8F0110E836F4C
:10323800E1D982EC4AF00A0D120E836FDBD982ECD9
:103248004AF0DDD9100E9E6F0E0E9F6FA06BA16B1A
:10325800C7EC44F09A51C525C96F9B51C621CA6F66
:103268009C51C721CB6F9D51C821CC6F140E836F21
:10327800C1D982EC4AF00A0D150E836FBBD982ECD6
:103288004AF0BDD93C0EEBD9C7EC44F09A51C92598
:10329800CD6F9B51CA21CE6F9C51CB21CF6F9D51D1
:1032A800CC21D06FBD51CD250101376F0001BE5132
:1032B800CE210101386F0001BF51CF210101396FC3
:1032C8000001C051D02101013A6F37C19AF038C1CD
:1032D8009BF039C19CF03AC19DF0640E0001BFD942
:1032E800C7EC44F09AC03BF19BC03CF19CC03DF157
:1032F8009DC03EF13BC18EF03CC18FF03DC190F0C6
:103308003EC191F085EC39F03BC1E8F03CC1E9F0F1
:103318003DC1EAF03EC1EBF01200AB0E896FFB0E27
:103328008A6F00EC4AF087C08BF088C08CF089D98E
:1033380004EC31F0000901E197D02C0E806F010EEA
:10334800816F836B0B0E826F846BE6EC48F0010192
:10335800416B090E416501D010D00B0E4125D96E85
:10336800DA6A060EDA222C0E4125E16EE26A010EB7
:10337800E222DFCFE7FF412BECD72C0E0001916F43
:10338800010E926FD1EC38F091C03FF192C040F13C
:1033980001013F51401132E1B10E0001806FFF0E73
:1033A800816F826B65EC49F001018491000E000188
:1033B800806F010E816F836B210E826F846BE6EC48
:1033C80048F0000E806F010E816F550E826FFD0E62
:1033D800836F79EC44F0000E0001806F010E816F5D
:1033E8002C0E826F010E836F79EC44F0000E000101
:1033F800806F010E816FDAEC32F02AD0C40E000122
:10340800806FFF0E28D965EC49F0EFD8E7D804ECB7
:1034180031F00009FAE0010184818483E70E00019C
:10342800806F050E816F110E01013F250001826F2B
:10343800000E010140210001836F03EC46F0210ECC
:103448000001806FFF0E07D965EC49F00101849BEC
:1034580083B7120093EC4AF001018385010E000145
:10346800F66FF40EF56FF40C200E896FFC0E8A6F60
:10347800F1EC49F087C08BF088C08CF0E2D804ECFE
:1034880031F000096BE0E2C490F1010184AB61D036
:1034980025EE71F011EE21F00A0EDBCFE3FFE8060E
:1034A800FCE290C129F1C3D8E6EC48F0210E806F08
:1034B800010ED1D865EC49F098D890D804EC31F0D9
:1034C8000009FAE0340E0101901903E18F6B848939
:1034D8001200360E901905E1020E8F17010184893A
:1034E8001200310E901902E18F81F8D7320E90192F
:1034F80002E18F83F3D7330E901902E18F85EED75F
:10350800300E901906E183898F6B85D8B9EC46F0A7
:10351800E5D7350E901905E1839984897CD8B9EFF0
:1035280046F0230E9019D8A41200858584917FD87F
:10353800E6EC48F0B10E806FFF0E8DD865EC49F0CF
:1035480054D84CD804EC31F00009FAE00101849B0E
:1035580012002A0E9019D8B4848B12000B0E896FB2
:10356800FC0E3CD804EC31F0000904E00101849120
:10357800849B12002E0E896FFC0E30D804EC31F0BB
:103588000009F4E1160E896FFC0E28D804EC31F01E
:103598000009ECE1FF0E896FFB0E20D804EC31F036
:1035A8000009E4E1280E896FFC0E18D804EC31F00C
:1035B800000906E0F80E806FFE0E816FDAEF32F038
:1035C800ED0E896FFB0E0AD804EC31F00009D8B46F
:1035D800120001018491849B839F12008A6F8B6B78
:1035E8008C6B8E6B020E8D6F020C330E0001896F8F
:1035F800FC0E1200C90E816F050E826F1200F326B1
:10360800000EF422F3CF9AF0F4CF9BF09BBFFF0E8D
:103618009C6F9D6F1200030E0001816FFC0E806F7E
:103628000101000E83B9010E0001826F120077C1FB
:1036380080F078C181F0010E0001836F826B846B8A
:10364800010C8E6B020E8D6F020CC90E0001816F8A
:10365800050E826F1200816F010E826F010C9E6F42
:103668009F6BA06BA16B12000A0DF350BC250101E2
:103678001200DFEC42F039DA406F386B0B01385139
:1036880016E1440E01015A6F0B0E5B6F40CB5CF1E3
:1036980041CB5DF177EC41F00B01546B626B010E8D
:1036A800386F640504E0446B546B556B626B76C4E9
:1036B80021FB77C422FB78C423FB800E402501013F
:1036C8004D6FFE0E0B01412101014E6F506B210E13
:1036D8004F6FEDEC44F04D2B000E4E234DC15BF1C6
:1036E8004EC15CF15D6B5E6B210E5F6F0B0E02ECE1
:1036F8002DF08AEC34F0210E576F0B0ED9D92CEC33
:103708003BF00B0164050FE1440E0101576F0B0EEE
:10371800CAD92CEC3BF0550E0101576F0B0EAAD9F4
:103728002CEC3BF00ED0B40E0101576FFD0EBBD947
:103738002CEC3BF0A60E0101576FFD0E9BD92CEC2B
:103748003BF02D0E0101911901E01DD1916B2BEE7B
:1037580024F00B0EDE6AE806FDE20B01436B010163
:1037680084A107D00B0176D9600EDE6EFE0EDD6EE9
:10377800432B0B016FD93D0EDE6EFF0EDD6E432B22
:1037880069D9520EDE6EFE0EDD6E432B63D9610ED3
:10379800DE6EFF0EDD6E432B5DD9CB0EDE6EFE0EA8
:1037A800DD6E432B010E436F240E0101606F0B0E7B
:1037B800616F626BA6EC31F00B013D6F010184B1C2
:1037C80003D00B01306B08D00B01432B3D29431963
:1037D800010ED8A4000E306F316B3051311103E067
:1037E800A3EC40F04BD7432B3D2943196BE1DFECA9
:1037F80042F079C43EFB7AC43FFB0B01640503E049
:10380800326B336B04D0440E326F0B0E336F32CBF6
:1038180064F133CB65F15DD9100E686F2BEC09F0BC
:103828003AD901E12BD7426B0AD01DD9440E422563
:10383800E16EE26A0B0EE222DFCFE7FF422B13D9DB
:10384800DF50F3E1440E4225D96EDA6A0B0EDA2214
:10385800DF6A3E51F30B08093E6F640503E0346BE1
:10386800356B04D0550E346F0B0E356F34CB64F1C5
:1038780035CB65F12ED90D0E686F2BEC09F00BD9FD
:1038880001E1FBD6426B0AD0EED8FAD8E16E0B0EF6
:10389800DE21E26EDFCFE7FF0B01422BE4D8DF50D9
:1038A800F3E1EED8D96E0B0EDE21DA6EDF6A010E77
:1038B8000B01646F440E01015A6F0B0E10D943ECD3
:1038C80041F0DCD6432B3D29431920E17BC439FB69
:1038D8007CC43AFB0101646B656B390E666F0B0E95
:1038E800676F0D0E686F2BEC09F064C136FB65C17C
:1038F80037FB0B013651371101E1C0D636CB50F1F9
:1039080037CB51F162EC3CF08481B8D6432B3D298A
:10391800431918E1640501E0B1D6170E0101606F83
:10392800FE0E616F9CEC46F0000901E1A7D6000E7F
:103938005A6F0B0ED4D843EC41F00B01386BDFEC17
:1039480042F09CD6432B3D29431901E097D6AF0E90
:103958000101606FFC0E616F9CEC46F0000901E10B
:103968008DD6B2D845EC32F0010E636F800E626FCF
:10397800030E656F8F0E646F666B7EEC3EF09FD80A
:1039880045EC32F07BD61F0E911925E1916B84A18D
:1039980008D0C40E4D6FFF0E4E6F4F6B86EC49F08A
:1039A8006DD60B01640501E069D6D60E0101606F82
:1039B800FD0E616F9CEC46F0000901E15FD60B013A
:1039C800640501E05BD6550E0101506F0B0E516F77
:1039D80062EC3CF099D7210E91190BE1916BB10E75
:1039E8004D6FFF0E4E6F4F6B86EC49F08491849BB0
:1039F80045D6280E91190EE1916B6F0E0B01405DB3
:103A0800030E415905E2210E4027000E412395D7A8
:103A18006CD812D0290E911911E1916B810E0B010E
:103A2800405D010E415905E3210E405F000E415BE8
:103A380084D7030E416F6F0E406F7FD72B0E9119FD
:103A480003E1916BDFEF42F01E0E911901E016D6EB
:103A5800916BDED74351020D240EF324D96E0B0E61
:103A6800F420DA6E120042513B25D96E000E3C213B
:103A7800DA6E1200586F010E596F5A6B5B6B010CAE
:103A880042510301DD6FDE6B110EDD27000EDE23D0
:103A9800440EDD25120064C13BFB65C13CFB0B01F4
:103AA8003B513C111200586F596B5A6B5B6B1200FB
:103AB800586F010E596F0E0E5A6F5B6B0E0C710E1C
:103AC8004D6FFF0E4E6F12007D0E4D6FFD0E4E6F47
:103AD80012003E0E0101666F0B0E676F12005B6FDE
:103AE80040CB5CF141CB5DF11200010E0B01416F3F
:103AF800800C290E01014D6F020E4E6F506B490E5E
:103B08004F6F516B87EC48F00BDAA40E526FFE0E24
:103B1800536F51EC44F0010183B92ED001DA870EBE
:103B2800526FFF0E536F51EC44F024EE3CF012EE4E
:103B38008DF0040EDBCFE3FFE806FCE2F6D9BC6F9C
:103B4800D890BB33FE51BB1507E0BCD9B4D9D3D943
:103B5800BC5147EC42F004D0B5D9ADD9CCD92D0E23
:103B6800DF6E0201BC07BC51EBE1B0D98D0E526F7C
:103B7800020E536F51EC44F0A9D9800E526FFF0E1C
:103B8800536F51EC44F024EE41F012EE92F0040E23
:103B9800DBCFE3FFE806FCE2C8D9BD6FD890BB33A2
:103BA80001018F510201BB1507E09AD984D9AAD91E
:103BB800BD5147EC42F004D093D97DD9A3D92D0E3D
:103BC800DF6E0201BD07BD51E9E180D9920E526F47
:103BD800020E536F51EC44F0010183A907D0A0D91C
:103BE800910E526FFD0E536F51EC44F0010183B9F1
:103BF80056D1E8C0B7F2E9C0B8F2EAC0B9F2EBC0F2
:103C0800BAF2B70EB1D94AEC2BF093D9800EB1199C
:103C18000CE1B2050AE1B76BB86BB96BBA6BB70EBA
:103C28000101A2D94AEC2BF084D9800EB1190AE11E
:103C3800B20508E14BD9410E526FFD0E536F51EC9E
:103C480044F02DD143D9970E526FFE0E536F51ECAD
:103C580044F026EEB7F012EE7AF0120EDBCFE3FF57
:103C6800E806FCE27A0E01014D6F020E4E6F506BB2
:103C7800130E4F6F516B87EC48F00201AD6BAE6BC2
:103C8800AF6BB06B720E01015A6F020E5B6FAD0E17
:103C98005C6F020E5D6FB1C25EF1B2C25FF1AAEC59
:103CA8003CF0ADC24DF1AEC24EF1AFC24FF1B0C261
:103CB80050F1A80E516F020E526FB30E536F020EE1
:103CC800546FAA0E556F020E566FAB0E576F020E49
:103CD800586FBDEC3EF0B7C25BF1B8C25CF1B9C237
:103CE8005DF1BAC25EF1B50E5F6F020E606FAC0E89
:103CF800616F020E626FABEC41F04BC09CF24CC09E
:103D08009DF24DC09EF2B5C24DF1B6C24EF128D912
:103D180023EC46F0E9D89C0E5F6F020E19D98AECA5
:103D280034F0B5C24DF1B6C24EF116D9EDEC44F0FF
:103D38004DC1B5F24EC1B6F24EC09FF24FC0A0F2CF
:103D480050C0A1F2B5C25BF1B6C25CF15D6B5E6BAF
:103D58009F0E5F6F020EFCD88AEC34F051C0A2F2BD
:103D680052C0A3F253C0A4F2B3C24DF1B4C24EF193
:103D7800F7D823EC46F0B8D8A20E5F6F020EE8D849
:103D88008AEC34F0B3C24DF1B4C24EF1E5D8EDEC93
:103D980044F04DC1B3F24EC1B4F254C0A5F255C0BF
:103DA800A6F256C0A7F2B3C25BF1B4C25CF15D6B78
:103DB8005E6BA50E5F6F020ECBD88AEC34F07A0EDC
:103DC800506F020E516F0201AC51FCEC3EF04DC138
:103DD80052F14EC153F151EC44F067D8B4D851ECCC
:103DE80044F063D89F0E526F020E536F51EC44F0AB
:103DF8005CD8A4D851EC44F058D89C0E526F020EEF
:103E0800536F51EC44F051D8E80E526FFF0E536FC8
:103E180051EC44F04AD8A50E526F020E536F51EC84
:103E280044F043D88BD851EC44F03FD8A20E526FDF
:103E3800020E536F51EC44F038D885D851EC44F059
:103E480024EE46F012EE97F0040EDBCFE3FFE8060F
:103E5800FCE26BD8BE6FBE5114E0D890BB33AB51B7
:103E6800BB1507E039D827D854D8BE5147EC42F0E3
:103E780004D032D820D84DD82D0EDF6E0201BE07EF
:103E8800EAD713D8970E526F020E536F51EC44F0D5
:103E98001DD87A0E526F020E536F51EC44F0290E62
:103EA8000101706F020E716F12007A0E0101506FDE
:103EB800020E516F1200276F286B255127272651B4
:103EC8002823120025692669BC511200290E010118
:103ED800506F020E516F120025692669BE511200FB
:103EE80025692669BD5112004DC15BF14EC15CF1D7
:103EF8005D6B5E6B12008D0E2725D96E020E282190
:103F0800DA6E1200920E2725D96E020E2821DA6E7B
:103F18001200970E2725D96E020E2821DA6E12009C
:103F2800290E506F020E516F1200080E0201BB6F6E
:103F3800030C6AC1B1F26BC1B2F21200B90E526F32
:103F4800FF0E536F12006F0E526FFF0E536F120069
:103F5800606F020E616F020C506B3C0E4F6F3C0C91
:103F6800506B3C0E4F6F3C0C6A6F020E6B6F120069
:103F78000001806F8051070AD8B4ED0C0F0AD8B43D
:103F8800DD0C280AD8B4200C010AD8B4210C030A85
:103F9800D8B4220C010AD8B4230C070AD8B4240CCC
:103FA800010AD8B4250C030AD8B4260C0E0AD8B4D2
:103FB800280C010AD8B4290C030AD8B42A0C010A1F
:103FC800D8B42B0C070AD8B42C0C010AD8B42D0C81
:103FD800030AD8B42E0C010AD8B42F0C1F0AD8B47F
:103FE800300C010AD8B4310C030AD8B4320C010AD7
:103FF800D8B4330C070AD8B4340C010AD8B4350C39
:10400800030AD8B4360C010AD8B4370C0F0AD8B44E
:10401800380C010AD8B4390C030AD8B43A0C010A8E
:10402800D8B43B0C070AD8B43C0C010AD8B43D0CF0
:10403800030AD8B43E0C010AD8B43F0C7F0AD8B49E
:10404800400C010AD8B4410C030AD8B4420C010A46
:10405800D8B4430C070AD8B4440C010AD8B4450CA8
:10406800030AD8B4460C010AD8B4470C0F0AD8B4CE
:10407800480C010AD8B4490C030AD8B44A0C010AFE
:10408800D8B44B0C070AD8B44C0C010AD8B44D0C60
:10409800030AD8B44E0C010AD8B44F0C1F0AD8B47E
:1040A800500C010AD8B4510C030AD8B4520C010AB6
:1040B800D8B4530C070AD8B4540C010AD8B4550C18
:1040C800030AD8B4560C010AD8B4570C0F0AD8B44E
:1040D800580C010AD8B4590C030AD8B45A0C010A6E
:1040E800D8B45B0C070AD8B42F0C010AD8B45D0CFD
:1040F800030AD8B45E0C010AD8B45F0C3F0AD8B4DE
:10410800600C010AD8B4610C030AD8B4620C010A25
:10411800D8B4630C070AD8B4640C010AD8B4650C87
:10412800030AD8B4660C010AD8B4670C0F0AD8B4CD
:10413800680C010AD8B4690C030AD8B46A0C010ADD
:10414800D8B46B0C070AD8B46C0C010AD8B46D0C3F
:10415800030AD8B46E0C010AD8B46F0C1F0AD8B47D
:10416800700C010AD8B4710C030AD8B4720C010A95
:10417800D8B4730C070AD8B4740C010AD8B4750CF7
:10418800030AD8B4760C010AD8B4770C0F0AD8B44D
:10419800780C010AD8B4790C030AD8B47A0C040A4A
:1041A800D8B4E90CEC0AD8B4270C050AD8B42D0CFD
:1041B8003F0AD8B4A20C030AD8B4C80C1B0AD8B456
:1041C800EF0C080AD8B4B50C010AD8B4CC0C020A12
:1041D800D8B4C90C7B0AD8B4410C010AD8B4A00CD5
:1041E800030AD8B4420C010AD8B4A10C070AD8B4FF
:1041F800E00C010AD8B4450C030AD8B4A30C010A90
:10420800D8B4A40C0F0AD8B4A50C010AD8B4A60CCB
:10421800030AD8B44B0C010AD8B4A70C070AD8B4BF
:104228004D0C010AD8B4480C030AD8B44F0C010A43
:10423800D8B4A80C1F0AD8B4500C010AD8B4430C3F
:10424800030AD8B4540C010AD8B4A90C070AD8B484
:10425800AA0C010AD8B4580C030AD8B4E10C010A14
:10426800D8B4AB0C0F0AD8B4AC0C010AD8B4E20C21
:10427800030AD8B4AD0C010AD8B4AE0C070AD8B4F6
:10428800C40C010AD8B4AF0C030AD8B4B00C010AA4
:10429800D8B4B10C3F0AD8B4610C010AD8B4B20C36
:1042A800030AD8B4B30C010AD8B4B40C070AD8B4BA
:1042B800E30C010AD8B4650C030AD8B4B60C010A99
:1042C800D8B4B70C0F0AD8B4B80C010AD8B4B90CD2
:1042D800030AD8B4BA0C010AD8B4BB0C070AD8B47C
:1042E800BC0C010AD8B4BD0C030AD8B46F0C010A7F
:1042F800D8B4BE0C1F0AD8B4700C010AD8B4630C29
:10430800030AD8B4BF0C010AD8B4790C070AD8B488
:10431800E40C010AD8B4780C030AD8B4E50C010AF5
:10432800D8B4C00C0F0AD8B4C10C010AD8B4E60C32
:10433800030AD8B4C20C010AD8B4C30C070AD8B40B
:10434800C40C010AD8B4C50C030AD8B4C60C010AB7
:10435800D8B4C70C3F0C01018583030E4E6F4D691D
:104368009AEC48F00301F76FF73BF747F74701016D
:1043780085510301F719BF0BF7190101856F85AD49
:104388001CD00401CE6B010EB7EC2EF0000903E03F
:104398000101858112D02B0E0101911902E1916B67
:1043A8000CD08BEC4AF0626B320E616F61EC46F018
:1043B8000401CE2B040ECE65E6D747D96AD94AEC5C
:1043C8002BF05ED970EC4AF052D9010185AD46D088
:1043D800C6C451F1C7C452F1C8C453F1C9C454F199
:1043E800B80E556F0B0E51D9EFEC3FF0000936E0CF
:1043F80070EC4AF03CD93DEC27F087EC48F07BECB8
:104408002FF077EC2FF086EC49F070EC4AF04DC1B4
:10441800CAF44EC1CBF44FC1CCF450C1CDF4330E25
:1044280001015FEC2FF05BEC30F0000905E1FFD8EB
:10443800EFEC3FF00009F3E0FAD8EFEC3FF00009A9
:104448000CE08491849B859509D987EC48F08BEC26
:104458004AF0000EB7EC2EF001D0838F010185A53C
:1044680011D08595E70E0201BF6F050EC06F7DEC78
:104478001DF070C1C1F271C1C2F253EC23F0EED845
:1044880087EC48F083A707D00001F551F61103E146
:104498005EEC4AF008D0010183B705D0915103E0E2
:1044A800916BA6EC49F0010183A78FD786EC11F038
:1044B8002D0E0101911922E183B120D0916B0401E5
:1044C800CF6B72C4C2F473C4C3F474C4C4F475C4A7
:1044D800C5F4C20E0101606F040E616FCFC462F1B2
:1044E800A6EC31F00401CF6FCF0502E12CEC26F0E9
:1044F8000401CF51EEE1DFEC42F067D7280E9119A5
:1045080009E1916B010E0201A26F800EA16FDAEC36
:104518003AF05BD7290E911904E1916B3DEC1BF041
:1045280054D72C0E911916E1916B83A74ED783B5FA
:1045380004D00301F76BF72B02D00301F76BF747A1
:10454800F747010183510301F719FB0BF719010123
:10455800836F3BD71E0E91190FE1916B83898F6B87
:10456800030E4E6FFC0E4D6F000E83B9010E4F6F98
:1045780076EC49F0010120D0250E911905E183B1AF
:1045880003D0916B010E0FD0260E911905E183B16E
:1045980003D0916B020E07D0270E911906E183B163
:1045A80004D0916B040E8F1BE5D7220E911906E1FA
:1045B80083B104D0916B8F6B848907D7230E91192F
:1045C80005E183B103D0916B8399CAD71F0E911966
:1045D80004E1916B5EEC4AF0F8D6210E911904E1E2
:1045E800916B15EC35F0F1D62A0E911904E1916B17
:1045F800010E926FEAD62B0E911908E0240E91193C
:1046080001E0E3D683A902D083A1DFD62B0E91194E
:1046180006E11BD883A103D08391DFEC42F0916BB4
:10462800C4EC49F036D84AEC2BF02AD8CED6CAC406
:1046380051F1CBC452F1CCC453F1CDC454F1320E74
:10464800556F566B576B586B000CE8C093F1E9C077
:1046580094F1EAC095F1EBC096F11200E70E4D6FA8
:10466800050E4E6F506B0E0E4F6F516B0E0C4DC1F9
:10467800C6F44EC1C7F44FC1C8F450C1C9F4120002
:104688006AC1AFF16BC1B0F11200566F576B586B2E
:10469800000C930E01016A6F010E6B6F120083AF5D
:1046A8001200650E4D6F0B0E4E6F020E5AD987EC35
:1046B80048F04CD95AD951EC44F04DD9D2EC47F0D6
:1046C8004DC1E9F24EC1EAF2BFC2E7F2C0C2E8F258
:1046D800E7C2D9FFE8C2DAFF2B0EDE1803E10201B8
:1046E800E74BE82B2DD9A70E526FFF0E536F51ECF5
:1046F80044F063C0D9F264C0DAF265C0DBF2E7C205
:104708004DF1E8C24EF1D2EC47F04DC15BF14EC11C
:104718005CF15D6B5E6BD90E5F6F020E2BD97CEC82
:104728003BF014D9D90E526F020E536F51EC44F07E
:1047380007D9EA0E526FFF0E536F51EC44F0BFC217
:1047480056F1C0C257F12DEC39F056C1DFF257C10E
:10475800E0F2FCD8DFC252F1E0C253F151EC44F070
:10476800EFD803D951EC44F0EBD8ED0E526FFF0EA1
:10477800536F51EC44F0C1C24DF1C2C24EF1D2ECBC
:1047880047F0D8904D350201E16F01014E35020125
:10479800E26F66C0DCF267C0DDF268C0DEF2E1C23B
:1047A8005BF1E2C25CF101015D6B5E6BDC0E5F6F79
:1047B800020EE0D87CEC3BF0C9D8DC0E526F020E3A
:1047C800536F51EC44F0C7D8D2EC47F0650E4D2535
:1047D800656F0B0E4E21666FC1C267F1C2C268F1E8
:1047E800640E696F0D0E6A6F3FEC3EF0650E4D6FFB
:1047F8000B0E4E6FD2EC47F00201E95101014D5FFB
:104808000201EA5101014E5BD8904E310201C36F9B
:1048180001014D310201E96FC3C2EAF291D8F80EE5
:10482800526FFF0E536F51EC44F00201D16BD26B03
:10483800D36BD46BEA5113E1640EE95D10E2EA51DF
:1048480006E10A0EE95D03E2E66B020E02D0E66BB2
:10485800030EE56FE5C2E3F2E6C2E4F203D0E46BCF
:10486800040EE36FE9C25BF1EAC25CF101015D6B22
:104878005E6BD10E5F6F020E606FE3C261F18AEC6E
:1048880034F025EE42F012EEC5F00B0EDBCFE3FF5D
:10489800E806FCE2C50E506F020E516FD10E526F42
:1048A800020E536F51EC44F00101859370EC4AF00D
:1048B8004DC1D5F24EC1D6F24FC1D7F250C1D8F290
:1048C800C50E01014D6F020E77EC2FF086EC49F012
:1048D80033D82BD85BEC30F0000911E1D5C251F187
:1048E800D6C252F1D7C253F1D8C254F1DC0E556F7B
:1048F800050E49EC23F0EFEC3FF00009E9E01CD885
:1049080014D85BEC30F0000908E0650E4D6F0B0E13
:1049180077EC2FF086EC49F006D0570E4D6FFC0E61
:104928004E6F45EC32F085831200556F566B576B0E
:10493800596B030E586F030CE40E546FFF0E1200F0
:10494800650E0101506F0B0E516F1200650E506F0E
:104958000B0E516F1200650E01014D6F0B0E4E6F5D
:104968001200506F4F6B516B1200A90E526FFF0E61
:10497800536F1200606F020E616F020C01014D6FE0
:1049880002D04D51120001014D51410AD8B4610CB9
:10499800030AD8B4620C010AD8B4630C070AD8B465
:1049A800640C010AD8B4650C030AD8B4660C010A71
:1049B800D8B4670C0F0AD8B4680C010AD8B4690CCB
:1049C800030AD8B46A0C010AD8B46B0C070AD8B425
:1049D8006C0C010AD8B46D0C030AD8B46E0C010A29
:1049E800D8B46F0C1F0AD8B4700C010AD8B4710C73
:1049F800030AD8B4720C010AD8B4730C070AD8B4E5
:104A0800740C010AD8B4750C030AD8B4760C010AE0
:104A1800D8B4770C0F0AD8B4780C010AD8B4790C3A
:104A2800030AD8B47A0C3B0AD8B4410C030AD8B4A8
:104A3800420C010AD8B4430C070AD8B4440C010A42
:104A4800D8B4450C030AD8B4460C010AD8B4470CAC
:104A58000F0AD8B4480C010AD8B4490C030AD8B4D0
:104A68004A0C010AD8B44B0C070AD8B44C0C010AFA
:104A7800D8B44D0C030AD8B44E0C010AD8B44F0C64
:104A88001F0AD8B4500C010AD8B4510C030AD8B480
:104A9800520C010AD8B4530C070AD8B4540C010AB2
:104AA800D8B4550C030AD8B4560C010AD8B4570C1C
:104AB8000F0AD8B4580C010AD8B4590C030AD8B450
:104AC8005A0CD20AD8B4B80C100AD8B4A80C780A70
:104AD800D8B4E00C010AD8B4E10C030AD8B4E20C4B
:104AE800010AD8B4E30C070AD8B4E40C010AD8B414
:104AF800E50C030AD8B4E60C010AD8B4E70C0F0A8F
:104B0800D8B4E80C010AD8B4E90C030AD8B4EA0C02
:104B1800010AD8B4EB0C070AD8B4EC0C010AD8B4D3
:104B2800ED0C030AD8B4EE0C010AD8B4EF0C1F0A36
:104B3800D8B4F00C010AD8B4F10C030AD8B4F20CBA
:104B4800010AD8B4F30C070AD8B4F40C010AD8B493
:104B5800F50C030AD8B4F60C010AD8B4F70C0F0AFE
:104B6800D8B4F80C010AD8B4F90C030AD8B4FA0C72
:104B7800010AD8B4FB0C070AD8B4FC0C010AD8B453
:104B8800FD0C030AD8B4FE0C010AD8B4FF0C3F0A86
:104B9800D8B4C00C010AD8B4C10C030AD8B4C20CEA
:104BA800010AD8B4C30C070AD8B4C40C010AD8B493
:104BB800C50C030AD8B4C60C010AD8B4C70C0F0A2E
:104BC800D8B4C80C010AD8B4C90C030AD8B4CA0CA2
:104BD800010AD8B4CB0C070AD8B4CC0C010AD8B453
:104BE800CD0C030AD8B4CE0C010AD8B4CF0C1F0AD6
:104BF800D8B4D00C010AD8B4D10C030AD8B4D20C5A
:104C0800010AD8B4D30C070AD8B4D40C010AD8B412
:104C1800D50C030AD8B4D60C010AD8B4D70C0F0A9D
:104C2800D8B4D80C010AD8B4D90C030AD8B4DA0C11
:104C3800010AD8B4DB0C070AD8B4DC0C010AD8B4D2
:104C4800DD0C030AD8B4DE0C010AD8B4DF0C99D6FF
:104C58000301456B25EE00F013EE21F0110EDBCFBA
:104C6800E3FFE806FCE2010E446F210E0101606FCC
:104C7800030E616F45C362F1A6EC31F00301456F85
:104C8800442B4529441903E19FEC0DF0EDD0442B4A
:104C9800452944190BE14EEC48F00301406F40519F
:104CA80001E1E2D0405154EC4AF0DED0442B4529D2
:104CB800441933E124EE36F013EE33F0050EDBCF62
:104CC800E3FFE806FCE2030E01014E6F4D699AEC22
:104CD80048F00301416F410501E0416B330E0101CA
:104CE800606F030E616F030141290101626FA6EC39
:104CF80031F00301426F425101E1B6D0420502E1B1
:104D08000101839F030E01014E6F4D6903014205A6
:104D180001014F6F76EC49F0A7D0442B452944197F
:104D280009E18BEC4AF0CC0E4D6FFF0E4E6F45EC4F
:104D380032F09AD0442B4529441909E1ED0E0101BE
:104D48004D6FFE0E77EC2FF086EC49F08DD0442B9A
:104D58004529441904E1010EB7EC2EF085D0442B07
:104D68004529441973E1010183AF69D070EC4AF019
:104D78004DC139F34EC13AF34FC13BF350C13CF337
:104D880078D887EC48F08E0E4D6FFF0E77EC2FF039
:104D980086EC49F0330E5FEC2FF05BEC30F003014A
:104DA8003F6F3F5113E139C351F13AC352F13BC34D
:104DB80053F13CC354F1140E0101556F000E566BAC
:104DC800576B586BEFEC3FF00009E4E003013F51EB
:104DD8002EE0206BDF0E0101752503013D6F000EEB
:104DE8000101762103013E6F436B1F0E436501D01D
:104DF80016D03DC3D9FF3EC3DAFF000E4325E16E4E
:104E0800E26A030EE222DFCFE7FF3D4B3E2B3BD8A1
:104E1800DF5003E138D8200EDF6E432BE6D7000EB3
:104E280001014D6F030E4E6F45EC32F01DD0D70EC9
:104E380001014D6FFE0E4E6F45EC32F015D02D0E70
:104E48004D6FFD0E4E6F45EC32F00ED0442B4529C8
:104E580044190AE10101636B626B030E656F6469B3
:104E6800010E666F7EEC3EF00301455101E0FBD672
:104E7800120077C14DF178C14EF1010E0101506F5A
:104E88004F6B516B010C000E4325D96EDA6A030E85
:104E9800DA221200DFEC42F0EED8DF50030B626F2B
:104EA800E5D8FC0B621902012E6FE5D808D9626FAC
:104EB80062476247DBD8F30B621902012E6FA10E1D
:104EC800F66EFB0EF76E22EE16F0090EF3D8FEE230
:104ED8008B0EF66EFB0EF76E22EE00F0150EEAD87A
:104EE800FEE26EC428F26FC429F270C42AF271C4BB
:104EF8002BF225EE95F012EE20F0070EDBCFE3FF44
:104F0800E806FCE202012C6B2E51030B030D160E72
:104F18000101626F020EC2D82C51B9D8280E0201C5
:104F28002C25E16EE26A020EE222DFCFE7FF2C2B8E
:104F3800020E2C65E9D72D6B2E31E832030B070DD5
:104F4800000E0101626F020EA9D82D51A0D8200EC3
:104F580002012D25E16EE26A020EE222DFCFE7FFB1
:104F68002D2B060E2D65E8D7280E0101576F020E6E
:104F7800586F596B020E5A6F5B6B2CEC3BF0200E8E
:104F88000101576F020E586F596B070E5A6F5B6B12
:104F98002CEC3BF0230E010191190AE1916B60D8CA
:104FA800020E626103D05CD8622B21D0FC0E0FD0B8
:104FB800240E91190FE1916B78D80101626F020EEE
:104FC800626104D002015CD8622B22D0F30E020188
:104FD8002E1798D7260E911913E1916B02012E51C5
:104FE800030B0AE02E51030B0101626F62073ED8E2
:104FF800FC0B6219020114D02E51FC0B020910D0CF
:10500800270E91190FE1916B50D807E039D8620744
:10501800623762372BD8F30BECD72E51F30B080904
:105028002E6F70D72A0E911914E1916B19D823D8D5
:10503800DF18FC0B6219DF6E38D80101626F1BD8CC
:1050480062476247DF506219F30B6219DF6EDFEFC8
:1050580042F02B0E911901E055D7916BDFEF42F02A
:1050680002012E51030B0101626F120002012E5141
:1050780001016219120060C1D9FF61C1DAFF120093
:105088002E310101626F6231030B626F1200010160
:105098006225D96E000E6321DA6E1200636FF35039
:1050A8006227F45063230201120002012E31E83214
:1050B800030B12000900F5CFDEFFE806120001011C
:1050C800DF30E832030B12000101839FF26AF16AB4
:1050D800F06A9E6AA16A9D6AA06A9F6AA26AD06AFB
:1050E8008F6BDFEC42F0756A1F0E746ECD50CF0BDC
:1050F8001009CD6ED08EF28CF28EF28CCA84CD8ED1
:10510800C80ECF6ECE6ACD809D809F80810ED56EF1
:10511800F28A0F0EC16E926A010E936E200E946E83
:1051280069504D6FBAD8B1D8A1EC44F04DC1D0F454
:105138004EC1D1F44FC1D2F450C1D3F47A50BAD889
:1051480060EC11F0A1EC44F04D510401D025D46F6E
:1051580001014E510401D121D56F01014F510401C4
:10516800D221D66F010150510401D321D76F7B5052
:105178000101A0D83C0E99D8A1EC44F04D5104018E
:10518800D425D86F01014E510401D521D96F0101F1
:105198004F510401D621DA6F010150510401D72182
:1051A800DB6F800ED8250301F86FAE0E0401D921FC
:1051B8000301F96FFE0E0401DA210301FA6FFF0EF5
:1051C8000401DB210301FB6FF8C34DF1F9C34EF174
:1051D800FAC34FF1FBC350F1640E010166D8A1EC8C
:1051E80044F029EC11F0896A8A6A8B6A240ECA6E27
:1051F800030E4E6FFC0E4D6F9AEC48F00401D06F11
:10520800D03B010183510401D019EF0BD0190101E2
:10521800836F0301FD6B000E0101736F070E746F3E
:105228000301FD2BFD5129D8000EDE6E080E39D87A
:1052380024D8000EDE6E090E34D81FD8000EDE6E9C
:105248000A0EDD6EFD2BFC6BFC5117D8DECF4DF13D
:10525800DDCF4EF1010E0101B5EC24F087EC48F0EA
:105268000301FC2B030EFC65EFD743EC49F0A6ECD9
:1052780049F0AFEC21F09BEF01F0020D730EF3241F
:10528800D96E010EF420DA6E1200800E516F510EA5
:10529800526F010E536F546B010C4E6B4F6B506B7A
:1052A8001200DD6EFD2BFD511200516F526B536BD6
:1052B800546B12004D6F4E6B4F6B506B1200000118
:1052C800E6A11200E7C093F0E2A10DD0935111ECD2
:1052D80043F0000905E0E291E283C30EE217C30C34
:1052E800E691E58F1200E2A334D0F2510BE093C0AF
:1052F80080F0CC0ECFEC43F0E251C30B0409E26F0F
:10530800E2931200CDD8080E8E61080CE231E83223
:105318000F0B05E193C080F0550ECFEC43F093C01E
:1053280080F0BED88F6B8D0E8E25D96E050E8F211D
:10533800DA6EDF50CFEC43F0E231A5D8E2518E1996
:10534800C30B8E19E26FE231E8320F0B080AD8E07E
:105358001200E2AD07D093C080F0440ECFEC43F0CA
:10536800E29D1200E351E41108E0E307D8A0E40746
:10537800E351E411D8B4E2811200E5A107D093C04B
:1053880080F0BE0ECFEC43F0E5911200E5A379D092
:1053980082D8090E8E61090C906B14D07CD88F6B63
:1053A8007D0E8E25D96E040E8F21DA6E935112EC84
:1053B80045F0DF6EE53167D8E5518E19C30B8E19BC
:1053C800E56F902B030E906104D065D8080E8E65AA
:1053D800E5D7E531E8320F0B090AD8A412007D0E93
:1053E800806F040E816F080E826FE3EC45F00401B4
:1053F800851903E00001E58F3FD07DC491F07EC49C
:1054080092F0000191510F0BF36FF351060D020E4C
:10541800F324866F000EF420876F896B0A0E886F5D
:1054280067EC40F08651F36F913B0F0E9117925144
:10543800800BF46F923BF00E9217700E92179151F9
:105448009213F45115E092517F0801018C6F000E00
:10545800D8A0E82A00088D6F0001F3510A08F36FFD
:105468000A0EF31909E1F36B01018C4B8D2B04D063
:1054780092C08CF101018D6B0001E593E691E58DF9
:105488001200E69112008E6F8E310F0B8E6F8E2BED
:105498008E378E371200E531E8320F0B8E6F12000F
:1054A800E231E8320F0B8E6F12006E6BB2D8DECF8E
:1054B80064F1DDCF65F164C1D9FF65C1DAFFDFB200
:1054C80019D0A7D810EE02F02AEC0DF06E51020D9B
:1054D80060C164F161C165F1F3506427F45065233C
:1054E8000C0E6425D96E000E6521DA6EA7D847EC3C
:1054F80042F0E76E8ED810EE03F02AEC0DF06EC184
:10550800E7FF6E2B090E6E65D1D76F6BA3D8DA6EE5
:10551800DECF62F1DDCF63F162C1D9FF63C1DAFF8B
:10552800DFB20AD097D886D82AEC0DF093D8DA6E75
:1055380085D847EC42F0E76E8DD888D82AEC0DF074
:105548006FC1E7FF6F2B040E6F65E0D720EE0AF0FE
:1055580090D886EC34F02AEC0DF084D86FD847EC5C
:1055680042F0E76E7FD810EE03F02AEC0DF0E76A00
:105578000C0E6025576F000E6121586F0A0E596F87
:105588005A6B3AEC3FF060C157F161C158F1050E12
:10559800596F140E5A6F3AEC3FF064D810EE01F0D0
:1055A8002AEC0DF0E750FCEC3EF067D83BEC32F00B
:1055B8002CEC3BF024EE30F011EE66F0050EDBCF5C
:1055C800E3FFE806FCE2010120EE20F052D8DA22DF
:1055D800DF506C6F6C5106E06C0504E0020E6C192C
:1055E80001E06C6BB60E576FFF0E586F596B4AD8B7
:1055F8002CEC3BF001016C51020D660EF324D96EC0
:10560800010EF4202DEC32F0010E596F3BD82CEF2F
:105618003BF06E51020D60C162F161C163F1F3505C
:105628006227F45063230C0E6225D96E000E6321A5
:10563800DA6E1200DA6E10EE02F0120000EE01F0DF
:10564800DE50E926DD50EA22EF501200DA6E10EE45
:1056580003F012006F51020DF3506025D96EF4501B
:105668006121120020EE0AF06051D9266151DA2238
:1056780012006051D926615112004DC157F14EC137
:1056880058F112000C0E5A6F5B6B0C0C02011E6B6A
:105698001F6B010E0E6F800E0D6F176B216B226B47
:1056A800236B246B000E01015A6F020E5B6F210EF3
:1056B8005C6F020E5D6F1EC25EF11FC25FF1AAEC45
:1056C8003CF0080E02011E27000E1F23212907E1C6
:1056D800222905E1232903E1242901E195D021C2EA
:1056E8004DF122C24EF123C24FF124C250F1150EE2
:1056F8000101516F020E526F0F0E536F020E546F5D
:10570800190E556F020E566F180E576F020E586F0E
:10571800BDEC3EF00201185177E0206B1951010BE6
:105728000C6FD89019330C056BE1205101014D6FB6
:1057380051EC29F049EC29F0A1EC44F04DC16CF191
:105748004EC16DF14FC16EF150C16FF115C24DF1EF
:1057580016C24EF14F6B506B3C0E59EC29F0A1EC80
:1057680044F04D516C250201086F01014E516D2125
:105778000201096F01014F516E2102010A6F0101F7
:1057880050516F2102010B6F08C24DF109C24EF151
:105798000AC24FF10BC250F1640E010159EC29F015
:1057A800A1EC44F04DC11AF24EC11BF24FC11CF2DC
:1057B80050C11DF2020111511A5D12511B591351AA
:1057C8001C5914511D5902E317511AE139D81A51BD
:1057D800DE5C1B51DE581C51DE581D51DE5810E2AC
:1057E800010E176F1AC211F21BC212F21CC213F279
:1057F8001DC214F2F80E1E250D6FFF0E1F210E6F2D
:10580800202B060E20658AD7800E1E5D010E1F59BB
:1058180001E244D717050AE113D811C2DEFF12C20C
:10582800DEFF13C2DEFF14C2DEFF05D009D8DE6A30
:10583800DE6ADE6ADD6A0DC26AF10EC26BF1120021
:105848006AC1D9FF6BC1DAFF12002E6B2F6B296B6F
:105858002A6B2B6B2C6B190E01015A6F020E5B6FB2
:10586800290E5C6F020E5D6F14C25EF115C25FF106
:10587800AAEC3CF0010E02012D6F306B190E302599
:10588800D96EDA6A020EDA22DE2801E02D6B302B9F
:10589800070E3065F3D7800E141902E115051CE0D8
:1058A800160504E12D0504E1010E03D02D51FCE09D
:1058B800000E276F286B275128110EE014C270F1D3
:1058C80015C271F18AD8702902012E6F000E0101EC
:1058D800712102012F6F14D014C26AF115C26BF145
:1058E80016C26CF101016E6B6D6B93EC35F06AC1F9
:1058F80014F26BC115F2800E1419E0E11505DEE112
:105908002E512F111AE05DC021F25EC022F25FC055
:1059180023F22EC25BF12FC25CF101015D6B5E6B5D
:10592800210E5F6F020E6AD88AEC34F0210E576F91
:10593800020E5ED82CEC3BF007D0E70E0101576F42
:10594800FF0E56D82CEC3BF00201160536E1800E0E
:10595800171902E1180529E08A0E0101576FFE0E9A
:105968003EEC1DF02CEC3BF060C024F261C025F247
:1059780062C026F217C270F118C271F12ED8702BCE
:10598800000E712370C15BF171C15CF15D6B5E6BE0
:10599800240E5F6F020E32D88AEC34F0240E576F53
:1059A800020E5CEC1DF02CEC3BF0790E0101576FF8
:1059B800FF0E57EC1DF02CEC3BF0690E0101576F00
:1059C800FF0E586F596B060E5A6F5B6B2CEC3BF051
:1059D80014C214F215C215F212000101D8907133E5
:1059E8007033D89071337033D8907133703312009C
:1059F800586F596B0E0E5A6F5B6B0E0C606F030E6F
:105A0800616F030C83B985D0800E725C010E7358E8
:105A180001E37FD0326A336A346A356A1C0E0D6E30
:105A2800320E0E6E72C00FF073C010F0FEEC3DF037
:105A3800322806E1332804E1342802E1352864E0FD
:105A48003250246E070E3314256E0B0E1B6EB1D820
:105A58001B2EFDD73250266E070E3314276E0B0E01
:105A68001B6EA7D81B2EFDD732507F0B2E6E070E4C
:105A78001B6E9FD81B2EFDD73250070B2F6E2F5051
:105A880043E02E5041E0E8C001F0E9C002F0EAC06E
:105A980003F0EBC004F0700E056E170E066E076A71
:105AA800086A73EC38F001C02CF002C02DF02CC04D
:105AB80001F02DC002F0050E046EA00E036E42EC3C
:105AC80046F001C02AF002C02BF02CC001F02DC016
:105AD80002F0050E046EA00E036E37EC45F00128A7
