:0400000099EF01F083
:060008007E82A8ED31F03C
:100018007E80D8CFD3F0E8CFD4F0E0CFD5F0E9CFC9
:10002800D6F0EACFD7F0E1CFD8F0E2CFD9F0D9CFE8
:10003800DAF0DACFDBF0F3CFDCF0F4CFDDF0F6CF97
:10004800DEF0F7CFDFF0F8CFE0F0F5CFE1F0040015
:10005800F2A44BD1F294010183A508D0440E426F5B
:10006800060E436F240E486F060E07D0640E426FCB
:10007800060E436FA70E486F050E496F82A7CDD0B5
:10008800640E0001F81903E0010182ABC6D001013A
:100098004C6B4A6B4B6B140E0001F81922E00101FE
:1000A8004C51010DF33AF43AF00EF416F3500F0BDD
:1000B800F412F00EF31648C1D1F049C1D2F0F35052
:1000C8000001D127F450D22301014A510001D12562
:1000D800D96E01014B510001D221DA6E0101DFA274
:1000E8008DD001014C51100D42C1D1F043C1D2F065
:1000F800F3500001D127F450D22301014A510001E5
:10010800D125D96E01014B510001D221DA6EDF50A1
:100118000101446F4C51400DF3504A2580090CEC05
:1001280047F001014C51010DF33AF43AF00EF41680
:10013800F3500F0BF412F00EF31648C1D1F049C179
:10014800D2F0F3500001D127F450D22301014A51D3
:100158000001D125D96E01014B510001D221DA6E7F
:100168000101DFA025D04C51010DF33AF43AF00E0D
:10017800F416F3500F0BF412F00EF31648C1D1F039
:1001880049C1D2F0F3500001D127F450D223010124
:100198004A510001D125D96E01014B510001D221EC
:1001A800DA6E0101DFA002D082BD02D05F0E446F7B
:1001B80044511DEC20F0F7EC39F001014C51010DD0
:1001C800F33AF43AF00EF416F3500F0BF412F00E63
:1001D800F31648C1D1F049C1D2F0F3500001D1273C
:1001E800F450D22301014A510001D125D96E0101F1
:1001F8004B510001D221DA6E0101DF924A4B4B2BA1
:100208004BBF49D74B5104E1100E4A5D01E243D779
:100218004C2B010E4C653DD7829B0001F85102E042
:10022800F8071BD00101828B140E0001F86F010141
:1002380082BD04D00001D16BD12B02D00001D16B5B
:10024800D13BD147D147010182510001D119BF0BE0
:10025800D1190101826FE8EC3CF00001EF5102E096
:10026800EF073ED001018F6B81A027D00F0E000150
:10027800EE1902E1EE6B01D0EE2BEEC045F1010163
:10028800476B040E466FD89045334607D8A04707FA
:1002980047BF04D04751F7E14605F5E20001EE51AA
:1002A800020D8A50E00BF3108A6EF769F551F611CA
:1002B80017E0F507D8A0F60713D00001F72910E1D9
:1002C800EEC0F7F0F751DCEC41F001018F6F010E41
:1002D8000001EF6F130EF66F880EF56F5DEC49F0B5
:1002E8006FEC18F0010183A18393E1C0F5FFE0C032
:1002F800F8FFDFC0F7FFDEC0F6FFDDC0F4FFDCC0AB
:10030800F3FFDBC0DAFFDAC0D9FFD9C0E2FFD8C0FB
:10031800E1FFD7C0EAFFD6C0E9FFD5C0E0FFD4C0EF
:10032800E8FFD3C0D8FF7E901000EDEF2EF04F6F9E
:1003380069D34D6B4E6B12004E6B1DEF09F04E6B7F
:1003480042EF08F04E6B48EF08F04E6B040E4D6F0D
:10035800040C4E6B45EF08F04E6B17EF09F04E6B2F
:1003680020EF09F04E6B23EF09F04E6B1AEF09F0FE
:100378004E6B84EF08F04E6BE4EF08F04E6B4BEFDA
:1003880008F04E6B0D0E4D6F0D0C4E6B8DEF08F097
:100398004E6BF6EF08F04E6B5DEF08F04E6BC9EF51
:1003A80008F04E6B0BEF09F04E6B130E4D6F130CEC
:1003B8004E6B140E4D6F140C4E6BC3EF08F04E6B62
:1003C800160E4D6F160C4E6BF9EF08F04E6B180EAB
:1003D8004D6F180C4E6B190E4D6F190C4E6B1A0E93
:1003E8004D6F1A0C4E6BEDEF08F04E6B1C0E4D6FF7
:1003F8001C0C4E6B1D0E4D6F1D0C4E6B1E0E4D6F63
:100408001E0C4E6BD2EF08F04E6B96EF08F04E6B59
:10041800210E4D6F210C4E6B220E4D6F220C4E6B30
:10042800DBEF08F04E6BA5EF08F04E6B14EF09F008
:100438004E6B260E4D6F260C4E6B66EF08F04E6B1A
:100448007EEF08F04E6BD8EF08F04E6BABEF08F07C
:100458004E6B0EEF09F04E6B72EF08F04E6BCCEF5F
:1004680008F04E6B9CEF08F04E6B02EF09F04E6BF4
:10047800300E4D6F300C4E6B5AEF08F04E6B57EF45
:1004880008F04E6BB1EF08F04E6B81EF08F04E6B41
:10049800E7EF08F04E6B69EF08F04E6BBDEF08F020
:1004A8004E6B8AEF08F04E6B390E4D6F390C4E6B60
:1004B8003A0E4D6F3A0C4E6B7BEF08F04E6B90EF97
:1004C80008F04E6BF0EF08F04E6B60EF08F04E6BE3
:1004D800C6EF08F04E6B87EF08F04E6BE1EF08F0BF
:1004E8004E6B4EEF08F04E6BBAEF08F04E6BFCEF18
:1004F80008F04E6B9FEF08F04E6BA2EF08F04E6BC2
:10050800FFEF08F04E6B6CEF08F04E6BD5EF08F07C
:100518004E6BAEEF08F04E6B08EF09F04E6B75EFBF
:1005280008F04E6BDEEF08F04E6BF3EF08F04E6B01
:1005380093EF08F04E6B500E4D6F500C4E6B78EFEA
:1005480008F04E6B11EF09F04E6BA8EF08F04E6BF8
:10055800CFEF08F04E6B6FEF08F04E6B05EF09F028
:100568004E6B99EF08F04E6B51EF08F04E6BB4EFFD
:1005780008F04E6BB7EF08F04E6B54EF08F04E6B77
:10058800EAEF08F04E6B5D0E4D6F5D0C4E6BC0EFE1
:1005980008F04E6B63EF08F04E6B600E4D6F600C09
:1005A8004E6B610E4D6F610C4E6B620E4D6F620C9F
:1005B8004E6B630E4D6F630C4E6B640E4D6F640C87
:1005C8004E6B650E4D6F650C4E6B660E4D6F660C6F
:1005D8004E6B670E4D6F670C4E6B680E4D6F680C57
:1005E8004E6B690E4D6F690C4E6B6A0E4D6F6A0C3F
:1005F8004E6B6B0E4D6F6B0C4E6B6C0E4D6F6C0C27
:100608004E6B6D0E4D6F6D0C4E6B6E0E4D6F6E0C0E
:100618004E6B6F0E4D6F6F0C4E6B700E4D6F700CF6
:100628004E6B710E4D6F710C4E6B720E4D6F720CDE
:100638004E6B730E4D6F730C4E6B740E4D6F740CC6
:100648004E6B750E4D6F750C4E6B760E4D6F760CAE
:100658004E6B770E4D6F770C4E6B780E4D6F780C96
:100668004E6B790E4D6F790C4E6B7A0E4D6F7A0C7E
:100678004E6B7B0E4D6F7B0C4E6B7C0E4D6F7C0C66
:100688004E6B7D0E4D6F7D0C4E6B7E0E4D6F7E0C4E
:100698004E6B7F0E4D6F7F0C040E4E6F42EF08F0CD
:1006A800040E4E6F48EF08F0200E1AEF08F0040E03
:1006B8004E6FA8EF08F0200E16EF08F0200E2EEF70
:1006C80008F0200E4E6F4D6F200C200E3EEF08F004
:1006D800200E4E6F26EF09F0200E26EF08F0040ECC
:1006E8004E6F1AEF09F0200E3AEF08F0040E4E6F25
:1006F80084EF08F0040E4E6F4BEF08F0040E4E6FB7
:10070800E4EF08F0040E4E6FF6EF08F0040E4E6F9B
:1007180011EF09F0200E0AEF08F0200E2AEF08F07A
:10072800200E32EF08F0200E12EF08F0200E06EF30
:1007380008F0200E22EF08F0200E0EEF08F0210E30
:1007480006EF08F0040E4E6FB4EF08F0200E36EFF7
:1007580008F0040E4E6FB7EF08F0040E4E6FEAEF84
:1007680008F0040E4E6F54EF08F0040E4E6F63EF5E
:1007780008F04E6BA00E4D6FA00C040E4E6F8DEF5F
:1007880008F0040E4E6FC0EF08F0040E4E6F23EF12
:1007980009F04E6BA40E4D6FA40C040E4E6F900E14
:1007A8004D6F900C4E6BA60E4D6FA60C4E6BA70EA0
:1007B8004D6FA70C040E4E6F1DEF09F04E6BA90E7E
:1007C8004D6FA90C040E4E6F4D6F040C4E6BAB0EA3
:1007D8004D6FAB0C4E6B26EF09F04E6BAD0E4D6FA7
:1007E800AD0C4E6BAE0E4D6FAE0C040E4E6F20EF7F
:1007F80009F04E6BB00E4D6FB00C4E6BB10E4D6FD5
:10080800B10C040E4E6F17EF09F0040E4E6F05EF92
:1008180009F0040E4E6F910E4D6F910C4E6BB50E94
:100828004D6FB50C4E6BB60E4D6FB60C4E6BB70ECA
:100838004D6FB70C040E4E6F78EF08F0210EFAD307
:10084800040E4E6FCFEF08F04E6BBB0E4D6FBB0C16
:10085800040E4E6F51EF08F0040E4E6F45EF08F08E
:10086800040E4E6F6FEF08F0040E4E6F99EF08F00C
:10087800040E4E6F5DEF08F0040E4E6FC9EF08F0DE
:10088800040E4E6F0BEF09F0040ED8D3040EC2D33A
:10089800040E4E6FC3EF08F0040ECCD3040E4E6F57
:1008A800F9EF08F0040EB2D3040ED0D3040EBED371
:1008B800040E4E6FEDEF08F0040ED0D3040EAED345
:1008C800040EB0D3040E4E6FD2EF08F0040E4E6F34
:1008D80096EF08F0040ECED3040E94D3040E4E6F98
:1008E800DBEF08F0040E4E6FA5EF08F0040E4E6F14
:1008F80014EF09F0040EAED3040E4E6FE3D3040ECA
:100908004E6FF8D3040E4E6FD8EF08F0040E4E6FFA
:10091800ABEF08F0040E4E6F0EEF09F0040E4E6FA9
:10092800DDD3040E4E6FCCEF08F0040E4E6F9CEF33
:1009380008F0040E4E6F02EF09F0040E83D3040E84
:100948004E6FB4D3040E4E6FAED3040E4E6FB1EF9C
:1009580008F0040E4E6FD1D3040E4E6FE7EF08F087
:10096800040E4E6FB2D3040E4E6FBDEF08F0040EA6
:100978004E6FCCD3040E7AD3040E74D3040E4E6F8C
:10098800B6D3040E4E6FC8D3040E4E6FF0EF08F0C6
:10099800040E4E6F91D3040E4E6FF4D3040E4E6FB7
:1009A800B2D3040E4E6FE1EF08F0040E4E6F72D30F
:1009B800040E4E6FDBD3040E4E6FFCEF08F0040EEE
:1009C8004E6FB9D3040E4E6FB9D3040E4E6FFFEFBE
:1009D80008F0040E4E6F7CD3040E4E6FE2D3040E63
:1009E8004E6FB8D3040E4E6F08EF09F0040E4E6F29
:1009F80078D3040E4E6FDED3040E4E6FF0D3040E80
:100A08004E6F8DD301014F5101E193D4010A01E1E9
:100A180093D4030A01E193D4010A01E193D4070AAC
:100A280001E193D4010A01E194D4030A01E194D4C9
:100A3800010A01E194D40F0A01E194D4010A01E109
:100A480094D4030A01E194D4010A01E194D4070A79
:100A580001E194D4010A01E194D4030A01E195D497
:100A6800010A01E195D41F0A01E195D4010A01E1C7
:100A780095D4030A01E195D4010A01E195D4070A46
:100A880001E196D4010A01E197D4030A01E197D460
:100A9800010A01E198D40F0A01E198D4010A01E1A1
:100AA80099D4030A01E19AD4010A01E19BD4070A07
:100AB80001E19BD4010A01E19CD4030A01E19DD420
:100AC800010A01E19ED43F0A01E19ED4010A01E135
:100AD8009ED4030A01E19FD4010A01E1A0D4070AC8
:100AE80001E1A0D4010A01E1A0D4030A01E1A0D4E4
:100AF800010A01E1A1D40F0A01E1A1D4010A01E12F
:100B0800A1D4030A01E1A1D4010A01E1A1D4070A91
:100B180001E1A1D4010A01E1A1D4030A01E1A1D4B0
:100B2800010A01E1A1D41F0A01E1A1D4010A01E1EE
:100B3800A2D4030A01E1A2D4010A01E1A2D4070A5E
:100B480001E1A2D4010A01E1A2D4030A01E1A2D47D
:100B5800010A01E1A2D40F0A01E1A2D4010A01E1CC
:100B6800A2D4030A01E1A3D4010A01E1A4D4070A2B
:100B780001E1A4D4010A01E1A4D4030A01E1A4D447
:100B8800010A01E1A4D47F0A01E1A4D4010A01E128
:100B9800A4D4030A01E1A4D4010A01E1A4D4070AF8
:100BA80001E1A4D4010A01E1A4D4030A01E1A4D417
:100BB800010A01E1A4D40F0A01E1A4D4010A01E168
:100BC800A4D4030A01E1A4D4010A01E1A4D4070AC8
:100BD80001E1A4D4010A01E1A4D4030A01E1A4D4E7
:100BE800010A01E1A4D41F0A01E1A4D4010A01E128
:100BF800A5D4030A01E1A5D4010A01E1A5D4070A95
:100C080001E1A5D4010A01E1A5D4030A01E1A5D4B3
:100C1800010A01E1A5D40F0A01E1A5D4010A01E105
:100C2800A5D4030A01E1A5D4010A01E1A5D4070A64
:100C380001E1A5D4010A01E1A5D4030A01E1A6D482
:100C4800010A01E1A6D43F0A01E1A6D4010A01E1A3
:100C5800A7D4030A01E1A8D4010A01E1A9D4070A2B
:100C680001E1AAD4010A01E1ABD4030A01E1ACD441
:100C7800010A01E1ADD40F0A01E1AED4010A01E194
:100C8800AFD4030A01E1B0D4010A01E1B1D4070AE3
:100C980001E1B2D4010A01E1B3D4030A01E1B4D4F9
:100CA800010A01E1B5D41F0A01E1B6D4010A01E144
:100CB800B7D4030A01E1B8D4010A01E1B9D4070A9B
:100CC80001E1BAD4010A01E1BBD4030A01E1BCD4B1
:100CD800010A01E1BDD40F0A01E1BED4010A01E114
:100CE800BFD4030A01E1C0D4010A01E1C1D4070A53
:100CF80001E1C2D4010A01E1C3D4030A01E1C4D469
:100D0800010A01E1C5D4FF0A01E1C6D4010A01E1E3
:100D1800C7D4030A01E1C8D4010A01E1C8D4070A0B
:100D280001E1C9D4010A01E1C9D4030A01E1C9D426
:100D3800010A01E1CAD40F0A01E1CAD4010A01E19A
:100D4800CBD4030A01E1CBD4010A01E1CCD4070AD0
:100D580001E1CCD4010A01E1CDD4030A01E1CED4EA
:100D6800010A01E1CFD41F0A01E1D0D4010A01E14F
:100D7800D1D4030A01E1D1D4010A01E1D1D4070A8F
:100D880001E1D1D4010A01E1D1D4030A01E1D1D4AE
:100D9800010A01E1D1D40F0A02E16BEF02F0010A66
:100DA80001E1CDD4030A01E1CDD4010A01E1CED499
:100DB800070A01E1CED4010A01E1CFD4030A01E117
:100DC800D0D4010A01E1D1D43F0A01E1D2D4010A09
:100DD80001E1D3D4030A01E1D4D4010A01E1D5D455
:100DE800070A01E1D6D4010A01E1D7D4030A01E1D7
:100DF800D9D4010A01E1DAD40F0A01E1DBD4010AEE
:100E080001E1DCD4030A01E1DDD4010A01E1DED409
:100E1800070A01E1DFD4010A01E1DFD4030A01E195
:100E2800E0D4010A01E1E1D41F0A01E1E2D4010A98
:100E380001E1E3D4030A01E1E4D4010A01E1E5D4C4
:100E4800070A01E1E6D4010A01E1E8D4030A01E155
:100E5800E9D4010A01E1EAD40F0A01E1EBD4010A5D
:100E680001E1ECD4030A01E1EBD4010A01E1ECD47D
:100E7800070A01E1EDD4010A01E1EED4030A01E118
:100E8800EFD4010A01E1F0D47F0A01E1F1D4010AAB
:100E980001E1F2D4030A01E1F3D4010A01E1F4D437
:100EA800070A01E1F3D4010A01E1F2D4030A01E1DE
:100EB800F3D4010A01E1F2D40F0A01E1F3D4010AE3
:100EC80001E1F2D4030A01E1F1D4010A01E1F0D40D
:100ED800070A01E1F1D4010A01E1F0D4030A01E1B2
:100EE800EFD4010A01E1EED41F0A01E1EFD4010AAF
:100EF80001E1F0D4030A01E1EFD4010A01E1EED4E3
:100F0800070A01E1EFD4010A01E1F0D4030A01E183
:100F1800F1D4010A01E1F0D40F0A01E1F0D4010A89
:100F280001E1F0D4030A01E1F1D4010A01E1F2D4AC
:100F3800070A01E1F3D4010A01E1F3D4030A01E14C
:100F4800F4D4010A01E1F5D43F0A01E1F6D4010A1B
:100F580001E1F5D4030A01E1F5D4010A01E1F5D470
:100F6800070A01E1F6D4010A01E1F6D4030A01E116
:100F7800F7D4010A01E1F7D40F0A01E1F8D4010A14
:100F880001E1F8D4030A01E1F7D4010A01E1F6D43A
:100F9800070A01E1F6D4010A01E1F6D4030A01E1E6
:100FA800F7D4010A01E1F7D41F0A01E1F7D4010AD5
:100FB80001E1F7D4030A01E1F8D4010A01E1F8D408
:100FC800070A01E1F8D4010A01E1F9D4030A01E1B1
:100FD800F9D4010A01E1F9D40F0A01E1FAD4010AAE
:100FE80001E1FAD4030A01E1FAD4010A01E1FAD4D1
:100FF800070A01E1FBD4010A01E1FBD4030A01E17C
:10100800FBD4FDD44E6F220E4D6F220C4E6F180E7E
:101018004D6F180C4E6F140E4D6F140C4E6F1D0E45
:101028004D6F1D0C4E6F1E0E4D6F1E0C4E6F1A0E1F
:101038004D6F1A0C4E6F160E4D6F160C4E6F130E29
:101048004D6F130C4E6F300E4D6F300C4E6F190EE6
:101058004D6F190C4E6F260E4D6F260C4E6F1C0EE1
:101068004D6F1C0C4E6F3A0E4D6F3A0C4E6F390E89
:101078004D6F390C4E6F210E4D6F210C020E4D6FC6
:10108800020C050E4D6F050C030E4D6F030C0C0E74
:101098004D6F0C0C420E4D6F420C580E4D6F580C94
:1010A8005B0E4D6F5B0C320E4D6F320C310E4D6F77
:1010B800310C100E4D6F100C3E0E4D6F3E0C5F0E36
:1010C8004D6F5F0C270E4D6F270C360E4D6F360C8B
:1010D800480E4D6F480C550E4D6F550C2C0E4D6F2C
:1010E8002C0C4C0E4D6F4C0C510E4D6F510C3B0E91
:1010F8004D6F3B0C280E4D6F280C340E4D6F340C81
:101108000A0E4D6F0A0C400E4D6F400C380E4D6F95
:10111800380C0E0E4D6F0E0C3C0E4D6F3C0C4F0EE6
:101128004D6F4F0C200E4D6F200C570E4D6F570C06
:101138002E0E4D6F2E0C450E4D6F450C460E4D6F05
:10114800460C240E4D6F240C530E4D6F530C2A0E73
:101158004D6F2A0C4A0E4D6F4A0C330E4D6F330CEF
:10116800590E4D6F590C5A0E4D6F5A0C430E4D6F58
:10117800430C370E4D6F370C5E0E4D6F5E0C150E1F
:101188004D6F150C3F0E4D6F3F0C110E4D6F110C2E
:101198002D0E4D6F2D0C540E4D6F540C1F0E4D6FB0
:1011A8001F0C490E4D6F490C290E4D6F290C230E4B
:1011B8004D6F230C4D0E4D6F4D0C410E4D6F410C74
:1011C8000B0E4D6F0B0C350E4D6F350C5C0E4D6FC5
:1011D8005C0C1B0E4D6F1B0C3D0E4D6F3D0C4E0EE7
:1011E8004D6F4E0C0F0E4D6F0F0C170E4D6F170CE9
:1011F800440E4D6F440C470E4D6F470C2F0E4D6F2C
:101208002F0C560E4D6F560C4B0E4D6F4B0C120E8D
:101218004D6F120C2B0E4D6F2B0C520E4D6F520C46
:10122800250E4D6F250C060E4D6F060C090E4D6FE1
:10123800090C010E4D6F010C070E4D6F070C080EBF
:101248004D6F080CAC0E4D6FAC0CABC1D0F3ACC1FC
:10125800D1F36651671136E047EC0DF0DF50030B10
:10126800696F8FEC0DF0FC0B54EC0DF047EC0DF0B2
:10127800C5EC28F0696F694769478FEC0DF0F30BEF
:1012880054EC0DF047EC0DF0DFA802D0D08902D065
:101298000301D099F8DBDFAA03D00301D08B02D079
:1012A8000301D09BF0DBDFAC03D00301D08D02D06B
:1012B8000301D09DE8DBDFAE03D00301D08F02D05D
:1012C8000301D09F0301D0A941EC42F069C0E3F2C9
:1012D8006AC0E4F26BC0E5F2E30E0401696F020E26
:1012E8006A6F26EEA3F012EE30F0130EDBCFE3FFA9
:1012F800E806FCE2300E6B6F020E6C6F20EE47F0D2
:1013080012EEC2F0040EDBCFE3FFE806FCE2C20EE9
:101318006D6F020E6E6F20EEF0F012EEC7F0040E45
:10132800DBCFE3FFE806FCE2C70E6F6F020E706FBB
:1013380024EE59F012EECCF0040EDBCFE3FFE80602
:10134800FCE2CC0E716F020E726F24EE54F012EEB6
:10135800D1F0040EDBCFE3FFE806FCE2D10E736F99
:10136800020E746F24EE4FF012EED6F0040EDBCFAF
:10137800E3FFE806FCE2D60E756F020E766F24EEE8
:101388002AF012EE86F0050EDBCFE3FFE806FCE25A
:10139800860E776F020E786F24EE4AF012EEDBF0BD
:1013A800040EDBCFE3FFE806FCE2DB0E796F020EEA
:1013B8007A6F24EE24F012EE8CF0050EDBCFE3FFFB
:1013C800E806FCE28C0E7B6F020E7C6FE30E7D6FED
:1013D800020E7E6F300E7F6F020E806F24EE1EF0BD
:1013E80012EE92F0050EDBCFE3FFE806FCE2920E68
:1013F800816F020E826F24EE18F012EE98F0050E3F
:10140800DBCFE3FFE806FCE2980E836F020E846FE1
:1014180024EE12F012EE9EF0050EDBCFE3FFE80695
:10142800FCE29E0E856F020E866F24EE0CF012EE23
:10143800A4F0050EDBCFE3FFE806FCE2A40E876FFD
:10144800020E886F24EE06F012EEAAF0050EDBCF2E
:10145800E3FFE806FCE2AA0E896F020E8A6F25EE0A
:10146800A1F012EEB0F0050EDBCFE3FFE806FCE2D8
:10147800B00E8B6F020E8C6F25EE9BF012EEB6F05D
:10148800050EDBCFE3FFE806FCE2B60E8D6F020E19
:101498008E6F25EE95F012EEBCF0050EDBCFE3FF64
:1014A800E806FCE2BC0E8F6F020E906F66C0E0F299
:1014B80067C0E1F268C0E2F2E00E916F020E926F2F
:1014C800A9C16DF1AAC16EF16D0E936F010E946FF3
:1014D800A7C1E6F2A8C1E7F2E60E956F020E966F75
:1014E800A5C1E8F2A6C1E9F2E80E976F020E986F5F
:1014F800A3C1EAF2A4C1EBF2EA0E996F020E9A6F49
:10150800A1C1ECF2A2C1EDF2EC0E9B6F020E9C6F32
:101518009FC1EEF2A0C1EFF2EE0E9D6F020E9E6F1C
:101528009DC1F0F29EC1F1F2F00E9F6F020EA06F06
:101538009BC1F2F29CC1F3F2F20EA16F020EA26FF0
:1015480099C1F4F29AC1F5F2F40EA36F020EA46FDA
:101558000101685103E11F0E686F01D0680703019C
:10156800CE6B200ECE6501D02FD0CE51040D030EC8
:1015780093DA65DACEC3DFFFCE51040D60DADF906F
:10158800CE51040D5CDADF82CE51040D81DA57DAD0
:10159800DF6ACE51040D020E7FDA51DA200EDF6EBB
:1015A800CE51040D000E0101696F030E6A6FF350EE
:1015B8006927F4506A230301CE5134DA69C1DEFF8A
:1015C8006AC1DDFFCE2BCDD7826BCF6BCB6B02010F
:1015D800F66BF76BF86BF96B01016451651123E049
:1015E8000301C76B18D0030164DA0301C751040D66
:1015F800020E52DA000EF324E16E030EF420E26EBE
:10160800DFCFE7FFC751040D43DA19DA010EDF6EA9
:10161800C7C3CFF3C72B4DDADF50E5E168510301AB
:10162800CF5D01E2CF2B0301CB5125E0D0BF12D013
:10163800F6C251F1F7C252F1F8C253F1F9C254F1AE
:101648002C0E0101556F010EAAEC23F01CEC3FF0A3
:10165800000911E00301CB6B010168510301CF5D63
:101668000AE201016851DED910EE01F0E3D9E75032
:1016780002E10301CF2B1D0E01018F6503D0270E58
:101688008F650BD00301D0AFEDD02B0E01018F1960
:1016980004E02C0E8F1901E0E5D00301D0BF11D072
:1016A80030DA0FE1020120EE01F0FA51D926FB51A0
:1016B800DA22DF5003E1C40E010118D0FA4BFB2BEC
:1016C80032D02C0E01018F1902E1060E04D02B0E28
:1016D8008F190BE1070E04016B250201FA6F000E4A
:1016E80004016C210201FB6F1ED0C40E696F6A6988
:1016F8000301D031E832030B0A0D01018F51F326A3
:10170800000EF422D890F336F4366951F3266A5164
:10171800F422690EF324D96E040EF420DA6EDECFBB
:10172800FAF2DDCFFBF2EDD92EE0010168517AD94A
:1017380010EE01F07FD9E75026E168510301CF5D33
:1017480003E2CB5101E0CF2B010168516BD9DED9FF
:1017580068C1C6F30DD0CFD9C65178D90301C65197
:1017680086D9C6515FD910EE03F064D9E72AC607B7
:101778000301C651CF5DEFE3CF5154D9CCC3DEFF8F
:10178800CDC3DDFF04D00301CF514CD9BFD9FAC274
:10179800D9FFFBC2DAFF95D9DFCFE7FFD051030BA2
:1017A800E80602E1CF5104E0D051030B020A08E138
:1017B80020EE02F079D985D9E75023EC25F0DF6EC9
:1017C800030120EE03F070D9CFC3DFFF20EE01F054
:1017D8006BD9010EDF6E8FC1CBF301018F6B010E48
:1017E800FCEC48F032EC49F04DC1F6F24EC1F7F28C
:1017F8004FC1F8F250C1F9F20301D0AB33D0010167
:10180800665167110DE0030120EE02F04DD9010188
:1018180010EE01F06651E1266751E222DFCFE7FFC3
:101828000301C96B200EC96501D011D0C951FAD87E
:1018380010EE01F0FFD8E7500AE0C951F3D810EED6
:1018480002F0F8D845D9E7CFDFFFC92BEBD740D94D
:10185800DF6AD0A941EC42F0440E0101646F020E28
:10186800656F1200840E01014D6F030E4E6F200E3E
:101878004F6F49EC46F00301CF51D4D8DECF69F160
:10188800DDCF6AF169C1D9FF6AC1DAFFDF80840E52
:101898000101576F030E586F200E596F5A6B67EC92
:1018A8003EF0280E8F1915E18F6B68510301CF5D4B
:1018B80001E3B9D6CF51B6D810EE01F0BBD8E75046
:1018C80001E1B1D6CF2B000EFCEC48F00301CB6B45
:1018D800AAD6290E8F190AE18F6B0301CF5101E1B6
:1018E800A2D6CF07000EFCEC48F0F0D72A0E8F19CD
:1018F8002AE18F6B20EE01F06651D9266751DA2272
:10190800DF6A0301CA6B200ECA6501D011D0CA5123
:1019180089D810EE01F08ED8E7500AE0CA5182D873
:1019280010EE02F087D8DBD8E7CFDFFFCA2BEBD762
:10193800D6D8DF6AD0A941EC42F0650E0101646F88
:10194800020E656F12000301D0BF0DD02B0E0101EE
:101958008F1909E18F6B0301D0A941EC42F0010115
:10196800646B656B12000301D0BF4BD02C0E0101D4
:101978008F1947E18F6B0301CB5101E0CF2BCF517A
:1019880001E151D6B8D8CF5161D8DECFFCF2DDCF16
:10199800FDF2020120EE01F0A9D8DF6A20EE02F084
:1019A800A5D8200EDF6E20EE03F0A0D81F0EDF6E44
:1019B8000301CF05C86F1F0EC86501D01CD0C851E0
:1019C8000101696F6A6BD89069376A37020E692717
:1019D800000E6A23840E6925D96E030E6A21DA6E19
:1019E8000301C85144D8C8511DD810EE03F022D8BD
:1019F800E706C82BE0D7FCC2C2F3FDC2C3F3CF078A
:101A080065D72D0E01018F1901E00DD68F6B0301EB
:101A1800D0BFA2D7D00E0101606F030E616FAFEC8B
:101A280027F001D6020D840EF324D96E030EF4209C
:101A3800DA6E1200DE50E126DD50E2221200000EBE
:101A4800F324D96E030EF420DA6E120001016B6FD5
:101A58006C6BD8906B376C3769516B276A516C2364
:101A6800840E6B25D96E030E6C21DA6E1200020DFE
:101A7800840EF324E16E030EF420E26EDECFE6FF5F
:101A8800DDCFE5FF120066C1D9FF67C1DAFF12009A
:101A9800F32A000EF422000CF326000EF422000CA8
:101AA80069190301D06F1200CC51D926CD51DA2221
:101AB8001200C75101016425D96E000E6521DA6E46
:101AC800120010EE02F0CC51E126CD51E2221200B4
:101AD800440EC925D96EDA6A020EDA221200650EA2
:101AE800CA25D96EDA6A020EDA221200FC51D9260A
:101AF800FD51DA221200FE0E0101696F6A690301C5
:101B0800FE0C01018F510301CB191200DECFCCF37B
:101B1800DDCFCDF312000301D05101016919120084
:101B280041EC42F00201836B4EDB700E010193DB46
:101B380028EC37F051DBA3C23FF2A4C240F2A5C2A1
:101B480041F2A6C242F202019F6B9F51040D6F0E33
:101B5800276F020E86DB9F51020D1BDB9F2B040EA5
:101B68009F65F3D7A06BA051040D9B0E276F020E43
:101B780078DBA051020D0A0E41DB0BDBA02BA05134
:101B8800F2E0A16BA151040D470E276F020E69DB2D
:101B9800A151020D0C0E32DBFCDAA12B090EA16556
:101BA800F1D7A90E01014D6F020E4E6F65EC33F0AF
:101BB800020120EE01F0B151D926B251DA22D4DA6D
:101BC8000A0E010130EC18F03BEC3BF04D51DF6E92
:101BD8000CDB0A0EACDA28EC37F0FEDA020120EE54
:101BE80001F0AF51D926B051DA22BEDA060E010152
:101BF80030EC18F03BEC3BF04D51DF6EF6DA060E98
:101C080096DA28EC37F0E8DAAFDA180E30EC18F08C
:101C18003BEC3BF04DC1A3F24EC1A4F24FC1A5F27B
:101C280050C1A6F2020120EE01F0AB51D926AC5109
:101C3800DA229ADA0A0E010130EC18F03BEC3BF09C
:101C48004D51E0DAA951D926AA51DA22CEDA0A0E84
:101C58002AEC18F028EC37F04D51D4DAB351D926D4
:101C6800B451DA223FC24DF140C24EF141C24FF1A8
:101C780042C250F1A00E0101516F050E526F536B15
:101C8800546B28EC37F04D29BDDAC751D926C85115
:101C9800F4DAB151F8EC46F0B5DAC551D926C65197
:101CA800F7DAB15192EC45F0DF6E020120EE02F056
:101CB800C351D926C451DA22300EDF6EC3C2D9FF10
:101CC800C4C2DAFFDF8220EE02F0C151D926C25128
:101CD800DA22320EDF6EC1C2D9FFC2C2DAFFDF825A
:101CE80020EE01F0BD51D926BE51C7DAB251F8EC49
:101CF80046F088DABB51D926BC51CADAB25192EC07
:101D080045F080DAB751D926B851B7DA0201FF5148
:101D1800F8EC46F077DAB551D926B651B9DA0201AE
:101D2800FF5192EC45F0DF6E090E0201856FA86B3A
:101D3800A851F5D9B5C2DEFFB6C2DDFFE6D9B7C2F4
:101D4800DEFFB8C2DDFFE1D9BBC2DEFFBCC2DDFFEA
:101D5800DCD9BDC2DEFFBEC2DDFFD7D9C5C2DEFFFA
:101D6800C6C2DDFFD2D9C7C2DEFFC8C2DDFFCDD9EA
:101D7800A9C2DEFFAAC2DDFFC8D9ABC2DEFFACC272
:101D8800DDFFC3D9AFC2DEFFB0C2DDFFBED9B1C22D
:101D9800DEFFB2C2DDFFA82B060EA26F8469020126
:101DA800A251BDD9DECF27F2DDCF28F227C2D9FF55
:101DB80028C2DAFFDF8031DA10EE01F0BD51E126EA
:101DC800BE51E222E750276F10EE01F0BB51E12629
:101DD800BC517ADA27250101616F020110EE01F08A
:101DE800B751E126B851E222E750286F10EE01F012
:101DF800B551E126B65168DA28250101626F020162
:101E080010EE01F0C751E126C851E222E750296FD0
:101E180010EE01F0C551E126C65156DA292560ECCD
:101E28003CF0DF6EA90E606F020E616FBEEC29F008
:101E38005ADAA5EC46F00201846F842914E0A25115
:101E48006ED910EE01F01EEC0DF084C2E7FFDFD969
:101E5800FDEC45F002018551A21902E1A26B01D007
:101E6800A22B010E836F280E01018F190DE18F6BD4
:101E7800A90E22DAFDEC45F002018551A21902E112
:101E8800A26B8DD7A22B8BD72C0E8F190AE18F6BE3
:101E98000201C95104E0C90502E0C96B80D7C92B0A
:101EA8007ED7290E8F190DE18F6BA90E05DAFDEC8F
:101EB80045F00201A25103E185C2A2F270D7A20740
:101EC8006ED72A0E8F1901E019D18F6B0201A76B0B
:101ED800835101E1FED057D92FD9B9D933D9A76F8A
:101EE8000C0EA76505D093D9FDEC45F0020E58D02D
:101EF800A7C286F225EE5AF012EE33F00B0EDBCFB6
:101F0800E3FFE806FCE239D917D99DD91BD9A76F99
:101F1800A7C227F2030E271702E11D0E346F84D9DA
:101F28000BD9CED90FD9A76F13D9D96E020E2A2192
:101F3800DA6EA751DE5C1BE220EE01F0C1D9A8D908
:101F4800020106D9CAD992EC45F05CD98951D92643
:101F58008A5193D90201FCD8C0D9F8EC46F0DF6E5B
:101F6800A90EAAD9FDEC45F00201A26BB2D07FD927
:101F7800E3D893D9E7D8A76F170EA76505D047D937
:101F8800FDEC45F0070E0CD07DD9D6D891D9DAD81A
:101F9800A76F3B0EA76507D03AD9FDEC45F0090EAF
:101FA8000201A26F96D0A76B2769286936D9DF503E
:101FB800296F2A6B2751292728512A2329C24DF135
:101FC8002AC24EF10101000E4EBFFF0E4F6F506F37
:101FD800A4EC29F0A3EC43F04DC12BF24EC12CF236
:101FE8004FC12DF250C12EF2020120EE01F055D959
:101FF80070D93DD9D9D855D9A3EC43F04D51020138
:102008002B252F6F01014E5102012C21306F010148
:102018004F5102012D21316F0101505102012E2132
:10202800326F20EE01F044D954D92CD9BDD83C0EDA
:10203800B4EC29F0A3EC43F04D5102012F25436F76
:1020480001014E5102013021446F01014F5102013B
:102058003121456F0101505102013221466F43C2BF
:102068004DF144C24EF145C24FF146C250F1640EE3
:102078000101B4EC29F0A3EC43F0DCD80201D4D878
:102088005BD81ED95FD8FF6F7ED856D8E0D85AD80B
:102098000101B26F020171D84FD8D5D853D80101C8
:1020A800B16F26EC3DF00201C91903E0C95179EC82
:1020B80046F0EAC05BF1EBC05CF1ECC05DF1EDC04D
:1020C8005EF1FFC25FF1B2C160F1B1C161F146ECEE
:1020D8002DF00201A75101E062D6835102E041EFE1
:1020E80042F0010126EC3DF00201C91902E141EF7D
:1020F80042F0C95179EC46F041EF42F02B0E8F19AE
:1021080001E04DD68F6B41EF42F0A82BA851020D8C
:10211800870EF324D96E020EF420DA6E1200020D37
:10212800870EF324D96E020EF420DA6E1200516F76
:10213800526B536B546B1200DA22DF50276F20EE7C
:1021480001F01200DA22DF500A0DF35027251200A1
:10215800276928698651296F2A6B27512927285111
:102168002A23330E29251200A3C24DF1A4C24EF131
:10217800A5C24FF1A6C250F1120020EE01F0915114
:10218800D9269251120020EE01F08D51D9268E5198
:102198001200A90EF324D96E020EF420DA6E27C2BB
:1021A800DEFF28C2DDFF1200DA22DF50F326000E20
:1021B800F422F3CF4DF1F4CF4EF101014EBFFF0EE3
:1021C8004F6F506F1200EAC04DF1EBC04EF1ECC0FA
:1021D8004FF1EDC050F112004DC1A3F24EC1A4F26F
:1021E8004FC1A5F250C1A6F21200A3C24DF1A4C27C
:1021F8004EF1A5C24FF1A6C250F11200F326000E0F
:10220800F422000CDF6E020120EE01F01200A90E8C
:102218000101536F020E546F120020EE01F0B3510A
:10222800D926B451DA22120020EE01F08951D926BC
:102238008A5112004DC1EAF04EC1EBF04FC1ECF0EB
:1022480050C1EDF012008F51D926905112008B51D8
:10225800D9268C511200516F170E526F536B546B65
:10226800170C286FF3502727F4502823120020EE6C
:1022780001F09551D92696511200DA220A0E010171
:102288004D6F0A0C20EE01F09951D9269A5112008F
:10229800DA220A0E01014D6F0A0C9351D926945186
:1022A8001200100E516F0E0E526F536B546B0E0CC2
:1022B8009751D92698511200536F020E546F12008D
:1022C8008751D92688511200E222E7500A0DF350AF
:1022D8001200DA22DF500A0D1200E16E020E2A21E6
:1022E800E26EE7501200090E01014D6F000C800EDE
:1022F8006C1907E16D0505E16AC132F26BC133F271
:1023080004D06CC132F26DC133F2020164DB2A0ED3
:1023180001015A6F020E5B6F860E5C6F020E5D6FD5
:1023280032C25EF133C25FF11AEC3CF00201346B49
:10233800862909E1872907E1882905E1892903E137
:102348004ADB010E346F86C24DF187C24EF188C256
:102358004FF189C250F14E0E0101516F020E526FBA
:10236800500E536F020E546F7F0E556F020E566F4C
:10237800800E576F020E586FEAEC3DF041EC42F0C8
:10238800010E0201816F8C6B0A0E8C6501D02DD075
:102398008C51040D030E07DBDFDA8CC2DFFF8C5192
:1023A800040DF32A000EF422D7DADF6A8C51040DEB
:1023B800020EF9DAD1DA300EDF6E8C51040DCCDA68
:1023C800DF908C51040DC8DADF928C51040D530E46
:1023D800006F020E016FFADA8C51020D140EF3240D
:1023E800D96E020EECDA8C2BCFD73A0E5D6F5B8379
:1023F8002D0E696F67833A0E756F73838D6B8D51E0
:102408007ADA530EDE6E020E7EDA75DA570EDE6E5B
:10241800020E79DA70DA5F0EDE6E020E74DA6BDAAB
:10242800630EDE6E020E6FDA66DA6B0EDE6E020E79
:102438006ADA61DA6F0EDE6E020E65DA5CDA770E42
:10244800DE6E020E60DA57DA7B0EDE6E020EDD6E8D
:102458008D2B2B0E01018F1904E18F6B41EC42F09B
:10246800000C2A0E8F1901E01FD28F6B0201505108
:10247800006F5151016F026B036B0B0ED890003740
:10248800013702370337E82EF9D77FC204F2056B0C
:10249800066B076B160ED8900437053706370737D3
:1024A800E82EF9D780C208F2096B0A6B0B6B1D0E78
:1024B800D890083709370A370B37E82EF9D704516F
:1024C80008250C6F055109210D6F06510A210E6F61
:1024D80007510B210F6F00510C25106F01510D2171
:1024E800116F02510E21126F03510F21136F4E51BC
:1024F8001025866F4F511121876F000E1221886FAA
:10250800000E1321896F2A0E01015A6F020E5B6FAC
:10251800860E5C6F020E5D6F6AC15EF16BC15FF182
:10252800A3EC42F041EC42F0010C50C28EF251C2D1
:102538008FF220DAE0EC44F04D5102017C6F03DAAF
:10254800EFEC43F0F6D9060E4F6FE0EC44F04D5136
:102558000201786F8EC24DF106DAEFEC43F0E9D94B
:102568000A0E4F6FE0EC44F04D510201706FEBD949
:10257800EFEC43F04D5102016C6F4EC28EF24FC228
:102588008FF2F8D9E0EC44F04D510201646FDBD9C9
:10259800EFEC43F0CED9060E4F6FE0EC44F04D510E
:1025A8000201606F8EC24DF1DED9EFEC43F0C1D964
:1025B8000A0E4F6FE0EC44F04D510201586FC3D939
:1025C800EFEC43F04D510201546F826B070E8265A8
:1025D80001D010D082518FD910EE02F01EEC0DF010
:1025E800825189D985EC2AF0A9EC41F0E76E020105
:1025F800822BECD7CED967EC3EF02D0E8F1904E074
:102608000201340501E059D101018F6B0201346BDD
:102618008B6BCDD949EC46F002018B516CD9DECFDA
:1026280000F2DDCF01F200C2D9FF01C2DAFFDF807C
:10263800836B070E836501D010D083515CD910EEEF
:1026480002F01EEC0DF0835156D985EC2AF0A9EC66
:1026580041F0E76E0201832BECD79BD967EC3EF083
:102668002B0E8F1904E18F6B41EC42F026D12A0E14
:102678008F1901E0A1D08F6B010E0201526F4D6BD3
:1026880064D04D51040DF3CF85F2855134D910EE45
:1026980001F01EEC0DF0E750356F855174D9020E2C
:1026A8003FD935D9366F85516ED9040E39D92FD90E
:1026B800376F855168D9060E33D929D9386F355106
:1026C8000A0D36518DD9F4BE08D0F45003E1180E26
:1026D800F35C03E385C28BF20ED037510A0D3851F3
:1026E8007FD9F4BE0AD0F45003E13C0EF35C05E355
:1026F8008551020F8B6F526B27D035C24DF1010106
:102708004E6B020E506F580E4F6F33EC47F00201BC
:1027180036513C0DF3CF00F2F4CF01F237510A0DD8
:1027280055D901014D510201002701014E51020105
:10273800012338510027000E01234D51020D390E97
:10274800F324D96E020E3BD94D2B020E4D6102D0F7
:10275800525197E1525122E039513B5D3A513C596F
:102768001DE2846B030E846501D015D08451C3D853
:1027780010EE01F01EEC0DF0845105D9080ED0D8EA
:10278800DA6E00EE01F0DE50E926DD50EA22E7CFEE
:10279800EFFF842BE7D7040E8B6F526B52511EE06C
:1027A80006D949EC46F039C24EF23AC24FF23BC262
:1027B80050F23CC251F281D0280E8F1907E18F6B7D
:1027C800070E02018B610AD08B2B08D0290E8F19B6
:1027D80005E18F6B02018B5101E08B0777EC11F05B
:1027E800A5EC46F002018A6F8A2901E112D78B51C4
:1027F80082D810EE01F01EEC0DF08AC2E7FF070E3A
:102808008B6107D78B2B05D7080E0101576F090E6F
:10281800586F02017F515CEC44F0070E4D6F010EBA
:10282800A5EC46F002018A6F8A2906E08A5117EC66
:1028380046F002017F1B41D01E0E01018F1904E1F1
:102848008F6B02017F6B39D02D0E8F1936E18F6B9C
:102858007F0E02017F6F31D0040E0101576F080E01
:10286800586F020180515CEC44F0030E4D6F010E6D
:10287800A5EC46F002018A6F8A2906E08A5117EC16
:1028880046F00201801B19D01E0E01018F1904E1C8
:102898008F6B0201806B11D02D0E8F190EE18F6B9B
:1028A800070E0201806F09D002018151010A01E17E
:1028B8003CD6030AA9E0010ACFE0280E01018F19CE
:1028C8000BE18F6B41EC42F0030E0201811902E12A
:1028D800010E0DD0812BBDD5290E8F1901E0B9D578
:1028E8008F6B41EC42F00201810503E1030E816F19
:1028F800B0D58107AED5020D3D0EF324D96E020E78
:10290800F420DA6E1200DD6E8D2B8D511200DA6E16
:1029180010EE01F0DE50E126DD50E222E750120011
:102928000027000E01233D0E0025D96E020E01215D
:1029380012004DC18EF24EC18FF28EC24DF18FC280
:102948004EF1506B12008EC24DF18FC24EF1010153
:10295800506B0A0E4F6F0A0C530EF324D96E020EF9
:10296800F420DA6E12008FC24EF10101506B060E90
:102978004F6F060C8EC24DF18FC24EF10101506BA4
:102988000A0E4F6F0A0C006F016BD89000370137A1
:102998001200140E0101576F020E586F0B0E596F7B
:1029A800050E5A6F050CF326000EF422000C3D0E9E
:1029B80001014D6F020E4E6F080E4F6F080CF42088
:1029C800DA6E00C2DEFF01C2DDFF1200F3500027FD
:1029D800F45001231200866B876B886B896B120099
:1029E800F326000EF422000C83A903D0839941EC4E
:1029F80042F0200E8F191AE1800EAF1904E1B005DC
:102A080002E182A113D08F6B41EC42F082B104D075
:102A18000201A36BA32B02D00201A36B0101825117
:102A28000201A319FE0BA3190101826F2D0E8F1944
:102A38000EE1800EAF1902E1B00509E082A107D0CE
:102A48008F6BAFC1A1F2B0C1A2F24AEC3AF082B3E7
:102A580011D08AEC23F0900E6A6F010E6B6FADEC0B
:102A68002AF0A5EC23F0010182A103D0829141EC68
:102A780042F08283800EAF1902E1B00502E082B114
:102A88004DD119DB5D512AE050C04CF351C04DF3D4
:102A980052C04EF353C04FF3010E586F5D51010BF6
:102AA8003E6FD8905D333E0509E14DC34CF34EC3EC
:102AB8004DF35851A9EC41F003014E6F582B030E0A
:102AC8005865ECD74C0E0101576F030E586F596BC0
:102AD8000D0E5A6F010E5B6F9CEC3AF025EE7CF000
:102AE80013EE1EF0080EDBCFE3FFE806FCE2E7EC8E
:102AF80010F0640EABDA28EC37F076DA0A0EACDAAE
:102B08003BEC3BF04D51A9EC41F00301256F86DA0F
:102B18000A0E9CDA28EC37F067DA060E9DDA3BECF1
:102B28003BF04D51A9EC41F00301246F77DA060E12
:102B38008DDA28EC37F058DA0A0E8EDA3BEC3BF0E7
:102B48004D51A9EC41F00301226F68DA0A0E7EDAD2
:102B580028EC37F049DA060E7FDA3BEC3BF04D51B2
:102B6800A9EC41F00301216F59DA060E6FDA28EC5F
:102B780037F04DC162F34EC163F34FC164F350C1E6
:102B880065F34CDA180E9BEC10F028EC37F04D2961
:102B980003013F6F3ADA180E01015EDA3BEC3BF0B5
:102BA8004DC162F34EC163F34FC164F350C165F385
:102BB8002CDA0A0E51DA3BEC3BF04D51A9EC41F00E
:102BC80003011F6F2BDA0A0E41DA28EC37F04D515A
:102BD800A9EC41F003011E6F01018C052AE17A512D
:102BE8000001EA5D0301386F01017B510001EB59D7
:102BF8000301396F01017C510001EC5903013A6F5F
:102C080001017D510001ED5903013B6F3BBF11D01C
:102C18003B513A11391103E1C80E385D0AE3EAC0A5
:102C28007AF1EBC07BF1ECC07CF1EDC07DF10101E4
:102C38008C6B010140DA01018C5116E1070E03018A
:102C48005D1903E0436B050E02D0436B040E426F1F
:102C58001E0E0101576F030E586F596B42C35AF18C
:102C68005B6B9CEC3AF033D08C0531E184A913D02E
:102C78002DDA560E4F6FFF0E506FA0EC44F0010195
:102C8800FAD9060E616FF1EC33F0F5D9040E616FD5
:102C9800F1EC33F007D01ADA440E4F6FFF0E506F85
:102CA800A0EC44F0070E03015D1903E0456B050E27
:102CB80002D0456B040E446F080E0101576F030ED6
:102CC800586F596B44C35AF15B6B9CEC3AF0070E92
:102CD80003015D1903E0476B020E02D0476B010E3A
:102CE800466F3F5129EC3EF0A4EC2AF0596B46C3DD
:102CF8005AF15B6B9CEC3AF0010182AF0FD0ADC189
:102D08003CF3AEC13DF3080E03013C6F3C0E0101DC
:102D1800576F030EAEEC1DF09CEC3AF0010182B93E
:102D280082B104D0A50E576FFD0E5AD1800EAF198F
:102D380003E1B00501E14CD125EE24F013EE27F0B4
:102D4800100EDBCFE3FFE806FCE2070E0301276F56
:102D5800010E4A6F010182A104D003014A6BF10EF2
:102D68002C6F0301536B546B556B566B000E0101AE
:102D78005A6F030E5B6F530E5C6F030E5D6FAFC12E
:102D88005EF1B0C15FF11AEC3CF053C34DF154C38E
:102D98004EF155C34FF156C350F1480E516F030E13
:102DA800526F5E0E536F030E546F4B0E556F030E2A
:102DB800566F570E576F030E586FEAEC3DF090C1EF
:102DC8005BF191C15CF192C15DF193C15EF1600E5E
:102DD8005F6F030E606F520E616F030E626F0DEC32
:102DE80041F064D95FD9E0EC44F04D51A9EC41F0D1
:102DF8000301326F3BD935D9EFEC43F062D956D98C
:102E0800506B060E4F6FE0EC44F04D51A9EC41F0C9
:102E18000301316F2BD90101506B060E4F6FEFEC98
:102E280043F04FD93A0E0301306F40D901013AD926
:102E3800E0EC44F04D51A9EC41F003012F6F16D995
:102E480010D9EFEC43F04D51A9EC41F003012E6F7E
:102E5800010E596F030E596501D012D05751010B5D
:102E6800406FD8905733400509E135C334F336C372
:102E780035F35951A9EC41F00301366F592BEAD7C4
:102E8800525129EC3EF04DC150F34EC151F350C39D
:102E9800F6FF51C3F7FF0800F5CF29F3010E030130
:102EA80050250201A36F000E030151210201A46FF6
:102EB800A3C2F6FFA4C2F7FF0800F5CF2AF3270E36
:102EC8000101576F030E586F4AC359F15A6B5B6B78
:102ED8009CEC3AF0010182A1120025EE35F013EEC8
:102EE80011F00C0EDBCFE3FFE806FCE203015C6B9C
:102EF8000C0E5B6F5B079BD80A0E4F6FE0EC44F03B
:102F08004D51A9EC41F0C7D80A0E4F6FEFEC43F0D2
:102F1800BBD88DD8060E4F6FE0EC44F04D51A9ECAC
:102F280041F0B9D8060E4F6FEFEC43F0ADD8D8A0FA
:102F38005C075B077CD80A0E4F6FE0EC44F04D51FC
:102F4800A9EC41F0DF6E03015B07D8A05C07110E06
:102F58005B25D96E030E5C21DA6E5EC34DF15FC34B
:102F68004EF17FD8EFEC43F04D51A9EC41F0DF6E04
:102F7800AFC1A3F2B0C1A4F20201D890A433A33325
:102F8800D890A433A333D890A433A333A32903013F
:102F98005A6F0A0E01014D6F03015A51F8EC46F0C1
:102FA800A9EC41F00301416F12C313F341C312F3BB
:102FB8000A0E01014D6F03015A5192EC45F00301CD
:102FC8005A6F5A51E6E1110E0101576F030E08D0EE
:102FD80082A103D041EC42F08291830E576FFD0E1F
:102FE80095EC1DF09CEF3AF04DC162F34EC163F3CE
:102FF8004FC164F350C165F362C34DF163C34EF131
:1030080064C34FF165C350F1120062C34DF163C34D
:103018004EF164C34FF165C350F1120062C34DF124
:1030280063C34EF164C34FF165C350F11200D8A0D9
:103038005C07110E5B25D96E030E5C21DA6E5EC348
:103048004DF15FC34EF10101506B12000101516F48
:10305800526B536B546B1200516F526B536B546B22
:1030680012000101506B0A0E4F6F0A0C60C34DF13C
:1030780061C34EF112005B6B5C6B5D6B5E6B080E9F
:103088005F6F030E606F12004DC15EF34EC15FF3B8
:1030980003015B071200DF6E5EC34DF15FC34EF1A3
:1030A800506B1200506B0A0E4F6F0A0C60C34DF143
:1030B80061C34EF112008E510201FE1103015D6FD2
:1030C80012004DC160F34EC161F31200080E4D6F3E
:1030D800030E4E6F1200010183A71200839784A389
:1030E8001200849774DA6CDA67EC30F0000903E0B8
:1030F800010184871200B90E896FFF0E61DA67EC4F
:1031080030F0000901E01200730E896FFB0E8A6F20
:10311800DFEC48F087C08BF088C08CF084DA67EC6D
:1031280030F0000901E1E3D057DA090E836F44EC6F
:1031380049F0BC6F51DA080E836F44EC49F086DA27
:10314800B16F75DA0C0E836F44EC49F0BC6F44DA4A
:103158000B0E836F44EC49F079DAB26F68DA0F0E20
:10316800836F44EC49F0BC6F37DA0E0E836F44EC82
:1031780049F00A0DF350BC250201FF6F180E00013B
:10318800836F2ADA44EC49F0BC6F170E836F24DA98
:1031980044EC49F00A0DBC51F324BD6F000EF42035
:1031A800BE6FBF6BBEBFBF07BF51C06FC169C269E9
:1031B800FFC295F0B2C194F00101B151A4EC3CF00A
:1031C800C36FC46BC151C327C251C423C3C09AF093
:1031D800C4C09BF0000E9BBFFF0E9C6F9D6F800EBE
:1031E8009E6F510E9F6F010EA06FA16BC9EC43F04B
:1031F8009AC0C5F09BC0C6F09CC0C7F09DC0C8F07F
:10320800110E836FE9D944EC49F00A0D120E836F51
:10321800E3D944EC49F0E5D9100E9E6F0E0E9F6F6E
:10322800A06BA16BC9EC43F09A51C525C96F9B519E
:10323800C621CA6F9C51C721CB6F9D51C821CC6F45
:10324800140E836FC9D944EC49F00A0D150E836F2B
:10325800C3D944EC49F0C5D93C0EF3D9C9EC43F0C5
:103268009A51C925CD6F9B51CA21CE6F9C51CB2154
:10327800CF6F9D51CC21D06FBD51CD250101376F46
:103288000001BE51CE210101386F0001BF51CF218D
:103298000101396F0001C051D02101013A6F37C1D6
:1032A8009AF038C19BF039C19CF03AC19DF0640E88
:1032B8000001C7D9C9EC43F09AC03BF19BC03CF16F
:1032C8009CC03DF19DC03EF13BC18EF03CC18FF0EA
:1032D8003DC190F03EC191F0F6EC38F03BC1EAF008
:1032E8003CC1EBF03DC1ECF03EC1EDF012004F0ED9
:1032F800896FFB0E8A6FD0EC48F087C08BF088C0CE
:103308008CF091D967EC30F0000901E19FD02C0EC8
:10331800806F010E816F836B0B0E826F846BB8EC2C
:1033280047F00101416B090E416501D010D00B0E29
:103338004125D96EDA6A060EDA222C0E4125E16E95
:10334800E26A010EE222DFCFE7FF412BECD72C0E19
:103358000001916F010E926F42EC38F091C03FF17D
:1033680092C040F101013F51401108E020EE1FF0EA
:103378003F51D9264051DA22DF5032E0AF0E00012A
:10338800806FFF0E816F826B25EC48F001018391FD
:10339800000E0001806F010E816F836B210E826F1A
:1033A800846BB8EC47F0000E806F010E816F350E0C
:1033B800826FFD0E836F7BEC43F0000E0001806F7F
:1033C800010E816F2C0E826F010E836F7BEC43F030
:1033D800000E0001806F010E816FD3EC32F02AD00D
:1033E800C20E0001806FFF0E28D925EC48F0EFD8F7
:1033F800E7D867EC30F00009FAE0010183818383A4
:10340800E50E0001806F050E816F110E01013F2549
:103418000001826F000E010140210001836FC0ECA2
:1034280044F01F0E0001806FFF0E07D925EC48F00D
:103438000101839B82B7120055EC49F00101828596
:10344800010E0001F66FF40EF56FF40CC40E896FCF
:10345800FB0E8A6FC1EC48F087C08BF088C08CF0F7
:10346800E2D867EC30F000096BE0CBC48DF10101C4
:1034780083AB61D025EE71F011EE21F00A0EDBCF9F
:10348800E3FFE806FCE28DC129F1C3D8B8EC47F0A8
:10349800210E806F010ED1D825EC48F098D890D82D
:1034A80067EC30F00009FAE0340E01018D1903E1F0
:1034B8008E6B83891200360E8D1905E1020E8E1768
:1034C800010183891200310E8D1902E18E81F8D72E
:1034D800320E8D1902E18E83F3D7330E8D1902E176
:1034E8008E85EED7300E8D1906E182898E6B85D8D0
:1034F80076EC45F0E5D7350E8D1905E1829983897B
:103508007CD876EF45F0230E8D19D8A41200848557
:1035180083917FD8B8EC47F0AF0E806FFF0E8DD83F
:1035280025EC48F054D84CD867EC30F00009FAE0A4
:103538000101839B12002A0E8D19D8B4838B1200C7
:10354800AF0E896FFB0E3CD867EC30F0000904E041
:1035580001018391839B1200D20E896FFB0E30D834
:1035680067EC30F00009F4E1BA0E896FFB0E28D839
:1035780067EC30F00009ECE1A30E896FFB0E20D850
:1035880067EC30F00009E4E1CC0E896FFB0E18D827
:1035980067EC30F0000906E0F60E806FFE0E816FD2
:1035A800D3EF32F0910E896FFB0E0AD867EC30F03A
:1035B8000009D8B4120001018391839B829F1200F5
:1035C8008A6F8B6B8C6B8E6B020E8D6F020CD70E15
:1035D8000001896FFB0E1200C70E816F050E826F06
:1035E8001200F326000EF422F3CF9AF0F4CF9BF0EA
:1035F8009BBFFF0E9C6F9D6F1200030E0001816F31
:10360800FC0E806F0101000E82B9010E0001826F6D
:10361800120076C180F077C181F0010E0001836F3E
:10362800826B846B010C8E6B020E8D6F020CC70EC1
:103638000001816F050E826F1200816F010E826F8B
:10364800010C9E6F9F6BA06BA16B12000A0DF350CB
:10365800BC250101120041EC42F0A8DA5C6F546B02
:103668000B01545116E1600E01015A6F0B0E5B6F8E
:103678005CCB5CF15DCB5DF1D9EC40F00B01706B7C
:103688007E6B010E546F800504E0606B706B716B8C
:103698007E6B62C433FB63C434FB64C435FB800EA9
:1036A8005C2501014D6FFE0E0B015D2101014E6F7E
:1036B800506B210E4F6FEFEC43F04D2B000E4E2355
:1036C8004DC15BF14EC15CF15D6B5E6B330E5F6F9C
:1036D8000B0E65EC2CF0F1EC33F0330E576F0B0E3C
:1036E8003EDA9CEC3AF00B01800526E12BEE00F067
:1036F800110EDE6AE806FDE24DDA600E526F0B0E1F
:10370800536F53EC43F00B017F5107E143DAFA0E94
:10371800526FFF0E536F53EC43F0000E0101576FC9
:103728000B0E18DA9CEC3AF0710E0101576F0B0E74
:10373800F8D99CEC3AF00ED0940E0101576FFD0EAB
:1037480009DA9CEC3AF0860E0101576FFD0EE9D9B3
:103758009CEC3AF02D0E01018F1901E06BD18F6BB3
:103768002BEE36F00D0EDE6AE806FDE20B015F6B0C
:103778000101000E83B1010E0B01536F535106E096
:10378800C0D95E0EDE6EFE0EDD6E5F2BBAD93B0E23
:10379800DE6EFF0EDD6E5F2B800510E17F5104E1C8
:1037A800F70E446FFD0E03D0060E446FFE0E456FF4
:1037B800A8D944CBDEFF45CBDDFF5F2BA2D9500E45
:1037C800DE6EFE0EDD6E5F2B800506E19AD95F0E78
:1037D800DE6EFF0EDD6E5F2B94D9C90EDE6EFE0E17
:1037E800DD6E5F2B010E5F6F360E0101606F0B0EF1
:1037F800616F626B09EC31F00B015B6F535102E1B1
:10380800466B04D0BDD9D8A4000E466F476B46510D
:10381800471105E0010183B1D0EC3FF021D75F2BC0
:103828005B295F196EE141EC42F067C459FB68C43B
:103838005AFB0B01800503E0486B496B04D0600E0E
:10384800486F0B0E496F48CB64F149CB65F19CD9A1
:10385800100E686F29EC09F075D901E101D75E6B8C
:103868000AD058D9600E5E25E16EE26A0B0EE2229C
:10387800DFCFE7FF5E2B4ED9DF50F3E1600E5E2508
:10388800D96EDA6A0B0EDA22DF6A5951F30B08098E
:10389800596F800503E04A6B4B6B04D0710E4A6F79
:1038A8000B0E4B6F4ACB64F14BCB65F16DD90D0E06
:1038B800686F29EC09F046D901E1D1D65E6B0AD0D0
:1038C80029D935D9E16E0B0E7021E26EDFCFE7FF03
:1038D8000B015E2B1FD9DF50F3E129D9D96E0B0EEE
:1038E8007021DA6EDF6A0B01800503E0010E806F3C
:1038F8007F6F600E01015A6F0B0E52D9A5EC40F094
:10390800AFD6800502E04C6B04D03AD9D8A4000E9B
:103918004C6F4D6B4C514D1124E0506B7F510DE0B5
:10392800560E0101606FFC0E616F59EC45F00009FD
:1039380004E00B017F6B010E0FD00B017F510DE1ED
:10394800380E0101606FFC0E616F59EC45F00009FB
:1039580004E0010E0B017F6F506F0B015051C9E15C
:103968007FD65F2B5B295F1920E165C455FB66C4D0
:1039780056FB0101646B656B550E666F0B0E676F26
:103988000D0E686F29EC09F064C151FB65C152FB4B
:103998000B015151521101E163D651CB50F152CB79
:1039A80051F1D2EC3BF083815BD6800502E04E6B8F
:1039B80004D0E6D8D8A4000E4E6F4F6B4E514F116D
:1039C80018E0800501E04CD6150E0101606FFE0E6F
:1039D800616F59EC45F0000901E142D6120E5A6FA9
:1039E8000B0EDED8A5EC40F00B01546B41EC42F015
:1039F80037D65F2B5B295F1901E032D68F0E0101A4
:103A0800606FFC0E616F59EC45F0000901E128D6A2
:103A1800B2D83EEC32F0010E636F800E626F030E77
:103A2800656F8F0E646F666BABEC3DF09FD83EEC14
:103A380032F016D61F0E8F1925E18F6B83A108D09F
:103A4800C20E4D6FFF0E4E6F4F6B46EC48F008D616
:103A58000B01800501E004D6B60E0101606FFD0E72
:103A6800616F59EC45F0000901E1FAD50B018005B9
:103A780001E0F6D5710E0101506F0B0E516FD2ECBB
:103A88003BF091D7210E8F190BE18F6BAF0E4D6F65
:103A9800FF0E4E6F4F6B46EC48F08391839BE0D549
:103AA800280E8F190EE18F6B6F0E0B015C5D030EF4
:103AB8005D5905E2210E5C27000E5D2395D776D867
:103AC80012D0290E8F1911E18F6B810E0B015C5DED
:103AD800010E5D5905E3210E5C5F000E5D5B84D726
:103AE800030E5D6F6F0E5C6F7FD72B0E8F1903E18E
:103AF8008F6B41EF42F01E0E8F1901E0B1D58F6B2D
:103B0800DED75F51020D360EF324D96E0B0EF4206A
:103B1800DA6E12005E515725D96E000E5821DA6E02
:103B28001200586F010E596F5A6B5B6B010C5E5196
:103B380001016F6F706B110E6F27000E7023600EFE
:103B48006F25120064C157FB65C158FB0B01575123
:103B580058111200586F596B5A6B5B6B1200586FF3
:103B6800010E596F0E0E5A6F5B6B0E0C6F0E4D6F78
:103B7800FF0E4E6F12005D0E4D6FFD0E4E6F120060
:103B88005F2B5B295F19010C590E0101666F0B0E43
:103B9800676F1200000E0101506F0B0E516F12007B
:103BA8005B6F5CCB5CF15DCB5DF11200010E0B012C
:103BB8005D6F800C290E01014D6F020E4E6F506B28
:103BC800490E4F6F516B59EC47F00BDAA20E526F4A
:103BD800FE0E536F53EC43F0010182B92ED001DA87
:103BE800850E526FFF0E536F53EC43F024EE45F0F1
:103BF80012EE8DF0040EDBCFE3FFE806FCE2F6D907
:103C0800BC6FD890BB33FE51BB1507E0C0D9B4D9FF
:103C1800D3D9BC51A9EC41F004D0B9D9ADD9CCD98C
:103C28002D0EDF6E0201BC07BC51EBE1B4D98D0E3D
:103C3800526F020E536F53EC43F0ADD97E0E526FA4
:103C4800FF0E536F53EC43F024EE40F012EE92F067
:103C5800040EDBCFE3FFE806FCE2C8D9BD6FD890BD
:103C6800BB3301018E510201BB1507E08CD984D901
:103C7800AAD9BD51A9EC41F004D085D97DD9A3D9E1
:103C88002D0EDF6E0201BD07BD51E9E184D9920E08
:103C9800526F020E536F53EC43F0010182A907D013
:103CA800A0D9710E526FFD0E536F53EC43F0010112
:103CB80082B956D1EAC0B7F2EBC0B8F2ECC0B9F29B
:103CC800EDC0BAF2B70EB1D9ADEC2AF093D9800E97
:103CD800B1190CE1B2050AE1B76BB86BB96BBA6BF5
:103CE800B70E0101A2D9ADEC2AF084D9800EB11922
:103CF8000AE1B20508E14FD9210E526FFD0E536F4C
:103D080053EC43F02DD147D9950E526FFE0E536FE9
:103D180053EC43F026EEB7F012EE7AF0120EDBCF3A
:103D2800E3FFE806FCE27A0E01014D6F020E4E6FCA
:103D3800506B130E4F6F516B59EC47F00201AD6B8E
:103D4800AE6BAF6BB06B720E01015A6F020E5B6FF8
:103D5800AD0E5C6F020E5D6FB1C25EF1B2C25FF173
:103D68001AEC3CF0ADC24DF1AEC24EF1AFC24FF10C
:103D7800B0C250F1A80E516F020E526FB30E536FBE
:103D8800020E546FAA0E556F020E566FAB0E576F88
:103D9800020E586FEAEC3DF0B7C25BF1B8C25CF1B5
:103DA800B9C25DF1BAC25EF1B50E5F6F020E606F07
:103DB800AC0E616F020E626F0DEC41F063C09CF2B5
:103DC80064C09DF265C09EF2B5C24DF1B6C24EF117
:103DD80028D9E0EC44F0E9D89C0E5F6F020E19D99F
:103DE800F1EC33F0B5C24DF1B6C24EF116D9EFEC95
:103DF80043F04DC1B5F24EC1B6F260C09FF261C04A
:103E0800A0F262C0A1F2B5C25BF1B6C25CF15D6B13
:103E18005E6B9F0E5F6F020EFCD8F1EC33F05DC055
:103E2800A2F25EC0A3F25FC0A4F2B3C24DF1B4C265
:103E38004EF1F7D8E0EC44F0B8D8A20E5F6F020E4E
:103E4800E8D8F1EC33F0B3C24DF1B4C24EF1E5D885
:103E5800EFEC43F04DC1B3F24EC1B4F25AC0A5F233
:103E68005BC0A6F25CC0A7F2B3C25BF1B4C25CF15E
:103E78005D6B5E6BA50E5F6F020ECBD8F1EC33F075
:103E88007A0E506F020E516F0201AC5129EC3EF0D0
:103E98004DC152F14EC153F153EC43F067D8B4D839
:103EA80053EC43F063D89F0E526F020E536F53ECDE
:103EB80043F05CD8A4D853EC43F058D89C0E526F0A
:103EC800020E536F53EC43F051D8E60E526FFF0EBB
:103ED800536F53EC43F04AD8A50E526F020E536F3E
:103EE80053EC43F043D88BD853EC43F03FD8A20EA1
:103EF800526F020E536F53EC43F038D885D853EC09
:103F080043F024EE3BF012EE97F0040EDBCFE3FF14
:103F1800E806FCE26BD8BE6FBE5114E0D890BB3304
:103F2800AB51BB1507E03DD827D854D8BE51A9ECF2
:103F380041F004D036D820D84DD82D0EDF6E0201BE
:103F4800BE07EAD713D8970E526F020E536F53EC81
:103F580043F021D87A0E526F020E536F53EC43F0A0
:103F6800290E0101706F020E716F12007A0E0101A5
:103F7800506F020E516F1200276F286B25512727AB
:103F880026512823120025692669BD51120025698A
:103F98002669BC511200290E0101506F020E516FA3
:103FA800120025692669BE5112004DC15BF14EC150
:103FB8005CF15D6B5E6B12008D0E2725D96E020ECB
:103FC8002821DA6E1200920E2725D96E020E2821BA
:103FD800DA6E1200970E2725D96E020E2821DA6EA6
:103FE8001200290E506F020E516F1200080E0201C6
:103FF800BB6F030C6AC1B1F26BC1B2F21200B70E0B
:10400800526FFF0E536F12006D0E526FFF0E536FFB
:104018001200606F020E616F020C506B3C0E4F6F06
:104028003C0C506B3C0E4F6F3C0C6A6F020E6B6F72
:1040380012000001806F8051070AD8B4ED0C0F0AF6
:10404800D8B4DD0C280AD8B4200C010AD8B4210C45
:10405800030AD8B4220C010AD8B4230C070AD8B42E
:10406800240C010AD8B4250C030AD8B4260C0E0A6D
:10407800D8B4280C010AD8B4290C030AD8B42A0CDD
:10408800010AD8B42B0C070AD8B42C0C010AD8B4EE
:104098002D0C030AD8B42E0C010AD8B42F0C1F0A11
:1040A800D8B4300C010AD8B4310C030AD8B4320C95
:1040B800010AD8B4330C070AD8B4340C010AD8B4AE
:1040C800350C030AD8B4360C010AD8B4370C0F0AD9
:1040D800D8B4380C010AD8B4390C030AD8B43A0C4D
:1040E800010AD8B43B0C070AD8B43C0C010AD8B46E
:1040F8003D0C030AD8B43E0C010AD8B43F0C7F0A21
:10410800D8B4400C010AD8B4410C030AD8B4420C04
:10411800010AD8B4430C070AD8B4440C010AD8B42D
:10412800450C030AD8B4460C010AD8B4470C0F0A48
:10413800D8B4480C010AD8B4490C030AD8B44A0CBC
:10414800010AD8B44B0C070AD8B44C0C010AD8B4ED
:104158004D0C030AD8B44E0C010AD8B44F0C1F0AF0
:10416800D8B4500C010AD8B4510C030AD8B4520C74
:10417800010AD8B4530C070AD8B4540C010AD8B4AD
:10418800550C030AD8B4560C010AD8B4570C0F0AB8
:10419800D8B4580C010AD8B4590C030AD8B45A0C2C
:1041A800010AD8B45B0C070AD8B42F0C010AD8B49A
:1041B8005D0C030AD8B45E0C010AD8B45F0C3F0A40
:1041C800D8B4600C010AD8B4610C030AD8B4620CE4
:1041D800010AD8B4630C070AD8B4640C010AD8B42D
:1041E800650C030AD8B4660C010AD8B4670C0F0A28
:1041F800D8B4680C010AD8B4690C030AD8B46A0C9C
:10420800010AD8B46B0C070AD8B46C0C010AD8B4EC
:104218006D0C030AD8B46E0C010AD8B46F0C1F0ACF
:10422800D8B4700C010AD8B4710C030AD8B4720C53
:10423800010AD8B4730C070AD8B4740C010AD8B4AC
:10424800750C030AD8B4760C010AD8B4770C0F0A97
:10425800D8B4780C010AD8B4790C030AD8B47A0C0B
:10426800040AD8B4E90CEC0AD8B4270C050AD8B467
:104278002D0C3F0AD8B4A20C030AD8B4C80C1B0AE8
:10428800D8B4EF0C080AD8B4B50C010AD8B4CC0CD1
:10429800020AD8B4C90C7B0AD8B4410C010AD8B4B4
:1042A800A00C030AD8B4420C010AD8B4A10C070A1E
:1042B800D8B4E00C010AD8B4450C030AD8B4A30C4E
:1042C800010AD8B4A40C0F0AD8B4A50C010AD8B4B2
:1042D800A60C030AD8B44B0C010AD8B4A70C070AD9
:1042E800D8B44D0C010AD8B4480C030AD8B44F0C02
:1042F800010AD8B4A80C1F0AD8B4500C010AD8B4C3
:10430800430C030AD8B4540C010AD8B4A90C070A00
:10431800D8B4AA0C010AD8B4580C030AD8B4E10CD2
:10432800010AD8B4AB0C0F0AD8B4AC0C010AD8B443
:10433800E20C030AD8B4AD0C010AD8B4AE0C070AD3
:10434800D8B4C40C010AD8B4AF0C030AD8B4B00C62
:10435800010AD8B4B10C3F0AD8B4610C010AD8B428
:10436800B20C030AD8B4B30C010AD8B4B40C070AC7
:10437800D8B4E30C010AD8B4650C030AD8B4B60C57
:10438800010AD8B4B70C0F0AD8B4B80C010AD8B4CB
:10439800B90C030AD8B4BA0C010AD8B4BB0C070A82
:1043A800D8B4BC0C010AD8B4BD0C030AD8B46F0C3D
:1043B800010AD8B4BE0C1F0AD8B4700C010AD8B4CC
:1043C800630C030AD8B4BF0C010AD8B4790C070AE5
:1043D800D8B4E40C010AD8B4780C030AD8B4E50CB4
:1043E800010AD8B4C00C0F0AD8B4C10C010AD8B459
:1043F800E60C030AD8B4C20C010AD8B4C30C070AE5
:10440800D8B4C40C010AD8B4C50C030AD8B4C60C75
:10441800010AD8B4C70C3F0C01018483030E4E6F08
:104428004D696CEC47F00301FB6FFB3BFB47FB4717
:10443800010184510301FB19BF0BFB190101846FB2
:1044480084AD1CD00401B16B010E1AEC2EF00009EA
:1044580003E00101848112D02B0E01018F1902E1C2
:104468008F6B0CD04DEC49F0626B320E616F1EEC15
:1044780045F00401B12B040EB165E6D747D96AD9D6
:10448800ADEC2AF05ED932EC49F052D9010184AD85
:1044980046D0A9C451F1AAC452F1ABC453F1ACC47B
:1044A80054F1B80E556F0B0E51D91CEC3FF00009B2
:1044B80036E032EC49F03CD99EEC27F059EC47F055
:1044C800DEEC2EF0DAEC2EF046EC48F032EC49F057
:1044D8004DC1ADF44EC1AEF44FC1AFF450C1B0F40C
:1044E800D70E0101C2EC2EF0BEEC2FF0000905E159
:1044F800FFD81CEC3FF00009F3E0FAD81CEC3FF0C1
:1045080000090CE08391839B849509D959EC47F005
:104518004DEC49F0000E1AEC2EF001D0828F01010B
:1045280084A511D08495E50E0201BF6F050EC06FFA
:10453800DEEC1DF070C1C1F271C1C2F2B4EC23F01F
:10454800EED859EC47F082A707D00001F551F611D3
:1045580003E120EC49F008D0010182B705D08F5162
:1045680003E08F6B76EC48F0010182A78FD7F8EC57
:1045780014F02D0E01018F1922E182B120D08F6B2A
:104588000401B26B5EC4A5F45FC4A6F460C4A7F4CA
:1045980061C4A8F4A50E0101606F040E616FB2C476
:1045A80062F109EC31F00401B26FB20502E18DEC61
:1045B80026F00401B251EEE141EC42F067D7280E33
:1045C8008F1909E18F6B010E0201A26F800EA16F96
:1045D8004AEC3AF05BD7290E8F1904E18F6B2FEC68
:1045E8001BF054D72C0E8F1916E18F6B82A74ED76C
:1045F80082B504D00301FB6BFB2B02D00301FB6BDC
:10460800FB47FB47010182510301FB19FB0BFB1917
:104618000101826F3BD71E0E8F190FE18F6B8289C4
:104628008E6B030E4E6FFC0E4D6F000E82B9010E9D
:104638004F6F36EC48F0010120D0250E8F1905E1A7
:1046480082B103D08F6B010E0FD0260E8F1905E1B2
:1046580082B103D08F6B020E07D0270E8F1906E1A7
:1046680082B104D08F6B040E8E1BE5D7220E8F19F2
:1046780006E182B104D08F6B8E6B838907D7230E36
:104688008F1905E182B103D08F6B8299CAD71F0EAB
:104698008F1904E18F6B20EC49F0F8D6210E8F19A1
:1046A80004E18F6B7CEC34F0F1D62A0E8F1904E10B
:1046B8008F6B010E8C6FEAD62B0E8F1908E0240E33
:1046C8008F1901E0E3D682A902D082A1DFD62B0E92
:1046D8008F1906E11BD882A103D0829141EC42F0E8
:1046E8008F6B94EC48F036D8ADEC2AF02AD8CED6A9
:1046F800ADC451F1AEC452F1AFC453F1B0C454F1DA
:10470800320E556F566B576B586B000CEAC090F120
:10471800EBC091F1ECC092F1EDC093F11200E50EFF
:104728004D6F050E4E6F506B0E0E4F6F516B0E0C8A
:104738004DC1A9F44EC1AAF44FC1ABF450C1ACF4B9
:1047480012006AC1AFF16BC1B0F11200566F576B1E
:10475800586B000C900E01016A6F010E6B6F12000E
:1047680082AF1200810E4D6F0B0E4E6F020E5AD99A
:1047780059EC47F04CD95AD953EC43F04DD98FEC4A
:1047880046F04DC1E9F24EC1EAF2BFC2E7F2C0C23B
:10479800E8F2E7C2D9FFE8C2DAFF2B0EDE1803E120
:1047A8000201E74BE82B2DD9A50E526FFF0E536F70
:1047B80053EC43F057C0D9F258C0DAF259C0DBF2D3
:1047C800E7C24DF1E8C24EF18FEC46F04DC15BF106
:1047D8004EC15CF15D6B5E6BD90E5F6F020E2BD91B
:1047E800ECEC3AF014D9D90E526F020E536F53EC19
:1047F80043F007D9E80E526FFF0E536F53EC43F0A6
:10480800BFC256F1C0C257F19EEC38F056C1DFF274
:1048180057C1E0F2FCD8DFC252F1E0C253F153ECC9
:1048280043F0EFD803D953EC43F0EBD8EB0E526FBB
:10483800FF0E536F53EC43F0C1C24DF1C2C24EF1AB
:104848008FEC46F0D8904D350201E16F01014E35ED
:104858000201E26F54C0DCF255C0DDF256C0DEF250
:10486800E1C25BF1E2C25CF101015D6B5E6BDC0EE3
:104878005F6F020EE0D8ECEC3AF0C9D8DC0E526F4C
:10488800020E536F53EC43F0C7D88FEC46F0810EFD
:104898004D25656F0B0E4E21666FC1C267F1C2C20E
:1048A80068F1800E696F0D0E6A6F6CEC3DF0810E39
:1048B8004D6F0B0E4E6F8FEC46F00201E95101016E
:1048C8004D5F0201EA5101014E5BD8904E31020161
:1048D800C36F01014D310201E96FC3C2EAF291D8F9
:1048E800F60E526FFF0E536F53EC43F00201D16B7B
:1048F800D26BD36BD46BEA5113E1640EE95D10E21D
:10490800EA5106E10A0EE95D03E2E66B020E02D007
:10491800E66B030EE56FE5C2E3F2E6C2E4F203D00C
:10492800E46B040EE36FE9C25BF1EAC25CF10101DA
:104938005D6B5E6BD10E5F6F020E606FE3C261F15B
:10494800F1EC33F025EE42F012EEC5F00B0EDBCFA2
:10495800E3FFE806FCE2C50E506F020E516FD10E60
:10496800526F020E536F53EC43F00101849332EC03
:1049780049F04DC1D5F24EC1D6F24FC1D7F250C160
:10498800D8F2C50E01014D6F020EDAEC2EF046EC9E
:1049980048F033D82BD8BEEC2FF0000911E1D5C26E
:1049A80051F1D6C252F1D7C253F1D8C254F1DC0E3C
:1049B800556F050EAAEC23F01CEC3FF00009E9E066
:1049C8001CD814D8BEEC2FF0000908E0810E4D6FFA
:1049D8000B0EDAEC2EF046EC48F006D0FB0E4D6FCD
:1049E800FB0E4E6F3EEC32F084831200556F566B0F
:1049F800576B596B030E586F030CE20E546FFF0E82
:104A08001200810E0101506F0B0E516F1200810EC2
:104A1800506F0B0E516F1200810E01014D6F0B0E7E
:104A28004E6F1200506F4F6B516B1200A70E526FF2
:104A3800FF0E536F1200606F020E616F020C0101CE
:104A48004D6F02D04D51120001014D51410AD8B4A9
:104A5800610C030AD8B4620C010AD8B4630C070AC3
:104A6800D8B4640C010AD8B4650C030AD8B4660C2F
:104A7800010AD8B4670C0F0AD8B4680C010AD8B474
:104A8800690C030AD8B46A0C010AD8B46B0C070A7B
:104A9800D8B46C0C010AD8B46D0C030AD8B46E0CE7
:104AA800010AD8B46F0C1F0AD8B4700C010AD8B424
:104AB800710C030AD8B4720C010AD8B4730C070A33
:104AC800D8B4740C010AD8B4750C030AD8B4760C9F
:104AD800010AD8B4770C0F0AD8B4780C010AD8B4F4
:104AE800790C030AD8B47A0C3B0AD8B4410C030AEF
:104AF800D8B4420C010AD8B4430C070AD8B4440C01
:104B0800010AD8B4450C030AD8B4460C010AD8B433
:104B1800470C0F0AD8B4480C010AD8B4490C030A48
:104B2800D8B44A0C010AD8B44B0C070AD8B44C0CB8
:104B3800010AD8B44D0C030AD8B44E0C010AD8B4F3
:104B48004F0C1F0AD8B4500C010AD8B4510C030AF0
:104B5800D8B4520C010AD8B4530C070AD8B4540C70
:104B6800010AD8B4550C030AD8B4560C010AD8B4B3
:104B7800570C0F0AD8B4580C010AD8B4590C030AB8
:104B8800D8B45A0CD20AD8B4B80C100AD8B4A80CA5
:104B9800780AD8B4E00C010AD8B4E10C030AD8B4F6
:104BA800E20C010AD8B4E30C070AD8B4E40C010AF1
:104BB800D8B4E50C030AD8B4E60C010AD8B4E70C5B
:104BC8000F0AD8B4E80C010AD8B4E90C030AD8B41F
:104BD800EA0C010AD8B4EB0C070AD8B4EC0C010AA9
:104BE800D8B4ED0C030AD8B4EE0C010AD8B4EF0C13
:104BF8001F0AD8B4F00C010AD8B4F10C030AD8B4CF
:104C0800F20C010AD8B4F30C070AD8B4F40C010A60
:104C1800D8B4F50C030AD8B4F60C010AD8B4F70CCA
:104C28000F0AD8B4F80C010AD8B4F90C030AD8B49E
:104C3800FA0C010AD8B4FB0C070AD8B4FC0C010A18
:104C4800D8B4FD0C030AD8B4FE0C010AD8B4FF0C82
:104C58003F0AD8B4C00C010AD8B4C10C030AD8B4AE
:104C6800C20C010AD8B4C30C070AD8B4C40C010A90
:104C7800D8B4C50C030AD8B4C60C010AD8B4C70CFA
:104C88000F0AD8B4C80C010AD8B4C90C030AD8B49E
:104C9800CA0C010AD8B4CB0C070AD8B4CC0C010A48
:104CA800D8B4CD0C030AD8B4CE0C010AD8B4CF0CB2
:104CB8001F0AD8B4D00C010AD8B4D10C030AD8B44E
:104CC800D20C010AD8B4D30C070AD8B4D40C010A00
:104CD800D8B4D50C030AD8B4D60C010AD8B4D70C6A
:104CE8000F0AD8B4D80C010AD8B4D90C030AD8B41E
:104CF800DA0C010AD8B4DB0C070AD8B4DC0C010AB8
:104D0800D8B4DD0C030AD8B4DE0C010AD8B4DF0C21
:104D180099D60301456B25EE00F013EE21F0110E34
:104D2800DBCFE3FFE806FCE2010E446F210E010130
:104D3800606F030E616F45C362F109EC31F0030146
:104D4800456F442B4529441903E194EC0DF0EDD04F
:104D5800442B452944190BE120EC47F00301406F2F
:104D6800405101E1E2D0405116EC49F0DED0442B2D
:104D78004529441933E124EE00F013EE33F0050E13
:104D8800DBCFE3FFE806FCE2030E01014E6F4D693D
:104D98006CEC47F00301416F410501E0416B330EB4
:104DA8000101606F030E616F030141290101626F08
:104DB80009EC31F00301426F425101E1B6D04205DE
:104DC80002E10101829F030E01014E6F4D6903014B
:104DD800420501014F6F36EC48F0A7D0442B452916
:104DE800441909E14DEC49F0CA0E4D6FFF0E4E6FA4
:104DF8003EEC32F09AD0442B4529441909E1EB0ED8
:104E080001014D6FFE0EDAEC2EF046EC48F08DD025
:104E1800442B4529441904E1010E1AEC2EF085D0E3
:104E2800442B4529441973E1010182AF69D032EC62
:104E380049F04DC139F34EC13AF34FC13BF350C16C
:104E48003CF378D859EC47F08C0E4D6FFF0EDAEC36
:104E58002EF046EC48F0D70EC2EC2EF0BEEC2FF048
:104E680003013F6F3F5113E139C351F13AC352F186
:104E78003BC353F13CC354F1140E0101556F000EAE
:104E8800566B576B586B1CEC3FF00009E4E00301CC
:104E98003F512EE0206BDF0E0101742503013D6FA9
:104EA800000E0101752103013E6F436B1F0E436520
:104EB80001D016D03DC3D9FF3EC3DAFF000E43250B
:104EC800E16EE26A030EE222DFCFE7FF3D4B3E2BA5
:104ED8003BD8DF5003E138D8200EDF6E432BE6D7EE
:104EE800000E01014D6F030E4E6F3EEC32F01DD0E7
:104EF800D50E01014D6FFE0E4E6F3EEC32F015D00F
:104F08000D0E4D6FFD0E4E6F3EEC32F00ED0442B61
:104F1800452944190AE10101636B626B030E656F51
:104F28006469010E666FABEC3DF00301455101E089
:104F3800FBD6120076C14DF177C14EF1010E010189
:104F4800506F4F6B516B010C000E4325D96EDA6A16
:104F5800030EDA22120041EC42F0EFD8DF50030BC7
:104F6800626FE6D8FC0B621902012E6FE6D809D9E8
:104F7800626F62476247DCD8F30B621902012E6F39
:104F8800450EF66EFB0EF76E22EE16F0090EF4D8FB
:104F9800FEE22F0EF66EFB0EF76E22EE00F0150EF7
:104FA800EBD8FEE24CC028F24DC029F24EC02AF2DE
:104FB8004FC02BF225EE8DF012EE20F0070EDBCF5E
:104FC800E3FFE806FCE202012C6B2E51030B030DF4
:104FD800160E0101626F020EB5D82C51C1D8280EE9
:104FE80002012C25E16EE26A020EE222DFCFE7FF22
:104FF8002C2B020E2C65E9D72D6B2E31E832030BD2
:10500800070D000E0101626F020E9CD82D51A8D821
:10501800200E02012D25E16EE26A020EE222DFCFA8
:10502800E7FF2D2B060E2D65E8D7280E0101576FD7
:10503800020E586F596B020E5A6F5B6B9CEC3AF07C
:10504800200E0101576F020E586F596B070E5A6FE9
:105058005B6B9CEC3AF0230E01018F190AE18F6B10
:1050680061D8020E626103D05DD8622B21D0FC0E9C
:105078000FD0240E8F190FE18F6B79D80101626F61
:10508800020E626104D0020164D8622B22D0F30EB2
:1050980002012E1798D7260E8F1913E18F6B020184
:1050A8002E51030B0AE02E51030B0101626F6207B8
:1050B8003FD8FC0B6219020114D02E51FC0B0209D7
:1050C80010D0270E8F190FE18F6B51D807E041D808
:1050D8006207623762372CD8F30BECD72E51F30BEB
:1050E80008092E6F70D72A0E8F1915E18F6B1AD801
:1050F80024D8DF506219FC0B6219DF6E38D8010121
:10510800626F1BD862476247DF506219F30B62195E
:10511800DF6E41EF42F02B0E8F1901E054D78F6BF1
:1051280041EF42F002012E51030B0101626F1200A0
:1051380002012E5101016219120060C1D9FF61C13B
:10514800DAFF1200636FF3506227F4506323020101
:1051580012002E310101626F6231030B626F12007F
:1051680001016225D96E000E6321DA6E1200020178
:105178002E31E832030B12000900F5CFDEFFE806F6
:1051880012000101DF30E832030B12000101829F97
:10519800F26AF16AF06A9E6AA16A9D6AA06A9F6AC9
:1051A800A26AD06A8E6B41EC42F0776A1F0E766E67
:1051B800CD50CF0B1009CD6ED08EF28CF28EF28CC2
:1051C800CA84CD8EC80ECF6ECE6ACD809D809F805A
:1051D800810ED56EF28A0F0EC16E926A010E936E21
:1051E800200E946E6F504D6FB3D8AAD8A3EC43F03D
:1051F8004DC1B3F44EC1B4F44FC1B5F450C1B6F4C7
:105208007A50B3D855EC11F0A3EC43F04D5104019A
:10521800B325B76F01014E510401B421B86F0101E4
:105228004F510401B521B96F010150510401B62154
:10523800BA6F7B50010199D83C0E92D8A3EC43F089
:105248004D510401B725BB6F01014E510401B8212E
:10525800BC6F01014F510401B921BD6F01015051CB
:105268000401BA21BE6F800EBB25BF6FAE0EBC21F4
:10527800C06FFE0EBD21C16FFF0EBE21C26FBFC43D
:105288004DF1C0C44EF1C1C44FF1C2C450F1640E17
:10529800010166D8A3EC43F01EEC11F0896A8A6A12
:1052A8008B6A240ECA6E030E4E6FFC0E4D6F6CECAB
:1052B80047F00401B36FB33B010182510401B319F4
:1052C800EF0BB3190101826F0401C46B000E0101D9
:1052D800726F070E736F0401C42BC45129D8000ED6
:1052E800DE6E080E39D824D8000EDE6E090E34D8CA
:1052F8001FD8000EDE6E0A0EDD6EC42BC36BC351C1
:1053080017D8DECF4DF1DDCF4EF1010E010116ECBD
:1053180025F059EC47F00401C32B030EC365EFD702
:1053280003EC48F076EC48F010EC22F099EF01F02D
:10533800020D720EF324D96E010EF420DA6E1200FB
:10534800800E516F510E526F010E536F546B010C4A
:105358004E6B4F6B506B1200DD6EC42BC4511200A4
:10536800516F526B536B546B12004D6F4E6B4F6BFA
:10537800506B12006E6BB5D8DA6EDECF64F1DDCFFC
:1053880065F164C1D9FF65C1DAFFDFB218D0A9D8C9
:10539800A4D81EEC0DF06E51020D60C164F161C11C
:1053A80065F1F3506427F45065230C0E6425D96E1B
:1053B800000E6521DA6EA5D8A9EC41F0E76E91D808
:1053C800A8D81EEC0DF06EC1E7FF6E2B090E6E65B6
:1053D800D2D76F6BA2D8DA6EDECF62F1DDCF63F180
:1053E80062C1D9FF63C1DAFFDFB20AD096D875D897
:1053F8001EEC0DF092D8DA6E84D8A9EC41F0E76E75
:105408008CD887D81EEC0DF06FC1E7FF6F2B040E08
:105418006F65E0D720EE0AF08FD8E4EC33F01EEC8D
:105428000DF083D86ED8A9EC41F0E76E7ED810EE67
:1054380003F01EEC0DF0E76A0C0E6025576F000EA6
:105448006121586F0A0E596F5A6B67EC3EF060C1C4
:1054580057F161C158F1050E596F140E5A6F67EC78
:105468003EF063D810EE01F01EEC0DF0E75029EC89
:105478003EF066D89EEC31F09CEC3AF024EE30F029
:1054880011EE66F0050EDBCFE3FFE806FCE2010152
:1054980020EE20F051D8DA22DF506C6F6C5106E014
:1054A8006C0504E0020E6C1901E06C6BB40E576FCA
:1054B800FF0E586F596B49D89CEC3AF001016C51BA
:1054C800020D660EF324D96E010EF42090EC31F033
:1054D800010E596F3AD89CEF3AF0DA6E10EE02F0EE
:1054E80012006E51020D60C162F161C163F1F350A7
:1054F8006227F45063230C0E6225D96E000E6321D7
:10550800120000EE01F0DE50E926DD50EA22EF50ED
:105518001200DA6E10EE03F012006F51020DF35014
:105528006025D96EF4506121120020EE0AF0605116
:10553800D9266151DA2212006051D9266151120030
:105548004DC157F14EC158F112000C0E5A6F5B6BEA
:105558000C0C02011E6B1F6B010E0E6F800E0D6F7F
:10556800176B216B226B236B246B000E01015A6FA2
:10557800020E5B6F210E5C6F020E5D6F1EC25EF144
:105588001FC25FF11AEC3CF0080E02011E27000E44
:105598001F23212907E1222905E1232903E12429E1
:1055A80001E195D021C24DF122C24EF123C24FF143
:1055B80024C250F1150E0101516F020E526F0F0EE9
:1055C800536F020E546F190E556F020E566F180E58
:1055D800576F020E586FEAEC3DF00201185177E060
:1055E800206B1951010B0C6FD89019330C056BE126
:1055F800205101014D6FACEC29F0A4EC29F0A3EC8B
:1056080043F04DC16CF14EC16DF14FC16EF150C107
:105618006FF115C24DF116C24EF14F6B506B3C0E37
:10562800B4EC29F0A3EC43F04D516C250201086F4E
:1056380001014E516D210201096F01014F516E2187
:1056480002010A6F010150516F2102010B6F08C25C
:105658004DF109C24EF10AC24FF10BC250F1640E6E
:105668000101B4EC29F0A3EC43F04DC11AF24EC18C
:105678001BF24FC11CF250C11DF2020111511A5DFB
:1056880012511B5913511C5914511D5902E317513A
:105698001AE139D81A51DE5C1B51DE581C51DE580C
:1056A8001D51DE5810E2010E176F1AC211F21BC20B
:1056B80012F21CC213F21DC214F2F80E1E250D6F51
:1056C800FF0E1F210E6F202B060E20658AD7800E35
:1056D8001E5D010E1F5901E244D717050AE113D8D0
:1056E80011C2DEFF12C2DEFF13C2DEFF14C2DEFFEC
:1056F80005D009D8DE6ADE6ADE6ADD6A0DC26AF1A3
:105708000EC26BF112006AC1D9FF6BC1DAFF120039
:105718002E6B2F6B296B2A6B2B6B2C6B190E0101CF
:105728005A6F020E5B6F290E5C6F020E5D6F14C21A
:105738005EF115C25FF11AEC3CF0010E02012D6F0B
:10574800306B190E3025D96EDA6A020EDA22DE289D
:1057580001E02D6B302B070E3065F3D7800E14193E
:1057680002E115051CE0160504E12D0504E1010E12
:1057780003D02D51FCE0000E276F286B275128110C
:105788000EE014C270F115C271F18AD870290201B5
:105798002E6F000E0101712102012F6F14D014C267
:1057A8006AF115C26BF116C26CF101016E6B6D6B7B
:1057B800FAEC34F06AC114F26BC115F2800E1419B8
:1057C800E0E11505DEE12E512F111AE094C121F216
:1057D80095C122F296C123F22EC25BF12FC25CF171
:1057E80001015D6B5E6B210E5F6F020E6AD8F1ECF2
:1057F80033F0210E576F020E5ED89CEC3AF007D0BA
:10580800E50E0101576FFF0E56D89CEC3AF00201E5
:10581800160536E1800E171902E1180529E0880EF1
:105828000101576FFE0E95EC1DF09CEC3AF06CC030
:1058380024F26DC025F26EC026F217C270F118C2AC
:1058480071F12ED8702B000E712370C15BF171C1FC
:105858005CF15D6B5E6B240E5F6F020E32D8F1EC6B
:1058680033F0240E576F020EB3EC1DF09CEC3AF0A7
:10587800770E0101576FFF0EAEEC1DF09CEC3AF06D
:10588800670E0101576FFF0E586F596B060E5A6F5E
:105898005B6B9CEC3AF014C214F215C215F21200BC
:1058A8000101D89071337033D89071337033D89028
:1058B800713370331200586F596B0E0E5A6F5B6B51
:1058C8000E0C606F030E616F030C82B985D0800ED9
:1058D800745C010E755801E37FD0326A336A346A0A
:1058E800356A1C0E0D6E320E0E6E74C00FF075C048
:1058F80010F02BEC3DF0322806E1332804E134287F
:1059080002E1352864E03250246E070E3314256E08
:105918000B0E1B6EB1D81B2EFDD73250266E070E0C
:105928003314276E0B0E1B6EA7D81B2EFDD73250D3
:105938007F0B2E6E070E1B6E9FD81B2EFDD7325085
:10594800070B2F6E2F5043E02E5041E0EAC001F0C4
:10595800EBC002F0ECC003F0EDC004F0700E056E71
:10596800170E066E076A086AE4EC37F001C02CF0DF
:1059780002C02DF02CC001F02DC002F0050E046EFF
:10598800A00E036EFFEC44F001C02AF002C02BF019
:105998002CC001F02DC002F0050E046EA00E036E9F
:1059A80014EC44F00128306E305061EC46F0306E53
:1059B80030502E140CE024502A5C25502B5807E355
:1059C8002A50265C2B50275802E32F507C12080ED1
:1059D8007426000E7522000C82B903D07CC028F012
:1059E80001D0286A296A28C0FEF27C6A746A756A3E
:1059F8008E510201FE11200D81501F0BF310316EE4
:105A08003150E00B7D1832E0030E026EF60E016E87
:105A18007BC003F056EC48F0030E026EF70E016EE1
:105A28007AC003F056EC48F0030E026EF80E016ED1
:105A38006FC003F056EC48F0030E026EF90E016ECB
:105A4800FFC203F056EC48F0030E026EFA0E016E28
:105A5800B2C103F056EC48F0030E026EFB0E016E65
:105A6800B1C103F056EC48F0010183893150E00BD5
:105A78007D6E31C081FF1200D89035323432333216
:105A880032321200010126EC3DF0E80601E1120075
:105A980026EC3DF0020AD8B482AF120084A31200AB
:105AA80026EE84F012EE00F01E0EDBCFE3FFE806D0
:105AB800FCE2E7EC10F0700E2FEC11F028EC37F058
:105AC8009BD80A0E30EC18F03BEC3BF04D51A9EC9A
:105AD80041F00201166FA1D80A0E2AEC18F028EC42
