:04000000D1EF01F04B
:0E0008007D82FACF42F0FBCF43F024ED50F0A2
:100018007D80D8CFDCF0E8CFDDF0E0CFDEF0FACF9E
:10002800DFF0FBCFE0F0E9CFE1F0EACFE2F0E1CF9B
:10003800E3F0E2CFE4F0D9CFE5F0DACFE6F0F3CFA2
:10004800E7F0F4CFE8F0F6CFE9F0F7CFEAF0F8CF31
:10005800EBF0F5CFECF00400F2A47BD1F2940101AF
:1000680089A50BD0640E0001EE6F060E0001EF6F3C
:10007800440E0001F46F060E0AD0240E0001EE6F44
:10008800060E0001EF6FB30E0001F46F050E0001BC
:10009800F56F010188A7CCD0640E0001FF19D8B410
:1000A80003D0010188ABC4D0000E0001F86F010E27
:1000B8000001F86501D0BAD0000E0001F76F000EFC
:1000C800F66F0001F7BF0AD00001F75106E1100EE4
:1000D8000001F65DD8B0A7D001D0A5D0140E00015C
:1000E800FF19D8B41AD00001F851100DF4C0DAF095
:1000F800F5C0DBF0F3500001DA27F4500001DB23F0
:100108000001F6510001DA25D96E0001F75100010E
:10011800DB21DA6E0001DFA27CD00001F851100D5E
:10012800EEC0DAF0EFC0DBF0F3500001DA27F4504C
:100138000001DB230001F6510001DA25D96E000128
:10014800F7510001DB21DA6EDF500001F06F00018A
:10015800F851400DF3500001F6258009FBEC6AF0D8
:100168000001F851100DF4C0DAF0F5C0DBF0F350DF
:100178000001DA27F4500001DB230001F6510001E9
:10018800DA25D96E0001F7510001DB21DA6E000192
:10019800DFA020D00001F851100DF4C0DAF0F5C04E
:1001A800DBF0F3500001DA27F4500001DB230001F3
:1001B800F6510001DA25D96E0001F7510001DB2163
:1001C800DA6E0001DFA003D0010188BD03D05F0E05
:1001D8000001F06F0001F0514FEC2FF035EC52F0B8
:1001E8000001F851100DF4C0DAF0F5C0DBF0F3505F
:1001F8000001DA27F4500001DB230001F651000169
:10020800DA25D96E0001F7510001DB21DA6E000111
:10021800DF920001F64BF72B0001F7BF5FD7000113
:10022800F75101E154D70001F82B41D70101889B10
:100238000001FF51D8B403D00001FF071CD0010111
:10024800888B140E0001FF6F010188BD04D00001E6
:10025800DA6BDA2B02D00001DA6B0001DA3BDA47FD
:10026800DA47010188510001DA19BF0BDA190101D7
:10027800886F07EC62F001019351D8B403D00101F3
:10028800930760D0000E0101966F81A045D00F0E34
:100298000001FD19D8A404D0000E0001FD6F02D0A2
:1002A8000001FD2BFDC0F1F0000E0001ED6F000E06
:1002B8000001F36F040EF26F0001F3BF19D00001C3
:1002C800F35104E10001F205D8A012D0020E00019A
:1002D800ED03F350ED6F0001F1A102D00001ED2B09
:1002E8000001D890F1330001F207D8A0F307E4D752
:1002F8000001FD51020D8A50E00BF3108A6E0001D7
:10030800FE690101B9510101BA11D8B41BD001012C
:10031800B907D8A0BA0716D00001FE29D8A412D070
:10032800FDC0FEF00001FE51AFEC61F00101966FD7
:10033800010E0101936F1F0E0101BA6F400EB96FD4
:10034800A7EC6EF0B1EC23F0010189B102D00101F4
:100358008993ECC0F5FFEBC0F8FFEAC0F7FFE9C0EE
:10036800F6FFE8C0F4FFE7C0F3FFE6C0DAFFE5C038
:10037800D9FFE4C0E2FFE3C0E1FFE2C0EAFFE1C069
:10038800E9FFE0C0FBFFDFC0FAFFDEC0E0FFDDC031
:10039800E8FFDCC0D8FF7D9010005AEF4FF0010154
:1003A800446FD7EF07F0000E0101436F000E426F54
:1003B8001200000E0101436F010E426F1200000E81
:1003C8000101436F020E426F1200000E0101436FDC
:1003D800030E426F1200000E0101436F040E426FBC
:1003E8001200000E0101436F050E426F1200000E4D
:1003F8000101436F060E426F1200000E0101436FA8
:10040800070E426F1200000E0101436F080E426F83
:100418001200000E0101436F090E426F1200000E18
:100428000101436F0A0E426F1200000E0101436F73
:100438000B0E426F1200000E0101436F0C0E426F4B
:100448001200000E0101436F0D0E426F1200000EE4
:100458000101436F0E0E426F1200000E0101436F3F
:100468000F0E426F1200000E0101436F100E426F13
:100478001200000E0101436F110E426F1200000EB0
:100488000101436F120E426F1200000E0101436F0B
:10049800130E426F1200000E0101436F140E426FDB
:1004A8001200000E0101436F150E426F1200000E7C
:1004B8000101436F160E426F1200000E0101436FD7
:1004C800170E426F1200000E0101436F180E426FA3
:1004D8001200000E0101436F190E426F1200000E48
:1004E8000101436F1A0E426F1200000E0101436FA3
:1004F8001B0E426F1200000E0101436F1C0E426F6B
:100508001200000E0101436F1D0E426F1200000E13
:100518000101436F1E0E426F1200000E0101436F6E
:100528001F0E426F1200000E0101436F200E426F32
:100538001200000E0101436F210E426F1200000EDF
:100548000101436F220E426F1200000E0101436F3A
:10055800230E426F1200000E0101436F240E426FFA
:100568001200000E0101436F250E426F1200000EAB
:100578000101436F260E426F1200000E0101436F06
:10058800270E426F1200000E0101436F280E426FC2
:100598001200000E0101436F290E426F1200000E77
:1005A8000101436F2A0E426F1200000E0101436FD2
:1005B8002B0E426F1200000E0101436F2C0E426F8A
:1005C8001200000E0101436F2D0E426F1200000E43
:1005D8000101436F2E0E426F1200000E0101436F9E
:1005E8002F0E426F1200000E0101436F300E426F52
:1005F8001200000E0101436F310E426F1200000E0F
:100608000101436F320E426F1200000E0101436F69
:10061800330E426F1200000E0101436F340E426F19
:100628001200000E0101436F350E426F1200000EDA
:100638000101436F360E426F1200000E0101436F35
:10064800370E426F1200000E0101436F380E426FE1
:100658001200000E0101436F390E426F1200000EA6
:100668000101436F3A0E426F1200000E0101436F01
:100678003B0E426F1200000E0101436F3C0E426FA9
:100688001200000E0101436F3D0E426F1200000E72
:100698000101436F3E0E426F1200000E0101436FCD
:1006A8003F0E426F1200000E0101436F400E426F71
:1006B8001200000E0101436F410E426F1200000E3E
:1006C8000101436F420E426F1200000E0101436F99
:1006D800430E426F1200000E0101436F440E426F39
:1006E8001200000E0101436F450E426F1200000E0A
:1006F8000101436F460E426F1200000E0101436F65
:10070800470E426F1200000E0101436F480E426F00
:100718001200000E0101436F490E426F1200000ED5
:100728000101436F4A0E426F1200000E0101436F30
:100738004B0E426F1200000E0101436F4C0E426FC8
:100748001200000E0101436F4D0E426F1200000EA1
:100758000101436F4E0E426F1200000E0101436FFC
:100768004F0E426F1200000E0101436F500E426F90
:100778001200000E0101436F510E426F1200000E6D
:100788000101436F520E426F1200000E0101436FC8
:10079800530E426F1200000E0101436F540E426F58
:1007A8001200000E0101436F550E426F1200000E39
:1007B8000101436F560E426F1200000E0101436F94
:1007C800570E426F1200000E0101436F580E426F20
:1007D8001200000E0101436F590E426F1200000E05
:1007E8000101436F5A0E426F1200000E0101436F60
:1007F8005B0E426F1200000E0101436F5C0E426FE8
:100808001200000E0101436F5D0E426F1200000ED0
:100818000101436F5E0E426F1200000E0101436F2B
:100828005F0E426F1200000E0101436F600E426FAF
:100838001200000E0101436F610E426F1200000E9C
:100848000101436F620E426F1200000E0101436FF7
:10085800630E426F1200000E0101436F640E426F77
:100868001200000E0101436F650E426F1200000E68
:100878000101436F660E426F1200000E0101436FC3
:10088800670E426F1200000E0101436F680E426F3F
:100898001200000E0101436F690E426F1200000E34
:1008A8000101436F6A0E426F1200000E0101436F8F
:1008B8006B0E426F1200000E0101436F6C0E426F07
:1008C8001200000E0101436F6D0E426F1200000E00
:1008D8000101436F6E0E426F1200000E0101436F5B
:1008E8006F0E426F1200000E0101436F700E426FCF
:1008F8001200000E0101436F710E426F1200000ECC
:100908000101436F720E426F1200000E0101436F26
:10091800730E426F1200000E0101436F740E426F96
:100928001200000E0101436F750E426F1200000E97
:100938000101436F760E426F1200000E0101436FF2
:10094800770E426F1200000E0101436F780E426F5E
:100958001200000E0101436F790E426F1200000E63
:100968000101436F7A0E426F1200000E0101436FBE
:100978007B0E426F1200000E0101436F7C0E426F26
:100988001200000E0101436F7D0E426F1200000E2F
:100998000101436F7E0E426F1200000E0101436F8A
:1009A8007F0E426F1200040E0101436F020E426F68
:1009B8001200040E0101436F030E426F1200200E55
:1009C8000101436F1A0E426F1200040E0101436FBA
:1009D800530E426F1200200E0101436F1E0E426F2C
:1009E8001200200E0101436F260E426F1200200EE6
:1009F8000101436F200E426F1200200E0101436F68
:100A0800210E426F1200200E0101436FAC0E426F9F
:100A18001200200E0101436F300E426F1200040EC7
:100A28000101436F090E426F1200200E0101436F4E
:100A3800390E426F1200040E0101436F0A0E426F15
:100A48001200040E0101436F0C0E426F1200040ED7
:100A58000101436F0B0E426F1200040E0101436F38
:100A68000F0E426F1200040E0101436F520E426FC7
:100A78001200200E0101436F180E426F1200200E63
:100A88000101436F190E426F1200200E0101436FDE
:100A98001C0E426F1200200E0101436F1D0E426FA3
:100AA8001200200E0101436F220E426F1200200E29
:100AB8000101436F130E426F1200200E0101436FB4
:100AC800140E426F1200000E0101436F3F0E426F79
:100AD8001200210E0101436F220E426F1200040E14
:100AE8000101436F590E426F1200200E0101436F3E
:100AF8003A0E426F1200040E0101436F5A0E426F04
:100B08001200040E0101436F5C0E426F1200040EC6
:100B18000101436F5B0E426F1200040E0101436F27
:100B28005F0E426F1200000E0101436FA00E426F6C
:100B38001200040E0101436F0E0E426F1200040EE4
:100B48000101436F5E0E426F1200040E0101436FF4
:100B5800080E426F1200000E0101436FA40E426F8F
:100B68001200040E0101436F900E426F1200000E36
:100B78000101436FA60E426F1200000E0101436F80
:100B8800A70E426F1200040E0101436F010E426F5F
:100B98001200000E0101436FA90E426F1200040EED
:100BA8000101436F040E426F1200000E0101436FF2
:100BB800AB0E426F1200000E0101436FAC0E426F84
:100BC8001200000E0101436FAD0E426F1200000EBD
:100BD8000101436FAE0E426F1200040E0101436F14
:100BE800070E426F1200000E0101436FB00E426FF4
:100BF8001200000E0101436FB10E426F1200040E85
:100C08000101436F060E426F1200040E0101436F8B
:100C1800560E426F1200040E0101436F910E426F8F
:100C28001200000E0101436FB50E426F1200000E54
:100C38000101436FB60E426F1200000E0101436FAF
:100C4800B70E426F1200040E0101436F510E426F3E
:100C58001200210E0101436F160E426F1200040E9E
:100C68000101436F540E426F1200000E0101436FE1
:100C7800BB0E426F1200040E0101436F580E426F03
:100C88001200040E0101436F050E426F1200040E9C
:100C98000101436F550E426F1200040E0101436FAC
:100CA800570E426F1200040E0101436F100E426F7F
:100CB8001200040E0101436F110E426F1200040E60
:100CC8000101436F120E426F1200040E0101436FBF
:100CD800130E426F1200040E0101436F140E426F8F
:100CE8001200040E0101436F150E426F1200040E2C
:100CF8000101436F160E426F1200040E0101436F8B
:100D0800170E426F1200040E0101436F180E426F56
:100D18001200040E0101436F190E426F1200040EF7
:100D28000101436F1A0E426F1200040E0101436F56
:100D38001B0E426F1200040E0101436F1C0E426F1E
:100D48001200040E0101436F1D0E426F1200040EC3
:100D58000101436F1E0E426F1200040E0101436F22
:100D68001F0E426F1200040E0101436F200E426FE6
:100D78001200040E0101436F210E426F1200040E8F
:100D88000101436F220E426F1200040E0101436FEE
:100D9800230E426F1200040E0101436F240E426FAE
:100DA8001200040E0101436F250E426F1200040E5B
:100DB8000101436F260E426F1200040E0101436FBA
:100DC800270E426F1200040E0101436F280E426F76
:100DD8001200040E0101436F290E426F1200040E27
:100DE8000101436F2A0E426F1200040E0101436F86
:100DF8002B0E426F1200040E0101436F2C0E426F3E
:100E08001200040E0101436F2D0E426F1200040EF2
:100E18000101436F2E0E426F1200040E0101436F51
:100E28002F0E426F1200040E0101436F300E426F05
:100E38001200040E0101436F310E426F1200040EBE
:100E48000101436F320E426F1200040E0101436F1D
:100E5800330E426F1200040E0101436F340E426FCD
:100E68001200040E0101436F350E426F1200040E8A
:100E78000101436F360E426F1200040E0101436FE9
:100E8800370E426F1200040E0101436F380E426F95
:100E98001200040E0101436F390E426F1200040E56
:100EA8000101436F3A0E426F1200040E0101436FB5
:100EB8003B0E426F1200040E0101436F3C0E426F5D
:100EC8001200040E0101436F3D0E426F1200040E22
:100ED8000101436F3E0E426F1200040E0101436F81
:100EE8003F0E426F1200040E0101436F400E426F25
:100EF8001200040E0101436F410E426F1200040EEE
:100F08000101436F420E426F1200040E0101436F4C
:100F1800430E426F1200040E0101436F440E426FEC
:100F28001200040E0101436F450E426F1200040EB9
:100F38000101436F460E426F1200040E0101436F18
:100F4800470E426F1200040E0101436F480E426FB4
:100F58001200040E0101436F490E426F1200040E85
:100F68000101436F4A0E426F1200040E0101436FE4
:100F78004B0E426F1200040E0101436F4C0E426F7C
:100F88001200040E0101436F4D0E426F1200040E51
:100F98000101436F4E0E426F1200040E0101436FB0
:100FA8004F0E426F120001014451000AD8B4D7EF26
:100FB80001F0010AD8B4DDEF01F0030AD8B4E3EF79
:100FC80001F0010AD8B4E9EF01F0070AD8B4EFEF4D
:100FD80001F0010AD8B4F5EF01F0030AD8B4FBEF29
:100FE80001F0010AD8B401EF02F00F0AD8B407EFF4
:100FF80002F0010AD8B40DEF02F0030AD8B413EFD7
:1010080002F0010AD8B419EF02F0070AD8B41FEFAA
:1010180002F0010AD8B425EF02F0030AD8B42BEF86
:1010280002F0010AD8B431EF02F01F0AD8B437EF42
:1010380002F0010AD8B43DEF02F0030AD8B443EF36
:1010480002F0010AD8B449EF02F0070AD8B44FEF0A
:1010580002F0010AD8B455EF02F0030AD8B45BEFE6
:1010680002F0010AD8B461EF02F00F0AD8B467EFB2
:1010780002F0010AD8B46DEF02F0030AD8B473EF96
:1010880002F0010AD8B479EF02F0070AD8B47FEF6A
:1010980002F0010AD8B485EF02F0030AD8B48BEF46
:1010A80002F0010AD8B491EF02F03F0AD8B497EFE2
:1010B80002F0010AD8B49DEF02F0030AD8B4A3EFF6
:1010C80002F0010AD8B4A9EF02F0070AD8B4AFEFCA
:1010D80002F0010AD8B4B5EF02F0030AD8B4BBEFA6
:1010E80002F0010AD8B4C1EF02F00F0AD8B4C7EF72
:1010F80002F0010AD8B4CDEF02F0030AD8B4D3EF56
:1011080002F0010AD8B4D9EF02F0070AD8B4DFEF29
:1011180002F0010AD8B4E5EF02F0030AD8B4EBEF05
:1011280002F0010AD8B4F1EF02F01F0AD8B4F7EFC1
:1011380002F0010AD8B4FDEF02F0030AD8B403EFB5
:1011480003F0010AD8B409EF03F0070AD8B40FEF87
:1011580003F0010AD8B415EF03F0030AD8B41BEF63
:1011680003F0010AD8B421EF03F00F0AD8B427EF2F
:1011780003F0010AD8B42DEF03F0030AD8B433EF13
:1011880003F0010AD8B439EF03F0070AD8B43FEFE7
:1011980003F0010AD8B445EF03F0030AD8B44BEFC3
:1011A80003F0010AD8B451EF03F07F0AD8B457EF1F
:1011B80003F0010AD8B45DEF03F0030AD8B463EF73
:1011C80003F0010AD8B469EF03F0070AD8B46FEF47
:1011D80003F0010AD8B475EF03F0030AD8B47BEF23
:1011E80003F0010AD8B481EF03F00F0AD8B487EFEF
:1011F80003F0010AD8B48DEF03F0030AD8B493EFD3
:1012080003F0010AD8B499EF03F0070AD8B49FEFA6
:1012180003F0010AD8B4A5EF03F0030AD8B4ABEF82
:1012280003F0010AD8B4B1EF03F01F0AD8B4B7EF3E
:1012380003F0010AD8B4BDEF03F0030AD8B4C3EF32
:1012480003F0010AD8B4C9EF03F0070AD8B4CFEF06
:1012580003F0010AD8B4D5EF03F0030AD8B4DBEFE2
:1012680003F0010AD8B4E1EF03F00F0AD8B4E7EFAE
:1012780003F0010AD8B4EDEF03F0030AD8B4F3EF92
:1012880003F0010AD8B4F9EF03F0070AD8B4FFEF66
:1012980003F0010AD8B405EF04F0030AD8B40BEF41
:1012A80004F0010AD8B411EF04F03F0AD8B417EFDC
:1012B80004F0010AD8B41DEF04F0030AD8B423EFF0
:1012C80004F0010AD8B429EF04F0070AD8B42FEFC4
:1012D80004F0010AD8B435EF04F0030AD8B43BEFA0
:1012E80004F0010AD8B441EF04F00F0AD8B447EF6C
:1012F80004F0010AD8B44DEF04F0030AD8B453EF50
:1013080004F0010AD8B459EF04F0070AD8B45FEF23
:1013180004F0010AD8B465EF04F0030AD8B46BEFFF
:1013280004F0010AD8B471EF04F01F0AD8B477EFBB
:1013380004F0010AD8B47DEF04F0030AD8B483EFAF
:1013480004F0010AD8B489EF04F0070AD8B48FEF83
:1013580004F0010AD8B495EF04F0030AD8B49BEF5F
:1013680004F0010AD8B4A1EF04F00F0AD8B4A7EF2B
:1013780004F0010AD8B4ADEF04F0030AD8B4B3EF0F
:1013880004F0010AD8B4B9EF04F0070AD8B4BFEFE3
:1013980004F0010AD8B4C5EF04F0030AD8B4CBEFBF
:1013A80004F0010AD8B4D1EF04F0FF0AD8B4D7EF9B
:1013B80004F0010AD8B4DDEF04F0030AD8B4E3EF6F
:1013C80004F0010AD8B4E9EF04F0070AD8B4EFEF43
:1013D80004F0010AD8B4F5EF04F0030AD8B4FBEF1F
:1013E80004F0010AD8B401EF05F00F0AD8B407EFEA
:1013F80005F0010AD8B40DEF05F0030AD8B413EFCD
:1014080005F0010AD8B419EF05F0070AD8B41FEFA0
:1014180005F0010AD8B425EF05F0030AD8B42BEF7C
:1014280005F0010AD8B431EF05F01F0AD8B437EF38
:1014380005F0010AD8B43DEF05F0030AD8B443EF2C
:1014480005F0010AD8B449EF05F0070AD8B44FEF00
:1014580005F0010AD8B455EF05F0030AD8B45BEFDC
:1014680005F0010AD8B461EF05F00F0AD8B467EFA8
:1014780005F0010AD8B46DEF05F0030AD8B473EF8C
:1014880005F0010AD8B479EF05F0070AD8B47FEF60
:1014980005F0010AD8B485EF05F0030AD8B48BEF3C
:1014A80005F0010AD8B491EF05F03F0AD8B497EFD8
:1014B80005F0010AD8B49DEF05F0030AD8B4A3EFEC
:1014C80005F0010AD8B4A9EF05F0070AD8B4AFEFC0
:1014D80005F0010AD8B4B5EF05F0030AD8B4BBEF9C
:1014E80005F0010AD8B4C1EF05F00F0AD8B4C7EF68
:1014F80005F0010AD8B4CDEF05F0030AD8B4D3EF4C
:1015080005F0010AD8B4D9EF05F0070AD8B4DFEF1F
:1015180005F0010AD8B4E5EF05F0030AD8B4EBEFFB
:1015280005F0010AD8B4F1EF05F01F0AD8B4F7EFB7
:1015380005F0010AD8B4FDEF05F0030AD8B403EFAB
:1015480006F0010AD8B409EF06F0070AD8B40FEF7D
:1015580006F0010AD8B415EF06F0030AD8B41BEF59
:1015680006F0010AD8B421EF06F00F0AD8B427EF25
:1015780006F0010AD8B42DEF06F0030AD8B433EF09
:1015880006F0010AD8B439EF06F0070AD8B43FEFDD
:1015980006F0010AD8B445EF06F0030AD8B44BEFB9
:1015A80006F0010AD8B451EF06F07F0AD8B457EF15
:1015B80006F0010AD8B45DEF06F0030AD8B463EF69
:1015C80006F0010AD8B469EF06F0070AD8B46FEF3D
:1015D80006F0010AD8B475EF06F0030AD8B47BEF19
:1015E80006F0010AD8B481EF06F00F0AD8B487EFE5
:1015F80006F0010AD8B48DEF06F0030AD8B493EFC9
:1016080006F0010AD8B499EF06F0070AD8B49FEF9C
:1016180006F0010AD8B4A5EF06F0030AD8B4ABEF78
:1016280006F0010AD8B4B1EF06F01F0AD8B4B7EF34
:1016380006F0010AD8B4BDEF06F0030AD8B4C3EF28
:1016480006F0010AD8B4C9EF06F0070AD8B4CFEFFC
:1016580006F0010AD8B4D5EF06F0030AD8B4DBEFD8
:1016680006F0010AD8B4E1EF06F00F0AD8B4E7EFA4
:1016780006F0010AD8B4EDEF06F0030AD8B4F3EF88
:1016880006F0010AD8B4F9EF06F0070AD8B4FFEF5C
:1016980006F0010AD8B405EF07F0030AD8B40BEF37
:1016A80007F0010AD8B411EF07F03F0AD8B417EFD2
:1016B80007F0010AD8B41DEF07F0030AD8B423EFE6
:1016C80007F0010AD8B429EF07F0070AD8B42FEFBA
:1016D80007F0010AD8B435EF07F0030AD8B43BEF96
:1016E80007F0010AD8B441EF07F00F0AD8B447EF62
:1016F80007F0010AD8B44DEF07F0030AD8B453EF46
:1017080007F0010AD8B459EF07F0070AD8B45FEF19
:1017180007F0010AD8B465EF07F0030AD8B46BEFF5
:1017280007F0010AD8B471EF07F01F0AD8B477EFB1
:1017380007F0010AD8B47DEF07F0030AD8B483EFA5
:1017480007F0010AD8B489EF07F0070AD8B48FEF79
:1017580007F0010AD8B495EF07F0030AD8B49BEF55
:1017680007F0010AD8B4A1EF07F00F0AD8B4A7EF21
:1017780007F0010AD8B4ADEF07F0030AD8B4B3EF05
:1017880007F0010AD8B4B9EF07F0070AD8B4BFEFD9
:1017980007F0010AD8B4C5EF07F0030AD8B4CBEFB5
:1017A80007F0D1EF07F0FEEC5BF0000E0201776F57
:1017B800F9C042F1FAC043F1FBC044F1FCC045F165
:1017C800700E0101466F170E476F000E486F000E2E
:1017D800496F75EC56F042C197F243C198F244C183
:1017E80099F245C19AF297C233F298C234F299C27B
:1017F80035F29AC236F2000E0201936F040E02010E
:10180800936501D01FD002019351040D630E0101AD
:10181800676F020E0101686FF35001016727F450EA
:101828000101682302019351020D9D0EF324D96E24
:10183800020EF420DA6E67C1DEFF68C1DDFF020127
:10184800932BDCD7000E0201946F02019451020120
:10185800D8A423D002019451040D8F0E0101676FA3
:10186800020E0101686FF35001016727F45001016E
:10187800682302019451020D0A0EF326000EF42289
:101888009D0EF324D96E020EF420DA6E67C1DEFFD6
:1018980068C1DDFF0201942BD8D7000E0201956FB5
:1018A800090E0201956501D023D002019551040D5E
:1018B8003B0E0101676F020E0101686FF3500101D1
:1018C8006727F4500101682302019551020D0C0E9F
:1018D800F326000EF4229D0EF324D96E020EF42096
:1018E800DA6E67C1DEFF68C1DDFF0201952BD8D72C
:1018F8009D0E0101426F020E0101436FBBEC4BF0DC
:10190800020120EE01F0A551D926A651DA2297C28C
:1019180042F198C243F199C244F19AC245F10A0EC4
:101928000101466F000E476F000E486F000E496FA9
:101938009DEC5AF001014251DF6E97C242F198C204
:1019480043F199C244F19AC245F10A0E0101466F6A
:10195800000E476F000E486F000E496F75EC56F089
:1019680042C197F243C198F244C199F245C19AF233
:10197800020120EE01F0A351D926A451DA2297C220
:1019880042F198C243F199C244F19AC245F1060E58
:101998000101466F000E476F000E486F000E496F39
:1019A8009DEC5AF001014251DF6E97C242F198C294
:1019B80043F199C244F19AC245F1060E0101466FFE
:1019C800000E476F000E486F000E496F75EC56F019
:1019D80042C197F243C198F244C199F245C19AF2C3
:1019E80097C242F198C243F199C244F19AC245F1B3
:1019F800180E0101466F000E476F000E486F000E6B
:101A0800496F9DEC5AF042C197F243C198F244C124
:101A180099F245C19AF2020120EE01F09F51D926B0
:101A2800A051DA2297C242F198C243F199C244F117
:101A38009AC245F10A0E0101466F000E476F000E6B
:101A4800486F000E496F9DEC5AF001014251DF6E5C
:101A5800020120EE01F09D51D9269E51DA2297C24B
:101A680042F198C243F199C244F19AC245F10A0E73
:101A78000101466F000E476F000E486F000E496F58
:101A880075EC56F001014251DF6E020120EE01F0C3
:101A9800A751D926A851DA2233C242F134C243F100
:101AA80035C244F136C245F1A00E0101466F050E5C
:101AB800476F000E486F000E496F75EC56F0010134
:101AC8004229DF6E020120EE01F0BB51D926BC513C
:101AD800DA22BDC150F10101516B000E0101536FB3
:101AE8000A0E526F02EC63F001015051DF6E0201E1
:101AF80020EE01F0B951D926BA51DA22BDC148F118
:101B08000101496B000E01014B6F0A0E4A6FC9ECC7
:101B18005EF001014851DF6E020120EE02F0B7517C
:101B2800D926B851DA22300EDF6EB7C2D9FFB8C253
:101B3800DAFF0201DF82020120EE02F0B551D92658
:101B4800B651DA22320EDF6EB5C2D9FFB6C2DAFF5D
:101B58000201DF82020120EE01F0B151D926B25113
:101B6800DA22BCC150F10101516B000E0101536F23
:101B78000A0E526F02EC63F001015051DF6E020150
:101B880020EE01F0AF51D926B051DA22BCC148F19C
:101B98000101496B000E01014B6F0A0E4A6FC9EC37
:101BA8005EF001014851DF6E020120EE01F0AB51F9
:101BB800D926AC51DA22BBC150F10101516B000E9C
:101BC8000101536F0A0E526F02EC63F0010150518C
:101BD800DF6E020120EE01F0A951D926AA51DA22BE
:101BE800BBC148F10101496B000E01014B6F0A0EA0
:101BF8004A6FC9EC5EF001014851DF6E090E02011F
:101C0800796F000E02019C6F02019C51020D7B0E40
:101C1800F324D96E020EF420DA6EA9C2DEFFAAC23E
:101C2800DDFF02019C2B02019C51020D7B0EF32467
:101C3800D96E020EF420DA6EABC2DEFFACC2DDFF55
:101C480002019C2B02019C51020D7B0EF324D96EDC
:101C5800020EF420DA6EAFC2DEFFB0C2DDFF020171
:101C68009C2B02019C51020D7B0EF324D96E020EAF
:101C7800F420DA6EB1C2DEFFB2C2DDFF02019C2B96
:101C880002019C51020D7B0EF324D96E020EF42042
:101C9800DA6EB9C2DEFFBAC2DDFF02019C2B020177
:101CA8009C51020D7B0EF324D96E020EF420DA6EDD
:101CB800BBC2DEFFBCC2DDFF02019C2B02019C51AE
:101CC800020D7B0EF324D96E020EF420DA6E9DC24B
:101CD800DEFF9EC2DDFF02019C2B02019C51020D1A
:101CE8007B0EF324D96E020EF420DA6E9FC2DEFF5B
:101CF800A0C2DDFF02019C2B02019C51020D7B0E4C
:101D0800F324D96E020EF420DA6EA3C2DEFFA4C259
:101D1800DDFF02019C2B02019C51020D7B0EF32476
:101D2800D96E020EF420DA6EA5C2DEFFA6C2DDFF70
:101D380002019C2B060E0201966F020178690201CE
:101D48009651020D7B0EF324D96E020EF420DA6E42
:101D5800DECF67F1DDCF68F167C1D9FF68C1DAFF6F
:101D68000201DF80020120EE01F0A751D926A85117
:101D7800DA22020110EE01F0B151E126B251E2225D
:101D8800E7500101676F020110EE01F0AF51E12643
:101D9800B051E222E7500A0DF35001016725010115
:101DA800566F020110EE01F0AB51E126AC51E22270
:101DB800E7500101686F020110EE01F0A951E12618
:101DC800AA51E222E7500A0DF350010168250101EA
:101DD800576F020110EE01F0BB51E126BC51E2221F
:101DE800E7500101696F020110EE01F0B951E126D7
:101DF800BA51E222E7500A0DF35001016925A9EC16
:101E080059F0DF6E9D0E0101596F020E01015A6FE4
:101E18009DEC3CF0090E0101426F000E67EC6AF080
:101E28000201786F02017829D8B428D002019651AE
:101E3800020D7B0EF324D96E020EF420DA6E10EE3A
:101E480001F0DE50E126DD50E22278C2E7FF9D0E68
:101E58000101486F020E0101496F1AEC6AF0020194
:101E6800795102019619D8A404D0000E0201966F88
:101E780002D00201962B010E0201776F280E010194
:101E88009619D8A418D0000E0101966F9D0E010175
:101E9800486F020E0101496F1AEC6AF0020179518C
:101EA80002019619D8A404D0000E0201966F47D7F4
:101EB8000201962B44D72C0E01019619D8A412D0F2
:101EC800000E0101966F0201BD51D8B408D002017D
:101ED800BD05D8B404D0000E0201BD6F30D7020191
:101EE800BD2B2DD7290E01019619D8A416D0000EA6
:101EF8000101966F9D0E0101486F020E0101496FA5
:101F08001AEC6AF0020196510201D8A403D079C2F2
:101F180096F215D70201960712D72A0E01019619D3
:101F2800D8A4BBD2000E0101966F000E02019B6F70
:101F3800020177510201D8B496D2020120EE01F0D5
:101F48008151D9268251DA22DF500101676F0201DF
:101F580020EE01F07F51D9268051DA22DF500A0D98
:101F6800F3500101672502019B6F0C0E02019B656E
:101F78000AD09D0E0101486F020E0101496F1AEC4B
:101F88006AF0020E22D19BC27AF225EE5AF012EEC6
:101F980027F00B0EDBCFE3FFE806FCE2020120EEA0
:101FA80001F08551D9268651DA22DF500101676F89
:101FB800020120EE01F08351D9268451DA22DF5044
:101FC8000A0DF3500101672502019B6F9BC267F15F
:101FD800030E01016717D8A403D01D0E0201286F54
:101FE800020120EE01F07D51D9267E51DA22DF5020
:101FF8000101676F020120EE01F07B51D9267C5167
:10200800DA22DF500A0DF3500101672502019B6FA8
:10201800FF0E0101676FFF0E0101686F02017A511F
:102028000101696F6A6B01016751010169270101AB
:10203800685101016A23270E01016925D96E020E34
:1020480001016A21DA6E02019B51DE5CD8B072D0C0
:10205800020120EE01F07B51D9267C51DA22FF0ED5
:102068000101676FFF0E0101686F02017A510101DA
:10207800696F6A6B010167510101692701016851A4
:1020880001016A23270E01016925E16E020E010193
:102098006A21E26EE75001016B6F01016B5101018A
:1020A800486F496B000E01014B6F0A0E4A6FC9EC6D
:1020B8005EF001014851DF6E020120EE01F07D5112
:1020C800D9267E51DA22FF0E0101676FFF0E01014A
:1020D800686F02017A510101696F6A6B01016751EA
:1020E800010169270101685101016A23270E0101D5
:1020F8006925E16E020E01016A21E26EE7500101D5
:102108006B6F01016B510101506F516B000E0101A2
:10211800536F0A0E526F02EC63F001015051DF6EEB
:102128009D0E0101486F020E0101496F1AEC6AF019
:10213800000E4BD0020120EE01F08951D9268A51B8
:10214800DA22DF500101676F020120EE01F08751AA
:10215800D9268851DA22DF500A0DF350010167258C
:1021680002019B6F170E02019B650AD09D0E0101AB
:10217800486F020E0101496F1AEC6AF0070E25D06C
:10218800020120EE01F08D51D9268E51DA22DF505E
:102198000101676F020120EE01F08B51D9268C51A5
:1021A800DA22DF500A0DF3500101672502019B6F07
:1021B8003B0E02019B650CD09D0E0101486F020E7B
:1021C8000101496F1AEC6AF0090E0201966F4BD1B2
:1021D800000E02019B6FFF0E0101676FFF0E0101E8
:1021E800686F020120EE01F0A751D926A851DA2222
:1021F800DF500101696F6A6B0101675101016927AD
:102208000101685101016A2369C142F16AC143F1C0
:102218000101000E43BFFF0E446F456F800E0101A0
:10222800466F510E476F010E486F000E496FE2EC82
:1022380066F042C16BF143C16CF144C16DF145C117
:102248006EF1020120EE01F08751D9268851DA2279
:10225800DF5001016F6F01016F510A0D020120EE7D
:1022680001F08951D9268A51DA22DF500101706FB5
:1022780001017051F326000EF422F3CF42F1F4CF9E
:1022880043F10101000E43BFFF0E446F456F100E6E
:102298000101466F0E0E476F000E486F000E496F22
:1022A800E2EC66F00101425101016B250101716FF9
:1022B8000101435101016C210101726F0101445177
:1022C80001016D210101736F0101455101016E2169
:1022D8000101746F020120EE01F08B51D9268C5157
:1022E800DA22DF500101756F010175510A0D0201F3
:1022F80020EE01F08D51D9268E51DA22DF500101EE
:10230800766F01017651F326000EF422F3CF42F1E5
:10231800F4CF43F10101000E43BFFF0E446F456F38
:102328003C0E0101466F000E476F000E486F000E0D
:10233800496FE2EC66F00101425101017125020189
:10234800376F01014351010172210201386F010108
:102358004451010173210201396F01014551010105
:10236800742102013A6F37C242F138C243F139C2CF
:1023780044F13AC245F1640E0101466F000E476F01
:10238800000E486F000E496FE2EC66F042C1F9F0AA
:1023980043C1FAF044C1FBF045C1FCF0020120EE54
:1023A80001F07D51D9267E51DA22DF500101676F95
:1023B800020120EE01F07B51D9267C51DA22DF5050
:1023C8000A0DF350010167250101BB6F020120EEE0
:1023D80001F08151D9268251DA22DF500101676F5D
:1023E800020120EE01F07F51D9268051DA22DF5018
:1023F8000A0DF350010167250101BC6F020120EEAF
:1024080001F08551D9268651DA22DF500101676F24
:10241800020120EE01F08351D9268451DA22DF50DF
:102428000A0DF350010167250101BD6F01018939CA
:10243800E832E832030B0201BD19D8B404D0020116
:10244800BD518FEC6CF0F9C059F1FAC05AF1FBC0DC
:102458005BF1FCC05CF1BBC15DF1BCC15EF1BDC10B
:102468005FF122EC3EF002019B510201D8A467D42F
:10247800020177510201D8A40DD001018939E8324F
:10248800E832030B0201BD19D8B404D00201BD51D2
:102498008FEC6CF0FEEC5BF012002B0E010196192C
:1024A800D8A44DD4000E0101966FFEEC5BF012002B
:1024B800A1C1F3F2A2C1F4F201015C5101015D1165
:1024C800D8B456D05CC1D9FF5DC1DAFF0101DF5035
:1024D800030B01015F6F0201F35101015F19FC0B4E
:1024E8005F190201F36F5CC1D9FF5DC1DAFF010119
:1024F800DF30E832030B01015F6F01015F475F477F
:102508000201F35101015F19F30B5F190201F36F27
:102518005CC1D9FF5DC1DAFF0101DFA803D0020168
:10252800F38902D00201F3995CC1D9FF5DC1DAFFDA
:102538000101DFAA03D00201F38B02D00201F39B51
:102548005CC1D9FF5DC1DAFF0101DFAC03D0020134
:10255800F38D02D00201F39D5CC1D9FF5DC1DAFFA2
:102568000101DFAE03D00201F38F02D00201F39F15
:102578000201F3A9FEEC5BF073C0CCF274C0CDF29B
:1025880075C0CEF2CC0E0401876F020E0401886F6D
:1025980026EEA3F011EE64F0130EDBCFE3FFE8069E
:1025A800FCE2640E0401896F010E04018A6F24EEB7
:1025B80045F012EEAEF0040EDBCFE3FFE806FCE2D6
:1025C800AE0E04018B6F020E04018C6F24EE4AF0EC
:1025D80012EEB3F0040EDBCFE3FFE806FCE2B30E25
:1025E80004018D6F020E04018E6F24EE4FF012EE7F
:1025F800B8F0040EDBCFE3FFE806FCE2B80E0401F6
:102608008F6F020E0401906F24EE54F012EEBDF0AD
:10261800040EDBCFE3FFE806FCE2BD0E0401916F78
:10262800020E0401926F24EE59F012EEC2F0040E6D
:10263800DBCFE3FFE806FCE2C20E0401936F020E53
:102648000401946F24EE00F012EE72F0050EDBCF59
:10265800E3FFE806FCE2720E0401956F020E040126
:10266800966F24EE5EF012EEC7F0040EDBCFE3FFA8
:10267800E806FCE2C70E0401976F020E0401986F8A
:1026880024EE06F012EE78F0050EDBCFE3FFE80645
:10269800FCE2780E0401996F020E04019A6FCC0EC9
:1026A80004019B6F020E04019C6F640E04019D6F70
:1026B800010E04019E6F24EE0CF012EE7EF0050E62
:1026C800DBCFE3FFE806FCE27E0E04019F6F020EFB
:1026D8000401A06F24EE12F012EE84F0050EDBCF99
:1026E800E3FFE806FCE2840E0401A16F020E040178
:1026F800A26F24EE18F012EE8AF0050EDBCFE3FF8E
:10270800E806FCE28A0E0401A36F020E0401A46F1E
:1027180024EE1EF012EE90F0050EDBCFE3FFE80684
:10272800FCE2900E0401A56F020E0401A66F24EED0
:1027380024F012EE96F0050EDBCFE3FFE806FCE28C
:10274800960E0401A76F020E0401A86F25EE95F0FE
:1027580012EE9CF0050EDBCFE3FFE806FCE29C0ED0
:102768000401A96F020E0401AA6F25EE9BF012EE78
:10277800A2F0050EDBCFE3FFE806FCE2A20E04019F
:10278800AB6F020E0401AC6F25EEA1F012EEA8F0BB
:10279800050EDBCFE3FFE806FCE2A80E0401AD6FEF
:1027A800020E0401AE6F76C078F177C079F178C077
:1027B8007AF1780E0401AF6F010E0401B06FA3C166
:1027C800CFF2A4C1D0F2CF0E0401B16F020E040102
:1027D800B26FA5C1D1F2A6C1D2F2D10E0401B36F76
:1027E800020E0401B46FA7C1D3F2A8C1D4F2D30E6C
:1027F8000401B56F020E0401B66FA9C1D5F2AAC1D2
:10280800D6F2D50E0401B76F020E0401B86FABC142
:10281800D7F2ACC1D8F2D70E0401B96F020E040189
:10282800BA6FADC1D9F2AEC1DAF2D90E0401BB6FED
:10283800020E0401BC6FAFC1DBF2B0C1DCF2DB0EEB
:102848000401BD6F020E0401BE6FB1C1DDF2B2C159
:10285800DEF2DD0E0401BF6F020E0401C06FB3C1CA
:10286800DFF2B4C1E0F2DF0E0401C16F020E040111
:10287800C26F01015E510101D8A404D01F0E0101ED
:102888005E6F02D001015E07000E0201F16F200E9B
:102898000201F16501D062D00201F151040D030E6D
:1028A800F326000EF422000EF324D96E030EF42052
:1028B800DA6EF1C2DFFF0201F151040D000EF324BC
:1028C800D96E030EF420DA6E0301DF900201F15194
:1028D800040D000EF324D96E030EF420DA6E030102
:1028E800DF820201F151040D010EF326000EF422DD
:1028F800000EF324D96E030EF420DA6E000EDF6E9C
:102908000201F151040D020EF326000EF422000E0E
:10291800F324D96E030EF420DA6E200EDF6E020166
:10292800F151040D000E01015F6F030E0101606F8C
:10293800F35001015F27F450010160230201F151B6
:10294800020D840EF324D96E030EF420DA6E5FC1F3
:10295800DEFF60C1DDFF0201F12B99D7000E0301F4
:10296800826F000E0201F26F000E0201EE6F000E80
:102978000201E16F000EE26F000EE36F000EE46FDC
:1029880001015A5101015B11D8B447D0000E020170
:10299800EA6F2DD00201EA51010DF35001015A25C9
:1029A800D96EF45001015B21DA6E0201EA51040D7F
:1029B800020EF326000EF422000EF324E16E030E3D
:1029C800F420E26EDFCFE7FF0201EA51040D010EA9
:1029D800F326000EF422000EF324D96E030EF42021
:1029E800DA6E010EDF6EEAC2F2F20201EA2B020190
:1029F800EA51010DF35001015A25D96EF450010135
:102A08005B21DA6EDF50D8A4C5D701015E510201FF
:102A1800F25DD8B002D00201F22B0201EE510201A0
:102A2800D8B436D00201F3BF16D0E1C246F1E2C2F3
:102A380047F1E3C248F1E4C249F12C0E01014A6FA3
:102A4800010E4B6F000E4C6F000E4D6F1BEC54F0D7
:102A58000009D8B41DD0000E0201EE6F01015E51CD
:102A68000201F25DD8B014D001015E51020D840E4E
:102A7800F324D96E030EF420DA6E10EE01F0DE5066
:102A8800E126DD50E222E750D8A402D00201F22B61
:102A98001D0E0101966504D0270E010196650DD023
:102AA8000201F3AFB8D12B0E01019619D8B405D0A5
:102AB8002C0E01019619D8A4AED10201F3BF14D08F
:102AC800010196510201EE19D8A40ED0020120EEA0
:102AD80001F0E551D926E651DA22DF50D8B41BD0EF
:102AE8000201E54BE62B49D02C0E01019619D8A41A
:102AF80002D0060E06D02B0E01019619D8A40BD0D1
:102B0800070E040189250201E56F000E04018A21E0
:102B18000201E66F32D0C40E01015F6FFF0E0101A2
:102B2800606F0201F331E832030B0101616F0101AB
:102B380061510A0D010196510101626F636BF350F7
:102B480001016227F45001016323D8900101623723
:102B5800633701015F5101016227010160510101E1
:102B68006323870E01016225D96E040E01016321DA
:102B7800DA6EDECFE5F2DDCFE6F201019651020111
:102B8800EE19D8B481D001015E51020D840EF324F0
:102B9800D96E030EF420DA6E10EE01F0DE50E12655
:102BA800DD50E222E750D8A46FD001015E51020146
:102BB800F25DD8B007D00201EE510201D8B402D0BC
:102BC8000201F22B01015E51020D840EF324D96E2D
:102BD800030EF420DA6EDECFEFF2DDCFF0F25EC145
:102BE800E9F23ED0FE0E01015F6FFF0E0101606F3A
:102BF8000201E9510101616F626BD89001016137EF
:102C0800623701015F510101612701016051010132
:102C18006223840E01016125D96E030E0101622130
:102C2800DA6E0201E951020D840EF324E16E030EFF
:102C3800F420E26EDECFE6FFDDCFE5FF0201E951C9
:102C4800020D840EF324D96E030EF420DA6E10EE12
:102C580003F0DE50E126DD50E222E72A0201E9070F
:102C68000201E9510201F25DD8A0BCD70201F2517C
:102C7800020D840EF324D96E030EF420DA6EEFC22F
:102C8800DEFFF0C2DDFF0DD00201F251020D840E0D
:102C9800F324D96E030EF420DA6EDECFEFF2DDCF27
:102CA800F0F2E5C2D9FFE6C2DAFF020110EE02F047
:102CB800EF51E126F051E222DFCFE7FF0201F351A5
:102CC800030BE806D8A405D00201F2510201D8B4DA
:102CD80006D00201F351030B020AD8A412D0020154
:102CE80020EE02F0EF51D926F051DA22020110EE5F
:102CF80002F0EF51E126F051E222E7500AEC35F0FC
:102D0800DF6E020120EE03F0EF51D926F051DA22EE
:102D1800F2C2DFFF020120EE01F0EF51D926F05197
:102D2800DA22010EDF6E96C1EEF2000E0101966FF7
:102D3800010E4CEC6EF0D0EC6EF042C1E1F243C1F2
:102D4800E2F244C1E3F245C1E4F20201F3AB63D01D
:102D580001015C5101015D11D8B410D0020120EECF
:102D680002F0EF51D926F051DA22010110EE01F0FC
:102D78005C51E1265D51E222DFCFE7FF000E020140
:102D8800EC6F200E0201EC6501D02FD00201EC514E
:102D9800020D840EF324D96E030EF420DA6E10EEC1
:102DA80001F0DE50E126DD50E222E750D8B41DD014
:102DB8000201EC51020D840EF324D96E030EF420A7
:102DC800DA6E10EE02F0DE50E126DD50E22202015A
:102DD800EC51010D300EF324D96E020EF420DA6E98
:102DE800E7CFDFFF0201EC2BCCD70201EC51010D3C
:102DF800300EF324D96E020EF420DA6E000EDF6E68
:102E08000201F3A9FEEC5BF0300E01015A6F020ECD
:102E180001015B6F1200840E0101426F030E010174
:102E2800436F200E0101446F42EC6BF00201F25136
:102E3800020D840EF324D96E030EF420DA6EDECF71
:102E48005FF1DDCF60F15FC1D9FF60C1DAFF030137
:102E5800DF80840E0101506F030E0101516F200EB7
:102E68000101526F000E0101536F8CEC5BF0280ECC
:102E780001019619D8A421D0000E0101966F010115
:102E88005E510201F25DD8B0C8D50201F251020DBF
:102E9800840EF324D96E030EF420DA6E10EE01F0DE
:102EA800DE50E126DD50E222E750D8B4B6D5020163
:102EB800F22B000E4CEC6EF01CD1290E0101961974
:102EC800D8A40ED0000E0101966F0201F251020142
:102ED800D8B4A3D50201F207000E4CEC6EF009D16C
:102EE8002A0E01019619D8A459D0000E0101966F37
:102EF800010120EE01F05C51D9265D51DA22000E65
:102F0800DF6E000E0201ED6F200E0201ED6501D0AB
:102F18002FD00201ED51020D840EF324D96E030E59
:102F2800F420DA6E10EE01F0DE50E126DD50E222E8
:102F3800E750D8B41DD00201ED51020D840EF324E0
:102F4800D96E030EF420DA6E10EE02F0DE50E126A0
:102F5800DD50E2220201ED51010D510EF324D96E2C
:102F6800020EF420DA6EE7CFDFFF0201ED2BCCD79B
:102F78000201ED51010D510EF324D96E020EF42019
:102F8800DA6E000EDF6E0201F3A9FEEC5BF0510E63
:102F980001015A6F020E01015B6F12000201F3BFBB
:102FA8000ED02B0E01019619D8A409D0000E0101EC
:102FB800966F0201F3B9B0D0FEEC5BF0ADD0020120
:102FC800F3BF9BD02C0E01019619D8A496D0000E01
:102FD8000101966F0201EE510201D8B402D002013C
:102FE800F22B0201F2510201D8B417D5FE0E0101ED
:102FF8005F6FFF0E0101606F0201F2510101616F05
:10300800626BD89001016137623701015F5101019C
:1030180061270101605101016223840E01016125CC
:10302800D96E030E01016221DA6EDECFE7F2DDCF41
:10303800E8F2020120EE01F0E751D926E851DA2240
:10304800000EDF6E020120EE02F0E751D926E851AA
:10305800DA22200EDF6E020120EE03F0E751D926B6
:10306800E851DA221F0EDF6E0201F2050201EB6F52
:103078001F0E0201EB6501D036D00201EB510101B0
:103088005F6F606BD89001015F376037020E0101F6
:103098005F27000E6023840E01015F25D96E030EA1
:1030A80001016021DA6E0201EB51020D840EF32456
:1030B800E16E030EF420E26EDECFE6FFDDCFE5FF22
:1030C8000201EB51020D840EF324D96E030EF42095
:1030D800DA6E10EE03F0DE50E126DD50E222E7065C
:1030E8000201EB2BC5D7E7C2C2F3E8C2C3F3020162
:1030F800F207000E0201EE6F90D42D0E0101961911
:10310800D8A48BD4000E0101966F0201F3AF09D049
:103118000201F3A9FEEC5BF0000E01015A6F000EEC
:103128003AD7F30E0101556F020E0101566F62EC9A
:1031380039F073D4800E0101621909E101016305B8
:10314800D8A405D060C11EF261C11FF204D062C1CB
:103158001EF263C11FF2000E0201726F000E736F40
:10316800000E746F000E756F160E01014F6F020E80
:103178000101506F720E0101516F020E0101526F71
:103188001EC253F11FC254F1E5EC5FF0000E0201BC
:10319800206F0201722916E10201732913E102016D
:1031A800742910E102017529D8A40CD0000E02017F
:1031B800726F000E736F000E746F000E756F010E44
:1031C8000201206F72C242F173C243F174C244F12A
:1031D80075C245F13A0E0101466F020E0101476FB3
:1031E8003C0E0101486F020E0101496F6B0E01018F
:1031F8004A6F020E01014B6F6C0E01014C6F020EFB
:1032080001014D6F6BEC5CF0FEEC5BF0010E02010E
:103218006D6F000E0201786F0A0E0201786501D009
:1032280062D002017851040D030EF326000EF42239
:103238003F0EF324D96E020EF420DA6E78C2DFFF57
:1032480002017851040D010EF326000EF4223F0E00
:10325800F324D96E020EF420DA6E000EDF6E02013E
:103268007851040D020EF326000EF4223F0EF324CB
:10327800D96E020EF420DA6E300EDF6E020178513C
:10328800040D3F0EF324D96E020EF420DA6E02010B
:10329800DF9002017851040D3F0EF324D96E020E1F
:1032A800F420DA6E0201DF9202017851040D3F0E1C
:1032B8000101646F020E0101656FF350010164277B
:1032C800F4500101652302017851020D000EF32428
:1032D800D96E020EF420DA6E64C1DEFF65C1DDFF2F
:1032E8000201782B99D73A0E0201496F02014783F0
:1032F8002D0E0201556F020153833A0E0201616FD0
:1033080002015F83000E0201796F02017951020DFB
:10331800290EF324D96E020EF420DA6E3F0EDE6E0B
:10332800020EDD6E0201792B02017951020D290E80
:10333800F324D96E020EF420DA6E430EDE6E020E0E
:10334800DD6E0201792B02017951020D290EF32459
:10335800D96E020EF420DA6E4B0EDE6E020EDD6EB2
:103368000201792B02017951020D290EF324D96E3D
:10337800020EF420DA6E4F0EDE6E020EDD6E0201D2
:10338800792B02017951020D290EF324D96E020E10
:10339800F420DA6E570EDE6E020EDD6E0201792B16
:1033A80002017951020D290EF324D96E020EF42080
:1033B800DA6E5B0EDE6E020EDD6E0201792B020103
:1033C8007951020D290EF324D96E020EF420DA6E1B
:1033D800630EDE6E020EDD6E0201792B0201795159
:1033E800020D290EF324D96E020EF420DA6E670E50
:1033F800DE6E020EDD6E0201792B2B0E010196198D
:10340800D8A407D0000E0101966FFEEC5BF0000E09
:1034180012002A0E01019619D8A4FAD3000E010150
:10342800966F02013C510101646F02013D51010197
:10343800656F0101666B0101676B0B0ED890010186
:103448006437653766376737E82EF8D76BC268F197
:103458000101696B6A6B6B6B160ED89001016837B6
:1034680069376A376B37E82EF8D76CC26CF10101FF
:103478006D6B6E6B6F6B1D0ED89001016C376D37DD
:103488006E376F37E82EF8D70101685101016C25B6
:103498000101706F0101695101016D210101716F15
:1034A80001016A5101016E210101726F01016B5125
:1034B80001016F210101736F010164510101702540
:1034C8000101746F01016551010171210101756FDD
:1034D80001016651010172210101766F01016751F5
:1034E800010173210101776F02013A51010174252D
:1034F8000201726F02013B51010175210201736FD4
:10350800000E010176210201746F000E010177217E
:103518000201756F160E01014F6F020E0101506F07
:10352800720E0101516F020E0101526F60C153F119
:1035380061C154F127EC66F0FEEC5BF0010E12005D
:103548003CC27AF23DC27BF27AC242F17BC243F1BD
:10355800000E0101456F0A0E446F2EEC68F0010160
:1035680042510201686F7AC242F17BC243F1000EF8
:103578000101456F0A0E446FA6EC66F042C17AF26B
:1035880043C17BF27AC242F17BC243F1000E0101D2
:10359800456F060E446F2EEC68F00101425102019E
:1035A800646F7AC242F17BC243F1000E0101456F9C
:1035B800060E446FA6EC66F042C17AF243C17BF274
:1035C8007AC242F17BC243F1000E0101456F0A0E37
:1035D800446F2EEC68F00101425102015C6F7AC21F
:1035E80042F17BC243F1000E0101456F0A0E446FA0
:1035F800A6EC66F0010142510201586F3AC27AF214
:103608003BC27BF27AC242F17BC243F1000E010158
:10361800456F0A0E446F2EEC68F001014251020119
:10362800506F7AC242F17BC243F1000E0101456F2F
:103638000A0E446FA6EC66F042C17AF243C17BF2EF
:103648007AC242F17BC243F1000E0101456F060EBA
:10365800446F2EEC68F00101425102014C6F7AC2AE
:1036680042F17BC243F1000E0101456F060E446F23
:10367800A6EC66F042C17AF243C17BF27AC242F10B
:103688007BC243F1000E0101456F0A0E446F2EEC18
:1036980068F0010142510201446F7AC242F17BC2D3
:1036A80043F1000E0101456F0A0E446FA6EC66F067
:1036B800010142510201406F000E02016E6F070EB8
:1036C80002016E6501D025D002016E51020D290E4E
:1036D800F324D96E020EF420DA6E10EE02F0DE50FA
:1036E800E126DD50E22202016E51020D290EF3247B
:1036F800D96E020EF420DA6E00EE01F0DE50E926F3
:10370800DD50EA22EF5057EC61F0E76E02016E2BB4
:10371800D6D7000E0101506F020E0101516F0B0E3A
:103728000101526F050E0101536F8CEC5BF02D0EF9
:1037380001019619D8B404D002012005D8A473D287
:10374800000E0101966F000E0201206F000E0201AB
:10375800776F290E0101426F020E0101436F080EB7
:103768000101446F42EC6BF002017751020D290E02
:10377800F324D96E020EF420DA6EDECF64F1DDCFC9
:1037880065F164C1D9FF65C1DAFF0201DF80000E6F
:1037980002016F6F070E02016F6501D025D002018B
:1037A8006F51020D290EF324D96E020EF420DA6E41
:1037B80010EE02F0DE50E126DD50E22202016F51E8
:1037C800020D290EF324D96E020EF420DA6E00EEF3
:1037D80001F0DE50E926DD50EA22EF5057EC61F0A7
:1037E800E76E02016F2BD6D7000E0101506F020E53
:1037F8000101516F0B0E0101526F050E0101536F4C
:103808008CEC5BF02B0E01019619D8A406D0000EA3
:103818000101966FFEEC5BF006D22A0E01019619A3
:10382800D8A44ED1000E0101966F010E02013E6F21
:10383800000E0201396FD5D002013951040DF3CFC2
:1038480071F202017151020D290EF324D96E020E94
:10385800F420DA6E10EE01F0DE50E126DD50E222AF
:10386800E7500201216F020171510101646F656B1C
:10387800D890010164376537020E01016427000EF4
:103888006523290E01016425D96E020E0101652107
:10389800DA6E10EE01F0DE50E126DD50E222E7504C
:1038A8000201226F020171510101646F656BD890AA
:1038B800010164376537040E01016427000E652392
:1038C800290E01016425D96E020E01016521DA6E07
:1038D80010EE01F0DE50E126DD50E222E750020151
:1038E800236F020171510101646F656BD89001016A
:1038F80064376537060E01016427000E6523290E1B
:1039080001016425D96E020E01016521DA6E10EEFF
:1039180001F0DE50E126DD50E222E7500201246F7B
:10392800020121510A0D02012251F326000EF42250
:10393800F4BE09D0F45004E1180EF35CD8A003D00B
:1039480071C277F215D0020123510A0D02012451E8
:10395800F326000EF422F4BE0FD0F45004E13C0E1E
:10396800F35CD8A009D002017151020F0201776FF0
:10397800000E02013E6F33D021C242F10101436BB8
:10398800020E0101456F580E446F23EC6CF00201E2
:1039980022513C0DF35001014227F4500101432309
:1039A800020123510A0DF35001014227F45001018D
:1039B80043230201245101014227000E0101432340
:1039C80002013951020D250EF324D96E020EF4209E
:1039D800DA6E010142C1DEFF010143C1DDFF0201D0
:1039E800392B020E0201396105D002013E51020154
:1039F800D8A422D702013E510201D8B448D002010E
:103A080025510201275D0201265102012859D8B02B
:103A18003ED0000E0201706F030E0201706501D0E6
:103A280030D002017051020D290EF324D96E020E16
:103A3800F420DA6E10EE01F0DE50E126DD50E222CD
:103A4800020170510101646F656BD8900101643700
:103A58006537080E01016427000E6523290E010150
:103A68006425D96E020E01016521DA6E00EE01F0BF
:103A7800DE50E926DD50EA22E7CFEFFF0201702B86
:103A8800CBD7040E0201776F000E02013E6F0201D0
:103A98003E510201D8B432D0290E0101426F020E04
:103AA8000101436F080E0101446F42EC6BF025C21F
:103AB8003AF226C23BF227C23CF228C23DF2B3D00A
:103AC800280E01019619D8A40AD0000E0101966F9C
:103AD800070E0201776112D00201772B0FD0290E51
:103AE80001019619D8A40AD0000E0101966F0201AF
:103AF80077510201D8B402D002017707090E0101FB
:103B0800426F000E67EC6AF00201766F02017629B7
:103B1800D8B41FD602017751020D290EF324D96EAD
:103B2800020EF420DA6E10EE01F0DE50E126DD50D0
:103B3800E22276C2E7FF070E020177610AD6020188
:103B4800772B07D6080E01014C6F090E01014D6F46
:103B580002016B5192EC67F0070E0101426F010EF2
:103B680067EC6AF00201766F02017629D8B407D0B3
:103B7800020176514BEC69F002016B1B54D01E0E0A
:103B880001019619D8A405D0000E0101966F000E08
:103B980009D02D0E01019619D8A445D0000E0101B7
:103BA800966F7F0E02016B6F3ED0040E01014C6FC1
:103BB800080E01014D6F02016C5192EC67F0030E83
:103BC8000101426F010E67EC6AF00201766F020193
:103BD8007629D8B407D0020176514BEC69F002017E
:103BE8006C1B21D01E0E01019619D8A405D0000E19
:103BF8000101966F000E09D02D0E01019619D8A467
:103C080012D0000E0101966F070E02016C6F0BD0E7
:103C180002016D51010AD8B493D4030AD8B492D7DB
:103C2800010AD8B4C2D7280E01019619D8A410D019
:103C3800000E0101966FFEEC5BF0030E02016D1998
:103C4800D8A402D0010E14D002016D2B01EF1AF096
:103C5800290E01019619D8A401EF1AF0000E0101EE
:103C6800966FFEEC5BF002016D05D8A405D0030E3B
:103C780002016D6F01EF1AF002016D0701EF1AF0F2
:103C8800010189A904D001018999FEEC5BF0200E9D
:103C980001019619D8A421D0800E0101B71907E1B6
:103CA8000101B805D8A403D0010188A116D0000EDF
:103CB8000101966FFEEC5BF0010188B104D00201AE
:103CC8008F6B8F2B02D002018F6B0101885102018B
:103CD8008F19FE0B8F190101886F2D0E010196199E
:103CE800D8A414D0800E0101B71904E10101B80568
:103CF800D8B40CD0010188A109D0000E0101966F3B
:103D0800B7C18DF2B8C18EF22FEC59F0010188B31A
:103D18001DD0F9C09AF1FAC09BF1FBC09CF1FCC020
:103D28009DF19A0E0101606F010E0101616F7FEC38
:103D380043F060C1B7F161C1B8F1010188A104D0B5
:103D480001018891FEEC5BF001018883800E01017E
:103D5800B71904E10101B805D8B403D0010188B14D
:103D6800B6D20201FA51010197110201F06F020166
:103D7800F0510201D8B43AD068C4DFF269C4E0F265
:103D88006AC4E1F26BC4E2F2010E0201EB6F030EAA
:103D98000201EB6501D019D00201F051010B0201BB
:103DA800D16F0201D890F0330201D105D8A40AD00E
:103DB800E0C2DFF2E1C2E0F20201EB5157EC61F040
:103DC8000201E16F0201EB2BE2D7DF0E01014C6F1C
:103DD800020E01014D6F000E01014E6F0D0E010123
:103DE8004F6F010E0101506FE2EC55F025EE7CF0AB
:103DF80012EEB1F0080EDBCFE3FFE806FCE2F9C0F3
:103E080042F1FAC043F1FBC044F1FCC045F1640E35
:103E18000101466F000E476F000E486F000E496F94
:103E280075EC56F042C1F5F243C1F6F244C1F7F21F
:103E380045C1F8F2F5C242F1F6C243F1F7C244F1C6
:103E4800F8C245F10A0E0101466F000E476F000ED9
:103E5800486F000E496F9DEC5AF00101425157EC32
:103E680061F00201B86FF5C242F1F6C243F1F7C240
:103E780044F1F8C245F10A0E0101466F000E476F82
:103E8800000E486F000E496F75EC56F042C1F5F20E
:103E980043C1F6F244C1F7F245C1F8F2F5C242F166
:103EA800F6C243F1F7C244F1F8C245F1060E01012A
:103EB800466F000E476F000E486F000E496F9DEC6D
:103EC8005AF00101425157EC61F00201B76FF5C297
:103ED80042F1F6C243F1F7C244F1F8C245F1060EC9
:103EE8000101466F000E476F000E486F000E496FC4
:103EF80075EC56F042C1F5F243C1F6F244C1F7F24F
:103F080045C1F8F2F5C242F1F6C243F1F7C244F1F5
:103F1800F8C245F10A0E0101466F000E476F000E08
:103F2800486F000E496F9DEC5AF00101425157EC61
:103F380061F00201B56FF5C242F1F6C243F1F7C272
:103F480044F1F8C245F10A0E0101466F000E476FB1
:103F5800000E486F000E496F75EC56F042C1F5F23D
:103F680043C1F6F244C1F7F245C1F8F2F5C242F195
:103F7800F6C243F1F7C244F1F8C245F1060E010159
:103F8800466F000E476F000E486F000E496F9DEC9C
:103F98005AF00101425157EC61F00201B46FF5C2C9
:103FA80042F1F6C243F1F7C244F1F8C245F1060EF8
:103FB8000101466F000E476F000E486F000E496FF3
:103FC80075EC56F042C1F5F243C1F6F244C1F7F27E
:103FD80045C1F8F2F5C242F1F6C243F1F7C244F125
:103FE800F8C245F1180E0101466F000E476F000E2A
:103FF800486F000E496F75EC56F001014229020125
:10400800D26FF5C242F1F6C243F1F7C244F1F8C2E9
:1040180045F1180E0101466F000E476F000E486FFC
:10402800000E496F9DEC5AF042C1F5F243C1F6F219
:1040380044C1F7F245C1F8F2F5C242F1F6C243F1C4
:10404800F7C244F1F8C245F10A0E0101466F000EAD
:10405800476F000E486F000E496F9DEC5AF0010142
:10406800425157EC61F00201B26FF5C242F1F6C25B
:1040780043F1F7C244F1F8C245F10A0E0101466F57
:10408800000E476F000E486F000E496F75EC56F032
:104098000101425157EC61F00201B16F010198052D
:1040A800D8A444D055C08FF256C090F257C091F2B0
:1040B80058C092F202018F1F901F911F921F8F2BE1
:1040C800000E9023912392230001F95102018F25BC
:1040D8000201CB6F0001FA51020190210201CC6F5D
:1040E8000001FB51020191210201CD6F0001FC5139
:1040F800020192210201CE6F0201CEBF17D0020148
:10410800CE510201CD110201CC1105E1C80E020108
:10411800CB5DD8A00BD0F9C055F0FAC056F0FBC063
:1041280057F0FCC058F0000E0101986F0201FA51D7
:10413800010197110201F06F010198510101D8A402
:1041480020D0070E0201F019D8B405D0000E0201E4
:10415800D66F050E04D0000E0201D66F040ED56F7F
:10416800B10E01014C6F020E01014D6F000E0101ED
:104178004E6FD5C24FF1000E0101506FE2EC55F0C1
:104188006AD001019805D8A466D001018AA936D061
:104198009B0E0101426F020E0101436F590E01018E
:1041A800446FFF0E0101456FB1EC6AF001019951AE
:1041B8000101506F516B526B536B9B0E0101546F91
:1041C800020E0101556F060E0101566FBAEC44F05C
:1041D80091C150F192C151F10101000E51BFFF0E82
:1041E800526F536F9B0E0101546F020E0101556F00
:1041F800040E0101566FBAEC44F00ED09B0E01017B
:10420800426F020E0101436F470E0101446FFF0E1A
:104218000101456FB1EC6AF0070E0201F019D8B43C
:1042280005D0000E0201D86F050E04D0000E020161
:10423800D86F040ED76F9B0E01014C6F020E01015F
:104248004D6F000E01014E6FD7C24FF1000E0101F4
:10425800506FE2EC55F0070E0201F019D8B405D002
:10426800000E0201DA6F020E04D0000E0201DA6FAE
:10427800010ED96F0201D251A4EC63F042C14CF196
:1042880043C14DF1000E01014E6FD9C24FF1000E2E
:104298000101506FE2EC55F0010188AF18D0B5C1AB
:1042A800CFF2B6C1D0F2080E0201CF6FCF0E0101D6
:1042B8004C6F020E01014D6F000E01014E6F000E92
:1042C80001014F6F000E0101506FE2EC55F0010142
:1042D80088A915D0010188B112D0C60E01014C6F12
:1042E800FD0E01014D6F010E01014E6F000E01011F
:1042F8004F6F000E0101506FE2EC55F01200800E76
:104308000101B71904E10101B805D8B40DD225EEB1
:1043180024F012EEBAF0100EDBCFE3FFE806FCE261
:10432800070E0201BA6F010E0201DD6F010188A1BB
:1043380006D0000E0201DD6FF10E0201BF6F000E04
:104348000201E66F000EE76F000EE86F000EE96FDE
:10435800930E01014F6F020E0101506FE60E01012D
:10436800516F020E0101526FB7C153F1B8C154F138
:10437800E5EC5FF0E6C242F1E7C243F1E8C244F17E
:10438800E9C245F1DB0E0101466F020E0101476FDC
:10439800F10E0101486F020E0101496FDE0E0101A5
:1043A8004A6F020E01014B6FEA0E01014C6F020EBB
:1043B80001014D6F6BEC5CF09AC150F19BC151F15A
:1043C8009CC152F19DC153F1F30E0101546F020ECD
:1043D8000101556FE50E0101566F020E0101576F7D
:1043E80067EC66F0F3C242F1F4C243F1000E01013A
:1043F800456F0A0E446F2EEC68F00101425157ECEC
:1044080061F00201C56FF3C242F1F4C243F1000E3C
:104418000101456F0A0E446FA6EC66F042C1F3F243
:1044280043C1F4F2F3C242F1F4C243F1000E0101B8
:10443800456F060E446F2EEC68F00101425157ECAF
:1044480061F00201C46FF3C242F1F4C243F1000EFD
:104458000101456F060E446FA6EC66F042C1F3F207
:1044680043C1F4F23A0E0201C36FF3C242F1F4C23F
:1044780043F1000E0101456F0A0E446F2EEC68F0FF
:104488000101425157EC61F00201C26FF3C242F1DF
:10449800F4C243F1000E0101456F0A0E446FA6EC09
:1044A80066F00101425157EC61F00201C16F010E43
:1044B8000201EC6F030E0201EC6501D019D0020174
:1044C800EA51010B0201D36F0201D890EA330201CD
:1044D800D305D8A40AD0C8C2C7F2C9C2C8F202011B
:1044E800EC5157EC61F00201C96F0201EC2BE2D7E5
:1044F8000201E551A4EC63F042C1E3F243C1E4F2E6
:10450800E3C2F6FFE4C2F7FF0800F5CFBCF2010EE4
:104518000201E32502018F6F000E0201E42102016E
:10452800906F8FC2F6FF90C2F7FF0800F5CFBDF27B
:10453800BA0E01014C6F020E01014D6FDDC24EF142
:10454800000E01014F6F000E0101506FE2EC55F0B3
:10455800010188A1120025EE35F012EEA4F00C0E30
:10456800DBCFE3FFE806FCE2000E0201EF6F0C0E62
:10457800EE6F0201EE07D8A0EF07A40E0201EE25A8
:10458800D96E020E0201EF21DA6EF1C242F1F2C2D7
:1045980043F1000E0101456F0A0E446F2EEC68F0DE
:1045A8000101425157EC61F0DF6EF1C242F1F2C2F3
:1045B80043F1000E0101456F0A0E446FA6EC66F048
:1045C80042C1F1F243C1F2F20201EE07D8A0EF07AF
:1045D800A40E0201EE25D96E020E0201EF21DA6E59
:1045E800F1C242F1F2C243F1000E0101456F060E1D
:1045F800446F2EEC68F00101425157EC61F0DF6E18
:10460800F1C242F1F2C243F1000E0101456F060EFC
:10461800446FA6EC66F042C1F1F243C1F2F2020126
:10462800EE07D8A0EF070201EE07D8A0EF07A40E07
:104638000201EE25D96E020E0201EF21DA6EF1C2F7
:1046480042F1F2C243F1000E0101456F0A0E446FB8
:104658002EEC68F00101425157EC61F0DF6E020167
:10466800EE07D8A0EF07A40E0201EE25D96E020EC0
:104678000201EF21DA6EF1C242F1F2C243F1000EFB
:104688000101456F0A0E446FA6EC66F00101425124
:1046980057EC61F0DF6EB7C18FF2B8C190F202013A
:1046A800D89090338F330201D89090338F33020122
:1046B800D89090338F3302018F290201ED6FEDC23C
:1046C80050F10101516B000E0101536F0A0E526F38
:1046D80002EC63F00101505157EC61F00201D46F14
:1046E800A5C2A6F2D4C2A5F20A0E0101426F0201C8
:1046F800ED511DEC69F00201ED6F0201ED5102016F
:10470800D8A4DDD7A40E01014C6F020E01014D6F34
:10471800010E01014E6F000E01014F6F000E0101E5
:10472800506FE2EC55F01200010188A104D0FEECB4
:104738005BF001018891A40E01014C6FFD0E01018F
:104748004D6F010E01014E6F000E01014F6F000EFB
:104758000101506FE2EC55F01200010189A7120027
:104768000101899701018AA3120001018A97340E79
:104778000001896FFC0E00018A6F000E00018B6F2B
:10478800000E00018C6F000E00018E6F020E8D6FFF
:104798001BEC47F00009D8B403D001018A87120046
:1047A800BC0E0001896FFF0E00018A6F000E000128
:1047B8008B6F000E00018C6F000E00018E6F020ED1
:1047C8008D6F1BEC47F00009D8A41200D00E000131
:1047D800896FFB0E00018A6F25EC6DF087C08BF0A6
:1047E80088C08CF0000E00018E6F020E8D6F1BECDE
:1047F80047F00009D8B4A4D1D30E0001816F050E8B
:104808000001826F090E0001836F8CEC6EF00001CD
:10481800C06FD30E0001816F050E0001826F080E74
:104828000001836F8CEC6EF00A0DF3500001C02577
:104838000101BD6FD30E0001816F050E0001826F6B
:104848000C0E0001836F8CEC6EF00001C06FD30E6C
:104858000001816F050E0001826F0B0E0001836F4E
:104868008CEC6EF00A0DF3500001C0250101BC6FFD
:10487800D30E0001816F050E0001826F0F0E00013B
:10488800836F8CEC6EF00001C06FD30E0001816F56
:10489800050E0001826F0E0E0001836F8CEC6EF026
:1048A8000A0DF3500001C0250101BB6F180E00016D
:1048B800836FD30E0001816F050E0001826F8CECAF
:1048C8006EF00001C06F170E0001836FD30E000158
:1048D800816F050E0001826F8CEC6EF00001C16FD4
:1048E8000001C1510A0D0001C051F3240001C26F3B
:1048F8000001000EF4200001C36F0001C46B000129
:10490800C3BFC4070001C4510001C56FFF0E0001F9
:10491800C66FFF0E0001C76FBBC195F0BCC194F014
:104928000101BD5123EC5AF00001C86FC96B0001A9
:10493800C6510001C8270001C7510001C923C8C0DA
:104948009CF0C9C09DF00001000E9DBFFF0E9E6F38
:104958009F6F800E0001A06F510EA16F010EA26F14
:10496800000EA36F1DEC67F09CC0CAF09DC0CBF091
:104978009EC0CCF09FC0CDF0120E0001836FD30E05
:104988000001816F050E0001826F8CEC6EF0000152
:10499800CE6F110E0001836FD30E0001816F050EDB
:1049A8000001826F8CEC6EF00001CF6F0001CF51D7
:1049B8000A0D0001CE51F326000EF422F3CF9CF02D
:1049C800F4CF9DF00001000E9DBFFF0E9E6F9F6FFC
:1049D800100E0001A06F0E0EA16F000EA26F000E48
:1049E800A36F1DEC67F000019C510001CA2500016E
:1049F800D06F00019D510001CB210001D16F000152
:104A08009E510001CC210001D26F00019F5100018D
:104A1800CD210001D36F150E0001836FD30E000165
:104A2800816F050E0001826F8CEC6EF00001D46F6F
:104A3800140E0001836FD30E0001816F050E000173
:104A4800826F8CEC6EF00001D56F0001D5510A0D14
:104A58000001D451F326000EF422F3CF9CF0F4CFDA
:104A68009DF00001000E9DBFFF0E9E6F9F6F3C0ED4
:104A78000001A06F000EA16F000EA26F000EA36FC1
:104A88001DEC67F000019C510001D0250001D66F94
:104A980000019D510001D1210001D76F00019E51F5
:104AA8000001D2210001D86F00019F510001D321DC
:104AB8000001D96F0001C2510001D6250101376FED
:104AC8000001C3510001D7210101386F0001C45111
:104AD8000001D8210101396F0001C5510001D92118
:104AE80001013A6F37C19CF038C19DF039C19EF081
:104AF8003AC19FF0640E0001A06F000EA16F000E76
:104B0800A26F000EA36F1DEC67F09CC03BF19DC027
:104B18003CF19EC03DF19FC03EF13BC18EF03CC1CF
:104B28008FF03DC190F03EC191F0D9EC52F03BC1FD
:104B3800F9F03CC1FAF03DC1FBF03EC1FCF01200B7
:104B4800AC0E0001896FFB0E00018A6F0EEC6DF050
:104B580087C08BF088C08CF0000E00018E6F020EAB
:104B68008D6F1BEC47F00009D8B4D6D02C0E00018D
:104B7800806F010E0001816F000E0001836F0B0E24
:104B8800826F000E0001846FC5EC6BF0000E01010E
:104B9800416F090E0101416501D020D00101415149
:104BA8000001C06FC16B0B0E0001C027000EC123AE
:104BB800000E0001C025D96E060E0001C121DA6E73
:104BC80001014151010D2C0EF324E16E010EF42078
:104BD800E26EDFCFE7FF0101412BDBD72C0E00018E
:104BE800916F010E0001926FBEEC4DF091C03FF144
:104BF80092C040F101013F5101014011D8A442D0B7
:104C0800B20E0001806FFF0E0001816F000E0001DF
:104C1800826FA8EC6DF001018991000E0001806F90
:104C2800010E0001816F000E0001836F210E826F5B
:104C3800000E0001846FC5EC6BF0000E0001806F60
:104C4800010E0001816F560E0001826FFD0E0001FA
:104C5800836F8FEC68F0000E0001806F010E000179
:104C6800816F2C0E0001826F010E0001836F8FECA3
:104C780068F0000E0001806F010E0001816F97EC53
:104C88004AF044D0C50E0001806FFF0E0001816F0D
:104C9800010E0001826FA8EC6DF0340E0001896FDF
:104CA800FC0E00018A6F000E00018B6F000E0001E0
:104CB8008C6F000E00018E6F020E8D6F1BEC47F09B
:104CC8000009D8B4EAD70101898101018983F10E6D
:104CD8000001806F050E0001816F110E01013F2553
:104CE8000001826F000E010140210001836FD6ECA4
:104CF8006AF0220E0001806FFF0E0001816F010E25
:104D08000001826FA8EC6DF00101899B010188B751
:104D18001200E2EC6EF01200210E0001896FFC0E09
:104D280000018A6FF7EC6CF087C08BF088C08CF0BC
:104D3800000E00018E6F020E8D6F1BEC47F000090C
:104D4800D8B4F0D0DFC495F1010189ABE3D025EEEA
:104D580071F011EE21F00A0EDBCFE3FFE806FCE26A
:104D680095C129F180C180F081C181F0010E000157
:104D7800836F000E826F000E0001846FC5EC6BF02C
:104D8800210E0001806F010E0001816F010E0001EC
:104D9800826FA8EC6DF0340E0001896FFC0E0001E3
:104DA8008A6F000E00018B6F000E00018C6F000EE1
:104DB80000018E6F020E8D6F1BEC47F00009D8B40E
:104DC800EAD7340E01019519D8A406D0000E0201C5
:104DD800FA6F010189891200360E01019519D8A4CC
:104DE80006D0020E0201FA17010189891200310E5C
:104DF80001019519D8A408D00201FA51010902014C
:104E0800FA6F010189891200320E01019519D8A49F
:104E180008D00201FA5102090201FA6F01018989D9
:104E28001200330E01019519D8A408D00201FA51D5
:104E380004090201FA6F010189891200300E01018B
:104E48009519D8A415D001018889000E0201FA6FBE
:104E5800030E0001816FFC0E806F0101000E88B9FE
:104E6800010E0001826F74EC6CF001018989120057
:104E7800350E01019519D8A412D0010188990101B4
:104E88008989030E0001816FFC0E806F0101000EFD
:104E980088B9010E0001826F74EC6CF01200230EC9
:104EA80001019519D8A4120001018A85010189918F
:104EB80080C180F081C181F0010E0001836F000E76
:104EC800826F000E0001846FC5EC6BF0B20E00011A
:104ED800806FFF0E0001816F010E0001826FA8EC48
:104EE8006DF0340E0001896FFC0E00018A6F000E10
:104EF80000018B6F000E00018C6F000E00018E6F99
:104F0800020E8D6F1BEC47F00009D8B4EAD70101F7
:104F1800899B12002A0E01019519D8A412000101DB
:104F2800898B12000C0E0001896FFC0E00018A6F3C
:104F3800000E00018B6F000E00018C6F000E000147
:104F48008E6F020E8D6F1BEC47F00009D8B405D0A8
:104F5800010189910101899B12002F0E0001896FBF
:104F6800FC0E00018A6F000E00018B6F000E00011D
:104F78008C6F000E00018E6F020E8D6F1BEC47F0D8
:104F88000009D8B405D0010189910101899B12005B
:104F9800170E0001896FFC0E00018A6F000E0001D8
:104FA8008B6F000E00018C6F000E00018E6F020ED9
:104FB8008D6F1BEC47F00009D8B405D00101899129
:104FC8000101899B1200000E0001896FFC0E00018F
:104FD8008A6F000E00018B6F000E00018C6F000EAF
:104FE80000018E6F020E8D6F1BEC47F00009D8B4DC
:104FF80005D0010189910101899B1200290E000148
:10500800896FFC0E00018A6F000E00018B6F000E85
:1050180000018C6F000E00018E6F020E8D6F1BEC6D
:1050280047F00009D8B409D0F90E0001806FFE0ED0
:105038000001816F97EC4AF01200EE0E0001896FB3
:10504800FB0E00018A6F000E00018B6F000E00013D
:105058008C6F000E00018E6F020E8D6F1BEC47F0F7
:105068000009D8B41200010189910101899B01014D
:10507800889F1200250E0101426F020E0101436F45
:10508800000E0101456F490E446F000E0101466F85
:1050980085EC6BF0250E0101456F020E0101466F8C
:1050A800A50E0101476FFE0E0101486F5FEC68F025
:1050B800010188B97CD0250E0101456F020E01015E
:1050C800466F880E0101476FFF0E0101486F5FECC4
:1050D80068F024EE36F012EE89F0040EDBCFE3FF21
:1050E800E806FCE2080E0201BA6F030E0201B76F70
:1050F8000201B7510201D8B44CD00201D890BA319C
:105108000201BA6F010197510201BA150009D8B41A
:1051180020D0FF0E0101686FFF0E0101696F0201C7
:10512800B75101016A6F6B6B0101685101016A2770
:105138000101695101016B23890E01016A25D96EAC
:10514800020E01016B21DA6E0201B75157EC61F0D2
:105158001CD0FF0E0101686FFF0E0101696F02018B
:10516800B75101016A6F6B6B0101685101016A2730
:105178000101695101016B23890E01016A25D96E6C
:10518800020E01016B21DA6E2D0EDF6E0201B707E8
:10519800AFD7250E0101456F020E0101466F890E3A
:1051A8000101476F020E0101486F5FEC68F0250EA0
:1051B8000101456F020E0101466F810E0101476F23
:1051C800FF0E0101486F5FEC68F024EE3BF012EE31
:1051D8008EF0040EDBCFE3FFE806FCE2080E0201C6
:1051E800BA6F030E0201B86F0201B8510201D8B4B8
:1051F8004CD00201D890BA310201BA6F0201FA51BB
:105208000201BA150009D8B420D0FF0E0101686F59
:10521800FF0E0101696F0201B85101016A6F6B6BE2
:105228000101685101016A270101695101016B23DC
:105238008E0E01016A25D96E020E01016B21DA6E0C
:105248000201B85157EC61F01CD0FF0E0101686FE4
:10525800FF0E0101696F0201B85101016A6F6B6BA2
:105268000101685101016A270101695101016B239C
:105278008E0E01016A25D96E020E01016B21DA6ECC
:105288002D0EDF6E0201B807AFD7250E0101456F5D
:10529800020E0101466F8E0E0101476F020E0101D9
:1052A800486F5FEC68F0010188A90ED0250E010156
:1052B800456F020E0101466F920E0101476FFD0E08
:1052C8000101486F5FEC68F0010188B964D2F9C048
:1052D800B3F2FAC0B4F2FBC0B5F2FCC0B6F2B30E3A
:1052E8000101606F020E0101616F7FEC43F060C144
:1052F800ADF261C1AEF2800E0201AD1919E10201F1
:10530800AE05D8A415D0000E0201B36F000EB46F1D
:10531800000EB56F000EB66FB30E0101606F020E7E
:105328000101616F7FEC43F060C1ADF261C1AEF283
:10533800800E0201AD1913E10201AE05D8A40FD009
:10534800250E0101456F020E0101466F420E010153
:10535800476FFD0E0101486F5FEC68F01CD2250E07
:105368000101456F020E0101466F980E0101476F5A
:10537800FE0E0101486F5FEC68F026EEB7F012EE02
:1053880076F0120EDBCFE3FFE806FCE2760E0101B1
:10539800426F020E0101436F000E0101456F130EAB
:1053A800446F000E0101466F85EC6BF0000E0201A0
:1053B800A96F000EAA6F000EAB6F000EAC6F6E0ED9
:1053C80001014F6F020E0101506FA90E0101516FCB
:1053D800020E0101526FADC253F1AEC254F1E5ECB9
:1053E8005FF0A9C242F1AAC243F1ABC244F1ACC218
:1053F80045F1A40E0101466F020E0101476FAF0E81
:105408000101486F020E0101496FA60E01014A6FA2
:10541800020E01014B6FA70E01014C6F020E010134
:105428004D6F6BEC5CF0B3C250F1B4C251F1B5C230
:1054380052F1B6C253F1B10E0101546F020E0101CF
:10544800556FA80E0101566F020E0101576F67ECE8
:1054580066F06DC098F26EC099F26FC09AF2B1C250
:1054680042F1B2C243F1000E0101456F3C0E446F98
:105478002EEC68F0010142C150F1010143C151F124
:105488000101526B536B980E0101546F020E01011A
:10549800556F020E0101566FBAEC44F0B1C242F1E9
:1054A800B2C243F1000E0101456F3C0E446FA6ECF9
:1054B80066F042C1B1F243C1B2F270C09BF271C052
:1054C8009CF272C09DF2B1C250F1B2C251F1010119
:1054D800526B536B9B0E0101546F020E0101556F05
:1054E800020E0101566FBAEC44F074C49EF275C402
:1054F8009FF276C4A0F2AFC242F1B0C243F1000EEF
:105508000101456F3C0E446F2EEC68F0010142C169
:1055180050F1010143C151F10101526B536B9E0ED1
:105528000101546F020E0101556F020E0101566F01
:10553800BAEC44F0AFC242F1B0C243F1000E01012F
:10554800456F3C0E446FA6EC66F042C1AFF243C112
:10555800B0F277C4A1F278C4A2F279C4A3F2AFC2C0
:1055680050F1B0C251F10101526B536BA10E010110
:10557800546F020E0101556F020E0101566FBAEC0D
:1055880044F0760E0101456F020E0101466F0201DB
:10559800A851A4EC63F042C147F143C148F15FEC64
:1055A80068F0760E0101456F020E0101466F700E1C
:1055B8000101476FFF0E0101486F5FEC68F0760E3E
:1055C8000101456F020E0101466F9B0E0101476FF5
:1055D800020E0101486F5FEC68F0760E0101456F1D
:1055E800020E0101466FBA0E0101476FFF0E01015D
:1055F800486F5FEC68F0760E0101456F020E0101FD
:10560800466F980E0101476F020E0101486F5FEC6B
:1056180068F0760E0101456F020E0101466FE90E32
:105628000101476FFF0E0101486F5FEC68F0760ECD
:105638000101456F020E0101466FA10E0101476F7E
:10564800020E0101486F5FEC68F0760E0101456FAC
:10565800020E0101466FBA0E0101476FFF0E0101EC
:10566800486F5FEC68F0760E0101456F020E01018C
:10567800466F9E0E0101476F020E0101486F5FECF5
:1056880068F0760E0101456F020E0101466F700E3B
:105698000101476FFF0E0101486F5FEC68F024EECF
:1056A80040F012EE93F0040EDBCFE3FFE806FCE2D5
:1056B800080E0201BA6F030E0201B96F0201B95157
:1056C8000201D8B44CD00201D890BA310201BA6FA5
:1056D8000201A7510201BA150009D8B420D0FF0E63
:1056E8000101686FFF0E0101696F0201B9510101E3
:1056F8006A6F6B6B0101685101016A2701016951E9
:1057080001016B23930E01016A25D96E020E010176
:105718006B21DA6E0201B95157EC61F01CD0FF0E13
:105728000101686FFF0E0101696F0201B9510101A2
:105738006A6F6B6B0101685101016A2701016951A8
:1057480001016B23930E01016A25D96E020E010136
:105758006B21DA6E2D0EDF6E0201B907AFD7760E18
:105768000101456F020E0101466F930E0101476F5B
:10577800020E0101486F5FEC68F0250E0101456FCC
:10578800020E0101466F760E0101476F020E0101FC
:10579800486F5FEC68F0250E0101666F020E01018B
:1057A800676F1200FEEC5BF0010E0B01426F800E7A
:1057B800416F2CD20B0138510B01D8A425D0440ECF
:1057C80001014F6F0B0E0101506F41CB51F142CBDC
:1057D80052F19FEC60F0000E0B01546F000E0B01AC
:1057E800626F010E0B01386F0B016405D8B40CD041
:1057F800000E0B01446F000E0B01546F000E0B01DD
:10580800556F000E0B01626F7AC421FB7BC422FB2B
:105818007CC423FB800E0B0141250101426FFE0E63
:105828000B0142210101436F000E0101456F210E5A
:10583800446FA6EC66F0010E01014227000E01013B
:105848004323010142C150F1010143C151F101015A
:10585800526B536B210E0101546F0B0E0101556FF2
:10586800030E0101566FBAEC44F0210E01014C6F92
:105878000B0E01014D6F010E01014E6F0E0E01015D
:105888004F6F000E0101506FE2EC55F00B016405FB
:10589800D8A423D0440E01014C6F0B0E01014D6FAB
:1058A800000E01014E6F000E01014F6F000E010145
:1058B800506FE2EC55F0550E01014C6F0B0E0101D3
:1058C8004D6F010E01014E6F000E01014F6F000E6A
:1058D8000101506FE2EC55F022D0B50E01014C6F7A
:1058E800FD0E01014D6F000E01014E6F000E01010A
:1058F8004F6F000E0101506FE2EC55F0A70E010149
:105908004C6FFD0E01014D6F010E01014E6F000E2F
:1059180001014F6F000E0101506FE2EC55F02D0EA2
:1059280001019619D8A400D2000E0101966F25EE48
:10593800A7F01BEE24F00B0EDBCFE3FFE806FCE23A
:10594800000E0B01436F010189A10FD00B014351D8
:10595800020D240EF324D96E0B0EF420DA6E610EBC
:10596800DE6EFE0EDD6E0B01432B0B014351020D63
:10597800240EF324D96E0B0EF420DA6E3E0EDE6E82
:10598800FF0EDD6E0B01432B0B014351020D240E5C
:10599800F324D96E0B0EF420DA6E530EDE6EFE0E73
:1059A800DD6E0B01432B0B014351020D240EF32432
:1059B800D96E0B0EF420DA6E620EDE6EFF0EDD6E0F
:1059C8000B01432B0B014351020D240EF324D96E16
:1059D8000B0EF420DA6ECC0EDE6EFE0EDD6E0B01C1
:1059E800432B010E0B01436F240E0101556F0B0E63
:1059F8000101566F000E0101576F48EC48F00B018A
:105A08003D6F010189B106D0000E0B01316F000E08
:105A1800306F0ED00B01432B0B013D290B014319AD
:105A2800D8A402D0010E01D0000E0B01306F316BEB
:105A38000B0130510B013111D8B403D0E4EC65F0FF
:105A4800B9D60B01432B0B013D290B014319D8A4EF
:105A5800E1D0FEEC5BF083C43EFB84C43FFB0B014A
:105A68006405D8B405D0000E0B01326F000E04D0C7
:105A7800440E0B01326F0B0E0B01336F32CB5AF110
:105A880033CB5BF13E0E01015C6F0B0E01015D6FC4
:105A9800100E01015E6F5CEC12F05AC13BFB5BC15A
:105AA8003CFB0B013B510B013C11D8B483D6000ED3
:105AB8000B01406F18D00B014051010DF3500B0141
:105AC8003B25D96EF4500B013C21DA6E0B01405195
:105AD800010D440EF324E16E0B0EF420E26EDFCFCD
