:04000000F7EF00F026
:0400080008ED0AF005
:10001800D8CF35F0E8CF36F0E0CF37F0D9CF38F089
:10002800DACF39F0F3CF3AF0F4CF3BF004009EA0DA
:10003800CBD09E90C80ECF2603EC04F063505F5CD3
:10004800316E64506058326E65506158336E665038
:100058006258346E3450800A800F08E1000E335C19
:1000680005E1170E325C02E1710E315C010ED8A079
:10007800000E3C6E3C5004E0F3EC09F00001C09324
:100088000001C0AD57D05750640A02E0C1A152D058
:10009800446A426A436A5750640A09E04450100DA2
:1000A800F350A00F4224D96EDA6ADFA235D044504B
:1000B800100DF350800F4224D96EDA6ADF503D6E7E
:1000C8004450400DF35042248009C4EC09F04450D8
:1000D800100DF3500001A00F4224D96EDA6ADFA098
:1000E8000DD04450100DF350A00F4224D96EDA6A97
:1000F800DFA002D0C1B302D05F0E3D6E3D50F9ECD7
:1001080000F0ABEC07F04450100DF3500001A00FC5
:100118004224D96EDA6ADF92424A432A4350800A5F
:10012800800F100ED8B4425CB6E3442A010E446432
:10013800B0D7C191575002E057060DD0C181640E67
:10014800576E010EC1B3000E316E3146C1513118E0
:10015800FD0B3118C16F6B5002E06B0634D0010102
:10016800D16B81AE26D06C500F0A02E16C6A01D0C7
:100178006C2A6CC03EF03F6A416A040E406E020E63
:100188003F02F3503F6E3EB03F2AD8903E324006C1
:10019800D8A041064150800AF36E800EF35C010E30
:1001A800D8B4405CECE23F50020DF3CF81FF5668B3
:1001B8000AD0562808E16CC056F05650F3EC06F009
:1001C800D16F1E0E6B6EF2943BC0F4FF3AC0F3FF82
:1001D80039C0DAFF38C0D9FF37C0E0FF36C0E8FFC2
:1001E80035C0D8FF1000E3EF07F0016E1CD1200ED8
:1001F80005D3300E03D3310E01D3320EFFD2330EA6
:10020800FDD2340EFBD2350EF9D2360EF7D2370EA8
:10021800F5D2380EF3D2390EF1D22D0EEFD2210ECF
:10022800EDD2220EEBD2230EE9D2240EE7D2250E10
:10023800E5D2260EE3D2280EE1D2290EDFD22A0E0D
:10024800DDD22C0EDBD22E0ED9D22F0ED7D23A0EFB
:10025800D5D23B0ED3D23F0ED1D2400ECFD25B0EB9
:10026800CDD25D0ECBD25E0EC9D25F0EC7D2600E64
:10027800C5D2270EC3D22B0EC1D23C0EBFD23D0E23
:10028800BDD23E0EBBD2EF0EB9D2C80EB7D2C90E40
:10029800B5D2E90EB3D2410EB1D2610EAFD2420E41
:1002A800ADD2620EABD2430EA9D2630EA7D2440ED2
:1002B800A5D2640EA3D2450EA1D2650E9FD2460EDA
:1002C8009DD2660E9BD2470E99D2670E97D2480EE2
:1002D80095D2680E93D2490E91D2690E8FD24A0EEA
:1002E8008DD26A0E8BD24B0E89D26B0E87D24C0EF2
:1002F80085D26C0E83D24D0E81D26D0E7FD24E0EFA
:100308007DD26E0E7BD2CC0E79D24F0E77D26F0E85
:1003180075D2500E73D2700E71D2510E6FD2710E0B
:100328006DD2520E6BD2720E69D2530E67D2730E13
:1003380065D2540E63D2740E61D2550E5FD2750E1B
:100348005DD2560E5BD2760E59D2570E57D2770E23
:1003580055D2580E53D2780E51D2590E4FD2790E2B
:100368004DD25A0E4BD27A0E49D2A00E47D2B20EB7
:1003780045D2B30E43D2A10E41D2B40E3FD2E00E05
:100388003DD2E30E3BD2A20E39D2B50E37D2A30E20
:1003980035D2B60E33D2A40E31D2B70E2FD2A50E57
:1003A8002DD2B80E2BD2A60E29D2B90E27D2BA0E4C
:1003B80025D2A70E23D2BB0E21D2BC0E1FD2BD0E52
:1003C8001DD2A80E1BD2BE0E19D2BF0E17D2A90E6F
:1003D80015D2AA0E13D2E40E11D2E10E0FD2E50EF9
:1003E8000DD2AB0E0BD2C00E09D2AC0E07D2C10E85
:1003F80005D2E20E03D2E60E01D2AD0EFFD1C20E37
:10040800FDD1AE0EFBD1C30EF9D1C40EF7D1AF0E9C
:10041800F5D1C50EF3D1B00EF1D1C60EEFD1B10EA4
:10042800EDD1C70EEBD10150200A01E1E0D6010A57
:1004380001E1F5D6030A01E1F4D6010A01E1F3D698
:10044800070A01E1F2D6010A01E1F1D6030A01E146
:10045800F0D60E0A01E1EFD6010A01E1EED6030A51
:1004680001E1EDD6010A01E106D7070A01E1E9D663
:10047800010A01E1D2D6030A01E1E5D6010A01E148
:10048800E4D61F0A01E1B5D6010A01E1B4D6030A90
:1004980001E1B3D6010A01E1B2D6070A01E1B1D6FA
:1004A800010A01E1B0D6030A01E1AFD6010A01E170
:1004B800AED60F0A01E1ADD6010A01E1ACD6030AB6
:1004C80001E1C5D6010A01E1C4D6070A01E1D5D682
:1004D800010A01E1D4D6030A01E1D3D6010A01E1F8
:1004E800BAD67F0A01E1B9D6010A01E1D4D6030AD6
:1004F80001E1D5D6010A01E1D6D6070A01E1D7D62E
:10050800010A01E1D8D6030A01E1D9D6010A01E1BD
:10051800DAD60F0A01E1DBD6010A01E1DCD6030ACB
:1005280001E1DDD6010A01E1DED6070A01E1DFD6E5
:10053800010A01E1E0D6030A01E1E1D6010A01E17D
:10054800E4D61F0A01E1E5D6010A01E1E6D6030A6D
:1005580001E1E7D6010A01E1E8D6070A01E1E9D697
:10056800010A01E1EAD6030A01E1EBD6010A01E139
:10057800ECD60F0A01E1EDD6010A01E1EED6030A35
:1005880001E1EFD6010A01E16AD6070A01E15DD669
:10059800010A01E166D6030A01E165D6010A01E113
:1005A80064D63F0A01E163D6010A01E176D6030A5F
:1005B80001E177D6010A01E178D6070A01E179D687
:1005C800010A01E17AD6030A01E17BD6010A01E1B9
:1005D8007CD60F0A01E17DD6010A01E17ED6030A25
:1005E80001E17FD6010A01E180D6070A01E181D63F
:1005F800010A01E182D6030A01E183D6010A01E179
:1006080086D61F0A01E187D6010A01E188D6030AC6
:1006180001E189D6010A01E18AD6070A01E18BD6F0
:10062800010A01E18CD6030A01E18DD6010A01E134
:100638008ED60F0A01E18FD6010A01E190D6030A8E
:1006480001E191D6040A01E124D6EC0A01E111D6B0
:10065800050A01E1E2D53F0A01E195D6030A01E165
:1006680014D61B0A01E10FD6080A01E18ED6010A49
:1006780001E149D6020A01E10AD67B0A01E10BD65B
:10068800010A01E172D6030A01E109D6010A01E172
:1006980072D6070A01E173D6010A01E10CD6030AF2
:1006A80001E175D6010A01E176D60F0A01E177D694
:1006B800010A01E178D6030A01E115D6010A01E130
:1006C80078D6070A01E117D6010A01E100D6030A24
:1006D80001E11BD6010A01E174D61F0A01E119D60E
:1006E800010A01E1E0D5030A01E123D6010A01E18B
:1006F8006ED6070A01E16DD6010A01E12AD6030A7E
:1007080001E16BD6010A01E16CD60F0A01E16DD651
:10071800010A01E16ED6030A01E16FD6010A01E17F
:1007280070D6070A01E171D6010A01E170D6030A01
:1007380001E171D6010A01E172D63F0A01E1ADD5A6
:10074800010A01E114D6030A01E113D6010A01E105
:1007580014D6070A01E115D6010A01E1AED5030A4C
:1007680001E117D6010A01E118D60F0A01E119D6ED
:10077800010A01E11AD6030A01E119D6010A01E1C9
:100788001AD6070A01E119D6010A01E118D6030AA7
:1007980001E1BDD5010A01E116D61F0A01E1BBD569
:1007A800010A01E182D5030A01E10FD6010A01E13C
:1007B800D6D5070A01E10FD6010A01E1CCD5030A13
:1007C80001E10DD6010A01E10ED60F0A01E10FD6AB
:1007D800010A01E110D6030A01E111D6010A01E17B
:1007E80012D6070A01E111D6010A01E112D6030A5D
:1007F80001E113D6010A01E114D62DD5120000013A
:10080800C0A7D6D0C0BF8ED0F00E695C000E6A5863
:1008180001E388D069C00DF06AC00EF016EC08F04C
:100828000DC02DF00EC02EF00FC02FF010C030F00C
:100838002D28D8B42E28D8B42F28D8B430286DE065
:100848002D501F6E070E2E14206E0B0E1B6EB1D886
:100858001B2EFDD72D50216E070E2E14226E0B0E67
:100868001B6EA7D81B2EFDD72D507F0B296E070EA8
:100878001B6E9FD81B2EFDD72D50070B2A6E2A50B2
:100888004CE029504AE05FC001F060C002F061C04E
:1008980003F062C004F0700E056E170E066E000EAF
:1008A800076A086AE3EC04F001C01BF002C01CF000
:1008B80003C01DF004C01EF01BC027F01CC028F0A8
:1008C80027C001F028C002F0050E046EA00E036ECA
:1008D80069EC09F001C025F002C026F027C001F03C
:1008E80028C002F0050E046EA00E036EA0EC08F0FE
:1008F80001282B6E2B50C5EC08F02B6E2B502914B9
:100908000CE01F50255C2050265807E32150255C39
:100918002250265802E22A507112040E6926000E4F
:100928006A2246D0C0BF03D071C023F001D0236A29
:10093800246A23C070F0716A696A6A6A6E5070101E
:10094800200D81501F0BF3102C6E2C50E00B6F18EC
:100958002AE0076AF00E066E73C008F078EC08F01B
:10096800076AF10E066E72C008F078EC08F0076AA4
:10097800F20E066E5AC008F078EC08F0076AF30E1B
:10098800066E58C008F078EC08F0076AF40E066E98
:1009980059C008F078EC08F0076AF50E066E5BC0DF
:1009A80008F078EC08F02C50E00B6F6E2CC081FF3B
:1009B8001200D89030322F322E322D3212000A6AAD
:1009C8000850800A800F08E1000E075C05E1000E60
:1009D800065C02E1000E055C0AE2081E071E061E00
:1009E800056C000E062207220822010E0A6E04502A
:1009F800800A800F08E1000E035C05E1000E025C2E
:100A080002E1000E015C0AE2041E031E021E016CD4
:100A1800000E022203220422010E0A1A0B6A0C6A33
:100A28000D6A0E6A085005100610071029E0010E1D
:100A3800096E06D0D8900536063607360836092AD4
:100A480008AEF8D7D8900B360C360D360E36055052
:100A5800015C06500258075003580850045809E32F
:100A68000550015E0650025A0750035A0850045AAE
:100A78000B80D8900832073206320532092EE2D7A9
:100A88000A5008E00E1E0D1E0C1E0B6C000E0C22E8
:100A98000D220E220BC001F00CC002F00DC003F0B5
:100AA8000EC004F01200C09922EE00F011EE00F022
:100AB800CD0EDECFE6FFE82EFCD70101CF6BD06B61
:100AC800CE6BCB0ECD6F0101D151280A20E1D16B3D
:100AD800D051800A0001EE6F0101CD51CF5DCE519A
:100AE800800A0001EE593AE2010ED16F000ED06F74
:100AF800CFC1D2F0D0C1D3F0000ED56BD46B2DECA2
:100B080006F0100E0101CF27000ED02327D0D151B7
:100B1800290A24E1D16BF00ECF25FF0ED021800BDE
:100B28001DE1F00ECF27FF0ED023D051800AF36EBF
:100B3800800EF35C000ED8B4CF5D02E2CF6BD06BB1
:100B4800010E0001D16F000ED06FCFC1D2F0D0C11D
:100B5800D3F0FF0ED569D4692DEC06F00101D1510F
:100B68002C0AB1E1D16B0001C0ADADD7010EC0BBFD
:100B7800000EEE6FEE3BEE47C051EE19DF0BEE199B
:100B8800C06FA1D7D2E5EAF1F22028EEF220EBE01F
:100B9800F22E20746578747573209720ABF2EAE022
:100BA800EDFC3B20F1EFEBE5F2E5EDE8E52C20F17B
:100BB800E2FFE7FC2C20EFE0F3F2E8EDE02C20F177
:100BC800EEF7E5F2E0EDE8E5BB29202D20E7E0F4BB
:100BD800E8EAF1E8F0EEE2E0EDEDE0FF20EDE020FC
:100BE800EAE0EAEEEC2DEBE8E1EE20ECE0F2E5F0ED
:100BF800E8E0EBFCEDEEEC20EDEEF1E8F2E5EBE5FC
:100C080020F7E5EBEEE2E5F7E5F1EAE0FF20ECFBA3
:100C1800F1EBFC3B20E220EEE1F9E5EC20EFEBE024
:100C2800EDE520F1E2FFE7EDE0FF20E820EFEEEB55
:100C3800EDE0FF20EFEEF1EBE5E4EEE2E0F2E5EBCC
:100C4800FCEDEEF1F2FC20F1E8ECE2EEEBEEE22E48
:100C58000000D5BF04D0010EEA6FEB6B03D0EA6B3E
:100C6800010EEB6FED6BEA51100DF350800FED257F
:100C7800D96EDA6AEB51100DF350800FED25E16E55
:100C8800E26ADFCFE7FFEA5143D8DFA002D0DF8076
:100C980002D00001DF90EB513BD8DF82ED2B0F0E25
:100CA800ED65E1D7C18120EE45F010EED8F0110EC8
:100CB800DECFE6FFE82EFCD7EC6BEC51D025D66FE3
:100CC800000ED121D76FD251D625D96ED351D72155
:100CD800DA6EDF50E96FE96701D00AD0EC51D80F1E
:100CE800D96EDA6AE9C0DFFFEC2B0F0EEC65E5D7A9
:100CF800D551800AF36E800EF35C000ED8B4D45D33
:100D0800010ED8A0000EC96FCA6BD80E48EF08F0C4
:100D1800100DF350A00FED25D96EDA6A1200F2CF4C
:100D2800C7F0F29EF29C82908294C66BD70EE82E92
:100D3800FED7C62FFCD700F0030E9CEC09F0400E3E
:100D4800C66FF50EE82EFED7C62FFCD700F0030EAF
:100D58009CEC09F0D80E00D0E82EFDD700D000F0AA
:100D6800030E9CEC09F0830EE82EFED700F0020E6D
:100D78009CEC09F0830EE82EFED700F02C0E88ECD0
:100D880009F0830EE82EFED700F0080E88EC09F073
:100D9800830EE82EFED700F0010E88EC09F0830ED2
:100DA800E82EFED700F0120E88EC09F0830EE82E2C
:100DB800FED700F082908294010E88EC09F01A0E9A
:100DC8000001C66F940EE82EFED7C62FFCD700D0C0
:100DD800F2507F0B0001C7118009F26E1200016EFC
:100DE80022D0210E41D02B0E3FD02A0E3DD0290E05
:100DF8003BD0280E39D02D0E37D0270E35D0240EF3
:100E080033D0250E31D0260E2FD0230E2DD0220E12
:100E18002BD0200E29D01E0E27D02C0E25D01F0E29
:100E280023D0000E21D00150DCE0010ADCE0030AE7
:100E3800DCE0010ADCE0070ADCE0010ADCE0030A86
:100E4800DCE0010ADCE00F0ADCE0010ADCE0030A6E
:100E5800DCE0010ADCE0070ADCE0010ADCE0030A66
:100E6800DCE0010ADCE0DDD712000001C097F26A7D
:100E7800F16AF06A9E6AA16A9D6AA06A9F6AA26A7C
:100E8800D06AE8EC08F0D08EF28EF28CCA84CD8E4F
:100E9800C80ECF6ECE6ACD809D800F0EC16E926A4D
:100EA800800E936E946A5F6A606A616A626A896A90
:100EB8008A6A8B6A240ECA6EC86BFB0EC76F09EC70
:100EC80009F0EF6FEF33EF33C051EF197F0BEF19D4
:100ED800C06F00EC0AF057EC05F0F7EF00F0C86FB0
:100EE800C3C0C7F02CD8DF50C66F010EC46F1FD81F
:100EF800DFB204D0C651C76301D0C46B18D8C4B1DF
:100F080002D0DF9202D00001DF82010EC56FC1B1AD
:100F180004D0C651C76301D0C56BC5B102D0C19119
:100F280002D00001C1810BD8C7C0DFFF1200C85131
:100F3800100DF350A00FC225D96EDA6A1200C851FD
:100F4800100DF350800FC225D96EDA6A1200086EB0
:100F58008284C0BB03D0046A056A03D0056A200EE8
:100F6800046E0838E8461F0B1E0B041022D8D6EC76
:100F780009F019D8D6EC09F082840001C0BB03D06F
:100F8800066A076A03D0076A200E066E0850100D1D
:100F9800F338E8461F0B1E0B06100BD8D6EC09F0E9
:100FA80002D8D6EF09F082908294026A050E016E8B
:100FB800190C806E8280026A010E016E0A0C010112
:100FC800D16B00EE80F0420EEE6AE806FDE100EE1D
:100FD8005FF0190EEE6AE806FDE18C0EF66E0B0E58
:100FE800F76E000EF86E02EE00F010EECDF009007C
:100FF800F5CFEEFFE550E150FAE1CC0EF66E130E98
:10100800F76E000EF86E00EE45F010EE1AF00900CB
:10101800F5CFEEFFE550E150FAE1000EF86E000161
:1010280039EF07F01A6A030E196E0D501924066E6F
:101038000E501A20076E2AEC09F015C012F016C0DF
:1010480013F017C014F0116A1124156E000E122047
:10105800166E000E1320176E000E1420186E190657
:10106800D8A01A061A50800AF36E800EF35C000EA0
:10107800D8B4195CDAE215C00DF016C00EF017C02E
:101088000FF018C010F01200CE6FCC6BCD6B24D0CF
:10109800C9C0CFF0C96B010ECF6501D01DD0CAC041
:1010A800CBF0CA6B0ED0CBC0C2F0CE51CC25D96ED6
:1010B800DA6ADF50C36FCF5173EC07F0CC4BCD2BFE
:1010C800CB2B100ECB5D06E2CE51CC25D96EDA6A59
:1010D800DF50E9E1CF2BDFD7CE51CC25D96EDA6AC4
:1010E800DF50D8B41200D4D7F2CF0CF0F29EF29CA5
:1010F800040007C009F009C00AF00B6A0A50AA6E7A
:1011080006C001F007C002F0000E046A036869EC2B
:1011180009F00150A96E08C0A8FFA69EA69CA68447
:10112800550EA76EAA0EA76EA682A694A6B2FED7E3
:10113800A1980CC0F2FF1200056A066A0450031059
:101148001BE0010E076E04D0D89003360436072A38
:1011580004AEFAD7D890053606360350015C045021
:10116800025805E30350015E0450025A0580D890E6
:1011780004320332072EEED705C001F006C002F094
:101188001200016E10D0010E1ED0020E1CD0040EEB
:101198001AD0080E18D0100E16D0200E14D0400EFB
:1011A80012D0000E10D00150010AEDE0030AEDE064
:1011B800010AEDE0070AEDE0010AEDE0030AEDE0BF
:1011C800010AEDE0EED71200C26BC36BC251100DDD
:1011D800F350800FC325D96EDA6A200EDF6E0DD862
:1011E800DF900BD8DF82C32B0F0EC365EFD7C22B5E
:1011F800010EC265EAD7C181010CC251100DF3502E
:10120800A00FC325D96EDA6A1200F2CFCCF0F29E95
:10121800F29C04000001C8C0C9F0C9C0CAF0CB6B79
:10122800CA51AA6EC7C0C2F0C8C0C3F0000EC56BD1
:10123800C4694AEC09F0C251A96EA69EA69CA68074
:10124800A8CFCDF0CCC0F2FFCD511200F2CF0BF0F9
:10125800F29EF29C040007C008F008C009F00A6A70
:101268000950AA6E06C001F007C002F0000E046A19
:10127800036869EC09F00150A96EA69EA69CA68099
:10128800A8CF0CF00BC0F2FF0C501200C551C411CE
:1012980017E0010EC66F04D0D890C437C537C62BE7
:1012A800C5AFFAD7C451C25DC551C35904E3C4518F
:1012B800C25FC551C35BD890C533C433C62FF2D7BC
:1012C800C2C0C2F0C3C0C3F012000450031017E03C
:1012D800010E056E04D0D89003360436052A04AEF4
:1012E800FAD70350015C0450025804E30350015E2E
:1012F8000450025AD89004320332052EF2D701C0A6
:1013080001F002C002F012000001C56FC5390F0BD1
:101318009CEC09F0830EE82EFED700F00001C551C1
:101328000F0B9CEC09F0830EE82EFED700F012009C
:101338000001C26F8294C0BB03D0C36BC46B03D0DF
:10134800C46B200EC36FC251020DF3501E0BC311A4
:10135800806E828082901200016E82940001C0BB70
:1013680003D0026A036A03D0036A200E026E01509A
:10137800020DF3501E0B0210806E828082901200C4
:10138800046E04380F0BB0EC09F0830EE82EFED77C
:1013980000F004500F0BB0EC09F0830EE82EFED7D6
:1013A80000F01200036E09D0CC6A03C0CBFF9E92F6
:1013B8009EA2FED70106D8A0020602500110D8B49A
:1013C8001200F2D7202020202020202020202020BA
:1013D8002020202000FF46010101010000FF480EE7
:1013E8005F24636EF40E6020646EFF0E6120656EEC
:1013F800FF0E6220666E120093EC06F00C0E88EC6D
:0E14080009F00001C08D120006000400110062
:020000040030CA
:0E000000FF861E1EFF0581FF0FC00FE00F40A0
:00000001FF
