:0400000099EF01F083
:0E0008007E82E9CF3AF0EACF3BF057ED32F0BE
:100018007E80D8CFD3F0E8CFD4F0E0CFD5F0E9CFC9
:10002800D6F0EACFD7F0E1CFD8F0E2CFD9F0D9CFE8
:10003800DAF0DACFDBF0F3CFDCF0F4CFDDF0F6CF97
:10004800DEF0F7CFDFF0F8CFE0F0F5CFE1F0040015
:10005800F2A44BD1F294010183A508D0440E426F5B
:10006800060E436FAD0E486F050E07D0240E426F83
:10007800060E436F8D0E486F050E496F82A7CDD0CF
:10008800640E0001F81903E0010182ABC6D001013A
:100098004C6B4A6B4B6B140E0001F81922E00101FE
:1000A8004C51010DF33AF43AF00EF416F3500F0BDD
:1000B800F412F00EF31648C1D1F049C1D2F0F35052
:1000C8000001D127F450D22301014A510001D12562
:1000D800D96E01014B510001D221DA6E0101DFA274
:1000E8008DD001014C51100D42C1D1F043C1D2F065
:1000F800F3500001D127F450D22301014A510001E5
:10010800D125D96E01014B510001D221DA6EDF50A1
:100118000101446F4C51400DF3504A25800986EC8B
:1001280046F001014C51010DF33AF43AF00EF41681
:10013800F3500F0BF412F00EF31648C1D1F049C179
:10014800D2F0F3500001D127F450D22301014A51D3
:100158000001D125D96E01014B510001D221DA6E7F
:100168000101DFA025D04C51010DF33AF43AF00E0D
:10017800F416F3500F0BF412F00EF31648C1D1F039
:1001880049C1D2F0F3500001D127F450D223010124
:100198004A510001D125D96E01014B510001D221EC
:1001A800DA6E0101DFA002D082BD02D05F0E446F7B
:1001B8004451A6EC1FF01DEC39F001014C51010D22
:1001C800F33AF43AF00EF416F3500F0BF412F00E63
:1001D800F31648C1D1F049C1D2F0F3500001D1273C
:1001E800F450D22301014A510001D125D96E0101F1
:1001F8004B510001D221DA6E0101DF924A4B4B2BA1
:100208004BBF49D74B5104E1100E4A5D01E243D779
:100218004C2B010E4C653DD7829B0001F85102E042
:10022800F8071BD00101828B140E0001F86F010141
:1002380082BD04D00001D16BD12B02D00001D16B5B
:10024800D13BD147D147010182510001D119BF0BE0
:10025800D1190101826F55EC3CF00001EE5102E02A
:10026800EE073ED001018E6B81A027D00F0E000152
:10027800EF1902E1EF6B01D0EF2BEFC045F101015F
:10028800476B040E466FD89045334607D8A04707FA
:1002980047BF04D04751F7E14605F5E20001EF51A9
:1002A800020D8A50E00BF3108A6EF769F551F611CA
:1002B80017E0F507D8A0F60713D00001F72910E1D9
:1002C800EFC0F7F0F75156EC41F001018E6F010EC7
:1002D8000001EE6F130EF66F880EF56FD7EC48F03D
:1002E8006FEC18F0010183A18393E1C0F5FFE0C032
:1002F800F8FFDFC0F7FFDEC0F6FFDDC0F4FFDCC0AB
:10030800F3FFDBC0DAFFDAC0D9FFD9C0E2FFD8C0FB
:10031800E1FFD7C0EAFFD6C0E9FFD5C0E0FFD4C0EF
:10032800E8FFD3C0D8FF7E90100075EF2EF04F6F16
:1003380069D34D6B4E6B12004E6B1DEF09F04E6B7F
:1003480042EF08F04E6B48EF08F04E6B040E4D6F0D
:10035800040C4E6B45EF08F04E6B17EF09F04E6B2F
:1003680020EF09F04E6B23EF09F04E6B1AEF09F0FE
:100378004E6B84EF08F04E6BE4EF08F04E6B4BEFDA
:1003880008F04E6B0D0E4D6F0D0C4E6B8DEF08F097
:100398004E6BF6EF08F04E6B5DEF08F04E6BC9EF51
:1003A80008F04E6B0BEF09F04E6B130E4D6F130CEC
:1003B8004E6B140E4D6F140C4E6BC3EF08F04E6B62
:1003C800160E4D6F160C4E6BF9EF08F04E6B180EAB
:1003D8004D6F180C4E6B190E4D6F190C4E6B1A0E93
:1003E8004D6F1A0C4E6BEDEF08F04E6B1C0E4D6FF7
:1003F8001C0C4E6B1D0E4D6F1D0C4E6B1E0E4D6F63
:100408001E0C4E6BD2EF08F04E6B96EF08F04E6B59
:10041800210E4D6F210C4E6B220E4D6F220C4E6B30
:10042800DBEF08F04E6BA5EF08F04E6B14EF09F008
:100438004E6B260E4D6F260C4E6B66EF08F04E6B1A
:100448007EEF08F04E6BD8EF08F04E6BABEF08F07C
:100458004E6B0EEF09F04E6B72EF08F04E6BCCEF5F
:1004680008F04E6B9CEF08F04E6B02EF09F04E6BF4
:10047800300E4D6F300C4E6B5AEF08F04E6B57EF45
:1004880008F04E6BB1EF08F04E6B81EF08F04E6B41
:10049800E7EF08F04E6B69EF08F04E6BBDEF08F020
:1004A8004E6B8AEF08F04E6B390E4D6F390C4E6B60
:1004B8003A0E4D6F3A0C4E6B7BEF08F04E6B90EF97
:1004C80008F04E6BF0EF08F04E6B60EF08F04E6BE3
:1004D800C6EF08F04E6B87EF08F04E6BE1EF08F0BF
:1004E8004E6B4EEF08F04E6BBAEF08F04E6BFCEF18
:1004F80008F04E6B9FEF08F04E6BA2EF08F04E6BC2
:10050800FFEF08F04E6B6CEF08F04E6BD5EF08F07C
:100518004E6BAEEF08F04E6B08EF09F04E6B75EFBF
:1005280008F04E6BDEEF08F04E6BF3EF08F04E6B01
:1005380093EF08F04E6B500E4D6F500C4E6B78EFEA
:1005480008F04E6B11EF09F04E6BA8EF08F04E6BF8
:10055800CFEF08F04E6B6FEF08F04E6B05EF09F028
:100568004E6B99EF08F04E6B51EF08F04E6BB4EFFD
:1005780008F04E6BB7EF08F04E6B54EF08F04E6B77
:10058800EAEF08F04E6B5D0E4D6F5D0C4E6BC0EFE1
:1005980008F04E6B63EF08F04E6B600E4D6F600C09
:1005A8004E6B610E4D6F610C4E6B620E4D6F620C9F
:1005B8004E6B630E4D6F630C4E6B640E4D6F640C87
:1005C8004E6B650E4D6F650C4E6B660E4D6F660C6F
:1005D8004E6B670E4D6F670C4E6B680E4D6F680C57
:1005E8004E6B690E4D6F690C4E6B6A0E4D6F6A0C3F
:1005F8004E6B6B0E4D6F6B0C4E6B6C0E4D6F6C0C27
:100608004E6B6D0E4D6F6D0C4E6B6E0E4D6F6E0C0E
:100618004E6B6F0E4D6F6F0C4E6B700E4D6F700CF6
:100628004E6B710E4D6F710C4E6B720E4D6F720CDE
:100638004E6B730E4D6F730C4E6B740E4D6F740CC6
:100648004E6B750E4D6F750C4E6B760E4D6F760CAE
:100658004E6B770E4D6F770C4E6B780E4D6F780C96
:100668004E6B790E4D6F790C4E6B7A0E4D6F7A0C7E
:100678004E6B7B0E4D6F7B0C4E6B7C0E4D6F7C0C66
:100688004E6B7D0E4D6F7D0C4E6B7E0E4D6F7E0C4E
:100698004E6B7F0E4D6F7F0C040E4E6F42EF08F0CD
:1006A800040E4E6F48EF08F0200E1AEF08F0040E03
:1006B8004E6FA8EF08F0200E16EF08F0200E2EEF70
:1006C80008F0200E4E6F4D6F200C200E3EEF08F004
:1006D800200E4E6F26EF09F0200E26EF08F0040ECC
:1006E8004E6F1AEF09F0200E3AEF08F0040E4E6F25
:1006F80084EF08F0040E4E6F4BEF08F0040E4E6FB7
:10070800E4EF08F0040E4E6FF6EF08F0040E4E6F9B
:1007180011EF09F0200E0AEF08F0200E2AEF08F07A
:10072800200E32EF08F0200E12EF08F0200E06EF30
:1007380008F0200E22EF08F0200E0EEF08F0210E30
:1007480006EF08F0040E4E6FB4EF08F0200E36EFF7
:1007580008F0040E4E6FB7EF08F0040E4E6FEAEF84
:1007680008F0040E4E6F54EF08F0040E4E6F63EF5E
:1007780008F04E6BA00E4D6FA00C040E4E6F8DEF5F
:1007880008F0040E4E6FC0EF08F0040E4E6F23EF12
:1007980009F04E6BA40E4D6FA40C040E4E6F900E14
:1007A8004D6F900C4E6BA60E4D6FA60C4E6BA70EA0
:1007B8004D6FA70C040E4E6F1DEF09F04E6BA90E7E
:1007C8004D6FA90C040E4E6F4D6F040C4E6BAB0EA3
:1007D8004D6FAB0C4E6B26EF09F04E6BAD0E4D6FA7
:1007E800AD0C4E6BAE0E4D6FAE0C040E4E6F20EF7F
:1007F80009F04E6BB00E4D6FB00C4E6BB10E4D6FD5
:10080800B10C040E4E6F17EF09F0040E4E6F05EF92
:1008180009F0040E4E6F910E4D6F910C4E6BB50E94
:100828004D6FB50C4E6BB60E4D6FB60C4E6BB70ECA
:100838004D6FB70C040E4E6F78EF08F0210EFAD307
:10084800040E4E6FCFEF08F04E6BBB0E4D6FBB0C16
:10085800040E4E6F51EF08F0040E4E6F45EF08F08E
:10086800040E4E6F6FEF08F0040E4E6F99EF08F00C
:10087800040E4E6F5DEF08F0040E4E6FC9EF08F0DE
:10088800040E4E6F0BEF09F0040ED8D3040EC2D33A
:10089800040E4E6FC3EF08F0040ECCD3040E4E6F57
:1008A800F9EF08F0040EB2D3040ED0D3040EBED371
:1008B800040E4E6FEDEF08F0040ED0D3040EAED345
:1008C800040EB0D3040E4E6FD2EF08F0040E4E6F34
:1008D80096EF08F0040ECED3040E94D3040E4E6F98
:1008E800DBEF08F0040E4E6FA5EF08F0040E4E6F14
:1008F80014EF09F0040EAED3040E4E6FE3D3040ECA
:100908004E6FF8D3040E4E6FD8EF08F0040E4E6FFA
:10091800ABEF08F0040E4E6F0EEF09F0040E4E6FA9
:10092800DDD3040E4E6FCCEF08F0040E4E6F9CEF33
:1009380008F0040E4E6F02EF09F0040E83D3040E84
:100948004E6FB4D3040E4E6FAED3040E4E6FB1EF9C
:1009580008F0040E4E6FD1D3040E4E6FE7EF08F087
:10096800040E4E6FB2D3040E4E6FBDEF08F0040EA6
:100978004E6FCCD3040E7AD3040E74D3040E4E6F8C
:10098800B6D3040E4E6FC8D3040E4E6FF0EF08F0C6
:10099800040E4E6F91D3040E4E6FF4D3040E4E6FB7
:1009A800B2D3040E4E6FE1EF08F0040E4E6F72D30F
:1009B800040E4E6FDBD3040E4E6FFCEF08F0040EEE
:1009C8004E6FB9D3040E4E6FB9D3040E4E6FFFEFBE
:1009D80008F0040E4E6F7CD3040E4E6FE2D3040E63
:1009E8004E6FB8D3040E4E6F08EF09F0040E4E6F29
:1009F80078D3040E4E6FDED3040E4E6FF0D3040E80
:100A08004E6F8DD301014F5101E193D4010A01E1E9
:100A180093D4030A01E193D4010A01E193D4070AAC
:100A280001E193D4010A01E194D4030A01E194D4C9
:100A3800010A01E194D40F0A01E194D4010A01E109
:100A480094D4030A01E194D4010A01E194D4070A79
:100A580001E194D4010A01E194D4030A01E195D497
:100A6800010A01E195D41F0A01E195D4010A01E1C7
:100A780095D4030A01E195D4010A01E195D4070A46
:100A880001E196D4010A01E197D4030A01E197D460
:100A9800010A01E198D40F0A01E198D4010A01E1A1
:100AA80099D4030A01E19AD4010A01E19BD4070A07
:100AB80001E19BD4010A01E19CD4030A01E19DD420
:100AC800010A01E19ED43F0A01E19ED4010A01E135
:100AD8009ED4030A01E19FD4010A01E1A0D4070AC8
:100AE80001E1A0D4010A01E1A0D4030A01E1A0D4E4
:100AF800010A01E1A1D40F0A01E1A1D4010A01E12F
:100B0800A1D4030A01E1A1D4010A01E1A1D4070A91
:100B180001E1A1D4010A01E1A1D4030A01E1A1D4B0
:100B2800010A01E1A1D41F0A01E1A1D4010A01E1EE
:100B3800A2D4030A01E1A2D4010A01E1A2D4070A5E
:100B480001E1A2D4010A01E1A2D4030A01E1A2D47D
:100B5800010A01E1A2D40F0A01E1A2D4010A01E1CC
:100B6800A2D4030A01E1A3D4010A01E1A4D4070A2B
:100B780001E1A4D4010A01E1A4D4030A01E1A4D447
:100B8800010A01E1A4D47F0A01E1A4D4010A01E128
:100B9800A4D4030A01E1A4D4010A01E1A4D4070AF8
:100BA80001E1A4D4010A01E1A4D4030A01E1A4D417
:100BB800010A01E1A4D40F0A01E1A4D4010A01E168
:100BC800A4D4030A01E1A4D4010A01E1A4D4070AC8
:100BD80001E1A4D4010A01E1A4D4030A01E1A4D4E7
:100BE800010A01E1A4D41F0A01E1A4D4010A01E128
:100BF800A5D4030A01E1A5D4010A01E1A5D4070A95
:100C080001E1A5D4010A01E1A5D4030A01E1A5D4B3
:100C1800010A01E1A5D40F0A01E1A5D4010A01E105
:100C2800A5D4030A01E1A5D4010A01E1A5D4070A64
:100C380001E1A5D4010A01E1A5D4030A01E1A6D482
:100C4800010A01E1A6D43F0A01E1A6D4010A01E1A3
:100C5800A7D4030A01E1A8D4010A01E1A9D4070A2B
:100C680001E1AAD4010A01E1ABD4030A01E1ACD441
:100C7800010A01E1ADD40F0A01E1AED4010A01E194
:100C8800AFD4030A01E1B0D4010A01E1B1D4070AE3
:100C980001E1B2D4010A01E1B3D4030A01E1B4D4F9
:100CA800010A01E1B5D41F0A01E1B6D4010A01E144
:100CB800B7D4030A01E1B8D4010A01E1B9D4070A9B
:100CC80001E1BAD4010A01E1BBD4030A01E1BCD4B1
:100CD800010A01E1BDD40F0A01E1BED4010A01E114
:100CE800BFD4030A01E1C0D4010A01E1C1D4070A53
:100CF80001E1C2D4010A01E1C3D4030A01E1C4D469
:100D0800010A01E1C5D4FF0A01E1C6D4010A01E1E3
:100D1800C7D4030A01E1C8D4010A01E1C8D4070A0B
:100D280001E1C9D4010A01E1C9D4030A01E1C9D426
:100D3800010A01E1CAD40F0A01E1CAD4010A01E19A
:100D4800CBD4030A01E1CBD4010A01E1CCD4070AD0
:100D580001E1CCD4010A01E1CDD4030A01E1CED4EA
:100D6800010A01E1CFD41F0A01E1D0D4010A01E14F
:100D7800D1D4030A01E1D1D4010A01E1D1D4070A8F
:100D880001E1D1D4010A01E1D1D4030A01E1D1D4AE
:100D9800010A01E1D1D40F0A02E16BEF02F0010A66
:100DA80001E1CDD4030A01E1CDD4010A01E1CED499
:100DB800070A01E1CED4010A01E1CFD4030A01E117
:100DC800D0D4010A01E1D1D43F0A01E1D2D4010A09
:100DD80001E1D3D4030A01E1D4D4010A01E1D5D455
:100DE800070A01E1D6D4010A01E1D7D4030A01E1D7
:100DF800D9D4010A01E1DAD40F0A01E1DBD4010AEE
:100E080001E1DCD4030A01E1DDD4010A01E1DED409
:100E1800070A01E1DFD4010A01E1DFD4030A01E195
:100E2800E0D4010A01E1E1D41F0A01E1E2D4010A98
:100E380001E1E3D4030A01E1E4D4010A01E1E5D4C4
:100E4800070A01E1E6D4010A01E1E8D4030A01E155
:100E5800E9D4010A01E1EAD40F0A01E1EBD4010A5D
:100E680001E1ECD4030A01E1EBD4010A01E1ECD47D
:100E7800070A01E1EDD4010A01E1EED4030A01E118
:100E8800EFD4010A01E1F0D47F0A01E1F1D4010AAB
:100E980001E1F2D4030A01E1F3D4010A01E1F4D437
:100EA800070A01E1F3D4010A01E1F2D4030A01E1DE
:100EB800F3D4010A01E1F2D40F0A01E1F3D4010AE3
:100EC80001E1F2D4030A01E1F1D4010A01E1F0D40D
:100ED800070A01E1F1D4010A01E1F0D4030A01E1B2
:100EE800EFD4010A01E1EED41F0A01E1EFD4010AAF
:100EF80001E1F0D4030A01E1EFD4010A01E1EED4E3
:100F0800070A01E1EFD4010A01E1F0D4030A01E183
:100F1800F1D4010A01E1F0D40F0A01E1F0D4010A89
:100F280001E1F0D4030A01E1F1D4010A01E1F2D4AC
:100F3800070A01E1F3D4010A01E1F3D4030A01E14C
:100F4800F4D4010A01E1F5D43F0A01E1F6D4010A1B
:100F580001E1F5D4030A01E1F5D4010A01E1F5D470
:100F6800070A01E1F6D4010A01E1F6D4030A01E116
:100F7800F7D4010A01E1F7D40F0A01E1F8D4010A14
:100F880001E1F8D4030A01E1F7D4010A01E1F6D43A
:100F9800070A01E1F6D4010A01E1F6D4030A01E1E6
:100FA800F7D4010A01E1F7D41F0A01E1F7D4010AD5
:100FB80001E1F7D4030A01E1F8D4010A01E1F8D408
:100FC800070A01E1F8D4010A01E1F9D4030A01E1B1
:100FD800F9D4010A01E1F9D40F0A01E1FAD4010AAE
:100FE80001E1FAD4030A01E1FAD4010A01E1FAD4D1
:100FF800070A01E1FBD4010A01E1FBD4030A01E17C
:10100800FBD4FDD44E6F220E4D6F220C4E6F180E7E
:101018004D6F180C4E6F140E4D6F140C4E6F1D0E45
:101028004D6F1D0C4E6F1E0E4D6F1E0C4E6F1A0E1F
:101038004D6F1A0C4E6F160E4D6F160C4E6F130E29
:101048004D6F130C4E6F300E4D6F300C4E6F190EE6
:101058004D6F190C4E6F260E4D6F260C4E6F1C0EE1
:101068004D6F1C0C4E6F3A0E4D6F3A0C4E6F390E89
:101078004D6F390C4E6F210E4D6F210C020E4D6FC6
:10108800020C050E4D6F050C030E4D6F030C0C0E74
:101098004D6F0C0C420E4D6F420C580E4D6F580C94
:1010A8005B0E4D6F5B0C320E4D6F320C310E4D6F77
:1010B800310C100E4D6F100C3E0E4D6F3E0C5F0E36
:1010C8004D6F5F0C270E4D6F270C360E4D6F360C8B
:1010D800480E4D6F480C550E4D6F550C2C0E4D6F2C
:1010E8002C0C4C0E4D6F4C0C510E4D6F510C3B0E91
:1010F8004D6F3B0C280E4D6F280C340E4D6F340C81
:101108000A0E4D6F0A0C400E4D6F400C380E4D6F95
:10111800380C0E0E4D6F0E0C3C0E4D6F3C0C4F0EE6
:101128004D6F4F0C200E4D6F200C570E4D6F570C06
:101138002E0E4D6F2E0C450E4D6F450C460E4D6F05
:10114800460C240E4D6F240C530E4D6F530C2A0E73
:101158004D6F2A0C4A0E4D6F4A0C330E4D6F330CEF
:10116800590E4D6F590C5A0E4D6F5A0C430E4D6F58
:10117800430C370E4D6F370C5E0E4D6F5E0C150E1F
:101188004D6F150C3F0E4D6F3F0C110E4D6F110C2E
:101198002D0E4D6F2D0C540E4D6F540C1F0E4D6FB0
:1011A8001F0C490E4D6F490C290E4D6F290C230E4B
:1011B8004D6F230C4D0E4D6F4D0C410E4D6F410C74
:1011C8000B0E4D6F0B0C350E4D6F350C5C0E4D6FC5
:1011D8005C0C1B0E4D6F1B0C3D0E4D6F3D0C4E0EE7
:1011E8004D6F4E0C0F0E4D6F0F0C170E4D6F170CE9
:1011F800440E4D6F440C470E4D6F470C2F0E4D6F2C
:101208002F0C560E4D6F560C4B0E4D6F4B0C120E8D
:101218004D6F120C2B0E4D6F2B0C520E4D6F520C46
:10122800250E4D6F250C060E4D6F060C090E4D6FE1
:10123800090C010E4D6F010C070E4D6F070C080EBF
:101248004D6F080CAC0E4D6FAC0C99C1D0F39AC120
:10125800D1F36651671136E047EC0DF0DF50030B10
:10126800696F8FEC0DF0FC0B54EC0DF047EC0DF0B2
:101278004DEC28F0696F694769478FEC0DF0F30B67
:1012880054EC0DF047EC0DF0DFA802D0D08902D065
:101298000301D099F8DBDFAA03D00301D08B02D079
:1012A8000301D09BF0DBDFAC03D00301D08D02D06B
:1012B8000301D09DE8DBDFAE03D00301D08F02D05D
:1012C8000301D09F0301D0A9BBEC41F060C0E3F259
:1012D80061C0E4F262C0E5F2E30E0401836F020E1E
:1012E800846F26EE83F012EE30F0130EDBCFE3FFAF
:1012F800E806FCE2300E856F020E866F20EE47F09E
:1013080012EEC2F0040EDBCFE3FFE806FCE2C20EE9
:10131800876F020E886F20EEF0F012EEC7F0040E11
:10132800DBCFE3FFE806FCE2C70E896F020E8A6F87
:1013380024EE5FF012EECCF0040EDBCFE3FFE806FC
:10134800FCE2CC0E8B6F020E8C6F24EE64F012EE72
:10135800D1F0040EDBCFE3FFE806FCE2D10E8D6F7F
:10136800020E8E6F24EE69F012EED6F0040EDBCF7B
:10137800E3FFE806FCE2D60E8F6F020E906F24EEB4
:1013880008F012EE86F0050EDBCFE3FFE806FCE27C
:10139800860E916F020E926F24EE6EF012EEDBF065
:1013A800040EDBCFE3FFE806FCE2DB0E936F020ED0
:1013B800946F24EE0EF012EE8CF0050EDBCFE3FFF7
:1013C800E806FCE28C0E956F020E966FE30E976F9F
:1013D800020E986F300E996F020E9A6F24EE14F079
:1013E80012EE92F0050EDBCFE3FFE806FCE2920E68
:1013F8009B6F020E9C6F24EE1AF012EE98F0050E09
:10140800DBCFE3FFE806FCE2980E9D6F020E9E6FAD
:1014180024EE20F012EE9EF0050EDBCFE3FFE80687
:10142800FCE29E0E9F6F020EA06F24EE26F012EED5
:10143800A4F0050EDBCFE3FFE806FCE2A40EA16FE3
:10144800020EA26F24EE2CF012EEAAF0050EDBCFEE
:10145800E3FFE806FCE2AA0EA36F020EA46F24EED7
:1014680032F012EEB0F0050EDBCFE3FFE806FCE247
:10147800B00EA56F020EA66F24EE38F012EEB6F08D
:10148800050EDBCFE3FFE806FCE2B60EA76F020EFF
:10149800A86F24EE3EF012EEBCF0050EDBCFE3FFA2
:1014A800E806FCE2BC0EA96F020EAA6F63C0E0F268
:1014B80064C0E1F265C0E2F2E00EAB6F020EAC6F01
:1014C8009BC16DF19CC16EF16D0EAD6F010EAE6FDB
:1014D8009DC1E6F29EC1E7F2E60EAF6F020EB06F55
:1014E8009FC1E8F2A0C1E9F2E80EB16F020EB26F37
:1014F800A1C1EAF2A2C1EBF2EA0EB36F020EB46F19
:10150800A3C1ECF2A4C1EDF2EC0EB56F020EB66FFA
:10151800A5C1EEF2A6C1EFF2EE0EB76F020EB86FDC
:10152800A7C1F0F2A8C1F1F2F00EB96F020EBA6FBE
:10153800A9C1F2F2AAC1F3F2F20EBB6F020EBC6FA0
:10154800ABC1F4F2ACC1F5F2F40EBD6F020EBE6F82
:101558000101685103E11F0E686F01D0680703019C
:10156800CE6B200ECE6501D02FD0CE51040D030EC8
:1015780093DA65DACEC3DFFFCE51040D60DADF906F
:10158800CE51040D5CDADF82CE51040D81DA57DAD0
:10159800DF6ACE51040D020E7FDA51DA200EDF6EBB
:1015A800CE51040D000E0101696F030E6A6FF350EE
:1015B8006927F4506A230301CE5134DA69C1DEFF8A
:1015C8006AC1DDFFCE2BCDD7826BCF6BCB6B02010F
:1015D800F66BF76BF86BF96B01016451651123E049
:1015E8000301C76B18D003015FDA0301C751040D6B
:1015F800020E52DA000EF324E16E030EF420E26EBE
:10160800DFCFE7FFC751040D43DA19DA010EDF6EA9
:10161800C7C3CFF3C72B48DADF50E5E168510301B0
:10162800CF5D01E2CF2B0301CB5125E0D0BF12D013
:10163800F6C251F1F7C252F1F8C253F1F9C254F1AE
:101648002C0E0101556F010E33EC23F0CBEC3EF06C
:10165800000911E00301CB6B010168510301CF5D63
:101668000AE201016851DED910EE01F0E3D9E75032
:1016780002E10301CF2B1D0E01018E6503D0270E59
:101688008E650BD00301D0AFEDD02B0E01018E1962
:1016980004E02C0E8E1901E0E5D00301D0BF11D073
:1016A80030DA0FE1020120EE01F0FA51D926FB51A0
:1016B800DA22DF5003E1C40E010118D0FA4BFB2BEC
:1016C80032D02C0E01018E1902E1060E04D02B0E29
:1016D8008E190BE1070E040185250201FA6F000E31
:1016E800040186210201FB6F1ED0C40E696F6A696E
:1016F8000301D031E832030B0A0D01018E51F326A4
:10170800000EF422D890F336F4366951F3266A5164
:10171800F422830EF324D96E040EF420DA6EDECFA1
:10172800FAF2DDCFFBF2EDD92EE0010168517AD94A
:1017380010EE01F07FD9E75026E168510301CF5D33
:1017480003E2CB5101E0CF2B010168516BD9DED9FF
:1017580068C1C6F30DD0CFD9C65178D90301C65197
:1017680086D9C6515FD910EE03F064D9E72AC607B7
:101778000301C651CF5DEFE3CF5154D9CCC3DEFF8F
:10178800CDC3DDFF04D00301CF514CD9BFD9FAC274
:10179800D9FFFBC2DAFF95D9DFCFE7FFD051030BA2
:1017A800E80602E1CF5104E0D051030B020A08E138
:1017B80020EE02F081D985D9E750ACEC24F0DF6E39
:1017C800030120EE03F078D9CFC3DFFF20EE01F04C
:1017D80073D9010EDF6E8EC1CBF301018E6B010E42
:1017E80076EC48F0ACEC48F04DC1F6F24EC1F7F299
:1017F8004FC1F8F250C1F9F20301D0AB33D0010167
:10180800665167110DE0030120EE02F055D9010180
:1018180010EE01F06651E1266751E222DFCFE7FFC3
:101828000301C96B200EC96501D011D0C951FAD87E
:1018380010EE01F0FFD8E7500AE0C951F3D810EED6
:1018480002F0F8D845D9E7CFDFFFC92BEBD740D94D
:10185800DF6AD0A9BBEC41F0440E0101646F020EAF
:10186800656F1200840E01014D6F030E4E6F200E3E
:101878004F6FC3EC45F00301CF51D4D8DECF69F1E7
:10188800DDCF6AF169C1D9FF6AC1DAFFDF80840E52
:101898000101576F030E586F200E596F5A6B16ECE3
:1018A8003EF0280E8E1915E18E6B68510301CF5D4D
:1018B80001E3B9D6CF51B6D810EE01F0BBD8E75046
:1018C80001E1B1D6CF2B000E76EC48F00301CB6BCB
:1018D800AAD6290E8E190AE18E6B0301CF5101E1B8
:1018E800A2D6CF07000E76EC48F0F0D72A0E8E1954
:1018F8002AE18E6B20EE01F06651D9266751DA2273
:10190800DF6A0301CA6B200ECA6501D011D0CA5123
:1019180089D810EE01F08ED8E7500AE0CA5182D873
:1019280010EE02F087D8DBD8E7CFDFFFCA2BEBD762
:10193800D6D8DF6AD0A9BBEC41F0650E0101646F0F
:10194800020E656F12000301D0BF0DD02B0E0101EE
:101958008E1909E18E6B0301D0A9BBEC41F001019E
:10196800646B656B12000301D0BF4BD02C0E0101D4
:101978008E1947E18E6B0301CB5101E0CF2BCF517C
:1019880001E151D6B8D8CF5161D8DECFFCF2DDCF16
:10199800FDF2020120EE01F0A9D8DF6A20EE02F084
:1019A800A5D8200EDF6E20EE03F0A0D81F0EDF6E44
:1019B8000301CF05C86F1F0EC86501D01CD0C851E0
:1019C8000101696F6A6BD89069376A37020E692717
:1019D800000E6A23840E6925D96E030E6A21DA6E19
:1019E8000301C85144D8C8511DD810EE03F022D8BD
:1019F800E706C82BE0D7FCC2C2F3FDC2C3F3CF078A
:101A080065D72D0E01018E1901E00DD68E6B0301ED
:101A1800D0BFA2D7D00E0101606F030E616F38EC02
:101A280027F001D6020D840EF324D96E030EF4209C
:101A3800DA6E1200DE50E126DD50E2221200000EBE
:101A4800F324D96E030EF420DA6E120001016B6FD5
:101A58006C6BD8906B376C3769516B276A516C2364
:101A6800840E6B25D96E030E6C21DA6E1200020DFE
:101A7800840EF324E16E030EF420E26EDECFE6FF5F
:101A8800DDCFE5FF120066C1D9FF67C1DAFF12009A
:101A9800F32A000EF422000CF326000EF422000CA8
:101AA80069190301D06F1200C75101016425D96E6D
:101AB800000E6521DA6E1200CC51D926CD51DA22FA
:101AC800120010EE02F0CC51E126CD51E2221200B4
:101AD800440EC925D96EDA6A020EDA221200650EA2
:101AE800CA25D96EDA6A020EDA221200FC51D9260A
:101AF800FD51DA221200FE0E0101696F6A690301C5
:101B0800FE0C01018E510301CB191200DECFCCF37C
:101B1800DDCFCDF312000301D05101016919120084
:101B2800BBEC41F00201836B4EDB700E010193DBCD
:101B3800A2EC36F051DBA3C23FF2A4C240F2A5C228
:101B480041F2A6C242F202019F6B9F51040D6F0E33
:101B5800276F020E86DB9F51020D1BDB9F2B040EA5
:101B68009F65F3D7A06BA051040D9B0E276F020E43
:101B780078DBA051020D0A0E41DB0BDBA02BA05134
:101B8800F2E0A16BA151040D470E276F020E69DB2D
:101B9800A151020D0C0E32DBFCDAA12B090EA16556
:101BA800F1D7A90E01014D6F020E4E6FE9EC32F02C
:101BB800020120EE01F0B151D926B251DA22D4DA6D
:101BC8000A0E010130EC18F061EC3AF04D51DF6E6D
:101BD8000CDB0A0EACDAA2EC36F0FEDA020120EEDB
:101BE80001F0AF51D926B051DA22BEDA060E010152
:101BF80030EC18F061EC3AF04D51DF6EF6DA060E73
:101C080096DAA2EC36F0E8DAAFDA180E30EC18F013
:101C180061EC3AF04DC1A3F24EC1A4F24FC1A5F256
:101C280050C1A6F2020120EE01F0AB51D926AC5109
:101C3800DA229ADA0A0E010130EC18F061EC3AF077
:101C48004D51E0DAA951D926AA51DA22CEDA0A0E84
:101C58002AEC18F0A2EC36F04D51D4DAB351D9265B
:101C6800B451DA223FC24DF140C24EF141C24FF1A8
:101C780042C250F1A00E0101516F050E526F536B15
:101C8800546BA2EC36F04D29BDDAC751D926C8519C
:101C9800F4DAB25172EC46F0B5DAC551D926C6511C
:101CA800F7DAB2510CEC45F0DF6E020120EE02F0DB
:101CB800C351D926C451DA22300EDF6EC3C2D9FF10
:101CC800C4C2DAFFDF8220EE02F0C151D926C25128
:101CD800DA22320EDF6EC1C2D9FFC2C2DAFFDF825A
:101CE80020EE01F0BD51D926BE51C7DAB15172ECD0
:101CF80046F088DABB51D926BC51CADAB1510CEC8E
:101D080045F080DAB751D926B851B7DA0201FF5148
:101D180072EC46F077DAB551D926B651B9DA020134
:101D2800FF510CEC45F0DF6E090E0201856FA86BC0
:101D3800A851F5D9B5C2DEFFB6C2DDFFE6D9B7C2F4
:101D4800DEFFB8C2DDFFE1D9BBC2DEFFBCC2DDFFEA
:101D5800DCD9BDC2DEFFBEC2DDFFD7D9C5C2DEFFFA
:101D6800C6C2DDFFD2D9C7C2DEFFC8C2DDFFCDD9EA
:101D7800A9C2DEFFAAC2DDFFC8D9ABC2DEFFACC272
:101D8800DDFFC3D9AFC2DEFFB0C2DDFFBED9B1C22D
:101D9800DEFFB2C2DDFFA82B060EA26F8469020126
:101DA800A251BDD9DECF27F2DDCF28F227C2D9FF55
:101DB80028C2DAFFDF8031DA10EE01F0BD51E126EA
:101DC800BE51E222E750276F10EE01F0BB51E12629
:101DD800BC517ADA27250101616F020110EE01F08A
:101DE800B751E126B851E222E750286F10EE01F012
:101DF800B551E126B65168DA28250101626F020162
:101E080010EE01F0C751E126C851E222E750296FD0
:101E180010EE01F0C551E126C65156DA2925CDEC60
:101E28003BF0DF6EA90E606F020E616F46EC29F081
:101E38005ADA1FEC46F00201846F842914E0A2519B
:101E48006ED910EE01F01EEC0DF084C2E7FFDFD969
:101E580077EC45F002018551A21902E1A26B01D08D
:101E6800A22B010E836F280E01018E190DE18E6BD6
:101E7800A90E22DA77EC45F002018551A21902E198
:101E8800A26B8DD7A22B8BD72C0E8E190AE18E6BE5
:101E98000201C95104E0C90502E0C96B80D7C92B0A
:101EA8007ED7290E8E190DE18E6BA90E05DA77EC17
:101EB80045F00201A25103E185C2A2F270D7A20740
:101EC8006ED72A0E8E1901E019D18E6B0201A76B0D
:101ED800835101E1FED057D92FD9B9D933D9A76F8A
:101EE8000C0EA76505D093D977EC45F0020E58D0B3
:101EF800A7C286F225EE5AF012EE33F00B0EDBCFB6
:101F0800E3FFE806FCE239D917D99DD91BD9A76F99
:101F1800A7C227F2030E271702E11D0E346F84D9DA
:101F28000BD9CED90FD9A76F13D9D96E020E2A2192
:101F3800DA6EA751DE5C1BE220EE01F0C1D9A8D908
:101F4800020106D9CAD90CEC45F05CD98951D926C9
:101F58008A5193D90201FCD8C0D972EC46F0DF6EE1
:101F6800A90EAAD977EC45F00201A26BB2D07FD9AD
:101F7800E3D893D9E7D8A76F170EA76505D047D937
:101F880077EC45F0070E0CD07DD9D6D891D9DAD8A0
:101F9800A76F3B0EA76507D03AD977EC45F0090E35
:101FA8000201A26F96D0A76B2769286936D9DF503E
:101FB800296F2A6B2751292728512A2329C24DF135
:101FC8002AC24EF10101000E4EBFFF0E4F6F506F37
:101FD8002CEC29F01DEC43F04DC12BF24EC12CF234
:101FE8004FC12DF250C12EF2020120EE01F055D959
:101FF80070D93DD9D9D855D91DEC43F04D510201BE
:102008002B252F6F01014E5102012C21306F010148
:102018004F5102012D21316F0101505102012E2132
:10202800326F20EE01F044D954D92CD9BDD83C0EDA
:102038003CEC29F01DEC43F04D5102012F25436F74
:1020480001014E5102013021446F01014F5102013B
:102058003121456F0101505102013221466F43C2BF
:102068004DF144C24EF145C24FF146C250F1640EE3
:1020780001013CEC29F01DEC43F0DCD80201D4D876
:102088005BD81ED95FD8FF6F7ED856D8E0D85AD80B
:102098000101B16F020171D84FD8D5D853D80101C9
:1020A800B26F93EC3CF00201C91903E0C951F3EC9B
:1020B80045F0E6C05BF1E7C05CF1E8C05DF1E9C05E
:1020C8005EF1FFC25FF1B1C160F1B2C161F1CEEC66
:1020D8002CF00201A75101E062D6835102E0BBEF68
:1020E80041F0010193EC3CF00201C91902E1BBEF98
:1020F80041F0C951F3EC45F0BBEF41F02B0E8E19BE
:1021080001E04DD68E6BBBEF41F0A82BA851020D14
:10211800870EF324D96E020EF420DA6E1200020D37
:10212800870EF324D96E020EF420DA6E1200516F76
:10213800526B536B546B1200DA22DF50276F20EE7C
:1021480001F01200DA22DF500A0DF35027251200A1
:10215800276928698651296F2A6B27512927285111
:102168002A23330E29251200A3C24DF1A4C24EF131
:10217800A5C24FF1A6C250F1120020EE01F0915114
:10218800D9269251120020EE01F08D51D9268E5198
:102198001200A90EF324D96E020EF420DA6E27C2BB
:1021A800DEFF28C2DDFF1200DA22DF50F326000E20
:1021B800F422F3CF4DF1F4CF4EF101014EBFFF0EE3
:1021C8004F6F506F1200E6C04DF1E7C04EF1E8C006
:1021D8004FF1E9C050F112004DC1A3F24EC1A4F273
:1021E8004FC1A5F250C1A6F21200A3C24DF1A4C27C
:1021F8004EF1A5C24FF1A6C250F11200F326000E0F
:10220800F422000CDF6E020120EE01F01200A90E8C
:102218000101536F020E546F120020EE01F0B3510A
:10222800D926B451DA22120020EE01F08951D926BC
:102238008A5112004DC1E6F04EC1E7F04FC1E8F0F7
:1022480050C1E9F012008F51D926905112008B51DC
:10225800D9268C511200516F170E526F536B546B65
:10226800170C286FF3502727F4502823120020EE6C
:1022780001F09551D92696511200DA220A0E010171
:102288004D6F0A0C20EE01F09951D9269A5112008F
:10229800DA220A0E01014D6F0A0C9351D926945186
:1022A8001200100E516F0E0E526F536B546B0E0CC2
:1022B8009751D92698511200536F020E546F12008D
:1022C8008751D92688511200E222E7500A0DF350AF
:1022D8001200DA22DF500A0D1200E16E020E2A21E6
:1022E800E26EE7501200090E01014D6F000C800EDE
:1022F8006C1907E16D0505E16AC132F26BC133F271
:1023080004D06CC132F26DC133F2020164DB2A0ED3
:1023180001015A6F020E5B6F860E5C6F020E5D6FD5
:1023280032C25EF133C25FF187EC3BF00201346BDD
:10233800862909E1872907E1882905E1892903E137
:102348004ADB010E346F86C24DF187C24EF188C256
:102358004FF189C250F14E0E0101516F020E526FBA
:10236800500E536F020E546F7F0E556F020E566F4C
:10237800800E576F020E586F99EC3DF0BBEC41F0A0
:10238800010E0201816F8C6B0A0E8C6501D02DD075
:102398008C51040D030E07DBDFDA8CC2DFFF8C5192
:1023A800040DF32A000EF422D7DADF6A8C51040DEB
:1023B800020EF9DAD1DA300EDF6E8C51040DCCDA68
:1023C800DF908C51040DC8DADF928C51040D530E46
:1023D800006F020E016FFADA8C51020D140EF3240D
:1023E800D96E020EECDA8C2BCFD73A0E5D6F5B8379
:1023F8002D0E696F67833A0E756F73838D6B8D51E0
:102408007ADA530EDE6E020E7EDA75DA570EDE6E5B
:10241800020E79DA70DA5F0EDE6E020E74DA6BDAAB
:10242800630EDE6E020E6FDA66DA6B0EDE6E020E79
:102438006ADA61DA6F0EDE6E020E65DA5CDA770E42
:10244800DE6E020E60DA57DA7B0EDE6E020EDD6E8D
:102458008D2B2B0E01018E1904E18E6BBBEC41F024
:10246800000C2A0E8E1901E01FD28E6B020150510A
:10247800006F5151016F026B036B0B0ED890003740
:10248800013702370337E82EF9D77FC204F2056B0C
:10249800066B076B160ED8900437053706370737D3
:1024A800E82EF9D780C208F2096B0A6B0B6B1D0E78
:1024B800D890083709370A370B37E82EF9D704516F
:1024C80008250C6F055109210D6F06510A210E6F61
:1024D80007510B210F6F00510C25106F01510D2171
:1024E800116F02510E21126F03510F21136F4E51BC
:1024F8001025866F4F511121876F000E1221886FAA
:10250800000E1321896F2A0E01015A6F020E5B6FAC
:10251800860E5C6F020E5D6F6AC15EF16BC15FF182
:102528001DEC42F0BBEC41F0010C50C28EF251C2DE
:102538008FF220DA5AEC44F04D5102017C6F03DA35
:1025480069EC43F0F6D9060E4F6F5AEC44F04D5142
:102558000201786F8EC24DF106DA69EC43F0E9D9D1
:102568000A0E4F6F5AEC44F04D510201706FEBD9CF
:1025780069EC43F04D5102016C6F4EC28EF24FC2AE
:102588008FF2F8D95AEC44F04D510201646FDBD94F
:1025980069EC43F0CED9060E4F6F5AEC44F04D511A
:1025A8000201606F8EC24DF1DED969EC43F0C1D9EA
:1025B8000A0E4F6F5AEC44F04D510201586FC3D9BF
:1025C80069EC43F04D510201546F826B070E82652E
:1025D80001D010D082518FD910EE02F01EEC0DF010
:1025E800825189D90DEC2AF023EC41F0E76E020103
:1025F800822BECD7CED916EC3EF02D0E8E1904E0C6
:102608000201340501E059D101018E6B0201346BDE
:102618008B6BCDD9C3EC45F002018B516CD9DECF61
:1026280000F2DDCF01F200C2D9FF01C2DAFFDF807C
:10263800836B070E836501D010D083515CD910EEEF
:1026480002F01EEC0DF0835156D90DEC2AF023EC64
:1026580041F0E76E0201832BECD79BD916EC3EF0D4
:102668002B0E8E1904E18E6BBBEC41F026D12A0E9D
:102678008E1901E0A1D08E6B010E0201526F4D6BD5
:1026880064D04D51040DF3CF85F2855134D910EE45
:1026980001F01EEC0DF0E750356F855174D9020E2C
:1026A8003FD935D9366F85516ED9040E39D92FD90E
:1026B800376F855168D9060E33D929D9386F355106
:1026C8000A0D36518DD9F4BE08D0F45003E1180E26
:1026D800F35C03E385C28BF20ED037510A0D3851F3
:1026E8007FD9F4BE0AD0F45003E13C0EF35C05E355
:1026F8008551020F8B6F526B27D035C24DF1010106
:102708004E6B020E506F580E4F6FADEC46F0020143
:1027180036513C0DF3CF00F2F4CF01F237510A0DD8
:1027280055D901014D510201002701014E51020105
:10273800012338510027000E01234D51020D390E97
:10274800F324D96E020E3BD94D2B020E4D6102D0F7
:10275800525197E1525122E039513B5D3A513C596F
:102768001DE2846B030E846501D015D08451C3D853
:1027780010EE01F01EEC0DF0845105D9080ED0D8EA
:10278800DA6E00EE01F0DE50E926DD50EA22E7CFEE
:10279800EFFF842BE7D7040E8B6F526B52511EE06C
:1027A80006D9C3EC45F039C24EF23AC24FF23BC2E9
:1027B80050F23CC251F281D0280E8E1907E18E6B7F
:1027C800070E02018B610AD08B2B08D0290E8E19B7
:1027D80005E18E6B02018B5101E08B0777EC11F05C
:1027E8001FEC46F002018A6F8A2901E112D78B514A
:1027F80082D810EE01F01EEC0DF08AC2E7FF070E3A
:102808008B6107D78B2B05D7080E0101576F090E6F
:10281800586F02017F51D6EC43F0070E4D6F010E41
:102828001FEC46F002018A6F8A2906E08A5191EC72
:1028380045F002017F1B41D01E0E01018E1904E1F3
:102848008E6B02017F6B39D02D0E8E1936E18E6B9F
:102858007F0E02017F6F31D0040E0101576F080E01
:10286800586F02018051D6EC43F0030E4D6F010EF4
:102878001FEC46F002018A6F8A2906E08A5191EC22
:1028880045F00201801B19D01E0E01018E1904E1CA
:102898008E6B0201806B11D02D0E8E190EE18E6B9E
:1028A800070E0201806F09D002018151010A01E17E
:1028B8003CD6030AA9E0010ACFE0280E01018E19CF
:1028C8000BE18E6BBBEC41F0030E0201811902E1B2
:1028D800010E0DD0812BBDD5290E8E1901E0B9D579
:1028E8008E6BBBEC41F00201810503E1030E816FA1
:1028F800B0D58107AED5020D3D0EF324D96E020E78
:10290800F420DA6E1200DD6E8D2B8D511200DA6E16
:1029180010EE01F0DE50E126DD50E222E750120011
:102928000027000E01233D0E0025D96E020E01215D
:1029380012004DC18EF24EC18FF28EC24DF18FC280
:102948004EF1506B12008EC24DF18FC24EF1010153
:10295800506B0A0E4F6F0A0C530EF324D96E020EF9
:10296800F420DA6E12008FC24EF10101506B060E90
:102978004F6F060C8EC24DF18FC24EF10101506BA4
:102988000A0E4F6F0A0C006F016BD89000370137A1
:102998001200140E0101576F020E586F0B0E596F7B
:1029A800050E5A6F050CF326000EF422000C3D0E9E
:1029B80001014D6F020E4E6F080E4F6F080CF42088
:1029C800DA6E00C2DEFF01C2DDFF1200F3500027FD
:1029D800F45001231200866B876B886B896B120099
:1029E800F326000EF422000C83A903D08399BBECD4
:1029F80041F0200E8E191AE1800EAF1904E1B005DE
:102A080002E182A113D08E6BBBEC41F082B104D0FD
:102A18000201A36BA32B02D00201A36B0101825117
:102A28000201A319FE0BA3190101826F2D0E8E1945
:102A38000EE1800EAF1902E1B00509E082A107D0CE
:102A48008E6BAFC1A1F2B0C1A2F270EC39F082B3C3
:102A580011D013EC23F0900E6A6F010E6B6F35ECFA
:102A68002AF02EEC23F0010182A103D08291BBEC65
:102A780041F08283800EAF1902E1B00502E082B115
:102A88004DD119DB5D512AE04CC04CF34DC04DF3DC
:102A98004EC04EF34FC04FF3010E586F5D51010BFE
:102AA8003E6FD8905D333E0509E14DC34CF34EC3EC
:102AB8004DF3585123EC41F003014E6F582B030E90
:102AC8005865ECD74C0E0101576F030E586F596BC0
:102AD8000D0E5A6F010E5B6FC2EC39F025EE7CF0DB
:102AE80013EE1EF0080EDBCFE3FFE806FCE2E7EC8E
:102AF80010F0640EABDAA2EC36F076DA0A0EACDA35
:102B080061EC3AF04D5123EC41F00301256F86DA70
:102B18000A0E9CDAA2EC36F067DA060E9DDA61EC52
:102B28003AF04D5123EC41F00301246F77DA060E99
:102B38008DDAA2EC36F058DA0A0E8EDA61EC3AF049
:102B48004D5123EC41F00301226F68DA0A0E7EDA58
:102B5800A2EC36F049DA060E7FDA61EC3AF04D5114
:102B680023EC41F00301216F59DA060E6FDAA2EC6B
:102B780036F04DC162F34EC163F34FC164F350C1E7
:102B880065F34CDA180E9BEC10F0A2EC36F04D29E8
:102B980003013F6F3ADA180E01015EDA61EC3AF090
:102BA8004DC162F34EC163F34FC164F350C165F385
:102BB8002CDA0A0E51DA61EC3AF04D5123EC41F06F
:102BC80003011F6F2BDA0A0E41DAA2EC36F04D51E1
:102BD80023EC41F003011E6F01018F052AE17A51B0
:102BE8000001E65D0301386F01017B510001E759DF
:102BF8000301396F01017C510001E85903013A6F63
:102C080001017D510001E95903013B6F3BBF11D020
:102C18003B513A11391103E1C80E385D0AE3E6C0A9
:102C28007AF1E7C07BF1E8C07CF1E9C07DF10101F0
:102C38008F6B010140DA01018F5116E1070E030184
:102C48005D1903E0436B050E02D0436B040E426F1F
:102C58001E0E0101576F030E586F596B42C35AF18C
:102C68005B6BC2EC39F033D08F0531E184A913D006
:102C78002DDA580E4F6FFF0E506F1AEC44F0010119
:102C8800FAD9060E616F75EC33F0F5D9040E616F51
:102C980075EC33F007D01ADA460E4F6FFF0E506FFF
:102CA8001AEC44F0070E03015D1903E0456B050EAD
:102CB80002D0456B040E446F080E0101576F030ED6
:102CC800586F596B44C35AF15B6BC2EC39F0070E6D
:102CD80003015D1903E0476B020E02D0476B010E3A
:102CE800466F3F51D8EC3DF02CEC2AF0596B46C3A7
:102CF8005AF15B6BC2EC39F0010182AF0FD0ADC164
:102D08003CF3AEC13DF3080E03013C6F3C0E0101DC
:102D1800576F030E41EC1DF0C2EC39F0010182B986
:102D280082B104D0C50E576FFD0E5AD1800EAF196F
:102D380003E1B00501E14CD125EE24F013EE27F0B4
:102D4800100EDBCFE3FFE806FCE2070E0301276F56
:102D5800010E4A6F010182A104D003014A6BF10EF2
:102D68002C6F0301536B546B556B566B000E0101AE
:102D78005A6F030E5B6F530E5C6F030E5D6FAFC12E
:102D88005EF1B0C15FF187EC3BF053C34DF154C322
:102D98004EF155C34FF156C350F1480E516F030E13
:102DA800526F5E0E536F030E546F4B0E556F030E2A
:102DB800566F570E576F030E586F99EC3DF090C140
:102DC8005BF191C15CF192C15DF193C15EF1600E5E
:102DD8005F6F030E606F520E616F030E626F87ECB8
:102DE80040F064D95FD95AEC44F04D5123EC41F0DE
:102DF8000301326F3BD935D969EC43F062D956D912
:102E0800506B060E4F6F5AEC44F04D5123EC41F0D5
:102E18000301316F2BD90101506B060E4F6F69EC1E
:102E280043F04FD93A0E0301306F40D901013AD926
:102E38005AEC44F04D5123EC41F003012F6F16D9A1
:102E480010D969EC43F04D5123EC41F003012E6F8A
:102E5800010E596F030E596501D012D05751010B5D
:102E6800406FD8905733400509E135C334F336C372
:102E780035F3595123EC41F00301366F592BEAD74A
:102E88005251D8EC3DF04DC150F34EC151F350C3EF
:102E9800F6FF51C3F7FF0800F5CF29F3010E030130
:102EA80050250201A36F000E030151210201A46FF6
:102EB800A3C2F6FFA4C2F7FF0800F5CF2AF3270E36
:102EC8000101576F030E586F4AC359F15A6B5B6B78
:102ED800C2EC39F0010182A1120025EE35F013EEA3
:102EE80011F00C0EDBCFE3FFE806FCE203015C6B9C
:102EF8000C0E5B6F5B079BD80A0E4F6F5AEC44F0C1
:102F08004D5123EC41F0C7D80A0E4F6F69EC43F0DE
:102F1800BBD88DD8060E4F6F5AEC44F04D5123ECB8
:102F280041F0B9D8060E4F6F69EC43F0ADD8D8A080
:102F38005C075B077CD80A0E4F6F5AEC44F04D5182
:102F480023EC41F0DF6E03015B07D8A05C07110E8C
:102F58005B25D96E030E5C21DA6E5EC34DF15FC34B
:102F68004EF17FD869EC43F04D5123EC41F0DF6E10
:102F7800AFC1A3F2B0C1A4F20201D890A433A33325
:102F8800D890A433A333D890A433A333A32903013F
:102F98005A6F0A0E01014D6F03015A5172EC46F047
:102FA80023EC41F00301416F12C313F341C312F341
:102FB8000A0E01014D6F03015A510CEC45F0030153
:102FC8005A6F5A51E6E1110E0101576F030E08D0EE
:102FD80082A103D0BBEC41F08291A30E576FFD0E86
:102FE80028EC1DF0C2EF39F04DC162F34EC163F316
:102FF8004FC164F350C165F362C34DF163C34EF131
:1030080064C34FF165C350F1120062C34DF163C34D
:103018004EF164C34FF165C350F1120062C34DF124
:1030280063C34EF164C34FF165C350F11200D8A0D9
:103038005C07110E5B25D96E030E5C21DA6E5EC348
:103048004DF15FC34EF10101506B12000101516F48
:10305800526B536B546B1200516F526B536B546B22
:1030680012000101506B0A0E4F6F0A0C60C34DF13C
:1030780061C34EF112005B6B5C6B5D6B5E6B080E9F
:103088005F6F030E606F12004DC15EF34EC15FF3B8
:1030980003015B071200DF6E5EC34DF15FC34EF1A3
:1030A800506B1200506B0A0E4F6F0A0C60C34DF143
:1030B80061C34EF112008C510201FE1103015D6FD4
:1030C80012004DC160F34EC161F31200080E4D6F3E
:1030D800030E4E6F1200010183A71200839784A389
:1030E800120084976CDA64DAEFEC2FF0000903E041
:1030F800010184871200BB0E896FFF0E59DAEFECCD
:103108002FF0000901E01200CF0E896FFB0E8A6FC5
:1031180059EC48F087C08BF088C08CF07CDAEFEC73
:103128002FF0000901E1E3D04FDA090E836FBEECFE
:1031380048F0BC6F49DA080E836FBEEC48F07EDABF
:10314800B26F6DDA0C0E836FBEEC48F0BC6F3CDAE0
:103158000B0E836FBEEC48F071DAB16F60DA0F0EB8
:10316800836FBEEC48F0BC6F2FDA0E0E836FBEEC97
:1031780048F00A0DF350BC250201FF6F180E00013C
:10318800836F22DABEEC48F0BC6F170E836F1CDA2F
:10319800BEEC48F00A0DBC51F324BD6F000EF420BC
:1031A800BE6FBF6BBEBFBF07BF51C06FC169C269E9
:1031B800FFC295F0B1C194F00101B25111EC3CF09D
:1031C800C36FC46BC151C327C251C423C3C09AF093
:1031D800C4C09BF0000E9BBFFF0E9C6F9D6F800EBE
:1031E8009E6F510E9F6F010EA06FA16B43EC43F0D1
:1031F8009AC0C5F09BC0C6F09CC0C7F09DC0C8F07F
:10320800110E836FE1D9BEEC48F00A0D120E836FE0
:10321800DBD9BEEC48F0DDD9100E9E6F0E0E9F6F05
:10322800A06BA16B43EC43F09A51C525C96F9B5124
:10323800C621CA6F9C51C721CB6F9D51C821CC6F45
:10324800140E836FC1D9BEEC48F00A0D150E836FBA
:10325800BBD9BEEC48F0BDD93C0EEBD943EC43F0EA
:103268009A51C925CD6F9B51CA21CE6F9C51CB2154
:10327800CF6F9D51CC21D06FBD51CD250101376F46
:103288000001BE51CE210101386F0001BF51CF218D
:103298000101396F0001C051D02101013A6F37C1D6
:1032A8009AF038C19BF039C19CF03AC19DF0640E88
:1032B8000001BFD943EC43F09AC03BF19BC03CF1FD
:1032C8009CC03DF19DC03EF13BC18EF03CC18FF0EA
:1032D8003DC190F03EC191F070EC38F03BC1E6F092
:1032E8003CC1E7F03DC1E8F03EC1E9F01200AB0E89
:1032F800896FFB0E8A6F4AEC48F087C08BF088C054
:103308008CF089D9EFEC2FF0000901E197D02C0E51
:10331800806F010E816F836B0B0E826F846B32ECB2
:1033280047F00101416B090E416501D010D00B0E29
:103338004125D96EDA6A060EDA222C0E4125E16E95
:10334800E26A010EE222DFCFE7FF412BECD72C0E19
:103358000001916F010E926FBCEC37F091C03FF104
:1033680092C040F101013F51401132E1B10E00011C
:10337800806FFF0E816F826B9FEC47F00101839194
:10338800000E0001806F010E816F836B210E826F2A
:10339800846B32EC47F0000E806F010E816F550E82
:1033A800826FFD0E836FF5EC42F0000E0001806F16
:1033B800010E816F2C0E826F010E836FF5EC42F0C7
:1033C800000E0001806F010E816FC5EC31F02AD02C
:1033D800C40E0001806FFF0E28D99FEC47F0EFD88C
:1033E800E7D8EFEC2FF00009FAE00101838183832D
:1033F800EB0E0001806F050E816F110E01013F2554
:103408000001826F000E010140210001836F3AEC38
:1034180044F0210E0001806FFF0E07D99FEC47F0A2
:103428000101839B82B71200CFEC48F0010182852D
:10343800010E0001F66FF40EF56FF40C200E896F83
:10344800FC0E8A6F3BEC48F087C08BF088C08CF08C
:10345800E2D8EFEC2FF000096BE0E5C48DF1010133
:1034680083AB61D025EE71F011EE21F00A0EDBCFAF
:10347800E3FFE806FCE28DC129F1C3D832EC47F03E
:10348800210E806F010ED1D89FEC47F098D890D8C4
:10349800EFEC2FF00009FAE0340E01018D1903E179
:1034A8008C6B83891200360E8D1905E1020E8C177C
:1034B800010183891200310E8D1902E18C81F8D740
:1034C800320E8D1902E18C83F3D7330E8D1902E188
:1034D8008C85EED7300E8D1906E182898C6B85D8E4
:1034E800F0EC44F0E5D7350E8D1905E18299838912
:1034F8007CD8F0EF44F0230E8D19D8A412008485EF
:1035080083917FD832EC47F0B10E806FFF0E8DD8D3
:103518009FEC47F054D84CD8EFEC2FF00009FAE0B4
:103528000101839B12002A0E8D19D8B4838B1200D7
:103538000B0E896FFC0E3CD8EFEC2FF0000904E06D
:1035480001018391839B12002E0E896FFC0E30D8E7
:10355800EFEC2FF00009F4E1160E896FFC0E28D865
:10356800EFEC2FF00009ECE1FF0E896FFB0E20D87D
:10357800EFEC2FF00009E4E1280E896FFC0E18D853
:10358800EFEC2FF0000906E0F80E806FFE0E816F59
:10359800C5EF31F0ED0E896FFB0E0AD8EFEC2FF076
:1035A8000009D8B4120001018391839B829F120005
:1035B8008A6F8B6B8C6B8E6B020E8D6F020C330EC9
:1035C8000001896FFC0E1200CD0E816F050E826F0F
:1035D8001200F326000EF422F3CF9AF0F4CF9BF0FA
:1035E8009BBFFF0E9C6F9D6F1200030E0001816F41
:1035F800FC0E806F0101000E82B9010E0001826F7E
:10360800120076C180F077C181F0010E0001836F4E
:10361800826B846B010C8E6B020E8D6F020CCD0ECB
:103628000001816F050E826F1200816F010E826F9B
:10363800010C9E6F9F6BA06BA16B12000A0DF350DB
:10364800BC2501011200BBEC41F039DA406F386B40
:103658000B01385116E1440E01015A6F0B0E5B6FD6
:1036680040CB5CF141CB5DF153EC40F00B01546B66
:10367800626B010E386F640504E0446B546B556B44
:10368800626B7CC421FB7DC422FB7EC423FB800EBD
:10369800402501014D6FFE0E0B01412101014E6FC6
:1036A800506B210E4F6F69EC43F04D2B000E4E23EB
:1036B8004DC15BF14EC15CF15D6B5E6B210E5F6FBE
:1036C8000B0EEDEC2BF075EC33F0210E576F0B0E53
:1036D800D9D9C2EC39F00B0164050FE1440E0101A0
:1036E800576F0B0ECAD9C2EC39F0550E0101576F4E
:1036F8000B0EAAD9C2EC39F00ED0B40E0101576FE7
:10370800FD0EBBD9C2EC39F0A60E0101576FFD0EB4
:103718009BD9C2EC39F02D0E01018E1901E01DD1A3
:103728008E6B2BEE24F00B0EDE6AE806FDE20B0131
:10373800436B010183A107D00B0176D9600EDE6EC1
:10374800FE0EDD6E432B0B016FD93D0EDE6EFF0EB4
:10375800DD6E432B69D9520EDE6EFE0EDD6E432BF5
:1037680063D9610EDE6EFF0EDD6E432B5DD9CB0E85
:10377800DE6EFE0EDD6E432B010E436F240E01013B
:10378800606F0B0E616F626B91EC30F00B013D6F57
:10379800010183B103D00B01306B08D00B01432B1F
:1037A8003D294319010ED8A4000E306F316B3051FA
:1037B800311103E07FEC3FF04BD7432B3D294319F0
:1037C8006BE1BBEC41F07FC43EFB80C43FFB0B01C7
:1037D800640503E0326B336B04D0440E326F0B0E7A
:1037E800336F32CB64F133CB65F15DD9100E686F5E
:1037F80029EC09F03AD901E12BD7426B0AD01DD93F
:10380800440E4225E16EE26A0B0EE222DFCFE7FFAB
:10381800422B13D9DF50F3E1440E4225D96EDA6A00
:103828000B0EDA22DF6A3E51F30B08093E6F64057E
:1038380003E0346B356B04D0550E346F0B0E356FC7
:1038480034CB64F135CB65F12ED90D0E686F29ECB8
:1038580009F00BD901E1FBD6426B0AD0EED8FAD8B1
:10386800E16E0B0E7021E26EDFCFE7FF0B01422BFA
:10387800E4D8DF50F3E1EED8D96E0B0E7021DA6E82
:10388800DF6A010E0B01646F440E01015A6F0B0EC3
:1038980010D91FEC40F0DCD6432B3D29431920E119
:1038A80081C439FB82C43AFB0101646B656B390E34
:1038B800666F0B0E676F0D0E686F29EC09F064C117
:1038C80036FB65C137FB0B013651371101E1C0D614
:1038D80036CB50F137CB51F1F8EC3AF08381B8D6BA
:1038E800432B3D29431918E1640501E0B1D6170EB1
:1038F8000101606FFE0E616FD3EC44F0000901E135
:10390800A7D6000E5A6F0B0ED4D81FEC40F00B014F
:10391800386BBBEC41F09CD6432B3D29431901E0A1
:1039280097D6AF0E0101606FFC0E616FD3EC44F0C7
:10393800000901E18DD6B2D830EC31F0010E636F89
:10394800800E626F030E656F8F0E646F666B5AECA4
:103958003DF09FD830EC31F07BD61F0E8E1925E153
:103968008E6B83A108D0C40E4D6FFF0E4E6F4F6B48
:10397800C0EC47F06DD60B01640501E069D6D60EA0
:103988000101606FFD0E616FD3EC44F0000901E1A5
:103998005FD60B01640501E05BD6550E0101506F3F
:1039A8000B0E516FF8EC3AF099D7210E8E190BE1F6
:1039B8008E6BB10E4D6FFF0E4E6F4F6BC0EC47F024
:1039C8008391839B45D6280E8E190EE18E6B6F0E60
:1039D8000B01405D030E415905E2210E4027000E00
:1039E800412395D76CD812D0290E8E1911E18E6B10
:1039F800810E0B01405D010E415905E3210E405F28
:103A0800000E415B84D7030E416F6F0E406F7FD766
:103A18002B0E8E1903E18E6BBBEF41F01E0E8E1933
:103A280001E016D68E6BDED74351020D240EF32427
:103A3800D96E0B0EF420DA6E120042513B25D96E76
:103A4800000E3C21DA6E1200586F010E596F5A6B46
:103A58005B6B010C425101016F6F706B110E6F2788
:103A6800000E7023440E6F25120064C13BFB65C134
:103A78003CFB0B013B513C111200586F596B5A6BC0
:103A88005B6B1200586F010E596F0E0E5A6F5B6B0D
:103A98000E0C710E4D6FFF0E4E6F12007D0E4D6FA6
:103AA800FD0E4E6F12003E0E0101666F0B0E676F22
:103AB80012005B6F40CB5CF141CB5DF11200010E4F
:103AC8000B01416F800C290E01014D6F020E4E6FE4
:103AD800506B490E4F6F516BD3EC46F00BDAA40EC6
:103AE800526FFE0E536FCDEC42F0010182B92ED019
:103AF80001DA870E526FFF0E536FCDEC42F024EEC1
:103B080050F012EE8DF0040EDBCFE3FFE806FCE286
:103B1800F6D9BC6FD890BB33FE51BB1507E0C0D9AE
:103B2800B4D9D3D9BC5123EC41F004D0B9D9ADD91B
:103B3800CCD92D0EDF6E0201BC07BC51EBE1B4D924
:103B48008D0E526F020E536FCDEC42F0ADD9800E40
:103B5800526FFF0E536FCDEC42F024EE55F012EE8B
:103B680092F0040EDBCFE3FFE806FCE2C8D9BD6F94
:103B7800D890BB3301018C510201BB1507E08CD9E9
:103B880084D9AAD9BD5123EC41F004D085D97DD977
:103B9800A3D92D0EDF6E0201BD07BD51E9E184D91D
:103BA800920E526F020E536FCDEC42F0010182A9C2
:103BB80007D0A0D9910E526FFD0E536FCDEC42F095
:103BC800010182B956D1E6C0B7F2E7C0B8F2E8C041
:103BD800B9F2E9C0BAF2B70EB1D935EC2AF093D9E7
:103BE800800EB1190CE1B2050AE1B76BB86BB96B7D
:103BF800BA6BB70E0101A2D935EC2AF084D9800E30
:103C0800B1190AE1B20508E14FD9410E526FFD0E14
:103C1800536FCDEC42F02DD147D9970E526FFE0E5F
:103C2800536FCDEC42F026EE97F012EE7AF0120EBA
:103C3800DBCFE3FFE806FCE27A0E01014D6F020ECE
:103C48004E6F506B130E4F6F516BD3EC46F0020161
:103C5800AD6BAE6BAF6BB06B720E01015A6F020E9B
:103C68005B6FAD0E5C6F020E5D6FB1C25EF1B2C2EA
:103C78005FF187EC3BF0ADC24DF1AEC24EF1AFC281
:103C88004FF1B0C250F1A80E516F020E526FB30E31
:103C9800536F020E546FAA0E556F020E566FAB0E7D
:103CA800576F020E586F99EC3DF0B7C25BF1B8C27E
:103CB8005CF1B9C25DF1BAC25EF1B50E5F6F020E7A
:103CC800606FAC0E616F020E626F87EC40F054C0FB
:103CD8009CF255C09DF256C09EF2B5C24DF1B6C2D7
:103CE8004EF128D95AEC44F0E9D89C0E5F6F020EC9
:103CF80019D975EC33F0B5C24DF1B6C24EF116D9EB
:103D080069EC43F04DC1B5F24EC1B6F257C09FF20F
:103D180058C0A0F259C0A1F2B5C25BF1B6C25CF1BD
:103D28005D6B5E6B9F0E5F6F020EFCD875EC33F017
:103D38005AC0A2F25BC0A3F25CC0A4F2B3C24DF1B8
:103D4800B4C24EF1F7D85AEC44F0B8D8A20E5F6F5F
:103D5800020EE8D875EC33F0B3C24DF1B4C24EF19F
:103D6800E5D869EC43F04DC1B3F24EC1B4F25DC081
:103D7800A5F25EC0A6F25FC0A7F2B3C25BF1B4C2FF
:103D88005CF15D6B5E6BA50E5F6F020ECBD875ECB8
:103D980033F07A0E506F020E516F0201AC51D8EC1D
:103DA8003DF04DC152F14EC153F1CDEC42F067D810
:103DB800B4D8CDEC42F063D89F0E526F020E536F09
:103DC800CDEC42F05CD8A4D8CDEC42F058D89C0E8B
:103DD800526F020E536FCDEC42F051D8E80E526F7D
:103DE800FF0E536FCDEC42F04AD8A50E526F020E6B
:103DF800536FCDEC42F043D88BD8CDEC42F03FD88E
:103E0800A20E526F020E536FCDEC42F038D885D80F
:103E1800CDEC42F024EE5AF012EE97F0040EDBCF10
:103E2800E3FFE806FCE26BD8BE6FBE5114E0D89001
:103E3800BB33AB51BB1507E03DD827D854D8BE518A
:103E480023EC41F004D036D820D84DD82D0EDF6EA3
:103E58000201BE07EAD713D8970E526F020E536FAE
:103E6800CDEC42F021D87A0E526F020E536FCDEC92
:103E780042F0290E0101706F020E716F12007A0E66
:103E88000101506F020E516F1200276F286B2551E8
:103E9800272726512823120025692669BD511200BB
:103EA80025692669BC511200290E0101506F020EC6
:103EB800516F120025692669BE5112004DC15BF190
:103EC8004EC15CF15D6B5E6B12008D0E2725D96EBD
:103ED800020E2821DA6E1200920E2725D96E020EE4
:103EE8002821DA6E1200970E2725D96E020E282196
:103EF800DA6E1200290E506F020E516F1200080E72
:103F08000201BB6F030C6AC1B1F26BC1B2F21200BD
:103F1800B90E526FFF0E536F12006F0E526FFF0EE5
:103F2800536F1200606F020E616F020C506B3C0EF3
:103F38004F6F3C0C506B3C0E4F6F3C0C6A6F020E7F
:103F48006B6F12000001806F8051070AD8B4ED0C26
:103F58000F0AD8B4DD0C280AD8B4200C010AD8B44A
:103F6800210C030AD8B4220C010AD8B4230C070A7E
:103F7800D8B4240C010AD8B4250C030AD8B4260CEA
:103F88000E0AD8B4280C010AD8B4290C030AD8B4EC
:103F98002A0C010AD8B42B0C070AD8B42C0C010A35
:103FA800D8B42D0C030AD8B42E0C010AD8B42F0C9F
:103FB8001F0AD8B4300C010AD8B4310C030AD8B49B
:103FC800320C010AD8B4330C070AD8B4340C010AED
:103FD800D8B4350C030AD8B4360C010AD8B4370C57
:103FE8000F0AD8B4380C010AD8B4390C030AD8B46B
:103FF8003A0C010AD8B43B0C070AD8B43C0C010AA5
:10400800D8B43D0C030AD8B43E0C010AD8B43F0C0E
:104018007F0AD8B4400C010AD8B4410C030AD8B4BA
:10402800420C010AD8B4430C070AD8B4440C010A5C
:10403800D8B4450C030AD8B4460C010AD8B4470CC6
:104048000F0AD8B4480C010AD8B4490C030AD8B4EA
:104058004A0C010AD8B44B0C070AD8B44C0C010A14
:10406800D8B44D0C030AD8B44E0C010AD8B44F0C7E
:104078001F0AD8B4500C010AD8B4510C030AD8B49A
:10408800520C010AD8B4530C070AD8B4540C010ACC
:10409800D8B4550C030AD8B4560C010AD8B4570C36
:1040A8000F0AD8B4580C010AD8B4590C030AD8B46A
:1040B8005A0C010AD8B45B0C070AD8B42F0C010AB1
:1040C800D8B45D0C030AD8B45E0C010AD8B45F0CEE
:1040D8003F0AD8B4600C010AD8B4610C030AD8B4FA
:1040E800620C010AD8B4630C070AD8B4640C010A3C
:1040F800D8B4650C030AD8B4660C010AD8B4670CA6
:104108000F0AD8B4680C010AD8B4690C030AD8B4E9
:104118006A0C010AD8B46B0C070AD8B46C0C010AF3
:10412800D8B46D0C030AD8B46E0C010AD8B46F0C5D
:104138001F0AD8B4700C010AD8B4710C030AD8B499
:10414800720C010AD8B4730C070AD8B4740C010AAB
:10415800D8B4750C030AD8B4760C010AD8B4770C15
:104168000F0AD8B4780C010AD8B4790C030AD8B469
:104178007A0C040AD8B4E90CEC0AD8B4270C050A5E
:10418800D8B42D0C3F0AD8B4A20C030AD8B4C80C72
:104198001B0AD8B4EF0C080AD8B4B50C010AD8B475
:1041A800CC0C020AD8B4C90C7B0AD8B4410C010A59
:1041B800D8B4A00C030AD8B4420C010AD8B4A10C94
:1041C800070AD8B4E00C010AD8B4450C030AD8B4DD
:1041D800A30C010AD8B4A40C0F0AD8B4A50C010A80
:1041E800D8B4A60C030AD8B44B0C010AD8B4A70C4F
:1041F800070AD8B44D0C010AD8B4480C030AD8B43D
:104208004F0C010AD8B4A80C1F0AD8B4500C010AE4
:10421800D8B4430C030AD8B4540C010AD8B4A90C76
:10422800070AD8B4AA0C010AD8B4580C030AD8B49F
:10423800E10C010AD8B4AB0C0F0AD8B4AC0C010AD3
:10424800D8B4E20C030AD8B4AD0C010AD8B4AE0C49
:10425800070AD8B4C40C010AD8B4AF0C030AD8B4FE
:10426800B00C010AD8B4B10C3F0AD8B4610C010AE9
:10427800D8B4B20C030AD8B4B30C010AD8B4B40C3D
:10428800070AD8B4E30C010AD8B4650C030AD8B4F9
:10429800B60C010AD8B4B70C0F0AD8B4B80C010A86
:1042A800D8B4B90C030AD8B4BA0C010AD8B4BB0CF8
:1042B800070AD8B4BC0C010AD8B4BD0C030AD8B498
:1042C8006F0C010AD8B4BE0C1F0AD8B4700C010ACE
:1042D800D8B4630C030AD8B4BF0C010AD8B4790C5B
:1042E800070AD8B4E40C010AD8B4780C030AD8B485
:1042F800E50C010AD8B4C00C0F0AD8B4C10C010AE5
:10430800D8B4E60C030AD8B4C20C010AD8B4C30C5A
:10431800070AD8B4C40C010AD8B4C50C030AD8B427
:10432800C60C010AD8B4C70C3F0C01018483030EE4
:104338004E6F4D69E6EC46F00301FB6FFB3BFB4714
:10434800FB47010184510301FB19BF0BFB19010154
:10435800846F84AD1CD00401CB6B010EA2EC2DF050
:10436800000903E00101848112D02B0E01018E198E
:1043780002E18E6B0CD0C7EC48F0626B320E616FB5
:1043880098EC44F00401CB2B040ECB65E6D747D953
:104398006AD935EC2AF05ED9ACEC48F052D9010163
:1043A80084AD46D0C3C451F1C4C452F1C5C453F15D
:1043B800C6C454F1B80E556F0B0E51D9CBEC3EF074
:1043C800000936E0ACEC48F03CD927EC27F0D3ECF8
:1043D80046F066EC2EF062EC2EF0C0EC47F0ACEC48
:1043E80048F04DC1C7F44EC1C8F44FC1C9F450C11B
:1043F800CAF4330E01014AEC2EF046EC2FF0000906
:1044080005E1FFD8CBEC3EF00009F3E0FAD8CBEC9D
:104418003EF000090CE08391839B849509D9D3EC85
:1044280046F0C7EC48F0000EA2EC2DF001D0828FC8
:10443800010184A511D08495EB0E0201BF6F050E12
:10444800C06F67EC1DF070C1C1F271C1C2F23DECE2
:1044580023F0EED8D3EC46F082A707D00001F5513F
:10446800F61103E19AEC48F008D0010182B705D0B3
:104478008E5103E08E6BF0EC47F0010182A78FD7D5
:10448800F8EC14F02D0E01018E1922E182B120D032
:104498008E6B0401CC6B78C4BFF479C4C0F47AC4C1
:1044A800C1F47BC4C2F4BF0E0101606F040E616FDA
:1044B800CCC462F191EC30F00401CC6FCC0502E180
:1044C80016EC26F00401CC51EEE1BBEC41F067D7C5
:1044D800280E8E1909E18E6B010E0201A26F800E63
:1044E800A16F70EC39F05BD7290E8E1904E18E6B41
:1044F80027EC1BF054D72C0E8E1916E18E6B82A771
:104508004ED782B504D00301FB6BFB2B02D003010D
:10451800FB6BFB47FB47010182510301FB19FB0BB6
:10452800FB190101826F3BD71E0E8E190FE18E6BAE
:1045380082898C6B030E4E6FFC0E4D6F000E82B994
:10454800010E4F6FB0EC47F0010120D0250E8E19F7
:1045580005E182B103D08E6B010E0FD0260E8E19A5
:1045680005E182B103D08E6B020E07D0270E8E199B
:1045780006E182B104D08E6B040E8C1BE5D7220EA7
:104588008E1906E182B104D08E6B8C6B838907D7B4
:10459800230E8E1905E182B103D08E6B8299CAD79A
:1045A8001F0E8E1904E18E6B9AEC48F0F8D6210E96
:1045B8008E1904E18E6B00EC34F0F1D62A0E8E19B8
:1045C80004E18E6B010E8F6FEAD62B0E8E1908E070
:1045D800240E8E1901E0E3D682A902D082A1DFD68B
:1045E8002B0E8E1906E11BD882A103D08291BBEC59
:1045F80041F08E6B0EEC48F036D835EC2AF02AD80C
:10460800CED6C7C451F1C8C452F1C9C453F1CAC403
:1046180054F1320E556F566B576B586B000CE6C051
:1046280090F1E7C091F1E8C092F1E9C093F112006E
:10463800EB0E4D6F050E4E6F506B0E0E4F6F516B9C
:104648000E0C4DC1C3F44EC1C4F44FC1C5F450C1E2
:10465800C6F412006AC1AFF16BC1B0F11200566F17
:10466800576B586B000C900E01016A6F010E6B6F4F
:10467800120082AF1200650E4D6F0B0E4E6F020EC8
:104688005AD9D3EC46F04CD95AD9CDEC42F04DD991
:1046980009EC46F04DC1E9F24EC1EAF2BFC2E7F2B9
:1046A800C0C2E8F2E7C2D9FFE8C2DAFF2B0EDE1873
:1046B80003E10201E74BE82B2DD9A70E526FFF0E3D
:1046C800536FCDEC42F069C0D9F26AC0DAF26BC020
:1046D800DBF2E7C24DF1E8C24EF109EC46F04DC1FC
:1046E8005BF14EC15CF15D6B5E6BD90E5F6F020EC4
:1046F8002BD912EC3AF014D9D90E526F020E536F1F
:10470800CDEC42F007D9EA0E526FFF0E536FCDEC95
:1047180042F0BFC256F1C0C257F118EC38F056C18A
:10472800DFF257C1E0F2FCD8DFC252F1E0C253F128
:10473800CDEC42F0EFD803D9CDEC42F0EBD8ED0E3A
:10474800526FFF0E536FCDEC42F0C1C24DF1C2C2A1
:104758004EF109EC46F0D8904D350201E16F0101A8
:104768004E350201E26F6CC0DCF26DC0DDF26EC046
:10477800DEF2E1C25BF1E2C25CF101015D6B5E6BEE
:10478800DC0E5F6F020EE0D812EC3AF0C9D8DC0EEE
:10479800526F020E536FCDEC42F0C7D809EC46F0C9
:1047A800650E4D25656F0B0E4E21666FC1C267F110
:1047B800C2C268F1640E696F0D0E6A6F1BEC3DF0A2
:1047C800650E4D6F0B0E4E6F09EC46F00201E95174
:1047D80001014D5F0201EA5101014E5BD8904E3153
:1047E8000201C36F01014D310201E96FC3C2EAF250
:1047F80091D8F80E526FFF0E536FCDEC42F00201C4
:10480800D16BD26BD36BD46BEA5113E1640EE95DC3
:1048180010E2EA5106E10A0EE95D03E2E66B020ED8
:1048280002D0E66B030EE56FE5C2E3F2E6C2E4F2FE
:1048380003D0E46B040EE36FE9C25BF1EAC25CF1FA
:1048480001015D6B5E6BD10E5F6F020E606FE3C29C
:1048580061F175EC33F025EE42F012EEC5F00B0E67
:10486800DBCFE3FFE806FCE2C50E506F020E516F86
:10487800D10E526F020E536FCDEC42F001018493BA
:10488800ACEC48F04DC1D5F24EC1D6F24FC1D7F2CB
:1048980050C1D8F2C50E01014D6F020E62EC2EF028
:1048A800C0EC47F033D82BD846EC2FF0000911E1C3
:1048B800D5C251F1D6C252F1D7C253F1D8C254F180
:1048C800DC0E556F050E33EC23F0CBEC3EF00009FF
:1048D800E9E01CD814D846EC2FF0000908E0650E72
:1048E8004D6F0B0E62EC2EF0C0EC47F006D0570E61
:1048F8004D6FFC0E4E6F30EC31F084831200556F13
:10490800566B576B596B030E586F030CE40E546FBC
:10491800FF0E1200650E0101506F0B0E516F120051
:10492800650E506F0B0E516F1200650E01014D6F31
:104938000B0E4E6F1200506F4F6B516B1200A90E89
:10494800526FFF0E536F1200606F020E616F020C00
:1049580001014D6F02D04D51120001014D51410A24
:10496800D8B4610C030AD8B4620C010AD8B4630C39
:10497800070AD8B4640C010AD8B4650C030AD8B481
:10498800660C010AD8B4670C0F0AD8B4680C010A7F
:10499800D8B4690C030AD8B46A0C010AD8B46B0CF1
:1049A800070AD8B46C0C010AD8B46D0C030AD8B441
:1049B8006E0C010AD8B46F0C1F0AD8B4700C010A27
:1049C800D8B4710C030AD8B4720C010AD8B4730CA9
:1049D800070AD8B4740C010AD8B4750C030AD8B401
:1049E800760C010AD8B4770C0F0AD8B4780C010AEF
:1049F800D8B4790C030AD8B47A0C3B0AD8B4410C61
:104A0800030AD8B4420C010AD8B4430C070AD8B434
:104A1800440C010AD8B4450C030AD8B4460C010A60
:104A2800D8B4470C0F0AD8B4480C010AD8B4490CBA
:104A3800030AD8B44A0C010AD8B44B0C070AD8B4F4
:104A48004C0C010AD8B44D0C030AD8B44E0C010A18
:104A5800D8B44F0C1F0AD8B4500C010AD8B4510C62
:104A6800030AD8B4520C010AD8B4530C070AD8B4B4
:104A7800540C010AD8B4550C030AD8B4560C010AD0
:104A8800D8B4570C0F0AD8B4580C010AD8B4590C2A
:104A9800030AD8B45A0CD20AD8B4B80C100AD8B43D
:104AA800A80C780AD8B4E00C010AD8B4E10C030ABF
:104AB800D8B4E20C010AD8B4E30C070AD8B4E40C61
:104AC800010AD8B4E50C030AD8B4E60C010AD8B434
:104AD800E70C0F0AD8B4E80C010AD8B4E90C030AA9
:104AE800D8B4EA0C010AD8B4EB0C070AD8B4EC0C19
:104AF800010AD8B4ED0C030AD8B4EE0C010AD8B4F4
:104B0800EF0C1F0AD8B4F00C010AD8B4F10C030A50
:104B1800D8B4F20C010AD8B4F30C070AD8B4F40CD0
:104B2800010AD8B4F50C030AD8B4F60C010AD8B4B3
:104B3800F70C0F0AD8B4F80C010AD8B4F90C030A18
:104B4800D8B4FA0C010AD8B4FB0C070AD8B4FC0C88
:104B5800010AD8B4FD0C030AD8B4FE0C010AD8B473
:104B6800FF0C3F0AD8B4C00C010AD8B4C10C030A20
:104B7800D8B4C20C010AD8B4C30C070AD8B4C40C00
:104B8800010AD8B4C50C030AD8B4C60C010AD8B4B3
:104B9800C70C0F0AD8B4C80C010AD8B4C90C030A48
:104BA800D8B4CA0C010AD8B4CB0C070AD8B4CC0CB8
:104BB800010AD8B4CD0C030AD8B4CE0C010AD8B473
:104BC800CF0C1F0AD8B4D00C010AD8B4D10C030AF0
:104BD800D8B4D20C010AD8B4D30C070AD8B4D40C70
:104BE800010AD8B4D50C030AD8B4D60C010AD8B433
:104BF800D70C0F0AD8B4D80C010AD8B4D90C030AB8
:104C0800D8B4DA0C010AD8B4DB0C070AD8B4DC0C27
:104C1800010AD8B4DD0C030AD8B4DE0C010AD8B4F2
:104C2800DF0C99D60301456B25EE00F013EE21F059
:104C3800110EDBCFE3FFE806FCE2010E446F210E04
:104C48000101606F030E616F45C362F191EC30F0B2
:104C58000301456F442B4529441903E194EC0DF0F9
:104C6800EDD0442B452944190BE19AEC46F0030199
:104C7800406F405101E1E2D0405190EC48F0DED065
:104C8800442B4529441933E124EE4AF013EE33F05E
:104C9800050EDBCFE3FFE806FCE2030E01014E6FD1
:104CA8004D69E6EC46F00301416F410501E0416BB7
:104CB800330E0101606F030E616F03014129010189
:104CC800626F91EC30F00301426F425101E1B6D0BE
:104CD800420502E10101829F030E01014E6F4D69F9
:104CE8000301420501014F6FB0EC47F0A7D0442BF8
:104CF8004529441909E1C7EC48F0CC0E4D6FFF0E69
:104D08004E6F30EC31F09AD0442B4529441909E113
:104D1800ED0E01014D6FFE0E62EC2EF0C0EC47F077
:104D28008DD0442B4529441904E1010EA2EC2DF045
:104D380085D0442B4529441973E1010182AF69D01C
:104D4800ACEC48F04DC139F34EC13AF34FC13BF3D7
:104D580050C13CF378D8D3EC46F08E0E4D6FFF0E61
:104D680062EC2EF0C0EC47F0330E4AEC2EF046EC25
:104D78002FF003013F6F3F5113E139C351F13AC39B
:104D880052F13BC353F13CC354F1140E0101556F6A
:104D9800000E566B576B586BCBEC3EF00009E4E005
:104DA80003013F512EE0206BDF0E01017425030142
:104DB8003D6F000E0101752103013E6F436B1F0E0D
:104DC800436501D016D03DC3D9FF3EC3DAFF000EBC
:104DD8004325E16EE26A030EE222DFCFE7FF3D4B97
:104DE8003E2B3BD8DF5003E138D8200EDF6E432B33
:104DF800E6D7000E01014D6F030E4E6F30EC31F017
:104E08001DD0D70E01014D6FFE0E4E6F30EC31F004
:104E180015D02D0E4D6FFD0E4E6F30EC31F00ED0CB
:104E2800442B452944190AE10101636B626B030EA7
:104E3800656F6469010E666F5AEC3DF003014551D8
:104E480001E0FBD6120076C14DF177C14EF1010E9B
:104E58000101506F4F6B516B010C000E4325D96E49
:104E6800DA6A030EDA221200BBEC41F0EED8DF500A
:104E7800030B626FE5D8FC0B621902012E6FE5D8AF
:104E880008D9626F62476247DBD8F30B62190201E7
:104E98002E6FA10EF66EFB0EF76E22EE16F0090EBF
:104EA800F3D8FEE28B0EF66EFB0EF76E22EE00F0E4
:104EB800150EEAD8FEE250C028F251C029F252C0BD
:104EC8002AF253C02BF225EE85F012EE20F0070EE1
:104ED800DBCFE3FFE806FCE202012C6B2E51030B4B
:104EE800030D160E0101626F020EB4D82C51C0D802
:104EF800280E02012C25E16EE26A020EE222DFCFC3
:104F0800E7FF2C2B020E2C65E9D72D6B2E31E832EA
:104F1800030B070D000E0101626F020E9BD82D5185
:104F2800A7D8200E02012D25E16EE26A020EE222C8
:104F3800DFCFE7FF2D2B060E2D65E8D7280E0101E0
:104F4800576F020E586F596B020E5A6F5B6BC2ECAB
:104F580039F0200E0101576F020E586F596B070E7A
:104F68005A6F5B6BC2EC39F0230E01018E190AE10E
:104F78008E6B60D8020E626103D05CD8622B21D0A0
:104F8800FC0E0FD0240E8E190FE18E6B78D801011C
:104F9800626F020E626104D0020163D8622B22D0D4
:104FA800F30E02012E1798D7260E8E1913E18E6B79
:104FB80002012E51030B0AE02E51030B0101626F0F
:104FC80062073ED8FC0B6219020114D02E51FC0B6B
:104FD800020910D0270E8E190FE18E6B50D807E00A
:104FE80040D86207623762372BD8F30BECD72E51C3
:104FF800F30B08092E6F70D72A0E8E1914E18E6BE9
:1050080019D823D8DF18FC0B6219DF6E38D80101D4
:10501800626F1BD862476247DF506219F30B62194F
:10502800DF6EBBEF41F02B0E8E1901E055D78E6B6A
:10503800BBEF41F002012E51030B0101626F120018
:1050480002012E5101016219120060C1D9FF61C12C
:10505800DAFF1200636FF3506227F45063230201F2
:1050680012002E310101626F6231030B626F120070
:1050780001016225D96E000E6321DA6E1200020169
:105088002E31E832030B12000900F5CFDEFFE806E7
:1050980012000101DF30E832030B12000101829F88
:1050A800F26AF16AF06A9E6AA16A9D6AA06A9F6ABA
:1050B800A26AD06A8C6BBBEC41F0776A1F0E766EE1
:1050C800CD50CF0B1009CD6ED08EF28CF28EF28CB3
:1050D800CA84CD8EC80ECF6ECE6ACD809D809F804B
:1050E800810ED56EF28A0F0EC16E926A010E936E12
:1050F800200E946E6F504D6FB3D8AAD81DEC43F0B4
:105108004DC1CDF44EC1CEF44FC1CFF450C1D0F44F
:105118007C50B3D855EC11F01DEC43F04D5104010F
:10512800CD25D16F01014E510401CE21D26F01016D
:105138004F510401CF21D36F010150510401D021F7
:10514800D46F7D50010199D83C0E92D81DEC43F0E4
:105158004D510401D125D56F01014E510401D221D1
:10516800D66F01014F510401D321D76F010150516E
:105178000401D421D86F800ED525D96FAE0ED62163
:10518800DA6FFE0ED721DB6FFF0ED821DC6FD9C492
:105198004DF1DAC44EF1DBC44FF1DCC450F1640EBA
:1051A800010166D81DEC43F01EEC11F0896A8A6A89
:1051B8008B6A240ECA6E030E4E6FFC0E4D6FE6EC22
:1051C80046F00401CD6FCD3B010182510401CD1998
:1051D800EF0BCD190101826F0401DE6B000E010196
:1051E800726F070E736F0401DE2BDE5129D8000E93
:1051F800DE6E080E39D824D8000EDE6E090E34D8BB
:105208001FD8000EDE6E0A0EDD6EDE2BDD6BDD5163
:1052180017D8DECF4DF1DDCF4EF1010E01019FEC25
:1052280024F0D3EC46F00401DD2B030EDD65EFD747
:105238007DEC47F0F0EC47F099EC21F099EF01F0A4
:10524800020D720EF324D96E010EF420DA6E1200EC
:10525800800E516F510E526F010E536F546B010C3B
:105268004E6B4F6B506B1200DD6EDE2BDE51120061
:10527800516F526B536B546B12004D6F4E6B4F6BEB
:10528800506B12006E6BB5D8DA6EDECF64F1DDCFED
:1052980065F164C1D9FF65C1DAFFDFB218D0A9D8BA
:1052A800A4D81EEC0DF06E51020D60C164F161C10D
:1052B80065F1F3506427F45065230C0E6425D96E0C
:1052C800000E6521DA6EA5D823EC41F0E76E91D87F
:1052D800A8D81EEC0DF06EC1E7FF6E2B090E6E65A7
:1052E800D2D76F6BA2D8DA6EDECF62F1DDCF63F171
:1052F80062C1D9FF63C1DAFFDFB20AD096D875D888
:105308001EEC0DF092D8DA6E84D823EC41F0E76EEB
:105318008CD887D81EEC0DF06FC1E7FF6F2B040EF9
:105328006F65E0D720EE0AF08FD868EC33F01EECFA
:105338000DF083D86ED823EC41F0E76E7ED810EEDE
:1053480003F01EEC0DF0E76A0C0E6025576F000E97
:105358006121586F0A0E596F5A6B16EC3EF060C106
:1053680057F161C158F1050E596F140E5A6F16ECBA
:105378003EF063D810EE01F01EEC0DF0E750D8ECCB
:105388003DF066D826EC31F0C2EC39F024EE44F05A
:1053980011EE66F0050EDBCFE3FFE806FCE2010143
:1053A80020EE20F051D8DA22DF506C6F6C5106E005
:1053B8006C0504E0020E6C1901E06C6BB60E576FB9
:1053C800FF0E586F596B49D8C2EC39F001016C5186
:1053D800020D660EF324D96E010EF42018EC31F09C
:1053E800010E596F3AD8C2EF39F0DA6E10EE02F0BA
:1053F80012006E51020D60C162F161C163F1F35098
:105408006227F45063230C0E6225D96E000E6321C7
:10541800120000EE01F0DE50E926DD50EA22EF50DE
:105428001200DA6E10EE03F012006F51020DF35005
:105438006025D96EF4506121120020EE0AF0605107
:10544800D9266151DA2212006051D9266151120021
:105458004DC157F14EC158F112000C0E5A6F5B6BDB
:105468000C0C02011E6B1F6B010E0E6F800E0D6F70
:10547800176B216B226B236B246B000E01015A6F93
:10548800020E5B6F210E5C6F020E5D6F1EC25EF135
:105498001FC25FF187EC3BF0080E02011E27000EC9
:1054A8001F23212907E1222905E1232903E12429D2
:1054B80001E195D021C24DF122C24EF123C24FF134
:1054C80024C250F1150E0101516F020E526F0F0EDA
:1054D800536F020E546F190E556F020E566F180E49
:1054E800576F020E586F99EC3DF00201185177E0A2
:1054F800206B1951010B0C6FD89019330C056BE117
:10550800205101014D6F34EC29F02CEC29F01DECF1
:1055180043F04DC16CF14EC16DF14FC16EF150C1F8
:105528006FF115C24DF116C24EF14F6B506B3C0E28
:105538003CEC29F01DEC43F04D516C250201086F3D
:1055480001014E516D210201096F01014F516E2178
:1055580002010A6F010150516F2102010B6F08C24D
:105568004DF109C24EF10AC24FF10BC250F1640E5F
:1055780001013CEC29F01DEC43F04DC11AF24EC17B
:105588001BF24FC11CF250C11DF2020111511A5DEC
:1055980012511B5913511C5914511D5902E317512B
:1055A8001AE139D81A51DE5C1B51DE581C51DE58FD
:1055B8001D51DE5810E2010E176F1AC211F21BC2FC
:1055C80012F21CC213F21DC214F2F80E1E250D6F42
:1055D800FF0E1F210E6F202B060E20658AD7800E26
:1055E8001E5D010E1F5901E244D717050AE113D8C1
:1055F80011C2DEFF12C2DEFF13C2DEFF14C2DEFFDD
:1056080005D009D8DE6ADE6ADE6ADD6A0DC26AF193
:105618000EC26BF112006AC1D9FF6BC1DAFF12002A
:105628002E6B2F6B296B2A6B2B6B2C6B190E0101C0
:105638005A6F020E5B6F290E5C6F020E5D6F14C20B
:105648005EF115C25FF187EC3BF0010E02012D6F90
:10565800306B190E3025D96EDA6A020EDA22DE288E
:1056680001E02D6B302B070E3065F3D7800E14192F
:1056780002E115051CE0160504E12D0504E1010E03
:1056880003D02D51FCE0000E276F286B27512811FD
:105698000EE014C270F115C271F18AD870290201A6
:1056A8002E6F000E0101712102012F6F14D014C258
:1056B8006AF115C26BF116C26CF101016E6B6D6B6C
:1056C8007EEC34F06AC114F26BC115F2800E141925
:1056D800E0E11505DEE12E512F111AE094C121F207
:1056E80095C122F296C123F22EC25BF12FC25CF162
:1056F80001015D6B5E6B210E5F6F020E6AD875EC5F
:1057080033F0210E576F020E5ED8C2EC39F007D085
:10571800E70E0101576FFF0E56D8C2EC39F00201AF
:10572800160536E1800E171902E1180529E08A0EE0
:105738000101576FFE0E28EC1DF0C2EC39F066C06F
:1057480024F267C025F268C026F217C270F118C2A9
:1057580071F12ED8702B000E712370C15BF171C1ED
:105768005CF15D6B5E6B240E5F6F020E32D875ECD8
:1057780033F0240E576F020E46EC1DF0C2EC39F0E0
:10578800790E0101576FFF0E41EC1DF0C2EC39F0A4
:10579800690E0101576FFF0E586F596B060E5A6F4D
:1057A8005B6BC2EC39F014C214F215C215F2120088
:1057B8000101D89071337033D89071337033D89019
:1057C800713370331200586F596B0E0E5A6F5B6B42
:1057D8000E0C606F030E616F030C82B985D0800ECA
:1057E800745C010E755801E37FD0326A336A346AFB
:1057F800356A1C0E0D6E320E0E6E74C00FF075C039
:1058080010F0DAEC3CF0322806E1332804E13428C1
:1058180002E1352864E03250246E070E3314256EF9
:105828000B0E1B6EB1D81B2EFDD73250266E070EFD
:105838003314276E0B0E1B6EA7D81B2EFDD73250C4
:105848007F0B2E6E070E1B6E9FD81B2EFDD7325076
:10585800070B2F6E2F5043E02E5041E0E6C001F0B9
:10586800E7C002F0E8C003F0E9C004F0700E056E6E
:10587800170E066E076A086A5EEC37F001C02CF056
:1058880002C02DF02CC001F02DC002F0050E046EF0
:10589800A00E036E79EC44F001C02AF002C02BF090
:1058A8002CC001F02DC002F0050E046EA00E036E90
:1058B8008EEC43F00128306E3050DBEC45F0306E52
:1058C80030502E140CE024502A5C25502B5807E346
:1058D8002A50265C2B50275802E32F507B12080EC3
:1058E8007426000E7522000C82B903D07BC028F004
:1058F80001D0286A296A28C0FEF27B6A746A756A30
:105908008C510201FE11200D81501F0BF310316ED6
:105918003150E00B7A1832E0030E026EF60E016E7B
:105928007DC003F0D0EC47F0030E026EF70E016E57
:105938007CC003F0D0EC47F0030E026EF80E016E47
:105948006FC003F0D0EC47F0030E026EF90E016E43
:10595800FFC203F0D0EC47F0030E026EFA0E016EA0
:10596800B1C103F0D0EC47F0030E026EFB0E016EDE
:10597800B2C103F0D0EC47F0010183893150E00B4C
:105988007A6E31C081FF1200D8903532343233320A
:1059980032321200010193EC3CF0E80601E11200FA
:1059A80093EC3CF0020AD8B482AF120084A3120030
:1059B80026EE64F012EE00F01E0EDBCFE3FFE806E1
:1059C800FCE2E7EC10F0700E2FEC11F0A2EC36F0D0
:1059D8009BD80A0E30EC18F061EC3AF04D5123ECEC
:1059E80041F00201166FA1D80A0E2AEC18F0A2ECB9
:1059F80036F08AD8060E30EC18F061EC3AF04D51CA
:105A080023EC41F00201156F90D8060E2AEC18F02D
:105A1800A2EC36F079D8180E30EC18F061EC3AF0B8
:105A28004DC123F24EC124F24FC125F250C126F2D6
:105A380023C24DF124C24EF125C24FF126C250F1C6
:105A48000A0E30EC18F061EC3AF04D5123EC41F0BD
:105A58000201136F6AD80A0E2AEC18F0A2EC36F08D
:105A68004DC123F24EC124F24FC125F250C126F296
:105A78000201235123EC41F00201126F0A0E0101C9
:105A88004D6F0201FF5172EC46F023EC41F0020128
:105A9800106F0A0E01014D6F0201FF510CEC45F029
:105AA80023EC41F002010F6F0A0E01014D6FB15155
:105AB80072EC46F023EC41F002010D6F0A0E010171
:105AC8004D6FB1510CEC45F023EC41F002010C6F25
:105AD8000A0E01014D6FB25172EC46F023EC41F011
