:04000000D6EF01F046
:0E0008005E82E9CF10F0EACF11F02FED2EF05E
:100018005E80D8CF1AF1E8CF1BF1E0CF1CF1E1CF19
:100028001DF1E2CF1EF1D9CF1FF1DACF20F1F3CFC6
:1000380021F1F4CF22F1F6CF23F1F7CF24F1F8CF55
:1000480025F1F5CF26F104009EA08ED10001EC2BFE
:10005800000EED23EE23EF239E90AAEC1BF04EBE7C
:100068000ED09D0E4B5CD90E4C589A0E4D58030E6F
:100078004E5805E34B6A4C6A4D6A4E6A05D04B2AC6
:10008800000E4C224D224E22630E561814E151C028
:1000980016F152C017F1000E010117BFFF0E186FBD
:1000A800196F16514B2617514C2218514D221951D0
:1000B8004E22566A01D0562A0001E8514B5C0101D4
:1000C800166F0001E9514C580101176F0001EA5100
:1000D8004D580101186F0001EB514E580101196F7D
:1000E80019BF0AD01951181105E1710E165D170EC6
:1000F800175902E3010E01D0000E0001BA6FBA5180
:1001080003E0F7EC35F0F493F5A508D0440EBB6F87
:10011800050EBC6FB70EC26F040E07D0240EBB6F5E
:10012800050EBC6F970EC26F040EC36FF4A9C7D03B
:10013800640E5C1802E0F4ADC2D0C66BC46BC56B2C
:10014800640E5C1821E0C651010DF33AF43AF00E42
:10015800F416F3500F0BF412F00EF316C2C016F19A
:10016800C3C017F1F35001011627F45017230001FB
:10017800C45101011625D96E0001C551010117218D
:10018800DA6E0001DFA28CD0C651100DBBC016F18B
:10019800BCC017F1F35001011627F45017230001D2
:1001A800C45101011625D96E0001C551010117215D
:1001B800DA6EDF500001BD6FC651400DF350C42503
:1001C800800928EC35F00001C651010DF33AF43AE4
:1001D800F00EF416F3500F0BF412F00EF316C2C023
:1001E80016F1C3C017F1F35001011627F450172375
:1001F8000001C45101011625D96E0001C551010144
:100208001721DA6E0001DFA025D0C651010DF33A9F
:10021800F43AF00EF416F3500F0BF412F00EF31636
:10022800C2C016F1C3C017F1F35001011627F450EC
:1002380017230001C45101011625D96E0001C551CB
:1002480001011721DA6E0001DFA002D0F4BF02D04D
:100258005F0EBD6FBD5175EC14F0F4EC2DF000018C
:10026800C651010DF33AF43AF00EF416F3500F0BA1
:10027800F412F00EF316C2C016F1C3C017F1F35012
:1002880001011627F45017230001C4510101162556
:10029800D96E0001C55101011721DA6E0001DF9204
:1002A800C44BC52BC5BF4CD7C55104E1100EC45D66
:1002B80001E246D7C62B010EC66540D7F49D5C50B7
:1002C80002E05C0617D0F48D280E5C6EF4BF04D0F3
:1002D8000101166B162B02D00101166B163316336B
:1002E8000001F451010116197F0B16190001F46F72
:1002F80084EC2CF0545002E0540634D00001FD6B1D
:1003080081AE23D00F0E551802E1556A01D0552A47
:1003180055C0BEF0BF6BC16B040EC06F020EBF03A9
:10032800F350BF6FBEB1BF2BD890BE33C007D8A063
:10033800C107C1BF04D0C151F1E1C005EFE2BF510F
:10034800020DF3CF81FF5B680DD05B280BE155C030
:100358005BF05B506EEC30F00001FD6F020E546EE6
:1003680083EC36F05DEC10F0F2B4F29426C1F5FFA0
:1003780025C1F8FF24C1F7FF23C1F6FF22C1F4FF0E
:1003880021C1F3FF20C1DAFF1FC1D9FF1EC1E2FF5F
:100398001DC1E1FF1CC1E0FF1BC1E8FF1AC1D8FF66
:1003A8005E90100004EF1FF009EC30F00201506B72
:1003B8006EDB700E0101B8DBCEEC26F071DB70C28B
:1003C8000CF271C20DF272C20EF273C20FF2020188
:1003D8006C6B6C51040D3C0E0101636F020E79DBEE
:1003E8006C51020D2BDB6C2B040E6C65F2D76D6B18
:1003F8006D51040D680E0101636F020E6ADB6D51C9
:10040800020D0A0E5BDB1ADB6D2B6D51F1E06E6B92
:100418006E51040D140E0101636F020E5ADB6E510A
:10042800020D0C0E4BDB0ADB6E2B090E6E65F0D746
:10043800760E0101276F020E286FAAEC21F0020147
:1004480020EE01F07E51D9267F51DA22EEDA0A0E2B
:10045800010115EC10F08CEC29F02751DF6E0EDB52
:100468000A0E1AEC10F0CEEC26F01ADB020120EE90
:1004780001F07C51D9267D51DA22D7DA060E010126
:1004880015EC10F08CEC29F02751DF6EF7DA060E28
:100498001AEC10F0CEEC26F003DBC7DA180E15ECD8
:1004A80010F08CEC29F027C170F228C171F229C133
:1004B80072F22AC173F2020120EE01F07851D926B6
:1004C8007951DA22B2DA0A0E010115EC10F08CEC3F
:1004D80029F02751EEDA7651D9267751DA22CEDA89
:1004E8000A0E01011AEC10F0CEEC26F02751E1DAE1
:1004F8008051D9268151DA220CC227F10DC228F188
:100508000EC229F10FC22AF1A00E01012B6F050EB0
:100518002C6F2D6B2E6BCEEC26F02729CADA94515E
:10052800D926955107DBE35143EC34F0C2DA9251F6
:10053800D9269351EDDAE351E8EC32F0DF6E02018F
:1005480020EE02F09051D9269151DA22300EDF6E5A
:1005580090C2D9FF91C2DAFFDF8220EE02F08E51FD
:10056800D9268F51DA22320EDF6E8EC2D9FF8FC2A2
:10057800DAFFDF8220EE01F08A51D9268B51DADAD0
:10058800E25143EC34F095DA8851D9268951C0DA22
:10059800E251E8EC32F08DDA8451D9268551CADA75
:1005A800E15143EC34F085DA8251D9268351B0DA2F
:1005B800E151E8EC32F0DF6E090E0201526F756B03
:1005C8007551F9D982C2DEFF83C2DDFFEAD984C240
:1005D800DEFF85C2DDFFE5D988C2DEFF89C2DDFF07
:1005E800E0D98AC2DEFF8BC2DDFFDBD992C2DEFF13
:1005F80093C2DDFFD6D994C2DEFF95C2DDFFD1D903
:1006080076C2DEFF77C2DDFFCCD978C2DEFF79C2C1
:10061800DDFFC7D97CC2DEFF7DC2DDFFC2D97EC245
:10062800DEFF7FC2DDFF752B060E6F6F5169020179
:100638006F51C1D9DECF63F1DDCF64F163C1D9FF5A
:1006480064C1DAFFDF804CDA10EE01F08A51E1264E
:100658008B51E222E7500101636F020110EE01F0B5
:100668008851E12689515ADA63253B6F020110EE61
:1006780001F08451E1268551E222E7500101646FBF
:10068800020110EE01F08251E126835147DA642518
:100698003C6F020110EE01F09451E1269551E222DF
:1006A800E7500101656F020110EE01F09251E12659
:1006B800935134DA6525F9EC2AF0DF6E760E3C6F3B
:1006C800020E3D6FD7EC19F064DAD2EC33F0020178
:1006D800516F512914E06F516ED910EE01F0CDEC35
:1006E8000CF051C2E7FFB5D939EC33F00201525191
:1006F8006F1902E16F6B01D06F2B010E506F280E3E
:100708000001FD190CE1FD6BA4D939EC33F00201AD
:1007180052516F1902E16F6B8AD76F2B88D72C0E55
:10072800FD190AE1FD6B0201965104E0960502E00D
:10073800966B7DD7962B7BD7290EFD190CE1FD6BA7
:1007480088D939EC33F002016F5103E152C26FF2DC
:100758006ED76F076CD72A0EFD1901E01BD1FD6B10
:100768000201746B505101E100D14CD92CD9C3D985
:1007780032D90C0E746505D06CD939EC33F0020E01
:100788005ED074C253F224EE5AF012EE00F00B0E53
:10079800DBCFE3FFE806FCE23BD915D9A8D91BD982
:1007A80074C263F1030E0101631703E11D0E020118
:1007B800016F88D908D9DFD90ED9010115D9D96EA9
:1007C800020E6621DA6E02017451DE5C21E220EE2F
:1007D80001F0D1D9DA220A0E0101276F05D9CFD944
:1007E800E8EC32F066D95651D9265751DA220A0E6A
:1007F8000101276FF9D8C3D943EC34F0DF6E760EC8
:100808002D6F020E2E6F39EC33F002016F6BADD0F5
:1008180097D9D9D8A1D9DFD8170E746505D019D9B9
:1008280039EC33F0070E0BD091D9CDD8A0D9D3D855
:100838003B0E746507D00DD939EC33F0090E02016F
:100848006F6F93D0746B010163696469020148D9C1
:10085800DF500101656F666B63516527645166233C
:1008680065C127F166C128F1000E28BFFF0E296F68
:100878002A6F4FEC1DF05CEC31F027C167F128C1FD
:1008880068F129C169F12AC16AF1020120EE01F07B
:1008980063D97BD955D9E3D863D95CEC31F02751BA
:1008A80067256B6F285168216C6F295169216D6F1D
:1008B8002A516A216E6F020120EE01F058D965D9DC
:1008C80045D9CDD83C0E57EC1DF05CEC31F02751E2
:1008D8006B250201106F010128516C210201116F73
:1008E800010129516D210201126F01012A516E2166
:1008F8000201136F10C227F111C228F112C229F1A7
:1009080013C22AF1640E010157EC1DF05CEC31F0C2
:10091800F6D8D8D858D82FD9DA2280D8E16F020172
:1009280071D851D8E8D8DA2279D8E26F020170D8A4
:100938004AD8DDD8DA2272D8E36FBEEC2CF0020177
:10094800961903E0965153EC33F04BC035F14CC087
:1009580036F14DC037F14EC038F1E1C039F1E2C08F
:100968003AF1E3C03BF13FEC1EF00201745101E0A3
:100978005ED6505102E009EF30F00001BEEC2CF0D9
:100988000201961902E109EF30F0965153EC33F069
:1009980009EF30F02B0EFD1901E049D6FD6B09EF88
:1009A80030F0752B7551020D540EF324D96E020EDA
:1009B800F420DA6E1200020D540EF324D96E020EE2
:1009C800F420DA6E1200DA22DF500101636F0201AF
:1009D80020EE01F01200DA22DF500A0DF350010177
:1009E80063250201746F120063696469020153513F
:1009F8000101656F666B6351652764516623000EBC
:100A08006525120020EE01F05A51D9265B511200DB
:100A180020EE01F05E51D9265F511200DF500A0D19
:100A2800F350010163250001120070C227F171C261
:100A380028F172C229F173C22AF11200760EF3244A
:100A4800D96E020EF420DA6E63C1DEFF64C1DDFFE9
:100A58001200760E01012D6F020E2E6F1200DA229F
:100A6800DF50F326000EF422F3CF27F1F4CF28F15C
:100A7800010128BFFF0E296F2A6F120070C227F1EB
:100A880071C228F172C229F173C22AF112004BC057
:100A980027F14CC028F14DC029F14EC02AF11200AF
:100AA80027C170F228C171F229C172F22AC173F20A
:100AB8001200DF6E020120EE01F01200F326000E94
:100AC800F422000C020120EE01F05651D9265751AC
:100AD8001200646FF3506327F4506423020112007C
:100AE80020EE01F08051D9268151DA2212005C51A2
:100AF800D9265D5112005851D9265951120027C1E3
:100B08004BF028C14CF029C14DF02AC14EF012001B
:100B1800DA220A0E0101276F00010A0CE222E750CF
:100B28000A0DF350010112002B6F170E2C6F2D6B5D
:100B38002E6B170CDA220A0E0101276F00010A0C2E
:100B480020EE01F06251D9266351120020EE01F027
:100B58006651D926675112006051D9266151120099
:100B6800100E2B6F0E0E2C6F2D6B2E6B0E0C64510E
:100B7800D926655112005451D92655511200E16EFB
:100B8800020E6621E26EE7501200DA22DF500A0DEB
:100B98001200090E0101276F000C09EC30F0020168
:100BA800D951FC0B0209D96FF30ED9170101715104
:100BB800721116E0AEDBDF50030B746FB4DBFC0B75
:100BC80074190201D96FA5DB0101DF30E832030B8C
:100BD800746F74477447A7DBF30B74190201D96F5C
:100BE800E8C3B7F2E9C3B8F2EAC3B9F2B70E030132
:100BF800426F020E436F24EE00F011EE78F0110EF2
:100C0800DBCFE3FFE806FCE2780E446F010E456F88
:100C180023EECAF012EE12F0040EDBCFE3FFE80673
:100C2800FCE2120E466F020E476F23EECFF012EE73
:100C380017F0040EDBCFE3FFE806FCE2170E486F5F
:100C4800020E496F23EED4F012EE1CF0040EDBCF37
:100C5800E3FFE806FCE21C0E4A6F020E4B6F23EE20
:100C6800D9F012EE21F0040EDBCFE3FFE806FCE238
:100C7800210E4C6F020E4D6F23EEDEF012EE26F0C1
:100C8800040EDBCFE3FFE806FCE2260E4E6F020EF1
:100C98004F6F23EE94F011EEABF0050EDBCFE3FFC0
:100CA800E806FCE2AB0E506F010E516F23EEE3F045
:100CB80012EE2BF0040EDBCFE3FFE806FCE22B0E6E
:100CC800526F020E536F23EE9AF011EEB1F0050E3B
:100CD800DBCFE3FFE806FCE2B10E546F010E556F5F
:100CE800B70E566F020E576F780E586F010E596F78
:100CF80023EEA0F011EEB7F0050EDBCFE3FFE80618
:100D0800FCE2B70E5A6F010E5B6F23EEA6F011EEF0
:100D1800BDF0050EDBCFE3FFE806FCE2BD0E5C6F1D
:100D2800010E5D6F23EEACF011EEC3F0050EDBCFC4
:100D3800E3FFE806FCE2C30E5E6F010E5F6F23EE71
:100D4800B2F011EEC9F0050EDBCFE3FFE806FCE2D6
:100D5800C90E606F010E616F23EEB8F011EECFF08F
:100D6800050EDBCFE3FFE806FCE2CF0E626F010E53
:100D7800636F23EEBEF012EE00F0050EDBCFE3FF4B
:100D8800E806FCE2000E646F020E656F23EEC4F005
:100D980012EE06F0050EDBCFE3FFE806FCE2060ED6
:100DA800666F020E676F24EE91F012EE0CF0050EDE
:100DB800DBCFE3FFE806FCE20C0E686F020E696FFA
:100DC800EBC330F2ECC331F2EDC332F2300E6A6F8E
:100DD800020E6B6FE5C2D5F1E6C2D6F1D50E6C6F87
:100DE800010E6D6FE7C2BAF2E8C2BBF2BA0E6E6FBF
:100DF800020E6F6FE9C2BCF2EAC2BDF2BC0E706FA0
:100E0800020E716FEBC2BEF2ECC2BFF2BE0E726F81
:100E1800020E736FEDC2C0F2EEC2C1F2C00E746F63
:100E2800020E756FEFC2C2F2F0C2C3F2C20E766F45
:100E3800020E776FF1C2C4F2F2C2C5F2C40E786F27
:100E4800020E796FF3C2C6F2F4C2C7F2C60E7A6F09
:100E5800020E7B6FF5C2C8F2F6C2C9F2C80E7C6FEB
:100E6800020E7D6F0101735103E11F0E736F01D0F4
:100E780073070201DA6BDA51040D030E21DAF8D98F
:100E8800DAC2DFFFDA51040DF3D9DF90DA51040D2D
:100E9800EFD9DF82DA51040D0FDAEAD9DF6ADA51C5
:100EA800040D020E0DDAE4D9200EDF6EDA51040DBE
:100EB800330E0101746F020E756FF3507427F450EE
:100EC80075230201DA51CCD974C1DEFF75C1DDFF8B
:100ED800DA2B200EDA65CFD7B56BDB6BD86BCA6B14
:100EE800CB6BCC6BCD6B01016F51701123E002010C
:100EF800D36B18D00201E8D90201D351040D020EB8
:100F0800DFD9330EF324E16E020EF420E26EDFCF58
:100F1800E7FFD351040DD0D9ABD9010EDF6ED3C290
:100F2800DBF2D32BD1D9DF50E5E173510201DB5D50
:100F380001E2DB2B0201D85123E0CAC22BF1CBC25C
:100F48002CF1CCC22DF1CDC22EF12C0E01012F6F48
:100F5800010E306F000E316B326B05EC2CF000097E
:100F68000FE00201D86BE4D90BE20101735178D983
:100F780010EE01F0CDEC0CF0E75002E10201DB2BA2
:100F88001D0E0001FD659FD0280EFD619CD0FD510E
:100F98000201D8190CE120EE01F0CE51D926CF512B
:100FA800DA22DF5001E103D0CE4BCF2B1DD0C40E87
:100FB800ABD9D931E832030B0A0D0001FD51F326F4
:100FC800000EF422D890F336F43601017451F3265A
:100FD8007551F422420EF324D96E030EF420DA6E12
:100FE800DECFCEF2DDCFCFF20001FD510201D819DC
:100FF80031E00101735134D910EE01F0CDEC0CF061
:10100800E75028E173510201DB5D03E2D85101E0AA
:10101800DB2B0101735124D981D973C1D2F20FD0CE
:10102800FE0E72D9D2512BD90201D25139D9D251DF
:1010380017D910EE03F0CDEC0CF0E72AD207020125
:10104800D251DB5DEDE3DB510BD9D5C2DEFFD6C251
:10105800DDFF04D00201DB5103D960D9CEC2D9FF2C
:10106800CFC2DAFF40D9DFCFE7FFD951030BE8063B
:1010780002E1DB5104E0D951030B020A08E120EE3A
:1010880002F038D930D9E75064EC16F0DF6E02016F
:1010980020EE03F02FD9DBC2DFFF20EE01F02AD9C2
:1010A800010EDF6EFDC0D8F20001FD6B010E9DEC54
:1010B80035F048EC36F027C1CAF228C1CBF229C175
:1010C800CCF22AC1CDF2000E0101276F030E286F62
:1010D800200E296FEAEC33F00201DB51C1D8DECFD4
:1010E80074F1DDCF75F174C1D9FF75C1DAFFDF8006
:1010F800000E0101316F030E326F200E336F346B17
:101108003DEC2BF0280E0001FD1914E1FD6B10D900
:1011180001E310D7DB51A4D810EE01F0CDEC0CF0B0
:10112800E75001E107D7DB2B000E9DEC35F00201FB
:10113800D86B00D7290EFD190AE1FD6B0201DB51BE
:1011480001E1F8D6DB07000E9DEC35F0F0D72A0E4A
:10115800FD1924E1FD6B0201D76B200ED76501D084
:1011680013D0D7517DD810EE01F0CDEC0CF0E7503C
:101178000BE0D75175D810EE02F0CDEC0CF0ACD8DE
:10118800E7CFDFFFD72BE9D7A7D8DF6A09EC30F024
:101198008A0E01016F6F010E706F12002B0EFD1980
:1011A80007E1FD6B09EC30F001016F6B706B120009
:1011B8002C0EFD1948E1FD6B0201D85101E0DB2B33
:1011C800DB5101E1B7D6FE0E9FD8DB5158D8DECFF0
:1011D800D0F2DDCFD1F2020120EE01F090D8DF6A23
:1011E80020EE02F08CD8200EDF6E20EE03F087D8B8
:1011F8001F0EDF6EDB05D46F1F0ED46501D01DD026
:10120800D4510101746F756BD89074377537020E1D
:101218007427000E7523000E7425D96E030E7521F0
:10122800DA6E0201D4513CD8D4511AD810EE03F02A
:10123800CDEC0CF0E706D42BDFD7D0C23EF3D1C2F9
:101248003FF3DB0774D72D0EFD1901E073D6FD6B54
:10125800D90E01013C6F020E3D6FCEEC17F06AD635
:10126800020D000EF324D96E030EF420DA6E12007C
:10127800330EF324D96E020EF420DA6E1200010147
:10128800766F776BD89076377737745176277551A4
:101298007723000E7625D96E030E7721DA6E1200B9
:1012A800020D000EF324E16E030EF420E26EDECF91
:1012B800E6FFDDCFE5FF1200F32A000EF422000C52
:1012C800F326000EF422000CD35101016F25D96ECC
:1012D800000E7021DA6E12008A0ED725D96EDA6AEE
:1012E800010EDA22120010EE02F0D551E126D65195
:1012F800E2221200D551D926D651DA221200D05155
:10130800D926D151DA2212000101746F75690201E0
:10131800120071C1D9FF72C1DAFF1200DECFD5F217
:10132800DDCFD6F212000201D95101017419120061
:10133800010173510201DB5D1200800E01014619A3
:1013480007E1470505E144C11EF245C11FF204D07B
:1013580046C11EF247C11FF202017BDB160E0101D6
:10136800346F020E356F720E366F020E376F1EC263
:1013780038F11FC239F16DEC2AF00201206B722995
:1013880009E1732907E1742905E1752903E161DBA6
:10139800010E206F72C227F173C228F174C229F1BD
:1013A80075C22AF13A0E01012B6F020E2C6F3C0E0A
:1013B8002D6F020E2E6F6B0E2F6F020E306F6C0E9C
:1013C800316F020E326F45EC2CF009EC30F0010E53
:1013D80002016D6F786B0A0E786501D032D07851B2
:1013E800040D030E23DBFADA78C2DFFF7851040D0F
:1013F800F32A000EF422F2DADF6A7851040D020EA5
:1014080015DBECDA300EDF6E7851040DE7DADF9089
:101418007851040DE3DADF927851040D3E0E010194
:10142800486F020E496FF3504827F45049230201D0
:101438007851020D000EF324D96E020E03DB782BCF
:10144800CAD73A0E486F46832D0E546F52833A0E10
:10145800606F5E83796B795190DA3E0EDE6E020E14
:1014680094DA8BDA420EDE6E020E8FDA86DA4A0ED4
:10147800DE6E020E8ADA81DA4E0EDE6E020E85DA32
:101488007CDA560EDE6E020E80DA77DA5A0EDE6EDF
:10149800020E7BDA72DA620EDE6E020E76DA6DDA30
:1014A800660EDE6E020EDD6E792B2B0E0001FD1925
:1014B80004E1FD6B09EC30F0000C2A0EFD1901E087
:1014C80035D2FD6B02013C510101486F02013D51CB
:1014D8000101496F4A6B4B6B0B0ED890483749375F
:1014E8004A374B37E82EF9D76BC24CF14D6B4E6B30
:1014F8004F6B160ED8904C374D374E374F37E82E76
:10150800F9D76CC250F1516B526B536B1D0ED890CA
:101518005037513752375337E82EF9D74C515025A9
:10152800546F4D515121556F4E515221566F4F51A5
:101538005321576F48515425586F49515521596FB8
:101548004A5156215A6F4B5157215B6F02013A514C
:10155800010158250201726F3B5101015921020115
:10156800736F000E01015A210201746F000E010110
:101578005B210201756F160E0101346F020E356F83
:10158800720E366F020E376F44C138F145C139F11A
:101598002EEC31F009EC30F0010C3CC27AF23DC27D
:1015A8007BF231DA35EC32F027510201676F0DDA40
:1015B800A8EC31F000DA060E296F35EC32F027512D
:1015C8000201636F7AC227F110DAA8EC31F0F3D97F
:1015D8000A0E296F35EC32F0275102015B6FF5D9FD
:1015E800A8EC31F027510201576F3AC27AF23BC298
:1015F8007BF209DA35EC32F0275102014F6FE5D959
:10160800A8EC31F0D8D9060E296F35EC32F0275105
:1016180002014B6F7AC227F1E8D9A8EC31F0CBD997
:101628000A0E296F35EC32F027510201436FCDD9EC
:10163800A8EC31F0275102013F6F6E6B070E6E6503
:1016480001D00FD06E5199D910EE02F0A2D96E5187
:1016580094D99EEC1AF0D6EC2FF0E76E02016E2BAF
:10166800EDD7DAD93DEC2BF02D0E0001FD1904E081
:101678000201200501E063D10001FD6B0201206B2E
:10168800776BD8D9EAEC33F00201775176D9DECFFF
:1016980048F1DDCF49F148C1D9FF49C1DAFFDF8000
:1016A8006F6B070E6F6501D00FD06F5166D910EEC2
:1016B80002F06FD96F5161D99EEC1AF0D6EC2FF079
:1016C800E76E02016F2BEDD7A7D93DEC2BF02B0E5F
:1016D8000001FD1904E1FD6B09EC30F030D12A0E50
:1016E800FD1901E0ACD0FD6B010E02016A6F396B88
:1016F8006FD03951040DF3CF71F271513ED910EE0C
:1017080001F047D9E750216F715176D9020E4AD9B5
:1017180045D93FD9E7500201226F71516DD9040EA6
:1017280041D93CD936D9E7500201236F715164D9A8
:10173800060E38D933D92DD9E7500201246F21512B
:101748000A0D22518BD9F4BE08D0F45003E1180ECB
:10175800F35C03E371C277F20ED023510A0D2451D2
:101768007DD9F4BE0AD0F45003E13C0EF35C05E3E6
:101778007151020F776F6A6B2AD021C227F10101DC
:10178800286B020E2A6F580E296F6AEC34F002019A
:1017980022513C0DF3CF48F1F4CF49F123510A0D02
:1017A800F35001014827F45049232751482728516D
:1017B80049230201245101014827000E492302014F
:1017C8003951020D250EF324D96E020E3BD9392B5F
:1017D800020E396102D06A518CE16A5122E025512A
:1017E800275D265128591DE2706B030E706501D0E4
:1017F80015D07051C2D810EE01F0CBD87051FCD87A
:10180800080ED0D8DA6E00EE01F0DE50E926DD5081
:10181800EA22E7CFEFFF0201702BE7D7040E776FBC
:101828006A6B6A511EE006D9EAEC33F025C23AF237
:1018380026C23BF227C23CF228C23DF280D0280ED5
:10184800FD1907E1FD6B070E020177610AD0772BBE
:1018580008D0290EFD1905E1FD6B0201775101E061
:101868007707CDEC05F0D2EC33F00201766F7629DC
:1018780001E107D7775181D810EE01F08AD876C2F6
:10188800E7FF070E7761FDD6772BFBD6080E01011F
:10189800316F090E326F02016B51F2EC31F0070E15
:1018A800276F010ED2EC33F00201766F762906E03D
:1018B8007651A0EC33F002016B1B41D01E0E0001E3
:1018C800FD1904E1FD6B02016B6B39D02D0EFD197A
:1018D80036E1FD6B7F0E02016B6F31D0040E010102
:1018E800316F080E326F02016C51F2EC31F0030EC9
:1018F800276F010ED2EC33F00201766F762906E0ED
:101908007651A0EC33F002016C1B19D01E0E0001B9
:10191800FD1904E1FD6B02016C6B11D02D0EFD1950
:101928000EE1FD6B070E02016C6F09D002016D51CB
:10193800010A01E132D6030AA9E0010ACFE0280E24
:101948000001FD190BE1FD6B09EC30F0030E0201FB
:101958006D1902E1010E0DD06D2BA7D5290EFD19C9
:1019680001E0A3D5FD6B09EC30F002016D0503E140
:10197800030E6D6F9AD56D0798D5020D290EF324C5
:10198800D96E020EF420DA6E1200DD6E792B7951D1
:101998001200DE50E126DD50E2221200DA6E10EE6F
:1019A80001F012004827000E4923290E4825D96E58
:1019B800020E4921120027C17AF228C17BF27AC2AD
:1019C80027F17BC228F12A6B12007AC227F17BC269
:1019D80028F101012A6B0A0E296F0A0C3E0EF32426
:1019E800D96E020EF420DA6E12007BC228F10101D2
:1019F8002A6B060E296F060C0101486F496BD890B7
:101A08004837493712007AC227F17BC228F1010111
:101A18002A6B0A0E296F0A0C000E0101316F020EA3
:101A2800326F0B0E336F050E346F050CF326000E64
:101A3800F422000C290E0101276F020E286F080EF0
:101A4800296F080CF420DA6E48C1DEFF49C1DDFFBA
:101A58001200726B736B746B756B1200F326000EB9
:101A6800F422000CF5A903D0F59909EC30F0200E0A
:101A7800FD1916E1800E0201F71905E1F80503E1E9
:101A88000001F4A10DD00001FD6B09EC30F0F4B1B8
:101A980002D007DB02D00101906BF9DAFE0B05DBFF
:101AA8002D0EFD1910E1800E0201F71902E1F8056B
:101AB8000AE00001F4A107D0FD6BF7C28EF1F8C26D
:101AC8008FF19AEC28F00001F4B30DD0C8EC19F0AE
:101AD800D3DA8AEC1CF0D6DA0001F4A103D0F49131
:101AE80009EC30F0F483800E0201F71902E1F805E1
:101AF80003E00001F4B1FCD00201F951FA11C86FFA
:101B08000001F4A502D0CDDA02D00101906B0201E8
:101B1800C851010ED8B4000E010190190EE009EC6D
:101B280030F00201C85102E0BCDA02D00101906B2A
:101B380090479047ACDAFB0BB8DA0201C85129E0AC
:101B4800D3C0B7F2D4C0B8F2D5C0B9F2D6C0BAF291
:101B5800010EC36FC851010BAB6FD890C833AB05EA
:101B680009E1B8C2B7F2B9C2B8F2C351D6EC2FF046
:101B78000201B96FC32B030EC365ECD7B70E010181
:101B8800316F020E326F336B0D0E346F356BEDEC27
:101B980028F024EE70F012EE91F0080EDBCFE3FF90
:101BA800E806FCE24BEC05F0640E01013FDACEECEE
:101BB80026F005DA0A0E35DA8CEC29F02751D6EC36
:101BC8002FF00201986F0CDA0A0E01012FDACEEC21
:101BD80026F0F5D9060E25DA8CEC29F02751D6EC3B
:101BE8002FF00201976FFCD9060E01011FDACEEC27
:101BF80026F0E5D90A0E15DA8CEC29F02751D6EC37
:101C08002FF00201956FECD90A0E01010FDACEEC24
:101C180026F0D5D9060E05DA8CEC29F02751D6EC3A
:101C28002FF00201946FDCD9060E0101FFD9CEEC2A
:101C380026F027C1CDF228C1CEF229C1CFF22AC1A0
:101C4800D0F2CED9180EF2D9CEEC26F0272902010F
:101C5800AC6FCFD9180E0101E4D98CEC29F027C15B
:101C6800CDF228C1CEF229C1CFF22AC1D0F2C1D912
:101C78000A0ED7D98CEC29F02751D6EC2FF00201A7
:101C8800926FAED90A0E0101D1D9CEEC26F02751B8
:101C9800D6EC2FF00201916FF951FA11C86F070EB7
:101CA800C81903E0B06B050E02D0B06B040EAF6F1D
:101CB800910E0101316F020E326F336BAFC234F1F6
:101CC800356BEDEC28F0070E0201C81903E0B26B82
:101CD800020E02D0B26B010EB16FAC5102EC2DF0C6
:101CE800B9EC1AF0336BB1C234F1356BEDEC28F076
:101CF8000001F4BBF4B105D05D0E0101316FFE0E99
:101D08005AD1800E0201F71903E1F80501E149D122
:101D180024EE24F012EE9AF0100EDBCFE3FFE80673
:101D2800FCE2070E9A6F010EB56F0001F4A104D012
:101D38000201B56BF10E9F6F0201BE6BBF6BC06BEA
:101D4800C16B7C0E0101346F020E356FBE0E366F0B
:101D5800020E376FF7C238F1F8C239F16DEC2AF08C
:101D6800BEC227F1BFC228F1C0C229F1C1C22AF1FF
:101D7800B30E2B6F020E2C6FC90E2D6F020E2E6F35
:101D8800B60E2F6F020E306FC20E316F020E326F19
:101D980045EC2CF0FBC235F1FCC236F1FDC237F13F
:101DA800FEC238F1CB0E396F020E3A6FBD0E3B6F93
:101DB800020E3C6F9EEC2EF05AD947D935EC32F022
:101DC8002751D6EC2FF00201A56F3AD934D9A8ECE7
:101DD80031F062D94CD92A6B060E296F35EC32F0F6
:101DE8002751D6EC2FF00201A46F2AD901012A6BE2
:101DF800060E296FA8EC31F04FD93A0E0201A36FF5
:101E080036D9010122D935EC32F02751D6EC2FF022
:101E18000201A26F15D90FD9A8EC31F02751D6ECE1
:101E28002FF00201A16F010EC46F030EC46501D02B
:101E380012D0C251010BAD6FD890C233AD0509E184
:101E4800A8C2A7F2A9C2A8F2C451D6EC2FF0020189
:101E5800A96FC42BEAD7BD5102EC2DF027C1BBF204
:101E680028C1BCF2BBC2F6FFBCC2F7FF0800F5CF21
:101E78009CF2010E0201BB250101906F000E0201C8
:101E8800BC210101916F90C1F6FF91C1F7FF0800D5
:101E9800F5CF9DF29A0E316F020E326FB5C233F153
:101EA800346B356BEDEC28F00001F4A1120024EE40
:101EB80035F012EE84F00C0EDBCFE3FFE806FCE20F
:101EC8000201C76B0C0EC66FC6079CD80A0E296F95
:101ED80035EC32F02751D6EC2FF0C2D80A0E296F14
:101EE800A8EC31F0B6D88ED8060E296F35EC32F052
:101EF8002751D6EC2FF0B4D8060E296FA8EC31F094
:101F0800A8D8D8A0C707C6077DD80A0E296F35EC10
:101F180032F02751D6EC2FF0DF6E0201C607D8A0A9
:101F2800C707840EC625D96E020EC721DA6EC9C24C
:101F380027F1CAC228F17FD8A8EC31F02751D6EC96
:101F48002FF0DF6EF7C290F1F8C291F1D89091337B
:101F58009033D89091339033D8909133903390291F
:101F68000201C56F0A0E0101276F0201C55143EC3A
:101F780034F0D6EC2FF00201AE6F85C286F2AEC205
:101F880085F20A0E0101276F0201C551E8EC32F013
:101F98000201C56FC551E6E1840E0101316F020EE1
:101FA8000AD00001F4A103D009EC30F0F4913B0E03
:101FB8000101316FFE0E3FEC14F0EDEF28F027C160
:101FC800CDF228C1CEF229C1CFF22AC1D0F2CDC2BA
:101FD80027F1CEC228F1CFC229F1D0C22AF11200CE
:101FE800CDC227F1CEC228F1CFC229F1D0C22AF141
:101FF8001200CDC227F1CEC228F1CFC229F1D0C23A
:102008002AF11200D8A0C707840EC625D96E020E81
:10201800C721DA6EC9C227F1CAC228F101012A6BA9
:1020280012002B6F2C6B2D6B2E6B12002B6F2C6BF1
:102038002D6B2E6B120001012A6B0A0E296F0A0CF8
:10204800CBC227F1CCC228F112002A6B0A0E296FE5
:102058000A0C27C1C9F228C1CAF20201C607120038
:10206800DF6EC9C227F1CAC228F12A6B1200CBC29F
:1020780027F1CCC228F11200FB0E0101446F020EB9
:10208800456F120044C1F7F245C1F8F21200000191
:10209800F45101019019120027C1CBF228C1CCF2EA
:1020A80012000101906B902B120090190001F46F3F
:1020B80012000001F5A71200F597530E256EFD0ECC
:1020C800DBD90BEC21F0000901E01200CA0E256EE5
:1020D800FF0ED2D90BEC21F0000901E01200EF0E3F
:1020E800256EFC0E266ED9EC35F023C027F024C0EF
:1020F80028F0DAD90BEC21F0000901E1E5D0C3D9C9
:10210800090E1F6E5AEC36F00001A56FBCD9080EF7
:102118001F6E5AEC36F0CCD9E36FB5D90C0E1F6E92
:102128005AEC36F00001A56FAED90B0E1F6E5AECB3
:1021380036F0BED9E26FA7D90F0E1F6E5AEC36F0F3
:102148000001A56FA0D90E0E1F6E5AEC36F0B0D95B
:10215800E16F180E1F6E97D95AEC36F00001A56F83
:10216800170E1F6E90D95AEC36F00A0D0001A551D2
:10217800F324A66F000EF420A76FA86BA7BFA807CB
:10218800A851A96FAA69AB69E1C031F0E2C030F08B
:10219800E35181EC2BF00001AC6FAD6BAA51AC2779
:1021A800AB51AD23ACC036F0ADC037F0000E37BE32
:1021B800FF0E386E396E800E3A6E510E3B6E010E70
:1021C8003C6E3D6A82EC31F036C0AEF037C0AFF0FD
:1021D80038C0B0F039C0B1F0110E1F6E54D95AECA6
:1021E80036F00A0D120E1F6E4ED95AEC36F050D941
:1021F800100E3A6E0E0E3B6E3C6A3D6A82EC31F070
:1022080036500001AE25B26F3750AF21B36F38504A
:10221800B021B46F3950B121B56F140E1F6E33D988
:102228005AEC36F00A0D150E1F6E2DD95AEC36F001
:102238002FD93C0E42D982EC31F036500001B2253C
:10224800B66F3750B321B76F3850B421B86F3950D3
:10225800B521B96FA651B62501010B6F0001A75131
:10226800B72101010C6F0001A851B82101010D6FC0
:102278000001A951B92101010E6F0BC136F00CC143
:1022880037F00DC138F00EC139F0640E16D982EC62
:1022980031F036C011F137C012F138C013F139C02E
:1022A80014F111C12AF012C12BF013C12CF014C182
:1022B8002DF041EC28F011C14BF012C14CF013C1C4
:1022C8004DF014C14EF01200CB0E256EFC0E266E9A
:1022D800CAEC35F023C027F024C028F0E5D80BEC71
:1022E80021F0000940E0000E1C6E010E1D6E1F6AF1
:1022F8000B0E1E6E206AEFEC34F00101156B0B0E0D
:102308001525D96EDA6A050EDA22000E1525E16E5A
:10231800E26A010EE222DFCFE7FF152B090E1565F1
:10232800EED7000E2D6E010E2E6E2CEC27F02DC070
:102338000FF12EC010F101010F5110110AE1DB0E4F
:102348001C6EFF0E1D6E1E6A5DEC35F00001F593E4
:102358001200D30E1C6EFF0E1D6E1E6A5DEC35F06A
:102368000001F5831200400E256EFD0E266EBBECB3
:1023780035F023C027F024C028F096D80BEC21F0C4
:1023880000093AE0F8C3FCF00001F5AB30D0340E98
:10239800FC1903E10201F96B05D0370EFC1905E1C0
:1023A8000201F9810001F589DBD7380EFC1903E138
:1023B8000201F983F7D7390EFC1903E10201F98507
:1023C800F1D7300EFC1909E1F48B0201F96B7FD8C3
:1023D800000178D8CCEC32F0E5D7350EFC19C0E115
:1023E800F49BF58974D86ED8CCEC32F0B9D72A0EA4
:1023F800FC19B6E1F58BB4D72B0E256EFD0E3CD833
:102408000BEC21F0000904E00001F593F59B1200A4
:102418004E0E256EFD0E30D80BEC21F00009F4E1CC
:10242800360E256EFD0E28D80BEC21F00009ECE1E4
:102438001F0E256EFD0E20D80BEC21F00009E4E1FB
:10244800480E256EFD0E18D80BEC21F0000906E0A9
:10245800420E1C6EFF0E1D6E3EEF24F00D0E256E13
:10246800FD0E0AD80BEC21F00009D8B412000001C7
:10247800F593F59BF5911200266E276A286A2A6A59
:10248800020E296E020CD70E1D6E040E1E6E12006F
:10249800F326000EF422F3CF36F0F4CF37F037BE30
:1024A800FF0E386E396E12002A6A020E296E020C6F
:1024B8000A0DF3500001A52512003A6E3B6A3C6AEA
:1024C8003D6A1200000EF4BB010E1E6E1200030ED0
:1024D8001D6EFC0E1C6EFC0C09EC30F0FED99E6FD4
:1024E800996B0501995116E1A10E0101346F050E92
:1024F800356F9EC536F19FC537F13AEC2FF00501CF
:10250800B16BBF6B010E996FC10504E0A16BB16B94
:10251800B26BBF6BEEC38FF5EFC390F5F0C391F5C7
:10252800800E9E250101276FFE0E05019F210101E6
:10253800286F2A6B210E296FA8EC31F0272B000E8B
:10254800282327C135F128C136F1376B386B8F0E38
:10255800396F050E3BEC1EF037EC22F08F0E316F11
:10256800050E97D9EDEC28F00501C1050FE1A10E84
:102578000101316F050E94D9EDEC28F0B20E01017E
:10258800316F050E78D9EDEC28F00ED04C0E010114
:10259800316FFE0E85D9EDEC28F03E0E0101316F4A
:1025A800FE0E69D9EDEC28F02D0E0001FD1901E0B1
:1025B800E6D0FD6B24EE66F015EE64F0090EDBCF75
:1025C800E3FFE806FCE2640E01013C6F050E3D6F77
:1025D8003E6BBAEC1FF005019B6F9B056FE109ECA0
:1025E80030F005019A51FC0B01099A6F9A51F30BCF
:1025F80004099A6FC10503E0926B936B04D0A10E96
:10260800926F050E936F92C56FF193C570F159D90A
:10261800100E736FD1EC05F034D901E162D7A06BCD
:102628000AD017D9A10EA025E16EE26A050EE222B2
:10263800DFCFE7FFA02B0DD9DF50F3E1A10EA025D6
:10264800D96EDA6A050EDA22DF6A9A51F30B0809A5
:102658009A6FC10503E0946B956B04D0B20E946F2A
:10266800050E956F94C56FF195C570F12AD90D0EB9
:10267800736FD1EC05F005D901E132D7A06B0AD010
:10268800E8D8EED8E16E050EDD21E26EDFCFE7FF78
:102698000501A02BDED8DF50F3E1E2D8D96E050E94
:1026A800DD21DA6EDF6A010E0501C16FA10E01019D
:1026B800346F050E00D906EC2FF013D7020E9B19C4
:1026C80021E19651F30B0809966F01016F6B706B4E
:1026D800960E716F050E726F0D0E736FD1EC05F0CB
:1026E8006FC197F570C198F505019751981101E1EF
:1026F800F8D697C52AF198C52BF125EC2AF00001E8
:10270800F583EFD6030E9B1919E1C10501E0E9D65F
:10271800AF0E01013C6FFE0E3D6F91EC32F00009E7
:1027280001E1DFD66E0E0101346F050EC4D806EC48
:102738002FF00501996B09EC30F0D3D6040E9B19E4
:1027480001E0CFD6950E01013C6FFD0E3D6F91EC77
:1027580032F0000901E1C5D6A8D845EC23F0010EF6
:1027680001013F6F800E3E6F030E416F8F0E406F69
:10277800426BB3EC2AF0ABD845EC23F0B2D61F0E6F
:10278800FD1926E1FD6BF5A309D0D30E0101276FD2
:10279800FF0E286F296B4CEC35F0A3D60501C10557
:1027A80001E09FD66E0E01013C6FFE0E3D6F91EC6D
:1027B80032F0000901E195D60501C10501E091D685
:1027C800B20E01012A6F050E2B6F25EC2AF097D760
:1027D800210EFD190DE1FD6BDB0E0101276FFF0EC8
:1027E800286F296B4CEC35F00001F593F59B79D6F1
:1027F800280EFD190EE1FD6B6F0E05019E5D030E9F
:102808009F5905E2210E9E27000E9F2392D765D877
:1028180012D0290EFD1911E1FD6B810E05019E5D97
:10282800010E9F5905E3210E9E5F000E9F5B81D725
:10283800030E9F6F6F0E9E6F7CD72B0EFD1903E161
:10284800FD6B09EF30F01E0EFD1901E04AD6FD6B55
:10285800DED7A0519C25D96E000E9D21DA6E12009C
:10286800A0510201DC6FDD6B110EDC27000EDD23A9
:10287800A10EDC251200326F010E336F346B356BFD
:10288800010C6FC19CF570C19DF505019C519D110E
:102898001200326F010E336F0E0E346F356B0E0C53
:1028A800326F336B346B356B1200270E0101276FC3
:1028B800FE0E286F1200356F9EC536F19FC537F1A1
:1028C80012009A0E0101716F050E726F12009F0EB1
:1028D8000101276FFF0E286F1200010E05019F6F7F
:1028E800800C1C6E1C50070AD8B4ED0C270AD8B40B
:1028F800200C010AD8B4210C030AD8B4220C010A0E
:10290800D8B4230C070AD8B4240C010AD8B4250C6F
:10291800030AD8B4260C0E0AD8B4280C010AD8B475
:10292800290C030AD8B42A0C010AD8B42B0C070ABC
:10293800D8B42C0C010AD8B42D0C030AD8B42E0C28
:10294800010AD8B42F0C1F0AD8B4300C010AD8B425
:10295800310C030AD8B4320C010AD8B4330C070A74
:10296800D8B4340C010AD8B4350C030AD8B4360CE0
:10297800010AD8B4370C0F0AD8B4380C010AD8B4F5
:10298800390C030AD8B43A0C010AD8B43B0C070A2C
:10299800D8B43C0C010AD8B43D0C030AD8B43E0C98
:1029A800010AD8B43F0C7F0AD8B4400C010AD8B445
:1029B800410C030AD8B4420C010AD8B4430C070AE4
:1029C800D8B4440C010AD8B4450C030AD8B4460C50
:1029D800010AD8B4470C0F0AD8B4480C010AD8B475
:1029E800490C030AD8B44A0C010AD8B44B0C070A9C
:1029F800D8B44C0C010AD8B44D0C030AD8B44E0C08
:102A0800010AD8B44F0C1F0AD8B4500C010AD8B424
:102A1800510C030AD8B4520C010AD8B4530C070A53
:102A2800D8B4540C010AD8B4550C030AD8B4560CBF
:102A3800010AD8B4570C0F0AD8B4580C010AD8B4F4
:102A4800590C030AD8B45A0C010AD8B45B0C070A0B
:102A5800D8B42F0C010AD8B45D0C030AD8B45E0CA4
:102A6800010AD8B45F0C3F0AD8B4600C010AD8B484
:102A7800610C030AD8B4620C010AD8B4630C070AC3
:102A8800D8B4640C010AD8B4650C030AD8B4660C2F
:102A9800010AD8B4670C0F0AD8B4680C010AD8B474
:102AA800690C030AD8B46A0C010AD8B46B0C070A7B
:102AB800D8B46C0C010AD8B46D0C030AD8B46E0CE7
:102AC800010AD8B46F0C1F0AD8B4700C010AD8B424
:102AD800710C030AD8B4720C010AD8B4730C070A33
:102AE800D8B4740C010AD8B4750C030AD8B4760C9F
:102AF800010AD8B4770C0F0AD8B4780C010AD8B4F4
:102B0800790C030AD8B47A0C040AD8B4E90CEC0A94
:102B1800D8B4270C050AD8B42D0C3F0AD8B4A20C97
:102B2800030AD8B4C80C1B0AD8B4EF0C080AD8B4E6
:102B3800B50C010AD8B4CC0C020AD8B4C90C7B0A6B
:102B4800D8B4410C010AD8B4A00C030AD8B4420C7A
:102B5800010AD8B4A10C070AD8B4E00C010AD8B409
:102B6800450C030AD8B4A30C010AD8B4A40C0F0A64
:102B7800D8B4A50C010AD8B4A60C030AD8B44B0CD7
:102B8800010AD8B4A70C070AD8B44D0C010AD8B466
:102B9800480C030AD8B44F0C010AD8B4A80C1F0A71
:102BA800D8B4500C010AD8B4430C030AD8B4540C56
:102BB800010AD8B4A90C070AD8B4AA0C010AD8B4D7
:102BC800580C030AD8B4E10C010AD8B4AB0C0F0AAC
:102BD800D8B4AC0C010AD8B4E20C030AD8B4AD0CD2
:102BE800010AD8B4AE0C070AD8B4C40C010AD8B488
:102BF800AF0C030AD8B4B00C010AD8B4B10C3F0A20
:102C0800D8B4610C010AD8B4B20C030AD8B4B30C16
:102C1800010AD8B4B40C070AD8B4E30C010AD8B432
:102C2800650C030AD8B4B60C010AD8B4B70C0F0A5D
:102C3800D8B4B80C010AD8B4B90C030AD8B4BA0C81
:102C4800010AD8B4BB0C070AD8B4BC0C010AD8B422
:102C5800BD0C030AD8B46F0C010AD8B4BE0C1F0A05
:102C6800D8B4700C010AD8B4630C030AD8B4BF0CEA
:102C7800010AD8B4790C070AD8B4E40C010AD8B40C
:102C8800780C030AD8B4E50C010AD8B4C00C0F0AB2
:102C9800D8B4C10C010AD8B4E60C030AD8B4C20CE3
:102CA800010AD8B4C30C070AD8B4C40C010AD8B4B2
:102CB800C50C030AD8B4C60C010AD8B4C70C3F0C1B
:102CC8000101276F02D02751120001012751410A43
:102CD800D8B4610C030AD8B4620C010AD8B4630CE6
:102CE800070AD8B4640C010AD8B4650C030AD8B42E
:102CF800660C010AD8B4670C0F0AD8B4680C010A2C
:102D0800D8B4690C030AD8B46A0C010AD8B46B0C9D
:102D1800070AD8B46C0C010AD8B46D0C030AD8B4ED
:102D28006E0C010AD8B46F0C1F0AD8B4700C010AD3
:102D3800D8B4710C030AD8B4720C010AD8B4730C55
:102D4800070AD8B4740C010AD8B4750C030AD8B4AD
:102D5800760C010AD8B4770C0F0AD8B4780C010A9B
:102D6800D8B4790C030AD8B47A0C3B0AD8B4410C0D
:102D7800030AD8B4420C010AD8B4430C070AD8B4E1
:102D8800440C010AD8B4450C030AD8B4460C010A0D
:102D9800D8B4470C0F0AD8B4480C010AD8B4490C67
:102DA800030AD8B44A0C010AD8B44B0C070AD8B4A1
:102DB8004C0C010AD8B44D0C030AD8B44E0C010AC5
:102DC800D8B44F0C1F0AD8B4500C010AD8B4510C0F
:102DD800030AD8B4520C010AD8B4530C070AD8B461
:102DE800540C010AD8B4550C030AD8B4560C010A7D
:102DF800D8B4570C0F0AD8B4580C010AD8B4590CD7
:102E0800030AD8B45A0CD20AD8B4B80C100AD8B4E9
:102E1800A80C780AD8B4E00C010AD8B4E10C030A6B
:102E2800D8B4E20C010AD8B4E30C070AD8B4E40C0D
:102E3800010AD8B4E50C030AD8B4E60C010AD8B4E0
:102E4800E70C0F0AD8B4E80C010AD8B4E90C030A55
:102E5800D8B4EA0C010AD8B4EB0C070AD8B4EC0CC5
:102E6800010AD8B4ED0C030AD8B4EE0C010AD8B4A0
:102E7800EF0C1F0AD8B4F00C010AD8B4F10C030AFD
:102E8800D8B4F20C010AD8B4F30C070AD8B4F40C7D
:102E9800010AD8B4F50C030AD8B4F60C010AD8B460
:102EA800F70C0F0AD8B4F80C010AD8B4F90C030AC5
:102EB800D8B4FA0C010AD8B4FB0C070AD8B4FC0C35
:102EC800010AD8B4FD0C030AD8B4FE0C010AD8B420
:102ED800FF0C3F0AD8B4C00C010AD8B4C10C030ACD
:102EE800D8B4C20C010AD8B4C30C070AD8B4C40CAD
:102EF800010AD8B4C50C030AD8B4C60C010AD8B460
:102F0800C70C0F0AD8B4C80C010AD8B4C90C030AF4
:102F1800D8B4CA0C010AD8B4CB0C070AD8B4CC0C64
:102F2800010AD8B4CD0C030AD8B4CE0C010AD8B41F
:102F3800CF0C1F0AD8B4D00C010AD8B4D10C030A9C
:102F4800D8B4D20C010AD8B4D30C070AD8B4D40C1C
:102F5800010AD8B4D50C030AD8B4D60C010AD8B4DF
:102F6800D70C0F0AD8B4D80C010AD8B4D90C030A64
:102F7800D8B4DA0C010AD8B4DB0C070AD8B4DC0CD4
:102F8800010AD8B4DD0C030AD8B4DE0C010AD8B49F
:102F9800DF0C99D609EC30F0DBD80101DF50030BC8
:102FA8003E6F6E19FC0B3E196E6FD2D8DF30E832D7
:102FB800030B3E6F3E473E476E513E19F30B3E19D9
:102FC8006E6FC10EF66EFC0EF76E21EE56F0090E0E
:102FD800E1D8FEE2AB0EF66EFC0EF76E21EE40F085
:102FE800150ED8D8FEE2D7C068F1D8C069F1D9C0AB
:102FF8006AF1DAC06BF124EE81F011EE60F0070E91
:10300800DBCFE3FFE806FCE201016C6B6E51030BBA
:10301800030D560E3E6F010EB1D86C51A3D8680E41
:103028006C25E16EE26A010EE222DFCFE7FF6C2B2E
:10303800020E6C65EBD76D6B6E31E832030B070D32
:10304800400E3E6F010E9AD86D518CD8600E6D25DA
:10305800E16EE26A010EE222DFCFE7FF6D2B060E7A
:103068006D65EAD7680E316F010E326F336B020E51
:10307800346F356BEDEC28F0600E0101316F010EF5
:10308800326F336B070E346F356BEDEC28F0230E7F
:103098000001FD190CE161D83E6F020E3E6105D0BA
:1030A8006E51030B3E6F3E2B19D0FC0E0CD0240E34
:1030B800FD190BE15DD83E6F020E3E6103D064D866
:1030C8003E2B1CD0F30E6E179FD7260EFD190FE16D
:1030D80044D809E06E51030B3E6F3E076E513E190E
:1030E800FC0B3E1914D06E51FC0B020910D0270EB0
:1030F800FD190FE13DD808E047D83E073E373E3777
:103108006E513E19F30BEDD76E51F30B08096E6F34
:103118007BD72A0EFD1915E120D83E6F19D8DF1884
:10312800FC0B3E19DF6E6E31E832030B3E6F10D890
:103138003E473E47DF503E19F30B3E19DF6E09EF5D
:1031480030F02B0EFD1901E05FD7FD6B09EF30F071
:103158003CC1D9FF3DC1DAFF1200FD6B01016E5180
:10316800030B12003E25D96E000E3F21DA6E1200C5
:10317800FD6B01016E31E832030B12003F6FF35013
:103188003E27F4503F2312006E313E6F3E31030B51
:103198003E6F12000900F5CFDEFFE8061200030EAD
:1031A8000101286F2769B6EC34F0E80615E1030140
:1031B800866B010EC3EC23F0000903E00001F681E1
:1031C8000BD001013C6B320E3B6F73EC32F0030104
:1031D800862B010E8665EDD7D7D840EC10F08AEC27
:1031E8001CF046EC10F00001F4B905D0FD5103E0E5
:1031F800FD6B63EC36F0F4A9F6D736EC0DF02D0E26
:103208000001FD1930E1F4B12ED0FD6B0301876B8D
:1032180024EE89F013EE7EF0070EDBCFE3FFE8061D
:10322800FCE27E0E01013C6F030E3D6F87C33EF149
:10323800BAEC1FF00301876F870504E1AED89AEC5A
:1032480028F00BD0020E871903E170EC12F005D0BC
:10325800030E871902E1B5EC24F003018751E1E17F
:1032680009EC30F0C0D7280EFD1905E1FD6B95D8A3
:103278009AEC28F0B8D7290EFD1904E1FD6B70EC23
:1032880012F0B1D72C0EFD1917E1FD6BF4A9ABD7DD
:10329800F4B704D00201DE6BDE2B02D00201DE6B34
:1032A800DE47DE47DE470001F4510201DE19F70B65
:1032B800DE190001F46F97D71E0EFD1912E1FD6BA0
:1032C800F48B0201F96B030E0101286FFC0E276FC6
:1032D8000001000EF4BB010E0101296F6EEC35F000
:1032E80022D0250EFD1905E1F4B103D0FD6B010EC6
:1032F8000FD0260EFD1905E1F4B103D0FD6B020EC7
:1033080007D0270EFD1907E1F4B105D0FD6B040EB7
:103318000201F91B08D0220EFD1908E1F4B106D00C
:10332800FD6B0201F96B0001F5895DD7230EFD19CC
:1033380005E1F4B103D0FD6BF49BC5D71F0EFD1951
:1033480004E1FD6B6BEC36F04ED7210EFD1904E15C
:10335800FD6BC2EC22F047D72B0EFD1908E0240EB6
:10336800FD1901E040D7F4AB02D0F4A13CD72B0EF5
:10337800FD1906E109D8F4A103D0F49109EC30F065
:10338800FD6B9CEC36F029D74BC0FBF24CC0FCF22D
:103398004DC0FDF24EC0FEF21200010E01018F6F0A
:1033A800800E8E6F800C4A6BB4D8DECF40F1DDCF33
:1033B80041F140C1D9FF41C1DAFFDFB219D0A9D824
:1033C80010EE02F0CDEC0CF04A51020D3CC140F178
:1033D8003DC141F1F3504027F45041230C0E4025E4
:1033E800D96E000E4121DA6EA5D8D6EC2FF0E76E23
:1033F80090D810EE03F0CDEC0CF04AC1E7FF4A2B51
:10340800090E4A65D1D74B6B9DD8DA6EDECF3EF1F7
:10341800DDCF3FF13EC1D9FF3FC1DAFFDFB20BD0AC
:1034280091D871EC2BF0CDEC0CF08CD8DA6E82D8F8
:10343800D6EC2FF0E76E86D875EC2BF0CDEC0CF0BF
:103448004BC1E7FF4B2B040E4B65DED720EE0AF08D
:1034580088D833EC22F0CDEC0CF07CD86BD8D6ECC5
:103468002FF0E76E77D810EE03F0CDEC0CF0E76A9A
:103478000C0E3C25316F000E3D21326F0A0E336F62
:10348800346B3DEC2BF03CC131F13DC132F1050EFE
:10349800336F140E346F3DEC2BF05CD810EE01F056
:1034A800CDEC0CF0E75002EC2DF05FD85EEC20F08C
:1034B800EDEC28F020EEC7F011EE42F0050EDBCF60
:1034C800E3FFE806FCE2010120EE20F04AD8DA2208
:1034D800DF50486F485106E0480504E0020E4819DD
:1034E80001E0486BC50E316FFF0E326F336B42D867
:1034F800EDEC28F001014851020D420EF324D96E7B
:10350800010EF42058EC20F0010E336F33D8EDEFA4
:1035180028F04A51020D3CC13EF13DC13FF1F35044
:103528003E27F4503F230C0E3E25D96E000E3F2156
:10353800DA6E120000EE01F0DE50E926DD50EA22D4
:10354800EF5012004B51020DF3503C25D96EF45048
:103558003D21120020EE0AF03C51D9263D51DA22D5
:1035680012003C51D9263D51120027C131F128C122
:1035780032F112000C0E346F356B0C0C0001F59112
:10358800F26AF16AF06A9E6AA16A9D6AA06A9F6AF5
:10359800A26AD06A0201F96B09EC30F0526A1F0E78
:1035A800516ECD50CF0B1009CD6ED08EF28CF28EAD
:1035B800F28CCA84CD8EC80ECF6ECE6ACD809D8027
:1035C8000F0EC16E926A800E936E946A5D5001016F
:1035D800276F5CEC1DF04FEC1DF05CEC31F027C15F
:1035E80088F328C189F329C18AF32AC18BF359507A
:1035F800276F286B296B2A6BB4EC05F05CEC31F073
:103608002751030188258C6F010128510301892165
:103618008D6F0101295103018A218E6F01012A5101
:1036280003018B218F6F5A500101276F286B60ECC3
:103638001DF057EC1DF05CEC31F0275103018C258F
:10364800906F0101285103018D21916F01012951CA
:1036580003018E21926F01012A5103018F21936F7B
:10366800800E90250201DF6FAE0E03019121020149
:10367800E06FFE0E030192210201E16FFF0E0301CC
:1036880093210201E26FDFC227F1E0C228F1E1C213
:1036980029F1E2C22AF1640E010157EC1DF05CEC3D
:1036A80031F083EC05F0896A8A6A8B6A240ECA6E47
:1036B800030E286FFC0E276FB6EC34F00301886FF9
:1036C800883B88470001F45103018819DF0B8819EA
:1036D8000001F46F0201E46B000E436E060E446EA7
:1036E800E42BE45129D8000EDE6E070E2BD824D81F
:1036F800000EDE6E080E26D81FD8000EDE6E090EEC
:10370800DD6EE42BE36BE35117D8DECF27F1DDCF75
:1037180028F1010E010103EC21F090EC34F00201D4
:10372800E32B030EE365EFD7A3EC34F063EC36F03C
:10373800D3EC18F0D6EF01F0020DF350430FD96E19
:10374800DA6A1200DD6EE42BE4511200F4BB87D074
:10375800800E4F5C010E505801E381D0966B976B39
:10376800986B996B960E286E4FC029F050C02AF0BE
:10377800800EC4EC2BF00001962906E1972904E19C
:10378800982902E1992966E09651886F070E9715E6
:10379800896F0B0E366EB4D8362EFDD796518A6FC8
:1037A800070E97158B6F0B0E366EAAD8362EFDD7DF
:1037B80096517F0B926F070E366EA2D8362EFDD724
:1037C8009651070B936F935145E0925143E04BC0DC
:1037D8001CF04CC01DF04DC01EF04EC01FF0700E06
:1037E800206E170E216E226A236A8AEC27F01CC00D
:1037F80090F01DC091F090C01CF091C01DF0050E16
:103808001F6EA00E1E6E54EC32F01CC08EF01DC050
:103818008FF090C01CF091C01DF0050E1F6EA00E19
:103828001E6ECDEC31F01C280001946F945102EC0F
:1038380034F00001946F945192150CE088518E5D1C
:1038480089518F5907E38E518A5D8F518B5902E355
:1038580093515812080E4F26000E5022000CF4BB4C
:1038680003D058C08CF001D08C6B8D6B8CC0FAF2F1
:10387800586A4F6A506A0201F951FA11200D8150B5
:103888001F0BF3100001956F9551E00B571830E0AE
:10389800030E1D6EF60E1C6E5AC01EF0CCEC32F0F4
:1038A800030E1D6EF70E1C6E59C01EF0CCEC32F0E4
:1038B800030E1D6EF80E1C6E5DC01EF0CCEC32F0CF
:1038C800030E1D6EF90E1C6EE1C01EF0CCEC32F03A
:1038D800030E1D6EFA0E1C6EE2C01EF0CCEC32F028
:1038E800030E1D6EFB0E1C6EE3C01EF0CCEC32F016
:1038F80000019551E00B576E95C081FFF5891200C4
:10390800D89099339833973396331200686B696B64
:10391800010E586F800E576F616B6B6B6C6B6D6B24
:103928006E6B4A0E346F010E356F6B0E366F010EDB
:10393800376F68C138F169C139F16DEC2AF0080EAA
:103948006827000E69236B2907E16C2905E16D29B9
:1039580003E16E2901E183D06BC127F16CC128F125
:103968006DC129F16EC12AF15F0E2B6F010E2C6F0C
:10397800590E2D6F010E2E6F630E2F6F010E306FD3
:10398800620E316F010E326F45EC2CF0625167E028
:103998006A6B6351010B566FD890633356055BE130
:1039A8006A51276F85D877D85CEC31F027C146F18A
:1039B80028C147F129C148F12AC149F15FC127F15E
:1039C80060C128F179D86FD85CEC31F027514625D1
:1039D800526F28514721536F29514821546F2A515A
:1039E8004921556F52C127F153C128F154C129F11A
:1039F80055C12AF1640E57D85CEC31F027C164F147
:103A080028C165F129C166F12AC167F15B51645D7E
:103A18005C5165595D5166595E51675902E36151C0
:103A28001AE14DD86451DE5C6551DE586651DE58A6
:103A38006751DE5810E2010E616F64C15BF165C128
:103A48005CF166C15DF167C15EF1F80E6825576FDC
:103A5800FF0E6921586F6A2B060E6A659AD7800E89
:103A6800685D010E695901E258D761050AE127D856
:103A78005BC1DEFF5CC1DEFF5DC1DEFF5EC1DEFF54
:103A880005D01DD8DE6ADE6ADE6ADD6A57C144F1F8
:103A980058C145F11200800E2B6F510E2C6F010E8C
:103AA8002D6F2E6B010C2B6F2C6B2D6B2E6B120058
:103AB800286B296B2A6B1200296B2A6B3C0C44C1BA
:103AC800D9FF45C1DAFF12007A6B7B6B756B766B99
:103AD800776B786B650E346F010E356F750E366F28
:103AE800010E376F5EC138F15FC139F16DEC2AF014
:103AF800010E796F7C6B650E7C25D96EDA6A010E32
:103B0800DA22DE2801E0796B7C2B070E7C65F3D77F
:103B1800800E5E1902E15F051CE0600504E179058D
:103B280004E1010E03D07951FCE0000E736F746B51
:103B3800735174110EE05EC163F15FC164F1D890F6
:103B48006433633387D863297A6F000E64217B6FEF
:103B580013D05EC144F15FC145F160C146F1486BC5
:103B6800476B26EC25F044C15EF145C15FF1800E3C
:103B78005E19E1E15F05DFE17A517B1119E0DBC0F5
:103B88006DF1DCC06EF1DDC06FF17AC135F17BC13A
:103B980036F1376B386B6D0E396F010E68D837EC1C
:103BA80022F06D0E316F010E5CD8EDEC28F006D0D6
:103BB800F40E316FFF0E55D8EDEC28F001016005C9
:103BC80039E1800E611902E162052CE0070E316FC0
:103BD800FF0E3FEC14F0EDEC28F0DEC070F1DFC012
:103BE80071F1E0C072F161C163F162C164F1010178
:103BF80031D8D89064336333632B000E642363C1D8
:103C080035F164C136F1376B386B700E396F010EC0
:103C18002ED837EC22F0700E316F010E4DEC14F0F7
:103C2800EDEC28F0A70E0101316FFF0E54EC14F0F3
:103C3800EDEC28F0970E0101316FFF0E326F336BF8
:103C4800060E346F356BEDEC28F05EC15EF15FC196
:103C58005FF11200D89064336333D89064336333D0
:103C68001200326F336B0E0E346F356B0E0C3A6FD9
:103C7800030E3B6F030C0001BEEC2CF0E80601E1DB
:103C88001200BEEC2CF0020AD8B4F5A1120025EE01
:103C9800C2F011EE3CF01E0EDBCFE3FFE806FCE2BB
:103CA8004BEC05F0700E010198EC05F0CEEC26F017
:103CB8008DD80A0E15EC10F08CEC29F02751D6ECB3
:103CC8002FF0526F94D80A0E1AEC10F0CEEC26F0B2
:103CD8007DD8060E15EC10F08CEC29F02751D6ECA7
:103CE8002FF0516F84D8060E1AEC10F0CEEC26F0A7
:103CF8006DD8180E15EC10F08CEC29F027C15FF187
:103D080028C160F129C161F12AC162F15FC127F1BF
:103D180060C128F161C129F162C12AF10A0E15ECCE
:103D280010F08CEC29F02751D6EC2FF04F6F5FD8AC
:103D38000A0E1AEC10F0CEEC26F027C15FF128C16C
:103D480060F129C161F12AC162F15F51D6EC2FF00F
:103D58004E6F0A0E276F0001E15143EC34F0D6ECA8
:103D68002FF04C6F0A0E276F0001E151E8EC32F09A
:103D7800D6EC2FF04B6F0A0E276F0001E25143EC8F
:103D880034F0D6EC2FF0496F0A0E276F0001E2518C
:103D9800E8EC32F0D6EC2FF0486F0A0E276F0001DE
:103DA800E35143EC34F0D6EC2FF0466F0A0E276F40
:103DB8000001E351E8EC32F0D6EC2FF0456F3C0EF1
:103DC800276F010E3AEC24F04CEF35F027C15FF174
:103DD80028C160F129C161F12AC162F15FC127F1EF
:103DE80060C128F161C129F162C12AF112005FC1E5
:103DF80027F160C128F161C129F162C12AF11200DD
:103E080009EE00F011EE00F0EE6AE550E150FCE139
:103E1800E250FAE108EE00F011EE00F0EE6AE5502B
:103E2800E150FCE1E250FAE107EE00F011EE00F09B
:103E3800EE6AE550E150FCE1E250FAE106EE00F0EE
:103E480011EE00F0EE6AE550E150FCE1E250FAE1D3
:103E580005EE00F0640EEE6AE806FDE104EE97F068
:103E68005E0EEE6AE806FDE103EEF2F0080EEE6A79
:103E7800E806FDE10201FE6BFD6BFC6BFB6BFA6B68
:103E8800F96B0101D86BD76B00EEE4F01A0EEE6AFD
:103E9800E806FDE100EE43F0180EEE6AE806FDE1E3
:103EA800FC0EF66E6A0EF76E000EF86E05EEC2F0A6
:103EB80010EE1FF00900F5CFEEFFE550E150FAE1F2
:103EC800B20EF66E530EF76E000EF86E04EE00F0AA
:103ED80010EE97F00900F5CFEEFFE550E150FAE15A
:103EE800A00EF66E610EF76E000EF86E03EE94F0FB
:103EF80010EE5EF00900F5CFEEFFE550E150FAE173
:103F0800560EF66E6C0EF76E000EF86E02EEE5F0C9
:103F180010EE14F00900F5CFEEFFE550E150FAE19C
:103F2800D00EF66E6B0EF76E000EF86E00EEC7F050
:103F380010EE1DF00900F5CFEEFFE550E150FAE173
:103F4800400EF66E6D0EF76E000EF86E0900F5CF96
:103F58005BF00900F5CF5CF00900F5CF5DF05E90ED
:103F68005E92000EF86E0001C2EF1AF009EC30F014
:103F780001013E5101E03E073E5102E10001FB6BA9
:103F88000101446B01D0442B4451020DF3503C25F0
:103F9800D96EF4503D21DA6EDE50DE10F4E14407AC
:103FA8000001FB5113E172D88AD8EDEC28F0010129
:103FB80044513E5D1EE25BD8020E4125D96E000ECB
:103FC800422172D877D8EDEC28F013D0FB0511E127
:103FD80001013E510AE04BD8FE0E4125D96EFF0E75
:103FE800422162D86CD8EDEC28F050D863D8EDECBB
:103FF80028F0FD0E0101316FFF0E326FFBC033F167
:10400800346B356BEDEC28F02A0E0001FD1905E143
:10401800FD6B01013E29436F25D02B0EFD1904E1EC
:10402800FD6B0101436B1ED0280EFD190CE1FD6BE1
:1040380001013E5105E03E070001FB0501E1FB6B74
:1040480009EC30F0ADD7290EFD19AAE1FD6B01018D
:1040580044513E5DF5E23E2B0001FB51F1E1010EBA
:10406800FB6FEED709EC30F00101435112003E51CD
:104078003F6F406BD8903F3740373CC141F13DC15D
:1040880042F13F51412740514223120001013E5164
:10409800020DF3503C25D96EF4503D21DA6EDECF87
:1040A80031F1DDCF32F11200DA6EDECF31F1DDCF42
:1040B80032F11200010E336F346F356B010C336B24
:1040C800010E346F356B010C2EC127F12FC128F179
:1040D8007DEC34F02EC134F12FC135F1275134274E
:1040E80028513523FF0E3425406FFF0E3521416FCF
:1040F80033BF09D032C138F133C139F132C13AF195
:1041080033C13BF105D0386B396B3B6B020E3A6F0C
:1041180038C144F139C145F15ED04451A0EC1BF0DF
:10412800DECF46F1DDCF47F13C6B3D6B4A6B4B6B05
:1041380025D057D834C1F6FF35C1F7FF0800F55030
:10414800426F436B4A51FE08486F4B51D8A0E82A8A
:104158000008496F4DD8DF50366F376B365142191A
:1041680003E13751431908E0100E4219431104E0E6
:104178003D6B010E3C6F0CD04A4B4B2B32D82E5165
:10418800345D2F51355904E34B5102E14A29D1E3FB
:104198003C513D111EE13051311112E03E6B3F6B35
:1041A80049510EE148290CE223D83E513025E16EF1
:1041B8003F51312128D83E4B3F2B484B492BF0D754
:1041C80046C127F147C128F1010E19D890EC34F007
:1041D800010C444B452B44513A5D45513B599DE2F6
:1041E800000C4A51405D346F4B514159356F1200F4
:1041F80048514625D96E49514721DA6E12002A6F77
:10420800296B2B6B1200E26EDFCFE7FF120025C08F
:104218001CF026C01DF002EC35F025C02BF026C09E
:104228002CF01C502B261D502C22FF0E2B24376EF1
:10423800FF0E2C20386E2ABE09D029C02FF02AC0C4
:1042480030F029C031F02AC032F005D02F6A306A28
:10425800326A020E316E2FC03BF030C03CF062D0A3
:104268003B50A0EC1BF0DECF3DF0DDCF3EF0336AD3
:10427800346A416A426A25D05BD82BC0F6FF2CC04D
:10428800F7FF0800F550396E3A6A4150FE083F6E54
:104298004250D8A0E82A0008406E51D8DF502D6E51
:1042A8002E6A2D50391803E12E503A1808E0100EE6
:1042B80039183A1004E0346A010E336E0CD0414AC2
:1042C800422A36D825502B5C26502C5804E34250FD
:1042D80002E14128D1E33350341022E1275028105D
:1042E800D8B4010C356A366A40500FE13F280DE218
:1042F80026D835502724E16E3650282007EC21F0C7
:10430800354A362A3F4A402AEFD73DC01CF03EC006
:104318001DF0010E1F6E1E6A206AEFEC34F0010CCE
:104328003B4A3C2A3B50315C3C50325899E2000CE5
:104338004150375C2B6E425038582C6E12003F505B
:104348003D24D96E40503E20DA6E12002D6B65D8A0
:10435800DF9063D8DF922D2B090E2D65F8D72E6BD1
:1043680075D852D8DF9072D84FD8DF922E2B040E12
:104378002E65F6D720EE0AF03AD8DF9020EE0AF044
:1043880036D8DF9220EE04F02751D926285167D875
:10439800CDEC0CF03A0EE76E20EE04F028D8DF8260
:1043A80020EE16F02751D926285159D8CDEC0CF01B
:1043B8002F0EE76E20EE16F01AD8DF8220EE10F0EE
:1043C8002751D92628514BD8CDEC0CF02F0EE76E8B
:1043D80020EE10F00CD8DF8220EE20F02751D926ED
:1043E8002851DA220001BEEC2CF0DF6E12002751B2
:1043F800D9262851DA22DECF29F1DDCF2AF129C1C9
:10440800D9FF2AC1DAFF1200DECF29F1DDCF2AF168
:1044180029C1D9FF2AC1DAFF12002D51020D27C187
:1044280029F128C12AF1F3502927F4502A230C0E28
:104438002925D96E000E2A21DA6EDECF2BF1DDCFC9
:104448002CF12BC1D9FF2CC1DAFF12002E51020D1D
:10445800F3502725D96EF4502821DA6E1200DA229B
:1044680010EE02F012007CD8000E3A213D6FFF0ECC
:104478003C25D96EFF0E3D21DA6EDF5001E13B0786
:10448800010E3F6F3E6B38AF18D0010E3E6F35C13D
:1044980027F136C128F137C129F138C12AF12B6932
:1044A8002C692D692E695CEC31F027C135F128C1E2
:1044B80036F129C137F12AC138F152D846D835C169
:1044C80027F136C128F137C129F138C12AF10A0E7E
:1044D80015EC10F08CEC29F02751D6EC2FF0DF6E9C
:1044E80035C127F136C128F137C129F138C12AF180
:1044F8000A0E1AEC10F0CEEC26F027C135F128C1CF
:1045080036F129C137F12AC138F13F2B2DD83DBFEB
:104518000CD03D5102E13C0508E338BF06D03851C4
:1045280037113611CAE13505C8E23E51D8B4120038
:104538001BD83DBF000C3D5103E13C05D8A012003B
:104548000FD803D82D0EDF6E2D0C000E3A213D6FCB
:104558003F513C5DD96E3D51D8A03D05DA6E120041
:104568003B5139253C6F12003F513BC13CF13D6B3B
:104578003C5F000E3D5B3C2B3D23000C09EC30F00A
:104588000501846B0301F151A0EC1BF0DECFDCF2D6
:10459800DDCFDDF2DF0E0201DC250501876F000E9D
:1045A8000201DD210501886F8A6B87C5D9FF88C59F
:1045B800DAFF640E8A25E16EE26A050EE222DFCF99
:1045C800E7FF874B882B56D8DF5003E153D8200EDE
:1045D800DF6E8A2B1F0E8A65E8D7640E0101316FE2
:1045E800050E326FAAEC32F0EDEC28F0210E000136
:1045F800FD190FE1FD6B57EC34F00501896F895106
:10460800C1E0895135EC36F005018951A0EC30F054
:10461800B9D72D0EFD1915E1FD6B01016F6B706B9C
:10462800716B726B736BD1EC05F06FC185F570C15E
:1046380086F585C527F186C528F1296B4CEC35F040
:10464800A1D7280EFD1906E1FD6B0301F1519AE08F
:10465800F10798D7290EFD1907E1FD6B030E030139
:10466800F16190D7F12B8ED72B0EFD198BE1FD6BE5
:1046780009EF30F0640E8A25D96EDA6A050EDA225F
:104688001200316B326B3151100D440E296F050E3B
:1046980052D8200EDF6E315114EC31F063D84BD86C
:1046A800DF900101315114EC31F05CD844D8DF823D
:1046B800322B0F0E3265E7D7312B010E3165E2D769
:1046C8002D6B2E6B33D0306B2F6B25D0305114EC03
:1046D80031F048D82A6FF3502927F4502A232F5154
:1046E8002925D96E000E2A21DA6EDF8201012FD822
:1046F8003051100D440E2B6F050E2C6FF3502B27E5
:10470800F4502C232F512B25D96E000E2C212ED896
:104718002D4B2E2B2F2B100E2F6104D018D80800EC
:10472800F550D4E1302B010E3065CED710D80800F3
:10473800F550C9E120D02A6FF3502927F4502A23D5
:1047480032512925D96E000E2A21DA6E12002D5118
:104758002725296F2E5128212A6F29C1F6FF2AC142
:10476800F7FF1200B70E296F040E1200DA6E080068
:10477800F5CFDFFF12000001F585F48D120001016D
:104788004C6F0001F59172EC36F0A0EC30F04C5112
:1047980006E0CB0E276FFD0E286F45EC23F0FA0ECE
:1047A8000101276FFF0E62D84CEC35F001013C6B1C
:1047B800140E3B6F73EC32F0530E4FD868EC20F0B8
:1047C80000090EE14C5143E03C6BC80E3B6F73ECA3
:1047D80032F0E50E276FFD0E286F45EC23F037D039
:1047E8004C5106E0130E276FFE0E286F45EC23F0A0
:1047F800C00E0101276FFF0E39D84CEC35F0530E6F
:1048080001012BD868EC20F00009F9E04C5106E0D2
:10481800FC0E276FFD0E286F45EC23F0610E010199
:10482800276FFF0E23D84CEC35F0530E010115D835
:1048380068EC20F00009F9E04C5106E0B00E276F53
:10484800FD0E286F45EC23F00001F581010C0101F4
:104858004C5102E009EC30F0000C2E6FFD0E2F6F6A
:10486800306B316B336B020E326F020C286F010E06
:10487800296F010C266A276A2650100D440E1E6EF9
:10488800050E54D8200EDF6E265014EC31F065D892
:104898004DD80401DF90265014EC31F05ED846D88C
:1048A800DF82272A0F0E2764E7D7262A010E2664FF
:1048B800E2D7226A236A34D0256A246A26D0255092
:1048C80014EC31F04AD81F6EF3501E26F4501F2204
:1048D80024501E24D96E000E1F20DA6E0401DF82D8
:1048E80031D82550100D440E206E050E216EF35060
:1048F8002026F450212224502024D96E000E212095
:10490800BAEC23F0224A232A242A100E246004D069
:1049180019D80800F550D3E1252A010E2564CDD712
:1049280011D80800F550C8E1BFEF23F01F6EF3500F
:104938001E26F4501F2227501E24D96E000E1F2059
:10494800DA6E120022501C241E6E23501D201F6E8A
:104958001EC0F6FF1FC0F7FF1200B70E1E6E040E32
:1049680012000101856B24EE42F011EE6FF00B0E80
:10497800DBCFE3FFE806FCE2010E846F6F0E3C6FAD
:10498800010E3D6F85C13EF1BAEC1FF0856F842B97
:104998008529841903E1D8EC01F050D0842B8529AE
:1049A800841909E157EC34F0816F815147E0815156
:1049B80035EC36F043D0842B852984192AE120EE82
:1049C800CDF011EE7BF0050EDBCFE3FFE806FCE24D
:1049D800030E286F2769B6EC34F0826F820501E078
:1049E800826B7B0E3C6F010E3D6F82293E6FBAECE5
:1049F8001FF0836F835122E0830502E10001F591E6
:104A0800030E0101286F27698305296F6EEC35F0C5
:104A180015D0842B8529841904E1010EC3EC23F0F9
:104A28000DD0842B8529841909E13F6B3E6B030E59
:104A3800416F4069010E426FB3EC2AF001018551C4
:104A48009BE11200800E441906E1450504E1010EC0
:104A5800456F780E446F44C15CF145C15DF1010EAC
:104A6800536F800E526F475148110DE1780E5C1953
:104A780005E15D0503E15C6B5D6B11D0080E5C27F9
:104A8800000E5D230CD05C515D1105E1010E5D6FD8
:104A9800780E5C6F04D0080E5C5F000E5D5B566B91
:104AA800576B586B596B4A0E346F010E356F560EA3
:104AB800366F010E376F5CC138F15DC139F16DECAD
:104AC8002AF0010E5A6F5B6B4A0E5B25D96EDA6AC3
:104AD800010EDA22DE2801E05A6B5B2B070E5B65BC
:104AE800F3D7460504E15A0504E1010E03D05A51F3
:104AF800FCE0000E546F556B5451551105E05CC134
:104B080052F15DC153F106D044515C19ACE14551F5
:104B18005D19A9E152C144F153C145F112000C6E6F
:104B28000D0E0C1803E153A4538036D00A0E0C184E
:104B380005E153A003D053A453822ED053B002D022
:104B480053A202D0539053920A0E0C1825E05394A6
:104B58000D6A0E6A0D504924086E0E504A20096EDF
:104B68000828D96E000E0920DA6E0D504924E16E2E
:104B78000E504A20E26EDFCFE7FF0D4A0E2A0E5094
:104B880003E1FE0E0D5CE6E320EEFEF04950D92667
:104B98004A50DA220CC0DFFF53B053A212005390E0
:104BA8005392538443C00AF044C00BF00F6A0F506D
:104BB800020DF350450FD96EDA6A0F50020DF3500B
:104BC800430FE16EE26ADECFE6FFDDCFE5FF0F2A95
:104BD800020E0F64ECD70AC049F00BC04AF049C076
:104BE80001F04AC002F0010E046E036A056A15EC72
:104BF80035F00001F587120009EC30F024EE4EF094
:104C080011EE81F00B0EDBCFE3FFE806FCE2810E2C
:104C180001013C6F010E3D6F3E6BBAEC1FF08D6FCA
:104C28008D0506E1010E7E6F800E7D6FE8EF27F09F
:104C3800800E7F1902E180050DE0020E8D190AE150
:104C48007FC144F180C145F1010E476F800E466F68
:104C5800A1EF09F0800E7F1902E1800509E0030E3B
:104C68008D1906E17FC17DF180C17EF1E8EF27F063
:104C7800800E7F1902E1800509E0040E8D1906E116
:104C88007FC134F180C135F1B9EF33F0050E8D19CC
:104C9800D8A41200770E3C6FFD0E3D6F91EC32F0F8
:104CA8000009D8B4120059EC14F045EC23F00101C6
:104CB8003F6B3E6B010E416F7F0E406F426BB3EC52
:104CC8002AF06BEC14F045EF23F0F2CF2CF1F29EB2
:104CD800F29C829082945AD8E82EFED72B2FFCD7CC
:104CE80055D8E82EFED72B2FFCD7030E87EC33F0D0
:104CF800410E2B6FEE0EE82EFED72B2FFCD700D0DF
:104D0800030E87EC33F0DC0E00D0E82EFDD7030E3F
:104D180087EC33F0850EE82EFED700F0020E87EC04
:104D280033F0850EE82EFED700F02C0E2FEC34F071
:104D3800850EE82EFED700F0080E2FEC34F0850E15
:104D4800E82EFED700F0010E2FEC34F0850EE82E89
:104D5800FED700F0120E2FEC34F0850EE82EFED7A9
:104D680000F082908294010E2FEC34F01A0E0101AB
:104D78002B6FF80EE82EFED72B2FFCD700D0F25061
:104D88007F0B01012C118009F26E1200820E0101C5
:104D98002B6FDE0C306B2EAF0AD02E1F2D1F2C1F51
:104DA8002B6D000E2C232D232E23010E306F2AAFDE
:104DB8000AD02A1F291F281F276D000E2823292300
:104DC8002A23010E301B316B326B336B346B2B5142
:104DD8002C112D112E1129E0010E2F6F06D0D8901D
:104DE8002B372C372D372E372F2B2EAFF8D7D890BF
:104DF80031373237333734372B51275D2C51285907
:104E08002D5129592E512A5909E32B51275F2C512D
:104E1800285B2D51295B2E512A5B3181D8902E3386
:104E28002D332C332B332F2FE2D7305108E0341F8A
:104E3800331F321F316D000E32233323342331C127
:104E480027F132C128F133C129F134C12AF1120006
:104E58000001806B816B840E296E2A6A8151210DB5
:104E6800800EF3242B6E010EF4202C6EA2EC2FF092
:104E78000001A4053EE1826B01D0822B82C02FF095
:104E8800120E2F262F50840FD96EDA6ADF50F5E103
:104E9800836B1BD083512D5C2F6E000E2E58306E05
:104EA800090E2F24D96E000E3020DA6E8351840843
:104EB8008225E16EE26A110EE126DE50E61802E074
:104EC800806B15D0010E806F832B0A0E83610FD083
:104ED800835182C02FF0306A2F5E000E305A2F2A7D
:104EE800302230BE04D03050D5E12F04D3E28051B7
:104EF80004E1812B0F0E8165AED7805104E0840E4A
:104F08002D6E2E6A12002D6A2E6A1200256A23AEB3
:104F18000AD0231E221E211E206C000E21222222CE
:104F28002322010E256E1FAE0AD01F1E1E1E1D1E37
:104F38001C6C000E1D221E221F22010E251A266A35
:104F4800276A286A296A205021102210231029E094
:104F5800010E246E06D0D89020362136223623360C
:104F6800242A23AEF8D7D89026362736283629366D
:104F780020501C5C21501D5822501E5823501F5889
:104F880009E320501C5E21501D5A22501E5A2350FE
:104F98001F5A2680D8902332223221322032242EE2
:104FA800E2D7255008E0291E281E271E266C000E71
:104FB80027222822292226C01CF027C01DF028C03D
:104FC8001EF029C01FF0120009EC30F0D7C15EF1C5
:104FD800D8C15FF1010E0101606F7DC161F17EC131
:104FE80062F168EC1DF05EC1D7F15FC1D8F1800EA7
:104FF8000101D71902E1D80516E02D0E0001FD19AF
:1050080012E1FD6BD7C144F1D8C145F17DC146F12C
:105018007EC147F1A1EC09F0E806D8E125D8476B35
:1050280026EC25F00ED0280E0001FD1902E1FD6BDB
:10503800F5D7290EFD190AE1FD6B16D8476F26EC46
:1050480025F044C1D7F145C1D8F1C0D72B0EFD19C1
:1050580003E1FD6B09EF30F01E0EFD19B7E1FD6BA2
:105068000101D76BD86BB2D7D7C144F1D8C145F18C
:10507800010E0101466F486B010C0001F051F1115E
:10508800F211F31144E04CD82AC01CF02BC01DF0DB
:105098002CC01EF02DC01FF08AEC27F01CC02EF08B
:1050A8001DC02FF01EC030F01FC031F039D8F0C03D
:1050B8001CF0F1C01DF0F2C01EF0F3C01FF08AEC26
:1050C80027F01C502E5C326E1D502F58336E1E5028
:1050D8003058346E1F503158356E4B502A5C1C6E58
:1050E8004C502B581D6E4D502C581E6E4E502D583E
:1050F8001F6E32C020F033C021F034C022F035C01A
:1051080023F08AEC27F01C5051261D5052222AC049
:10511800F0F02BC0F1F02CC0F2F02DC0F3F012002B
:10512800640E206E216A226A236A640C09EC30F04E
:10513800800E01018E1902E18F0504E08EC1F7F09F
:105148008FC1F8F0F7C05EF1F8C05FF10101606B44
:10515800010E626F800E616F68EC1DF05EC1F7F0A2
:105168005FC1F8F02D0E0001FD1908E1FD6BF7C0D5
:105178007FF1F8C080F100EC26F0E4D7280EFD1985
:1051880005E11ED8476B26EC25F008D0290EFD193D
:105198000AE116D8010E476F26EC25F044C1F7F056
:1051A80045C1F8F0CFD72B0EFD1903E1FD6B09EFD0
:1051B80030F01E0EFD19C6E1FD6BF76BF86BC2D718
:1051C800FD6BF7C044F1F8C045F10101466B486B2F
:1051D8001200396B3A6B30D033C13BF10101336BAC
:1051E800010E3B6501D028D034C138F1346B12D0A0
:1051F80038C128F101012AD8F76403D00800F55016
:1052080001D032D80101296F3B513EEC29F0394BCE
:105218003A2B382B100E386109D018D8F76403D010
:105228000800F55001D020D80009E2E1010135510C
:1052380001E112003B2BD4D709D8F76403D008004A
:10524800F55001D011D80009C7E1120039513125B4
:10525800366F3A513221376F36C1F6FF37C1F7FF43
:10526800000EF86E0F0E1200F6CFE9FFF7CFEAFF37
:10527800EF501200306F29C12FF13FD832D8DF50DC
:105288002E6F010E2C6F305114EC31F03DD829D817
:10529800DFB204D02E512F1901E12C6B01013051DE
:1052A80014EC31F031D81DD82CB102D0DF9201D0E6
:1052B800DF82010E01012D6F0001F4BD05D001014F
:1052C8002E512F1901E12D6B01012DB103D00001E1
:1052D800F49D02D00001F48D10D803D82FC1DFFF50
:1052E80012002B6FF3502A27F4502B2328512A251C
:1052F800D96E000E2B21DA6E120001013051100D0B
:10530800240E2A6F050E1200970E2A6F040E120043
:10531800306B2AAF03D040D8010E306F2EAF08D0C3
:105328002E1F2D1F2C1F2B6D000E2C232D232E23FB
:105338002B512C112D112E1123E0010E2F6F06D0A9
:10534800D8902B372C372D372E372F2B2EAFF8D759
:105358002B51275D2C5128592D5129592E512A5945
:1053680008E32B51275F2C51285B2D51295B2E51C7
:105378002A5BD8902E332D332C332B332F2FE8D79D
:10538800305101E009D827C127F128C128F129C1E6
:1053980029F12AC12AF112002A1F291F281F276D67
:1053A800000E282329232A23000C2D3D3F2B3B3AAE
:1053B80028292E2C2A213C3E7E2F220041544420AD
:1053C80020202020202020202020202020002020F5
:1053D800202020202020202020202020202000B94C
:1053E800202020EFEE202D2D3A2D2D00A0FEDCFEF2
:1053F800CDFEBEFEF9FE000074FF7DFF37FF8FFF74
:1054080090FE00001F1C1F1E1F1E1F1F1E1F1E1F99
:105418007DFFEBFE8FFF14FF00002D2D3A2D2D3A56
:105428002D2D00AEFFB4FFBAFF0000202020202061
:1054380020200020FF2CFF4DFF0000FCFDFEFF395F
:015448000063
:10544A0001012A512B1101E1120024EE12F011EE92
:10545A002EF0110EDBCFE3FFE806FCE2406B09D029
:10546A002BD820D8E16E010E2D21E26EDFCFE7FFA7
:10547A00402B22D8DF50F4E115D825D83B0EDF6E39
:10548A0040512C6F2D6B040E2C27000E2D232E0E4F
:10549A002C2519D8DF6A2E0E276F010E3AEC24F05C
:1054AA004CEF35F040512C6F2D6B030E2C27000E5C
:1054BA002D232E0E2C25120040512A25D96E000EBE
:1054CA002B21DA6E1200D96E010E2D21DA6E12002E
:1054DA0034C12BF135C12CF138C12DF139C12EF16E
:1054EA00306B080E2F6F03EC33F0436B030E426FE1
:1054FA0042513425D96E43513521DA6EDF5029D80D
:10550A00DECF3AF1DECF3BF1DECF3CF1DECF3DF12B
:10551A003CC13DF13BC13CF13AC13BF13A6B3A2502
:10552A003E6F000E3B213F6F000E3C21406F000E84
:10553A003D21416F0ED83EC1DEFF3FC1DEFF40C1B3
:10554A00DEFF41C1DEFF4207D8A0430743BF120076
:10555A00CFD736C1D9FF37C1DAFF1200420513E1AE
:10556A007F0E3C6FFE0E3D6F91EC32F00009D8B40D
:10557A001200560E01013C6FFD0E3D6F91EC32F0A8
:10558A000009D8B412000101420506E1270E276F6F
:10559A00FE0E286F45EC23F03EC147F13FC148F1AA
:1055AA000AD047C127F148C128F129696EEC35F0C4
:1055BA000101474B482B01014369446940C145F148
:1055CA0041C146F143514527445146234551475D60
:1055DA0046514859E6E34205D8A412009F0E276FA8
:1055EA00FF0E286F45EF23F0406F030E01013B6168
:1055FA0003D00C0E3B274007306B050E2F6F3B295B
:10560A00276F286B000E28232A6B0D0E296F6AEC70
:10561A0034F027C12DF128C12EF17CEC2DF03C513C
:10562A003D6F3E6B2D513D272E513E2340513D2764
:10563A00000E3E234041E8423F0B3D27000E3E2329
:10564A002A69FE0E296F286B276B6AEC34F0275102
:10565A003D2728513E23050E3D25356F000E3E217C
:10566A00366F386B070E376FD2EC2EF035291200E1
:10567A00396B2ED039D834D8CDEC0CF0E75034251C
:10568A00386F38390F0B376F370502E1100E385F64
:10569A0038C128F129D820D8CDEC0CF0E750296F71
:1056AA0037513EEC29F038C127F11ED8DA6EDECF29
:1056BA0035F1DDCF36F135C1D9FF36C1DAFF000E3B
:1056CA00DFB0010E286F3751FFEC30F00101392BA2
:1056DA003351395DCFE31200DA6E10EE02F0120098
:1056EA00DA6E10EE03F012003951020DF350312533
:1056FA00D96EF45032211200356E030E306003D099
:10570A000C0E30263506256A050E246E30281C6ECE
:10571A001D6A000E1D221F6A0D0E1E6EDCEC34F08F
:10572A001CC022F01DC023F0B8EC2DF03150326EAF
:10573A00336A225032262350332235503226000E45
:10574A0033223540E8423F0B3226000E33221F68CF
:10575A00FE0E1E6E1D6A1C6ADCEC34F01C503226EA
:10576A001D503322050E32242A6E000E33202B6E72
:10577A002D6A070E2C6E6EEC2FF02A281200336E5B
:10578A0029C020F02AC021F0236A080E226E335065
:10579A006DEC33F0356A030E346E2850D96EDA6A2E
:1057AA00DECF2BF0DECF2CF0DECF2DF0DECF2EF0C9
:1057BA002DC02EF02CC02DF02BC02CF02B6A3350AC
:1057CA003424D96EDA6ADF502B242F6E000E2C2077
:1057DA00306E000E2D20316E000E2E20326E2850B3
:1057EA00D96EDA6A2FC0DEFF30C0DEFF31C0DEFFBD
:1057FA0032C0DEFF3406D8A0350635BE1200CDD73A
:10580A0048EC36F027C137F128C138F129C139F1FE
:10581A002AC13AF101012B51375D2C5138592D51CA
:10582A0039592E513A5919E22B51375D336F2C51A0
:10583A003859346F2D513959356F2E513A59366FBF
:10584A00FF0E3325376FFF0E3421386FFF0E3521D7
:10585A00396F0F0E36213A6F08D02B51375F2C5112
:10586A00385B2D51395B2E513A5B2F51375D3051E0
:10587A0038593151395932513A59D8B0010C000CC2
:10588A0025D82BC1D9FF2CC1DAFF32D82BD8332F18
:10589A00FDD71CD82DC1D9FF2EC1DAFF29D822D8AD
:1058AA00332FFDD727517F0B2FC1D9FF30C1DAFF24
:1058BA00DF6E070E336F16D8332FFDD72751070B2C
:1058CA0031C1D9FF32C1DAFFDF6E12003369070E28
:1058DA00346F27C135F128C136F1335135173451A8
:1058EA0036171200D8902A33293328332733120067
:1058FA0035C1DEFF36C1DDFF0B0E336F0B0C39D815
:10590A0001E11200E4C020F0E5C021F0E6C022F077
:10591A00E7C023F0A00E246E0F0E256E000E266A35
:10592A00276AC3EC2CF0000908E10001E451E511F3
:10593A00E611E71102E0F6A1120051EC36F01CC0A4
:10594A00E4F01DC0E5F01EC0E6F01FC0E7F000015C
:10595A00F6910FD8E80601E112000BD8020AD8B472
:10596A00F5A11200860E1C6EFF0E1D6E1E6A5DEFFB
:10597A0035F0F539E832E832030B120051EC36F013
:10598A001CC02CF01DC02DF01EC02EF01FC02FF021
:10599A0020502C5C21502D5822502E5823502F581D
:1059AA0019E220502C5C286E21502D58296E225065
:1059BA002E582A6E23502F582B6EFF0E28242C6E39
:1059CA00FF0E29202D6EFF0E2A202E6E0F0E2B2081
:1059DA002F6E08D020502C5E21502D5A22502E5A5C
:1059EA0023502F5A24502C5C25502D5826502E58BF
:1059FA0027502F58D8B0010C000C0101296F290536
:105A0A0005E1E20E276FFF0E286F1200020E291918
:105A1A0005E1EB0E276FFF0E286F1200030E2919FE
:105A2A0005E1E50E276FFF0E286F1200040E2919F3
:105A3A0005E1F10E276FFF0E286F1200050E2919D6
:105A4A0005E1EE0E276FFF0E286F1200060E2919C8
:105A5A0005E1DF0E276FFF0E286F1200070E2919C6
:105A6A0005E1E80E276FFF0E286F1200F70E276F69
:105A7A00FF0E286F120001012F6B306B316B326BF6
:105A8A002B512C112D112E1129E0010E336F06D046
:105A9A00D8902B372C372D372E37332B2EAFF8D7FC
:105AAA00D8902F373037313732372B51275D2C5169
:105ABA0028592D5129592E512A5909E32B51275F6B
:105ACA002C51285B2D51295B2E512A5B2F81D890AE
