:060000000A128A11122809
:10000800FE00030E83120313C8000408C9000A087F
:10001800CA007F08CB000A128A1508280A168A1512
:10002800EB290313D7004408F03A031D1D2857088D
:100038001E284408D500A3270A128A113408E900AB
:100048003308E8003208E7003108E600D601660AFE
:100058000319670A0319680A0319690A031D3A286C
:10006800E601E701E801E901D601D60A6908A60018
:100078006808A5006708A4006608A300D930A7008F
:10008800DB30A801A900EA30AA01AB00EB30AC01D3
:10009800AD00AE012F270A128A115A08E500590847
:1000A800E4005C08E3005B08E20090260A128A116B
:1000B8008316E101E10A83166F082B3A031D6628AF
:1000C800EF01902E6F082A3A031DCF2AEF0164082A
:1000D800C5006508C600C701C8016208C9006308F1
:1000E800CA000B30CB01CC010310C90DCA0DCB0DD2
:1000F800CC0DFF3E031D78286A08CD001630CE01CE
:10010800CF01D0010310CD0DCE0DCF0DD00DFF3E88
:10011800031D86286B08D1001D30D201D301D401FC
:100128000310D10DD20DD30DD40DFF3E031D94281D
:100138005108CD0752080318520FCE075308031869
:10014800530FCF0754080318540AD0074D08C9079E
:100158004E0803184E0FCA074F0803184F0FCB0756
:1001680050080318500ACC074908C5074A0803185D
:100178004A0FC6074B0803184B0FC7074C0803184C
:100188004C0AC8074808E9004708E8004608E7009D
:100198004508E6006908A6006808A5006708A400E5
:1001A8006608A30057080A168A15E9270A128A1151
:1001B8006528E2300A168A1119200A128A116F0876
:1001C8002D3A0319E928560B582AEF010B30D601AE
:1001D800A0000030A101A10A2E260A128A110B30B4
:1001E8008316EE000230D8006F082B3A031D012950
:1001F800EF0190260A128A115F286F082A3A031D18
:10020800CB29EF01EC016C0AA00000301F260A126E
:100218008A11C5006C08053EA00000301F260A128E
:100228008A11A5005830A601A7000230A800772639
:100238000A128A112508C6002608C7006C08043E61
:10024800A00000301F260A128A11A5003C30A60122
:10025800A700A80177260A128A1125084607C800B0
:1002680026080318260A4707C9006C08023EA000A2
:1002780000301F260A128A11A5000A30A601A7001D
:10028800A80177260A128A1125084807CA002608F5
:100298000318260A4907CB0045084A07CC00003056
:1002A800031801304B07CD000630A0006C088827E2
:1002B8000A128A11CE004E07DD3E84004C088313D3
:1002C8008000840A4D0880000630EC0707306C0275
:1002D800031C07295E086002031D74295D085F027C
:1002E80003187F295E08E3005D08E2006008E50066
:1002F8005F08E400FD286E08A0000030A1012E264A
:100308000A128A1105308316EE0009270A128A118B
:10031800D8000530A0000030A101A10A2E260A123B
:100328008A1105308316AE000B30A00000301F265E
:10033800AF0000300A168A115C260A128A110430AE
:10034800AE000A30A00000301F26AF0000300A16A9
:100358008A115C260A128A110230AE000830A00009
:1003680000301F26AF0000300A168A115C260A12D8
:100378008A110730AE01AE0AA00000301F26AF0078
:1003880000300A168A115C260A128A11172A6F0889
:10039800283A031DEB29EF0102306E02031C172ACD
:1003A8006E08A0000030A1012E260A128A118316B9
:1003B8006E080A3A0319E8296E08073A0319E8296A
:1003C8006E08043A031DE929EE03EE030A2A6F08B2
:1003D800293A031D172AEF010B306E020318172A5A
:1003E8006E08A0000030A1012E260A128A11831679
:1003F8006E08083A0319082A6E08053A0319082AEC
:100408006E08023A031D092AEE0AEE0A6E08092749
:100418000A128A11D8006E08A0000030A101A10AB2
:100428002E260A128A1183165808A0000030BC260E
:100438000A128A11ED00FF3A0319F8286E08AE0077
:100448006D08AF0000300A168A115C260A128A115C
:100458006E080B3A0319342A6E08053A031D4F2A11
:100468006D08023A031D4F2A6E08FF3EA0000030B7
:100478001F260A128A11C50004304502031C4F2AA0
:100488006E08FF3EAE000330AF0000300A168A1136
:100498005C260A128A1102306E02031C552A283083
:1004A800562A2A30EF00F8286F08283A031D622AD6
:1004B800EF0190260A128A1102306B2A6F08293A36
:1004C800031D5F28EF0190260A128A110330831654
:1004D800E1005F280830B8000930B9006A08ED2645
:1004E8000A128A110730A0000130BC260A128A11AC
:1004F800ED00FF3A0319862A6D08D3260A128A11DD
:10050800EA065F286F081E3A031D8D2AEF01EA01EB
:100518005F286F082D3A031D952AEF017F30EA0006
:100528005F286F08283A0319662A6F08293A031DBD
:100538005F28EF0159280430B8000830B9006B086B
:10054800ED260A128A110330A0000130BC260A12D7
:100558008A11ED00FF3A0319B72A6D08D3260A124B
:100568008A11EB065F286F081E3A031DBE2AEF01A9
:10057800EB015F286F082D3A031DC62AEF010730EB
:10058800EB005F286F08283A03199D2A6F08293A5B
:1005980003195C2A5F286108013A0319DD28033A28
:1005A80003196E2A013A03199F2A5F28080083124B
:1005B8005E14902683161730A301A201A1007030A3
:1005C800A00003175D080313A70003175C080313B3
:1005D800A60003175B080313A50003175A080313A3
:1005E800A4000A168A11B2260A128A112308CB001F
:1005F8002208CA002108C9002008C8000630A00047
:100608000030A101A10A2E260A128A11023083168F
:10061800CE00031755080313CD000317540803131E
:10062800CC004D08A0004C08BC260A128A11CF0045
:10063800FF3A0319582B4E0B582B0830A0000030F6
:100648001F260A128A114F02A500A601031CA60341
:10065800A030A7000530A80077260A128A112508BD
:10066800C0002608C1000030C11BFF30C200C30013
:100678004008C807410803110318013E031DC907B4
:10068800420803110318013E031DCA07430803115A
:100698000318013E031DCB070230CC01CD00083002
:1006A800CE0AA00000307B2D4F08FF3A0319E02B3B
:1006B8004E08023A031DE02B0630A00000301F262A
:1006C8000A128A114F02A500A601031CA60358307E
:1006D800A7000230A80077260A128A112508C00050
:1006E8002608C1000030C11BFF30C200C30040080B
:1006F800C807410803110318013E031DC907420832
:1007080003110318013E031DCA0743080311031808
:10071800013E031DCB0702304F02CC01031CD42B32
:100728000330CD000530A00000301F260A128A11C0
:10073800C00004304002031CD62B0530A000003056
:100748001F260A128A11C0000330C1004008410266
:10075800A500A601031CA6033C30A700A801772624
:100768000A128A112508C2002608C3000030C31BDC
:10077800FF30C400C5004208C80743080311031826
:10078800013E031DC907440803110318013E031D58
:10079800CA07450803110318013E031DCB07D62BD2
:1007A8000930CD000630CE0AA0000030A1012E2667
:1007B8000A128A110530802D4F08FF3A0319222C9E
:1007C8004E08033A031D222C0530A00000301F26D6
:1007D8000A128A114F02A500A601031CA6033C3089
:1007E800A700A80177260A128A112508C000260842
:1007F800C1000030C11BFF30C200C3004008C80759
:10080800410803110318013E031DC90742080311DB
:100818000318013E031DCA07430803110318013ECC
:10082800031DCB070530CC01CD00CE0AA000003057
:10083800A1012E260A128A110330802D4F08FF3A93
:100848000319652C4E08043A031D652C0330A000DB
:1008580000301F260A128A114F02A500A601031CA8
:10086800A6030A30A700A80177260A128A112508CC
:10087800C0002608C1000030C11BFF30C200C30001
:100888004008C807410803110318013E031DC907A2
:10089800420803110318013E031DCA074308031148
:1008A8000318013E031DCB070930CC01CD000330EE
:1008B800CE0AA0000030A1012E260A128A110230A9
:1008C800802D4F08FF3A0319AA2C4E08053A031D3C
:1008D800AA2C0230A00000301F260A128A11C0007C
:1008E800C101C201C3014F08C400C501C601C70147
:1008F8004008C4024108031C410FC5024208031CFA
:10090800420FC6024308031C430FC7024408C80726
:10091800450803110318013E031DC90746080311C2
:100928000318013E031DCA07470803110318013EB7
:10093800031DCB070230CC01CD00CE0AA000003049
:10094800A1012E260A128A110A30582D4F08FF3AA3
:100958000319F42C4E08063A031DF42C4F08C00066
:10096800400EF039C0000930A00001301F260A12DD
:100978008A1140078312E3008316CF08031DDB2C7E
:100988000930CC01CC0ACD00A00001301F260A1284
:100998008A110038031DEA2C0930AE000130AF017E
:1009A800AF0A0A168A115C260A128A11EA2C033049
:1009B8004F020318E32C0930CC01CD00EA2C4F0874
:1009C800033A031DEA2CCC01CD01CD0A0A30CE0A28
:1009D800A0000130A1012E260A128A110930582DD3
:1009E8004F08FF3A0319182D4E08073A031D182D12
:1009F8000A30A00001301F260A128A11C000400EDA
:100A0800F039C0004F0840078312E300831609300D
:100A1800CC01CD01CD0ACE0AA0000130A1012E26BD
:100A28000A128A110730582D4F08FF3A03195C2D16
:100A38004E08083A031D5C2D4F08C000400EF039DF
:100A4800C0000630A00001301F260A128A11400794
:100A58008312E4008316CF08031D4A2D0930CC0108
:100A6800CC0ACD000730A00001301F260A128A11D7
:100A78000038031D4F2D0630AE000130AF01AF0A1C
:100A88000A168A115C260A128A114F2D4F0B4F2D18
:100A98000230CC01CD000730CE0AA0000130A10100
:100AA8002E260A128A1106308316A0000130832DE3
:100AB8004F08FF3A0319882D4E08093A031D882D5F
:100AC8000730A00001301F260A128A11C000400E0C
:100AD800F039C0004F0840078312E400831609303C
:100AE800CC01CD000230CE000630A0000130A101BB
:100AF8002E260A128A1106308316A0000030A101A2
:100B0800A10A2E260A128A1183166F082C3A031D91
:100B1800D22DEF0190260A128A1183164E0BAA2DA8
:100B28000230CE000230CC01CD000830A0000030E9
:100B3800A1012E260A128A1106308316A000003061
:100B4800A101A10A2E260A128A11102E02304E0285
:100B58000630031CC02D4E0206300318C02DCE00EF
:100B68000330CC01CD000A30A0000130A101A10A58
:100B78002E260A128A11102E4E02031C102E073040
:100B8800CE01CE0ACC01CC0ACD000830A00000303E
:100B9800A101A10A2E260A128A11102E6F082B3ADB
:100BA800031DD82DEF010A2E6F082A3A031D102EB7
:100BB800EF010630A00000301F260A128A11C0007B
:100BC800400EF039C0000530A00000301F260A1280
:100BD8008A114007AC000830A00000301F260A1216
:100BE8008A11AD000330A00000301F260A128A11B6
:100BF800C100410EF039C1000230A00000301F26AC
:100C080041070A168A151D230A128A1190260A1608
:100C18008A1590240A128A1183164B08BB004A08C9
:100C2800BA004908B9004808B8000A168A113025E0
:100C38000A128A11152BA400A100210EF039A10077
:100C48000F3EA20020082207A30084008317000893
:100C58007F390800A600A200220EF039A2000F3E3C
:100C6800A30020082307A400840083170008A50018
:100C7800210803194C2E2608A200220EF039A200E2
:100C88000F3EA30020082307A40084008017582ED5
:100C98002608A200220EF039A2000F3EA300200869
:100CA8002307A400840080132608A200220EF0392E
:100CB800A2000F3EA30020082307A4008400000818
:100CC8002506031908002608A200220EF039A20002
:100CD8002F3EA30020082307A400840001308000D1
:100CE8008312DD140800A901AA01251C812E2708FA
:100CF800A9070318AA0A2808AA070310A70DA80D10
:100D08000310A60CA50C26082504031D792E2A0815
:100D1800A6002908A500080083160313A301A4014F
:100D28002308A000200EF039A000303EA1002408BE
:100D38002107A20084000130831780002308A00047
:100D4800200EF039A000103EA10024082107A200BF
:100D58008400223080001030A40A2402031C942E40
:100D68000230A30A2302031C932E8312DD14080009
:100D7800A1001E306F02031CFF3428306F020318D5
:100D8800FF346F08E23EA20021082202031CFF3450
:100D980022082002031CFF34EF0122080800A000EB
:100DA800DC2E013402340434083410342034403446
:100DB8002008FF3E031C0034840007300402031897
:100DC800003410308A000310040D0407003E82002E
:100DD8000800BA00BB01BB0A38083B020318080028
:100DE8003A1CFB2E3B083902AE003B08FF2E3B089D
:100DF8003902AE002030AF0000300A168A115C2696
:100E08000A128A110310BA0CEF2EA5001D2F02300A
:100E18001B2F250AA00000301F260A128A11023A49
:100E2800031D182F03301B2F09301B2F0530A60078
:100E38002D2F2508FF3E031C2D2F84000B300402A4
:100E480003182D2F18308A000310040D0407303EB4
:100E58008200260808002308AF0007302405B000E8
:100E6800270884008317281C83132F088000840A0E
:100E7800300880000B300310A60CA50CA40CA30CA2
:100E8800FF3E031D3F2F2308AF0007302405B000A5
:100E98002908840083172A1C83132F088000840ADA
:100EA800300880000B300310A60CA50CA40CA30C72
:100EB800FF3E031D572F2308AF002B088400831320
:100EC8002C1883172F0880002B08840083172C1CEC
:100ED8008313073080130310A60CA50CA40CA30CD5
:100EE800FF3E031D6F2F2308AF002D0884008313D6
:100EF8002E1883172F0880002D08840083172E1CB6
:100F08008313073080050800A100A30120080319F6
:100F1800A12FA201A20AA01B942F0310A00D8E2FAF
:100F28000310A30D20082102031C9E2F2008A102F4
:100F380023140310A00CA20B942F230808000313FA
:100F4800BD000330C200C30142083D07E5270A126D
:100F58008A11B500B601B701B8013E08B9003F08CB
:100F6800BA004008BB004108BC003B08BC003A0876
:100F7800BB003908BA00B9013908B5073A0803189F
:100F88003A0FB6073B0803183B0FB7073C0803188E
:100F98003C0AB8073808C1003708C0003608BF0047
:100FA8003508BE00FF30C207031CC303C31FA82FA8
:100FB8004108B4004008B3003F08B2003E08B10041
:100FC80008000313A0000B08A1008B13640083160C
:100FD80003132008831203178D0083168C130C1437
:100FE80083120C0883160313A20021088B00220821
:020FF8000800EF
:1010000064008001840A04060319003404060128E0
:101010006400831203130C1C0F29C8300C108F07B7
:101020000A260A128A155208831603175A028312D7
:101030000313C400831603175B0883120313C50050
:101040005308031C530FC502831603175C08831251
:101050000313C6005408031C540FC602831603175B
:101060005D0883120313C7005508031C550FC70200
:101070004708803AFF0080307F020030031D4A2875
:101080004602031D492817304502031D49287130C7
:101090004402003003180130CC004C0803195428D6
:1010A000B0220A128A155D13DD1DCA286208643A4F
:1010B00003195C28DD1CCA28D101CF01D00183129D
:1010C00003136208643A031974285108C400440EDB
:1010D000F039C400303EC5004F084507C600840003
:1010E000831780080319B4285108C400440EF0394E
:1010F000C400103EC5004F084507C6008400831792
:101100000008CE005108C40006300310C40DFF3E95
:10111000031D85284F0844020F3E803854230A12CD
:101120008A1583120313CE1F9828CE1B5D1C9C28A2
:101130004E08CD00CD139E282230CD004D081B2136
:101140000A128A15D4220A128A158312031351082F
:10115000C400440EF039C400303EC5004F084507B6
:10116000C600840083178001CF0A0319D00A5008F3
:10117000803AFF0080307F02031DC02810304F02EC
:10118000031C5F28831203130230D10A5102031C8F
:101190005D28DD1062080319CF28E203D7286430E8
:1011A000DD14E2000130DD069E230A128A15831247
:1011B000031356080319DE28D6030F298316EF01FF
:1011C0008312061CFF2857080F3A031DE928D70190
:1011D000EA28D70A5708C4000310C40D0608E039EE
:1011E00044048600FF30E10060085F0403190F2902
:1011F0000130DF020030031CE003E0020F29610828
:10120000FF3A031D0F295708E1001E30D600603059
:10121000DF00EA30E000610890228316EF008312BD
:101220004B08FF004A088A0049088400480E8300E2
:10123000FE0E7E0E0900F000732930343134323452
:101240003334343435343634373438343934613423
:1012500062346334643465346634673468346934C2
:101260006A346C346E346F34703472347334743462
:101270007534763479347A34B0342D345F34203494
:101280003A3477346D346B3478347134B234B334E7
:10129000B434E334B534B634B734B834B934BA34CA
:1012A000BB34BC34BD34BE34BF34E434E534C03464
:1012B000C134E634C234C334C434C534C634C7344C
:1012C00021342234CC343B3425343F342A3428347E
:1012D00029342B345E342C342E342F345C347C345B
:1012E000ED34D934DA347008003A03191D29013A73
:1012F00003191E29033A03191F29013A031920294A
:10130000073A03192129013A03192229033A03193B
:101310002329013A031924290F3A03192529013AEF
:1013200003192629033A03192729013A0319282901
:10133000073A03192929013A03192A29033A0319FB
:101340002B29013A03192C291F3A03192D29013A97
:1013500003192E29033A03192F29013A03193029B9
:10136000073A03193129013A03193229033A0319BB
:101370003329013A031934290F3A03193529013A5F
:1013800003193629033A03193729013A0319382971
:10139000073A03193929013A03193A29033A03197B
:1013A0003B29013A03193C293F3A03193D29013AE7
:1013B00003193E29033A03193F29013A0319402929
:1013C000073A03194129013A03194229033A03193B
:1013D0004329013A031944290F3A03194529013ACF
:1013E00003192729033A03194629013A0319472902
:1013F000073A03194829013A03194929033A0319FD
:101400002B29013A03194A291F3A03194B29013A9A
:1014100003194C29033A03194D29013A03194E299E
:10142000073A03194F29013A03195029033A0319BE
:101430005129013A031952290F3A03193329013A64
:1014400003195329033A03193429013A03192929A5
:10145000073A03195429013A03193A29033A03199F
:101460005529013A031944297F3A03195629013AAB
:1014700003195729033A03195829013A031959291D
:10148000073A03195A29013A03195B29033A031948
:101490005C29013A03195D290F3A03195E29013AC3
:1014A00003195F29033A03196029013A03196129D5
:1014B000073A03196229013A03196329033A031908
:1014C0006429013A031965291F3A03196629013A6B
:1014D00003196729033A03196829013A031969298D
:1014E000073A03196A29013A03196B29033A0319C8
:1014F0006C29013A03196D290F3A03196E29013A33
:1015000003196F29033A03197029013A0319712944
:10151000073A03197229013A03196A293F29080079
:10152000F000A22A21342B342A34293428342D34D3
:1015300027342434253426342334223420341E34F2
:101540002C341F3470088400103004020318003457
:1015500018308A000310040D0407003E82000800C2
:10156000831603175D0883120313D5008316031730
:101570005C0883120313D400831603175B088312DD
:101580000313D300831603175A0883120313D200E0
:101590004830D207F4300318F530D307FF30031C6E
:1015A000D407031CD5070800F8000830FB01F90038
:1015B000FA010310FB0D7818FB0A0310F80C640005
:1015C000FF30F907031CFA037A08803AFF008030E5
:1015D0007F02031DED2A013079020318D92A8312F4
:1015E000031387145D19F62AF401F82A0230F40077
:1015F000F5017B08F3000310F30D0310730D3C3964
:1016000074048500071464000A30F001F00AF10147
:101610003E230A128A1583120313071087106400F1
:101620000530F0001930F1013E230A128A158312A9
:10163000031387145D191E2BF601202B0230F600D0
:10164000F7017B08F3000310F30C0310F30C73088D
:101650003C3976048500071464000A30F001F00A72
:10166000F1013E230A128A15831203130710871013
:1016700064000530F0001930F1013E2BF2007108D2
:101680007004031908008312031391017208831672
:10169000920083128C108C1C4B2B0130F002003016
:1016A000031CF103F1023F2BF800780E0F396A2377
:1016B0000A128A154230F700F70B5C2B6400780899
:1016C0000F396A230A128A154230F700F70B662B8E
:1016D00064000800F100831203138710F401640012
:1016E0000430F500F6010310F40D7118F40A03102C
:1016F000F10C6400FF30F507031CF6037608803A0E
:10170000FF0080307F02031D872B01307502031814
:10171000732B831203135D198F2BF201912B02306F
:10172000F200F3017408F0000310F00D0310700DC7
:101730003C3972048500071407100800F6250A12C8
:101740008A1502260A128A15D030D3250A128A1564
:101750000030D3250A128A1506260A128A15D130BE
:10176000D3250A128A15B4240A128A158312C300DB
:10177000C31BE92BDD17C3240A128A158312430801
:10178000C200B4240A128A158312DC00C3240A1290
:101790008A15B4240A128A158312DB00C3240A12A4
:1017A0008A15B4240A128A158312E5005E180C2CDF
:1017B000C3240A128A15B4240A128A158312E3007C
:1017C000C3240A128A15B4240A128A158312E4006B
:1017D0000C2CDD13F0250A128A15E1250A128A1550
:1017E000F330C9240A128A150313E300F430C92424
:1017F0000A128A150313E400F130C9240A128A156B
:10180000FB00F230C9240A128A15FC00F030C9240A
:101810000A128A150F250800F0250A128A15E125FB
:101820000A128A1580308312B200AE30B300FE3047
:10183000B400FF30B5004208E5250A128A15B6004B
:10184000B701B801B9015C08E5250A128A15F30051
:101850003C30F401F501F601F700F801F901FA0155
:10186000DC240A128A157308BA007408BB007508D4
:10187000BC007608BD005B08E5250A128A15F30056
:101880000E30F401F501F601FA01F901F80010300B
:10189000F700DC240A128A157308BE007408BF0022
:1018A0007508C0007608C1006508F3000130F40136
:1018B000F501F601FA01F9005130F8008030F70027
:1018C000DC240A128A157308BE0774080318740F03
:1018D000BF0775080318750FC00776080318760A46
:1018E000C1073E08BA073F0803183F0FBB0740086F
:1018F0000318400FBC0741080318410ABD073A0806
:10190000B6073B0803183B0FB7073C0803183C0F0A
:10191000B8073D0803183D0AB9073608B20737086B
:101920000318370FB30738080318380FB4073908FE
:101930000318390AB5073508F6003408F5003308EE
:10194000F4003208F3006430F700F801F901FA01FD
:10195000DC24760883160317DD007508DC007408A4
:10196000DB007308DA00080083169115141CB62CEE
:1019700083121308F000831611081F390319141974
:10198000BB2C70080800831691121116111E080056
:10199000C62CF0000B08F1008B1364007008831252
:1019A00003178D0083168C130C1483120C08F2009D
:1019B00071088B0072080800A001A101A201A30117
:1019C000731CF62C7708A007780803110318013E52
:1019D000031DA107790803110318013E031DA20787
:1019E0007A0803110318013E031DA3070310F70D26
:1019F000F80DF90DFA0D0310F60CF50CF40CF30CC0
:101A00007608750474047304031DE02C2308F600A3
:101A10002208F5002108F4002008F3000800031351
:101A2000B1000B08B0008B136400F6250A128A156A
:101A300002260A128A15D030D3250A128A150030E0
:101A4000D3250A128A150030D3250A128A1583126B
:101A50003108D3250A128A157B08D3250A128A1564
:101A60007C08D3250A128A1583126308D3250A122B
:101A70008A1583126408D3250A128A151630D325D5
:101A80000A128A151030D3250A128A15E1250A1286
:101A90008A1580308312A400AE30A500FE30A60067
:101AA000FF30A7007B08F3000E30F401F501F601CA
:101AB000FA01F901F8001030F700DC240A128A1547
:101AC0007308A8007408A9007508AA007608AB007E
:101AD0007C08F3000130F401F501F601FA01F90088
:101AE0005130F8008030F700DC240A128A157308A0
:101AF000AC007408AD007508AE007608AF00310880
:101B0000F3003C30F401F501F601F700F801F901AA
:101B1000FA01DC240A128A157308AC07740803184A
:101B2000740FAD0775080318750FAE077608031814
:101B3000760AAF072C08A8072D0803182D0FA90750
:101B40002E0803182E0FAA072F0803182F0AAB0719
:101B50002808A40729080318290FA5072A0803182D
:101B60002A0FA6072B0803182B0AA7072708F60039
:101B70002608F5002508F4002408F3006430F70077
:101B8000F801F901FA01DC24760883160317DD0059
:101B90007508DC007408DB007308DA008312031395
:101BA00030088B000800F000700883129300831641
:101BB0001418D72D11081F39031DDA2D141D080024
:101BC000DA2D1115111D0800E22DFC000A30F0007D
:101BD0007C0E0F39F227FB007C080F397B070800C9
:101BE000831691161116111E0800F32D8316031388
:101BF0008715071694172830831294002730831610
:101C0000930008001114111C0800032E9114911C5C
:101C10000800072EDD1F08005D1AB22EF0305802B2
:101C20000318B22E58080A168A1562210A128A155C
:101C30007608BB007508BA007408B9007308B800CC
:101C4000380A0319390A03193A0A03193B0A031916
:101C5000AF2E3908AB003808AA000730AB050B30AF
:101C60000310BB0CBA0CB90CB80CFF3E031D302E90
:101C70003908AD003808AC000730AD050B30031053
:101C8000BB0CBA0CB90CB80CFF3E031D3F2E380834
:101C9000B4000730B4130310BB0CBA0CB90CB80C69
:101CA000FF3E031D4B2E3808B5000730B50535083B
:101CB0000319AF2E34080319AF2E1730F301F201C8
:101CC000F1007030F000831603175D08F7005C0820
:101CD000F6005B08F5005A08F4007D270A128A1501
:101CE000710883120313B3007008B200A030F00033
:101CF0000530F1003308F3003208F20059270A12C8
:101D00008A157108B1007008B000A030F0000530ED
:101D1000F1003308F3003208F2002F270A128A1567
:101D20007008A8007108A900280AB60015270A1231
:101D30008A15B60034050319AF2E2B083102031D96
:101D4000A32E2A083002031CAF2E2D083102031DDA
:101D5000AB2E2C0830020318AF2E3508DA040430FD
:101D6000D80708005D1AB72E5A08AE00B82EAE018B
:101D7000AF012E0883160317E00083120313DA0164
:101D8000D801831603175F08600483120313A800A9
:101D900005300310A80DFF3E031DC92E06081F398C
:101DA0002804B700E03959060319F22E5C08F00048
:101DB000F030F9260A128A155B08F000F130F92696
:101DC0000A128A156508F000F230F9260A128A15FF
:101DD0006308F000F330F9260A128A156408F0004F
:101DE000F430F9263708D900E030D90537088600E5
:101DF0000800F1000B08F2008B13640071088312D5
:101E000003178D0070088C00831655308C130C1549
:101E10008D00AA308D008C140C118C180D2F83129C
:101E200003130D1272088B000800F0001E2F0134FE
:101E30000234043408341034203440347008FF3E37
:101E4000031C0034840007300402031800341830E7
:101E50008A000310040D0407513E82000800F501BA
:101E6000F601710870040319542FF401F40AF11BF0
:101E70003D2F0310F00DF10D362F0310F50DF60D6B
:101E800071087302031D462F70087202031C502F45
:101E90007008F2027108031CF303F30275140310B7
:101EA000F10CF00CF40B3D2F7608F1007508F000F2
:101EB0000800710870040319782FF401F40AF11B6B
:101EC000652F0310F00DF10D5E2F71087302031DD5
:101ED0006B2F70087202031C742F7008F2027108D5
:101EE000031CF303F3020310F10CF00CF40B652F49
:101EF0007308F1007208F0000800F901F31F8D2F3C
:101F0000F009F109F209F309F00A0319F10A0319BA
:101F1000F20A0319F30AF901F90AF71F9C2FF409D1
:101F2000F509F609F709F40A0319F50A0319F60A7F
:101F30000319F70A0130F906FA01FB01FC01FD0162
:101F400073087204710470040319DB2FF801F80A96
:101F5000F31BB02F0310F00DF10DF20DF30DA72FB1
:101F60000310FA0DFB0DFC0DFD0D73087702031D28
:101F7000C32F72087602031DC32F71087502031D5B
:101F8000C32F70087402031CD52F7008F402710867
:101F9000031C710FF5027208031C720FF60273081E
:101FA000031C730FF7027A140310F30CF20CF10CFC
:101FB000F00CF80BB02F79080319E92FFA09FB0987
:101FC000FC09FD09FA0A0319FB0A0319FC0A0319A3
:101FD000FD0A7D08F3007C08F2007B08F1007A0816
:101FE000F0000800F200F10170087218F107031008
:101FF000F00D0310F20CF208031DF42F7108080015
:102000000A128A11D52E0A128A11D62E0A128A11A4
:10201000D72E0A128A11D82E0A128A11D92E0A1224
:0A2020008A11DA2E0A128A11DB2E53
:10203200BA00BD010530A0003D080A128A118827A6
:102042000A168A11B80038073A07B90084008313C8
:102052000008BB00840A0008BC003D0AAE000A303A
:10206200A000A1013C08A3003B08A20090270A1689
:102072008A112008AF0000305C260A168A110A3045
:10208200A000A1013C08A3003B08A200B4270A1645
:102092008A112108BC002008BB003D08023EAE00A8
:1020A2000630A000A1013C08A3003B08A200902733
:1020B2000A168A112008AF0000305C260A168A111F
:1020C2003D08033EAE002330AF0000305C260A1606
:1020D2008A110630A000A1013C08A3003B08A2001F
:1020E200B4270A168A112108BC002008BB003D084B
:1020F200043EAE000A30A000A1013C08A3003B0848
:10210200A20090270A168A112008AF0000305C2630
:102112000A168A113D08053EAE000A30A000A10150
:102122003C08A3003B08A200B4270A168A11200823
:10213200AF0000305C260A168A110630BD07073050
:102142003D02031C1B280630AE002030AF000030D9
:102152005C2EDD1DB72883166F08253A031DB728AC
:10216200EF010A168A15AE250A168A1183125D1B23
:10217200CF28831603175D08E4005C08E3005B08C0
:10218200E2005A08E100E1300A168A15B8250A165B
:102192008A110317D600831203135D1783160317E0
:1021A2000330B901B8005F086004B300831203135F
:1021B200DD1EDD280130DE2800308316E000031723
:1021C200B3080319E6280130E7280030031360063C
:1021D2000319FC280A128A1190260A168A118316FC
:1021E2000317B3080319F92883120313DD16FC2819
:1021F20083120313DD1283160317330803192929E7
:102202000430B8005308990052089800510897000A
:1022120050089600B101B10A33089A0001309A05BC
:102222000310B30C1A0B1B29170898001608970005
:10223200310896000430B10A3102031C0D29390815
:102242000313B8009630B901B90ADE270A168A11BB
:1022520003173808033E0313AE002330AF00031701
:1022620039085C260A168A1103173808063E03133A
:10227200AE002330AF00031739085C260A168A1114
:102282006430A000A101A201A30103175D0803139A
:10229200A70003175C080313A60003175B080313C8
:1022A200A50003175A080313A400B2260A168A11BE
:1022B20023080317BD00031322080317BC000313EE
:1022C20021080317BB00031320080317BA00380ABA
:1022D2000313AE000A30A000A101A201A30103175B
:1022E2003D080313A70003173C080313A6000317B6
:1022F2003B080313A50003173A080313A40027277A
:102302000A168A112008AF00031739085C260A163C
:102312008A110A30A000A101A201A30103173D08FE
:102322000313A70003173C080313A60003173B0877
:102332000313A50003173A080313A400B2260A16D2
:102342008A1123080317BD00031322080317BC00D8
:10235200031321080317BB00031320080317BA0055
:102362003808023E0313AE000630A000A101A2010C
:10237200A30103173D080313A70003173C08031327
:10238200A60003173B080313A50003173A0803131B
:10239200A40027270A168A112008AF00031739085C
:1023A2005C260A168A110630A000A101A201A3012F
:1023B20003173D080313A70003173C080313A600E5
:1023C20003173B080313A50003173A080313A400DD
:1023D200B2260A168A1123080317BD000313220826
:1023E2000317BC00031321080317BB0003132008C3
:1023F2000317BA003808043E0313AE000A30A000E7
:10240200A101A201A30103173D080313A7000317AB
:102412003C080313A60003173B080313A500031788
:102422003A080313A40027270A168A112008AF00CE
:10243200031739085C260A168A110A30A000A10186
:10244200A201A30103173D080313A70003173C08C9
:102452000313A60003173B080313A50003173A084A
:102462000313A400B2260A168A1123080317BD001B
:10247200031322080317BC00031321080317BB0030
:10248200031320080317BA003808053E0313AE00F1
:102492000630A000A101A201A30103173D08031306
:1024A200A70003173C080313A60003173B080313F6
:1024B200A50003173A080313A40027270A168A1156
:1024C2002008AF00031739085C260A168A11063065
:1024D200A000A101A201A30103173D080313A70055
:1024E20003173C080313A60003173B080313A500B8
:1024F20003173A080313A400B2260A168A11230806
:102502000317BD00031322080317BC00031321089D
:102512000317BB00031320080317BA001830031374
:10252200A000A101A201A30103173D080313A70004
:1025320003173C080313A60003173B080313A50067
:1025420003173A080313A400B2260A168A11200AB6
:102552000317900018300313A000A101A201A301E8
:1025620003173D080313A70003173C080313A60033
:1025720003173B080313A50003173A080313A4002B
:1025820027270A168A1123080317BD0003132208FE
:102592000317BC00031321080317BB000313200811
:1025A2000317BA003808073E0313AE000A30A00032
:1025B200A101A201A30103173D080313A7000317FA
:1025C2003C080313A60003173B080313A5000317D7
:1025D2003A080313A40027270A168A112008AF001D
:1025E200031739085C260A168A1103173808083EB1
:1025F2000313AE000A30A000A101A201A301031738
:102602003D080313A70003173C080313A600031792
:102612003B080313A50003173A080313A400B226CC
:102622000A168A112008AF00031739085C2603171F
:1026320039080313B800031738080A3E0313B90018
:10264200031710080A168A15A2200A168A11DE2715
:102652000A168A119E308400BF30E0000408E100AF
:102662001130E2006008840083170008E300E00AEA
:102672006108840063088000E10AE20B332B031730
:102682005608F03A0319912C831203135D1E722B24
:102692005630831603179E0035309F003430A00059
:1026A2003C30A1003830A2002230A3002E30A4001A
:1026B2003230A5003730A6002930A7003B30A800F1
:1026C2003230A9003930AA003B30AB002930AC00CF
:1026D2003A30AD0003139E30B801B80AB901B90A05
:1026E200DE2F5A3083160317AD009101910A560866
:1026F2000A128A11A3270A168A113408A60033087F
:10270200A5003208A4003108A3009230A7000130CE
:10271200A8009430A9000130AA009C30AB0001301F
:10272200AC00B030AD000130AE000A128A112F2782
:102732000A168A11031764080313B100031763080A
:102742000313B000031762080313AF0003176108F5
:102752000313AE00B630B200AF30B3000A168A15CA
:10276200E0200A168A1103172330B501A6000A30A9
:102772000313A000A101031737080313A3000317D3
:1027820036080313A20090270A168A11200803179D
:10279200A4000A300313A000A10103173708031392
:1027A200A300031736080313A200B4270A168A11DE
:1027B20021080317B700031320080317B6000630D9
:1027C2000313A000A101031737080313A300031783
:1027D20036080313A20090270A168A11200803174D
:1027E200A50006300313A000A10103173708031345
:1027F200A300031736080313A200B4270A168A118E
:1028020021080317B700031320080317B6000A3084
:102812000313A000A101031737080313A300031732
:1028220036080313A20090270A168A1120080317FC
:10283200A7000A300313A000A101031737080313EE
:10284200A300031736080313A200B4270A168A113D
:1028520021080317B700031320080317B6000A3034
:102862000313A000A101031737080313A3000317E2
:1028720036080313A20090270A168A1120080317AC
:10288200A800B201B20A30089B0001309B05031078
:10289200B00C1B0B752C0310350CB400023C9E3E91
:1028A2008400831700080313E00003173408033C75
:1028B2009E3E840003136008800003173408013C25
:1028C2009E3E840000080313E00003173408023C14
:1028D2009E3E840003136008800003173408013C05
:1028E2009E3E8400320880000430B20A3202031C89
:1028F200442C2F080A168A15A2200A168A119D0056
:10290200840083170008AA001D08013E8400000805
:10291200AB0011080313B8009E30B901B90ADE2FCB
:1029220003139E30B801B80AB901B90ADE2F0313A6
:10293200C200F03A0319D82C3D0BAD2C4208023EDE
:102942000A128A11E5270A168A11FF3A0030031982
:102952000130C000C101BA2C4208023E0A128A119B
:10296200E5270A168A11FF3A0030031D0130C00024
:10297200C101410840040319D82C4208BF000310CA
:10298200BF0C0310BF0C3F08013EB8000030031813
:102992000130B900BA01B91BBA033A08BB00BC0145
:1029A200BC0A0A168A1554220A168A11F52C3D0809
:1029B200A300A40142080A168A15A6210A168A1142
:1029C200C200F03A031DBE2C0330AE002030AF002F
:1029D20000305C260A168A110230AE002030AF00A9
:1029E20000305C260A168A113D03031D102D0C309F
:1029F200AE001530AF0000305C260A168A110B308B
:102A0200AE000E30AF0000305C260A168A110A3082
:102A1200AE002430AF0000305C260A168A1108305E
:102A2200AE000C30AF0000305C260A168A11073067
:102A3200AE000E30AF0000305C260A168A11063056
:102A4200AE001430AF0000305C260A168A11053041
:102A5200AE001430AF0000305C26420808003B088C
:102A6200BF003A08BE003908BD003808BC00023079
:102A7200AE000A30A000A101A201A3013F08A700F5
:102A82003E08A6003D08A5003C08A40027270A1618
:102A92008A112008AF0000305C260A168A110A301B
:102AA200A000A101A201A3013F08A7003E08A600C1
:102AB2003D08A5003C08A400B2260A168A11230884
:102AC200BF002208BE002108BD002008BC00033060
:102AD200AE000630A000A101A201A3013F08A70099
:102AE2003E08A6003D08A5003C08A40027270A16B8
:102AF2008A112008AF0000305C260A168A110630BF
:102B0200A000A101A201A3013F08A7003E08A60060
:102B12003D08A5003C08A400B2260A168A11230823
:102B2200BF002208BE002108BD002008BC001830EA
:102B3200A000A101A201A3013F08A7003E08A60030
:102B42003D08A5003C08A40027270A168A1123087D
:102B5200BF002208BE002108BD002008BC000430CE
:102B6200AE002330AF0000305C260A168A11053011
:102B7200AE000A30A000A101A201A3013F08A700F4
:102B82003E08A6003D08A5003C08A40027270A1617
:102B92008A112008AF0000305C260A168A1106301E
:102BA200AE000A30A000A101A201A3013F08A700C4
:102BB2003E08A6003D08A5003C08A400B2260A165D
:102BC2008A112008AF0000305C260A168A110830EC
:102BD200AE000530A301A201A100A030A0003B0875
:102BE200A7003A08A6003908A5003808A400B226B2
:102BF2000A168A11200AAF0000305C260A168A11D2
:102C02000630AE01AE0AAF0001305C260A168A1108
:102C12000230AE000130AF01AF0A5C260A168A11FB
:102C22000330AE000130AF015C260A168A1104306F
:102C3200AE000230AF0001305C260A168A11053060
:102C4200AE005630AF0001305C260A168A1183129C
:102C520064088316AF000F30AF050630AE000130B6
:102C62005C260A168A110730AE008312640E0F39F1
:102C72008316AF0001305C260A168A110830AE00B6
:102C82005630AF0001305C260A168A11831263089F
:102C92008316AF000F30AF050930AE0001305C265D
:102CA2000A168A110A30AE008312630E0F39831698
:102CB200AF0001305C2E0313B7002F08B500B51327
:102CC2003708B000300EF039B0000F3EB1002E08C8
:102CD2003107B200840083170008B600B3008030C9
:102CE200B305B613B401B40A3708B000300EF03998
:102CF200B0002F3EB1002E083107B20084008008D8
:102D0200031D882E35083606031D882EB4013708A8
:102D1200B000300EF039B0002F3EB1002E0831075E
:102D2200B2008400340880008312DD18A02E8316BE
:102D320035083606031DA02E8312DD10A22E831243
:102D4200DD1483163708B000300EF039B0000F3EA4
:102D5200B1002E083107B200840035083304800028
:102D62000800A901A31FC22EA009A109A209A30953
:102D7200A00A0319A10A0319A20A0319A30AA901A5
:102D8200A90AA71FD12EA409A509A609A709A40A61
:102D92000319A50A0319A60A0319A70A0130A906ED
:102DA200AA01AB01AC01AD012308220421042004D5
:102DB2000319102FA801A80AA31BE52E0310A00DCA
:102DC200A10DA20DA30DDC2E0310AA0DAB0DAC0DAF
:102DD200AD0D23082702031DF82E22082602031D2B
:102DE200F82E21082502031DF82E20082402031CB8
:102DF2000A2F2008A4022108031C210FA502220881
:102E0200031C220FA6022308031C230FA7022A1465
:102E12000310A30CA20CA10CA00CA80BE52E2908F0
:102E220003191E2FAA09AB09AC09AD09AA0A031995
:102E3200AB0A0319AC0A0319AD0A2D08A3002C082A
:102E4200A2002B08A1002A08A0000800A901A71FC0
:102E5200372FA409A509A609A709A40A0319A50AD7
:102E62000319A60A0319A70AA901A90AA31F442F35
:102E7200A009A109A209A309A00A0319A10A031919
:102E8200A20A0319A30A2308220421042004031915
:102E9200792FA801A80AA31B542F0310A00DA10D7E
:102EA200A20DA30D4B2F23082702031D622F220818
:102EB2002602031D622F21082502031D622F20080E
:102EC2002402031C732F2008A4022108031C210FD3
:102ED200A5022208031C220FA6022308031C230FAB
:102EE200A7020310A30CA20CA10CA00CA80B542F38
:102EF20029080319872FA409A509A609A709A40A65
:102F02000319A50A0319A60A0319A70A2708A30089
:102F12002608A2002508A1002408A0000800210814
:102F220020040319AF2FA401A40AA11B9C2F031094
:102F3200A00DA10D952F21082302031DA22F200809
:102F42002202031CAB2F2008A2022108031CA303A8
:102F5200A3020310A10CA00CA40B9C2F2308A10018
:102F62002208A0000800A501A601210820040319D7
:102F7200D92FA401A40AA11BC22F0310A00DA10DD9
:102F8200BB2F0310A50DA60D21082302031DCB2F75
:102F920020082202031CD52F2008A2022108031CAC
:102FA200A303A30225140310A10CA00CA40BC22F8F
:102FB2002608A1002508A00008000313BB00BC01DD
:102FC200BD013C083B07BA00840083170008FF3AA2
:102FD2000319080011303902031808003908AE003D
:102FE2003C083B07BA0084000008AF0038085C26A2
:102FF2000A168A11BC0A0319BD0AB90AE22F0A127B
:103002008A15922A0A128A15932A0A128A15942A72
:103012000A128A15952A0A128A15962A0A128A15FE
:10302200972A0A128A15982A0A128A15992A0A12C6
:103032008A159A2A0A128A159B2A0A128A159C2A2A
:103042000A128A159D2A0A128A159E2A0A128A15BE
:103052009F2A0A128A15A02A0A128A15A12A0A127E
:103062008A11182F0A128A111A2F0A128A112D2F69
:103072000A128A110D2F0A128A110B2F0A128A11B3
:103082002D2F0A128A11182F0A128A111A2F0A12C8
:103092008A112D2F0A128A110D2F0A128A110B2F53
:1030A2000A128A15172F0A128A15182F0A128A1560
:1030B200192F0A128A151A2F0A128A151B2F0A12A1
:0A30C2008A151C2F0A128A151D2F13
:103144000313A000200BAB2839300317D800373005
:10315400DE282008023A031DB1282B30C528200898
:10316400033A031DBA283B300317D8003A30DE284F
:103174002008043A031DC0284130C5282008053A18
:10318400031DC92839300317D8003C30DE28200835
:10319400063A031DD2283B300317D8002A30DE2814
:1031A4002008073A031DDB282B300317D8003B30D7
:1031B400DE2822300317D800D700D7341730A301F4
:1031C400A201A1007030A0003108A7003008A600B9
:1031D4002F08A5002E08A4000A168A11B2260A1682
:1031E4008A152108B7002008B600A030A0000530D9
:1031F400A1003708A3003608A2000A168A119027F6
:103204000A168A1532088400200883178000840A6D
:103214002108800033088400A030A0000530A100FC
:103224003708A3003608A2000A168A11B42720081A
:10323400B4002108B500340A80000800DD138B01B6
:103244000A128A1190260A168A150B3083168100F9
:1032540007309F0085010130860087010317FB308A
:10326400DA01DB01DC01DD010A128A11E5270A1605
:103274008A150317BE00831203135D128316031706
:103284003E1C4729831203135D16831203138E0118
:10329400C8308F0010148316C0300C148B008312B6
:1032A400850186018701243092000A168A15DF26DB
:1032B4000A168A150A168A1590240A128A111228E7
:1032C400F7000330FC00FD017C0877070A128A1519
:1032D400C9240A168A150313A000A101A201A3019F
:1032E4007808A4007908A5007A08A6007B08A7003E
:1032F4002608A7002508A6002408A500A401240880
:10330400A00725080318250FA10726080318260F70
:10331400A20727080318270AA3072308FB0022088B
:10332400FA002108F9002008F800FF30FC07031C0C
:10333400FD03FD1F66297B08F6007A08F50079086D
:10334400F4007808F30008000313A900F03A031D01
:10335400AD29EC30A9002908AA00F030A700A40880
:10336400031DBD292A08EC3A031DBA29AA01C5295F
:103374000430AA07C529AA08031DC329EC30AA00F2
:10338400C5290430AA022A08023E0A128A11E52736
:103394000A168A15A800230BD7292808FF3A0030FB
:1033A40003190130A500A601DE292808FF3A0030E0
:1033B400031D0130A500A601260825040319E529EB
:1033C4002A08A700E9292A082906031DB129270884
:1033D4000800DD01DE018313523084005D300A12DF
:1033E4008A1500200A168A158316EF018317DA302E
:1033F4008400E5300A128A1500200A168A15103056
:10340400840050300A128A1500200A168A15031700
:103414002230BF002230C0002230C1002230C2005E
:103424002230C3002230C4002230C5002230C6003E
:103434002230C7002230C8002230C9002230CA001E
:103444002230CB002230CC002230CD002230CE00FE
:10345400FF30CF002230D0002230D1002230D20001
:10346400FF30D3000030D4000230D500F030D60055
:103474000030D7000030D800FF30D9008312031386
:103484006030DF00EA30E000FF30E1006430E20049
:103494000130E3000130E4000430E50083010A1642
:1034A4008A1520290A128A1190260A168A1583166B
:1034B400BC0A3C08AE000A30A000A101A201A3018D
:1034C4003B08A7003A08A6003908A5003808A4005C
:1034D40097222008AF0000300A168A115C260A16CB
:1034E4008A150A30A000A101A201A3013B08A7008C
:1034F4003A08A6003908A5003808A400D5220A16FF
:103504008A152308BB002208BA002108B900200844
:10351400B8000A30BC0A3C02031808003B083A040D
:1035240039043804031908005B2A230822042104FF
:1035340020040319CC2AA801A80AA31BA72A031054
:10354400A00DA10DA20DA30D9E2A23082702031D81
:10355400B52A22082602031DB52A21082502031DC7
:10356400B52A20082402031CC62A2008A402210824
:10357400031C210FA5022208031C220FA602230804
:10358400031C230FA7020310A30CA20CA10CA00C74
:10359400A80BA72A2708A3002608A2002508A10033
:1035A4002408A0000800A801A901AA01AB0123086E
:1035B4002204210420040319142BAC01AC0AA31B1C
:1035C400E92A0310A00DA10DA20DA30DE02A0310FA
:1035D400A80DA90DAA0DAB0D23082702031DFC2A73
:1035E40022082602031DFC2A21082502031DFC2AA9
:1035F40020082402031C0E2B2008A4022108031C0B
:10360400210FA5022208031C220FA6022308031C73
:10361400230FA70228140310A30CA20CA10CA00CC6
:10362400AC0BE92A2B08A3002A08A2002908A10050
:103634002808A0000800BA000B08BB008B13640024
:10364400F7230A168A1503240A168A15D030E823AC
:103654000A168A150030E8230A168A150030E82372
:103664000A168A153A08E8230A168A152C08E8234C
:103674000A168A152D08E8230A168A158312630888
:10368400E8230A168A1583126408E8230A168A15A1
:103694001630E8230A168A151030E8230A168A150C
:1036A40007248030AE00AE30AF00FE30B000FF30F3
:1036B400B1002C08A0000E30A101A201A301A701B2
:1036C400A601A5001030A4000A168A15AC260A1615
:1036D4008A152008B2002108B3002208B400230888
:1036E400B5002D08A0000130A101A201A301A7018A
:1036F400A6005130A5008030A4000A168A15AC2615
:103704000A168A152008B6002108B7002208B80056
:103714002308B9003A08A0003C30A101A201A3018A
:10372400A400A501A601A7010A168A15AC260A164B
:103734008A152008B60721080318210FB7072208A5
:103744000318220FB80723080318230AB9073608F9
:10375400B20737080318370FB30738080318380FB0
:10376400B40739080318390AB5073208AE07330815
:103774000318330FAF0734080318340FB0073508A4
:103784000318350AB1073108A3003008A2002F0836
:10379400A1002E08A0006430A400A501A601A70181
:1037A4000A168A15AC2623080317DD000313220822
:1037B4000317DC00031321080317DB00031320089D
:1037C4000317DA0003133B088B0008008316A000DC
:1037D40020088312930083161418ED2B11081F3947
:1037E400031DF02B141D0800F02B831603138715FB
:1037F40007169417283083129400273083169300F9
:1038040008001114111C0800042C1115111D0800C6
:10381400082C0B088316AB008B136400831203136C
:103824008230071087108316AA00DD30A900A90B87
:10383400192CAA0B192C1E2C033005270A168A15DD
:1038440021308316AA007630A900A90B272CAA0BD5
:10385400272C6400033005270A168A15B73083160F
:10386400A900A90B332C033005270A168A15423008
:103874008316A900A90B3C2C6400023005270A1604
:103884008A1542308316A900A90B462C64002C30FB
:10389400E9260A168A15423083160313A900A90BD8
:1038A400512C64000830E9260A168A154230831622
:1038B4000313A900A90B5C2C64000130E9260A1645
:1038C4008A15423083160313A900A90B672C6400E0
:1038D4001230E9260A168A15423083160313A9000A
:1038E400A90B722C64008312031301300710871094
:1038F400E9260A168A150D3083160313AA00FB3035
:10390400A900A90B832CAA0B832C882C0B087F39C4
:10391400831603132B0480388B00080083120313CF
:103924005E10831603175D08E4005C08E3005B087F
:10393400E2005A08E100E130B8250A168A15031797
:10394400D60083120313DD1DB42C60085F04031D2D
:10395400B42C83160317DF08031DB42CAE250A16F6
:103964008A15C02C83120313DD19C02C83166F082B
:103974000319C02CEF01DF260A168A158312DD1DF8
:10398400A32C0A168A11AA200A168A156F082D3A42
:10399400031DD32CEF010A128A11DB220A168A15A1
:1039A400A32C6F08283A0319DB2C6F08293A031D4E
:1039B400E32CEF010317F030900144270A168A150F
:1039C400A32C6F082C3A031DEE2CEF018312DD1D8E
:1039D400A32C0430DD06A32C6F081E3A031D042D0E
:1039E400EF0183125D16831603170030DF01831283
:1039F40003135D1A01308316A000FB3068250A16F4
:103A04008A15A32C6F081F3A031D102DEF010A120B
:103A14008A1190260A168A150130272D6F08203A3C
:103A2400031D1C2DEF010A128A1190260A168A150D
:103A34000230272D6F08213A031D2B2DEF010A12A6
:103A44008A1190260A168A15043083160317DF0696
:103A5400A32C6F08223A031D392DEF010A128A1193
:103A640090260A168A1583160317DF01A32C6F0804
:103A7400233A031D4D2DEF01831200305D125D1AB0
:103A840001308316A000FB3068250A128A119026A3
:103A94000A168A15A32C6F082B3A0319552D6F08A3
:103AA400243A031DA32C6F082B3A031D622D031720
:103AB4005D08E4005C08E3005B08E2005A08E100EA
:103AC4000313EF018B250A168A159D2CA1000B0800
:103AD400A2008B13640083160313210883120317B7
:103AE4008D00831603132008831203178C0083169A
:103AF40055308C130C158D00AA308D008C140C11CC
:103B04008C18822D831203130D12831622088B0046
:103B1400080003175D0883120313D50083160317E7
:103B24005C0883120313D400831603175B08831203
:103B34000313D300831603175A0883120313D20006
:103B44004830D207F4300318F530D307FF30031C94
:103B5400D407031CD50708008312031308305D1132
:103B6400E92683120313DD110711080083160313DA
:103B7400DB00F030DE01CA00D6015E080A128A11A9
:103B8400A3270A168A153408D3003308D200320852
:103B9400D1003108D0000430DE07500A0319510A5D
:103BA4000319520A0319530A03198B2E5308A6004A
:103BB4005208A5005108A4005008A300D430A7005F
:103BC400C830A801A900DD30AA01AB00DC30AC018B
:103BD400AD00AE010A128A112F270A168A15DC08D5
:103BE40003198B2EDF015D08CB000130CB050310D8
:103BF400DD0C4B0B862E5408A0005508A1003C3068
:103C0400A201A301A400A501A601A701AC260A16DE
:103C14008A152008C4002108C5002208C60023080C
:103C2400C7005F08A0000130A101A201A301A70100
:103C3400A6005130A5008030A400AC260A168A15CF
:103C44002008C40721080318210FC50722080318F8
:103C5400220FC60723080318230AC7074708A3002F
:103C64004608A2004508A1004408A0006430A4004E
:103C7400A501A601A701AC260A168A152308DA00B5
:103C84002208D9002108D8002008D7004F085A027A
:103C9400031D562E4E085902031D562E4D08580278
:103CA400031D562E4C085702031C5B2ED608031D19
:103CB400862E5B08840083170008C400840A000869
:103CC400C500840A0008C600840A0008C7005A0810
:103CD4004702031D772E59084602031D772E580804
:103CE4004502031D772E570844020318862ED60179
:103CF400D60A5A08CF005908CE005808CD005708F4
:103D0400CC005E08FC3ECA000730DF0A5F02031CD9
:103D1400F52DF0305E02031CBF2D560BA02E5B0860
:103D240084004C0883178000840A4D088000840AAC
:103D34004E088000840A4F088000AA2E5B08840085
:103D440083178001840A8001840A8001840A800127
:103D54004A080800A801A901AA01AB01201CC62E2B
:103D64002408A807250803110318013E031DA90709
:103D7400260803110318013E031DAA07270803118F
:103D84000318013E031DAB070310A40DA50DA60DDA
:103D9400A70D0310A30CA20CA10CA00C2308220451
:103DA40021042004031DB02E2B08A3002A08A2001E
:103DB4002908A1002808A00008000B240A168A1567
:103DC4000C30E92683120313DD150715080083164A
:103DD4000313A800280E0F3905270A168A15423046
:103DE4008316A700A70BF42E640083160313280878
:103DF4000F3905270A168A1542308316A700A70B28
:103E0400012F6400080083160313A1008312871096
:103E14008316A4016400043083160313A500A601CD
:103E2400831603130310A40D2118A40A0310A10C74
:103E34006400FF3083160313A507031CA60326089A
:103E4400803AFF0080307F02031D2A2F01302502B3
:103E54000318122F831203135D19332F8316A20143
:103E6400362F02308316A200A3012408A0000310F9
:103E7400A00D0310200D3C39220483128500071481
:103E84000710080091000A128A1190260A168A1552
:103E9400831603179201920A03179008031D672FD4
:103EA4005E08F03A0319672F03136F082C3A031DB9
:103EB400672FEF01FF30A600A500A400A30003179D
:103EC4005E08E9270A168A15B82F03179008031D00
:103ED400792F03136F08233A031D792FEF0103177A
:103EE400F0309001900A44270A168A15B82F031758
:103EF4005E08F03A0319902F03136F082D3A031D3F
:103F0400902FEF01031711080313C40003175E0871
:103F14000A128A1115200A168A15B82F03136F087E
:103F2400283A031D9C2FEF01031710080313A30065
:103F3400A401A72F6F08293A031DB12FEF0103171E
:103F440010080313A300A401A40A03175E080A16A9
:103F54008A15A6210A168A150317DE00B82F6F08E2
:103F64001E3A031DBC2FEF010317DE01831603174E
:103F74009201920A0317120BD02F10080313BD00ED
:103F8400031711080313BE0003175E080A168A11EB
:103F940098240A168A150317DE00920103136F088A
:103FA4002B3A031D4E2FEF010A128A1190260A168E
:103FB4008A1583160317100BE52FF0309001442760
:103FC4000A168A154E2F90240A168A154E2F0313AB
:103FD400A700A8012308A0002808270768250A16B7
:103FE4008A152408A3002508A4002608A500043087
:0C3FF400A601A80A280203180800EC2F00
:02400E0036DF9B
:00000001FF
