:0400000034EF01F0E8
:0E0008006082E9CF0DF0EACF0EF0ADED1FF0F3
:100018006080D8CF38F0E8CF39F0E0CF3AF0D9CFC8
:100028003BF0DACF3CF0F3CF3DF0F4CF3EF00400E4
:100038009EA006D10301DF2B000EE023E123E2237B
:100048009E90C80ECF263AEC14F00301DB513F5CBA
:10005800346EDC514058356EDD514158366EDE51F4
:100068004258376E37BE0AD03750361005E1710E48
:10007800345C170E355802E3010E01D0000E000162
:100088009A6F9A5104E0C3EC24F00101F293010144
:10009800F2AD8BD0640E551802E0F3A186D00001B2
:1000A800A26BA06BA16B640E551812E0A251100D43
:1000B800A30E346E030E356EF3503426F4503522F9
:1000C800A0513424D96EA1513520DA6EDFA25DD05B
:1000D8000001A251100D000E346E040E356EF3505F
:1000E8003426F4503522A0513424D96EA15135203C
:1000F800DA6EDF509B6FA251400DF350A0258009A6
:10010800EDEC23F00001A251100DA30E346E030E86
:10011800356EF3503426F4503522A0513424D96E6C
:10012800A1513520DA6EDFA018D0A251100DA30E10
:10013800346E030E356EF3503426F4503522A05138
:100148003424D96EA1513520DA6EDFA003D0010125
:10015800F3B303D05F0E00019B6F00019B5176EC57
:100168000BF074EC1FF00001A251100DA30E346EB9
:10017800030E356EF3503426F4503522A051342442
:10018800D96EA1513520DA6EDF920001A04BA12B68
:10019800A1BF89D7A15103E1100EA05D84E3A22B72
:1001A800010EA2657ED70101F391555002E0550674
:1001B80010D0F381640E556EF3B303D0346A342A39
:1001C80001D0346A34460101F3513418FD0B341858
:1001D800F36F4C5002E04C0632D0F46B81AE24D061
:1001E8000F0E4D1802E14D6A01D04D2A4DC09CF00A
:1001F80000019D6B9F6B040E9E6F020E9D03F350D2
:100208009D6F9CB19D2BD8909C339E07D8A09F07CB
:100218009FBF04D09F51F1E19E05EFE29D51020D71
:10022800F3CF81FF54680BD0542809E14DC054F036
:100238005450B5EC20F00101F46F0A0E4C6EF294A4
:100248003EC0F4FF3DC0F3FF3CC0DAFF3BC0D9FF1E
:100258003AC0E0FF39C0E8FF38C0D8FF609010000E
:10026800B2EF18F04AEC21F00201DC51FC0B020954
:10027800DC6FF30EDC170001BC51BD1116E0B8DBD2
:10028800DF50030BBF6FA5DBFC0BBF190201DC6F4E
:10029800AFDB0001DF30E832030BBF6FBF47BF475A
:1002A80098DBF30BBF190201DC6F8CC3ADF18DC372
:1002B800AEF18EC3AFF1AD0E0801006F010E016FF4
:1002C80024EEC2F010EEC3F0110EDBCFE3FFE80618
:1002D800FCE2C30E026F036B23EE66F011EE8CF0A6
:1002E800040EDBCFE3FFE806FCE28C0E046F010E80
:1002F800056F23EE6BF011EE91F0040EDBCFE3FFF8
:10030800E806FCE2910E066F010E076F23EE70F00F
:1003180011EE96F0040EDBCFE3FFE806FCE2960E42
:10032800086F010E096F23EE75F011EE9BF0040EB5
:10033800DBCFE3FFE806FCE29B0E0A6F010E0B6FB2
:1003480023EE7AF011EEA0F0040EDBCFE3FFE8060F
:10035800FCE2A00E0C6F010E0D6F23EE2AF011EED9
:1003680050F0050EDBCFE3FFE806FCE2500E0E6FFF
:10037800010E0F6F23EE7FF011EEA5F0040EDBCF18
:10038800E3FFE806FCE2A50E106F010E116F23EEE5
:1003980030F011EE56F0050EDBCFE3FFE806FCE285
:1003A800560E126F010E136FAD0E146F010E156FFE
:1003B800C30E166F176B23EE36F011EE5CF0050EC8
:1003C800DBCFE3FFE806FCE25C0E186F010E196F45
:1003D80023EE3CF011EE62F0050EDBCFE3FFE806FA
:1003E800FCE2620E1A6F010E1B6F23EE42F011EE53
:1003F80068F0050EDBCFE3FFE806FCE2680E1C6F31
:10040800010E1D6F23EE48F011EE6EF0050EDBCFE6
:10041800E3FFE806FCE26E0E1E6F010E1F6F23EE6F
:100428004EF011EE74F0050EDBCFE3FFE806FCE2B8
:10043800740E206F010E216F23EE54F011EE7AF046
:10044800050EDBCFE3FFE806FCE27A0E226F010E11
:10045800236F23EE5AF011EE80F0050EDBCFE3FF99
:10046800E806FCE2800E246F010E256F23EE60F093
:1004780011EE86F0050EDBCFE3FFE806FCE2860E00
:10048800266F010E276F8FC3AAF190C3ABF191C3FA
:10049800ACF1AA0E286F010E296FDFC2B0F1E0C2DD
:1004A800B1F1B00E2A6F010E2B6FE1C2B2F1E2C2B8
:1004B800B3F1B20E2C6F010E2D6FE3C2B4F1E4C29A
:1004C800B5F1B40E2E6F010E2F6FE5C2B6F1E6C27C
:1004D800B7F1B60E306F010E316FE7C2C6F2E8C24F
:1004E800C7F2C60E326F020E336F9BC3C8F29CC3AD
:1004F800C9F2C80E346F020E356F9DC3CAF29EC38F
:10050800CBF2CA0E366F020E376F9FC3CCF2A0C370
:10051800CDF2CC0E386F020E396FA1C3CEF2A2C352
:10052800CFF2CE0E3A6F020E3B6F0001BE5103E1CF
:100538001F0EBE6F01D0BE070201DD6BDD51040D39
:10054800030E23DAF9D9DDC2DFFFDD51040DF4D93A
:10055800DF90DD51040DF0D9DF82DD5111DAECD9DD
:10056800DF6ADD51040D020E10DAE6D9200EDF6EC7
:10057800DD51040D000E0001BF6F020EC06FF35075
:10058800BF27F450C0230201DD51C9D9BFC0DEFF27
:10059800C0C0DDFFDD2B200EDD65D0D7826BDE6BA2
:1005A800DB6BD06BD16BD26BD36B0001BA51BB1133
:1005B80022E00201D66B17D00201EBD90201D65115
:1005C800040D020EE2D9000EF324E16E020EF420AF
:1005D800E26EDFCFE7FFD651D3D9AED9010EDF6E79
:1005E800D6C2DEF2D62BD5D9DF50E6E1BE510201E4
:1005F800DE5D01E2DE2B0201DB5122E0D0C2A7F072
:10060800D1C2A8F0D2C2A9F0D3C2AAF02C0E000120
:10061800AB6F010EAC6F000EAD6BAE6B00EC1EF055
:1006280000090EE00201DB6BD9D90AE20001BE51D4
:1006380076D910EE01F07BD9E75002E10201DE2BFA
:100648001D0E0101F465A2D0280EF4619FD0F4516B
:100658000201DB190DE1010120EE01F0B851D926A4
:10066800B951DA22DF5001E103D0B84BB92B1DD0C4
:10067800C40EB9D9DC31E832030B0A0D0101F4517B
:10068800F326000EF422D890F336F4360001BF5159
:10069800F326C051F422000EF324D96E080EF4207C
:1006A800DA6EDECFB8F1DDCFB9F10101F451020104
:1006B800DB1933E00001BE5132D910EE01F037D911
:1006C800E7502BE1BE510201DE5D03E2DB5101E0A0
:1006D800DE2B0001BE5123D990D9BEC0BAF111D08A
:1006E800FE0E0001BF6FC0690101BA512CD901018A
:1006F800BA513AD9BA5113D910EE03F018D9E72AEA
:10070800BA070101BA510201DE5DEAE3DE5107D9F9
:10071800D8C2DEFFD9C2DDFF04D00201DE51FFD806
:100728006CD9B8C1D9FFB9C1DAFF3BD9DFCFE7FF30
:10073800DC51030BE80602E1DE5104E0DC51030B57
:10074800020A08E120EE02F03AD92BD9E75002EC70
:100758000FF0DF6E020120EE03F031D9DEC2DFFFB9
:1007680020EE01F02CD9010EDF6EF4C1DBF201019D
:10077800F46B010E53EC24F09EEC24F0A3C0D0F2ED
:10078800A4C0D1F2A5C0D2F2A6C0D3F2840E000153
:10079800A36F020EA46F200EA56F6DEC23F002016B
:1007A800DE51BDD8DECFBFF0DDCFC0F0BFC0D9FF6E
:1007B800C0C0DAFFDF80840E0001AC6F020EAD6F9F
:1007C800200EAE6FAF6B7FEC1EF0280E0101F419FE
:1007D80013E1F46B03D901E30ED7DE51A0D810EE74
:1007E80001F0A5D8E75001E106D7DE2B000E53EC47
:1007F80024F00201DB6BFFD6290EF4190AE1F46B31
:100808000201DE5101E1F7D6DE07000E53EC24F0B9
:10081800F0D72A0EF41922E1F46B0201DA6B200EEC
:10082800DA6501D011D0DA517AD810EE01F07FD80C
:10083800E7500AE0DA5173D810EE02F078D8B8D849
:10084800E7CFDFFFDA2BEBD7B3D8DF6A4AEC21F02A
:100858002F0E0001BA6F010EBB6F12002B0EF41998
:1008680007E1F46B4AEC21F00001BA6BBB6B120094
:100878002C0EF41947E1F46B0201DB5101E0DE2B89
:10088800DE5101E1B8D6FE0EAED8DE515CD8DECF1F
:10089800D4F2DDCFD5F2020120EE01F095D8DF6A5F
:1008A80020EE02F091D8200EDF6E20EE03F08CD8F7
:1008B8001F0EDF6EDE05D76F1F0ED76501D01CD067
:1008C800D7510001BF6FC06BD890BF37C037020E39
:1008D800BF27000EC023840EBF25D96E020EC0218B
:1008E800DA6E0201D75140D8D75119D810EE03F06B
:1008F8001ED8E706D72BE0D7D4C2C2F2D5C2C3F2BE
:10090800DE0777D72D0EF41901E075D6F46BDC0EEF
:100918000001B66F020EB76F6CEC10F06CD6020DCA
:10092800840EF324D96E020EF420DA6E1200DE5023
:10093800E126DD50E2221200000EF324D96E020EE9
:10094800F420DA6E12000001C16FC26BD890C13773
:10095800C237BF51C127C051C223840EC125D96EE9
:10096800020EC221DA6E1200020D840EF324E16E2B
:10097800020EF420E26EDECFE6FFDDCFE5FF1200C7
:10098800040DF32A000EF422000CF326000EF422C4
:10099800000CD6510001BA25D96E000EBB21DA6EC3
:1009A800120010EE02F0D851E126D951E2221200CD
:1009B8002F0EDA25D96EDA6A010EDA221200D85122
:1009C800D926D951DA221200D451D926D551DA22A2
:1009D80012000201DC510001BF1912000001BE51D2
:1009E8000201DE5D12000001BF6FC0690201120042
:1009F800BCC0D9FFBDC0DAFF1200DECFD8F2DDCF10
:100A0800D9F212004AEC21F0F28905DB700E0001E0
:100A180052DBD3EC1AF0CEDA6CC10CF16DC10DF1DA
:100A28006EC10EF16FC10FF10101686B6851040DC1
:100A38003D0E0001BE6F010EDFDA6851020D9BDA30
:100A4800682B040E6865F2D7696B6951040D710E45
:100A58000001BE6F010ED0DA6951020D0A0EBCDA30
:100A68008ADA692B6951F1E06A6B6A51040D140E38
:100A78000001BE6F010EC0DA6A51020D0C0EACDA2D
:100A88007ADA6A2B090E6A65F0D7750E0001A36F32
:100A9800010EA46FB0EC17F0010120EE01F07D51BA
:100AA800D9267E51DA2258DA0A0E000143EC0BF0FF
:100AB800E2EC1CF0A351DF6E86DA0A0E67DAD3EC9B
:100AC8001AF078DA010120EE01F07B51D9267C5129
:100AD800DA2242DA060E000143EC0BF0E2EC1CF0DD
:100AE800A351DF6E70DA060E51DAD3EC1AF062DA2F
:100AF80033DA180E43EC0BF0E2EC1CF0A3C06CF1F7
:100B0800A4C06DF1A5C06EF1A6C06FF1010120EE81
:100B180001F07751D9267851DA221EDA0A0E00013F
:100B280043EC0BF0E2EC1CF0A3515ADA7551D926CC
:100B38007651DA2248DA0A0E3DEC0BF0D3EC1AF0C3
:100B4800A3514EDA7F51D9268051DA220CC1A3F085
:100B58000DC1A4F00EC1A5F00FC1A6F0A00E0001B2
:100B6800A76F050EA86FA96BAA6BD3EC1AF0A3297F
:100B780037DA9351D926945169DA5E50C6EC23F0DE
:100B88002FDA9151D926925172DA5E509EEC22F0FA
:100B9800DF6E010120EE02F08F51D9269051DA2242
:100BA800300EDF6E8FC1D9FF90C1DAFFDF8220EEF1
:100BB80002F08D51D9268E51DA22320EDF6E8DC1A8
:100BC800D9FF8EC1DAFFDF8220EE01F08951D926E4
:100BD8008A513CDA5A50C6EC23F002DA8751D926FA
:100BE800885145DA5A509EEC22F0FAD98351D92619
:100BF80084512CDA5650C6EC23F0F2D98151D9260B
:100C0800825135DA56509EEC22F0DF6E81C152F1E6
:100C180082C153F183C154F184C155F187C156F1A2
:100C280088C157F189C158F18AC159F191C15AF166
:100C380092C15BF193C15CF194C15DF17FC15EF13A
:100C480080C15FF175C160F176C161F177C162F170
:100C580078C163F17BC164F17CC165F17DC166F146
:100C68007EC167F1070E01016B6F3C69DDD9DECFEC
:100C7800BEF0DDCFBFF0BEC0D9FFBFC0DAFFDF8056
:100C8800750E0001B56F010EB66FDEEC15F0090E9A
:100C9800A36F000E55EC23F001013C6F3C2911E0D5
:100CA800C3D910EE01F09BEC04F03CC1E7FF5DD91D
:100CB800EFEC22F00A0E01016B1902E16B6B01D017
:100CC8006B2B280EF4190CE1F46B4FD9EFEC22F0E2
:100CD8000A0E01016B1902E16B6BC8D76B2BC6D7E3
:100CE800290EF4190CE1F46B40D9EFEC22F0010164
:100CF8006B5103E10A0E6B6FB9D76B07B7D72A0E92
:100D0800F41901E0F9D0F46B21D9FDD880D903D9C1
:100D18000101706F0C0E706505D027D9EFEC22F039
:100D2800020E6AD070C151F123EE0DF011EE00F001
:100D38000B0EDBCFE3FFE806FCE202D9E4D863D967
:100D4800EAD80101706F70C1BEF0030E0001BE1732
:100D580003E11D0E0101016F48D9D5D8A4D9DBD80C
:100D68000101706F0001DED8D96E010EC121DA6E63
:100D780001017051DE5C1BE220EE01F094D977D9B5
:100D8800D1D89FD99EEC22F02BD95451D926555150
:100D98005DD9C8D896D9C6EC23F0DF6E750EA96F59
:100DA800010EAA6FEFEC22F001016B6B9FD064D9A2
:100DB800706F070E706505D0D8D8EFEC22F0060EDC
:100DC8001BD049D9A0D867D9A6D80101706F170ED2
:100DD800706505D0CAD8EFEC22F0070E0DD041D9C6
:100DE80092D85DD998D80101706F3B0E706507D015
:100DF800BCD8EFEC22F0090E01016B6F77D0706B55
:100E08000001BE69BF69010137D90001C06FC16B1C
:100E1800BE51C027BF51C123C0C0A3F0C1C0A4F0B8
:100E2800000EA4BFFF0EA56FA66F48EC13F079EC77
:100E380021F0A3C0C2F0A4C0C3F0A5C0C4F0A6C0EE
:100E4800C5F0010120EE01F026D931D904D9A3D883
:100E58001BD979EC21F0A351C225C66FA451C32137
:100E6800C76FA551C421C86FA651C521C96F01011B
:100E780020EE01F014D91BD9F4D88DD83C0E54ECCF
:100E880013F079EC21F0A351C6250101106F000180
:100E9800A451C7210101116F0001A551C821010109
:100EA800126F0001A651C9210101136F10C1A3F0EF
:100EB80011C1A4F012C1A5F013C1A6F0640E00017F
:100EC80054EC13F079EC21F0B8D88FD81CD8EBD8B3
:100ED80022D8566E01013AD816D899D81CD85A6E1D
:100EE80001012ED810D88FD816D85E6E0101705126
:100EF80001E0BCD64AEF21F02B0EF41901E0B6D67A
:100F0800F46B4AEF21F0DA22DF500001BE6F0101D5
:100F180020EE01F01200DA22DF500A0DF350000132
:100F2800BE251200BE69BF69010151510001C06FA1
:100F3800C16BBE51C027BF51C123000EC02512008E
:100F480020EE01F05C51D9265D51120020EE01F02F
:100F58005851D926595112006CC1A3F06DC1A4F0A3
:100F68006EC1A5F06FC1A6F01200750E0001A96F41
:100F7800010EAA6F1200750EF324D96E010EF4202B
:100F8800DA6EBEC0DEFFBFC0DDFF1200A76FA86B20
:100F9800A96BAA6B1200DA22DF50F326000EF422A6
:100FA800F3CFA3F0F4CFA4F00001A4BFFF0EA56F08
:100FB800A66F1200A3C06CF1A4C06DF1A5C06EF1BC
:100FC800A6C06FF112006CC1A3F06DC1A4F06EC190
:100FD800A5F06FC1A6F01200F326000EF422000C53
:100FE800DF6E010120EE01F01200010120EE01F098
:100FF8005451D92655511200BF6FF350BE27F450F3
:10100800BF23010112005A51D9265B5112005651D3
:10101800D926575112003FC0A3F040C0A4F041C0E8
:10102800A5F042C0A6F012006B51020D520EF32437
:10103800D96E010EF420DA6E1200A3C03FF0A4C0EE
:1010480040F0A5C041F0A6C042F01200DA220A0E14
:101058000001A36F0A0C20EE01F06251D9266351FA
:10106800120020EE01F06651D92667511200DA22EB
:101078000A0E0001A36F0A0C20EE01F05E51D9267A
:101088005F51DA22DF501200100EA76F0E0EA86F04
:10109800A96BAA6B0E0C6051D926615112006451DC
:1010A800D926655112005251D92653511200DA221D
:1010B800DF500A0D1200A76F170EA86FA96BAA6B55
:1010C800170CE16E010EC121E26EE7501200200EEE
:1010D800F41919E1800E0201E91905E1EA0503E1B5
:1010E8000101F2A110D00101F46B4AEC21F0F2B138
:1010F80003D0256B252B02D00101256BF251251950
:10110800FE0B2519F26F2D0EF41910E1800E020165
:10111800E91902E1EA050AE00101F2A107D0F46B3E
:10112800E9C21FF1EAC220F192EC16F00101F2B314
:101138000CD0C9EC15F0C2DA72EC12F0CEDAF2A1DA
:1011480003D0F2914AEC21F0F283800E0201E919F2
:1011580002E1EA0503E00101F2B1F5D04E5050106A
:101168000101736FF2A503D0256B252B02D0010175
:10117800256B7351010ED8B4000E251910E04AEC06
:1011880021F0735103E0256B252B02D00101256B5B
:1011980025472547F2512519FB0B2519F26F735185
:1011A80028E084C362F185C363F186C364F187C311
:1011B80065F1010E6E6F7351010B566FD890733342
:1011C800560509E163C162F164C163F16E5182ECB5
:1011D80020F00101646F6E2B030E6E65ECD7620E72
:1011E8000001AC6F010EAD6FAE6B0D0EAF6F94ECDE
:1011F8001CF023EE19F011EE3CF0080EDBCFE3FFF4
:10120800E806FCE20FEC08F0640E33DAD3EC1AF0CF
:10121800FED90A0E34DAE2EC1CF0A35182EC20F07D
:101228000101436F0EDA0A0E24DAD3EC1AF0EFD973
:10123800060E25DAE2EC1CF0A35182EC20F0010145
:10124800426FFFD9060E15DAD3EC1AF0E0D90A0E70
:1012580016DAE2EC1CF0A35182EC20F00101406F99
:10126800F0D90A0E06DAD3EC1AF0D1D9060E07DA4D
:10127800E2EC1CF0A35182EC20F001013F6FE1D9B0
:10128800060EF7D9D3EC1AF0A3C078F1A4C079F10F
:10129800A5C07AF1A6C07BF1D4D9180ECAEC07F024
:1012A800D3EC1AF0A3290101576FC2D9180E000117
:1012B800E6D9E2EC1CF0A3C078F1A4C079F1A5C08E
:1012C8007AF1A6C07BF1B4D90A0ED9D9E2EC1CF0A8
:1012D800A35182EC20F001013D6FB3D90A0EC9D9A0
:1012E800D3EC1AF0A35182EC20F001013C6F4E5070
:1012F8005010736F070E731903E05B6B050E02D075
:101308005B6B040E5A6F3C0E0001AC6F010EAD6FA3
:10131800AE6B5AC1AFF094EC1CF0070E01017319C3
:1013280003E05D6B020E02D05D6B010E5C6F5751DE
:10133800BEEC1EF0A3C0ACF0A4C0ADF0AE6B5CC1B7
:10134800AFF094EC1CF00101F2BFF2B105D0710EC0
:101358000001AC6FFF0E57D1800E0201E91903E1BD
:10136800EA0501E146D124EEE6F011EE45F0100E53
:10137800DBCFE3FFE806FCE2070E0101456F010E33
:10138800606FF2A103D0606BF10E4A6F696B6A6BF4
:101398006B6B6C6B270E0001B06F010EB16F690E9D
:1013A800B26F010EB36FE9C2B4F0EAC2B5F079ECDE
:1013B8001DF069C1A3F06AC1A4F06BC1A5F06CC1AE
:1013C800A6F05E0EA76F010EA86F740EA96F010E2E
:1013D800AA6F610EAB6F010EAC6F6D0EAD6F010E93
:1013E800AE6F40EC1EF0ECC2B1F0EDC2B2F0EEC24E
:1013F800B3F0EFC2B4F0760EB56F010EB66F680E9B
:10140800B76F010EB86FE6EC1FF053D962D909EC3B
:1014180022F0A35182EC20F00101506F35D90A0E59
:10142800A56F9FEC21F050D944D9A66B060EA56F85
:1014380009EC22F0A35182EC20F001014F6F24D96E
:10144800060EA56F9FEC21F03FD93A0E01014E6FB1
:1014580030D900013ED909EC22F0A35182EC20F0EA
:1014680001014D6F11D90A0EA56F9FEC21F0A35110
:1014780082EC20F001014C6F010E6F6F030E6F6557
:1014880001D012D06D51010B586FD8906D335805AB
:1014980009E153C152F154C153F16F5182EC20F06C
:1014A8000101546F6F2BEAD76851BEEC1EF0A3C040
:1014B80066F1A4C067F166C1F6FF67C1F7FF0800CF
:1014C800F5CF47F1010E01016625256F000E672152
:1014D800266F25C1F6FF26C1F7FF0800F5CF48F1B2
:1014E800450E0001AC6F010EAD6F60C1AEF0AF6B81
:1014F80094EC1CF00101F2A1120023EE00F011EEB1
:101508002FF00C0EDBCFE3FFE806FCE2726B0C0E4B
:10151800716F71079FD80A0EA56F09EC22F0A351CD
:1015280082EC20F0BFD80A0EA56F9FEC21F0B3D84B
:1015380091D8060EA56F09EC22F0A35182EC20F099
:10154800B1D8060EA56F9FEC21F0A5D8D8A07207D8
:10155800710780D80A0EA56F09EC22F0A35182EC1E
:1015680020F0DF6E01017107D8A072072F0E7125D8
:10157800D96E010E7221DA6E74C1A3F075C1A4F0A0
:101588000001A66B0A0EA56F9FEC21F0A35182EC17
:1015980020F0DF6EE9C225F1EAC226F10101D890F8
:1015A80026332533D89026332533D8902633253350
:1015B8002529706F0A0E0001A36F01017051C6EC56
:1015C80023F082EC20F00101596F30C131F159C18B
:1015D80030F10A0E0001A36F010170519EEC22F058
:1015E8000101706F7051E6E12F0E0001AC6F010E22
:1015F8000AD00101F2A103D04AEC21F0F2914F0E7A
:101608000001AC6FFF0EDFEC0EF094EF1CF0A3C0EE
:1016180078F1A4C079F1A5C07AF1A6C07BF178C1B0
:10162800A3F079C1A4F07AC1A5F07BC1A6F012009D
:1016380078C1A3F079C1A4F07AC1A5F07BC1A6F066
:10164800120078C1A3F079C1A4F07AC1A5F07BC1DA
:10165800A6F01200D8A072072F0E7125D96E010EC0
:101668007221DA6E74C1A3F075C1A4F00001A66BF3
:1016780012000001A76FA86BA96BAA6B1200A76FD5
:10168800A86BA96BAA6B120076C1A3F077C1A4F06E
:101698000001A66B1200A3C074F1A4C075F101018A
:1016A80071071200DF6E74C1A3F075C1A4F0A66BB8
:1016B800120076C1A3F077C1A4F01200EC0E00016D
:1016C800C06F020EC16F1200A3C076F1A4C077F1FB
:1016D8001200A66B0A0EA56F0A0CC0C0E9F2C1C0C1
:1016E800EAF21200196E1950070AD8B4ED0C270A4D
:1016F800D8B4200C010AD8B4210C030AD8B4220C9F
:10170800010AD8B4230C070AD8B4240C010AD8B4A7
:10171800250C030AD8B4260C0E0AD8B4280C010AE2
:10172800D8B4290C030AD8B42A0C010AD8B42B0C53
:10173800070AD8B42C0C010AD8B42D0C030AD8B463
:101748002E0C010AD8B42F0C1F0AD8B4300C010A89
:10175800D8B4310C030AD8B4320C010AD8B4330C0B
:10176800070AD8B4340C010AD8B4350C030AD8B423
:10177800360C010AD8B4370C0F0AD8B4380C010A51
:10178800D8B4390C030AD8B43A0C010AD8B43B0CC3
:10179800070AD8B43C0C010AD8B43D0C030AD8B4E3
:1017A8003E0C010AD8B43F0C7F0AD8B4400C010A99
:1017B800D8B4410C030AD8B4420C010AD8B4430C7B
:1017C800070AD8B4440C010AD8B4450C030AD8B4A3
:1017D800460C010AD8B4470C0F0AD8B4480C010AC1
:1017E800D8B4490C030AD8B44A0C010AD8B44B0C33
:1017F800070AD8B44C0C010AD8B44D0C030AD8B463
:101808004E0C010AD8B44F0C1F0AD8B4500C010A68
:10181800D8B4510C030AD8B4520C010AD8B4530CEA
:10182800070AD8B4540C010AD8B4550C030AD8B422
:10183800560C010AD8B4570C0F0AD8B4580C010A30
:10184800D8B4590C030AD8B45A0C010AD8B45B0CA2
:10185800070AD8B42F0C010AD8B45D0C030AD8B40F
:101868005E0C010AD8B45F0C3F0AD8B4600C010AB8
:10187800D8B4610C030AD8B4620C010AD8B4630C5A
:10188800070AD8B4640C010AD8B4650C030AD8B4A2
:10189800660C010AD8B4670C0F0AD8B4680C010AA0
:1018A800D8B4690C030AD8B46A0C010AD8B46B0C12
:1018B800070AD8B46C0C010AD8B46D0C030AD8B462
:1018C8006E0C010AD8B46F0C1F0AD8B4700C010A48
:1018D800D8B4710C030AD8B4720C010AD8B4730CCA
:1018E800070AD8B4740C010AD8B4750C030AD8B422
:1018F800760C010AD8B4770C0F0AD8B4780C010A10
:10190800D8B4790C030AD8B47A0C040AD8B4E90C10
:10191800EC0AD8B4270C050AD8B42D0C3F0AD8B461
:10192800A20C030AD8B4C80C1B0AD8B4EF0C080AD6
:10193800D8B4B50C010AD8B4CC0C020AD8B4C90C76
:101948007B0AD8B4410C010AD8B4A00C030AD8B455
:10195800420C010AD8B4A10C070AD8B4E00C010A59
:10196800D8B4450C030AD8B4A30C010AD8B4A40C03
:101978000F0AD8B4A50C010AD8B4A60C030AD8B427
:101988004B0C010AD8B4A70C070AD8B44D0C010AAD
:10199800D8B4480C030AD8B44F0C010AD8B4A80C20
:1019A8001F0AD8B4500C010AD8B4430C030AD8B49F
:1019B800540C010AD8B4A90C070AD8B4AA0C010A15
:1019C800D8B4580C030AD8B4E10C010AD8B4AB0C4B
:1019D8000F0AD8B4AC0C010AD8B4E20C030AD8B484
:1019E800AD0C010AD8B4AE0C070AD8B4C40C010A6D
:1019F800D8B4AF0C030AD8B4B00C010AD8B4B10CEF
:101A08003F0AD8B4610C010AD8B4B20C030AD8B49E
:101A1800B30C010AD8B4B40C070AD8B4E30C010A11
:101A2800D8B4650C030AD8B4B60C010AD8B4B70CFC
:101A38000F0AD8B4B80C010AD8B4B90C030AD8B440
:101A4800BA0C010AD8B4BB0C070AD8B4BC0C010AFA
:101A5800D8B4BD0C030AD8B46F0C010AD8B4BE0CB4
:101A68001F0AD8B4700C010AD8B4630C030AD8B49E
:101A7800BF0C010AD8B4790C070AD8B4E40C010ADF
:101A8800D8B4780C030AD8B4E50C010AD8B4C00C51
:101A98000F0AD8B4C10C010AD8B4E60C030AD8B4AA
:101AA800C20C010AD8B4C30C070AD8B4C40C010A82
:101AB800D8B4C50C030AD8B4C60C010AD8B4C70CEC
:101AC8003F0C4AEC21F096D96B6F676B08016751A0
:101AD80016E16E0E0001B06F080EB16F6BC8B2F060
:101AE8006CC8B3F04EEC20F008017E6B8C6B010ED5
:101AF800676F8E0504E06E6B7E6B7F6B8C6B92C399
:101B08005DF893C35EF894C35FF8790E6B25000106
:101B1800A36FFE0E08016C210001A46FA66B210EB5
:101B2800A56F9FEC21F0A32B000EA423A3C0B0F057
:101B3800A4C0B1F0B26BB36B5D0EB46F080E36EC97
:101B480014F08FEC1BF05D0EAC6F080E47D994ECC7
:101B58001CF008018E0510E16E0E0001AC6F080E36
:101B6800A4EC17F094EC1CF07F0E0001AC6F080E8B
:101B780022D994EC1CF00FD0600E0001AC6FFF0E60
:101B8800A4EC17F094EC1CF0520E0001AC6FFF0EA1
:101B980012D994EC1CF02C0E0101F41919E1F46B24
:101BA80008018E0593E1A30E0001B66FFF0EB76F13
:101BB80009EC23F000098AE03C0E0001B06F080E22
:101BC80013D91AEC20F00801676B4AEC21F07ED794
:101BD8002D0EF41970E1F46B4AEC21F008016851FC
:101BE800FC0B0109686F6851F30B0409686F8E05D7
:101BF80003E0606B616B04D06E0E606F080E616F5E
:101C080060C8BAF061C8BBF0E3D8100EBE6F36ECFE
:101C180001F0D6D801E15AD76D6B0AD0BAD86E0E4A
:101C28006D25E16EE26A080EE222DFCFE7FF6D2B39
:101C3800B0D8DF50F3E16E0E6D25D96EDA6A080E62
:101C4800DA22DF6A6851F30B0809686F8E0503E032
:101C5800626B636B04D07F0E626F080E636F62C89D
:101C6800BAF063C8BBF0B4D80D0EBE6F36EC01F005
:101C7800A7D801E12AD76D6B0AD08BD891D8E16E2D
:101C8800080ED621E26EDFCFE7FF08016D2B81D861
:101C9800DF50F3E185D8D96E080ED621DA6EDF6AF7
:101CA800010E08018E6F6E0E0001B06F080E9CD8F1
:101CB8001AEC20F00BD7200EF41921E1F46B08017F
:101CC8006451F30B0809646F0001BA6BBB6B640EB7
:101CD800BC6F080EBD6F0D0EBE6F36EC01F0BAC0BA
:101CE80065F8BBC066F808016551661101E1EED6DA
:101CF80065C8A6F066C8A7F0FCEC1EF0E7D6210E72
:101D0800F41916E1820E0001B66FFF0EB76F09ECE9
:101D180023F000090DE0F46B08018E0501E0D6D62A
:101D28007F0E0001A66F080EA76FFCEC1EF0CED642
:101D3800280EF4190EE1F46B760E08016B5D030EA4
:101D48006C5905E2210E6B27000E6C233CD752D844
:101D580012D0290EF41911E1F46B880E08016B5D9D
:101D6800010E6C5905E3210E6B5F000E6C5B2BD7DF
:101D7800030E6C6F760E6B6F26D72B0EF41903E1EA
:101D8800F46B4AEF21F01E0EF41901E09FD6F46BB4
:101D9800DED76D516925D96E000E6A21DA6E120000
:101DA8006D510001D56FD66B110ED527000ED623C5
:101DB8006E0ED5251200AD6F010EAE6FAF6B010C24
:101DC800BAC069F8BBC06AF8080169516A11120003
:101DD800680E0001BC6F080EBD6F1200AD6F010EDA
:101DE800AE6F0E0EAF6F0E0CB16F6BC8B2F06CC851
:101DF800B3F01200010E08016C6F870C0001A36F8D
:101E080002D0A35112000001A351410AD8B4610CB9
:101E1800030AD8B4620C010AD8B4630C070AD8B410
:101E2800640C010AD8B4650C030AD8B4660C010A1C
:101E3800D8B4670C0F0AD8B4680C010AD8B4690C76
:101E4800030AD8B46A0C010AD8B46B0C070AD8B4D0
:101E58006C0C010AD8B46D0C030AD8B46E0C010AD4
:101E6800D8B46F0C1F0AD8B4700C010AD8B4710C1E
:101E7800030AD8B4720C010AD8B4730C070AD8B490
:101E8800740C010AD8B4750C030AD8B4760C010A8C
:101E9800D8B4770C0F0AD8B4780C010AD8B4790CE6
:101EA800030AD8B47A0C3B0AD8B4410C030AD8B454
:101EB800420C010AD8B4430C070AD8B4440C010AEE
:101EC800D8B4450C030AD8B4460C010AD8B4470C58
:101ED8000F0AD8B4480C010AD8B4490C030AD8B47C
:101EE8004A0C010AD8B44B0C070AD8B44C0C010AA6
:101EF800D8B44D0C030AD8B44E0C010AD8B44F0C10
:101F08001F0AD8B4500C010AD8B4510C030AD8B42B
:101F1800520C010AD8B4530C070AD8B4540C010A5D
:101F2800D8B4550C030AD8B4560C010AD8B4570CC7
:101F38000F0AD8B4580C010AD8B4590C030AD8B4FB
:101F48005A0CD20AD8B4B80C100AD8B4A80C780A1B
:101F5800D8B4E00C010AD8B4E10C030AD8B4E20CF6
:101F6800010AD8B4E30C070AD8B4E40C010AD8B4BF
:101F7800E50C030AD8B4E60C010AD8B4E70C0F0A3A
:101F8800D8B4E80C010AD8B4E90C030AD8B4EA0CAE
:101F9800010AD8B4EB0C070AD8B4EC0C010AD8B47F
:101FA800ED0C030AD8B4EE0C010AD8B4EF0C1F0AE2
:101FB800D8B4F00C010AD8B4F10C030AD8B4F20C66
:101FC800010AD8B4F30C070AD8B4F40C010AD8B43F
:101FD800F50C030AD8B4F60C010AD8B4F70C0F0AAA
:101FE800D8B4F80C010AD8B4F90C030AD8B4FA0C1E
:101FF800010AD8B4FB0C070AD8B4FC0C010AD8B4FF
:10200800FD0C030AD8B4FE0C010AD8B4FF0C3F0A31
:10201800D8B4C00C010AD8B4C10C030AD8B4C20C95
:10202800010AD8B4C30C070AD8B4C40C010AD8B43E
:10203800C50C030AD8B4C60C010AD8B4C70C0F0AD9
:10204800D8B4C80C010AD8B4C90C030AD8B4CA0C4D
:10205800010AD8B4CB0C070AD8B4CC0C010AD8B4FE
:10206800CD0C030AD8B4CE0C010AD8B4CF0C1F0A81
:10207800D8B4D00C010AD8B4D10C030AD8B4D20C05
:10208800010AD8B4D30C070AD8B4D40C010AD8B4BE
:10209800D50C030AD8B4D60C010AD8B4D70C0F0A49
:1020A800D8B4D80C010AD8B4D90C030AD8B4DA0CBD
:1020B800010AD8B4DB0C070AD8B4DC0C010AD8B47E
:1020C800DD0C030AD8B4DE0C010AD8B4DF0C99D6AB
:1020D8004AEC21F0EAD8DF50030BB86FD9D8FC0BD3
:1020E800B81901012E6FE1D8DF30E832030BB86F61
:1020F800B847B847CDD8F30BB81901012E6FFD0EBC
:10210800F66EFE0EF76E21EE16F0090EEED8FEE220
:10211800E70EF66EFE0EF76E21EE00F0150EE5D80E
:10212800FEE288C328F189C329F18AC32AF18BC347
:102138002BF123EE22F011EE20F0070EDBCFE3FFA8
:10214800E806FCE22C6B2E51030B030D160E000162
:10215800B86F010EB5D82C51C1D8280E01012C2515
:10216800E16EE26A010EE222DFCFE7FF2C2B020EBE
:102178002C65E9D72D6B2E31E832030B070D000EC5
:102188000001B86F010E9CD82D51A8D8200E01016E
:102198002D25E16EE26A010EE222DFCFE7FF2D2B4B
:1021A800060E2D65E8D7280E0001AC6F010EAD6F45
:1021B800AE6B020EAF6F94EC1CF0200E0001AC6FFA
:1021C800010EAD6FAE6B070EAF6F94EC1CF0230ED3
:1021D8000101F4190BE1F46B6ED8020EB86104D05A
:1021E800010169D8B82B1CD0FC0E0ED0240EF419AE
:1021F8000EE180D80001B86F020EB86104D0010169
:1022080066D8B82B1DD0F30E01012E179BD7260ECA
:10221800F4190FE1F46B2E51030B07E04CD8B80703
:1022280037D8FC0BB819010113D02E51FC0B020949
:102238000FD0270EF4190EE15DD807E048D8B8078B
:10224800B837B83725D8F30BEDD72E51F30B08095B
:102258002E6F78D72A0EF41914E1F46B2E511DD87D
:10226800DF18FC0BB819DF6E01012E31E83215D8E2
:10227800B847B847DF50B819F30BB819DF6E4AEF03
:1022880021F02B0EF41901E05DD7F46B4AEF21F031
:1022980001012E510001B8191200030B0001B86F9B
:1022A800B6C0D9FFB7C0DAFF1200B6C0D9FFB7C0B1
:1022B800DAFF000112002E51030B0001B86F120063
:1022C800B96FF350B827F450B923010112002E3129
:1022D8000001B86FB831030BB86F12000001B825C0
:1022E800D96E000EB921DA6E12000900F5CFDEFFB3
:1022F800E8061200F46B2E31E832030B12000101DC
:10230800F297F395F26AF16AF06A9E6AA16A9D6A89
:10231800A06A9F6AA26AD06A4E6A4AEC21F0D08EFF
:10232800F28CF28EF28CCA84CD8EC80ECF6ECE6A35
:10233800CD809D800F0EC16E926A800E936E946A56
:102348005C500001A36F50EC13F048EC13F079ECEB
:1023580021F0A3C0E1F1A4C0E2F1A5C0E3F1A6C059
:10236800E4F15250B6D848EC08F079EC21F0A351CA
:102378000101E125E56F0001A4510101E221E66FA9
:102388000001A5510101E321E76F0001A6510101F8
:10239800E421E86F535000019CD83C0E54EC13F034
:1023A80079EC21F0A3510101E525E96F0001A45161
:1023B8000101E621EA6F0001A5510101E721EB6F58
:1023C8000001A6510101E821EC6F800EE925ED6FAF
:1023D800AE0EEA21EE6FFE0EEB21EF6FFF0EEC2141
:1023E800F06FEDC1A3F0EEC1A4F0EFC1A5F0F0C10C
:1023F800A6F0640E000154EC13F079EC21F021EC06
:1024080008F0896A8A6A8B6A240ECA6E010EA46F64
:10241800860EA36FDAEC23F00101E16FE133E133BB
:10242800F251E1197F0BE119F26F200E0301C36F1E
:10243800040EC46F710EC56F040EC66F000EC76F11
:10244800050EC86F510EC96F050ECA6FA20ECB6F6D
:10245800050ECC6F000ECD6F060ECE6F510ECF6FEE
:10246800060ED06FA20ED16F060ED26F510ED36F2B
:10247800070ED46FA20ED56F070ED66F000ED76F5A
:10248800070ED86F8F0ED96F080EDA6F0101F16B46
:10249800F15117D8DECFA3F0DDCFA4F0510E000123
:1024A800A56FA66B62EC24F00101F12B0B0EF16510
:1024B800EFD743EC24F0A7EC24F016EC15F034EF3A
:1024C80001F0020DC30EF324D96E030EF420DA6E68
:1024D8001200A36FA46BA56BA66B120001011E6B03
:1024E8001F6B010E0E6F800E0D6F176B216B226B29
:1024F800236B246B000E0001B06F010EB16F210E2B
:10250800B26F010EB36F1EC1B4F01FC1B5F079EC04
:102518001DF0080E01011E27000E1F23212907E1C7
:10252800222905E1232903E1242901E191D021C1D0
:10253800A3F022C1A4F023C1A5F024C1A6F0150E72
:102548000001A76F010EA86F0F0EA96F010EAA6FE9
:10255800190EAB6F010EAC6F180EAD6F010EAE6F9A
:1025680040EC1EF00101185173E0206B1951010B6A
:102578000C6FD89019330C0567E120510001A36F47
:102588008BD882D879EC21F0A3C0C2F0A4C0C3F0E4
:10259800A5C0C4F0A6C0C5F015C1A3F016C1A4F02B
:1025A800A56BA66B3C0E7CD879EC21F0A351C22513
:1025B8000101086F0001A451C3210101096F000145
:1025C800A551C42101010A6F0001A651C5210101CD
:1025D8000B6F08C1A3F009C1A4F00AC1A5F00BC193
:1025E800A6F0640E00015CD879EC21F0A3C01AF1C2
:1025F800A4C01BF1A5C01CF1A6C01DF10101115119
:102608001A5D12511B5913511C5914511D5902E3DB
:1026180017511AE14AD81A51DE5C1B51DE581C5179
:10262800DE581D51DE5810E2010E176F1AC111F164
:102638001BC112F11CC113F11DC114F1F80E1E25A6
:102648000D6FFF0E1F210E6F202B060E20658ED7F3
:10265800800E1E5D010E1F5901E248D717050AE1D9
:1026680024D811C1DEFF12C1DEFF13C1DEFF14C181
:10267800DEFF05D01AD8DE6ADE6ADE6ADD6A0DC1C1
:10268800C0F00EC1C1F01200800EA76F510EA86FE6
:10269800010EA96FAA6B010CA46BA56BA66B1200A7
:1026A800A76FA86BA96BAA6B1200C0C0D9FFC1C0E5
:1026B800DAFF12001A6B1B6B156B166B176B186B16
:1026C800050E0001B06F010EB16F150EB26F010E4D
:1026D800B36F00C1B4F001C1B5F079EC1DF0010E83
:1026E8000101196F1C6B050E1C25D96EDA6A010EE3
:1026F800DA22DE2801E0196B1C2B070E1C65F3D7C4
:10270800800E001902E101051CE0020504E119052B
:1027180004E1010E03D01951FCE0000E136F146B95
:10272800135114110EE000C1DAF001C1DBF08AD8B0
:10273800DA2901011A6F000E0001DB2101011B6F6C
:1027480015D000C1C0F001C1C1F002C1C2F0000142
:10275800C46BC36B09EC1AF0C0C000F1C1C001F131
:10276800800E01010019DFE10105DDE11A511B119D
:102778001AE095C30DF196C30EF197C30FF11AC174
:10278800B0F01BC1B1F00001B26BB36B0D0EB46FAA
:10279800010E68D88FEC1BF00D0EAC6F010E5DD8E2
:1027A80094EC1CF007D0F20E0001AC6FFF0E55D868
:1027B80094EC1CF00101020536E1800E031902E1D8
:1027C800040529E0B20E0001AC6FFF0EDFEC0EF03D
:1027D80094EC1CF098C310F199C311F19AC312F14B
:1027E80003C1DAF004C1DBF02DD8DA2B000EDB23AD
:1027F800DAC0B0F0DBC0B1F0B26BB36B100EB46FDF
:10280800010E30D88FEC1BF0100EAC6F010EF2ECFD
:102818000EF094EC1CF0D10E0001AC6FFF0EA4EC8E
:1028280017F094EC1CF0C90E0001AC6FFF0EAD6FF1
:10283800AE6B060EAF6F94EC1CF000C100F101C145
:1028480001F112000001D890DB33DA33D890DB3382
:10285800DA33D890DB33DA331200AD6FAE6B0E0E7D
:10286800AF6F0E0CB56F030EB66F030C0101F2A724
:102878001200F2BF87D0800E475C010E485801E372
:1028880081D00001966B976B986B996B960E256EAD
:1028980047C026F048C027F0800EBFEC1DF00001AD
:1028A800962906E1972904E1982902E1992965E02A
:1028B8009651886F070E9715896F0B0E336EACD83B
:1028C800332EFDD796518A6F070E97158B6F0B0E17
:1028D800336EA2D8332EFDD796517F0B926F070E19
:1028E800336E9AD8332EFDD79651070B936F9351B9
:1028F80044E0925142E03FC019F040C01AF041C094
:102908001BF042C01CF0700E1D6E170E1E6E1F6A63
:10291800206A31EC1BF019C090F01AC091F090C0F9
:1029280019F091C01AF0050E1C6EA00E1B6E28EC53
:1029380022F019C08EF01AC08FF090C019F091C023
:102948001AF0050E1C6EA00E1B6EC4EC21F019289F
:10295800946F945185EC23F00001946F9451921573
:102968000CE088518E5D89518F5907E38E518A5D3D
:102978008F518B5902E393515112040E4726000ED2
:102988004822000CF2BF04D051C08CF0000102D0E4
:1029980000018C6B8D6B8CC050F0516A476A486A95
:1029A8004E505010200D81501F0BF310956F95510C
:1029B800E00B4F182AE059C019F01A6A53C01BF0EF
:1029C80082EC22F058C019F01A6A52C01BF082EC4F
:1029D80022F05DC019F01A6A5CC01BF082EC22F08C
:1029E80057C019F01A6A56C01BF082EC22F05BC07F
:1029F80019F01A6A5AC01BF082EC22F05FC019F075
:102A08001A6A5EC01BF082EC22F000019551E00BBF
:102A18004F6E95C081FF1200D89099339833973341
:102A280096331200010E23EC17F00101F299ADD88C
:102A380062EC0BF072EC12F071EC0BF00101F2BDDC
:102A480005D0F45103E0F46BA7EC24F0F2ADF6D70F
:102A58006BEC08F02D0E0101F41906E1F2B104D077
:102A6800F46B06EC05F0EAD7280EF41908E1F46BCC
:102A7800010E206F800E1F6F92EC16F0DFD7290E23
:102A8800F41904E1F46B65EC0DF0D8D72C0EF419A9
:102A980016E1F46BF2ADD2D7F2BB04D00001DC6BC7
:102AA800DC2B02D00001DC6BDC3BDC470101F2517E
:102AB8000001DC19DF0BDC190101F26FBFD71E0E14
:102AC800F41907E1F46BF28F4E6A68D823EC24F00E
:102AD800B5D7250EF41907E1F2B105D0F46B4AEC2D
:102AE80021F0010E13D0260EF41907E1F2B105D03A
:102AF800F46B4AEC21F0020E09D0270EF41908E114
:102B0800F2B106D0F46B4AEC21F0040E4E1A96D7B7
:102B1800220EF41907E1F2B105D0F46B4AEC21F06A
:102B28004E6A8CD7230EF4190AE1F2B108D0F46B7F
:102B3800F29F34D823EC24F04AEC21F07FD71F0E03
:102B4800F41904E1F46BAFEC24F078D7210EF419F2
:102B580004E1F46B2CEC19F071D72B0EF41908E092
:102B6800240EF41901E06AD7F2AF02D0F2A166D7B9
:102B78002B0EF41906E109D8F2A103D0F2914AEC20
:102B880021F0F46B71EC24F053D73FC0ECF240C055
:102B9800EDF241C0EEF242C0EFF21200010E000168
:102BA800A46F860EA36F0101000EF2BF010E000193
:102BB800A56F1200BC6B80D8DECFB9F0DDCFBAF0BC
:102BC800B9C0D9FFBAC0DAFFDFB219D075D810EE94
:102BD80002F09BEC04F0BC51020DB5C0B9F0B6C0D0
:102BE800BAF0F350B927F450BA230C0EB925D96EB0
:102BF800000EBA21DA6E7ED882EC20F0E76E5CD83F
:102C080010EE03F09BEC04F0BCC0E7FFBC2B090EF0
:102C1800BC65D1D7BD6B65D8DECFB7F0DDCFB8F0D6
:102C2800B7C0D9FFB8C0DAFFDFB20AD05AD810EE61
:102C380002F09BEC04F055D85DD882EC20F0E76EEA
:102C4800BD51020DF350B525D96EF450B62145D8C3
:102C58009BEC04F0BDC0E7FFBD2B040EBD65DBD7C0
:102C680051D826EC18F09BEC04F04CD8DA2242D864
:102C780082EC20F0E76E46D8DA2210EE03F09BECE7
:102C880004F0E76A0C0E44D80A0EAE6F010EAF6F5F
:102C98007FEC1EF0B5C0ACF0B6C0ADF0050EAE6F5F
:102CA800150EAF6F7FEC1EF00A0E32D8010EAE6F14
:102CB800120EAF6F7FEF1EF0BC51020DB5C0B7F01A
:102CC800B6C0B8F0F350B727F450B8230C0EB725A8
:102CD800D96E000EB821DA6E1200DA6E10EE03F02B
:102CE8001200BD51020DF350B525D96EF450B6212E
:102CF800DA6E120000EE01F0DE50E926DD50EA221D
:102D0800EF50120020EE0AF0B551D926B651120044
:102D1800B525AC6F000EB621AD6F12004AEC21F05C
:102D2800800E1F1902E1200504E01FC143F020C1F5
:102D380044F043C000F144C001F10101026B010EEF
:102D4800046F800E036F5EEC13F000C143F001C105
:102D580044F0800E431802E1440415E02C0E0101F2
:102D6800F41911E1930E0001B66FFF0EB76F09EC6D
:102D780023F0000908E0F46B43C0B0F044C0B1F0A0
:102D88009DEC23F0D6D7230E0101F41908E1F46B6A
:102D9800010E1E6F800E1D6FEBEC1BF0CAD7800E64
:102DA800431802E144040BE0210EF41908E1F46B26
:102DB80043C01DF144C01EF1EBEC1BF0BAD7800EE6
:102DC800431802E1440410E02D0EF4190DE1F46BF0
:102DD80043C0A3F044C0A4F0010E0001A66F800E0A
:102DE800A56FC5EC24F0A5D7280EF41905E11ED867
:102DF800C36B09EC1AF008D0290EF4190AE116D8A9
:102E0800010EC36F09EC1AF0C0C043F0C1C044F012
:102E180090D72B0EF41903E1F46B4AEF21F01E0E44
:102E2800F41987E1F46B436A446A83D7F46B43C0AF
:102E3800C0F044C0C1F00001C26BC46B12000001B5
:102E4800BD6FBD5109E04AEC21F00A0E0001AC6FDC
:102E5800FF0E76D894EC1CF0FB0E0001A36FFF0E5A
:102E680073D833EC24F0B86B140EB76F47EC22F02C
:102E780057D833EC18F0000913E1BD514CE068D87D
:102E880047EC22F04AEC21F0240E0001AC6FFF0E53
:102E980057D894EC1CF000015BD847EC22F03BD0EB
:102EA8000101F3850001BD5109E04AEC21F03B0E18
:102EB8000001AC6FFF0E44D894EC1CF0D80E000152
:102EC800A36FFF0E41D833EC24F02AD833EC18F066
:102ED8000009FBE02ED8040EAF6F94EC1CF0BF0E77
:102EE8000001A36FFF0E30D833EC24F019D833EC6F
:102EF80018F00009FBE01DD8080EAF6F94EC1CF029
:102F08000001BD51D8B41200B86B780EB76F47EC0A
:102F180022F04AEF21F0BD5102E04AEF21F0120001
:102F2800070EA86FFF0EA96FAA6BAB6B0A0EAC6FEA
:102F38000A0CF80EAC6FFF0EAD6F010EAE6F010CF0
:102F4800AD6FAE6BAF6B1200A46F010EA56F010CD5
:102F5800B86BC80EB76FC80CA96B5BD8DF9059D88F
:102F6800DF92A92B090EA965F8D7AA6B6FD848D8A4
:102F7800DF906CD845D8DF92AA2B040EAA65F6D745
:102F880020EE0AF030D8DF9020EE0AF02CD8DF923D
:102F980020EE04F0A351D926A45154D89BEC04F098
:102FA8003A0EE76E20EE04F01ED8DF8220EE16F00F
:102FB800A351D926A45146D89BEC04F02F0EE76EF6
:102FC80020EE16F010D8DF8220EE10F0A351D9269B
:102FD800A45138D89BEC04F02F0EE76E20EE10F0C9
:102FE80002D8DF821200A351D926A451DA22DECFFB
:102FF800A5F0DDCFA6F0A5C0D9FFA6C0DAFF120064
:10300800DECFA5F0DDCFA6F0A5C0D9FFA6C0DAFFB8
:103018001200A951020DA3C0A5F0A4C0A6F0F35058
:10302800A527F450A6230C0EA525D96E000EA621BF
:10303800DA6EDECFA7F0DDCFA8F0A7C0D9FFA8C011
:10304800DAFF1200DA2210EE02F01200AA51020D85
:10305800F350A325D96EF450A421DA6E1200A8C04B
:10306800B8F0A9C0B9F002D0B84BB92BB829AD6FE8
:10307800000EB921AE6F68D8F550F6E1ACC0B0F0DB
:10308800ACC0B1F0B0C0B5F04DD0B55165EC12F0A0
:10309800DECFB6F0DDCFB7F0B26BBB6B14D04DD836
:1030A80053D8F5CFB4F0BB514F08BA6F3FD8DF50B3
:1030B800AF6FAF51B41906E0100EB41903E0010E5A
:1030C800B26F0AD0BB2B39D8A851AD5DA951AE5902
:1030D80003E34F0EBB65E3D7B25123E1AA51AB110D
:1030E80018E0AAC0A3F0ABC0A4F034D862EC24F076
:1030F800B36B4F0EBA6501D00CD018D8B351AA25BE
:10310800E16E000EAB21E26EDFCFE7FFB32BBA2BE7
:10311800F0D7B6C0A3F0B7C0A4F01CD862EC24F076
:10312800010CB52BB551B15DB0E2000CBA51B62512
:10313800D96E000EB721DA6E1200BB51B85DAD6FC3
:10314800000EB959AE6F1200ADC0F6FFAEC0F7FF62
:1031580008001200510EA56FA66B510C08EE8FF0F7
:10316800510EEE6AE806FDE107EE00F0F30EEE6A96
:10317800E806FDE106EE00F0F30EEE6AE806FDE172
:1031880005EE00F0F30EEE6AE806FDE104EE00F04D
:10319800C20EEE6AE806FDE103EEA3F0400EEE6A09
:1031A800E806FDE10201EF6BEE6BED6BEC6B0101E4
:1031B800F46BF36BF26B00EE3FF0150EEE6AE80667
:1031C800FDE1A80EF66E450EF76E000EF86E04EEE1
:1031D800C2F010EE35F00900F5CFEEFFE550E150F2
:1031E800FAE1840EF66E380EF76E000EF86E03EEF6
:1031F80000F010EEA3F00900F5CFEEFFE550E15026
:10320800FAE16C0EF66E490EF76E000EF86E02EEDD
:10321800DFF010EE0DF00900F5CFEEFFE550E150BC
:10322800FAE1790EF66E490EF76E000EF86E00EEB2
:1032380054F010EE0CF00900F5CFEEFFE550E15028
:10324800FAE160906092000EF86E000183EF11F0D1
:103258004AEC21F0DB6B0201EB5165EC12F0DECF9A
:10326800D5F0DDCFD6F0300E0001D5250101DE6F97
:10327800000E0001D6210101DF6FE06BDEC1D9FF2E
:10328800DFC1DAFFBB0EE025E16EE26A010EE22241
:10329800DFCFE7FFDE4BDF2B43D8DF5003E140D819
:1032A800200EDF6EE02B1F0EE065E8D7BB0E000195
:1032B800AC6F010EA4EC17F094EC1CF02D0E01017C
:1032C800F41915E1F46B0001BA6BBB6BBC6BBD6BF9
:1032D800BE6B36EC01F0BAC0DCF1BBC0DDF1DCC17D
:1032E800A3F0DDC1A4F0A56B33EC24F0B4D7280E0D
:1032F800F41907E1F46B0B0E0201EB61ACD7EB2B71
:10330800AAD7290EF41906E1F46B0201EB51A3E0E8
:10331800EB07A1D72B0EF4199EE1F46B4AEF21F0CD
:10332800BB0EE025D96EDA6A010EDA2212000A6EA7
:103338000D0E0A1803E14BA44B8033D00A0E0A186D
:1033480005E14BA003D04BA44B822BD04B944BB040
:1033580002D04BA202D04B904B920A0E0A1821E0E1
:103368000B6A0B500301D925066E000EDA21076E91
:103378000628D96E000E0720DA6E0B50D925E16EAB
:10338800000EDA21E26EDFCFE7FF0B2A4E0E0B6448
:10339800E8D720EE4FF0D951D926DA51DA220AC0FF
:1033A800DFFF4BB04BA212004B904B924B84C3C330
:1033B80008F0C4C309F00C6A0C50066E076AD8906E
:1033C80006360736C50E0624D96E030E0720DA6EB8
:1033D8000C50020DC30EF324E16E030EF420E26ECE
:1033E800DECFE6FFDDCFE5FF0C2A0B0E0C64E4D739
:1033F80008C0D9F309C0DAF3D9C301F0DAC302F07F
:10340800510E036E046A8FEF24F0800EC01906E196
:10341800C10504E1010EC16F780EC06FC0C0D8F0BD
:10342800C1C0D9F0010ECF6F800ECE6FC351C41149
:103438000DE1780ED81905E1D90503E1D86BD96BF0
:1034480011D0080ED827000ED9230CD0D851D91185
:1034580005E1010ED96F780ED86F04D0080ED85F39
:10346800000ED95BD26BD36BD46BD56BC60EB06F25
:10347800B16BD20EB26FB36BD8C0B4F0D9C0B5F08F
:1034880079EC1DF0010ED66FD76BD751C60FD96EE8
:10349800DA6ADE2801E0D66BD72B070ED765F5D799
:1034A800C20504E1D60504E1010E03D0D651FCE0C3
:1034B800000ED06FD16BD051D11105E0D8C0CEF03D
:1034C800D9C0CFF006D0C051D819B0E1C151D9192F
:1034D800ADE1CEC0C0F0CFC0C1F01200F2CFA8F06D
:1034E800F29EF29C829082940001A76BD70EE82E80
:1034F800FED7A72FFCD700F0030E3DEC23F0400EBB
:10350800A76FF50EE82EFED7A72FFCD700F0030E05
:103518003DEC23F0D80E00D0E82EFDD700D000F007
:10352800030E3DEC23F0830EE82EFED700F0020ECA
:103538003DEC23F0830EE82EFED700F02C0EB2EC03
:1035480023F0830EE82EFED700F0080EB2EC23F02D
:10355800830EE82EFED700F0010EB2EC23F0830EA6
:10356800E82EFED700F0120EB2EC23F0830EE82E00
:10357800FED700F082908294010EB2EC23F01A0E6E
:103588000001A76F940EE82EFED7A72FFCD700D016
:10359800F2507F0B0001A8118009F26E1200AC6B8B
:1035A800AAAF0AD0AA1FA91FA81FA76D000EA8239B
:1035B800A923AA23010EAC6FA6AF0AD0A61FA51F88
:1035C800A41FA36D000EA423A523A623010EAC1BE4
:1035D800AD6BAE6BAF6BB06BA751A811A911AA1157
:1035E80029E0010EAB6F06D0D890A737A837A937C6
:1035F800AA37AB2BAAAFF8D7D890AD37AE37AF37CD
:10360800B037A751A35DA851A459A951A559AA51EA
:10361800A65909E3A751A35FA851A45BA951A55BCB
:10362800AA51A65BAD81D890AA33A933A833A73392
:10363800AB2FE2D7AC5108E0B01FAF1FAE1FAD6D86
:10364800000EAE23AF23B023ADC0A3F0AEC0A4F0EC
:10365800AFC0A5F0B0C0A6F01200226A20AE0AD012
:10366800201E1F1E1E1E1D6C000E1E221F22202241
:10367800010E226E1CAE0AD01C1E1B1E1A1E196CCF
:10368800000E1A221B221C22010E221A236A246A07
:10369800256A266A1D501E101F10201029E0010EF1
:1036A800216E06D0D8901D361E361F362036212AA8
:1036B80020AEF8D7D89023362436253626361D5026
:1036C800195C1E501A581F501B5820501C5809E3EB
:1036D8001D50195E1E501A5A1F501B5A20501C5A52
:1036E8002380D89020321F321E321D32212EE2D77D
:1036F800225008E0261E251E241E236C000E2422BC
:103708002522262223C019F024C01AF025C01BF058
:1037180026C01CF0120054D8FF0EB725D96EFF0E34
:10372800B821DA6EDF5001E1B607010EB96F48D84B
:10373800B951B75DD96EB851D8A0B805DA6EB0C026
:10374800A3F0B1C0A4F0B2C0A5F0B3C0A6F00A0EB1
:10375800A76FA86BA96BAA6B19EC21F0A35182EC97
:1037680020F0DF6EB0C0A3F0B1C0A4F0B2C0A5F0E5
:10377800B3C0A6F00A0EA76FA86BA96BAA6B39ECA9
:103788001FF0A3C0B0F0A4C0B1F0A5C0B2F0A6C0AD
:10379800B3F0B92BB951B6C0B7F0B86BB75F000E2C
:1037A800B85BB72BB823B8BF000CB85103E1B70515
:1037B800D8A01200B051B111B211B311B8E1120082
:1037C800B651B425B76F000EB521B86F12004AEC98
:1037D80021F045C000F146C001F1010E0101026F60
:1037E8001DC103F11EC104F15EEC13F000C145F0E8
:1037F80001C146F0800E451802E1460416E02D0E80
:103808000101F41912E1F46B45C0A3F046C0A4F01D
:103818001DC1A5F01EC1A6F0C5EC24F0E806D9E14B
:1038280024D8C36B09EC1AF00ED0280E0101F41944
:1038380002E1F46BF5D7290EF4190AE1F46B15D8F7
:10384800C36F09EC1AF0C0C045F0C1C046F0C1D73B
:103858002B0EF41903E1F46B4AEF21F01E0EF41954
:10386800B8E1F46B456A466AB4D745C0C0F046C0B3
:10387800C1F0010E0001C26FC46B010CB9202020F9
:10388800EFEE202D2D3A2D2D001F1C1F1E1F1E1F71
:103898001F1E1F1E1F2D2D3A2D2D3A2D2D002020C5
:1038A8002020202020007071727337007778797A91
:1038B8003900E0E1E2E33200E4E5E6E73300E8E975
:1038C800EAEB3400ECEDEEEF3500F0F1F2F3360000
:1038D800F4F7F6F73700F8F9FAFB3800FCFDFEFFBD
:1038E8003900616263320064656633006768693471
:1038F800006A6B6C35006D6E6F3600747576380033
:103908002020200020202000203000302B00202004
:0F39180000202000202000360037003800390042
:10392800B36BB46B2DD0AEC0B5F00001AE6B010E19
:10393800B56501D025D0AFC0B2F0AF6B12D0B2C020
:10394800A3F0000127D8F76403D00800F55001D090
:103958002FD80001A46FB5512FEC1DF0B34BB42B39
:10396800B22B100EB26109D015D8F76403D0080045
:10397800F55001D01DD80009E2E10001B52BD7D7D9
:1039880009D8F76403D00800F55001D011D8000910
:10399800CAE11200B351AC25B06FB451AD21B16F7B
:1039A800B0C0F6FFB1C0F7FF000EF86E0F0E1200A0
:1039B800F6CFE9FFF7CFEAFFEF501200AC6BA6AFE6
:1039C80003D040D8010EAC6FAAAF08D0AA1FA91F18
:1039D800A81FA76D000EA823A923AA23A751A811E1
:1039E800A911AA1123E0010EAB6F06D0D890A73712
:1039F800A837A937AA37AB2BAAAFF8D7A751A35D29
:103A0800A851A459A951A559AA51A65908E3A751E3
:103A1800A35FA851A45BA951A55BAA51A65BD89046
:103A2800AA33A933A833A733AB2FE8D7AC5101E0A9
:103A380009D8A3C0A3F0A4C0A4F0A5C0A5F0A6C04F
:103A4800A6F01200A61FA51FA41FA36D000EA42395
:103A5800A523A623000CAB6FA4C0AAF039D82CD894
:103A6800DF50A96F010EA76F3AD826D8DFB204D06D
:103A7800A951AA1901E1A76B000131D81DD8A7B136
:103A880002D0DF9201D0DF82010E0001A86F010190
:103A9800F3B105D00001A951AA1901E1A86B0001F1
:103AA800A8B103D00101F39102D00101F38110D82C
:103AB80003D8AAC0DFFF1200A66FF350A527F45061
:103AC800A623A351A525D96E000EA621DA6E1200F1
:103AD8000001AB51100D000EA56F040E1200AB5182
:103AE800100DA30EA56F030E1200B0C0A7F0B1C051
:103AF800A8F0B4C0A9F0B5C0AAF0AC6B080EAB6FC3
:103B0800B9EC22F0BF6B030EBE6FBE51B025D96E63
:103B1800BF51B121DA6EDF5029D8DECFB6F0DECF43
:103B2800B7F0DECFB8F0DECFB9F0B8C0B9F0B7C0A3
:103B3800B8F0B6C0B7F0B66BB625BA6F000EB721AD
:103B4800BB6F000EB821BC6F000EB921BD6F0ED837
:103B5800BAC0DEFFBBC0DEFFBCC0DEFFBDC0DEFFFB
:103B6800BE07D8A0BF07BFBF1200CFD7B2C0D9FFCA
:103B7800B3C0DAFF1200306E26C01DF027C01EF059
:103B8800206A080E1F6E305023EC23F0326A030EB1
:103B9800316E2550D96EDA6ADECF28F0DECF29F0F3
:103BA800DECF2AF0DECF2BF02AC02BF029C02AF076
:103BB80028C029F0286A30503124D96EDA6ADF50DB
:103BC80028242C6E000E29202D6E000E2A202E6E21
:103BD800000E2B202F6E2550D96EDA6A2CC0DEFF1E
:103BE8002DC0DEFF2EC0DEFF2FC0DEFF3106D8A0BD
:103BF800320632BE1200CDD79EEC24F0A3C0B3F03B
:103C0800A4C0B4F0A5C0B5F0A6C0B6F00001A75195
:103C1800B35DA851B459A951B559AA51B65919E279
:103C2800A751B35DAF6FA851B459B06FA951B55939
:103C3800B16FAA51B659B26FFF0EAF25B36FFF0E21
:103C4800B021B46FFF0EB121B56F0F0EB221B66F60
:103C580008D0A751B35FA851B45BA951B55BAA516D
:103C6800B65BAB51B35DAC51B459AD51B559AE511A
:103C7800B659D8B0010C000C25D8A7C0D9FFA8C0E8
:103C8800DAFF32D82BD8AF2FFDD71CD8A9C0D9FF5F
:103C9800AAC0DAFF29D822D8AF2FFDD7A3517F0BAE
:103CA800ABC0D9FFACC0DAFFDF6E070EAF6F16D816
:103CB800AF2FFDD7A351070BADC0D9FFAEC0DAFFB8
:103CC800DF6E1200AF69070EB06FA3C0B1F0A4C0D9
:103CD800B2F0AF51B117B051B2171200D890A63355
:103CE800A533A433A3331200B1C0DEFFB2C0DDFF99
:103CF8000B0EAF6F0B0CB46B31D034D871EC16F0DF
:103D08009BEC04F0E750AF25B36FB3390F0BB26FDC
:103D1800B20502E1100EB35FB3C0A3F023D8DA6E88
:103D280010EE02F09BEC04F0E750A46FB2512FECB8
:103D38001DF0B3C0A3F016D8DA6EDECFB0F0DDCF39
:103D4800B1F0B0C0D9FFB1C0DAFF000EDFB0010E8C
:103D5800A46FB251E9EC21F00001B42BAE51B45D6F
:103D6800CCE31200B451020DF350AC25D96EF450D7
:103D7800AD2112000001A56FA50505E1E00EA36FB6
:103D8800FF0EA46F1200020EA51905E1E90EA36F3C
:103D9800FF0EA46F1200030EA51905E1E30EA36F31
:103DA800FF0EA46F1200040EA51905E1EF0EA36F14
:103DB800FF0EA46F1200050EA51905E1EC0EA36F06
:103DC800FF0EA46F1200060EA51905E1DD0EA36F04
:103DD800FF0EA46F1200070EA51905E1E60EA36FEA
:103DE800FF0EA46F1200F50EA36FFF0EA46F120052
:103DF8000001A651A71101E1120024EED4F010EE43
:103E0800A9F0110EDBCFE3FFE806FCE2BB6B07D09D
:103E180025D81DD8E16EE26ADFCFE7FFBB2B1ED89D
:103E2800DF50F6E114D8D96EDA6A3B0EDF6EBBC0FC
:103E3800A8F0040EA827A851A90FD96EDA6ADF6A7C
:103E4800A90EA36FA46B010EA56F33EF24F0BBC0BE
:103E5800A8F0030EA827A851A90F1200BB51A62548
:103E6800D96E000EA721DA6E1200AB6BAC6BAD6B8E
:103E7800AE6BA751A811A911AA1129E0010EAF6FC5
:103E880006D0D890A737A837A937AA37AF2BAAAF3B
:103E9800F8D7D890AB37AC37AD37AE37A751A35D5D
:103EA800A851A459A951A559AA51A65909E3A7513E
:103EB800A35FA851A45BA951A55BAA51A65BAB81DE
:103EC800D890AA33A933A833A733AF2FE2D7ABC012
:103ED800A3F0ACC0A4F0ADC0A5F0AEC0A6F012002F
:103EE800206E82840101F2BB03D01C6A1D6A03D0D4
:103EF8001D6A200E1C6E2038E8461F0B1E0B1C1076
:103F080022D880EC24F019D880EC24F082840101B6
:103F1800F2BB03D01E6A1F6A03D01F6A200E1E6EF2
:103F28002050100DF338E8461F0B1E0B1E100BD83F
:103F380080EC24F002D880EF24F0829082941A6AF0
:103F4800050E196E190C806E82801A6A010E196EA0
:103F58000A0C0600E1CF0FF0E2CF10F0D9CF11F034
:103F6800DACF12F0F3CF13F0F4CF14F0F6CF15F048
:103F7800F7CF16F0F8CF17F0F5CF18F004009EAA87
:103F880004D0AE509BEC19F003D09EB8E7EC20F0BB
:103F980018C0F5FF17C0F8FF16C0F7FF15C0F6FFE9
:103FA80014C0F4FF13C0F3FF12C0DAFF11C0D9FF29
:103FB80010C0E2FF0FC0E1FF0EC0EAFF0DC0E9FF2D
:103FC80060921100B1C0A3F0B2C0A4F0B3C0A5F0D4
:103FD800B4C0A6F0700E5FEC08F0D3EC1AF0A3C0E2
:103FE800B9F0A4C0BAF0B9C0A3F0BAC0A4F0050EE5
:103FF800A66FA00EA56F09EC22F0B5C0D9FFB6C018
:10400800DAFFA3C0DEFFA4C0DDFFB9C0A3F0BAC0C9
:10401800A4F0050EA66FA00EA56F9FEC21F0A329B2
:10402800B7C0D9FFB8C0DAFFDF6E1200B0C0A7F082
:10403800B1C0A8F0B2C0A9F0B3C0AAF0AC6B110E21
:10404800AB6F65EC22F0110EB227000EB323110EF0
:1040580016D80E0EAB6F65EC22F00E0EB227000ECE
:10406800B3231F0E0CD8010EAB6F65EC22F0B24BD8
:10407800B32B200E04D8010EAB6F65EF22F0B025EC
:10408800A76F000EB121A86FB2C0A9F0B3C0AAF003
:10409800AC6B1200B0C0A7F0B1C0A8F0B2C0A9F0D4
:1040A800B3C0AAF0AC6B110EAB6FB9EC22F0110ED5
:1040B800B227000EB323110E16D80E0EAB6FB9EC53
:1040C80022F00E0EB227000EB3231F0E0CD8010EDD
:1040D800AB6FB9EC22F0B24BB32B200E04D8010E13
:1040E800AB6FB9EF22F0B025A76F000EB121A86F12
:1040F800B2C0A9F0B3C0AAF0AC6B12000001A36F64
:10410800A351D8B4300C010AD8B4310C030AD8B47E
:10411800320C010AD8B4330C070AD8B4340C010A9B
:10412800D8B4350C030AD8B4360C010AD8B4370C05
:104138000F0AD8B4380C010AD8B4390C030AD8B419
:10414800410C010AD8B4420C070AD8B4430C010A3E
:10415800D8B4440C030AD8B4450C010AD8B4460CA8
:104168003F0C196E1950D8B4270C010AD8B42B0C7F
:10417800030AD8B42A0C010AD8B4290C070AD8B4FF
:10418800280C010AD8B42D0C030AD8B4210C010A52
:10419800D8B4240C0F0AD8B41F0C010AD8B4200CC8
:1041A800030AD8B4230C010AD8B4220C070AD8B4DD
:1041B800260C010AD8B41E0C030AD8B42C0C010A28
:1041C800D8B4250C000C49504A1004E1ACA202D026
:1041D800AC9A120022D8F76403D00800F55002D038
:1041E800DCEC1CF0000909E1ACA2FED70D0EAD6EA7
:1041F8000A0EAD6E496A4A6A120049504A10D8B48C
:1042080012000BD8F76403D00800F55002D0DCEC9C
:104218001CF0AD6E494A4A2A120049C0F6FF4AC04E
:10422800F7FF000EF86E0F0E1200A751A811A91182
:10423800AA1123E0010EAB6F06D0D890A737A83794
:10424800A937AA37AB2BAAAFF8D7A751A35DA851B6
:10425800A459A951A559AA51A65908E3A751A35F82
:10426800A851A45BA951A55BAA51A65BD890AA3313
:10427800A933A833A733AB2FE8D7A3C0A3F0A4C0B2
:10428800A4F0A5C0A5F0A6C0A6F012000001A56B79
:10429800A66BA551100D000EA36F040E14D8200EA6
:1042A800DF6E1DD810D8DF90000119D80CD8DF8236
:1042B800A62B0F0EA665EDD7A52B010EA565E8D791
:1042C8000101F381010CA46FF350A327F450A42338
:1042D800A651A325D96E000EA421DA6E1200A551AD
:1042E800100DA30EA36F030E1200AB6BAC6BAD6B7E
:1042F800AE6BA3A108D0A751AB27A851AC23A951F5
:10430800AD23AA51AE23D890A737A837A937AA3723
:10431800D890A633A533A433A333A351A411A51170
:10432800A611E7E1ABC0A3F0ACC0A4F0ADC0A5F006
:10433800AEC0A6F01200A86BA96BA551A6111BE090
:10434800010EA76F04D0D890A537A637A72BA6AF24
:10435800FAD7D890A837A937A551A35DA651A45973
:1043680005E3A551A35FA651A45BA881D890A63305
:10437800A533A72FEED7A8C0A3F0A9C0A4F01200B8
:104388001E6A1F6A1B501C101BE0010E1D6E04D014
:10439800D8901B361C361D2A1CAEFAD7D8901E366C
:1043A8001F361B50195C1C501A5805E31B50195E28
:1043B8001C501A5A1E80D8901C321B321D2EEED764
:1043C8001EC019F01FC01AF01200A76F0001A451F7
:1043D80003E00AD8DF8002D007D8DF90000104D8B4
:1043E800DF820101F3811200A751100DA30EA56F02
:1043F800030EA66FF350A527F450A623A351A525B5
:10440800D96E000EA621DA6E1200A551A61117E08A
:10441800010EA76F04D0D890A537A637A72BA6AF53
:10442800FAD7A551A35DA651A45904E3A551A35FEA
:10443800A651A45BD890A633A533A72FF2D7A3C063
:10444800A3F0A4C0A4F012001B501C1017E0010E2A
:104458001D6E04D0D8901B361C361D2A1CAEFAD708
:104468001B50195C1C501A5804E31B50195E1C5051
:104478001A5AD8901C321B321D2EF2D719C019F0C7
:104488001AC01AF012009EEC24F0A3C0B9F0A4C020
:10449800BAF0A5C0BBF0A6C0BCF0B9C0A7F0BAC0BE
:1044A800A8F0BBC0A9F0BCC0AAF0B7C0ABF0B8C0B8
:1044B800ACF00001AD6BAE6B00EC1EF00009EDE056
:1044C8001200AF6B12D0AF51A925A36F000EAA211D
:1044D800A46FAF51A725D96E000EA821DA6EDF5060
:1044E800A56F23EC24F00001AF2BAF51AD6FAE6B7D
:1044F800AB51AD5DAC51AE59E6E31200F2CF1CF002
:10450800F29EF29C04001AC0AAFF19C0A9FF1BC0A2
:10451800A8FF03D81CC0F2FF1200A69EA69CA68482
:10452800550EA76EAA0EA76EA682A694A6B2FED7AF
:10453800A19812000001A46FA66BA35114E0010E0C
:10454800A56F03D0D890A337A52BA3AFFBD7D890DE
:10455800A637A351A45D03E3A351A45FA681D89015
:10456800A333A52FF4D7A6511200AF6B10D0AF51CB
:10457800A725D96E000EA821DA6EAF51A925A36F21
:10458800000EAA21A46FDAEC23F0DF6EAF2BAF5137
:10459800AD6FAE6BAB51AD5DAC51AE59E8E31200F7
:1045A8002D3D3F2B3B3A28292E2C2A213C3E7E2F9D
:1045B8002200415444202020202020202020202098
:1045C8002020200020202020202020202020202003
:0545D80020202020005E
:1045DE000C0E12D80A0EA56F6DEC23F0A9C0A3F035
:1045EE00AAC0A4F0050EA56F6DEC23F00A0E04D838
:1045FE00010EA56F6DEF23F0A925A36F000EAA2162
:10460E00A46F12004AEC21F0B6C0ACF0B7C0ADF00A
:10461E000001AE6BAF6B94EC1CF02A0E0101F41985
:10462E0004E1F46B4AEC21F0010C2B0EF419ECE1D1
:10463E00F46B4AEC21F0000C236E246A0ED023504A
:10464E002424D96EDA6A24501D24196E000E1E2001
:10465E001A6E11EC24F0DF6E242A2450216E226A89
:10466E001F50215C20502258EAE312000001A36F74
:10467E0082940101F2BB04D00001A46BA56B04D09F
:10468E000001A56B200EA46FA351020DF3501E0B5B
:10469E00A41100D0806E828082901200A46F1D0E35
:1046AE000101F465FF0C280EF461FF0CF451E20FCA
:1046BE000001A56FA451A55D08E3A551A35D05E317
:1046CE000101F46B0001A5511200FF0CA86B12D072
:1046DE00A851020DF350A325D96EF450A421DA6E21
:1046EE00DECFA6F0DDCFA7F0A6C0D9FFA7C0DAFFB8
:1046FE00DF90A82BA551A85DEBE31200196E19509F
:10470E00010AD8B4010C030AD8B4020C010AD8B4B9
:10471E00040C070AD8B4080C010AD8B4100C030A0A
:10472E00D8B4200C010AD8B4400C000CB20E000113
:10473E00A36FA46B080EA56FA66962EC24F0B20EEF
:10474E00A76FA86BB0C0A9F0B1C0AAF0AC6B080EF1
:10475E00AB6F65EF22F00001A66FA6390F0B3DEC93
:10476E0023F0830EE82EFED700F00001A6510F0BAA
:10477E003DEC23F0830EE82EFED700F01200000170
:10478E00A46F080EA56FA66BD890A435A635A66F9C
:10479E00D890A437A351A65D02E3A351A65FA52F1F
:1047AE00F3D7A6511200F2CFA5F0F29EF29C0400B0
:1047BE00A4C0AAFFA3C0A9FFA69EA69CA680A8CFB0
:1047CE00A6F0A5C0F2FF0001A65112001C6E1C3807
:1047DE000F0BFFEC23F0830EE82EFED700F01C50DB
:1047EE000F0BFFEC23F0830EE82EFED700F0120025
:1047FE00196E82940101F2BB03D01A6A1B6A03D0B0
:10480E001B6A200E1A6E1950020DF3501E0B1A1051
:10481E0051EF23F0F2CF1BF0F29EF29C04001AC06F
:10482E00AAFF19C0A9FFA69EA69CA680A8CF1CF021
:10483E001BC0F2FF1C501200F2CFA6F0F29EF29CAB
:10484E000400A4C0AAFFA3C0A9FFA5C0A8FF91ECB5
:10485E0022F0A6C0F2FF1200A351A411D8B4120088
:10486E00A3C049F0A4C04AF0AC8AA551D8B4120036
:10487E0049504A10FDE11200949C948EB886AC8487
:10488E00100EAF6E040EB06E9F8A9F88AC98AB8EE2
:10489E009D8A9D88AB88040C0001A36F0101F381F2
:1048AE00640E556E0001A3B103D00101F39302D043
:1048BE000101F3831200A76B09D0A751A325D96E6E
:1048CE00000EA421DA6EA6C0DFFFA72BA551A75DAF
:1048DE00F4E3120000D0480E3F240301DB6FF40E08
:1048EE004020DC6FFF0E4120DD6FFF0E4220DE6F99
:1048FE0012001B6E09D0CC6A1BC0CBFF9E929EA2EB
:10490E00FED71906D8A01A0619501A10F4E1120093
:10491E00056A09D005500124D96E000E0220DA6E08
:10492E0004C0DFFF052A0350055CF4E31200DFC369
:10493E00A3F0E0C3A4F0E1C3A5F0E2C3A6F0120019
:10494E0072EC1AF00C0EB2EC23F00101F28D120093
:10495E00F29B080EB2EC23F00101F29D1200310021
:10496E00320033003400350080010AFF4601838196
:07497E008001840182018524
:0649860072EF24F01200A4
:10FEE60000456E676C697368D0F3F1F1EAE8E920C2
:10FEF6002020203132330020E0E020C0E020C0C0C6
:10FF0600004F4B00CFEEE8F1EA2047534D2D20205D
:10FF160020202020ECEEE4F3EBFF2E2E2E0047539C
:10FF26004D2DECEEE4F3EBFC20EDE5202020EDE09A
:10FF3600E9E4E5ED00CDE0F1F2F0EEE9EAE020ECEF
:10FF4600EEE4F3EBFF2E2E2E002020202020202092
:10FF56002020202020202020200020202020203C9F
:10FF6600EFF3F1F2EE3E2020202000D0E0F1EFE8A2
:10FF7600F1E0EDE8E520EEF2EAEB2E00CEF2EFF04E
:10FF8600E0E2E8F2FC20E2FBE7EEE23F00D3E4E049
:10FF9600EBE8F2FC20E7E0EFE8F1FC3F00D3E4E019
:10FFA600EBE8F2FC20EDEEECE5F03F00EAEEEFE8E0
:10FFB600F0EEE2E0F2FC20F10041542B44444554BB
:10FFC6003D3100E7E0EFE8F1FC2000EDEEE2E0FF76
:10FFD60020004154453000F1E100EFED00F1F00062
:10FFE600E2F100E2F200EFF200F7F2002D2D003F01
:09FFF6003F004F4B004154000094
:020000040030CA
:0E000000FF861E1EFF0581FF0FC00FE00F40A0
:00000001FF
