:0400000009EF02F012
:0E0008007D82FACF42F0FBCF43F058ED4CF072
:100018007D80D8CFDEF0E8CFDFF0E0CFE0F0FACF98
:10002800E1F0FBCFE2F0E9CFE3F0EACFE4F0E1CF93
:10003800E5F0E2CFE6F0D9CFE7F0DACFE8F0F3CF9A
:10004800E9F0F4CFEAF0F6CFEBF0F7CFECF0F8CF29
:10005800EDF0F5CFEEF00400F2A4B3D1F294000E67
:100068000001F56F51C0DAF052C0DBF053C0DCF08C
:1000780054C0DDF00001DA1FDB1FDC1FDD1FDA2BA7
:10008800000EDB23DC23DD23010185510001DA2585
:100098000001EF6F010186510001DB210001F06FC3
:1000A800010187510001DC210001F16F0101885134
:1000B8000001DD210001F26F0001F2BF18D000013C
:1000C800F2510001F11108E1F40E0001EF5D010E9B
:1000D8000001F059D8A00BD085C151F086C152F06B
:1000E80087C153F088C154F0010E0001F56F01017A
:1000F8008EA30BD0240E0001F36F060E0001F46FDF
:10010800CD0E0001FB6F050E0AD08D0E0001F36FB6
:10011800050E0001F46FAD0E0001FB6F050E000126
:10012800FC6F01018DA7CCD0640E0101BA19D8B4B7
:1001380003D001018DABC4D0000E0001FF6F010E8A
:100148000001FF6501D0BAD0000E0001FE6F000E5D
:10015800FD6F0001FEBF0AD00001FE5106E1100E3E
:100168000001FD5DD8B0A7D001D0A5D0140E0101C3
:10017800BA19D8B41AD00001FF51100DFBC0DAF03B
:10018800FCC0DBF0F3500001DA27F4500001DB2358
:100198000001FD510001DA25D96E0001FE51000170
:1001A800DB21DA6E0001DFA27CD00001FF51100DC7
:1001B800F3C0DAF0F4C0DBF0F3500001DA27F450B2
:1001C8000001DB230001FD510001DA25D96E000191
:1001D800FE510001DB21DA6EDF500001F66F0001ED
:1001E800FF51400DF3500001FD2580093FEC67F0F9
:1001F8000001FF51100DFBC0DAF0FCC0DBF0F3503A
:100208000001DA27F4500001DB230001FD51000151
:10021800DA25D96E0001FE510001DB21DA6E0001FA
:10022800DFA020D00001FF51100DFBC0DAF0FCC0A8
:10023800DBF0F3500001DA27F4500001DB23000162
:10024800FD510001DA25D96E0001FE510001DB21C4
:10025800DA6E0001DFA003D001018DBD03D05F0E6F
:100268000001F66F0001F65113EC2BF012EC57F079
:100278000001FF51100DFBC0DAF0FCC0DBF0F350B9
:100288000001DA27F4500001DB230001FD510001D1
:10029800DA25D96E0001FE510001DB21DA6E00017A
:1002A800DF920001FD4BFE2B0001FEBF5FD700016E
:1002B800FE5101E154D70001FF2B41D701018D9B6D
:1002C8000101BA51D8B403D00101BA071CD0010109
:1002D8008D8B140E0101BA6F01018DBD04D0000190
:1002E800DA6BDA2B02D00001DA6B0001DA3BDA476D
:1002F800DA4701018D510001DA19BF0BDA19010142
:100308008D6FBAEC5FF001019851D8B403D00101A8
:1003180098074FD0000E01019D6F81AE39D00F0EA6
:1003280001019919D8A404D0000E0101996F02D0D7
:100338000101992B99C1F7F0000E0001F86F000E2A
:100348000001FA6F040EF96F0001FABF19D000011D
:10035800FA5104E10001F905D8A012D0020E0001FB
:10036800F803F350F86F0001F7A102D00001F82B51
:100378000001D890F7330001F907D8A0FA07E4D7AD
:100388000001F851020DF3CF81FF0101B96911D0C5
:100398000101B929D8A40DD099C1B9F10101B95108
:1003A80010EC5FF001019D6F010E0101986F7AEC6E
:1003B8006BF0F2EC22F00001F5510001D8A4DAEC60
:1003C80049F0EEC0F5FFEDC0F8FFECC0F7FFEBC059
:1003D800F6FFEAC0F4FFE9C0F3FFE8C0DAFFE7C0C0
:1003E800D9FFE6C0E2FFE5C0E1FFE4C0EAFFE3C0F1
:1003F800E9FFE2C0FBFFE1C0FAFFE0C0E0FFDFC0B9
:10040800E8FFDEC0D8FF7D9010001DEF4DF0010120
:10041800446F0FEF08F0000E0101436F000E426FAA
:100428001200000E0101436F010E426F1200000E10
:100438000101436F020E426F1200000E0101436F6B
:10044800030E426F1200000E0101436F040E426F4B
:100458001200000E0101436F050E426F1200000EDC
:100468000101436F060E426F1200000E0101436F37
:10047800070E426F1200000E0101436F080E426F13
:100488001200000E0101436F090E426F1200000EA8
:100498000101436F0A0E426F1200000E0101436F03
:1004A8000B0E426F1200000E0101436F0C0E426FDB
:1004B8001200000E0101436F0D0E426F1200000E74
:1004C8000101436F0E0E426F1200000E0101436FCF
:1004D8000F0E426F1200000E0101436F100E426FA3
:1004E8001200000E0101436F110E426F1200000E40
:1004F8000101436F120E426F1200000E0101436F9B
:10050800130E426F1200000E0101436F140E426F6A
:100518001200000E0101436F150E426F1200000E0B
:100528000101436F160E426F1200000E0101436F66
:10053800170E426F1200000E0101436F180E426F32
:100548001200000E0101436F190E426F1200000ED7
:100558000101436F1A0E426F1200000E0101436F32
:100568001B0E426F1200000E0101436F1C0E426FFA
:100578001200000E0101436F1D0E426F1200000EA3
:100588000101436F1E0E426F1200000E0101436FFE
:100598001F0E426F1200000E0101436F200E426FC2
:1005A8001200000E0101436F210E426F1200000E6F
:1005B8000101436F220E426F1200000E0101436FCA
:1005C800230E426F1200000E0101436F240E426F8A
:1005D8001200000E0101436F250E426F1200000E3B
:1005E8000101436F260E426F1200000E0101436F96
:1005F800270E426F1200000E0101436F280E426F52
:100608001200000E0101436F290E426F1200000E06
:100618000101436F2A0E426F1200000E0101436F61
:100628002B0E426F1200000E0101436F2C0E426F19
:100638001200000E0101436F2D0E426F1200000ED2
:100648000101436F2E0E426F1200000E0101436F2D
:100658002F0E426F1200000E0101436F300E426FE1
:100668001200000E0101436F310E426F1200000E9E
:100678000101436F320E426F1200000E0101436FF9
:10068800330E426F1200000E0101436F340E426FA9
:100698001200000E0101436F350E426F1200000E6A
:1006A8000101436F360E426F1200000E0101436FC5
:1006B800370E426F1200000E0101436F380E426F71
:1006C8001200000E0101436F390E426F1200000E36
:1006D8000101436F3A0E426F1200000E0101436F91
:1006E8003B0E426F1200000E0101436F3C0E426F39
:1006F8001200000E0101436F3D0E426F1200000E02
:100708000101436F3E0E426F1200000E0101436F5C
:100718003F0E426F1200000E0101436F400E426F00
:100728001200000E0101436F410E426F1200000ECD
:100738000101436F420E426F1200000E0101436F28
:10074800430E426F1200000E0101436F440E426FC8
:100758001200000E0101436F450E426F1200000E99
:100768000101436F460E426F1200000E0101436FF4
:10077800470E426F1200000E0101436F480E426F90
:100788001200000E0101436F490E426F1200000E65
:100798000101436F4A0E426F1200000E0101436FC0
:1007A8004B0E426F1200000E0101436F4C0E426F58
:1007B8001200000E0101436F4D0E426F1200000E31
:1007C8000101436F4E0E426F1200000E0101436F8C
:1007D8004F0E426F1200000E0101436F500E426F20
:1007E8001200000E0101436F510E426F1200000EFD
:1007F8000101436F520E426F1200000E0101436F58
:10080800530E426F1200000E0101436F540E426FE7
:100818001200000E0101436F550E426F1200000EC8
:100828000101436F560E426F1200000E0101436F23
:10083800570E426F1200000E0101436F580E426FAF
:100848001200000E0101436F590E426F1200000E94
:100858000101436F5A0E426F1200000E0101436FEF
:100868005B0E426F1200000E0101436F5C0E426F77
:100878001200000E0101436F5D0E426F1200000E60
:100888000101436F5E0E426F1200000E0101436FBB
:100898005F0E426F1200000E0101436F600E426F3F
:1008A8001200000E0101436F610E426F1200000E2C
:1008B8000101436F620E426F1200000E0101436F87
:1008C800630E426F1200000E0101436F640E426F07
:1008D8001200000E0101436F650E426F1200000EF8
:1008E8000101436F660E426F1200000E0101436F53
:1008F800670E426F1200000E0101436F680E426FCF
:100908001200000E0101436F690E426F1200000EC3
:100918000101436F6A0E426F1200000E0101436F1E
:100928006B0E426F1200000E0101436F6C0E426F96
:100938001200000E0101436F6D0E426F1200000E8F
:100948000101436F6E0E426F1200000E0101436FEA
:100958006F0E426F1200000E0101436F700E426F5E
:100968001200000E0101436F710E426F1200000E5B
:100978000101436F720E426F1200000E0101436FB6
:10098800730E426F1200000E0101436F740E426F26
:100998001200000E0101436F750E426F1200000E27
:1009A8000101436F760E426F1200000E0101436F82
:1009B800770E426F1200000E0101436F780E426FEE
:1009C8001200000E0101436F790E426F1200000EF3
:1009D8000101436F7A0E426F1200000E0101436F4E
:1009E8007B0E426F1200000E0101436F7C0E426FB6
:1009F8001200000E0101436F7D0E426F1200000EBF
:100A08000101436F7E0E426F1200000E0101436F19
:100A18007F0E426F1200040E0101436F020E426FF7
:100A28001200040E0101436F030E426F1200200EE4
:100A38000101436F1A0E426F1200040E0101436F49
:100A4800530E426F1200200E0101436F1E0E426FBB
:100A58001200200E0101436F260E426F1200200E75
:100A68000101436F200E426F1200200E0101436FF7
:100A7800210E426F1200200E0101436FAC0E426F2F
:100A88001200200E0101436F300E426F1200040E57
:100A98000101436F090E426F1200200E0101436FDE
:100AA800390E426F1200040E0101436F0A0E426FA5
:100AB8001200040E0101436F0C0E426F1200040E67
:100AC8000101436F0B0E426F1200040E0101436FC8
:100AD8000F0E426F1200040E0101436F520E426F57
:100AE8001200200E0101436F180E426F1200200EF3
:100AF8000101436F190E426F1200200E0101436F6E
:100B08001C0E426F1200200E0101436F1D0E426F32
:100B18001200200E0101436F220E426F1200200EB8
:100B28000101436F130E426F1200200E0101436F43
:100B3800140E426F1200000E0101436F3F0E426F08
:100B48001200210E0101436F220E426F1200040EA3
:100B58000101436F590E426F1200200E0101436FCD
:100B68003A0E426F1200040E0101436F5A0E426F93
:100B78001200040E0101436F5C0E426F1200040E56
:100B88000101436F5B0E426F1200040E0101436FB7
:100B98005F0E426F1200000E0101436FA00E426FFC
:100BA8001200040E0101436F0E0E426F1200040E74
:100BB8000101436F5E0E426F1200040E0101436F84
:100BC800080E426F1200000E0101436FA40E426F1F
:100BD8001200040E0101436F900E426F1200000EC6
:100BE8000101436FA60E426F1200000E0101436F10
:100BF800A70E426F1200040E0101436F010E426FEF
:100C08001200000E0101436FA90E426F1200040E7C
:100C18000101436F040E426F1200000E0101436F81
:100C2800AB0E426F1200000E0101436FAC0E426F13
:100C38001200000E0101436FAD0E426F1200000E4C
:100C48000101436FAE0E426F1200040E0101436FA3
:100C5800070E426F1200000E0101436FB00E426F83
:100C68001200000E0101436FB10E426F1200040E14
:100C78000101436F060E426F1200040E0101436F1B
:100C8800560E426F1200040E0101436F910E426F1F
:100C98001200000E0101436FB50E426F1200000EE4
:100CA8000101436FB60E426F1200000E0101436F3F
:100CB800B70E426F1200040E0101436F510E426FCE
:100CC8001200210E0101436F160E426F1200040E2E
:100CD8000101436F540E426F1200000E0101436F71
:100CE800BB0E426F1200040E0101436F580E426F93
:100CF8001200040E0101436F050E426F1200040E2C
:100D08000101436F550E426F1200040E0101436F3B
:100D1800570E426F1200040E0101436F100E426F0E
:100D28001200040E0101436F110E426F1200040EEF
:100D38000101436F120E426F1200040E0101436F4E
:100D4800130E426F1200040E0101436F140E426F1E
:100D58001200040E0101436F150E426F1200040EBB
:100D68000101436F160E426F1200040E0101436F1A
:100D7800170E426F1200040E0101436F180E426FE6
:100D88001200040E0101436F190E426F1200040E87
:100D98000101436F1A0E426F1200040E0101436FE6
:100DA8001B0E426F1200040E0101436F1C0E426FAE
:100DB8001200040E0101436F1D0E426F1200040E53
:100DC8000101436F1E0E426F1200040E0101436FB2
:100DD8001F0E426F1200040E0101436F200E426F76
:100DE8001200040E0101436F210E426F1200040E1F
:100DF8000101436F220E426F1200040E0101436F7E
:100E0800230E426F1200040E0101436F240E426F3D
:100E18001200040E0101436F250E426F1200040EEA
:100E28000101436F260E426F1200040E0101436F49
:100E3800270E426F1200040E0101436F280E426F05
:100E48001200040E0101436F290E426F1200040EB6
:100E58000101436F2A0E426F1200040E0101436F15
:100E68002B0E426F1200040E0101436F2C0E426FCD
:100E78001200040E0101436F2D0E426F1200040E82
:100E88000101436F2E0E426F1200040E0101436FE1
:100E98002F0E426F1200040E0101436F300E426F95
:100EA8001200040E0101436F310E426F1200040E4E
:100EB8000101436F320E426F1200040E0101436FAD
:100EC800330E426F1200040E0101436F340E426F5D
:100ED8001200040E0101436F350E426F1200040E1A
:100EE8000101436F360E426F1200040E0101436F79
:100EF800370E426F1200040E0101436F380E426F25
:100F08001200040E0101436F390E426F1200040EE5
:100F18000101436F3A0E426F1200040E0101436F44
:100F28003B0E426F1200040E0101436F3C0E426FEC
:100F38001200040E0101436F3D0E426F1200040EB1
:100F48000101436F3E0E426F1200040E0101436F10
:100F58003F0E426F1200040E0101436F400E426FB4
:100F68001200040E0101436F410E426F1200040E7D
:100F78000101436F420E426F1200040E0101436FDC
:100F8800430E426F1200040E0101436F440E426F7C
:100F98001200040E0101436F450E426F1200040E49
:100FA8000101436F460E426F1200040E0101436FA8
:100FB800470E426F1200040E0101436F480E426F44
:100FC8001200040E0101436F490E426F1200040E15
:100FD8000101436F4A0E426F1200040E0101436F74
:100FE8004B0E426F1200040E0101436F4C0E426F0C
:100FF8001200040E0101436F4D0E426F1200040EE1
:101008000101436F4E0E426F1200040E0101436F3F
:101018004F0E426F120001014451000AD8B40FEF7D
:1010280002F0010AD8B415EF02F0030AD8B41BEF96
:1010380002F0010AD8B421EF02F0070AD8B427EF6A
:1010480002F0010AD8B42DEF02F0030AD8B433EF46
:1010580002F0010AD8B439EF02F00F0AD8B43FEF12
:1010680002F0010AD8B445EF02F0030AD8B44BEFF6
:1010780002F0010AD8B451EF02F0070AD8B457EFCA
:1010880002F0010AD8B45DEF02F0030AD8B463EFA6
:1010980002F0010AD8B469EF02F01F0AD8B46FEF62
:1010A80002F0010AD8B475EF02F0030AD8B47BEF56
:1010B80002F0010AD8B481EF02F0070AD8B487EF2A
:1010C80002F0010AD8B48DEF02F0030AD8B493EF06
:1010D80002F0010AD8B499EF02F00F0AD8B49FEFD2
:1010E80002F0010AD8B4A5EF02F0030AD8B4ABEFB6
:1010F80002F0010AD8B4B1EF02F0070AD8B4B7EF8A
:1011080002F0010AD8B4BDEF02F0030AD8B4C3EF65
:1011180002F0010AD8B4C9EF02F03F0AD8B4CFEF01
:1011280002F0010AD8B4D5EF02F0030AD8B4DBEF15
:1011380002F0010AD8B4E1EF02F0070AD8B4E7EFE9
:1011480002F0010AD8B4EDEF02F0030AD8B4F3EFC5
:1011580002F0010AD8B4F9EF02F00F0AD8B4FFEF91
:1011680002F0010AD8B405EF03F0030AD8B40BEF74
:1011780003F0010AD8B411EF03F0070AD8B417EF47
:1011880003F0010AD8B41DEF03F0030AD8B423EF23
:1011980003F0010AD8B429EF03F01F0AD8B42FEFDF
:1011A80003F0010AD8B435EF03F0030AD8B43BEFD3
:1011B80003F0010AD8B441EF03F0070AD8B447EFA7
:1011C80003F0010AD8B44DEF03F0030AD8B453EF83
:1011D80003F0010AD8B459EF03F00F0AD8B45FEF4F
:1011E80003F0010AD8B465EF03F0030AD8B46BEF33
:1011F80003F0010AD8B471EF03F0070AD8B477EF07
:1012080003F0010AD8B47DEF03F0030AD8B483EFE2
:1012180003F0010AD8B489EF03F07F0AD8B48FEF3E
:1012280003F0010AD8B495EF03F0030AD8B49BEF92
:1012380003F0010AD8B4A1EF03F0070AD8B4A7EF66
:1012480003F0010AD8B4ADEF03F0030AD8B4B3EF42
:1012580003F0010AD8B4B9EF03F00F0AD8B4BFEF0E
:1012680003F0010AD8B4C5EF03F0030AD8B4CBEFF2
:1012780003F0010AD8B4D1EF03F0070AD8B4D7EFC6
:1012880003F0010AD8B4DDEF03F0030AD8B4E3EFA2
:1012980003F0010AD8B4E9EF03F01F0AD8B4EFEF5E
:1012A80003F0010AD8B4F5EF03F0030AD8B4FBEF52
:1012B80003F0010AD8B401EF04F0070AD8B407EF25
:1012C80004F0010AD8B40DEF04F0030AD8B413EF00
:1012D80004F0010AD8B419EF04F00F0AD8B41FEFCC
:1012E80004F0010AD8B425EF04F0030AD8B42BEFB0
:1012F80004F0010AD8B431EF04F0070AD8B437EF84
:1013080004F0010AD8B43DEF04F0030AD8B443EF5F
:1013180004F0010AD8B449EF04F03F0AD8B44FEFFB
:1013280004F0010AD8B455EF04F0030AD8B45BEF0F
:1013380004F0010AD8B461EF04F0070AD8B467EFE3
:1013480004F0010AD8B46DEF04F0030AD8B473EFBF
:1013580004F0010AD8B479EF04F00F0AD8B47FEF8B
:1013680004F0010AD8B485EF04F0030AD8B48BEF6F
:1013780004F0010AD8B491EF04F0070AD8B497EF43
:1013880004F0010AD8B49DEF04F0030AD8B4A3EF1F
:1013980004F0010AD8B4A9EF04F01F0AD8B4AFEFDB
:1013A80004F0010AD8B4B5EF04F0030AD8B4BBEFCF
:1013B80004F0010AD8B4C1EF04F0070AD8B4C7EFA3
:1013C80004F0010AD8B4CDEF04F0030AD8B4D3EF7F
:1013D80004F0010AD8B4D9EF04F00F0AD8B4DFEF4B
:1013E80004F0010AD8B4E5EF04F0030AD8B4EBEF2F
:1013F80004F0010AD8B4F1EF04F0070AD8B4F7EF03
:1014080004F0010AD8B4FDEF04F0030AD8B403EFDE
:1014180005F0010AD8B409EF05F0FF0AD8B40FEFB8
:1014280005F0010AD8B415EF05F0030AD8B41BEF8C
:1014380005F0010AD8B421EF05F0070AD8B427EF60
:1014480005F0010AD8B42DEF05F0030AD8B433EF3C
:1014580005F0010AD8B439EF05F00F0AD8B43FEF08
:1014680005F0010AD8B445EF05F0030AD8B44BEFEC
:1014780005F0010AD8B451EF05F0070AD8B457EFC0
:1014880005F0010AD8B45DEF05F0030AD8B463EF9C
:1014980005F0010AD8B469EF05F01F0AD8B46FEF58
:1014A80005F0010AD8B475EF05F0030AD8B47BEF4C
:1014B80005F0010AD8B481EF05F0070AD8B487EF20
:1014C80005F0010AD8B48DEF05F0030AD8B493EFFC
:1014D80005F0010AD8B499EF05F00F0AD8B49FEFC8
:1014E80005F0010AD8B4A5EF05F0030AD8B4ABEFAC
:1014F80005F0010AD8B4B1EF05F0070AD8B4B7EF80
:1015080005F0010AD8B4BDEF05F0030AD8B4C3EF5B
:1015180005F0010AD8B4C9EF05F03F0AD8B4CFEFF7
:1015280005F0010AD8B4D5EF05F0030AD8B4DBEF0B
:1015380005F0010AD8B4E1EF05F0070AD8B4E7EFDF
:1015480005F0010AD8B4EDEF05F0030AD8B4F3EFBB
:1015580005F0010AD8B4F9EF05F00F0AD8B4FFEF87
:1015680005F0010AD8B405EF06F0030AD8B40BEF6A
:1015780006F0010AD8B411EF06F0070AD8B417EF3D
:1015880006F0010AD8B41DEF06F0030AD8B423EF19
:1015980006F0010AD8B429EF06F01F0AD8B42FEFD5
:1015A80006F0010AD8B435EF06F0030AD8B43BEFC9
:1015B80006F0010AD8B441EF06F0070AD8B447EF9D
:1015C80006F0010AD8B44DEF06F0030AD8B453EF79
:1015D80006F0010AD8B459EF06F00F0AD8B45FEF45
:1015E80006F0010AD8B465EF06F0030AD8B46BEF29
:1015F80006F0010AD8B471EF06F0070AD8B477EFFD
:1016080006F0010AD8B47DEF06F0030AD8B483EFD8
:1016180006F0010AD8B489EF06F07F0AD8B48FEF34
:1016280006F0010AD8B495EF06F0030AD8B49BEF88
:1016380006F0010AD8B4A1EF06F0070AD8B4A7EF5C
:1016480006F0010AD8B4ADEF06F0030AD8B4B3EF38
:1016580006F0010AD8B4B9EF06F00F0AD8B4BFEF04
:1016680006F0010AD8B4C5EF06F0030AD8B4CBEFE8
:1016780006F0010AD8B4D1EF06F0070AD8B4D7EFBC
:1016880006F0010AD8B4DDEF06F0030AD8B4E3EF98
:1016980006F0010AD8B4E9EF06F01F0AD8B4EFEF54
:1016A80006F0010AD8B4F5EF06F0030AD8B4FBEF48
:1016B80006F0010AD8B401EF07F0070AD8B407EF1B
:1016C80007F0010AD8B40DEF07F0030AD8B413EFF6
:1016D80007F0010AD8B419EF07F00F0AD8B41FEFC2
:1016E80007F0010AD8B425EF07F0030AD8B42BEFA6
:1016F80007F0010AD8B431EF07F0070AD8B437EF7A
:1017080007F0010AD8B43DEF07F0030AD8B443EF55
:1017180007F0010AD8B449EF07F03F0AD8B44FEFF1
:1017280007F0010AD8B455EF07F0030AD8B45BEF05
:1017380007F0010AD8B461EF07F0070AD8B467EFD9
:1017480007F0010AD8B46DEF07F0030AD8B473EFB5
:1017580007F0010AD8B479EF07F00F0AD8B47FEF81
:1017680007F0010AD8B485EF07F0030AD8B48BEF65
:1017780007F0010AD8B491EF07F0070AD8B497EF39
:1017880007F0010AD8B49DEF07F0030AD8B4A3EF15
:1017980007F0010AD8B4A9EF07F01F0AD8B4AFEFD1
:1017A80007F0010AD8B4B5EF07F0030AD8B4BBEFC5
:1017B80007F0010AD8B4C1EF07F0070AD8B4C7EF99
:1017C80007F0010AD8B4CDEF07F0030AD8B4D3EF75
:1017D80007F0010AD8B4D9EF07F00F0AD8B4DFEF41
:1017E80007F0010AD8B4E5EF07F0030AD8B4EBEF25
:1017F80007F0010AD8B4F1EF07F0070AD8B4F7EFF9
:1018080007F0010AD8B4FDEF07F0030AD8B403EFD4
:1018180008F009EF08F067EC59F0000E0201776F45
:1018280085C142F186C143F187C144F188C145F1C0
:10183800700E0101466F170E476F000E486F000EBD
:10184800496F64EC53F042C197F243C198F244C126
:1018580099F245C19AF297C233F298C234F299C20A
:1018680035F29AC236F2000E0201936F040E02019D
:10187800936501D01FD002019351040D630E01013D
:10188800676F020E0101686FF35001016727F4507A
:101898000101682302019351020D9D0EF324D96EB4
:1018A800020EF420DA6E67C1DEFF68C1DDFF0201B7
:1018B800932BDCD7000E0201946F020194510201B0
:1018C800D8A423D002019451040D8F0E0101676F33
:1018D800020E0101686FF35001016727F4500101FE
:1018E800682302019451020D0A0EF326000EF42219
:1018F8009D0EF324D96E020EF420DA6E67C1DEFF66
:1019080068C1DDFF0201942BD8D7000E0201956F44
:10191800090E0201956501D023D002019551040DED
:101928003B0E0101676F020E0101686FF350010160
:101938006727F4500101682302019551020D0C0E2E
:10194800F326000EF4229D0EF324D96E020EF42025
:10195800DA6E67C1DEFF68C1DDFF0201952BD8D7BB
:101968009D0E0101426F020E0101436FE5EC46F046
:10197800020120EE01F0A551D926A651DA2297C21C
:1019880042F198C243F199C244F19AC245F10A0E54
:101998000101466F000E476F000E486F000E496F39
:1019A80006EC58F001014251DF6E97C242F198C22D
:1019B80043F199C244F19AC245F10A0E0101466FFA
:1019C800000E476F000E486F000E496F64EC53F02D
:1019D80042C197F243C198F244C199F245C19AF2C3
:1019E800020120EE01F0A351D926A451DA2297C2B0
:1019F80042F198C243F199C244F19AC245F1060EE8
:101A08000101466F000E476F000E486F000E496FC8
:101A180006EC58F001014251DF6E97C242F198C2BC
:101A280043F199C244F19AC245F1060E0101466F8D
:101A3800000E476F000E486F000E496F64EC53F0BC
:101A480042C197F243C198F244C199F245C19AF252
:101A580097C242F198C243F199C244F19AC245F142
:101A6800180E0101466F000E476F000E486F000EFA
:101A7800496F06EC58F042C197F243C198F244C14D
:101A880099F245C19AF2020120EE01F09F51D92640
:101A9800A051DA2297C242F198C243F199C244F1A7
:101AA8009AC245F10A0E0101466F000E476F000EFB
:101AB800486F000E496F06EC58F001014251DF6E85
:101AC800020120EE01F09D51D9269E51DA2297C2DB
:101AD80042F198C243F199C244F19AC245F10A0E03
:101AE8000101466F000E476F000E486F000E496FE8
:101AF80064EC53F001014251DF6E020120EE01F067
:101B0800A751D926A851DA2233C242F134C243F18F
:101B180035C244F136C245F1A00E0101466F050EEB
:101B2800476F000E486F000E496F64EC53F00101D7
:101B38004229DF6E020120EE01F0BB51D926BC51CB
:101B4800DA22BDC150F10101516B000E0101536F42
:101B58000A0E526F0CEC60F001015051DF6E020169
:101B680020EE01F0B951D926BA51DA22BDC148F1A7
:101B78000101496B000E01014B6F0A0E4A6F2AECF6
:101B88005CF001014851DF6E020120EE02F0B7510E
:101B9800D926B851DA22300EDF6EB7C2D9FFB8C2E3
:101BA800DAFF0201DF82020120EE02F0B551D926E8
:101BB800B651DA22320EDF6EB5C2D9FFB6C2DAFFED
:101BC8000201DF82020120EE01F0B151D926B251A3
:101BD800DA22BCC150F10101516B000E0101536FB3
:101BE8000A0E526F0CEC60F001015051DF6E0201D9
:101BF80020EE01F0AF51D926B051DA22BCC148F12C
:101C08000101496B000E01014B6F0A0E4A6F2AEC65
:101C18005CF001014851DF6E020120EE01F0AB518A
:101C2800D926AC51DA22BBC150F10101516B000E2B
:101C38000101536F0A0E526F0CEC60F00101505114
:101C4800DF6E020120EE01F0A951D926AA51DA224D
:101C5800BBC148F10101496B000E01014B6F0A0E2F
:101C68004A6F2AEC5CF001014851DF6E090E02014F
:101C7800796F000E02019C6F02019C51020D7B0ED0
:101C8800F324D96E020EF420DA6EA9C2DEFFAAC2CE
:101C9800DDFF02019C2B02019C51020D7B0EF324F7
:101CA800D96E020EF420DA6EABC2DEFFACC2DDFFE5
:101CB80002019C2B02019C51020D7B0EF324D96E6C
:101CC800020EF420DA6EAFC2DEFFB0C2DDFF020101
:101CD8009C2B02019C51020D7B0EF324D96E020E3F
:101CE800F420DA6EB1C2DEFFB2C2DDFF02019C2B26
:101CF80002019C51020D7B0EF324D96E020EF420D2
:101D0800DA6EB9C2DEFFBAC2DDFF02019C2B020106
:101D18009C51020D7B0EF324D96E020EF420DA6E6C
:101D2800BBC2DEFFBCC2DDFF02019C2B02019C513D
:101D3800020D7B0EF324D96E020EF420DA6E9DC2DA
:101D4800DEFF9EC2DDFF02019C2B02019C51020DA9
:101D58007B0EF324D96E020EF420DA6E9FC2DEFFEA
:101D6800A0C2DDFF02019C2B02019C51020D7B0EDB
:101D7800F324D96E020EF420DA6EA3C2DEFFA4C2E9
:101D8800DDFF02019C2B02019C51020D7B0EF32406
:101D9800D96E020EF420DA6EA5C2DEFFA6C2DDFF00
:101DA80002019C2B060E0201966F0201786902015E
:101DB8009651020D7B0EF324D96E020EF420DA6ED2
:101DC800DECF67F1DDCF68F167C1D9FF68C1DAFFFF
:101DD8000201DF80020120EE01F0A751D926A851A7
:101DE800DA22020110EE01F0B151E126B251E222ED
:101DF800E7500101676F020110EE01F0AF51E126D3
:101E0800B051E222E7500A0DF350010167250101A4
:101E1800566F020110EE01F0AB51E126AC51E222FF
:101E2800E7500101686F020110EE01F0A951E126A7
:101E3800AA51E222E7500A0DF35001016825010179
:101E4800576F020110EE01F0BB51E126BC51E222AE
:101E5800E7500101696F020110EE01F0B951E12666
:101E6800BA51E222E7500A0DF3500101692598ECB6
:101E780056F0DF6E9D0E0101596F020E01015A6F77
:101E880015EC39F0090E0101426F000ED0EC66F036
:101E98000201786F02017829D8B428D0020196513E
:101EA800020D7B0EF324D96E020EF420DA6E10EECA
:101EB80001F0DE50E126DD50E22278C2E7FF9D0EF8
:101EC8000101486F020E0101496F83EC66F00201BF
:101ED800795102019619D8A404D0000E0201966F18
:101EE80002D00201962B010E0201776F280E010124
:101EF8009D19D8A418D0000E01019D6F9D0E0101F7
:101F0800486F020E0101496F83EC66F002017951B6
:101F180002019619D8A404D0000E0201966F47D783
:101F28000201962B44D72C0E01019D19D8A412D07A
:101F3800000E01019D6F0201BD51D8B408D0020105
:101F4800BD05D8B404D0000E0201BD6F30D7020120
:101F5800BD2B2DD7290E01019D19D8A416D0000E2E
:101F680001019D6F9D0E0101486F020E0101496F2D
:101F780083EC66F0020196510201D8A403D079C21D
:101F880096F215D70201960712D72A0E01019D195C
:101F9800D8A4B9D2000E01019D6F000E02019B6FFB
:101FA800020177510201D8B495D2020120EE01F066
:101FB8008151D9268251DA22DF500101676F02016F
:101FC80020EE01F07F51D9268051DA22DF500A0D28
:101FD800F3500101672502019B6F0C0E02019B65FE
:101FE8000AD09D0E0101486F020E0101496F83EC72
:101FF80066F0020E22D19BC27AF225EE76F012EE3E
:1020080027F00B0EDBCFE3FFE806FCE2020120EE2F
:1020180001F08551D9268651DA22DF500101676F18
:10202800020120EE01F08351D9268451DA22DF50D3
:102038000A0DF3500101672502019B6F9BC267F1EE
:10204800030E01016717D8A403D01D0E0201286FE3
:10205800020120EE01F07D51D9267E51DA22DF50AF
:102068000101676F020120EE01F07B51D9267C51F6
:10207800DA22DF500A0DF3500101672502019B6F38
:10208800FF0E0101676FFF0E0101686F02017A51AF
:102098000101696F6A6B010167510101692701013B
:1020A800685101016A23270E01016925D96E020EC4
:1020B80001016A21DA6E02019B51DE5CD8B072D050
:1020C800020120EE01F07B51D9267C51DA22FF0E65
:1020D8000101676FFF0E0101686F02017A5101016A
:1020E800696F6A6B01016751010169270101685134
:1020F80001016A23270E01016925E16E020E010123
:102108006A21E26EE75001016B6F01016B51010119
:10211800486F496B000E01014B6F0A0E4A6F2AEC9B
:102128005CF001014851DF6E020120EE01F07D51A3
:10213800D9267E51DA22FF0E0101676FFF0E0101D9
:10214800686F02017A510101696F6A6B0101675179
:10215800010169270101685101016A23270E010164
:102168006925E16E020E01016A21E26EE750010164
:102178006B6F01016B510101506F516B000E010132
:10218800536F0A0E526F0CEC60F001015051DF6E74
:102198009D0E0101486F020E0101496F83EC66F044
:1021A800000E4BD0020120EE01F08951D9268A5148
:1021B800DA22DF500101676F020120EE01F087513A
:1021C800D9268851DA22DF500A0DF350010167251C
:1021D80002019B6F170E02019B650AD09D0E01013B
:1021E800486F020E0101496F83EC66F0070E25D097
:1021F800020120EE01F08D51D9268E51DA22DF50EE
:102208000101676F020120EE01F08B51D9268C5134
:10221800DA22DF500A0DF3500101672502019B6F96
:102228003B0E02019B650CD09D0E0101486F020E0A
:102238000101496F83EC66F0090E0201966F4AD1DD
:10224800000E02019B6FFF0E0101676FFF0E010177
:10225800686F020120EE01F0A751D926A851DA22B1
:10226800DF500101696F6A6B01016751010169273C
:102278000101685101016A2369C142F16AC143F150
:102288000101000E43BFFF0E446F456F800E010130
:10229800466F510E476F010E486F000E496F22ECD2
:1022A80063F042C16BF143C16CF144C16DF145C1AA
:1022B8006EF1020120EE01F08751D9268851DA2209
:1022C800DF5001016F6F01016F510A0D020120EE0D
:1022D80001F08951D9268A51DA22DF500101706F45
:1022E80001017051F326000EF422F3CF42F1F4CF2E
:1022F80043F10101000E43BFFF0E446F456F100EFE
:102308000101466F0E0E476F000E486F000E496FB1
:1023180022EC63F00101425101016B250101716F4B
:102328000101435101016C210101726F0101445106
:1023380001016D210101736F0101455101016E21F8
:102348000101746F020120EE01F08B51D9268C51E6
:10235800DA22DF500101756F010175510A0D020182
:1023680020EE01F08D51D9268E51DA22DF5001017D
:10237800766F01017651F326000EF422F3CF42F175
:10238800F4CF43F10101000E43BFFF0E446F456FC8
:102398003C0E0101466F000E476F000E486F000E9D
:1023A800496F22EC63F001014251010171250201DC
:1023B800376F01014351010172210201386F010198
:1023C8004451010173210201396F01014551010195
:1023D800742102013A6F37C242F138C243F139C25F
:1023E80044F13AC245F1640E0101466F000E476F91
:1023F800000E486F000E496F22EC63F042C185F170
:1024080043C186F144C187F145C188F1020120EE3C
:1024180001F07D51D9267E51DA22DF500101676F24
:10242800020120EE01F07B51D9267C51DA22DF50DF
:102438000A0DF350010167250101BB6F020120EE6F
:1024480001F08151D9268251DA22DF500101676FEC
:10245800020120EE01F07F51D9268051DA22DF50A7
:102468000A0DF350010167250101BC6F020120EE3E
:1024780001F08551D9268651DA22DF500101676FB4
:10248800020120EE01F08351D9268451DA22DF506F
:102498000A0DF350010167250101BD6F01018E3955
:1024A800E832030B0201BD19D8B404D00201BD51B2
:1024B800C8EC69F085C159F186C15AF187C15BF151
:1024C80088C15CF1BBC15DF1BCC15EF1BDC15FF10A
:1024D8009AEC3AF002019B510201D8A468D4020197
:1024E80077510201D8A40CD001018E39E832030BD0
:1024F8000201BD19D8B404D00201BD51C8EC69F07D
:1025080067EC59F012002B0E01019D19D8A44FD485
:10251800000E01019D6F67EC59F01200800E010159
:10252800621909E101016305D8A405D060C11EF252
:1025380061C11FF204D062C11EF263C11FF2000E16
:102548000201726F000E736F000E746F000E756FCC
:10255800160E01014F6F020E0101506F720E01013C
:10256800516F020E0101526F1EC253F11FC254F186
:1025780046EC5DF0000E0201206F0201722916E19F
:102588000201732913E10201742910E1020175297E
:10259800D8A40CD0000E0201726F000E736F000EEB
:1025A800746F000E756F010E0201206F72C242F146
:1025B80073C243F174C244F175C245F13A0E010188
:1025C800466F020E0101476F3C0E0101486F020E73
:1025D8000101496F6B0E01014A6F020E01014B6F39
:1025E8006C0E01014C6F020E01014D6FD4EC59F0D5
:1025F80067EC59F0010E02016D6F000E0201786F51
:102608000A0E0201786501D062D002017851040DEA
:10261800030EF326000EF4223E0EF324D96E020EAA
:10262800F420DA6E78C2DFFF02017851040D010E42
:10263800F326000EF4223E0EF324D96E020EF42087
:10264800DA6E000EDF6E02017851040D020EF326D9
:10265800000EF4223E0EF324D96E020EF420DA6E38
:10266800300EDF6E02017851040D3E0EF324D96E50
:10267800020EF420DA6E0201DF9002017851040D97
:102688003E0EF324D96E020EF420DA6E0201DF92B8
:1026980002017851040D3E0E0101646F020E010122
:1026A800656FF35001016427F450010165230201AD
:1026B8007851020D000EF324D96E020EF420DA6E62
:1026C80064C1DEFF65C1DDFF0201782B99D73A0EA0
:1026D8000201486F020146832D0E0201546F020168
:1026E80052833A0E0201606F02015E83000E0201FE
:1026F800796F02017951020D290EF324D96E020E69
:10270800F420DA6E3E0EDE6E020EDD6E0201792BCB
:1027180002017951020D290EF324D96E020EF4201C
:10272800DA6E420EDE6E020EDD6E0201792B0201B8
:102738007951020D290EF324D96E020EF420DA6EB7
:102748004A0EDE6E020EDD6E0201792B020179510E
:10275800020D290EF324D96E020EF420DA6E4E0E05
:10276800DE6E020EDD6E0201792B02017951020D37
:10277800290EF324D96E020EF420DA6E560EDE6EA0
:10278800020EDD6E0201792B02017951020D290E2C
:10279800F324D96E020EF420DA6E5A0EDE6E020EA3
:1027A800DD6E0201792B02017951020D290EF32405
:1027B800D96E020EF420DA6E620EDE6E020EDD6E47
:1027C8000201792B02017951020D290EF324D96EE9
:1027D800020EF420DA6E660EDE6E020EDD6E020167
:1027E800792B2B0E01019D19D8A407D0000E0101E9
:1027F8009D6F67EC59F0000E12002A0E01019D1919
:10280800D8A4FAD3000E01019D6F02013C510101C9
:10281800646F02013D510101656F0101666B0101A1
:10282800676B0B0ED89001016437653766376737D9
:10283800E82EF8D76BC268F10101696B6A6B6B6BA4
:10284800160ED8900101683769376A376B37E82E5A
:10285800F8D76CC26CF101016D6B6E6B6F6B1D0E5E
:10286800D89001016C376D376E376F37E82EF8D77F
:102878000101685101016C250101706F0101695165
:1028880001016D210101716F01016A5101016E2180
:102898000101726F01016B5101016F210101736F19
:1028A80001016451010170250101746F0101655135
:1028B800010171210101756F010166510101722148
:1028C8000101766F01016751010173210101776FE1
:1028D80002013A51010174250201726F02013B5154
:1028E800010175210201736F000E010176210201B9
:1028F800746F000E010177210201756F160E010138
:102908004F6F020E0101506F720E0101516F020EDE
:102918000101526F60C153F161C154F167EC62F07B
:1029280067EC59F0010E12003CC27AF23DC27BF20C
:102938007AC242F17BC243F1000E0101456F0A0ED3
:10294800446F3AEC64F0010142510201676F7AC2A8
:1029580042F17BC243F1000E0101456F0A0E446F3C
:10296800E6EC62F042C17AF243C17BF27AC242F1EC
:102978007BC243F1000E0101456F060E446F3AEC2D
:1029880064F0010142510201636F7AC242F17BC2D5
:1029980043F1000E0101456F060E446FE6EC62F04C
:1029A80042C17AF243C17BF27AC242F17BC243F15F
:1029B800000E0101456F0A0E446F3AEC64F0010104
:1029C800425102015B6F7AC242F17BC243F1000EB1
:1029D8000101456F0A0E446FE6EC62F001014251B5
:1029E8000201576F3AC27AF23BC27BF27AC242F1D5
:1029F8007BC243F1000E0101456F0A0E446F3AECA9
:102A080064F00101425102014F6F7AC242F17BC268
:102A180043F1000E0101456F0A0E446FE6EC62F0C7
:102A280042C17AF243C17BF27AC242F17BC243F1DE
:102A3800000E0101456F060E446F3AEC64F0010187
:102A4800425102014B6F7AC242F17BC243F1000E40
:102A58000101456F060E446FE6EC62F042C17AF25E
:102A680043C17BF27AC242F17BC243F1000E0101FD
:102A7800456F0A0E446F3AEC64F0010142510201BD
:102A8800436F7AC242F17BC243F1000E0101456FE8
:102A98000A0E446FE6EC62F00101425102013F6FF9
:102AA800000E02016E6F070E02016E6501D025D07F
:102AB80002016E51020D290EF324D96E020EF42084
:102AC800DA6E10EE02F0DE50E126DD50E22202015D
:102AD8006E51020D290EF324D96E020EF420DA6E1F
:102AE80000EE01F0DE50E926DD50EA22EF50B8ECA6
:102AF8005EF0E76E02016E2BD6D7000E0101506F13
:102B0800020E0101516F0B0E0101526F050E0101FA
:102B1800536FF5EC58F02D0E01019D19D8B404D06F
:102B280002012005D8A473D2000E01019D6F000E8A
:102B38000201206F000E0201776F290E0101426F1A
:102B4800020E0101436F080E0101446FF1EC67F0BA
:102B580002017751020D290EF324D96E020EF420DA
:102B6800DA6EDECF64F1DDCF65F164C1D9FF65C1EE
:102B7800DAFF0201DF80000E02016F6F070E02010B
:102B88006F6501D025D002016F51020D290EF32483
:102B9800D96E020EF420DA6E10EE02F0DE50E12655
:102BA800DD50E22202016F51020D290EF324D96E85
:102BB800020EF420DA6E00EE01F0DE50E926DD5058
:102BC800EA22EF50B8EC5EF0E76E02016F2BD6D721
:102BD800000E0101506F020E0101516F0B0E010131
:102BE800526F050E0101536FF5EC58F02B0E0101E1
:102BF8009D19D8A406D0000E01019D6F67EC59F00D
:102C080006D22A0E01019D19D8A44ED1000E010149
:102C18009D6F010E02016A6F000E0201396FD5D057
:102C280002013951040DF3CF71F202017151020D05
:102C3800290EF324D96E020EF420DA6E10EE01F09C
:102C4800DE50E126DD50E222E7500201216F020149
:102C580071510101646F656BD89001016437653764
:102C6800020E01016427000E6523290E0101642567
:102C7800D96E020E01016521DA6E10EE01F0DE5008
:102C8800E126DD50E222E7500201226F0201715174
:102C98000101646F656BD890010164376537040ED4
:102CA80001016427000E6523290E01016425D96EF0
:102CB800020E01016521DA6E10EE01F0DE50E12608
:102CC800DD50E222E7500201236F02017151010138
:102CD800646F656BD890010164376537060E010192
:102CE8006427000E6523290E01016425D96E020EA2
:102CF80001016521DA6E10EE01F0DE50E126DD50AB
:102D0800E222E7500201246F020121510A0D02015B
:102D18002251F326000EF422F4BE09D0F45004E147
:102D2800180EF35CD8A003D071C277F215D0020157
:102D380023510A0D02012451F326000EF422F4BE99
:102D48000FD0F45004E13C0EF35CD8A009D0020186
:102D58007151020F0201776F000E02016A6F33D0C2
:102D680021C242F10101436B020E0101456F580E69
:102D7800446F0EEC69F0020122513C0DF350010141
:102D88004227F45001014323020123510A0DF35055
:102D980001014227F450010143230201245101019A
:102DA8004227000E0101432302013951020D250E6D
:102DB800F324D96E020EF420DA6E010142C1DEFF5F
:102DC800010143C1DDFF0201392B020E0201396105
:102DD80005D002016A510201D8A422D702016A5122
:102DE8000201D8B448D0020125510201275D020131
:102DF800265102012859D8B03ED0000E0201706F4A
:102E0800030E0201706501D030D002017051020D2D
:102E1800290EF324D96E020EF420DA6E10EE01F0BA
:102E2800DE50E126DD50E222020170510101646F9B
:102E3800656BD890010164376537080E0101642776
:102E4800000E6523290E01016425D96E020E0101C9
:102E58006521DA6E00EE01F0DE50E926DD50EA2247
:102E6800E7CFEFFF0201702BCBD7040E0201776F7B
:102E7800000E02016A6F02016A510201D8B432D011
:102E8800290E0101426F020E0101436F080E010174
:102E9800446FF1EC67F025C23AF226C23BF227C232
:102EA8003CF228C23DF2B3D0280E01019D19D8A4E6
:102EB8000AD0000E01019D6F070E0201776112D042
:102EC8000201772B0FD0290E01019D19D8A40AD031
:102ED800000E01019D6F020177510201D8B402D0A2
:102EE80002017707090E0101426F000ED0EC66F06F
:102EF8000201766F02017629D8B41FD602017751F4
:102F0800020D290EF324D96E020EF420DA6E10EEAB
:102F180001F0DE50E126DD50E22276C2E7FF070E1F
:102F2800020177610AD60201772B07D6080E010144
:102F38004C6F090E01014D6F02016B51D2EC63F029
:102F4800070E0101426F010ED0EC66F00201766FA8
:102F580002017629D8B407D002017651B4EC65F0A5
:102F680002016B1B54D01E0E01019D19D8A405D077
:102F7800000E01019D6F000E09D02D0E01019D1953
:102F8800D8A445D0000E01019D6F7F0E02016B6F22
:102F98003ED0040E01014C6F080E01014D6F020175
:102FA8006C51D2EC63F0030E0101426F010ED0ECBC
:102FB80066F00201766F02017629D8B407D00201C3
:102FC8007651B4EC65F002016C1B21D01E0E010194
:102FD8009D19D8A405D0000E01019D6F000E09D0DF
:102FE8002D0E01019D19D8A412D0000E01019D6F6C
:102FF800070E02016C6F0BD002016D51010AD8B4A3
:1030080093D4030AD8B492D7010AD8B4C2D7280EE9
:1030180001019D19D8A410D0000E01019D6F67EC25
:1030280059F0030E02016D19D8A402D0010E14D074
:1030380002016D2BF5EF13F0290E01019D19D8A49B
:10304800F5EF13F0000E01019D6F67EC59F00201D6
:103058006D05D8A405D0030E02016D6FF5EF13F0CE
:1030680002016D07F5EF13F067EC59F00301D95130
:10307800FC0B0209D96FF30E0301D91701015C514A
:1030880001015D11D8B426D05CC1D9FF5DC1DAFF5A
:103098000101DF50030B01015F6F0301D9510101E9
:1030A8005F19FC0B5F190301D96F5CC1D9FF5DC1C2
:1030B800DAFF0101DF30E832030B01015F6F010124
:1030C8005F475F470301D95101015F19F30B5F198E
:1030D8000301D96F6DC0BCF26EC0BDF26FC0BEF205
:1030E800BC0E0601886F020E0601896F26EE76F087
:1030F80012EE2FF0110EDBCFE3FFE806FCE22F0EF5
:1031080006018A6F020E06018B6F24EE82F012EE22
:103118009EF0040EDBCFE3FFE806FCE29E0E0601FC
:103128008C6F020E06018D6F24EE87F012EEA3F06D
:10313800040EDBCFE3FFE806FCE2A30E06018E6F68
:10314800020E06018F6F24EE8CF012EEA8F0040E2A
:10315800DBCFE3FFE806FCE2A80E0601906F020E43
:103168000601916F24EE91F012EEADF0040EDBCF64
:10317800E3FFE806FCE2AD0E0601926F020E0601BF
:10318800936F24EE96F012EEB2F0040EDBCFE3FF5D
:10319800E806FCE2B20E0601946F020E0601956F76
:1031A80024EE2BF012EE62F0050EDBCFE3FFE8060B
:1031B800FCE2620E0601966F020E0601976F24EE7E
:1031C8009BF012EEB7F0040EDBCFE3FFE806FCE25B
:1031D800B70E0601986F020E0601996F24EE31F0C2
:1031E80012EE68F0050EDBCFE3FFE806FCE2680E9E
:1031F80006019A6F020E06019B6FBC0E06019C6FBA
:10320800020E06019D6F2F0E06019E6F020E06012B
:103218009F6F24EE37F012EE6EF0050EDBCFE3FF62
:10322800E806FCE26E0E0601A06F020E0601A16F11
:1032380024EE3DF012EE74F0050EDBCFE3FFE80656
:10324800FCE2740E0601A26F020E0601A36F24EEC3
:1032580043F012EE7AF0050EDBCFE3FFE806FCE25E
:103268007A0E0601A46F020E0601A56F24EE49F03E
:1032780012EE80F0050EDBCFE3FFE806FCE2800EDD
:103288000601A66F020E0601A76F24EE4FF012EE9C
:1032980086F0050EDBCFE3FFE806FCE2860E0601AA
:1032A800A86F020E0601A96F24EE55F012EE8CF0FD
:1032B800050EDBCFE3FFE806FCE28C0E0601AA6FE1
:1032C800020E0601AB6F24EE5BF012EE92F0050ED3
:1032D800DBCFE3FFE806FCE2920E0601AC6F020EBC
:1032E8000601AD6F24EE61F012EE98F0050EDBCF0B
:1032F800E3FFE806FCE2980E0601AE6F020E060137
:10330800AF6F70C064F171C065F172C066F1640E90
:103318000601B06F010E0601B16FA5C1BFF2A6C1CB
:10332800C0F2BF0E0601B26F020E0601B36FA7C14D
:10333800C1F2A8C1C2F2C10E0601B46F020E0601A5
:10334800B56FA9C1C3F2AAC1C4F2C30E0601B66F14
:10335800020E0601B76FABC1C5F2ACC1C6F2C50E0D
:103368000601B86F020E0601B96FADC1C7F2AEC152
:10337800C8F2C70E0601BA6F020E0601BB6FAFC1D5
:10338800C9F2B0C1CAF2C90E0601BC6F020E06012D
:10339800BD6FB1C1C6F3B2C1C7F3C60E0601BE6F99
:1033A800030E0601BF6FB3C1C8F3B4C1C9F3C80E99
:1033B8000601C06F030E0601C16FB5C1CAF3B6C1DD
:1033C800CBF3CA0E0601C26F030E0601C36F0101DB
:1033D8005E510101D8A404D01F0E01015E6F02D016
:1033E80001015E07000E0301DA6F200E0301DA65A2
:1033F80001D062D00301DA51040D030EF326000E4A
:10340800F422000EF324D96E030EF420DA6EDAC328
:10341800DFFF0301DA51040D000EF324D96E030E09
:10342800F420DA6E0301DF900301DA51040D000E77
:10343800F324D96E030EF420DA6E0301DF82030150
:10344800DA51040D010EF326000EF422000EF324C7
:10345800D96E030EF420DA6E000EDF6E0301DA5126
:10346800040D020EF326000EF422000EF324D96E8A
:10347800030EF420DA6E200EDF6E0301DA51040D1C
:10348800000E01015F6F030E0101606FF35001012F
:103498005F27F450010160230301DA51020D840E05
:1034A800F324D96E030EF420DA6E5FC1DEFF60C12B
:1034B800DDFF0301DA2B99D7000E0301826F000E9E
:1034C8000301DB6F000E0301D86F000E0301CC6F00
:1034D800000ECD6F000ECE6F000ECF6F01015A5156
:1034E80001015B11D8B447D0000E0201CB6F2DD07B
:1034F8000201CB51010DF35001015A25D96EF45048
:1035080001015B21DA6E0201CB51040D020EF32694
:10351800000EF422000EF324E16E030EF420E26E96
:10352800DFCFE7FF0201CB51040D010EF326000E99
:10353800F422000EF324D96E030EF420DA6E010E85
:10354800DF6ECBC2DBF30201CB2B0201CB51010DA5
:10355800F35001015A25D96EF45001015B21DA6E4E
:10356800DF50D8A4C5D701015E510301DB5DD8B097
:1035780002D00301DB2B0301D8510301D8B433D0A7
:10358800CCC346F1CDC347F1CEC348F1CFC349F10F
:103598002C0E01014A6F010E4B6F000E4C6F000E8E
:1035A8004D6F0AEC51F00009D8B41DD0000E03018C
:1035B800D86F01015E510301DB5DD8B014D0010161
:1035C8005E51020D840EF324D96E030EF420DA6ED8
:1035D80010EE01F0DE50E126DD50E222E750D8A4DB
:1035E80002D00301DB2B1D0E01019D6532D1280E8F
:1035F80001019D612ED101019D510301D819D8A463
:103608000ED0030120EE01F0D051D926D151DA2293
:10361800DF50D8B404D00301D04BD12B32D0C40E24
:1036280001015F6FFF0E0101606F0301D931E832BC
:10363800030B0101616F010161510A0D01019D51E7
:103648000101626F636BF35001016227F4500101BD
:103658006323D89001016237633701015F5101018B
:1036680062270101605101016323880E010162256F
:10367800D96E060E01016321DA6EDECFD0F3DDCFFD
:10368800D1F301019D510301D819D8B481D00101AA
:103698005E51020D840EF324D96E030EF420DA6E07
:1036A80010EE01F0DE50E126DD50E222E750D8A40A
:1036B8006FD001015E510301DB5DD8B007D0030173
:1036C800D8510301D8B402D00301DB2B01015E51AC
:1036D800020D840EF324D96E030EF420DA6EDECFC9
:1036E800D5F3DDCFD6F35EC167F13ED0FE0E010102
:1036F8005F6FFF0E0101606F010167510101616F8A
:10370800626BD89001016137623701015F51010195
:1037180061270101605101016223840E01016125C5
:10372800D96E030E01016221DA6E01016751020DA3
:10373800840EF324E16E030EF420E26EDECFE6FF82
:10374800DDCFE5FF01016751020D840EF324D96E28
:10375800030EF420DA6E10EE03F0DE50E126DD50A1
:10376800E222E72A01016707010167510301DB5DD6
:10377800D8A0BCD70301DB51020D840EF324D96E07
:10378800030EF420DA6ED5C3DEFFD6C3DDFF0DD0FD
:103798000301DB51020D840EF324D96E030EF420CD
:1037A800DA6EDECFD5F3DDCFD6F3D0C3D9FFD1C3E0
:1037B800DAFF030110EE02F0D551E126D651E222DC
:1037C800DFCFE7FF0301D951030BE806D8A405D0E2
:1037D8000301DB510301D8B406D00301D951030B0F
:1037E800020AD8A412D0030120EE02F0D551D9263E
:1037F800D651DA22030110EE02F0D551E126D65156
:10380800E222E7504EEC31F0DF6E030120EE03F0C8
:10381800D551D926D651DA22DBC3DFFF030120EECA
:1038280001F0D551D926D651DA22010EDF6E9DC19D
:10383800D8F3000E01019D6F010E12EC6BF086ECBF
:103848006BF042C1CCF343C1CDF344C1CEF345C1C3
:10385800CFF3840E0101426F030E0101436F200E66
:103868000101446FF1EC67F00301DB51020D840E96
:10387800F324D96E030EF420DA6EDECF5FF1DDCFCC
:1038880060F15FC1D9FF60C1DAFF0301DF80840EF8
:103898000101506F030E0101516F200E0101526F9B
:1038A800000E0101536FF5EC58F0280E01019D1927
:1038B800D8A421D0000E01019D6F01015E510301C2
:1038C800DB5DD8B058D60301DB51020D840EF3241A
:1038D800D96E030EF420DA6E10EE01F0DE50E12608
:1038E800DD50E222E750D8B446D60301DB2B000EA8
:1038F80012EC6BF00CD1290E01019D19D8A40ED041
:10390800000E01019D6F0301DB510301D8B433D6CA
:103918000301DB07000E12EC6BF0F9D02A0E01014F
:103928009D19D8A44ED0000E01019D6F000E030111
:10393800D76F200E0301D76501D02FD00301D751CF
:10394800020D840EF324D96E030EF420DA6E10EE05
:1039580001F0DE50E126DD50E222E750D8B41DD058
:103968000301D751020D840EF324D96E030EF420FF
:10397800DA6E10EE02F0DE50E126DD50E22203019D
:10398800D751010D410EF324D96E020EF420DA6EE0
:10399800E7CFDFFF0301D72BCCD70301D751010DA8
:1039A800410EF324D96E020EF420DA6E000EDF6E9B
:1039B80067EC59F0410E01015A6F020E01015B6F6D
:1039C80012002B0E01019D19D8A40AD0000E010186
:1039D8009D6F67EC59F0000E01015A6F000EEED78B
:1039E8002C0E01019D19D8A496D0000E01019D6FDF
:1039F8000301D8510301D8B402D00301DB2B030122
:103A0800DB510301D8B4B7D5FE0E01015F6FFF0E7D
:103A18000101606F0301DB510101616F626BD89096
:103A280001016137623701015F510101612701011D
:103A3800605101016223840E01016125D96E030ED4
:103A480001016221DA6EDECFD2F3DDCFD3F30301B9
:103A580020EE01F0D251D926D351DA22000EDF6EC2
:103A6800030120EE02F0D251D926D351DA22200EDA
:103A7800DF6E030120EE03F0D251D926D351DA22AA
:103A88001F0EDF6E0301DB050301D46F1F0E030158
:103A9800D46501D036D00301D45101015F6F606B4A
:103AA800D89001015F376037020E01015F27000ED1
:103AB8006023840E01015F25D96E030E0101602188
:103AC800DA6E0301D451020D840EF324E16E030E65
:103AD800F420E26EDECFE6FFDDCFE5FF0301D4512F
:103AE800020D840EF324D96E030EF420DA6E10EE64
:103AF80003F0DE50E126DD50E222E7060301D42B75
:103B0800C5D7D2C3C2F3D3C3C3F30301DB07000E87
:103B18000301D86F30D52D0E01019D19D8A42BD5DE
:103B2800000E01019D6FD90E0101556F030E0101B1
:103B3800566F6AEC37F01FD501018EA704D001013A
:103B48008E9767EC59F0200E01019D19D8A421D059
:103B5800800E0101B71907E10101B805D8A403D007
:103B680001018DA116D0000E01019D6F67EC59F07F
:103B780001018DB104D002018F6B8F2B02D002019D
:103B88008F6B01018D5102018F19FE0B8F190101F5
:103B98008D6F2D0E01019D19D8A414D0800E01013E
:103BA800B71904E10101B805D8B40CD001018DA101
:103BB80009D0000E01019D6FB7C18DF2B8C18EF218
:103BC8001EEC56F001018DB31DD085C1A1F186C14F
:103BD800A2F187C1A3F188C1A4F1A10E0101606F10
:103BE800010E0101616FA9EC3EF060C1B7F161C13E
:103BF800B8F101018DA104D001018D9167EC59F054
:103C080001018D83800E0101B71904E10101B80596
:103C1800D8B403D001018DB19BD201019B510101A0
:103C28009E110201EE6F0201EE510201D8B43AD0A2
:103C3800A5C4DDF2A6C4DEF2A7C4DFF2A8C4E0F290
:103C4800010E0201E96F030E0201E96501D019D0E6
:103C58000201EE51010B0201CF6F0201D890EE3341
:103C68000201CF05D8A40AD0DEC2DDF2DFC2DEF23F
:103C78000201E951B8EC5EF00201DF6F0201E92BA5
:103C8800E2D7DD0E01014C6F020E01014D6F000EEF
:103C980001014E6F0D0E01014F6F010E0101506FB2
:103CA800D1EC52F024EE0AF012EEB1F0080EDBCFA0
:103CB800E3FFE806FCE285C142F186C143F187C112
:103CC80044F188C145F1640E0101466F000E476F4B
:103CD800000E486F000E496F64EC53F042C1F3F2D6
:103CE80043C1F4F244C1F5F245C1F6F2F3C242F120
:103CF800F4C243F1F5C244F1F6C245F10A0E0101DE
:103D0800466F000E476F000E486F000E496F06ECB5
:103D180058F001014251B8EC5EF00201B86FF3C2ED
:103D280042F1F4C243F1F5C244F1F6C245F10A0E7C
:103D38000101466F000E476F000E486F000E496F75
:103D480064EC53F042C1F3F243C1F4F244C1F5F21A
:103D580045C1F6F2F3C242F1F4C243F1F5C244F1AF
:103D6800F6C245F1060E0101466F000E476F000EC0
:103D7800486F000E496F06EC58F001014251B8EC4B
:103D88005EF00201B76FF3C242F1F4C243F1F5C22B
:103D980044F1F6C245F1060E0101466F000E476F69
:103DA800000E486F000E496F64EC53F042C1F3F205
:103DB80043C1F4F244C1F5F245C1F6F2F3C242F14F
:103DC800F4C243F1F5C244F1F6C245F10A0E01010D
:103DD800466F000E476F000E486F000E496F06ECE5
:103DE80058F001014251B8EC5EF00201B56FF3C220
:103DF80042F1F4C243F1F5C244F1F6C245F10A0EAC
:103E08000101466F000E476F000E486F000E496FA4
:103E180064EC53F042C1F3F243C1F4F244C1F5F249
:103E280045C1F6F2F3C242F1F4C243F1F5C244F1DE
:103E3800F6C245F1060E0101466F000E476F000EEF
:103E4800486F000E496F06EC58F001014251B8EC7A
:103E58005EF00201B46FF3C242F1F4C243F1F5C25D
:103E680044F1F6C245F1060E0101466F000E476F98
:103E7800000E486F000E496F64EC53F042C1F3F234
:103E880043C1F4F244C1F5F245C1F6F2F3C242F17E
:103E9800F4C243F1F5C244F1F6C245F1180E01012E
:103EA800466F000E476F000E486F000E496F64ECB6
:103EB80053F0010142290201D06FF3C242F1F4C26A
:103EC80043F1F5C244F1F6C245F1180E0101466FFF
:103ED800000E476F000E486F000E496F06EC58F051
:103EE80042C1F3F243C1F4F244C1F5F245C1F6F21E
:103EF800F3C242F1F4C243F1F5C244F1F6C245F10E
:103F08000A0E0101466F000E476F000E486F000E43
:103F1800496F06EC58F001014251B8EC5EF002011D
:103F2800B26FF3C242F1F4C243F1F5C244F1F6C2F2
:103F380045F10A0E0101466F000E476F000E486FEB
:103F4800000E496F64EC53F001014251B8EC5EF089
:103F58000201B16F01019F05D8A444D081C18FF23D
:103F680082C190F283C191F284C192F202018F1F43
:103F7800901F911F921F8F2B000E90239123922345
:103F88000101855102018F250201CB6F0101865184
:103F9800020190210201CC6F010187510201912198
:103FA8000201CD6F01018851020192210201CE6FF9
:103FB8000201CEBF17D00201CE510201CD1102017C
:103FC800CC1105E1C80E0201CB5DD8A00BD085C18C
:103FD80081F186C182F187C183F188C184F1000E25
:103FE80001019F6F01019B5101019E110201EE6FBA
:103FF80001019F510101D8A420D0070E0201EE193A
:10400800D8B405D0000E0201D46F050E04D0000EFE
:104018000201D46F040ED36FB10E01014C6F020E72
:1040280001014D6F000E01014E6FD3C24FF1000E1A
:104038000101506FD1EC52F06AD001019F05D8A45C
:1040480066D001018FA736D09B0E0101426F020E88
:104058000101436F5A0E0101446FFF0E0101456FC4
:104068001AEC67F00101A0510101506F516B526BBE
:10407800536B9B0E0101546F020E0101556F060E22
:104088000101566FE4EC3FF096C150F197C151F130
:104098000101000E51BFFF0E526F536F9B0E0101BD
:1040A800546F020E0101556F040E0101566FE4ECC6
:1040B8003FF00ED09B0E0101426F020E0101436FCB
:1040C800480E0101446FFF0E0101456F1AEC67F0BD
:1040D800070E0201EE19D8B405D0000E0201D66F02
:1040E800050E04D0000E0201D66F040ED56F9B0E8C
:1040F80001014C6F020E01014D6F000E01014E6F60
:10410800D5C24FF1000E0101506FD1EC52F0070EED
:104118000201EE19D8B405D0000E0201D86F020EC4
:1041280004D0000E0201D86F010ED76F0201D051E2
:10413800AEEC60F042C14CF143C14DF1000E0101FB
:104148004E6FD7C24FF1000E0101506FD1EC52F003
:1041580001018DA915D001018DB112D0FB0E01010D
:104168004C6FFD0E01014D6F010E01014E6F000EE7
:1041780001014F6F000E0101506FD1EC52F0120097
:10418800800E0101B71904E10101B805D8B40DD2B8
:1041980025EE12F012EEBAF0100EDBCFE3FFE806C0
:1041A800FCE2070E0201BA6F010E0201DB6F01018A
:1041B8008DA106D0000E0201DB6FF10E0201BF6F68
:1041C800000E0201E46F000EE56F000EE66F000EB0
:1041D800E76F930E01014F6F020E0101506FE40E5D
:1041E8000101516F020E0101526FB7C153F1B8C1FD
:1041F80054F146EC5DF0E4C242F1E5C243F1E6C297
:1042080044F1E7C245F1D90E0101466F020E0101E2
:10421800476FEF0E0101486F020E0101496FDC0E76
:1042280001014A6F020E01014B6FE80E01014C6F4C
:10423800020E01014D6FD4EC59F0A1C150F1A2C199
:1042480051F1A3C152F1A4C153F1F10E0101546F10
:10425800020E0101556FE30E0101566F020E0101B6
:10426800576FA7EC62F0F1C242F1F2C243F1000EBF
:104278000101456F0A0E446F3AEC64F001014251A6
:10428800B8EC5EF00201C56FF1C242F1F2C243F12F
:10429800000E0101456F0A0E446FE6EC62F042C160
:1042A800F1F243C1F2F2F1C242F1F2C243F1000E5F
:1042B8000101456F060E446F3AEC64F0010142516A
:1042C800B8EC5EF00201C46FF1C242F1F2C243F1F0
:1042D800000E0101456F060E446FE6EC62F042C124
:1042E800F1F243C1F2F23A0E0201C36FF1C242F198
:1042F800F2C243F1000E0101456F0A0E446F3AEC19
:1043080064F001014251B8EC5EF00201C26FF1C2E3
:1043180042F1F2C243F1000E0101456F0A0E446FEB
:10432800E6EC62F001014251B8EC5EF00201C16FA7
:10433800010E0201EA6F030E0201EA6501D019D0ED
:104348000201E851010B0201D16F0201D890E83354
:104358000201D105D8A40AD0C8C2C7F2C9C2C8F29E
:104368000201EA51B8EC5EF00201C96F0201EA2BC2
:10437800E2D70201E351AEEC60F042C1E1F243C181
:10438800E2F2E1C2F6FFE2C2F7FF0800F5CFBCF2A5
:10439800010E0201E12502018F6F000E0201E221E8
:1043A8000201906F8FC2F6FF90C2F7FF0800F5CFA9
:1043B800BDF2BA0E01014C6F020E01014D6FDBC256
:1043C8004EF1000E01014F6F000E0101506FD1EC4C
:1043D80052F001018DA1120025EE45F012EEA4F075
:1043E8000C0EDBCFE3FFE806FCE2000E0201ED6FE6
:1043F8000C0EEC6F0201EC07D8A0ED07A40E020129
:10440800EC25D96E020E0201ED21DA6EEFC242F1FF
:10441800F0C243F1000E0101456F0A0E446F3AECF9
:1044280064F001014251B8EC5EF0DF6EEFC242F178
:10443800F0C243F1000E0101456F0A0E446FE6EC2D
:1044480062F042C1EFF243C1F0F20201EC07D8A0DA
:10445800ED07A40E0201EC25D96E020E0201ED2132
:10446800DA6EEFC242F1F0C243F1000E0101456F6E
:10447800060E446F3AEC64F001014251B8EC5EF06C
:10448800DF6EEFC242F1F0C243F1000E0101456F49
:10449800060E446FE6EC62F042C1EFF243C1F0F25F
:1044A8000201EC07D8A0ED070201EC07D8A0ED0740
:1044B800A40E0201EC25D96E020E0201ED21DA6E7E
:1044C800EFC242F1F0C243F1000E0101456F0A0E3E
:1044D800446F3AEC64F001014251B8EC5EF0DF6ED3
:1044E8000201EC07D8A0ED07A40E0201EC25D96E55
:1044F800020E0201ED21DA6EEFC242F1F0C243F181
:10450800000E0101456F0A0E446FE6EC62F00101EE
:104518004251B8EC5EF0DF6EB7C18FF2B8C190F2CD
:104528000201D89090338F330201D89090338F33A3
:104538000201D89090338F3302018F290201EB6F6B
:10454800EBC250F10101516B000E0101536F0A0ECD
:10455800526F0CEC60F001015051B8EC5EF00201B2
:10456800D26FA5C2A6F2D2C2A5F20A0E0101426F0D
:104578000201EB5159EC65F00201EB6F0201EB51BE
:104588000201D8A4DDD7A40E01014C6F020E01016F
:104598004D6F010E01014E6F000E01014F6F000EAD
:1045A8000101506FD1EC52F0120001018DA104D02D
:1045B80067EC59F001018D91D90E01014C6FFD0E88
:1045C80001014D6F010E01014E6F000E01014F6F89
:1045D800000E0101506FD1EC52F0120001018EA5BE
:1045E800120001018E9501018FA1120001018F9522
:1045F800980E0001896FFC0E00018A6F000E000101
:104608008B6F000E00018C6F000E00018E6F020E82
:104618008D6F45EC42F00009D8B403D001018F85B5
:104628001200BE0E0001896FFF0E00018A6F000E96
:1046380000018B6F000E00018C6F000E00018E6F61
:10464800020E8D6F45EC42F00009D8A41200340E1A
:104658000001896FFC0E00018A6F0FEC6AF087C0B9
:104668008BF088C08CF0000E00018E6F020E8D6FEB
:1046780045EC42F00009D8B4A4D1C70E0001816FFF
:10468800040E0001826F090E0001836F52EC6BF07B
:104698000001C06FC70E0001816F040E0001826F18
:1046A800080E0001836F52EC6BF00A0DF350000105
:1046B800C0250101BD6FC70E0001816F040E000106
:1046C800826F0C0E0001836F52EC6BF00001C06F1B
:1046D800C70E0001816F040E0001826F0B0E0001EE
:1046E800836F52EC6BF00A0DF3500001C0250101F5
:1046F800BC6FC70E0001816F040E0001826F0F0EA0
:104708000001836F52EC6BF00001C06FC70E00010F
:10471800816F040E0001826F0E0E0001836F52EC50
:104728006BF00A0DF3500001C0250101BB6F180E94
:104738000001836FC70E0001816F040E0001826FB4
:1047480052EC6BF00001C06F170E0001836FC70EAB
:104758000001816F040E0001826F52EC6BF00001C2
:10476800C16F0001C1510A0D0001C051F3240001BD
:10477800C26F0001000EF4200001C36F0001C46B7A
:104788000001C3BFC4070001C4510001C56FFF0E7B
:104798000001C66FFF0E0001C76FBBC195F0BCC119
:1047A80094F00101BD518CEC57F00001C86FC96B42
:1047B8000001C6510001C8270001C7510001C923E3
:1047C800C8C09CF0C9C09DF00001000E9DBFFF0E3F
:1047D8009E6F9F6F800E0001A06F510EA16F010E9A
:1047E800A26F000EA36F5DEC63F09CC0CAF09DC081
:1047F800CBF09EC0CCF09FC0CDF0120E0001836FAD
:10480800C70E0001816F040E0001826F52EC6BF03D
:104818000001CE6F110E0001836FC70E0001816F7A
:10482800040E0001826F52EC6BF00001CF6F0001A3
:10483800CF510A0D0001CE51F326000EF422F3CF1A
:104848009CF0F4CF9DF00001000E9DBFFF0E9E6FFF
:104858009F6F100E0001A06F0E0EA16F000EA26FC9
:10486800000EA36F5DEC63F000019C510001CA25A6
:104878000001D06F00019D510001CB210001D16FD3
:1048880000019E510001CC210001D26F00019F510F
:104898000001CD210001D36F150E0001836FC70EF3
:1048A8000001816F040E0001826F52EC6BF0000171
:1048B800D46F140E0001836FC70E0001816F040EC0
:1048C8000001826F52EC6BF00001D56F0001D551E9
:1048D8000A0D0001D451F326000EF422F3CF9CF008
:1048E800F4CF9DF00001000E9DBFFF0E9E6F9F6FDD
:1048F8003C0E0001A06F000EA16F000EA26F000E0B
:10490800A36F5DEC63F000019C510001D02500010C
:10491800D66F00019D510001D1210001D76F000120
:104928009E510001D2210001D86F00019F51000162
:10493800D3210001D96F0001C2510001D625010120
:10494800376F0001C3510001D7210101386F000101
:10495800C4510001D8210101396F0001C55100017E
:10496800D92101013A6F37C19CF038C19DF039C196
:104978009EF03AC19FF0640E0001A06F000EA16F77
:10498800000EA26F000EA36F5DEC63F09CC03BF1BC
:104998009DC03CF19EC03DF19FC03EF13BC18EF0F1
:1049A8003CC18FF03DC190F03EC191F0C8EC4FF092
:1049B8003BC185F13CC186F13DC187F13EC188F11B
:1049C8001200100E0001896FFC0E00018A6FF8ECCE
:1049D80069F087C08BF088C08CF0000E00018E6FE4
:1049E800020E8D6F45EC42F00009D8B4CFD02C0EE2
:1049F8000001806F010E0001816F000E0001836FBE
:104A08000B0E826F000E0001846F74EC68F0000ECC
:104A18000101416F090E0101416501D020D001015A
:104A280041510001C06FC16B0B0E0001C027000E81
:104A3800C123000E0001C025D96E060E0001C12158
:104A4800DA6E01014151010D2C0EF324E16E010EC5
:104A5800F420E26EDFCFE7FF0101412BDBD72C0EFC
:104A68000001916F010E0001926FBCEC4AF091C0F9
:104A78003FF192C040F101013F5101014011D8A41A
:104A880042D0B40E0001806FFF0E0001816F000E4E
:104A98000001826F91EC6AF001018E91000E000115
:104AA800806F010E0001816F000E0001836F210EDF
:104AB800826F000E0001846F74EC68F0000E000134
:104AC800806F010E0001816F8B0E0001826FFD0E59
:104AD8000001836FCBEC64F0000E0001806F010EC3
:104AE8000001816F2C0E0001826F010E0001836F9F
:104AF800CBEC64F0000E0001806F010E0001816FA5
:104B0800C1EC45F01200C70E0001806FFF0E0001D6
:104B1800816F010E0001826F91EC6AF0980E00011E
:104B2800896FFC0E00018A6F000E00018B6F000E6A
:104B380000018C6F000E00018E6F020E8D6F45EC28
:104B480042F00009D8B4EAD701018E81ED0E0001C8
:104B5800806F050E0001816F110E01013F250001D4
:104B6800826F000E010140210001836F64EC67F041
:104B7800230E0001806FFF0E0001816F010E0001FE
:104B8800826F91EC6AF001018E991200850E000186
:104B9800896FFC0E00018A6FE1EC69F087C08BF029
:104BA80088C08CF0000E00018E6F020E8D6F45ECF0
:104BB80042F00009D8B4E5D0EBC49CF101018EA9FC
:104BC800D8D025EE82F011EE21F00A0EDBCFE3FFFC
:104BD800E806FCE29CC129F17DC180F07EC181F02C
:104BE800010E0001836F000E826F000E0001846FBA
:104BF80074EC68F0210E0001806F010E0001816FD6
:104C0800010E0001826F91EC6AF0980E0001896F25
:104C1800FC0E00018A6F000E00018B6F000E000170
:104C28008C6F000E00018E6F020E8D6F45EC42F006
:104C38000009D8B4EAD7340E01019C19D8A406D0CB
:104C4800000E01019B6F01018E871200370E0101D2
:104C58009C19D8A408D001019B51010901019B6F3F
:104C680001018E871200380E01019C19D8A408D0C2
:104C780001019B51020901019B6F01018E871200FE
:104C8800390E01019C19D8A408D001019B510409CF
:104C980001019B6F01018E871200300E01019C19E2
:104CA800D8A415D001018D89000E01019B6F030E58
:104CB8000001816FFC0E806F0101000E8DB9010E9D
:104CC8000001826F5FEC69F001018E871200350EDA
:104CD80001019C19D8A412D001018D9901018E8778
:104CE800030E0001816FFC0E806F0101000E8DB96B
:104CF800010E0001826F5FEC69F01200230E0101C2
:104D08009C19D8A4120001018F8301018E917DC1E5
:104D180080F07EC181F0010E0001836F000E826F6A
:104D2800000E0001846F74EC68F0B40E0001806F0F
:104D3800FF0E0001816F010E0001826F91EC6AF095
:104D4800980E0001896FFC0E00018A6F000E0001A9
:104D58008B6F000E00018C6F000E00018E6F020E2B
:104D68008D6F45EC42F00009D8B4EAD701018E995D
:104D780012002A0E01019C19D8A4120001018E8983
:104D88001200700E0001896FFC0E00018A6F000E80
:104D980000018B6F000E00018C6F000E00018E6FFA
:104DA800020E8D6F45EC42F00009D8B405D0010120
:104DB8008E9101018E991200930E0001896FFC0EED
:104DC80000018A6F000E00018B6F000E00018C6FCE
:104DD800000E00018E6F020E8D6F45EC42F0000947
:104DE800D8B405D001018E9101018E9912007B0E75
:104DF8000001896FFC0E00018A6F000E00018B6FA5
:104E0800000E00018C6F000E00018E6F020E8D6F78
:104E180045EC42F00009D8B405D001018E9101019A
:104E28008E991200640E0001896FFC0E00018A6FD2
:104E3800000E00018B6F000E00018C6F000E000148
:104E48008E6F020E8D6F45EC42F00009D8B405D084
:104E580001018E9101018E9912008D0E0001896F5A
:104E6800FC0E00018A6F000E00018B6F000E00011E
:104E78008C6F000E00018E6F020E8D6F45EC42F0B4
:104E88000009D8B409D0FA0E0001806FFE0E0001A7
:104E9800816FC1EC45F01200520E0001896FFC0EC3
:104EA80000018A6F000E00018B6F000E00018C6FED
:104EB800000E00018E6F020E8D6F45EC42F0000966
:104EC800D8B4120001018E9101018E9901018D9FC4
:104ED8001200250E0101426F020E0101436F000E00
:104EE8000101456F490E446F000E0101466F34EC15
:104EF80068F0250E0101456F020E0101466FBF0ED5
:104F08000101476FFE0E0101486F6BEC64F001016F
:104F18008DB97CD0250E0101456F020E0101466F47
:104F2800910E0101476FFF0E0101486F6BEC64F0B1
:104F380024EE73F012EE89F0040EDBCFE3FFE806EF
:104F4800FCE2080E0201BA6F030E0201B76F0201FC
:104F5800B7510201D8B44CD00201D890BA3102013D
:104F6800BA6F01019E510201BA150009D8B420D0C8
:104F7800FF0E0101686FFF0E0101696F0201B75151
:104F880001016A6F6B6B0101685101016A27010118
:104F9800695101016B23890E01016A25D96E020E40
:104FA80001016B21DA6E0201B751B8EC5EF01CD03A
:104FB800FF0E0101686FFF0E0101696F0201B75111
:104FC80001016A6F6B6B0101685101016A270101D8
:104FD800695101016B23890E01016A25D96E020E00
:104FE80001016B21DA6E2D0EDF6E0201B707AFD714
:104FF800250E0101456F020E0101466F890E010160
:10500800476F020E0101486F6BEC64F0250E010139
:10501800456F020E0101466F8A0E0101476FFF0EB0
:105028000101486F6BEC64F024EE78F012EE8EF01C
:10503800040EDBCFE3FFE806FCE2080E0201BA6FBC
:10504800030E0201B86F0201B8510201D8B44CD066
:105058000201D890BA310201BA6F01019B510201D5
:10506800BA150009D8B420D0FF0E0101686FFF0EF1
:105078000101696F0201B85101016A6F6B6B01018F
:10508800685101016A270101695101016B238E0EE4
:1050980001016A25D96E020E01016B21DA6E020147
:1050A800B851B8EC5EF01CD0FF0E0101686FFF0E1E
:1050B8000101696F0201B85101016A6F6B6B01014F
:1050C800685101016A270101695101016B238E0EA4
:1050D80001016A25D96E020E01016B21DA6E2D0ECF
:1050E800DF6E0201B807AFD7250E0101456F020E2A
:1050F8000101466F8E0E0101476F020E0101486FD4
:105108006BEC64F001018DA90ED0250E0101456FED
:10511800020E0101466FC70E0101476FFD0E010126
:10512800486F6BEC64F001018DB964D285C1B3F2AC
:1051380086C1B4F287C1B5F288C1B6F2B30E0101D7
:10514800606F020E0101616FA9EC3EF060C1ADF223
:1051580061C1AEF2800E0201AD1919E10201AE057E
:10516800D8A415D0000E0201B36F000EB46F000E64
:10517800B56F000EB66FB30E0101606F020E01012C
:10518800616FA9EC3EF060C1ADF261C1AEF2800E74
:105198000201AD1913E10201AE05D8A40FD0250E06
:1051A8000101456F020E0101466F770E0101476F3D
:1051B800FD0E0101486F6BEC64F01CD2250E010155
:1051C800456F020E0101466FB20E0101476FFE0ED8
:1051D8000101486F6BEC64F026EE63F012EE76F096
:1051E800120EDBCFE3FFE806FCE2760E0101426F08
:1051F800020E0101436F000E0101456F130E446F4B
:10520800000E0101466F34EC68F0000E0201A96F30
:10521800000EAA6F000EAB6F000EAC6F6E0E010190
:105228004F6F020E0101506FA90E0101516F020E5E
:105238000101526FADC253F1AEC254F146EC5DF0BC
:10524800A9C242F1AAC243F1ABC244F1ACC245F1D2
:10525800A40E0101466F020E0101476FAF0E010156
:10526800486F020E0101496FA60E01014A6F020E36
:1052780001014B6FA70E01014C6F020E01014D6F2A
:10528800D4EC59F0B3C250F1B4C251F1B5C252F1E5
:10529800B6C253F1B10E0101546F020E0101556FF0
:1052A800A80E0101566F020E0101576FA7EC62F0BC
:1052B800ADC498F2AEC499F2AFC49AF2B1C242F149
:1052C800B2C243F1000E0101456F3C0E446F3AEC47
:1052D80064F0010142C150F1010143C151F10101E2
:1052E800526B536B980E0101546F020E0101556FFA
:1052F800020E0101566FE4EC3FF0B1C242F1B2C2B6
:1053080043F1000E0101456F3C0E446FE6EC62F07C
:1053180042C1B1F243C1B2F2B0C49BF2B1C49CF233
:10532800B2C49DF2B1C250F1B2C251F10101526B47
:10533800536B9B0E0101546F020E0101556F020E53
:105348000101566FE4EC3FF0B3C49EF2B4C49FF27F
:10535800B5C4A0F2AFC242F1B0C243F1000E0101E0
:10536800456F3C0E446F3AEC64F0010142C150F1C4
:10537800010143C151F10101526B536B9E0E0101B2
:10538800546F020E0101556F020E0101566FE4ECD5
:105398003FF0AFC242F1B0C243F1000E0101456FC8
:1053A8003C0E446FE6EC62F042C1AFF243C1B0F28A
:1053B800B6C4A1F2B7C4A2F2B8C4A3F2AFC250F106
:1053C800B0C251F10101526B536BA10E0101546F30
:1053D800020E0101556F020E0101566FE4EC3FF019
:1053E800760E0101456F020E0101466F0201A851B8
:1053F800AEEC60F042C147F143C148F16BEC64F098
:10540800760E0101456F020E0101466F710E010112
:10541800476FFF0E0101486F6BEC64F0760E0101D7
:10542800456F020E0101466F9B0E0101476F020E88
:105438000101486F6BEC64F0760E0101456F020EB6
:105448000101466FBC0E0101476FFF0E0101486F55
:105458006BEC64F0760E0101456F020E0101466F98
:10546800980E0101476F020E0101486F6BEC64F062
:10547800760E0101456F020E0101466FE80E01012B
:10548800476FFF0E0101486F6BEC64F0760E010167
:10549800456F020E0101466FA10E0101476F020E12
:1054A8000101486F6BEC64F0760E0101456F020E46
:1054B8000101466FBC0E0101476FFF0E0101486FE5
:1054C8006BEC64F0760E0101456F020E0101466F28
:1054D8009E0E0101476F020E0101486F6BEC64F0EC
:1054E800760E0101456F020E0101466F710E010132
:1054F800476FFF0E0101486F6BEC64F024EE7DF0FE
:1055080012EE93F0040EDBCFE3FFE806FCE2080E90
:105518000201BA6F030E0201B96F0201B95102010B
:10552800D8B44CD00201D890BA310201BA6F020146
:10553800A7510201BA150009D8B420D0FF0E010105
:10554800686FFF0E0101696F0201B95101016A6FAD
:105558006B6B0101685101016A2701016951010161
:105568006B23930E01016A25D96E020E01016B218E
:10557800DA6E0201B951B8EC5EF01CD0FF0E0101E1
:10558800686FFF0E0101696F0201B95101016A6F6D
:105598006B6B0101685101016A2701016951010121
:1055A8006B23930E01016A25D96E020E01016B214E
:1055B800DA6E2D0EDF6E0201B907AFD7760E010144
:1055C800456F020E0101466F930E0101476F020EEF
:1055D8000101486F6BEC64F0250E0101456F020E66
:1055E8000101466F760E0101476F020E0101486FF7
:1055F8006BEC64F0250E0101456F020E0101466F48
:105608007B0E0101476FFF0E0101486F6BEC64F0E0
:10561800250E0101666F020E0101676F120000017D
:10562800806F4AD1200E1200300E1200310E120087
:10563800320E1200330E1200340E1200350E120014
:10564800360E1200370E1200380E1200390E1200F4
:105658002D0E12002D0E1200210E1200220E120025
:10566800230E1200240E1200250E1200260E120020
:10567800280E1200290E12002A0E12002C0E1200FB
:105688002E0E12002F0E12003A0E12003B0E1200C0
:105698003F0E1200400E12005B0E12005D0E12004B
:1056A8005E0E12005F0E1200600E1200270E12002E
:1056B8002B0E12003C0E12003D0E12003E0E120080
:1056C800EF0E1200C80E1200C90E12002F0E1200A3
:1056D800E90E1200410E1200610E1200420E120075
:1056E800620E1200430E1200630E1200440E1200E6
:1056F800640E1200450E1200650E1200460E1200CE
:10570800660E1200470E1200670E1200480E1200B5
:10571800680E1200490E1200690E12004A0E12009D
:105728006A0E12004B0E12006B0E12004C0E120085
:105738006C0E12004D0E12006D0E12004E0E12006D
:105748006E0E1200CC0E12004F0E12006F0E1200D9
:10575800500E1200700E1200510E1200710E12003F
:10576800520E1200720E1200530E1200730E120027
:10577800540E1200740E1200550E1200750E12000F
:10578800560E1200760E1200570E1200770E1200F7
:10579800580E1200780E1200590E1200790E1200DF
:1057A8005A0E12007A0E1200410E1200610E1200FB
:1057B800A00E1200B20E1200420E1200B30E12001A
:1057C800A10E1200B40E1200E00E1200E30E120039
:1057D800450E1200650E1200A20E1200B50E120040
:1057E800A30E1200B60E1200A40E1200B70E12007D
:1057F800A50E1200B80E1200A60E1200B90E120065
:105808004B0E1200BA0E1200A70E1200BB0E1200A9
:10581800BC0E12004D0E1200480E1200BD0E1200F2
:105828004F0E12006F0E1200A80E1200BE0E1200CC
:10583800500E1200700E1200430E1200630E12007A
:10584800BF0E1200540E1200A90E1200790E12009B
:10585800AA0E1200E40E1200580E1200780E120062
:10586800E10E1200E50E1200AB0E1200C00E12007F
:10587800AC0E1200C10E1200E20E1200E60E12006B
:10588800AD0E1200C20E1200AE0E1200C30E1200B0
:10589800C40E1200C40E1200AF0E1200C50E120084
:1058A800B00E1200C60E1200B10E1200C70E120082
:1058B800ED0E12003F0E120000018051070AD8B405
:1058C800F7D7270AD8B4AED6010AD8B4C5D6030A82
:1058D800D8B4C4D6010AD8B4C3D6070AD8B4C2D635
:1058E800010AD8B4C1D6030AD8B4C0D60E0AD8B4AF
:1058F800BFD6010AD8B4BED6030AD8B4BDD6010AA9
:10590800D8B4D6D6070AD8B4B9D6010AD8B4A0D61E
:10591800030AD8B4B5D6010AD8B4B4D61F0AD8B485
:1059280083D6010AD8B482D6030AD8B481D6010A2C
:10593800D8B480D6070AD8B47FD6010AD8B47ED6A0
:10594800030AD8B47DD6010AD8B47CD60F0AD8B4D5
:105958007BD6010AD8B47AD6030AD8B495D6010AF8
:10596800D8B494D6070AD8B4A5D6010AD8B4A4D610
:10597800030AD8B4A3D6010AD8B48AD67F0AD8B401
:1059880089D6010AD8B4A6D6030AD8B4A7D6010A7C
:10599800D8B4A8D6070AD8B4A9D6010AD8B4AAD6C2
:1059A800030AD8B4ABD6010AD8B4ACD60F0AD8B417
:1059B800ADD6010AD8B4AED6030AD8B4AFD6010A18
:1059C800D8B4B0D6070AD8B4B1D6010AD8B4B2D67A
:1059D800030AD8B4B3D6010AD8B4B6D61F0AD8B4C5
:1059E800B7D6010AD8B4B8D6030AD8B4B9D6010ACA
:1059F800D8B4BAD6070AD8B4BBD6010AD8B4BCD62C
:105A0800030AD8B4BDD6010AD8B4BED60F0AD8B492
:105A1800BFD6010AD8B4C0D6030AD8B4C1D6010A81
:105A2800D8B43AD6070AD8B451D6010AD8B436D66B
:105A3800030AD8B435D6010AD8B434D63F0AD8B444
:105A480033D6010AD8B448D6030AD8B449D6010ACD
:105A5800D8B44AD6070AD8B44BD6010AD8B44CD61B
:105A6800030AD8B44DD6010AD8B44ED60F0AD8B412
:105A78004FD6010AD8B450D6030AD8B451D6010A71
:105A8800D8B452D6070AD8B453D6010AD8B454D6D3
:105A9800030AD8B455D6010AD8B458D61F0AD8B4C0
:105AA80059D6010AD8B45AD6030AD8B45BD6010A23
:105AB800D8B45CD6070AD8B45DD6010AD8B45ED685
:105AC800030AD8B45FD6010AD8B460D60F0AD8B48E
:105AD80061D6010AD8B462D6030AD8B463D6040AD8
