:0400000085EF01F097
:0E0008005D82E9CF10F0EACF11F09CED24F0FC
:100018005D80D8CFB8F0E8CFB9F0E0CFBAF0E1CF43
:10002800BBF0E2CFBCF0D9CFBDF0DACFBEF0F3CF52
:10003800BFF0F4CFC0F0F6CFC1F0F7CFC2F0F8CFE1
:10004800C3F0F5CFC4F004009EA03DD10201FA2B05
:10005800000EFB23FC23FD239E90C80ECF2675ECD3
:1000680015F00201F6510001D25DB46F0201F7519B
:100078000001D359B56F0201F8510001D459B66F88
:100088000201F9510001D559B76FB7BF0AD0B7516E
:10009800B61105E1710EB45D170EB55902E3010EF4
:1000A80001D0000EC56FC55104E054EC29F00001E1
:1000B800DC93DDA908D0600EC66F040EC76F400E32
:1000C800CD6F040E07D0000EC66F040EC76F200E4A
:1000D800CD6F040ECE6FDCADA9D0640E551802E0CA
:1000E800DDA1A4D0D16BCF6BD06B640E55181BE08B
:1000F800D151010DF33AF43AF00EF416F3500F0B08
:10010800F412F00EF316CDC0B4F0CEC0B5F0F35033
:10011800B427F450B523CF51B425D96ED051B521A9
:10012800DA6EDFA274D0D151100DC6C0B4F0C7C0CA
:10013800B5F0F350B427F450B523CF51B425D96E98
:10014800D051B521DA6EDF50C86FD151400DF35050
:10015800CF25800929EC2AF00001D151010DF33A8D
:10016800F43AF00EF416F3500F0BF412F00EF316E7
:10017800CDC0B4F0CEC0B5F0F350B427F450B523D9
:10018800CF51B425D96ED051B521DA6EDFA01FD07A
:10019800D151010DF33AF43AF00EF416F3500F0B67
:1001A800F412F00EF316CDC0B4F0CEC0B5F0F35093
:1001B800B427F450B523CF51B425D96ED051B52109
:1001C800DA6EDFA002D0DDB302D05F0EC86FC8516F
:1001D80073EC0DF061EC24F00001D151010DF33AFC
:1001E800F43AF00EF416F3500F0BF412F00EF31667
:1001F800CDC0B4F0CEC0B5F0F350B427F450B52359
:10020800CF51B425D96ED051B521DA6EDF92CF4BDC
:10021800D02BD0BF6AD7D05104E1100ECF5D01E2D8
:1002280064D7D12B010ED1655ED7DD91555002E020
:10023800550610D0DD81640E556EDDB303D0B46B66
:10024800B42B02D00001B46BB447DD51B419FD0BD7
:10025800B419DD6F4E5002E04E0633D0E16B81AE2B
:1002680023D00F0E4F1802E14F6A01D04F2A4FC01A
:10027800C9F0CA6BCC6B040ECB6F020ECA03F350E5
:10028800CA6FC9B1CA2BD890C933CB07D8A0CC073D
:10029800CCBF04D0CC51F1E1CB05EFE2CA51020D3D
:1002A800F3CF81FF54680DD054280BE14FC054F0B0
:1002B800545041EC26F00001E16F0A0E4E6E0AEC34
:1002C8002BF0C6EC12F0F2B4F294C4C0F5FFC3C030
:1002D800F8FFC2C0F7FFC1C0F6FFC0C0F4FFBFC03F
:1002E800F3FFBEC0DAFFBDC0D9FFBCC0E2FFBBC090
:1002F800E1FFBAC0E0FFB9C0E8FFB8C0D8FF5D9021
:10030800100029EF19F00EEC26F00201E151FC0B68
:100318000209E16FF30EE117010149514A1116E094
:10032800B0DBDF50030B4C6FB6DBFC0B4C19020142
:10033800E16FA7DB0101DF30E832030B4C6F4C475C
:100348004C47A9DBF30B4C190201E16F8EC3E0F1B6
:100358008FC3E1F190C3E2F1E00E0301A06F010E3B
:10036800A16F24EE9EF011EE50F0110EDBCFE3FFEB
:10037800E806FCE2500EA26F010EA36F23EE68F0B0
:1003880011EEBFF0040EDBCFE3FFE806FCE2BF0E80
:10039800A46F010EA56F23EE6DF011EEC4F0040EEC
:1003A800DBCFE3FFE806FCE2C40EA66F010EA76FE1
:1003B80023EE72F011EEC9F0040EDBCFE3FFE8067E
:1003C800FCE2C90EA86F010EA96F23EE77F011EEBB
:1003D800CEF0040EDBCFE3FFE806FCE2CE0EAA6FF8
:1003E800010EAB6F23EE7CF011EED3F0040EDBCFE1
:1003F800E3FFE806FCE2D30EAC6F010EAD6F23EE0F
:100408002CF011EE83F0050EDBCFE3FFE806FCE2EB
:10041800830EAE6F010EAF6F23EE81F011EED8F0B0
:10042800040EDBCFE3FFE806FCE2D80EB06F010E46
:10043800B16F23EE32F011EE89F0050EDBCFE3FF4A
:10044800E806FCE2890EB26F010EB36FE00EB46FDE
:10045800010EB56F500EB66F010EB76F23EE38F070
:1004680011EE8FF0050EDBCFE3FFE806FCE28F0EFE
:10047800B86F010EB96F23EE3EF011EE95F0050E40
:10048800DBCFE3FFE806FCE2950EBA6F010EBB6F07
:1004980023EE44F011EE9BF0050EDBCFE3FFE806F8
:1004A800FCE29B0EBC6F010EBD6F23EE4AF011EE0D
:1004B800A1F0050EDBCFE3FFE806FCE2A10EBE6F5C
:1004C800010EBF6F23EE50F011EEA7F0050EDBCF43
:1004D800E3FFE806FCE2A70EC06F010EC16F23EE32
:1004E80056F011EEADF0050EDBCFE3FFE806FCE2B7
:1004F800AD0EC26F010EC36F23EE5CF011EEB3F0C8
:10050800050EDBCFE3FFE806FCE2B30EC46F010E75
:10051800C56F23EE62F011EEB9F0050EDBCFE3FFF5
:10052800E806FCE2B90EC66F010EC76F91C3DDF194
:1005380092C3DEF193C3DFF1DD0EC86F010EC96F00
:10054800E6C0E3F1E7C0E4F1E30ECA6F010ECB6F3A
:10055800E8C0E5F1E9C0E6F1E50ECC6F010ECD6F1C
:10056800EAC0E7F1EBC0E8F1E70ECE6F010ECF6FFE
:10057800EAC2C6F2EBC2C7F2C60ED06F020ED16F46
:10058800ECC2C8F2EDC2C9F2C80ED26F020ED36F28
:10059800EEC2CAF2EFC2CBF2CA0ED46F020ED56F0A
:1005A800F0C2CCF2F1C2CDF2CC0ED66F020ED76FEC
:1005B800F2C2CEF2F3C2CFF2CE0ED86F020ED96FCE
:1005C800F4C2D0F2F5C2D1F2D00EDA6F020EDB6FB0
:1005D80001014B5103E11F0E4B6F01D04B07020184
:1005E800E26BE251040D030E1EDAF4D9E2C2DFFF1A
:1005F800E251040DEFD9DF90E251040DEBD9DF820F
:10060800E2510CDAE7D9DF6AE251040D020E0BDA87
:10061800E1D9200EDF6EE251040D000E01014C6F8E
:10062800020E4D6FF3504C27F4504D230201E25156
:10063800C4D94CC1DEFF4DC1DDFFE22B200EE265BF
:10064800D0D7826BE36BE06BD26BD36BD46BD56B7B
:1006580001014751481122E00201DB6B17D002016A
:10066800E6D90201DB51040D020EDDD9000EF32498
:10067800E16E020EF420E26EDFCFE7FFDB51CED948
:10068800A9D9010EDF6EDBC2E3F2DB2BD0D9DF5034
:10069800E6E14B510201E35D01E2E32B0201E05187
:1006A80022E0D2C204F1D3C205F1D4C206F1D5C208
:1006B80007F12C0E0101086F010E096F000E0A6B7D
:1006C8000B6BEEEC22F000090EE00201E06BD4D9CE
:1006D8000AE201014B5171D910EE01F076D9E750C9
:1006E80002E10201E32B1D0E0001E1659DD0280EF9
:1006F800E1619AD0E1510201E0190CE120EE01F02C
:10070800D651D926D751DA22DF5001E103D0D64B92
:10071800D72B1DD0C40EABD9E131E832030B0A0D3B
:100728000001E151F326000EF422D890F336F43696
:1007380001014C51F3264D51F422A00EF324D96E39
:10074800030EF420DA6EDECFD6F2DDCFD7F2000149
:10075800E1510201E0192FE001014B512ED910EEB1
:1007680001F033D9E75027E14B510201E35D03E281
:10077800E05101E0E32B01014B511FD987D94BC14F
:10078800DAF20ED0FE0E73D9DA512BD90201DA5102
:1007980039D9DA5112D910EE03F017D9E72ADA0756
:1007A8000201DA51E35DEEE3E35107D9DDC2DEFF72
:1007B800DEC2DDFF04D00201E351FFD867D9D6C2FB
:1007C800D9FFD7C2DAFF3BD9DFCFE7FFE151030BEF
:1007D800E80602E1E35104E0E151030B020A08E1F3
:1007E80020EE02F03FD92BD9E75062EC0FF0DF6E14
:1007F800020120EE03F036D9E3C2DFFF20EE01F05C
:1008080031D9010EDF6EE1C0E0F20001E16B010EAB
:100818008EEC2AF0ECEC2AF000C1D2F201C1D3F23E
:1008280002C1D4F203C1D5F2840E0101006F020E99
:10083800016F200E026F0DEC29F00201E351BDD8C3
:10084800DECF4CF1DDCF4DF14CC1D9FF4DC1DAFF00
:10085800DF80840E0101096F020E0A6F200E0B6FF4
:100868000C6B6BEC22F0280E0001E11913E1E16B2F
:1008780003D901E313D7E351A0D810EE01F0A5D8AE
:10088800E75001E10BD7E32B000E8EEC2AF00201B2
:10089800E06B04D7290EE1190AE1E16B0201E3518B
:1008A80001E1FCD6E307000E8EEC2AF0F0D72A0E01
:1008B800E11922E1E16B0201DF6B200EDF6501D057
:1008C80011D0DF517AD810EE01F07FD8E7500AE056
:1008D800DF5173D810EE02F078D8B8D8E7CFDFFF31
:1008E800DF2BEBD7B3D8DF6A0EEC26F0620E0101DE
:1008F800476F010E486F12002B0EE11907E1E16BFB
:100908000EEC26F00101476B486B12002C0EE11922
:1009180047E1E16B0201E05101E0E32BE35101E122
:10092800BDD6FE0EA4D8E3515CD8DECFD8F2DDCF19
:10093800D9F2020120EE01F090D8DF6A20EE02F031
:100948008CD8200EDF6E20EE03F087D81F0EDF6EE6
:10095800E305DC6F1F0EDC6501D01CD0DC51010102
:100968004C6F4D6BD8904C374D37020E4C27000E0C
:100978004D23840E4C25D96E020E4D21DA6E0201EC
:10098800DC5140D8DC5119D810EE03F01ED8E70628
:10099800DC2BE0D7D8C2C2F2D9C2C3F2E30777D7BB
:1009A8002D0EE11901E07AD6E16BE10E0101146F19
:1009B800020E156FCCEC10F071D6020D840EF324E4
:1009C800D96E020EF420DA6E1200DE50E126DD50F8
:1009D800E2221200000EF324D96E020EF420DA6E21
:1009E800120001014E6F4F6BD8904E374F374C5164
:1009F8004E274D514F23840E4E25D96E020E4F219E
:100A0800DA6E1200020D840EF324E16E020EF42059
:100A1800E26EDECFE6FFDDCFE5FF1200040DF32A1C
:100A2800000EF422000CF326000EF422000CDB5119
:100A380001014725D96E000E4821DA6E120010EE2A
:100A480002F0DD51E126DE51E2221200620EDF25BE
:100A5800D96EDA6A010EDA221200D851D926D95194
:100A6800DA221200DD51D926DE51DA221200010104
:100A78004C6F4D690201120001014B510201E35D07
:100A8800120049C1D9FF4AC1DAFF1200DECFDDF2F8
:100A9800DDCFDEF212000201E15101014C19120012
:100AA8000EEC26F0DC89EADA700E01012FDB31EC5E
:100AB8001EF095DA93C133F194C134F195C135F143
:100AC80096C136F18F6B8F51040D640E1B6F010EAA
:100AD800DEDA8F51020D71DA8F2B040E8F65F3D792
:100AE800906B9051040D980E1B6F010ED0DA905147
:100AF800020D0A0E94DA61DA902B9051F2E0916BB4
:100B08009151040D3B0E1B6F010EC1DA9151020D7C
:100B18000C0E85DA52DA912B090E9165F1D79C0EED
:100B2800006F010E016F7AEC1BF020EE01F0A4516A
:100B3800D926A551DA2232DA0A0E3DEC0BF090ECF8
:100B480021F00051DF6E54DA0A0E42EC0BF031EC62
:100B58001EF045DA20EE01F0A251D926A351DA227F
:100B68001DDA060E3DEC0BF090EC21F00051DF6E23
:100B78003FDA060E42EC0BF031EC1EF030DA0EDAFA
:100B8800180E3DEC0BF090EC21F000C193F101C17F
:100B980094F102C195F103C196F120EE01F09E5146
:100BA800D9269F51DA22FAD90A0E3DEC0BF090ECC7
:100BB80021F00051DF6E20EE01F09C51D9269D51A5
:100BC800DA2216DA0A0E42EC0BF031EC1EF0005174
:100BD800DF6E20EE01F0A651D926A751DA2233C1E3
:100BE80000F134C101F135C102F136C103F1A00EA3
:100BF800046F050E056F066B076B31EC1EF00029BC
:100C0800DF6E20EE01F0BA51D926BB5171DAF051EE
:100C18007DEC29F0DF6E20EE01F0B851D926B951EC
:100C280070DAF05157EC28F0DF6E20EE02F0B65182
:100C3800D926B751DA22300EDF6EB6C1D9FFB7C157
:100C4800DAFFDF8220EE02F0B451D926B551DA225C
:100C5800320EDF6EB4C1D9FFB5C1DAFFDF8220EEF4
:100C680001F0B051D926B15143DAEF517DEC29F0AA
:100C7800DF6E20EE01F0AE51D926AF5142DAEF51C6
:100C880057EC28F0DF6E20EE01F0AA51D926AB51BF
:100C98002FDAEE517DEC29F0DF6E20EE01F0A8513D
:100CA800D926A9512EDAEE5157EC28F0DF6EA8C1EB
:100CB80079F1A9C17AF1AAC17BF1ABC17CF1AEC1CE
:100CC8007DF1AFC17EF1B0C17FF1B1C180F1B8C192
:100CD80081F1B9C182F1BAC183F1BBC184F1A6C166
:100CE80085F1A7C186F19CC187F19DC188F19EC19C
:100CF80089F19FC18AF1A2C18BF1A3C18CF1A4C172
:100D08008DF1A5C18EF1070E926F636901019CD91F
:100D1800DECF1BF1DDCF1CF11BC1D9FF1CC1DAFFEF
:100D2800DF809C0E126F010E136F27EC17F0090E6F
:100D3800006F000EF5EC28F00101636F632910E0E5
:100D480083D910EE01F0E9EC04F063C1E7FF71D933
:100D5800A8EC28F00A0E921902E1926B01D0922BAE
:100D6800280E0001E1190BE1BFD9ABD9A8EC28F096
:100D78000A0E921902E1926BC9D7922BC7D7290E96
:100D8800E1190BE1B1D99DD9A8EC28F0925103E102
:100D98000A0E926FBBD79207B9D72A0EE11901E064
:100DA800DDD0E16BF4D8E1D865D912D90C0E97657E
:100DB80005D03FD9A8EC28F0020E5CD097C178F195
:100DC80024EEE0F011EE27F00B0EDBCFE3FFE80690
:100DD800FCE2EDD8CAD84AD9FBD897C11BF1030E5B
:100DE8001B1702E11D0E286F29D9BFD886D9F0D864
:100DF800C2D8D96E010E1E21DA6E9751DE5C19E257
:100E080020EE01F07AD9DA220A0E006FB4D884D91C
:100E180057EC28F0DF6E12D9DA220A0E006FABD831
:100E28007BD97DEC29F0DF6E04D9A8EC28F0926B11
:100E38008FD03FD9976F070E976505D0FAD8A8ECE1
:100E480028F0060E17D029D990D846D9C1D8170E40
:100E5800976505D0EED8A8EC28F0070E0BD023D95B
:100E680084D83ED9B5D83B0E976506D0E2D8A8EC11
:100E780028F0090E926F6CD0976B1B691C6919D901
:100E88001D6F1E6B1B511D271C511E231DC100F118
:100E98001EC101F1000E01BFFF0E026F036F89EC46
:100EA80014F034EC27F000C11FF101C120F102C198
:100EB80021F103C122F120EE01F00ED933D9EDD88A
:100EC800A0D803D934EC27F000511F25236F015116
:100ED8002021246F02512121256F03512221266FE1
:100EE80020EE01F0FDD81ED9DED88BD83C0E95EC4B
:100EF80014F034EC27F000512325376F01512421D9
:100F0800386F02512521396F035126213A6F37C1B5
:100F180000F138C101F139C102F13AC103F1640E9F
:100F280095EC14F034EC27F098D888D81ED8E5D87A
:100F3800DA2279D8EE6F2BD818D89CD8DA2273D851
:100F4800EF6F010134D811D891D8DA226CD8F06F3C
:100F58000101975101E0DAD60EEF26F02B0EE119C8
:100F680001E0D4D6E16B0EEF26F0DA22DF501B6FDA
:100F780020EE01F012001B691C6978511D6F1E6B71
:100F88001B511D271C511E23270E1D251200010170
:100F980020EE01F07F51D9268051120093C100F153
:100FA80094C101F195C102F196C103F1120020EE3E
:100FB80001F08351D926845112009C0EF324D96E76
:100FC800010EF420DA6E1BC1DEFF1CC1DDFF12002A
:100FD800DA22DF500A0DF3501B25976F120000C16B
:100FE80093F101C194F102C195F103C196F1120088
:100FF80093C100F194C101F195C102F196C103F1C9
:101008001200DA22DF50F326000EF422F3CF00F1AB
:10101800F4CF01F101BFFF0E026F036F1200F32638
:10102800000EF422000CDF500A0DF3501B250001BE
:1010380012009C0E066F010E076F120020EE01F0E1
:101048007B51D9267C5112009251020D790EF3245E
:10105800D96E010EF420DA6E120000C1D2F001C17F
:10106800D3F002C1D4F003C1D5F012008151D926C2
:10107800825112007D51D9267E511200D2C000F152
:10108800D3C001F1D4C002F1D5C003F112001C6F26
:10109800F3501B27F4501C23120020EE01F0895155
:1010A800D9268A51120020EE01F08D51D9268E5191
:1010B800120020EE01F08551D9268651DA22DF5040
:1010C8001200066F010E076F1200100E046F0E0E4D
:1010D800056F066B076B0E0C8751D92688511200D5
:1010E8008B51D9268C511200E16B9C0E0101120024
:1010F800DA220A0E006F00010A0C7951D9267A51BA
:101108001200DA220A0E006F00010A0C046F170E93
:10111800056F066B076B170CE16E010E1E21E26E60
:10112800E7501200DA22DF500A0D1200DDAD03D0BD
:10113800DD9D0EEC26F0200EE11913E1800EEC196E
:1011480004E1ED0502E1DCA10CD0E16B0EEC26F028
:10115800DCB102D0C9DA02D00101656BB1DAFE0B4D
:10116800C7DA2D0EE1190EE1800EEC1902E1ED054A
:1011780009E0DCA107D0E16BECC063F1EDC064F1DC
:10118800A2EC1FF0DCB30DD0ADEC12F0E20EBAEC1D
:1011980013F0A5DA0001DCA103D0DC910EEC26F0F7
:1011A800DC83800EEC1902E1ED0502E0DCB1E9D048
:1011B8008CDA0001DCA502D097DA02D00101656B58
:1011C800B351010ED8B4000E65190FE00EEC26F0ED
:1011D8000101B35103E0656B652B02D00101656B1A
:1011E800654765476DDAFB0B83DA0101B35127E0E8
:1011F80086C3A2F187C3A3F188C3A4F189C3A5F16B
:10120800010EAE6FB351010B966FD890B3339605AC
:1012180008E1A3C1A2F1A4C1A3F1AE51DBEC25F012
:10122800A46FAE2B030EAE65EDD7A20E096F010EAB
:101238000A6F0B6B0D0E0C6F0D6BA1EC20F024EEFA
:10124800F6F011EE7CF0080EDBCFE3FFE806FCE2D7
:1012580042EC08F0640E010111DA31EC1EF0DCD921
:101268000A0E07DA90EC21F00051DBEC25F0836FD1
:10127800EDD90A0E03DA31EC1EF0CED9060EF9D9F3
:1012880090EC21F00051DBEC25F0826FDFD9060EDF
:10129800F5D931EC1EF0C0D90A0EEBD990EC21F04B
:1012A8000051DBEC25F0806FD1D90A0EE7D931EC7B
:1012B8001EF0B2D9060EDDD990EC21F00051DBEC1E
:1012C80025F07F6FC3D9060ED9D931EC1EF000C1C5
:1012D800B8F101C1B9F102C1BAF103C1BBF1B6D984
:1012E800180ECCD931EC1EF00029976FA6D9180E2C
:1012F800C0D990EC21F000C1B8F101C1B9F102C127
:10130800BAF103C1BBF199D90A0EB3D990EC21F017
:101318000051DBEC25F07D6F99D90A0EAFD931EC7D
:101328001EF00051DBEC25F07C6F0001CED9070ED2
:10133800B31903E09B6B050E02D09B6B040E9A6FEA
:101348007C0E096F010E0A6F0B6B9AC10CF10D6BC5
:10135800A1EC20F0070E0101B31903E09D6B020E0A
:1013680002D09D6B010E9C6F97516DEC23F000C16C
:1013780009F101C10AF10B6B9CC10CF10D6BA1ECD9
:1013880020F00001DCBFDCB105D0BA0E0101096F05
:10139800FE0E3ED1800EEC1903E1ED0501E12FD1DF
:1013A80024EEC2F011EE85F0100EDBCFE3FFE80665
:1013B800FCE2070E0101856F010EA06F0001DCA1A0
:1013C80004D00101A06BF10E8A6F0101A96BAA6B11
:1013D800AB6BAC6B670E0D6F010E0E6FA90E0F6F26
:1013E800010E106FECC011F1EDC012F125EC22F0E6
:1013F800A9C100F1AAC101F1ABC102F1ACC103F16D
:101408009E0E046F010E056FB40E066F010E076F76
:10141800A10E086F010E096FAD0E0A6F010E0B6F5A
:101428002EEC23F0E2C00EF1E3C00FF1E4C010F19E
:10143800E5C011F1B60E126F010E136FA80E146FEE
:10144800010E156F0BEC25F02AD90A0E026FA4ECD9
:1014580027F00051DBEC25F0906F15D90A0E026FCA
:101468005AEC27F037D91BD9060E026FA4EC27F0E7
:101478000051DBEC25F08F6F06D9060E026F5AEC8F
:1014880027F028D93A0E8E6F0AD90A0E026FA4ECFB
:1014980027F00051DBEC25F08D6FF5D80A0E026FAE
:1014A8005AEC27F00051DBEC25F08C6F010EAF6F82
:1014B800030EAF6501D011D0AD51010B986FD890D4
:1014C800AD33980508E193C192F194C193F1AF51FE
:1014D800DBEC25F0946FAF2BEBD7A8516DEC23F024
:1014E80000C1A6F101C1A7F1A6C1F6FFA7C1F7FF88
:1014F8000800F5CF87F1A629656F000EA721666F52
:1015080065C1F6FF66C1F7FF0800F5CF88F1850EC3
:10151800096F010E0A6FA0C10BF10C6B0D6BA1ECEA
:1015280020F00001DCA1120024EED3F011EE6FF0E0
:101538000C0EDBCFE3FFE806FCE20101B26B0C0EF8
:10154800B16F8DD8B2D80A0E026FA4EC27F0005103
:10155800DBEC25F0DF6E9DD80A0E026F5AEC27F0FF
:10156800AAD87DD8A2D8060E026FA4EC27F00051A5
:10157800DBEC25F0DF6E8DD8060E026F5AEC27F0F3
:101588009AD8B107D8A0B2076AD88FD80A0E026FC6
:10159800A4EC27F00051DBEC25F0DF6E60D879D899
:1015A8000A0E026F5AEC27F00051DBEC25F0DF6ED3
:1015B800ECC065F1EDC066F1D89066336533D8901C
:1015C80066336533D890663365336529B06F0A0E84
:1015D800006FB0517DEC29F0DBEC25F0996F70C1FC
:1015E80071F199C170F10A0E006FB05157EC28F0F3
:1015F800B06FB051ECE16F0E096F010E09D0DCA19C
:1016080003D00EEC26F0DC91980E0101096FFE0E56
:101618003EEC0DF0A1EF20F000C1B8F101C1B9F125
:1016280002C1BAF103C1BBF1B8C100F1B9C101F1FE
:10163800BAC102F1BBC103F11200B8C100F1B9C1CE
:1016480001F1BAC102F1BBC103F11200B8C100F146
:10165800B9C101F1BAC102F1BBC103F11200B1076E
:10166800D8A0B2076F0EB125D96E010EB221DA6E7D
:101678001200046F056B066B076B1200046F056B95
:10168800066B076B1200B6C100F1B7C101F1036B1D
:101698001200B4C100F1B5C101F1036B1200B6C16B
:1016A80000F1B7C101F1036B1200B4C100F1B5C17B
:1016B80001F1036B120000C1B4F101C1B5F11200D0
:1016C8000001DC51010165191200DF510101FB1114
:1016D800B36F120000C1B6F101C1B7F112001DC10C
:1016E800ECF01EC1EDF012000101656B652B1200D4
:1016F80065190001DC6F12000EEC26F0ECD93A6F88
:10170800356B0501355116E13D0E01010D6F050ED2
:101718000E6F3AC50FF13BC510F173EC25F00501CA
:101728004D6B5B6B010E356F5D0504E03D6B4D6BDA
:101738004E6B5B6B94C32BF595C32CF596C32DF5B7
:10174800790E3A250101006FFE0E05013B210101CA
:10175800016F036B210E026F5AEC27F0002B000E6D
:10176800012300C10DF101C10EF10F6B106B2B0E9F
:10177800116F050E23EC17F0EDEC1EF02B0E096F20
:10178800050E91D9A1EC20F005015D050FE13D0E94
:101798000101096F050E8ED9A1EC20F04E0E010152
:1017A800096F050E67D9A1EC20F00ED0A90E010132
:1017B800096FFE0E7FD9A1EC20F09B0E0101096F85
:1017C800FE0E58D9A1EC20F02D0E0001E11901E020
:1017D800E0D0E16B23EE00F015EE00F0090EDBCF50
:1017E800E3FFE806FCE2000E0101146F050E156F19
:1017F800166BD8EC17F00501376F37056FE10EEC63
:1018080026F005013651FC0B0109366F3651F30BF2
:101818000409366F5D0503E02E6B2F6B04D03D0E77
:101828002E6F050E2F6F2EC547F12FC548F147D9EA
:10183800100E4B6F87EC01F02ED901E162D73C6B9B
:101848000AD011D93D0E3C25E16EE26A050EE2226E
:10185800DFCFE7FF3C2B07D9DF50F3E13D0E3C25F6
:10186800D96EDA6A050EDA22DF6A3651F30B0809F7
:10187800366F5D0503E0306B316B04D04E0E306F70
:10188800050E316F30C547F131C548F118D90D0E35
:101898004B6F87EC01F0FFD801E132D73C6B0AD0DF
:1018A800E2D8EED8E16E050EEA21E26EDFCFE7FF5F
:1018B80005013C2BD8D8DF50F3E1E2D8D96E050EEC
:1018C800EA21DA6EDF6A010E05015D6F3D0E010146
:1018D8000D6F050EFAD83FEC25F013D7020E371915
:1018E80021E13251F30B0809326F0101476B486B54
:1018F800320E496F050E4A6F0D0E4B6F87EC01F0E3
:1019080047C133F548C134F505013351341101E1BC
:10191800F8D633C503F134C504F1DDEC21F000013C
:10192800DD87EFD6030E371919E15D0501E0E9D629
:101938000C0E0101146FFF0E156F00EC28F0000962
:1019480001E1DFD60A0E01010D6F050EBED83FEC8E
:1019580025F00501356B0EEC26F0D3D6040E3719A9
:1019680001E0CFD6E30E0101146FFD0E156F00ECF8
:1019780028F0000901E1C5D6010E0101176F870E95
:10198800166F030E196F960E186F1A6BE9EC23F099
:10199800B8D61F0EE11926E1E16BDDA709D0D70EF5
:1019A8000101006FFF0E016F026B4DEC2AF0A9D602
:1019B80005015D0501E0A5D6CB0E0101146FFE0EF1
:1019C800156F00EC28F0000901E19BD605015D05C3
:1019D80001E097D64E0E0101036F050E046FDDEC92
:1019E80021F09DD7210EE1190DE1E16BDB0E01011C
:1019F800006FFF0E016F026B4DEC2AF00001DD97BE
:101A0800DD9F7FD6280EE1190EE1E16B760E050108
:101A18003A5D030E3B5905E2210E3A27000E3B239F
:101A280098D759D812D0290EE11911E1E16B880E27
:101A380005013A5D010E3B5905E3210E3A5F000EA0
:101A48003B5B87D7030E3B6F760E3A6F82D72B0E20
:101A5800E11903E1E16B0EEF26F01E0EE11901E03A
:101A680050D6E16BDED73C513825D96E000E3921AE
:101A7800DA6E12000A6F010E0B6F0C6B0D6B010C06
:101A88003C510101E96FEA6B110EE927000EEA23C8
:101A98003D0EE925120047C138F548C139F5050161
:101AA8003851391112000A6F010E0B6F0E0E0C6FB0
:101AB8000D6B0E0C0A6F0B6B0C6B0D6B1200360E58
:101AC8000101496F050E4A6F12000E6F3AC50FF1FA
:101AD8003BC510F11200010E05013B6F870C1C6E0F
:101AE8001C50070AD8B4ED0C270AD8B4200C010AF8
:101AF800D8B4210C030AD8B4220C010AD8B4230C98
:101B0800070AD8B4240C010AD8B4250C030AD8B49F
:101B1800260C0E0AD8B4280C010AD8B4290C030ADA
:101B2800D8B42A0C010AD8B42B0C070AD8B42C0C48
:101B3800010AD8B42D0C030AD8B42E0C010AD8B463
:101B48002F0C1F0AD8B4300C010AD8B4310C030A80
:101B5800D8B4320C010AD8B4330C070AD8B4340C00
:101B6800010AD8B4350C030AD8B4360C010AD8B423
:101B7800370C0F0AD8B4380C010AD8B4390C030A48
:101B8800D8B43A0C010AD8B43B0C070AD8B43C0CB8
:101B9800010AD8B43D0C030AD8B43E0C010AD8B4E3
:101BA8003F0C7F0AD8B4400C010AD8B4410C030A90
:101BB800D8B4420C010AD8B4430C070AD8B4440C70
:101BC800010AD8B4450C030AD8B4460C010AD8B4A3
:101BD800470C0F0AD8B4480C010AD8B4490C030AB8
:101BE800D8B44A0C010AD8B44B0C070AD8B44C0C28
:101BF800010AD8B44D0C030AD8B44E0C010AD8B463
:101C08004F0C1F0AD8B4500C010AD8B4510C030A5F
:101C1800D8B4520C010AD8B4530C070AD8B4540CDF
:101C2800010AD8B4550C030AD8B4560C010AD8B422
:101C3800570C0F0AD8B4580C010AD8B4590C030A27
:101C4800D8B45A0C010AD8B45B0C070AD8B42F0CC4
:101C5800010AD8B45D0C030AD8B45E0C010AD8B4E2
:101C68005F0C3F0AD8B4600C010AD8B4610C030AAF
:101C7800D8B4620C010AD8B4630C070AD8B4640C4F
:101C8800010AD8B4650C030AD8B4660C010AD8B4A2
:101C9800670C0F0AD8B4680C010AD8B4690C030A97
:101CA800D8B46A0C010AD8B46B0C070AD8B46C0C07
:101CB800010AD8B46D0C030AD8B46E0C010AD8B462
:101CC8006F0C1F0AD8B4700C010AD8B4710C030A3F
:101CD800D8B4720C010AD8B4730C070AD8B4740CBF
:101CE800010AD8B4750C030AD8B4760C010AD8B422
:101CF800770C0F0AD8B4780C010AD8B4790C030A07
:101D0800D8B47A0C040AD8B4E90CEC0AD8B4270C75
:101D1800050AD8B42D0C3F0AD8B4A20C030AD8B4CB
:101D2800C80C1B0AD8B4EF0C080AD8B4B50C010AC1
:101D3800D8B4CC0C020AD8B4C90C7B0AD8B4410C6C
:101D4800010AD8B4A00C030AD8B4420C010AD8B4CA
:101D5800A10C070AD8B4E00C010AD8B4450C030A50
:101D6800D8B4A30C010AD8B4A40C0F0AD8B4A50C93
:101D7800010AD8B4A60C030AD8B44B0C010AD8B48B
:101D8800A70C070AD8B44D0C010AD8B4480C030AAA
:101D9800D8B44F0C010AD8B4A80C1F0AD8B4500CF8
:101DA800010AD8B4430C030AD8B4540C010AD8B4B5
:101DB800A90C070AD8B4AA0C010AD8B4580C030A0B
:101DC800D8B4E10C010AD8B4AB0C0F0AD8B4AC0CE7
:101DD800010AD8B4E20C030AD8B4AD0C010AD8B48D
:101DE800AE0C070AD8B4C40C010AD8B4AF0C030A65
:101DF800D8B4B00C010AD8B4B10C3F0AD8B4610CFD
:101E0800010AD8B4B20C030AD8B4B30C010AD8B486
:101E1800B40C070AD8B4E30C010AD8B4650C030A59
:101E2800D8B4B60C010AD8B4B70C0F0AD8B4B80C99
:101E3800010AD8B4B90C030AD8B4BA0C010AD8B448
:101E4800BB0C070AD8B4BC0C010AD8B4BD0C030AF1
:101E5800D8B46F0C010AD8B4BE0C1F0AD8B4700CE1
:101E6800010AD8B4630C030AD8B4BF0C010AD8B469
:101E7800790C070AD8B4E40C010AD8B4780C030A20
:101E8800D8B4E50C010AD8B4C00C0F0AD8B4C10CF8
:101E9800010AD8B4E60C030AD8B4C20C010AD8B4B3
:101EA800C30C070AD8B4C40C010AD8B4C50C030A79
:101EB800D8B4C60C010AD8B4C70C3F0C0101006F96
:101EC80002D00051120001010051410AD8B4610C3E
:101ED800030AD8B4620C010AD8B4630C070AD8B450
:101EE800640C010AD8B4650C030AD8B4660C010A5C
:101EF800D8B4670C0F0AD8B4680C010AD8B4690CB6
:101F0800030AD8B46A0C010AD8B46B0C070AD8B40F
:101F18006C0C010AD8B46D0C030AD8B46E0C010A13
:101F2800D8B46F0C1F0AD8B4700C010AD8B4710C5D
:101F3800030AD8B4720C010AD8B4730C070AD8B4CF
:101F4800740C010AD8B4750C030AD8B4760C010ACB
:101F5800D8B4770C0F0AD8B4780C010AD8B4790C25
:101F6800030AD8B47A0C3B0AD8B4410C030AD8B493
:101F7800420C010AD8B4430C070AD8B4440C010A2D
:101F8800D8B4450C030AD8B4460C010AD8B4470C97
:101F98000F0AD8B4480C010AD8B4490C030AD8B4BB
:101FA8004A0C010AD8B44B0C070AD8B44C0C010AE5
:101FB800D8B44D0C030AD8B44E0C010AD8B44F0C4F
:101FC8001F0AD8B4500C010AD8B4510C030AD8B46B
:101FD800520C010AD8B4530C070AD8B4540C010A9D
:101FE800D8B4550C030AD8B4560C010AD8B4570C07
:101FF8000F0AD8B4580C010AD8B4590C030AD8B43B
:102008005A0CD20AD8B4B80C100AD8B4A80C780A5A
:10201800D8B4E00C010AD8B4E10C030AD8B4E20C35
:10202800010AD8B4E30C070AD8B4E40C010AD8B4FE
:10203800E50C030AD8B4E60C010AD8B4E70C0F0A79
:10204800D8B4E80C010AD8B4E90C030AD8B4EA0CED
:10205800010AD8B4EB0C070AD8B4EC0C010AD8B4BE
:10206800ED0C030AD8B4EE0C010AD8B4EF0C1F0A21
:10207800D8B4F00C010AD8B4F10C030AD8B4F20CA5
:10208800010AD8B4F30C070AD8B4F40C010AD8B47E
:10209800F50C030AD8B4F60C010AD8B4F70C0F0AE9
:1020A800D8B4F80C010AD8B4F90C030AD8B4FA0C5D
:1020B800010AD8B4FB0C070AD8B4FC0C010AD8B43E
:1020C800FD0C030AD8B4FE0C010AD8B4FF0C3F0A71
:1020D800D8B4C00C010AD8B4C10C030AD8B4C20CD5
:1020E800010AD8B4C30C070AD8B4C40C010AD8B47E
:1020F800C50C030AD8B4C60C010AD8B4C70C0F0A19
:10210800D8B4C80C010AD8B4C90C030AD8B4CA0C8C
:10211800010AD8B4CB0C070AD8B4CC0C010AD8B43D
:10212800CD0C030AD8B4CE0C010AD8B4CF0C1F0AC0
:10213800D8B4D00C010AD8B4D10C030AD8B4D20C44
:10214800010AD8B4D30C070AD8B4D40C010AD8B4FD
:10215800D50C030AD8B4D60C010AD8B4D70C0F0A88
:10216800D8B4D80C010AD8B4D90C030AD8B4DA0CFC
:10217800010AD8B4DB0C070AD8B4DC0C010AD8B4BD
:10218800DD0C030AD8B4DE0C010AD8B4DF0C99D6EA
:102198000EEC26F0DBD80101DF50030B166F461951
:1021A800FC0B1619466FD2D8DF30E832030B166FD6
:1021B8001647164746511619F30B1619466F210E86
:1021C800F66EFD0EF76E21EE2EF0090EE1D8FEE256
:1021D8000B0EF66EFD0EF76E21EE18F0150ED8D820
:1021E800FEE28AC340F18BC341F18CC342F18DC337
:1021F80043F123EE1CF011EE38F0070EDBCFE3FFBE
:10220800E806FCE20101446B4651030B030D2E0E58
:10221800166F010EB7D84451A9D8400E4425E16E77
:10222800E26A010EE222DFCFE7FF442B020E44658B
:10223800EBD7456B4631E832030B070D180E166FC6
:10224800010EA0D8455192D8380E4525E16EE26AB4
:10225800010EE222DFCFE7FF452B060E4565EAD7E0
:10226800400E096F010E0A6F0B6B020E0C6F0D6B9F
:10227800A1EC20F0380E0101096F010E0A6F0B6BFB
:10228800070E0C6F0D6BA1EC20F0230E0001E11975
:102298000CE161D8166F020E166105D04651030B8A
:1022A800166F162B19D0FC0E0CD0240EE1190BE179
:1022B80063D8166F020E166103D052D8162B1CD0A5
:1022C800F30E46179FD7260EE1190FE144D809E00F
:1022D8004651030B166F160746511619FC0B1619B3
:1022E80014D04651FC0B020910D0270EE1190FE15A
:1022F80043D808E035D81607163716374651161949
:10230800F30BEDD74651F30B0809466F7BD72A0E1E
:10231800E11915E120D8166F19D8DF18FC0B16192A
:10232800DF6E4631E832030B166F10D81647164792
:10233800DF501619F30B1619DF6E0EEF26F02B0E71
:10234800E11901E05FD7E16B0EEF26F014C1D9FF68
:1023580015C1DAFF1200E16B01014651030B1200AF
:102368004631166F1631030B166F12001625D96EFB
:10237800000E1721DA6E1200E16B01014631E832D6
:10238800030B1200176FF3501627F450172312008F
:102398000900F5CFDEFFE8061200010E67EC1AF01F
:1023A8000001DC99D6D8E20EBAEC13F0CFD00001C8
:1023B800DCBD05D0E15103E0E16BF5EC2AF0DCADC2
:1023C800F6D79AEC08F02D0E0001E1192FE1DCB1E7
:1023D8002DD0E16B0101F46B23EE24F011EEECF04B
:1023E800070EDBCFE3FFE806FCE2EC0E146F010EEC
:1023F800156FF4C116F1D8EC17F0F46FF40505E188
:10240800010EBCD8A2EC1FF00BD0020EF41903E1A8
:1024180080EC0BF005D0030EF41902E1ABEC23F0CD
:102428000101F451E2E10EEC26F0C1D7280EE119C2
:1024380007E1E16B010E0101A1D8A2EC1FF0B7D7AB
:10244800290EE11904E1E16B80EC0BF0B0D72C0EFA
:10245800E11916E1E16BDCADAAD7DCBB04D00101C0
:10246800EB6BEB2B02D00101EB6BEB3BEB47000175
:10247800DC510101EB19DF0BEB190001DC6F97D779
:102488001E0EE11907E1E16BDC8FDF6B6BD86EEC98
:102498002AF08DD7250EE11907E1DCB105D0E16BF3
:1024A8000EEC26F0010E13D0260EE11907E1DCB17F
:1024B80005D0E16B0EEC26F0020E09D0270EE119CB
:1024C80008E1DCB106D0E16B0EEC26F0040EDF1B50
:1024D8006ED7220EE11907E1DCB105D0E16B0EECF5
:1024E80026F0DF6B64D7230EE11908E1DCB106D0D2
:1024F800E16BDC9F37D86EEC2AF095D71F0EE119F7
:1025080004E1E16BFDEC2AF052D7210EE11904E158
:10251800E16BF7EC1AF04BD72B0EE11908E0240E0B
:10252800E11901E044D7DCAF02D0DCA140D72B0E83
:10253800E11906E10ED8DCA103D0DC910EEC26F0FF
:10254800E16B14EC2BF0E20EBAEC13F073EC0BF029
:102558002ED7D2C0E2F0D3C0E3F0D4C0E4F0D5C0A7
:10256800E5F01200010E0101016F860E006F0001F7
:10257800000EDCBF010E0101026F1200646F800EB5
:10258800636F800CDDAB1200DD9BA10E256EFD0E86
:10259800D9D8C8EC19F0000901E01200D20E256E56
:1025A800FF0ED0D8C8EC19F0000901E012004F0E58
:1025B800256EFD0E266ECAEC2AF023C027F024C033
:1025C80028F0D0D8C8EC19F0000901E012002B0E51
:1025D800256EFD0E266EBBEC2AF023C027F024C022
:1025E80028F0C0D8C8EC19F0000938E0A60E1C6E17
:1025F8001D6A1F6A0B0E1E6E206AF0EC29F000019E
:10260800B36B690EB325D96EDA6A050EDA22B351B7
:10261800A60FE16EE26ADFCFE7FFB32B090EB365C1
:10262800F0D7A60E49EC1FF02DC0B1F02EC0B2F0C5
:10263800B151B21109E1DB0E1C6EFF0E1D6E1E6A50
:102648007EEC2AF0DD971200D70E1C6EFF0E1D6E71
:102658001E6A7EEC2AF00001DD8712008E0E256EC0
:10266800FD0E266EACEC2AF023C027F024C028F01B
:1026780079D8C8EC19F0000932E09EC3E0F00001F7
:10268800DDAF28D0340EE01902E1DF6B05D0370E3C
:10269800E01904E1DF810001DD8DDDD7380EE01996
:1026A80002E1DF83F8D7390EE01902E1DF85F3D7BD
:1026B800300EE01906E1DC8FDF6B4BD83BEC28F0DD
:1026C800EAD7350EE019C7E1DC9FDD8D42D83BEC37
:1026D80028F0C1D72A0EE019BEE1DD8FBCD7790EEC
:1026E800256EFD0E2FD8C8EC19F0000904E0000192
:1026F800DD97DD9F12009C0E256EFD0E23D8C8ECD9
:1027080019F00009F4E1840E256EFD0E1BD8C8EC03
:1027180019F00009ECE16D0E256EFD0E13D8C8EC1A
:1027280019F00009E4E1960E256EFD0E0BD8C8ECF1
:1027380019F00009D8B41200760E1C6EFF0E1D6E3B
:102748007BEF1CF0266E276A286A2A6A020E296E19
:10275800020C010E1D6E860E1C6E000EDCBF010EF3
:102768001E6E12002A6A020E296E020C0101486FC1
:10277800416B426B010E316F800E306F3A6B446BC8
:10278800456B466B476B230E0D6F010E0E6F440EA3
:102798000F6F010E106F41C111F142C112F125EC0A
:1027A80022F0080E4127000E4223442907E145295B
:1027B80005E1462903E1472901E187D044C100F139
:1027C80045C101F146C102F147C103F1380E046F5A
:1027D800010E056F320E066F010E076F3C0E086F73
:1027E800010E096F3B0E0A6F010E0B6F2EEC23F0E2
:1027F8003B516BE0436B3C51010B2F6FD8903C333E
:102808002F055FE14351006F88D87FD834EC27F05B
:1028180000C11FF101C120F102C121F103C122F160
:1028280038C100F139C101F1026B036B3C0E79D854
:1028380034EC27F000511F252B6F015120212C6FFC
:10284800025121212D6F035122212E6F2BC100F13E
:102858002CC101F12DC102F12EC103F1640E61D822
:1028680034EC27F000C13DF101C13EF102C13FF156
:1028780003C140F134513D5D35513E5936513F5900
:102888003751405902E33A511CE14851D96EDA6A8E
:102898003D51DE5C3E51DE583F51DE584051DE5816
:1028A80010E2010E3A6F3DC134F13EC135F13FC12E
:1028B80036F140C137F1F80E4125306FFF0E422145
:1028C800316F432B060E436596D7800E415D010E8E
:1028D800425901E254D73A050CE14851D96EDA6AF7
:1028E80034C1DEFF35C1DEFF36C1DEFF37C1DEFF92
:1028F80007D04851D96EDA6ADE6ADE6ADE6ADD6AB6
:1029080030C11DF131C11EF11200800E046F510E4D
:10291800056F010E066F076B010C016B026B036BF1
:102928001200046F056B066B076B12000001DC9741
:10293800DD95F26AF16AF06A9E6AA16A9D6AA06AE8
:102948009F6AA26AD06ADF6B0EEC26F0D08EF28CFA
:10295800F28EF28CCA84CD8EC80ECF6ECE6ACD8030
:102968009D800F0EC16E926A800E936E946A5A50C3
:102978000101006F91EC14F089EC14F034EC27F0AD
:1029880000C1DCF301C1DDF302C1DEF303C1DFF3F3
:102998005250A2D869EC08F034EC27F0005103013A
:1029A800DC25E06F010101510301DD21E16F010127
:1029B80002510301DE21E26F010103510301DF210E
:1029C800E36F5350010188D83C0E95EC14F034ECB9
:1029D80027F000510301E025E46F010101510301D3
:1029E800E121E56F010102510301E221E66F0101D6
:1029F80003510301E321E76F800EE4250101F56F20
:102A0800AE0E0301E5210101F66FFE0E0301E6217A
:102A18000101F76FFF0E0301E7210101F86FF5C10E
:102A280000F1F6C101F1F7C102F1F8C103F1640E3A
:102A380095EC14F034EC27F031EC08F0896A8A6AD6
:102A48008B6A240ECA6E010E016F860E006FCAECE7
:102A580029F00301DC6FDC33DC330001DC510301B6
:102A6800DC197F0BDC190001DC6F0101FA6B000E29
:102A7800436E060E446EFA2BFA5124D8000EDE6E11
:102A8800070E26D81FD8000EDE6E080E21D81AD8D9
:102A9800000EDE6E090EDD6EFA2BF96BF95112D8B5
:102AA800DECF00F1DDCF01F120EC19F0B7EC29F011
:102AB800F92B030EF965F2D7F5EC2AF0D1EC11F0F9
:102AC80085EF01F0020DF350430FD96EDA6A120058
:102AD800DD6EFA2BFA511200006F016B026B036B6B
:102AE80012000001DCA71200DCBF86D0800E4B5C10
:102AF800010E4C5801E380D0966B976B986B996BDD
:102B0800960E286E4BC029F04CC02AF0800EADEC12
:102B180022F00001962906E1972904E1982902E1AB
:102B2800992965E09651886F070E9715896F0B0EE6
:102B3800366EACD8362EFDD796518A6F070E97158C
:102B48008B6F0B0E366EA2D8362EFDD796517F0BA3
:102B5800926F070E366E9AD8362EFDD79651070B10
:102B6800936F935144E0925142E0D2C01CF0D3C01D
:102B78001DF0D4C01EF0D5C01FF0700E206E170EC9
:102B8800216E226A236A8FEC1EF01CC090F01DC0D3
:102B980091F090C01CF091C01DF0050E1F6EA00EA4
:102BA8001E6EC3EC27F01CC08EF01DC08FF090C0C5
:102BB8001CF091C01DF0050E1F6EA00E1E6E7FEC5E
:102BC80027F01C28946F945125EC29F00001946F8C
:102BD800945192150CE088518E5D89518F5907E305
:102BE8008E518A5D8F518B5902E393515112040E15
:102BF8004B26000E4C22000CDCBF03D051C08CF0D9
:102C080001D08C6B8D6B8CC0FBF1516A4B6A4C6A9E
:102C1800DF510101FB11200D81501F0BF310000142
:102C2800956F9551E00B50182AE058C01CF01D6AAA
:102C380053C01EF03BEC28F057C01CF01D6A52C070
:102C48001EF03BEC28F05BC01CF01D6A5AC01EF059
:102C58003BEC28F056C01CF01D6AEEC01EF03BECA1
:102C680028F059C01CF01D6AEFC01EF03BEC28F09C
:102C78005CC01CF01D6AF0C01EF03BEC28F000019F
:102C88009551E00B506E95C081FF1200D890993392
:102C98009833973396331200536B546B4E6B4F6BCC
:102CA800506B516B3E0E0D6F010E0E6F4E0E0F6F77
:102CB800010E106F37C111F138C112F125EC22F065
:102CC800010E526F556B3E0E5525D96EDA6A010E0C
:102CD800DA22DE2801E0526B552B070E5565F3D733
:102CE800800E371902E138051CE0390504E1520568
:102CF80004E1010E03D05251FCE0000E4C6F4D6B05
:102D08004C514D110EE037C13CF138C13DF1D8901E
:102D18003D333C3387D83C29536F000E3D21546F17
:102D280013D037C11DF138C11EF139C11FF1216B14
:102D3800206BF2EC1CF01DC137F11EC138F1800E7A
:102D48003719E1E13805DFE15351541119E0E4C2C4
:102D580046F1E5C247F1E6C248F153C10DF154C14D
:102D68000EF10F6B106B460E116F010E68D8EDEC6B
:102D78001EF0460E096F010E5CD8A1EC20F006D0BB
:102D8800F40E096FFF0E55D8A1EC20F001013905AA
:102D980039E1800E3A1902E13B052CE0460E096F35
:102DA800FF0E3EEC0DF0A1EC20F0E7C249F1E8C2BD
:102DB8004AF1E9C24BF13AC13CF13BC13DF1010195
:102DC80031D8D8903D333C333C2B000E3D233CC1D9
:102DD8000DF13DC10EF10F6B106B490E116F010E15
:102DE8002ED8EDEC1EF0490E096F010E57EC0DF0D0
:102DF800A1EC20F0AD0E0101096FFF0E5EEC0DF0A5
:102E0800A1EC20F09E0E0101096FFF0E0A6F0B6BFB
:102E1800060E0C6F0D6BA1EC20F037C137F138C1ED
:102E280038F11200D8903D333C33D8903D333C33D1
:102E380012000A6F0B6B0E0E0C6F0D6B0E0C126FDF
:102E4800030E136F030C196B81D8DECF16F1DDCF9B
:102E580017F116C1D9FF17C1DAFFDFB219D076D83A
:102E680010EE02F0E9EC04F01951020D12C116F14E
:102E780013C117F1F3501627F45017230C0E16251B
:102E8800D96E000E1721DA6E7BD8DBEC25F0E76EE1
:102E98005DD810EE03F0E9EC04F019C1E7FF192B37
:102EA800090E1965D1D71A6B62D8DECF14F1DDCFC0
:102EB80015F114C1D9FF15C1DAFFDFB20AD057D80E
:102EC80010EE02F0E9EC04F052D85AD8DBEC25F009
:102ED800E76E1A51020DF3501225D96EF4501321E2
:102EE800A1EC22F0E9EC04F01AC1E7FF1A2B040E5A
:102EF8001A65DAD74DD8F9EC1BF0E9EC04F048D89C
:102F0800DA223ED8DBEC25F0E76E42D8DA2210EE62
:102F180003F0E9EC04F0E76A0C0E40D80A0E0B6FD8
:102F2800010E0C6F6BEC22F012C109F113C10AF10A
:102F3800050E0B6F150E0C6F6BEC22F00A0E2ED8D7
:102F4800010E0B6F120E0C6F6BEF22F01951020D70
:102F580012C114F113C115F1F3501427F4501523BD
:102F68000C0E1425D96E000E1521DA6E12001A51B6
:102F7800020DF3501225D96EF4501321DA6E1200A7
:102F880000EE01F0DE50E926DD50EA22EF50120093
:102F980020EE0AF01251D926135112001225096F9A
:102FA800000E13210A6F12000EEC26F001011651D3
:102FB80001E01607165102E10001DE6B01011C6BEE
:102FC80001D01C2B1C51020DF3501425D96EF4505E
:102FD8001521DA6EDE50DE10F4E11C070001DE5127
:102FE80013E172D885D8A1EC20F001011C51165DBF
:102FF8001EE25BD8020E1925D96E000E1A2172D86E
:103008007CD8A1EC20F013D0DE0511E101011651A6
:103018000AE04BD8FE0E1925D96EFF0E1A2162D888
:1030280067D8A1EC20F050D868D8A1EC20F0FD0EAC
:103038000101096FFF0E0A6FDEC00BF10C6B0D6BFF
:10304800A1EC20F02A0E0001E11905E1E16B010174
:1030580016291B6F25D02B0EE11904E1E16B010144
:103068001B6B1ED0280EE1190CE1E16B0101165112
:1030780005E016070001DE0501E1DE6B0EEC26F027
:10308800ADD7290EE119AAE1E16B01011C51165DCA
:10309800F5E2162B0001DE51F1E1010EDE6FEED7ED
:1030A8000EEC26F001011B5112001651176F186B18
:1030B800D8901737183714C119F115C11AF11751DB
:1030C800192718511A23120001011651020DF35045
:1030D8001425D96EF4501521DA6EDECF09F1DDCF53
:1030E8000AF11200DA6EDECF09F1DDCF0AF1120023
:1030F8000B6B010E0C6F0D6B010C010E0B6F0C6F3F
:103108000D6B010C07C100F108C101F1A4EC29F015
:1031180007C10DF108C10EF100510D2701510E2311
:10312800FF0E0D25196FFF0E0E211A6F0CBF09D067
:103138000BC111F10CC112F10BC113F10CC114F147
:1031480005D0116B126B146B020E136F11C11DF1B8
:1031580012C11EF15DD01D5166EC15F0DECF1FF1D6
:10316800DDCF20F1156B166B236B246B25D056D859
:103178000DC1F6FF0EC1F7FF0800F5501B6F1C6B61
:103188002351FE08216F2451D8A0E82A0008226F95
:103198004CD8DF500F6F106B0F511B1903E1105102
:1031A8001C1908E0100E1B191C1104E0166B010E07
:1031B800156F0CD0234B242B31D807510D5D0851C6
:1031C8000E5904E3245102E12329D1E315511611C4
:1031D8001DE109510A1112E0176B186B22510EE11B
:1031E80021290CE222D817510925E16E18510A212C
:1031F80028D8174B182B214B222BF0D71FC100F1D1
:1032080020C101F119D8B7EC29F0010C1D4B1E2B78
:103218001D51135D1E5114599EE2000C2351195D76
:103228000D6F24511A590E6F120021511F25D96EA6
:1032380022512021DA6E1200010E036F026B046B1B
:10324800010CE26EDFCFE7FF120009EE00F011EE8D
:1032580000F0EE6AE550E150FCE1E250FAE108EED8
:1032680000F011EE00F0EE6AE550E150FCE1E250AA
:10327800FAE107EE00F011EE00F0EE6AE550E150D9
:10328800FCE1E250FAE106EE00F011EE00F0EE6A21
:10329800E550E150FCE1E250FAE105EE5EF0240E63
:1032A800EE6AE806FDE104EE00F09E0EEE6AE8061E
:1032B800FDE102EEF6F0080EEE6AE806FDE1010116
:1032C800FB6B00EED2F0140EEE6AE806FDE100EEAC
:1032D80043F0110EEE6AE806FDE1480EF66E4D0E5B
:1032E800F76E000EF86E04EE9EF010EE61F0090025
:1032F800F5CFEEFFE550E150FAE1E40EF66E410E2F
:10330800F76E000EF86E03EE00F010EEA0F0090064
:10331800F5CFEEFFE550E150FAE1C60EF66E550E18
:10332800F76E000EF86E02EEE4F010EE12F00900EF
:10333800F5CFEEFFE550E150FAE1080EF66E560EB5
:10334800F76E000EF86E00EEE6F010EE0BF00900D6
:10335800F5CFEEFFE550E150FAE11E0EF66E560E7F
:10336800F76E000EF86E00EE54F010EE09F009004A
:10337800F5CFEEFFE550E150FAE15D905D92000E69
:10338800F86E00019AEF14F025C01CF026C01DF05D
:1033980003EC2AF025C02BF026C02CF01C502B265D
:1033A8001D502C22FF0E2B24376EFF0E2C20386E5A
:1033B8002ABE09D029C02FF02AC030F029C031F028
:1033C8002AC032F005D02F6A306A326A020E316E96
:1033D8002FC03BF030C03CF062D03B5066EC15F09B
:1033E800DECF3DF0DDCF3EF0336A346A416A426A8F
:1033F80025D05BD82BC0F6FF2CC0F7FF0800F5508E
:10340800396E3A6A4150FE083F6E4250D8A0E82A09
:103418000008406E51D8DF502D6E2E6A2D50391895
:1034280003E12E503A1808E0100E39183A1004E05B
:10343800346A010E336E0CD0414A422A36D82550E0
:103448002B5C26502C5804E3425002E14128D1E37A
:103458003350341022E127502810D8B4010C356AB3
:10346800366A40500FE13F280DE226D83550272410
:10347800E16E3650282025EC19F0354A362A3F4AA5
:10348800402AEFD73DC01CF03EC01DF0010E1F6E54
:103498001E6A206AF0EC29F0010C3B4A3C2A3B509A
:1034A800315C3C50325899E2000C4150375C2B6E2D
:1034B800425038582C6E12003F503D24D96E40506F
:1034C8003E20DA6E12000101256F0001DD955EECE9
:1034D8002AF0D5EC26F0255109E00EEC26F0190E5D
:1034E8000101006FFE0E016FFDEC1BF0FA0E0101E9
:1034F800006FFF0E70D84DEC2AF00101156B140E09
:10350800146FE2EC27F0A10E5DD886EC18F00009E4
:1035180013E1255152E063D8E2EC27F00EEC26F0D7
:10352800330E0101006FFE0E016FFDEC1BF001016F
:1035380056D8E2EC27F041D00001DD850101255184
:1035480009E00EEC26F0610E0101006FFE0E016F1E
:10355800FDEC1BF0CD0E0101006FFF0E3CD84DECC9
:103568002AF0A10E01012ED886EC18F00009F9E026
:103578004A0E006FFE0E016FFDEC1BF08B0E010171
:10358800006FFF0E28D84DEC2AF0A10E01011AD8C1
:1035980086EC18F00009F9E0FE0E006FFD0E016FD1
:1035A800FDEC1BF001012551D8B41200156B780E03
:1035B800146FE2EC27F00EEF26F0255102E00EEF33
:1035C80026F01200076FFD0E086F096B0A6B0C6B73
:1035D800020E0B6F020C016F010E026F010C156BCE
:1035E800C80E146FC80C0EEC26F00501206B030101
:1035F800975166EC15F0DECFE9F1DDCFEAF1DF0E89
:103608000101E9250501236F000E0101EA210501E9
:10361800246F266B23C5D9FF24C5DAFF000E2625A3
:10362800E16EE26A050EE222DFCFE7FF234B242B8F
:1036380056D8DF5003E153D8200EDF6E262B1F0E1D
:103648002665E8D7000E0101096F050E0A6F19EC0F
:1036580028F0A1EC20F0210E0001E1190FE1E16B47
:1036680091EC29F00501256F2551C1E02551D9ECD0
:103678002AF005012551D5EC26F0B9D72D0EE11910
:1036880015E1E16B0101476B486B496B4A6B4B6B6A
:1036980087EC01F047C121F548C122F521C500F1A9
:1036A80022C501F1026B4DEC2AF0A1D7280EE119D1
:1036B80006E1E16B030197519AE0970798D7290E25
:1036C800E11907E1E16B030E0301976190D7972B8E
:1036D8008ED72B0EE1198BE1E16B0EEF26F0000E71
:1036E8002625D96EDA6A050EDA221200066B5BD837
:1036F800DF9059D8DF92062B090E0665F8D7076BBD
:103708006BD848D8DF9068D845D8DF92072B040ECD
:103718000765F6D720EE0AF030D8DF9020EE0AF0E1
:103728002CD8DF9220EE04F00051D92601515DD843
:10373800E9EC04F03A0EE76E20EE04F01ED8DF82C2
:1037480020EE16F00051D92601514FD8E9EC04F0CB
:103758002F0EE76E20EE16F010D8DF8220EE10F064
:103768000051D926015141D8E9EC04F02F0EE76E3B
:1037780020EE10F002D8DF8212000051D926015144
:10378800DA22DECF02F1DDCF03F102C1D9FF03C196
:10379800DAFF1200DECF02F1DDCF03F102C1D9FF5B
:1037A80003C1DAFF12000651020D00C102F101C186
:1037B80003F1F3500227F45003230C0E0225D96EAF
:1037C800000E0321DA6EDECF04F1DDCF05F104C16E
:1037D800D9FF05C1DAFF12000751020DF350002589
:1037E800D96EF4500121DA6E1200DA2210EE02F0DE
:1037F80012000A6B0B6B0A51100D600E026F040E5B
:1038080052D8200EDF6E0A511AEC27F063D84BD835
:10381800DF9001010A511AEC27F05CD844D8DF8206
:103828000B2B0F0E0B65E7D70A2B010E0A65E2D7A3
:10383800066B076B33D0096B086B25D009511AEC5E
:1038480027F048D8036FF3500227F4500323085198
:103858000225D96E000E0321DA6EDF8201012FD80E
:103868000951100D600E046F040E056FF350042704
:10387800F450052308510425D96E000E052132D8CD
:10388800064B072B082B100E086104D018D8080027
:10389800F550D4E1092B010E0965CED710D80800E0
:1038A800F550C9E11BD0036FF3500227F4500323EE
:1038B8000B510225D96E000E0321DA6E1200065153
:1038C8000025026F07510121036F02C1F6FF03C1F2
:1038D800F7FF1200400E026F040E12000001DD898E
:1038E800DD811200DA6E0800F5CFDFFF1200266ACC
:1038F800276A2650100D600E1E6E040E54D8200E36
:10390800DF6E26501AEC27F065D84DD80401DF90F9
:1039180026501AEC27F05ED846D8DF82272A0F0EE9
:103928002764E7D7262A010E2664E2D7226A236A8B
:1039380034D0256A246A26D025501AEC27F04AD8B4
:103948001F6EF3501E26F4501F2224501E24D96ED9
:10395800000E1F20DA6E0401DF8231D82550100DC9
:10396800600E206E040E216EF3502026F4502122A2
:1039780024502024D96E000E212076EC1CF0224A17
:10398800232A242A100E246004D019D80800F550E0
:10399800D3E1252A010E2564CDD711D80800F550AA
:1039A800C8E172EF1CF01F6EF3501E26F4501F2260
:1039B80027501E24D96E000E1F20DA6E12002250E6
:1039C8001C241E6E23501D201F6E1EC0F6FF1FC034
:1039D800F7FF1200400E1E6E040E1200800E1D1915
:1039E80006E11E0504E1010E1E6F780E1D6F1DC154
:1039F80035F11EC136F1010E2C6F800E2B6F205150
:103A080021110DE1780E351905E1360503E1356B15
:103A1800366B11D0080E3527000E36230CD03551E1
:103A2800361105E1010E366F780E356F04D0080E99
:103A3800355F000E365B2F6B306B316B326B230EAC
:103A48000D6F010E0E6F2F0E0F6F010E106F35C127
:103A580011F136C112F125EC22F0010E336F346BEF
:103A6800230E3425D96EDA6A010EDA22DE2801E047
:103A7800336B342B070E3465F3D71F0504E1330588
:103A880004E1010E03D03351FCE0000E2D6F2E6BC4
:103A98002D512E1105E035C12BF136C12CF106D080
:103AA8001D513519ACE11E513619A9E12BC11DF183
:103AB8002CC11EF112000C6E0D0E0C1803E14DA462
:103AC8004D8036D00A0E0C1805E14DA003D04DA448
:103AD8004D822ED04DB002D04DA202D04D904D92C5
:103AE8000A0E0C1825E04D940D6A0E6A0D504924F3
:103AF800086E0E504A20096E0828D96E000E09205B
:103B0800DA6E0D504924E16E0E504A20E26EDFCF86
:103B1800E7FF0D4A0E2A0E5003E1FE0E0D5CE6E3A8
:103B280020EEFEF04950D9264A50DA220CC0DFFFB9
:103B38004DB04DA212004D904D924D8443C00AF0F5
:103B480044C00BF00F6A0F50020DF350450FD96EA9
:103B5800DA6A0F50020DF350430FE16EE26ADECFCE
:103B6800E6FFDDCFE5FF0F2A020E0F64ECD70AC08F
:103B780049F00BC04AF049C001F04AC002F0010EFA
:103B8800046E036A056A16EC2AF00001DD8B120048
:103B9800F2CF05F1F29EF29C829082945AD8E82ED8
:103BA800FED7042FFCD755D8E82EFED7042FFCD714
:103BB800030EDCEC28F0410E046FEE0EE82EFED763
:103BC800042FFCD700D0030EDCEC28F0DC0E00D06C
:103BD800E82EFDD7030EDCEC28F0850EE82EFED784
:103BE80000F0020EDCEC28F0850EE82EFED700F07F
:103BF8002C0E69EC29F0850EE82EFED700F0080E91
:103C080069EC29F0850EE82EFED700F0010E69EC6C
:103C180029F0850EE82EFED700F0120E69EC29F087
:103C2800850EE82EFED700F082908294010E69EC92
:103C380029F01A0E0101046FF80EE82EFED7042FA2
:103C4800FCD700D0F2507F0B010105118009F26EFC
:103C58001200820E0101046FDE0C096B07AF0AD057
:103C6800071F061F051F046D000E052306230723E3
:103C7800010E096F03AF0AD0031F021F011F006D59
:103C8800000E012302230323010E091B0A6B0B6B91
:103C98000C6B0D6B045105110611071129E0010E7B
:103CA800086F06D0D8900437053706370737082B32
:103CB80007AFF8D7D8900A370B370C370D370451B0
:103CC800005D05510159065102590751035909E38D
:103CD8000451005F0551015B0651025B0751035B0C
:103CE8000A81D8900733063305330433082FE2D707
:103CF800095108E00D1F0C1F0B1F0A6D000E0B2346
:103D08000C230D230AC100F10BC101F10CC102F112
:103D18000DC103F11200256A23AE0AD0231E221E0C
:103D2800211E206C000E212222222322010E256E44
:103D38001FAE0AD01F1E1E1E1D1E1C6C000E1D224B
:103D48001E221F22010E251A266A276A286A296A56
:103D5800205021102210231029E0010E246E06D0D5
:103D6800D8902036213622362336242A23AEF8D797
:103D7800D890263627362836293620501C5C215004
:103D88001D5822501E5823501F5809E320501C5E0E
:103D980021501D5A22501E5A23501F5A2680D8904F
:103DA8002332223221322032242EE2D7255008E055
:103DB800291E281E271E266C000E272228222922AB
:103DC80026C01CF027C01DF028C01EF029C01FF017
:103DD800120054D8FF0E1425D96EFF0E1521DA6E85
:103DE800DF5001E11307010E166F48D81651145D14
:103DF800D96E1551D8A01505DA6E0DC100F10EC1A6
:103E080001F10FC102F110C103F10A0E046F056B35
:103E1800066B076B73EC26F00051DBEC25F0DF6EC8
:103E28000DC100F10EC101F10FC102F110C103F182
:103E38000A0E046F056B066B076B26EC24F000C1B5
:103E48000DF101C10EF102C10FF103C110F1162BE2
:103E5800165113C114F1156B145F000E155B142B6A
:103E6800152315BF000C155103E11405D8A0120045
:103E78000D510E110F111011B8E112001351112537
:103E8800146F000E1221156F1200806F0001816BF4
:103E9800826B850E296E2A6A8251210D870EF324C2
:103EA8002B6E010EF4202C6EA7EC25F00001A50561
:103EB80038E1836B01D0832B83C02FF0120E2F269D
:103EC8002F50850FD96EDA6ADF50F5E1846B15D073
:103ED8008451805DD96EDA6A090ED9268451850825
:103EE8008325E16EE26A110EE126DE50E61802E053
:103EF800816B15D0010E816F842B0A0E84610FD05F
:103F0800845183C02FF0306A2F5E000E305A2F2A5A
:103F1800302230BE04D03050DBE12F04D9E2815189
:103F280004E1822B0F0E8265B4D7815104E0850E1F
:103F38002D6E2E6A12002D6A2E6A12000EEC26F0E3
:103F4800800E0101631902E1640504E063C1D6F043
:103F580064C1D7F0D6C037F1D7C038F10101396B49
:103F6800010E3B6F800E3A6F50EC16F037C1D6F059
:103F780038C1D7F0800E0001D61902E1D7050BE051
:103F88002D0EE11908E1E16BD6C058F1D7C059F1FF
:103F980050EC20F0DFD7280EE11905E11ED8206B80
:103FA800F2EC1CF008D0290EE1190AE116D8010E2E
:103FB800206FF2EC1CF01DC1D6F01EC1D7F0CAD795
:103FC8002B0EE11903E1E16B0EEF26F01E0EE1194D
:103FD800C1E1E16BD66BD76BBDD7E16BD6C01DF1E4
:103FE800D7C01EF101011F6B216B12000EEC26F0E9
:103FF800D8C037F1D9C038F1010E0101396F56C167
:104008003AF157C13BF150EC16F037C1D8F038C13E
:10401800D9F0800E0001D81902E1D90515E02D0E5E
:10402800E11912E1E16BD8C000F1D9C001F156C124
:1040380002F157C103F116EC2BF0E806D9E123D8B9
:10404800206BF2EC1CF00DD0280EE11902E1E16BB7
:10405800F6D7290EE1190AE1E16B15D8206FF2ECC9
:104068001CF01DC1D8F01EC1D9F0C2D72B0EE11922
:1040780003E1E16B0EEF26F01E0EE119B9E1E16BE9
:10408800D86BD96BB5D7D8C01DF1D9C01EF1010EB8
:1040980001011F6F216B010C0EEC26F023EE14F0CA
:1040A80011EE5AF0070EDBCFE3FFE806FCE25A0EEA
:1040B8000101146F010E156F166BD8EC17F0626FC3
:1040C800620506E1010E576F800E566FFAEF1FF07A
:1040D800020E621909E158C100F159C101F1010E3E
:1040E800036F800E026F800C030E621906E158C13F
:1040F80056F159C157F1FAEF1FF0040E621906E1A3
:1041080058C10DF159C10EF13DEF29F0050E6219A4
:10411800D8A41200C50E146FFD0E156F00EC28F020
:104128000009D8B412000101176B166B010E196F44
:104138007F0E186F1A6BE9EF23F0116B126B30D0FA
:104148000BC113F101010B6B010E136501D028D0CF
:104158000CC110F10C6B12D010C100F101012AD86A
:10416800F76403D00800F55001D032D80101016F7F
:10417800135142EC21F0114B122B102B100E106131
:1041880009D018D8F76403D00800F55001D020D81A
:104198000009E2E101010D5101E11200132BD4D70E
:1041A80009D8F76403D00800F55001D011D80009E8
:1041B800C7E11200115109250E6F12510A210F6F24
:1041C8000EC1F6FF0FC1F7FF000EF86E0F0E1200BA
:1041D800F6CFE9FFF7CFEAFFEF5012008FFE2AFF74
:1041E8007FFE53FF0000BBFFC1FFC7FFB4FF000005
:1041F80087FE75FEEDFE00002020202020202000F4
:104208005FFF6BFF81FF0000707172733700777872
:10421800797A3900E0E1E2E33200E4E5E6E73300E9
:10422800E8E9EAEB3400ECEDEEEF3500F0F1F2F3FB
:104238003600F4F7F6F73700F8F9FAFB3800FCFD1A
:10424800FEFF3900616263320064656633006768A7
:104258006934006A6B6C35006D6E6F360074757664
:1042680038002020200020202000203000302B00A3
:10427800202000022020202020202000086F01C1DB
:1042880007F13FD832D8DF50066F010E046F08518E
:104298001AEC27F03DD829D8DFB204D00651071907
:1042A80001E1046B010108511AEC27F031D81DD83F
:1042B80004B102D0DF9201D0DF82010E0101056F47
:1042C8000001DDB105D001010651071901E1056BB7
:1042D800010105B103D00001DD9102D00001DD81AB
:1042E80010D803D807C1DFFF1200036FF35002276D
:1042F800F450032300510225D96E000E0321DA6E13
:10430800120001010851100D000E026F040E120078
:10431800200E026F040E1200096B03AF03D040D8C1
:10432800010E096F07AF08D0071F061F051F046D90
:10433800000E052306230723045105110611071152
:1043480023E0010E086F06D0D890043705370637EA
:104358000737082B07AFF8D70451005D05510159FD
:10436800065102590751035908E30451005F0551EA
:10437800015B0651025B0751035BD8900733063394
:1043880005330433082FE8D7095101E009D800C1E3
:1043980000F101C101F102C102F103C103F11200F0
:1043A800031F021F011F006D000E012302230323B8
:1043B800000C01010351041101E1120024EEB0F0D8
:1043C80011EE07F0110EDBCFE3FFE806FCE2196BF4
:1043D80009D02BD820D8E16E010E0621E26EDFCF7E
:1043E800E7FF192B22D8DF50F4E115D825D83B0E6A
:1043F800DF6E1951056F066B040E0527000E0623A4
:10440800070E052519D8DF6A070E006F010EEFECBD
:104418001AF04DEF2AF01951056F066B030E0527A8
:10442800000E0623070E0525120019510325D96E23
:10443800000E0421DA6E1200D96E010E0621DA6E22
:1044480012000DC104F10EC105F111C106F112C12E
:1044580007F1096B080E086F72EC28F01C6B030E4D
:104468001B6F1B510D25D96E1C510E21DA6EDF50C2
:1044780029D8DECF13F1DECF14F1DECF15F1DECF70
:1044880016F115C116F114C115F113C114F1136B0E
:104498001325176F000E1421186F000E1521196FC0
:1044A800000E16211A6F0ED817C1DEFF18C1DEFFE5
:1044B80019C1DEFF1AC1DEFF1B07D8A01C071CBFED
:1044C8001200CFD70FC1D9FF10C1DAFF1200116B4C
:1044D80030D037D832D8E9EC04F0E7500C25106F0B
:1044E80010390F0B0F6F0F0502E1100E105F10C18E
:1044F80000F127D8DA6E10EE02F0E9EC04F0E7508C
:10450800016F0F5142EC21F010C100F11AD8DA6E98
:10451800DECF0DF1DDCF0EF10DC1D9FF0EC1DAFFEF
:10452800000EDFB0010E016F0F5105EC27F00101FD
:10453800112B0B51115DCDE31200DA6E10EE03F072
:1045480012001151020DF3500925D96EF4500A21B9
:104558001200336E29C020F02AC021F0236A080E09
:10456800226E3350C2EC28F0356A030E346E2850A0
:10457800D96EDA6ADECF2BF0DECF2CF0DECF2DF04D
:10458800DECF2EF02DC02EF02CC02DF02BC02CF03D
:104598002B6A33503424D96EDA6ADF502B242F6EFD
:1045A800000E2C20306E000E2D20316E000E2E20B5
:1045B800326E2850D96EDA6A2FC0DEFF30C0DEFFB7
:1045C80031C0DEFF32C0DEFF3406D8A0350635BE66
:1045D8001200CDD7ECEC2AF000C110F101C111F1A5
:1045E80002C112F103C113F101010451105D05511B
:1045F8001159065112590751135919E20451105D06
:104608000C6F055111590D6F065112590E6F075154
:1046180013590F6FFF0E0C25106FFF0E0D21116F30
:10462800FF0E0E21126F0F0E0F21136F08D00451C9
:10463800105F0551115B0651125B0751135B08515E
:10464800105D095111590A5112590B511359D8B01B
:10465800010C000C25D804C1D9FF05C1DAFF32D8F6
:104668002BD80C2FFDD71CD806C1D9FF07C1DAFFFC
:1046780029D822D80C2FFDD700517F0B08C1D9FFAC
:1046880009C1DAFFDF6E070E0C6F16D80C2FFDD7A5
:104698000051070B0AC1D9FF0BC1DAFFDF6E120008
:1046A8000C69070E0D6F00C10EF101C10FF10C511D
:1046B8000E170D510F171200D89003330233013330
:1046C800003312000EC1DEFF0FC1DDFF0B0E0C6FB1
:1046D8000B0C026F0101020505E1E20E006FFF0EEF
:1046E800016F1200020E021905E1EB0E006FFF0EBA
:1046F800016F1200030E021905E1E50E006FFF0EAF
:10470800016F1200040E021905E1F10E006FFF0E91
:10471800016F1200050E021905E1EE0E006FFF0E83
:10472800016F1200060E021905E1DF0E006FFF0E81
:10473800016F1200070E021905E1E80E006FFF0E67
:10474800016F1200F70E006FFF0E016F12000001DB
:10475800E16B0101C76B24EEECF011EEBCF0090E21
:10476800DBCFE3FFE806FCE2BC0E146F010E156F09
:10477800C7C116F1D8EC17F0C76FC70503E154ECB1
:1047880005F01FD0020EC71909E191EC29F0C66F98
:10479800C65117E0C651D9EC2AF013D0030EC71939
:1047A80004E1010E67EC1AF00CD0040EC71909E1F8
:1047B800176B166B030E196F1869010E1A6FE9EC67
:1047C80023F00101C751D0E112001A0513E1DC0EF4
:1047D800146FFE0E156F00EC28F00009D8B4120013
:1047E800A40E0101146FFD0E156F00EC28F00009EE
:1047F800D8B4120016C11FF117C120F10AD01FC189
:1048080000F120C101F102696EEC2AF001011F4B91
:10481800202B01011B691C6918C11DF119C11EF16A
:104828001B511D271C511E231D511F5D1E51205950
:10483800E6E31A05D8A41200A60E006FFF0E016F5A
:10484800FDEF1BF0086B096B0A6B0B6B045105112C
:104858000611071129E0010E0C6F06D0D890043715
:104868000537063707370C2B07AFF8D7D890083726
:1048780009370A370B370451005D055101590651B4
:1048880002590751035909E30451005F0551015BBF
:104898000651025B0751035B0881D8900733063342
:1048A800053304330C2FE2D708C100F109C101F127
:1048B8000AC102F10BC103F11200236E82840001C8
:1048C800DCABDDB703D01F6A206A03D0206A200E54
:1048D8001F6E2338E8461F0B1E0B1F1023D89DECB4
:1048E8002AF01AD89DEC2AF082840001DCABDDB7EF
:1048F80003D0216A226A03D0226A200E216E235037
:10490800100DF338E8461F0B1E0B21100BD89DEC39
:104918002AF002D89DEF2AF0829082941D6A050E33
:104928001C6E190C806E82801D6A010E1C6E0A0CAA
:104938000600E1CF12F0E2CF13F0D9CF14F0DACFAE
:1049480015F0F3CF16F0F4CF17F0F6CF18F0F7CF35
:1049580019F0F8CF1AF0F5CF1BF004009EAA04D086
:10496800AE505FEC1DF003D09EB8D5EC24F01BC010
:10497800F5FF1AC0F8FF19C0F7FF18C0F6FF17C0F7
:10498800F4FF16C0F3FF15C0DAFF14C0D9FF13C037
:10499800E2FF12C0E1FF11C0EAFF10C0E9FF5D921B
:1049A80011000001DA51DB1104E1ACA202D0AC9A8B
:1049B800120025D8F76403D00800F55002D0ECECBB
:1049C80020F000090AE1ACA2FED70D0EAD6E0A0E6A
:1049D800AD6E0001DA6BDB6B12000001DA51DB11FE
:1049E800D8B412000CD8F76403D00800F55002D0F0
:1049F800ECEC20F0AD6E0001DA4BDB2B1200DAC0D4
:104A0800F6FFDBC0F7FF000EF86E0F0E12000EC1A6
:104A180000F10FC101F110C102F111C103F1700ED3
:104A28008AEC08F031EC1EF000C116F101C117F153
:104A380016C100F117C101F1050E036FA00E026F38
:104A4800A4EC27F012C1D9FF13C1DAFF00C1DEFFC1
:104A580001C1DDFF16C100F117C101F1050E036F99
:104A6800A00E026F5AEC27F0002914C1D9FF15C116
:104A7800DAFFDF6E12000DC104F10EC105F10FC19E
:104A880006F110C107F1096B110E086F1EEC28F032
:104A9800110E0F27000E1023110E16D80E0E086FD8
:104AA8001EEC28F00E0E0F27000E10231F0E0CD838
:104AB800010E086F1EEC28F00F4B102B200E04D8A7
:104AC800010E086F1EEF28F00D25046F000E0E2151
:104AD800056F0FC106F110C107F1096B12000DC176
:104AE80004F10EC105F10FC106F110C107F1096B00
:104AF800110E086F72EC28F0110E0F27000E10230C
:104B0800110E16D80E0E086F72EC28F00E0E0F2735
:104B1800000E10231F0E0CD8010E086F72EC28F03F
:104B28000F4B102B200E04D8010E086F72EF28F0DF
:104B38000D25046F000E0E21056F0FC106F110C17F
:104B480007F1096B120029C020F02AC021F02BC000
:104B580022F02CC023F0256A110E246E8DEC28F06B
:104B6800110E2B26000E2C22110E16D80E0E246EB6
:104B78008DEC28F00E0E2B26000E2C221F0E0CD8C2
:104B8800010E246E8DEC28F02B4A2C2A200E04D816
:104B9800010E246E8DEF28F02924206E000E2A20A5
:104BA800216E2BC022F02CC023F0256A1200006F62
:104BB80001010051D8B4300C010AD8B4310C030AF1
:104BC800D8B4320C010AD8B4330C070AD8B4340C60
:104BD800010AD8B4350C030AD8B4360C010AD8B483
:104BE800370C0F0AD8B4380C010AD8B4390C030AA8
:104BF800D8B4410C010AD8B4420C070AD8B4430C03
:104C0800010AD8B4440C030AD8B4450C010AD8B434
:104C1800460C3F0C0101026B036B0251100D000E94
:104C2800006F040E1AD8200EDF6E02511AEC27F01E
:104C380020D813D8DF90010102511AEC27F019D8B7
:104C48000CD8DF82032B0F0E0365E7D7022B010E6A
:104C58000265E2D70001DD81010C016FF3500027E6
:104C6800F450012303510025D96E000E0121DA6E9C
:104C78001200200E006F040E12001C6E1C50D8B4D7
:104C8800270C010AD8B42B0C030AD8B42A0C010A41
:104C9800D8B4290C070AD8B4280C010AD8B42D0CAA
:104CA800030AD8B4210C010AD8B4240C0F0AD8B4CA
:104CB8001F0C010AD8B4200C030AD8B4230C010A2B
:104CC800D8B4220C070AD8B4260C010AD8B41E0C92
:104CD800030AD8B42C0C010AD8B4250C000C0451D2
:104CE80005110611071123E0010E086F06D0D890B0
:104CF8000437053706370737082B07AFF8D70451AD
:104D0800005D05510159065102590751035908E33D
:104D18000451005F0551015B0651025B0751035BBB
:104D2800D8900733063305330433082FE8D700C17A
:104D380000F101C101F102C102F103C103F1120046
:104D48002D3D3F2B3B3A28292E2C2A213C3E7E2FF5
:104D580022004154442020202020202020202020F0
:104D6800202020002020202020202020202020205B
:104D78002020202000B9202020EFEE202D2D3A2DD4
:104D88002D001F1C1F1E1F1E1F1F1E1F1E1FFDFE86
:104D98001BFF95FF38FF00002D2D3A2D2D3A2D2DA4
:014DA800000A
:104DAA000101026F020504E1200E016F8C0E17D07B
:104DBA00020E021904E1100E016F450E10D0040E06
:104DCA00021904E1020E016F080E09D0050E02193C
:104DDA0003E1016BAC0E03D0040E016F100E006FDD
:104DEA00948C948EB886AC8400C1AFFF01C1B0FF29
:104DFA009F8A9F88AC98AB8E9D8A9D88AB8812004B
:104E0A00046F0101015105E004510FD819D8DF8060
:104E1A0004D004510AD814D8DF900101045105D8EE
:104E2A000FD8DF820001DD811200010DF33AF43A56
:104E3A00F00EF416F3500F0BF412F00EF316F00CFA
:104E4A00200E026F040E036FF3500227F45003235F
:104E5A0000510225D96E000E0321DA6E1200086B8A
:104E6A00096B0A6B0B6B00A108D004510827055186
:104E7A00092306510A2307510B23D8900437053713
:104E8A0006370737D8900333023301330033005112
:104E9A00011102110311E7E108C100F109C101F191
:104EAA000AC102F10BC103F11200056B066B025134
:104EBA0003111BE0010E046F04D0D89002370337A8
:104ECA00042B03AFFAD7D890053706370251005D95
:104EDA000351015905E30251005F0351015B05814A
:104EEA00D89003330233042FEED705C100F106C16F
:104EFA0001F11200216A226A1E501F101BE0010EE6
:104F0A00206E04D0D8901E361F36202A1FAEFAD73C
:104F1A00D890213622361E501C5C1F501D5805E3BE
:104F2A001E501C5E1F501D5A2180D8901F321E32FF
:104F3A00202EEED721C01CF022C01DF01200025113
:104F4A00031117E0010E046F04D0D890023703371B
:104F5A00042B03AFFAD70251005D0351015904E350
:104F6A000251005F0351015BD89003330233042FCF
:104F7A00F2D700C100F101C101F112001E501F1049
:104F8A0017E0010E206E04D0D8901E361F36202A54
:104F9A001FAEFAD71E501C5C1F501D5804E31E504A
:104FAA001C5E1F501D5AD8901F321E32202EF2D777
:104FBA001CC01CF01DC01DF01200ECEC2AF000C150
:104FCA0016F101C117F102C118F103C119F116C195
:104FDA0004F117C105F118C106F119C107F114C18D
:104FEA0008F115C109F101010A6B0B6BEEEC22F015
:104FFA000009EDE012000EEC26F014C109F115C10A
:10500A000AF1010111D8A1EC20F02A0E0001E119E0
:10501A0004E1E16B0EEC26F0010C2B0EE119EDE137
:10502A00E16B0EEC26F0000C0B6B0C6B010E0D6F96
:10503A00010C0C6B12D00C510625006F000E0721D3
:10504A00016F0C510425D96E000E0521DA6EDF506E
:10505A00026F6EEC2AF001010C2B0C510A6F0B6BDC
:10506A0008510A5D09510B59E6E31200F2CF1FF00D
:10507A00F29EF29C04001DC0AAFF1CC0A9FF1EC01C
:10508A00A8FF03D81FC0F2FF1200A69EA69CA68402
:10509A00550EA76EAA0EA76EA682A694A6B2FED732
:1050AA00A19812000101016F036B005114E0010E77
:1050BA00026F03D0D8900037022B00AFFBD7D890ED
:1050CA0003370051015D03E30051015F0381D8906A
:1050DA000033022FF4D7035112000C6B10D00C517D
:1050EA000425D96E000E0521DA6E0C510625006FD3
:1050FA00000E0721016FCAEC29F0DF6E0C2B0C5150
:10510A000A6F0B6B08510A5D09510B59E8E312004B
:10511A00286A10D028502024D96E000E2120DA6E79
:10512A00285022241C6E000E23201D6E3BEC2AF010
:10513A00DF6E282A2850266E276A2450265C2550BE
:10514A002758E8E312000C0E12D80A0E026F0DEC73
:10515A0029F006C100F107C101F1050E026F0DEC3D
:10516A0029F00A0E04D8010E026F0DEF29F0062568
:10517A00006F000E0721016F1200266E276A0ED0FB
:10518A0026502724D96EDA6A275020241C6E000E76
:10519A0021201D6E3BEC2AF0DF6E272A2750246E51
:1051AA00256A2250245C23502558EAE312000101A3
:1051BA00006F82940001DCABDDB704D00101016B02
:1051CA00026B04D00101026B200E016F0051020D27
:1051DA00F3501E0B011100D0806E82808290120063
:1051EA00016F1D0E0001E165FF0C280EE161FF0C45
:1051FA00E151E20F0101026F0151025D08E3025120
:10520A00005D05E30001E16B010102511200FF0C90
:10521A00056B12D00551020DF3500025D96EF450DA
:10522A000121DA6EDECF03F1DDCF04F103C1D9FF2C
:10523A0004C1DAFFDF90052B0251055DEBE3120092
:10524A001C6E1C50010AD8B4010C030AD8B4020C13
:10525A00010AD8B4040C070AD8B4080C010AD8B455
:10526A00100C030AD8B4200C010AD8B4400C000C64
:10527A000F0E006F010E016F036B080E026F0469B7
:10528A00B7EC29F00F0E046F010E056F0DC106F180
:10529A000EC107F1096B080E086F1EEF28F000D047
:1052AA00480ED2250201F66FF40E0001D321020145
:1052BA00F76FFF0E0001D4210201F86FFF0E000103
:1052CA00D5210201F96F12000101036F03390F0B97
:1052DA00DCEC28F0850EE82EFED700F00101035120
:1052EA000F0BDCEC28F0850EE82EFED700F012003A
:1052FA000101016F080E026F036BD8900135033567
:10530A00036FD89001370051035D02E30051035F38
:10531A00022FF3D70351120023EE0AF011EE1DF00B
:10532A00090EDBCFE3FFE806FCE21D0E0101146F54
:10533A00010E156F5EEC2AF0166FD8EF17F0026BAC
:10534A00036B04D0024B032B004B012B00C1F6FF69
:10535A0001C1F7FF0800F550F5E102C100F103C1F0
:10536A0001F11200056B066B0AD005510025D96EB2
:10537A0006510121DA6E04C1DFFF054B062B0251EB
:10538A00055D03510659F1E31200F2CF02F1F29ED4
:10539A00F29C040001C1AAFF00C1A9FFA69EA69C17
:1053AA00A680A8CF03F102C1F2FF01010351120046
:1053BA001C6E82940001DCABDDB703D01D6A1E6A45
:1053CA0003D01E6A200E1D6E1C50020DF3501E0BD8
:1053DA001D10F1EF28F0216A226A0AD021501C24FC
:1053EA00D96E22501D20DA6E20C0DFFF214A222A00
:1053FA001E50215C1F502258F1E312001E6A1F6AD8
:10540A0004D01E4A1F2A1C4A1D2A1CC0F6FF1DC0B2
:10541A00F7FF0800F550F5E11EC01CF01FC01DF093
:10542A001200066A076A0AD006500124D96E07508C
:10543A000220DA6E05C0DFFF064A072A0350065C1F
:10544A0004500758F1E312001F6E1F380F0BDDECF2
:10545A0029F0850EE82EFED700F01F500F0BDDEC69
:10546A0029F0850EE82EFED700F01200F2CF1EF0CA
:10547A00F29EF29C04001DC0AAFF1CC0A9FFA69EB2
:10548A00A69CA680A8CF1FF01EC0F2FF1F501200D4
:10549A0000510111D8B4120000C1DAF001C1DBF0E9
:1054AA00AC8A0251D8B412000001DA51DB11FCE1D6
:1054BA001200030E0101016F980E006FCAEC29F069
:1054CA00046F045102E0042902E1030E046F04513F
:1054DA001200F2CF03F1F29EF29C040001C1AAFF6E
:1054EA0000C1A9FF02C1A8FF4AEC28F003C1F2FFDC
:1054FA0012001C501D10D8B412001CC0DAF01DC0D6
:10550A00DBF0AC8A1E50D8B41200DA51DB11FDE18F
:10551A0012000101006F0001DD81640E556E010168
:10552A0000B103D00001DD9302D00001DD83120037
:10553A001E6E09D0CC6A1EC0CBFF9E929EA2FED7D9
:10554A001C06D8A01D061C501D10F4E11200980E6E
:10555A001C6E030E1D6E1F6A080E1E6E206AF0EC8A
:10556A0029F0980E236E030E246E12005E0E1C6E36
:10557A00050E1D6E1F6A240E1E6E206AF0EC29F0BD
:10558A005E0E236E050E246E1200800E1C6E040E33
:10559A001D6E1F6A1E0E1E6E206AF0EC29F0800E28
:1055AA00236E040E246E12000101046F030E016FB4
:1055BA00980E006F04C102F16EEF2AF0202000203D
:1055CA002000340035003600370038003900FAC2AE
:1055DA0000F1FBC201F1FCC202F1FDC203F11200AB
:1055EA00CCEC1DF00C0E69EC29F00001DC8D1200E8
:1055FA00DC9B080E69EC29F00001DC9D12003100E9
:09560A00320033008001010101AE
:10561400DDA91200E16BDD991200FF4683818084CD
:035624000182857B
:0656280055EF29F012000D
:10FD0A0000456E676C697368D0F3F1F1EAE8E9209F
:10FD1A002020203132330020E0E020C0E020C0C0A3
:10FD2A00002B434C49503A2022101010101010108A
:10FD3A00101010101010222C3134352C22222C2CA9
:10FD4A0022222C30002B43434C4B3A202210102FF6
:10FD5A0010102F10102C10103A10103A101010100A
:10FD6A001022004E4F204449414C544F4E45004EFC
:10FD7A004F2043415252494552004E4F20414E5363
:10FD8A00574552002B44544D463A10004552524FA3
:10FD9A00520042555359004F4B00C4E5E9F1F2E2D3
:10FDAA00E8E520EDE5EEE1F0E0F2E8ECEE2120CF27
:10FDBA00F0EEE4EEEBE6E8F2FC3F00CEF7E8F1F213
:10FDCA00E8F2FC20E7E0EFE8F1E820EFEBE0EDE80D
:10FDDA00F0EEE2F9E8EAE03F00CEF7E8F1F2E8F205
:10FDEA00FC20F2E5EBE5F4EEEDEDF3FE20EAEDE8BA
:10FDFA00E3F33F00CDE0F1F2F0EEE9EAE020ECEEC9
:10FE0A00E4F3EBFF2E2E2E204F4B20204F4B00CF3A
:10FE1A00EEE8F1EA2047534D2D202020202020EC47
:10FE2A00EEE4F3EBFF2E2E2E0047534D2DECEEE4BD
:10FE3A00F3EBFC20EDE5202020EDE0E9E4E5ED0020
:10FE4A00CDE0F1F2F0EEE9EAE020ECEEE4F3EBFFCC
:10FE5A002E2E2E204F4B00CDE0F1F2F0EEE9EAE033
:10FE6A0020ECEEE4F3EBFF2E2E2E00CAEEEFE8F0C4
:10FE7A00EEE2E0F2FCD3E4E0EBE8F2FC00C4EEE1EF
:10FE8A00E0E2E8F2FCC8E7ECE5EDE8F2FC0020204D
:10FE9A002020202020202020202020202020002078
:10FEAA00202020203CEFF3F1F2EE3E20202020001B
:10FEBA00D0E0F1EFE8F1E0EDE8E520EEF2EAEB2E32
:10FECA0000CEF2EFF0E0E2E8F2FC20E2FBE7EEE23D
:10FEDA003F00CEF7E8F1F2E8F2FC20EFE0ECFFF2A7
:10FEEA00FC3F00CEF7E8F1F2E8F2FC20EFE0ECFF8D
:10FEFA00F2FC00D3F1F2E0EDEEE22E20E2F0E5ECC6
:10FF0A00FF00D3E4E0EBE8F2FC20EDEEECE5F03F95
:10FF1A0000D1EAEEF0EEF1F2FC20555341525400C2
:10FF2A00CDE0E1F0E0F2FC20EDEEECE5F000CEF7FA
:10FF3A00E8F1F22E20EFE0ECFFF2FC00EAEEEFE847
:10FF4A00F0EEE2E0F2FC20F100D3E4E0EBE8F2FCB0
:10FF5A0020E2F1E500CFEBE0EDE8F0EEE2F9E8EAC5
:10FF6A0000D2E5EB2E20EAEDE8E3E000CEF8E8E186
:10FF7A00EAE02047534D00CDE0F1F2F0EEE9EAE87D
:10FF8A000041542B444445543D3100496E69742064
:10FF9A0047534D00E7E0EFE8F1FC2000C3EEF2EE34
:10FFAA00E2EE00EDEEE2E0FF20002031393230309F
:10FFBA0000203132303000203234303000203936DF
:10FFCA00303000415445300052494E4700415441B7
:10FFDA000041544800F1E100EFED00F1F000E2F1D8
:10FFEA0000E2F200EFF200F7F2002D2D003F3F0091
:06FFFA00415400BB0000B1
:020000040030CA
:0E000000FF861E1EFF0581FF0FC00FE00F40A0
:00000001FF
