:040000001FEF01F0FD
:06000800628203ED1EF010
:100018006280D8CF0DF0E8CF0EF0E0CF0FF0D9CF47
:1000280010F0DACF11F0F3CF12F0F4CF13F0040090
:100038009EA0F1D09E90C80ECF264F500101945D2E
:10004800096E505095590A6E515096590B6E525080
:1000580097590C6E0CBE0AD00C500B1005E1710EAE
:10006800095C170E0A5802E3010E01D0000E146E47
:10007800145003E007EC1EF0579257AC84D0640E7E
:10008800611802E058A07FD01C6A1A6A1B6A640EC5
:10009800611812E01C50100D740E096E010E0A6EE4
:1000A800F3500926F4500A221A500924D96E1B501D
:1000B8000A20DA6EDFA259D01C50100D540E096EBA
:1000C800010E0A6EF3500926F4500A221A50092428
:1000D800D96E1B500A20DA6EDF50156E1C50400D89
:1000E800F3501A248009ADEC1DF01C50100D740E4D
:1000F800096E010E0A6EF3500926F4500A221A50AE
:100108000924D96E1B500A20DA6E0101DFA016D02F
:100118001C50100D740E096E010E0A6EF35009265C
:10012800F4500A221A500924D96E1B500A20DA6E9C
:10013800DFA002D058B202D05F0E156E1550CDEC7C
:100148000FF0C4EC19F01C50100D740E096E010E5E
:100158000A6EF3500926F4500A221A500924D96E5F
:100168001B500A20DA6E0101DF921A4A1B2A1BBEB5
:100178008ED71B5003E1100E1A5C89E31C2A010E6E
:100188001C6483D75890615002E061060FD05880F4
:10019800640E616E58B203D0096A092A01D0096A4F
:1001A800094658500918FD0B0918586E595002E0B5
:1001B800590630D05B6A81AE23D00F0E5A1802E17F
:1001C8005A6A01D05A2A5AC016F0176A196A040ED8
:1001D800186E020E1702F350176E16B0172AD89031
:1001E80016321806D8A0190619BE04D01950F1E124
:1001F8001804EFE21750020DF3CF81FF60680AD0B0
:10020800602808E15AC060F0605060EC1AF05B6E3C
:100218001E0E596EF29413C0F4FF12C0F3FF11C002
:10022800DAFF10C0D9FF0FC0E0FF0EC0E8FF0DC015
:0A023800D8FF62901000C9EF18F023
:101000000020202020202020202020202020202000
:101010002000D0E0F1EFE8F1E0EDE8E520EEF2EAC3
:10102000EB2E00636F70792066726F6D2000636530
:101030006C6C20006E65772000746F2000F1E10079
:10104000EFED00F1F000E2F100E2F200EFF200F764
:10105000F2003F3F0000260E5B1816E1800E0101F2
:10106000E11904E1E20502E157A00ED05B6AC3EC8E
:101070001AF057B003D04B6A4B2A01D04B6A575035
:101080004B18FE0B4B18576E2D0E5B180FE1800EA0
:101090000101E11902E1E20509E057A007D05B6A0E
:1010A000E1C149F0E2C14AF02FEC14F057B20CD084
:1010B0001DEC14F0A6DAAEEC12F0A8DA57A003D0BB
:1010C0005790C3EC1AF05782800E0101E11902E13A
:1010D000E20502E057B0EED0985199114B6F57A43A
:1010E00003D04B6A4B2A01D04B6A01014B51010ED0
:1010F000D8B4000E4B180FE0C3EC1AF04B5103E0CC
:101100004B6A4B2A01D04B6A4B464B4657504B1803
:10111000FB0B4B18576E01014B5126E0DDC13BF133
:10112000DEC13CF1DFC13DF1E0C13EF1010E466F91
:101130004B51010B316FD8904B33310509E13CC164
:101140003BF13DC13CF146512EEC1AF001013D6FDF
:10115000462B030E4665ECD73B0E2D6E010E2E6E10
:10116000AAEC12F0ADEC17F021EED4F011EE15F070
:10117000080EDBCFE3FFE806FCE21CDA640E10DAAF
:101180005BEC16F0E0D90A0E10DA60EC17F01D5097
:101190002EEC1AF001011C6FE7D90A0E01DA5BECA4
:1011A00016F0D1D9060E01DA60EC17F01D502EECC6
:1011B0001AF001011B6FD8D9060EF2D95BEC16F0BC
:1011C000C2D90A0EF2D960EC17F01D502EEC1AF0BD
:1011D0000101196FC9D90A0EE3D95BEC16F0B3D936
:1011E000060EE3D960EC17F01D502EEC1AF0010149
:1011F000186FBAD9060ED4D95BEC16F01DC050F1A9
:101200001EC051F11FC052F120C053F1ADD9180ECC
:10121000C7D95BEC16F01D280101326FAED9180E4C
:10122000C4D960EC17F01DC050F11EC051F11FC0B1
:1012300052F120C053F1A1D90A0EB7D960EC17F0D2
:101240001D502EEC1AF00101166F8ED90A0EA8D986
:101250005BEC16F01D502EEC1AF00101156F985141
:1012600099114B6F070E4B1903E0366B050E02D038
:10127000366B040E356F150E2D6E010E2E6E2F6A15
:1012800035C130F0ADEC17F0070E01014B1903E04A
:10129000386B020E02D0386B010E376F3251B4EC4E
:1012A0001BF04B6E4BC02DF097EC12F037C130F0B5
:1012B000ADEC17F057BE57B002D0120E3AD1800EE7
:1012C0000101E11903E1E20501E12DD121EE9EF0DA
:1012D00011EE1EF0100EDBCFE3FFE806FCE2A50ED8
:1012E0001E6F010E3A6F57A003D03A6BF10E236FB9
:1012F000426B436B446B456B000E2A6E010E2B6EE6
:10130000420E2C6E010E2D6EE1C12EF0E2C12FF0C7
:101310003FEC18F042C11DF043C11EF044C11FF064
:1013200045C120F02F0E216E010E226E4C0E236E51
:10133000010E246E390E256E010E266E410E276EAB
:10134000010E286E0CEC19F09AC12BF09BC12CF009
:101350009CC12DF09DC12EF04E0E2F6E010E306EF1
:10136000400E316E010E326EFBEC19F038D90A0EC8
:101370001F6E1CEC1CF01D502EEC1AF00101296FA1
:1013800022D90A0E1F6E8FEC1BF045D928D9060E04
:101390001F6E1CEC1CF01D502EEC1AF00101286F82
:1013A00012D9060E1F6E8FEC1BF035D93A0E0101D3
:1013B000276F15D90A0E1F6E1CEC1CF01D502EEC69
:1013C0001AF00101266FFFD80A0E1F6E8FEC1BF07A
:1013D0001D502EEC1AF00101256F010E476F030E10
:1013E000476501D012D04151010B336FD890413382
:1013F000330509E12CC12BF12DC12CF147512EEC05
:101400001AF001012D6F472BEAD74051B4EC1BF0C5
:1014100001013F6F3FC1F6FF100EF76E0800F5CFD8
:1014200020F13FC14BF04B2A4BC0F6FF0800F5CF2F
:1014300021F11E0E2D6E010E2E6E3AC12FF0306A74
:10144000ADEC17F057A0120021EEAFF011EE08F04E
:101450000C0EDBCFE3FFE806FCE201014A6B0C0E49
:10146000496F94D8C2D80A0E1F6E1CEC1CF01D5098
:101470002EEC1AF0DF6EADD80A0E1F6E8FEC1BF04B
:10148000BAD884D8B2D8060E1F6E1CEC1CF01D50C2
:101490002EEC1AF0DF6E9DD8060E1F6E8FEC1BF03F
:1014A000AAD84907D8A04A0771D89FD80A0E1F6E3C
:1014B0001CEC1CF01D502EEC1AF0DF6E010166D8FA
:1014C00088D80A0E1F6E8FEC1BF01D502EEC1AF000
:1014D000DF6EE1C14BF0E2C14CF0D8904C324B32A0
:1014E000D8904C324B32D8904C324B324B280101C1
:1014F000486F0A0E1D6E485176EC1DF02EEC1AF066
:101500000101346F09C10AF134C109F10A0E1D6EDF
:101510004851E2EC1CF00101486F4851EAE1080E25
:101520002D6E010E0AD057A003D0C3EC1AF05790CD
:10153000010E2D6E2D50D8A4100E2E6E010E2F6EA2
:10154000306AADEF17F01DC050F11EC051F11FC041
:1015500052F120C053F150C11DF051C11EF052C1D3
:101560001FF053C120F0120050C11DF051C11EF0F8
:1015700052C11FF053C120F0120050C11DF051C1E3
:101580001EF052C11FF053C120F012004907D8A02D
:101590004A07080E4925D96E010E4A21DA6E12005B
:1015A000216E226A236A246A1200216E226A236A4B
:1015B000246A120094C11DF095C11EF096C11FF05F
:1015C00097C120F012004EC11DF04FC11EF0206ADD
:1015D00012004CC11DF04DC11EF0206A12004EC118
:1015E0001DF04FC11EF0206A12004CC11DF04DC10C
:1015F0001EF0206A12001DC04CF11EC04DF1010109
:1016000012009A0E3A6E010E3B6E12003AC0E1F1E2
:101610003BC0E2F112001DC04EF11EC04FF112009E
:10162000800E3C1807E13D0405E13AC0B4F03BC030
:10163000B5F004D03CC0B4F03DC0B5F000015CDAB8
:10164000AC0E2A6E2B6AD10E2C6E2D6AB4C02EF011
:10165000B5C02FF03FEC18F00001BE6BD12909E1B5
:10166000D22907E1D32905E1D42903E145DA010EA6
:10167000BE6FD1C01DF0D2C01EF0D3C01FF0D4C0C9
:1016800020F0BF0E216E226AC10E236E246AC80E9E
:10169000256E266AC90E276E286A0CEC19F0BFC0A9
:1016A000CCF0C0C0CDF0C1C0CEF0C2C0CFF029DABE
:1016B0009EEC15F0C3EC1AF0010E0001CB6F2B0E5F
:1016C0005B1804E15B6AC3EC1AF0000C2A0E5B188D
:1016D00001E0D1D15B6A0001CE51806FCF51816FA3
:1016E000826B836B0B0ED8908037813782378337BC
:1016F000E82EF9D7C8C084F0856B866B876B160E11
:10170000D8908437853786378737E82EF9D7C9C010
:1017100088F0896B8A6B8B6B1D0ED8908837893760
:101720008A378B37E82EF9D7845188258C6F8551FD
:1017300089218D6F86518A218E6F87518B218F6F02
:1017400080518C25906F81518D21916F82518E2116
:10175000926F83518F21936FCC519025D16FCD51D2
:101760009121D26F000E9221D36F000E9321D46F7E
:10177000D10E296E3AC02AF03BC02BF0AC0EF0EC33
:101780001AF0C3EC1AF0010C21EEBCF010EE94F04C
:101790000B0EDBCFE3FFE806FCE2940E1E6EB60EE6
:1017A000AEEC1CF0940EA2D9ADEC17F02D0E5B1828
:1017B00004E00001BE0501E067D15B6A0001BE6B79
:1017C000050ED76F7CD93BEC1CF0020E0001C36FF5
:1017D0002B0E5B1804E15B6AC3EC1AF055D12A0E9C
:1017E0005B1866E15B6AD06B010ED06501D03CD01E
:1017F000D051040DF3CFCAF0CA516ED91D6E1E6AC6
:10180000020E206E580E1F6E63EC1DF0CAC080F0F1
:10181000802B805161D93C0DF3CF81F0F4CF82F061
:10182000CAC083F0020E8327835156D90A0DF350A4
:101830008127F45082231D5081271E508223CAC065
:1018400084F0030E8427845147D98127000E822318
:10185000D051020DF350C40FD96EDA6A81C0DEFF99
:1018600082C0DDFFD02BC0D7C4C0CCF0C5C0CDF046
:10187000C651C45DC751C55905E2C6C0CEF0C7C048
:10188000CFF0AAD72ED93BEC1CF00B0E0001D76F7E
:10189000D7516AEC1BF00001C36FC4C0CEF0C5C0C5
:1018A000CFF02FD99EEC15F00AD93BEC1CF041D0BB
:1018B000290E5B181EE15B6A050ED7653AD011D977
:1018C0003BEC1CF0080E0001D71906E00B0ED719EF
:1018D00003E00E0ED71903E1020ED75F01D0D70740
:1018E000D7516AEC1BF00001C36FE9D83BEC1CF048
:1018F00020D0280E5B181DE15B6A0F0ED76119D04E
:10190000F0D83BEC1CF0060E0001D71906E0090EDA
:10191000D71903E00C0ED71903E1020ED72701D027
:10192000D72BD7516AEC1BF00001C36FC8D83BEC32
:101930001CF021EEC8F010EEA0F00B0EDBCFE3FFA1
:10194000E806FCE2A00E1E6EB60EAEEC1CF0A00E79
:10195000CDD8ADEC17F00001D56B11D0D56B20D0F0
:10196000010E0BD0020E09D0030E07D0040E05D0D5
:10197000050E03D0060E01D0070ED56F11D0D7513A
:10198000050AECE0030AECE00E0AECE0010AECE0E8
:10199000020AECE0070AECE0020AECE0010AECE0E3
:1019A000C3C01DF0000E3CEC1DF00001D66FD6291F
:1019B00001E10ED7D551B60FD96EDA6AD6C0DFFF76
:1019C000D55103E0040ED51908E1020ED61905E140
:1019D0007BD8DF6402D078D8DF6E010ED76502D0E5
:1019E000280E01D02A0E5B6EF3D6080E2D6E090E5E
:1019F0002E6EC851FCEC1BF0070E1D6E010E3CEC68
:101A00001DF00001D66FD62906E0D651FCEC1CF083
:101A10000001C81B39D01E0E5B1803E15B6AC86B5E
:101A200033D02D0E5B1830E15B6A7F0EC86F2CD06F
:101A3000040E2D6E080E2E6EC951FCEC1BF0030E29
:101A40001D6E010E3CEC1DF00001D66FD62906E09C
:101A5000D651FCEC1CF00001C91B16D01E0E5B1801
:101A600003E15B6AC96B10D02D0E5B180DE15B6A58
:101A7000070EC96F09D00001CB51010A01E184D6DC
:101A8000030AB3E0010AD4E0280E5B180AE15B6A9E
:101A9000C3EC1AF0030E0001CB1901E10DD6CB2BDC
:101AA0000ED6290E5B1801E00AD65B6AC3EC1AF069
:101AB0000001CB0502E1030E01D6CB0700D6D7C04B
:101AC0001DF0010E1E6E000CD5C080F0802B8051E1
:101AD000B60FD96EDA6A030CB60FD96EDA6ADF5028
:101AE0001200D7C01DF0000E1E6E000C2D6E2E6A67
:101AF0002F6A050E306E050CD16BD26BD36BD46B95
:101B00001200B60E246ECC0E1200C3EC1AF05788E9
:101B1000DAEC0AF033DA5BEC16F0FBD9A2C08CF0F9
:101B2000A3C08DF0A4C08EF0A5C08FF0A70E11EC5D
:101B300017F0DDD90A0ED5EC0AF060EC17F01D5055
:101B40000001B86FDDD90A0ED0EC0AF05BEC16F09C
:101B5000E0D9CDD9060ED5EC0AF060EC17F01D5097
:101B60000001B46FCDD9060ED0EC0AF05BEC16F094
:101B7000D0D9BDD9180ED5EC0AF060EC17F01DC015
:101B8000A2F01EC0A3F01FC0A4F020C0A5F0AFD9E2
:101B90000A0ED5EC0AF060EC17F01D500001AC6F96
:101BA000AFD90A0ED0EC0AF05BEC16F01D50000124
:101BB000A86F8CC01DF08DC01EF08EC01FF08FC0AE
:101BC00020F0A00E216E050E226E236A246A5BECC3
:101BD00016F01D280001BC6F0A0E1D6EF55176EC43
:101BE0001DF00001E46F0A0E1D6EF551E2EC1CF0D1
:101BF0000001E06F300EDD6FDB83320ED96FD783CB
:101C00000A0E1D6EF45176EC1DF00001D06F0A0E25
:101C10001D6EF451E2EC1CF00001CC6F0A0E1D6E3B
:101C2000F35176EC1DF00001C46F0A0E1D6EF351E6
:101C3000E2EC1CF00001C06FBF0E966FC30E976FF1
:101C4000CB0E986FCF0E996FDF0E9A6FE30E9B6FDE
:101C5000BB0E9C6FA70E9D6FAB0E9E6FB30E9F6F5A
:101C6000B70EA06F070EA16F81D9DF80A70EC0EC61
:101C700014F0090E1D6E000E3CEC1DF00001946F77
:101C800094290EE073D9D92A94C0DFFFA70E5AEC2D
:101C90001CF00A0E0001A11902E1A16B01D0A12BD9
:101CA000280E5B180CE15B6AA70E5AEC1CF00A0EBA
:101CB0000001A11902E1A16BD7D7A12BD5D7290E1D
:101CC0005B180BE15B6AA70E5AEC1CF00001A151F6
:101CD00002E10A0EC8D7A107C7D72A0E5B1801E098
:101CE000FAD05B6A9951FED8366E9851FBD826D946
:101CF0000C0EA66505D0A70E5AEC1CF0020E61D0A2
:101D0000A6C095F020EEE7F010EE80F00B0EDBCFD2
:101D1000E3FFE806FCE29B51E5D8366E9A51E2D823
:101D20000DD9A6C036F0030E361602E11D0E816FE6
:101D30009751D8D8366E9651D5D800D904D9D96ED6
:101D4000DA6AA651DE5C17E296511FD91D6EFBD8E8
:101D500020D9E2EC1CF0DF6E0001975116D91D6E00
:101D6000F2D817D976EC1DF0DF6EA70E5AEC1CF0F6
:101D70000001A16BABD09C51B5D8A66F070EA6652C
:101D800005D0A70E5AEC1CF0060E1BD09E51AAD807
:101D9000366E9D51A7D8D2D8170EA66505D0A70ECE
:101DA0005AEC1CF0070E0DD0A0519CD8366E9F51F6
:101DB00099D8C4D83B0EA66507D0A70E5AEC1CF0E4
:101DC000090E0001A16F82D0A66B366837689C515E
:101DD00089D8386E396A365038263750392238C09B
:101DE0001DF039C01EF0000E1EBEFF0E1F6E206ECD
:101DF000B0D844EC1BF01DC03AF01EC03BF01FC031
:101E00003CF020C03DF000019D516CD80A0D9E5160
:101E100069D888D8100E216E0E0E226E236A246AAD
:101E200044EC1BF01D503A243E6E1E503B203F6E8A
:101E30001F503C20406E20503D20416E00019F51BC
:101E400051D80A0DA0514ED86DD83C0E8AD844EC1A
:101E50001BF01D503E240001906F1E503F20916FDB
:101E60001F504020926F20504120936F90C01DF072
:101E700091C01EF092C01FF093C020F0640E71D884
:101E800044EC1BF01DC094F11EC095F11FC096F1EB
:101E900020C097F10001975125D8366E965122D86F
:101EA0000A0DF3503624F36F99511CD8366E9851B1
:101EB00019D80A0DF3503624F46F9B5113D8366E9F
:101EC0009A5110D80A0DF3503624F56FA65101E04F
:101ED000CBD6C3EF1AF02B0E5B1801E0C5D65B6AB8
:101EE000C3EF1AF0D96EDA6AD92ADF501200A2C005
:101EF0001DF0A3C01EF0A4C01FF0A5C020F012006A
:101F0000A2C01DF0A3C01EF0A4C01FF0A5C020F009
:101F100012001DC0A2F01EC0A3F01FC0A4F020C07C
:101F2000A5F01200F326000EF422F3CF1DF0F4CF3B
:101F30001EF01EBEFF0E1F6E206E12000A0DF35023
:101F40003624A66F120095C036F036063650800F44
:101F50001200800E216E510E226E010E236E246A35
:101F6000010C216E226A236A246A1200A151960F85
:101F7000D96EDA6ADF50D96EDA6A1200700E216EFD
:101F8000170E226E236A246A170CD96EDA6AD92AD0
:101F90000A0CE16EE26AE7501200016E0150200A5D
:101FA000D8B4200C010AD8B4210C030AD8B4220CEE
:101FB000010AD8B4230C070AD8B4240C010AD8B4F7
:101FC000250C030AD8B4260C0E0AD8B4280C010A32
:101FD000D8B4290C030AD8B42A0C010AD8B42B0CA3
:101FE000070AD8B42C0C010AD8B42D0C030AD8B4B3
:101FF0002E0C010AD8B42F0C1F0AD8B4300C010AD9
:10200000D8B4310C030AD8B4320C010AD8B4330C5A
:10201000070AD8B4340C010AD8B4350C030AD8B472
:10202000360C010AD8B4370C0F0AD8B4380C010AA0
:10203000D8B4390C030AD8B43A0C010AD8B43B0C12
:10204000070AD8B43C0C010AD8B43D0C030AD8B432
:102050003E0C010AD8B43F0C7F0AD8B4400C010AE8
:10206000D8B4410C030AD8B4420C010AD8B4430CCA
:10207000070AD8B4440C010AD8B4450C030AD8B4F2
:10208000460C010AD8B4470C0F0AD8B4480C010A10
:10209000D8B4490C030AD8B44A0C010AD8B44B0C82
:1020A000070AD8B44C0C010AD8B44D0C030AD8B4B2
:1020B0004E0C010AD8B44F0C1F0AD8B4500C010AB8
:1020C000D8B4510C030AD8B4520C010AD8B4530C3A
:1020D000070AD8B4540C010AD8B4550C030AD8B472
:1020E000560C010AD8B4570C0F0AD8B4580C010A80
:1020F000D8B4590C030AD8B45A0C010AD8B45B0CF2
:10210000070AD8B42F0C010AD8B45D0C030AD8B45E
:102110005E0C010AD8B45F0C3F0AD8B4600C010A07
:10212000D8B4610C030AD8B4620C010AD8B4630CA9
:10213000070AD8B4640C010AD8B4650C030AD8B4F1
:10214000660C010AD8B4670C0F0AD8B4680C010AEF
:10215000D8B4690C030AD8B46A0C010AD8B46B0C61
:10216000070AD8B46C0C010AD8B46D0C030AD8B4B1
:102170006E0C010AD8B46F0C1F0AD8B4700C010A97
:10218000D8B4710C030AD8B4720C010AD8B4730C19
:10219000070AD8B4740C010AD8B4750C030AD8B471
:1021A000760C010AD8B4770C0F0AD8B4780C010A5F
:1021B000D8B4790C030AD8B47A0C040AD8B4E90C60
:1021C000EC0AD8B4270C050AD8B42D0C320AD8B4BE
:1021D000ED0C0D0AD8B4A20C030AD8B4C80C1B0A23
:1021E000D8B4EF0C080AD8B4B50C010AD8B4CC0C9A
:1021F000020AD8B4C90C7B0AD8B4410C010AD8B47D
:10220000A00C030AD8B4420C010AD8B4A10C070AE6
:10221000D8B4E00C010AD8B4450C030AD8B4A30C16
:10222000010AD8B4A40C0F0AD8B4A50C010AD8B47A
:10223000A60C030AD8B44B0C010AD8B4A70C070AA1
:10224000D8B44D0C010AD8B4480C030AD8B44F0CCA
:10225000010AD8B4A80C1F0AD8B4500C010AD8B48B
:10226000430C030AD8B4540C010AD8B4A90C070AC9
:10227000D8B4AA0C010AD8B4580C030AD8B4E10C9B
:10228000010AD8B4AB0C0F0AD8B4AC0C010AD8B40C
:10229000E20C030AD8B4AD0C010AD8B4AE0C070A9C
:1022A000D8B4C40C010AD8B4AF0C030AD8B4B00C2B
:1022B000010AD8B4B10C3F0AD8B4610C010AD8B4F1
:1022C000B20C030AD8B4B30C010AD8B4B40C070A90
:1022D000D8B4E30C010AD8B4650C030AD8B4B60C20
:1022E000010AD8B4B70C0F0AD8B4B80C010AD8B494
:1022F000B90C030AD8B4BA0C010AD8B4BB0C070A4B
:10230000D8B4BC0C010AD8B4BD0C030AD8B46F0C05
:10231000010AD8B4BE0C1F0AD8B4700C010AD8B494
:10232000630C030AD8B4BF0C010AD8B4790C070AAD
:10233000D8B4E40C010AD8B4780C030AD8B4E50C7C
:10234000010AD8B4C00C0F0AD8B4C10C010AD8B421
:10235000E60C030AD8B4C20C010AD8B4C30C070AAD
:10236000D8B4C40C010AD8B4C50C030AD8B4C60C3E
:10237000010AD8B4C70C3F0C0001A66BA76BA16B78
:10238000A26BA36BA46B940E2A6E2B6AA10E2C6E0B
:102390002D6A40C02EF041C02FF03FEC18F0010E26
:1023A0000001A56FAA6BAA51940FD96EDA6ADE28D4
:1023B00001E0A56BAA2B070EAA65F5D7800E401881
:1023C00002E141041CE0420404E1A50504E1010E20
:1023D00003D0A551FCE0000E9F6FA06B9F51A01190
:1023E0000EE040C045F041C046F0D890463245323C
:1023F000ADD8A7D8A66F000E4620A76F13D040C057
:102400003AF041C03BF042C03CF03E6A3D6A33ECDA
:1024100015F03AC040F03BC041F0800E4018E1E1B9
:102420004104DFE1A651A71119E05DC09CF05EC038
:102430009DF05FC09EF0A6C02AF0A7C02BF02C6ACA
:102440002D6A9C0E2E6E020E2F6EF7EC17F09C0E6E
:102450002D6E2E6A7FD8ADEC17F008D00D0E6DD81A
:1024600085EC18F00E0E69D885EC18F0420453E1A3
:10247000800E431802E1440447E0390E2D6E57D810
:10248000010E306EADEC17F0230E2D6E2D50D8A43A
:10249000100E2E6E010E2F6E306EADEC17F043C095
:1024A00045F044C046F052D851D84BD80001A86F2F
:1024B000000E4620A96FA95103E10A0EA85D12E3A0
:1024C0000D0E246EA8C01DF0A9C01EF0206A0A0ED1
:1024D0001F6E8FEC1BF01D502EEC1AF0256E010EB6
:1024E00085EC18F00E0E246EA8C01DF0A9C01EF0D9
:1024F000206A0A0E1F6E1CEC1CF01D502EEC1AF008
:10250000256E010E85EC18F0340E2D6E10D8040ED9
:10251000306EADEC17F02E0E2D6E09D8080E306E11
:10252000ADEC17F040C040F041C041F012002D501A
:10253000D8A4100E2E6E2F6A1200246E2D0E256E5A
:10254000000CD8904632453245281200D8904632C9
:10255000453212002F6A0D0E306E0D0C00019E6B7D
:102560009F6B010E906F800E8F6F986BA16BA26BAB
:10257000A36BA46B800E2A6E2B6AA10E2C6E2D6AA3
:102580009EC02EF09FC02FF03FEC18F0080E000107
:102590009E27000E9F23A12907E1A22905E1A32977
:1025A00003E1A42901E189D0A1C01DF0A2C01EF061
:1025B000A3C01FF0A4C020F0950E216E226A8C0EDD
:1025C000236E246A990E256E266A970E276E286A56
:1025D0000CEC19F00001975170E0A06B9951010BC0
:1025E0008E6FD89099338E0564E1A0511D6E1E6ADE
:1025F0001F6A206AA9EC0FF044EC1BF01DC03CF0F0
:102600001EC03DF01FC03EF020C03FF095C01DF041
:1026100096C01EF01F6A206A3C0EB1EC0FF044EC2D
:102620001BF01D503C240001886F1E503D20896F17
:102630001F503E208A6F20503F208B6F88C01DF0B6
:1026400089C01EF08AC01FF08BC020F0640EB1EC70
:102650000FF044EC1BF01DC09AF01EC09BF01FC091
:102660009CF020C09DF0000191519A5D92519B59C0
:1026700093519C5994519D5902E398511AE139D8CC
:102680009A51DE5C9B51DE589C51DE589D51DE58BC
:1026900010E2010E986F9AC091F09BC092F09CC01E
:1026A00093F09DC094F0F80E9E258F6FFF0E9F2132
:1026B000906FA02B060EA06591D7800E9E5D010E37
:1026C0009F5901E253D798050AE113D891C0DEFF64
:1026D00092C0DEFF93C0DEFF94C0DEFF05D009D8B4
:1026E000DE6ADE6ADE6ADD6A8FC03AF090C03BF0D7
:1026F00012003AC0D9FF3BC0DAFF1200578A579840
:102700009CD801EC0BF0AEEC12F006EC0BF057BCD1
:1027100005D05B5003E05B6AF6EC1DF057ACF7D7D1
:102720002BEC08F02D0E5B1806E157B004D05B6A65
:1027300085EC0DF0ECD7280E5B1803E0290E5B1832
:1027400008E15B6A010E4A6E800E496E2FEC14F0B0
:10275000DED72C0E5B1811E15B6A57ACD8D757BA9D
:1027600003D04D6A4D2A01D04D6A4D3A4D4657501F
:102770004D18DF0B4D18576ECAD71E0E5B1808E1B7
:102780005B6A578E0101986B61D8C8EC1CF0BFD70B
:102790001F0E5B1807E157B005D05B6AC3EC1AF057
:1027A000010E13D0200E5B1807E157B005D05B6A0D
:1027B000C3EC1AF0020E09D0210E5B1808E157B0E5
:1027C00006D05B6AC3EC1AF0040E981BA0D7220E49
:1027D0005B1807E157B005D05B6AC3EC1AF0986B41
:1027E00096D7230E5B180AE157B008D05B6A579E54
:1027F0002DD8C8EC1CF0C3EC1AF089D7250E5B1855
:1028000004E15B6AFDEC1DF082D72B0E5B1808E03B
:10281000240E5B1801E07BD757AE02D057A077D7C4
:102820002B0E5B1806E109D857A003D05790C3ECD4
:102830001AF05B6AD0EC1DF064D794C19AF195C18F
:102840009BF196C19CF197C19DF11200010E1E6E85
:10285000860E1D6E000E57BE010E1F6E1200C3ECD9
:102860001AF0800E491802E14A0404E049C053F00E
:102870004AC054F073D8BCEC11F040C053F041C0D2
:1028800054F0800E531802E154040BE02C0E5B1838
:1028900008E15B6A53C029F054C02AF028EC1DF00F
:1028A000E9D7230E5B180BE15B6A010E486E800EC0
:1028B000476EB9EC16F052D8BCEC11F0E2D7800E9E
:1028C000531802E154040EE0270E5B180BE15B6A1B
:1028D00053C047F054C048F0B9EC16F03FD8BCECF8
:1028E00011F0CFD7800E531802E1540412E02D0EE0
:1028F0005B180FE15B6A53C03AF054C03BF0010E25
:102900003D6E800E3C6E10EC0BF028D8BCEC11F044
:10291000B8D7280E5B180CE12BD83D6A33EC15F0C4
:102920003AC053F03BC054F019D8BCEC11F0A9D711
:10293000290E5B1806E11CD8010E3D6E33EC15F034
:10294000EFD72B0E5B1803E15B6AC3EF1AF01E0E84
:102950005B1897E15B6A536A546A8CD753C040F0A6
:1029600054C041F0426A010E446E800E436E800CEA
:102970005B6A53C03AF054C03BF03C6A3E6A1200B6
:10298000356E336A335063D8180ED926DFB20CD0B7
:1029900033505DD81A0ED92633505FD8190EE12670
:1029A000E7502EEC1AF0DF6E335051D81B0ED926AB
:1029B00033C0DFFF332A090E3364E4D7346A34505E
:1029C00046D8DFB20BD0345042D8020ED92634504C
:1029D00044D8E12AE7502EEC1AF0DF6E345037D895
:1029E000030ED92634C0DFFF342A040E3464E7D73F
:1029F0003550D96EDA6A160ED9263550E16EE26A84
:102A0000150EE126E7502EEC1AF0DF6E3550D96E28
:102A1000DA6A170ED926DF6A0A0E2D6E2E6A010EAB
:102A20002F6E3550180F1AEC1BF0050E2D6E010E8F
:102A30002E6E050E2F6E35501AEC1BF0010E2D6E0A
:102A40002E6E020E2F6E3550140F1AEF1BF0040D70
:102A50003550F324D96EDA6A1200040D3550F32490
:102A6000E16EE26A1200800E3A1806E13B0404E1CE
:102A7000010E3B6E780E3A6E3AC092F03BC093F076
:102A8000010E0001896F800E886F3D503E100DE1F0
:102A9000780E921905E1930503E1926B936B11D0C7
:102AA000080E9227000E93230CD09251931105E14A
:102AB000010E936F780E926F04D0080E925F000E95
:102AC000935B8C6B8D6B8E6B8F6B800E2A6E2B6A7B
:102AD0008C0E2C6E2D6A92C02EF093C02FF03FEC1E
:102AE00018F0010E0001906F916B9151800FD96E1B
:102AF000DA6ADE2801E0906B912B070E9165F5D71D
:102B00003C0404E1900504E1010E03D09051FCE087
:102B1000000E8A6F8B6B8A518B1105E092C088F092
:102B200093C089F006D03A509219AFE13B50931907
:102B3000ACE188C03AF089C03BF01200256E276AEC
:102B4000010E276401D0010C2750020D2550F324FB
:102B5000D96EDA6ADECF28F0DDCF29F02750040DD8
:102B6000F3CF26F045D8030ED9263CD80A0E1F6EA7
:102B70001CEC1CF01D50DF6E2FD80A0E1F6E8FEC60
:102B80001BF021D8020ED9262DD8060E1F6E1CEC84
:102B90001CF01D50DF6E20D8060E1F6E8FEC1BF050
:102BA00012D8D92A1FD80A0E1F6E1CEC1CF01D501B
:102BB000DF6E1ED811D80A0E1F6E8FEC1BF01D5051
:102BC000DF6E272ABDD71DC028F01EC029F0245073
:102BD0002624D96EDA6A120028C01DF029C01EF022
:102BE000206A120028C01DF029C01EF0206A1200C1
:102BF00024502624D96EDA6A1200F2CF22F0F29E17
:102C0000F29C82908294216AD70EE82EFED7212E64
:102C1000FCD700F0030E14EC1DF0400E216EF50EF3
:102C2000E82EFED7212EFCD700F0030E14EC1DF089
:102C3000D80E00D0E82EFDD700D000F0030E14EC23
:102C40001DF0830EE82EFED700F0020E14EC1DF0EE
:102C5000830EE82EFED700F02C0E89EC1DF0830EBB
:102C6000E82EFED700F0080E89EC1DF0830EE82E4A
:102C7000FED700F0010E89EC1DF0830EE82EFED782
:102C800000F0120E89EC1DF0830EE82EFED700F046
:102C900082908294010E89EC1DF01A0E216E940E22
:102CA000E82EFED7212EFCD700D0F2507F0B221049
:102CB0008009F26E1200266A24AE0AD0241E231E5A
:102CC000221E216C000E222223222422010E266EB7
:102CD00020AE0AD0201E1F1E1E1E1D6C000E1E22BE
:102CE0001F222022010E261A276A286A296A2A6AC8
:102CF000215022102310241029E0010E256E06D049
:102D0000D8902136223623362436252A24AEF8D709
:102D1000D8902736283629362A3621501D5C225075
:102D20001E5823501F582450205809E321501D5E7F
:102D300022501E5A23501F5A2450205A2780D890C0
:102D40002432233222322132252EE2D7265008E0C7
:102D50002A1E291E281E276C000E282229222A221C
:102D600027C01DF028C01EF029C01FF02AC020F087
:102D70001200C3EC1AF042D8BCEC11F040C055F080
:102D800041C056F0800E551802E156041CE02D0E8D
:102D90005B1819E15B6A55C03AF056C03BF047C07A
:102DA0003CF048C03DF010EC0BF0E80608E131D8EB
:102DB0003D6A33EC15F03AC055F03BC056F01ED8D2
:102DC000BCEC11F0DFD7280E5B1802E15B6AEFD78D
:102DD000290E5B1806E15B6A1CD83D6E33EC15F0DA
:102DE000EAD72B0E5B1803E15B6AC3EF1AF01E0EE5
:102DF0005B18C8E15B6A556A566ABDD755C040F09A
:102E000056C041F0010E426E47C043F048C044F046
:102E1000010C55C03AF056C03BF0010E3C6E3E6AC4
:102E2000010C1F6E1D6A1D5033D8180ED926DF9075
:102E30001D502ED8180ED926DF921D2A090E1D64AA
:102E4000F2D71E6A1E5024D8DF901E5021D8DF9280
:102E50001E2A040E1E64F6D71F5027D8DF901F507D
:102E600024D8DF921F50D96EDA6A0A0ED9263A0E9C
:102E7000DF6E1F50D96EDA6A080E1CD82E0E0ED8DF
:102E80002C0E18D8220E0AD8200ED926DF82200C4C
:102E9000040D1F50F324D96EDA6A1200D9262F0EC2
:102EA000DF6E1F50D96EDA6A1200D96EDA6A140E1C
:102EB000D926140CD926DF821F50D96EDA6A120087
:102EC000266A20AE03D040D8010E266E24AE08D06C
:102ED000241E231E221E216C000E222223222422C5
:102EE000215022102310241023E0010E256E06D05D
:102EF000D8902136223623362436252A24AEF8D718
:102F000021501D5C22501E5823501F582450205819
:102F100008E321501D5E22501E5A23501F5A245090
:102F2000205AD8902432233222322132252EE8D75B
:102F3000265001E009D81DC01DF01EC01EF01FC0A4
:102F40001FF020C020F01200201E1F1E1E1E1D6C30
:102F5000000E1E221F222022000C346A356A29D05E
:102F60002FC036F02F6A010E366401D022D030C057
:102F700033F0306A10D033C024F025D8F76403D082
:102F80000800F55001D02DD8256E365085EC18F08C
:102F9000344A352A332A100E336009D014D8F76426
:102FA00003D00800F55001D01CD80009E4E1362A0E
:102FB000DAD709D8F76403D00800F55001D011D84A
:102FC0000009CEE1120034502D24316E35502E20F0
:102FD000326E31C0F6FF32C0F7FF000EF86E0F0EF2
:102FE0001200F6CFE1FFF7CFE2FFE7501200010E2B
:102FF000326E32502E5C2F24D96EDA6A2AC01DF050
:103000002BC01EF02CC01FF02DC020F00A0E216E28
:10301000226A236A246A92EC1AF01D502EEC1AF0F0
:10302000DF6E2AC01DF02BC01EF02CC01FF02DC07B
:1030300020F00A0E216E226A236A246A89EC19F0B4
:103040001DC02AF01EC02BF01FC02CF020C02DF098
:10305000322A32502FC030F0316A305E000E315AC1
:10306000302A312231BE000C315003E13004D8A0A7
:1030700012002A502B102C102D10BBE112002AC078
:1030800021F02BC022F02EC023F02FC024F0266A9E
:10309000080E256E93EC1CF0396A030E386E38501A
:1030A0002A24D96E39502B20DA6EDF5029D8DECF92
:1030B00030F0DECF31F0DECF32F0DECF33F032C091
:1030C00033F031C032F030C031F0306A3024346E29
:1030D000000E3120356E000E3220366E000E332089
:1030E000376E0ED834C0DEFF35C0DEFF36C0DEFFDF
:1030F00037C0DEFF3806D8A0390639BE1200CFD758
:103100002CC0D9FF2DC0DAFF12002C6E25C02BF089
:103110003AD827D8DF502A6E010E286E2ED821D833
:103120000101DFB204D02A502B1801E1286A25D80A
:1031300018D828B002D0DF9202D00101DF82010E40
:10314000296E58B004D02A502B1801E1296A29B001
:1031500002D0589001D0588016D803D82BC0DFFF7A
:103160001200276EF3502626F450272224502624DE
:10317000D96E000E2720DA6E12002C50100D740E3E
:10318000266E010E12002C50100D540E266E010EEC
:10319000120001EE54F04A0EEE6AE806FDE100EE80
:1031A0004FF00E0EEE6AE806FDE1B20EF66E370E37
:1031B000F76E000EF86E01EE9EF010EE45F009007D
:1031C000F5CFEEFFE550E150FAE1DC0EF66E3B0E76
:1031D000F76E000EF86E00EEE7F010EE0FF009004B
:1031E000F5CFEEFFE550E150FAE1140EF66E3C0E1D
:1031F000F76E000EF86E00EE5DF010EE05F00900BF
:10320000F5CFEEFFE550E150FAE162906292000ED8
:10321000F86E00014BEF19F025D821C0D9FF22C06C
:10322000DAFF32D82BD8292EFDD71CD823C0D9FFDE
:1032300024C0DAFF29D822D8292EFDD71D507F0BB4
:1032400025C0D9FF26C0DAFFDF6E070E296E16D81B
:10325000292EFDD71D50070B27C0D9FF28C0DAFF44
:10326000DF6E12002968070E2A6E1DC02BF01EC0EB
:103270002CF029502B162A502C161200D8902032F0
:103280001F321E321D3212002BC0DEFF2CC0DDFFAC
:103290000B0E296E0B0C5796F26AF16AF06A9E6A61
:1032A000A16A9D6AA06A9F6AA26AD06AC3EC1AF0FA
:1032B000D08EF28EF28CCA84CD8EC80ECF6ECE6ABE
:1032C000CD809D800F0EC16E926A800E936E946ABF
:1032D0001BD8896A8A6A8B6A240ECA6E010E1E6E1A
:1032E000860E1D6E9BEC1DF04E6E4E324E325750C8
:1032F0004E187F0B4E18576E010106D8F6EC1DF0E4
:103300007EEC13F01FEF01F0946B956B966B976B4F
:103310001200256A266A276A286A21502210231083
:10332000241029E0010E296E06D0D89021362236CD
:1033300023362436292A24AEF8D7D89025362636C7
:103340002736283621501D5C22501E5823501F5806
:103350002450205809E321501D5E22501E5A23504C
:103360001F5A2450205A2580D890243223322232EA
:103370002132292EE2D725C01DF026C01EF027C01D
:103380001FF028C020F01200086E828457BA03D0C4
:10339000046A056A03D0056A200E046E0838E84600
:1033A0001F0B1E0B041021D8DFEC1DF018D8DFEC2A
:1033B0001DF0828457BA03D0066A076A03D0076AF1
:1033C000200E066E0850100DF338E8461F0B1E0B3A
:1033D00006100BD8DFEC1DF002D8DFEF1DF0829055
:1033E0008294026A050E016E190C806E8280026A58
:1033F000010E016E0A0C2BC01DF02CC01EF02DC05A
:103400001FF02EC020F0BEEC0FF05BEC16F01DC0DC
:1034100033F01EC034F033C01DF034C01EF0050E72
:10342000206EA00E1F6E1CEC1CF02FC0D9FF30C008
:10343000DAFF1DC0DEFF1EC0DDFF33C01DF034C04B
:103440001EF0050E206EA00E1F6E8FEC1BF01D28C7
:1034500031C0D9FF32C0DAFFDF6E12001D6E1D5081
:10346000D8B4300C010AD8B4310C030AD8B4320CE9
:10347000010AD8B4330C070AD8B4340C010AD8B402
:10348000350C030AD8B4360C010AD8B4370C0F0A2D
:10349000D8B4380C010AD8B4390C030AD8B4410C9A
:1034A000010AD8B4420C070AD8B4430C010AD8B4B4
:1034B000440C030AD8B4450C010AD8B4460C3F0C9E
:1034C000016E0150D8B4210C010AD8B42B0C030AA8
:1034D000D8B42A0C010AD8B4290C070AD8B4280C8D
:1034E000010AD8B42D0C030AD8B4270C010AD8B4A9
:1034F000240C0F0AD8B4250C010AD8B4260C030AF0
:10350000D8B4230C010AD8B4220C070AD8B4200C72
:10351000010AD8B41E0C030AD8B42C0C010AD8B482
:103520001F0C000C215022102310241023E0010E48
:10353000256E06D0D8902136223623362436252A09
:1035400024AEF8D721501D5C22501E5823501F581E
:103550002450205808E321501D5E22501E5A23504B
:103560001F5A2450205AD89024322332223221323A
:10357000252EE8D71DC01DF01EC01EF01FC01FF075
:1035800020C020F012001F6A206A1F50100D540E38
:103590001D6E010E13D8200EDF6E1CD80FD801014E
:1035A000DF9018D80BD8DF82202A0F0E2064EDD7C9
:1035B0001F2A010E1F64E8D75880010C1E6EF350BD
:1035C0001D26F4501E2220501D24D96E000E1E20F0
:1035D000DA6E12001F50100D740E1D6E010E1200D7
:1035E0002D6E2E6A2950D96EDA6A2D502E24E16E86
:1035F000E26ADFCFE7FF080E2C6E2950D96EDA6A37
:103600002C28D92A07D0D92AD92AD890DD32DD3200
:10361000DD32DE32E82EF7D72E2A030E2E64E2D7F3
:103620002AC021F02BC022F0246A080E236E2D50F0
:1036300078EF1CF0306E316A17D01AD820D8246E7B
:1036400017D8020ED926DF50256E2E5085EC18F0C3
:103650000FD815D81D6E0CD8000EDFB0010E1E6EEF
:103660002E503BEC1CF0312A2D50315CE6E3120069
:103670003150040D3050F324D96EDA6A1200030E73
:10368000D926DF502F241200256A266A276A286A65
:103690001DA008D021502526225026222350272263
:1036A00024502822D8902136223623362436D8902A
:1036B00020321F321E321D321D501E101F102010CE
:1036C000E7E125C01DF026C01EF027C01FF028C06E
:1036D00020F01200216E10D0020E0CD021281D6E99
:1036E000000E50EC1DF0020A02E1030E03D0090E99
:1036F00001D0050E226E11D02150010AF8E0030A14
:10370000F8E0060AEBE0010AE7E0020AF0E00F0A3F
:10371000F0E0020AE3E0010ADFE022501200216A31
:10372000226A1F5020101BE0010E236E04D0D89097
:103730001F362036232A20AEFAD7D89021362236DB
:103740001F501D5C20501E5805E31F501D5E205069
:103750001E5A2180D89020321F32232EEED721C04E
:103760001DF022C01EF012001F6E1F0402E1400E69
:103770001200020E1F1802E1490E1200030E1F185C
:1037800002E1430E1200040E1F1802E14F0E120058
:10379000050E1F1802E14C0E1200060E1F1802E162
:1037A0003D0E1200070E1F1802E1460E1200520EC7
:1037B0001200202020202020202020202020202037
:1037C000202000B9202020EFEE202D2D3A2D2D00B5
:1037D0002A2A3A2A2A2D2A2A3A2A2A002A2A3A2A40
:1037E0002A2D2A2A3A2A2A002D2D3A2D2D3A2D2D1E
:0737F00000202020008001F1
:1037F8002F6E010E306E14D02FA00AD015D8246E6B
:1038080030502EEC1AF0256E000E85EC18F005D01D
:103818000BD89DEC12F085EC18F0D8902F32302A96
:103828002D50305CE9E312002E50305C100F12006E
:103838001F50201017E0010E216E04D0D8901F36BB
:103848002036212A20AEFAD71F501D5C20501E5862
:1038580004E31F501D5E20501E5AD89020321F329C
:10386800212EF2D71DC01DF01EC01EF01200216EC1
:103878001E5004E00AD80101DF8003D006D80101F8
:10388800DF9003D8DF82588012002150100D740E8B
:103898001F6E010E206EF3501F26F45020221D507B
:1038A8001F24D96E000E2020DA6E12001F6E1D6ACA
:1038B8001D5014D8180ED926DF901D2A090E1D6434
:1038C800F7D71E6A1E500AD8DF901E2A040E1E64FF
:1038D800F9D71F5055EC17F0DF90140C040D1F504A
:1038E800F324D96EDA6A1200276E286A0FD028509E
:1038F80021241D6E000E22201E6E27502824D96E0A
:10390800DA6ADF501F6EC8EC1CF0282A2850256E92
:10391800266A2350255C24502658E9E31200296AB8
:1039280010D029502124D96E000E2220DA6E295099
:1039380023241D6E000E24201E6E9BEC1DF0DF6EEE
:10394800292A2950276E286A2550275C265028588E
:10395800E8E31200216E206A226A11D82A0EDE18C6
:1039680009E10DD821502024C9EC0FF02EEC1AF0F3
:10397800DF6E202A222A0B0E2264EFD70B0C1E5072
:103988002224D96EDA6A1200F2CF20F0F29EF29C5D
:1039980004001EC0AAFF1DC0A9FF1FC0A8FFA69E45
:1039A800A69CA684550EA76EAA0EA76EA682A694FC
:1039B800A6B2FED7A19820C0F2FF12001E6E206AA0
:1039C8001D5014E0010E1F6E03D0D8901D361F2A1B
:1039D8001DAEFBD7D89020361D501E5C03E31D504A
:1039E8001E5E2080D8901D321F2EF4D72050120062
:1039F8001D6E1D50010AD8B4010C030AD8B4020C7C
:103A0800010AD8B4040C070AD8B4080C010AD8B4BF
:103A1800100C030AD8B4200C010AD8B4400C000CCE
:103A28001D6E829457BA03D01E6A1F6A03D01F6A9C
:103A3800200E1E6E1D50020DF3501E0B1E1000D0DE
:103A4800806E828082901200336A33502B0FD96EB9
:103A5800DA6ADF68332A070E3364F7D729C021F002
:103A68002AC022F0246A080E236E2B0E78EF1CF071
:103A78001E6E1D0E5B64FF0C280E5B60FF0C5B5016
:103A8800E20F1F6E1E501F5C06E31F501D5C03E310
:103A98005B6A1F501200FF0C206E2050100D540E50
:103AA8001E6E010E1F6EF3501E26F4501F221D506D
:103AB8001E24D96E000E1F20DA6EDF5012001D5032
:103AC8001F02F3CF21F0F4CF22F01D502002F35053
:103AD80022261E501F02F350222621C01DF022C0AC
:103AE8001EF012001E6E080E1F6E206AD8901E343B
:103AF8002034206ED8901E361D50205C02E31D50E5
:103B0800205E1F2EF3D720501200206E20380F0B96
:103B180014EC1DF0830EE82EFED700F020500F0B9A
:103B280014EC1DF0830EE82EFED700F01200F2CF41
:103B38001FF0F29EF29C04001EC0AAFF1DC0A9FF40
:103B4800A69EA69CA680A8CF20F01FC0F2FF2050FA
:103B58001200046E04380F0BBFEC1DF0830EE82E24
:103B6800FED700F004500F0BBFEC1DF0830EE82EBB
:103B7800FED700F01200016E829457BA03D0026A91
:103B8800036A03D0036A200E026E0150020DF3503F
:103B98001E0B021024EF1DF0480E010100D09425E1
:103BA8004F6EF40E9521506EFF0E9621516EFF0E4A
:103BB8009721526E1200036E09D0CC6A03C0CBFF66
:103BC8009E929EA2FED70106D8A0020601500210BE
:103BD800F4E112001F1C1F1E1F1E1F1F1E1F1E1F89
:033BE800010101D7
:103BEC00FDEC15F00C0E89EC1DF0578C1200579A59
:103BFC00080E89EC1DF0579C12000600040062921E
:0D3C0C001100480ED3EF1DF0202000FF46F0
:020000040030CA
:0E000000FF861E1EFF0581FF0FC00FE00F40A0
:00000001FF
