:04000000C2EF01F05A
:0E0008005F82E9CF10F0EACF11F0F4ED3AF08C
:100018005F80D8CFBEF0E8CFBFF0E0CFC0F0E9CF27
:10002800C1F0EACFC2F0E1CFC3F0E2CFC4F0D9CF3C
:10003800C5F0DACFC6F0F3CFC7F0F4CFC8F0F6CFEB
:10004800C9F0F7CFCAF0F8CFCBF0F5CFCCF0040069
:100058009EA072D10001E22B000EE323E423E523E6
:100068009E901BEC27F046BE0ED09D0E435CD90E29
:1000780044589A0E4558030E465805E3436A446AA5
:10008800456A466A05D0432A000E44224522462284
:10009800630E521813E1EAC0BAF0EBC0BBF0000ED1
:1000A800BBBFFF0EBC6FBD6FBA514326BB51442284
:1000B800BC514522BD514622526A01D0522ADE5116
:1000C800435CBA6FDF514458BB6FE0514558BC6F71
:1000D800E1514658BD6FBDBF0AD0BD51BC1105E105
:1000E800710EBA5D170EBB5902E3010E01D0000E66
:1000F800CD6FCD5104E008EC44F00201F993020100
:10010800FAA309D0840E0001CE6F050ECF6F640EDE
:10011800D56F050E08D0240E0001CE6F050ECF6FE7
:10012800440ED56F050ED66F0201F9A7AED0640E46
:100138005A1802E0F9ABA9D00001D96BD76BD86B7C
:10014800280E5A181BE0D951010DF33AF43AF00E73
:10015800F416F3500F0BF412F00EF316D5C0BAF0E4
:10016800D6C0BBF0F350BA27F450BB23D751BA25F9
:10017800D96ED851BB21DA6EDFA277D0D951100DD4
:10018800CEC0BAF0CFC0BBF0F350BA27F450BB23AF
:10019800D751BA25D96ED851BB21DA6EDF50D06F4E
:1001A800D951400DF350D7258009C4EC42F0000125
:1001B800D951010DF33AF43AF00EF416F3500F0B3F
:1001C800F412F00EF316D5C0BAF0D6C0BBF0F35057
:1001D800BA27F450BB23D751BA25D96ED851BB21C1
:1001E800DA6EDFA021D0D951010DF33AF43AF00EBE
:1001F800F416F3500F0BF412F00EF316D5C0BAF044
:10020800D6C0BBF0F350BA27F450BB23D751BA2558
:10021800D96ED851BB21DA6EDFA003D00201F9BD37
:1002280003D05F0E0001D06F0001D05149EC1EF0E1
:100238007EEC3AF00001D951010DF33AF43AF00E90
:10024800F416F3500F0BF412F00EF316D5C0BAF0F3
:10025800D6C0BBF0F350BA27F450BB23D751BA2508
:10026800D96ED851BB21DA6EDF92D74BD82BD8BFC5
:1002780067D7D85104E1100ED75D01E261D7D92BB9
:10028800010ED9655BD70201F99B5A5002E05A0664
:1002980018D0F98B280E5A6EF9BD04D00001BA6B3C
:1002A800BA2B02D00001BA6BBA3BBA47BA4702016F
:1002B800F9510001BA19BF0BBA190201F96F11EC13
:1002C80039F0505002E0500635D00201FC6B81AE87
:1002D80024D00F0E511802E1516A01D0512A51C0A1
:1002E800D1F00001D26BD46B040ED36F020ED2038F
:1002F800F350D26FD1B1D22BD890D133D307D8A035
:10030800D407D4BF04D0D451F1E1D305EFE2D251E0
:10031800020DF3CF81FF59680DD059280BE151C068
:1003280059F0595030EC3DF00201FC6F020E506E4E
:10033800EBEC43F08DEC17F0F2B4F294CCC0F5FF7F
:10034800CBC0F8FFCAC0F7FFC9C0F6FFC8C0F4FFAA
:10035800C7C0F3FFC6C0DAFFC5C0D9FFC4C0E2FFFB
:10036800C3C0E1FFC2C0EAFFC1C0E9FFC0C0E0FFEF
:10037800BFC0E8FFBEC0D8FF5F9010006CEF2AF046
:100388003D6F6AD33B6B3C6B12003C6B50EF09F03E
:100398003C6B75EF08F03C6B7BEF08F03C6B040E90
:1003A8003B6F040C3C6B78EF08F03C6B4AEF09F0AC
:1003B8003C6B6CEF08F03C6B6FEF08F03C6B4DEF5B
:1003C80009F03C6BB7EF08F03C6B17EF09F03C6B9A
:1003D8007EEF08F03C6B0D0E3B6F0D0C3C6BC0EFD5
:1003E80008F03C6B29EF09F03C6B90EF08F03C6B90
:1003F800FCEF08F03C6B3EEF09F03C6B130E3B6FD3
:10040800130C3C6B140E3B6F140C3C6BF6EF08F0AE
:100418003C6B160E3B6F160C3C6B2CEF09F03C6BDB
:10042800180E3B6F180C3C6B190E3B6F190C3C6B8C
:100438001A0E3B6F1A0C3C6B20EF09F03C6B1C0E3C
:100448003B6F1C0C3C6B1D0E3B6F1D0C3C6B1E0E5A
:100458003B6F1E0C3C6B05EF09F03C6BC9EF08F0D5
:100468003C6B210E3B6F210C3C6B220E3B6F220C28
:100478003C6B0EEF09F03C6BD8EF08F03C6B47EF94
:1004880009F03C6B260E3B6F260C3C6B99EF08F08D
:100498003C6BB1EF08F03C6B0BEF09F03C6BDEEF07
:1004A80008F03C6B41EF09F03C6BA5EF08F03C6BA2
:1004B800FFEF08F03C6BCFEF08F03C6B35EF09F02D
:1004C8003C6B300E3B6F300C3C6B8DEF08F03C6B97
:1004D8008AEF08F03C6BE4EF08F03C6BB4EF08F0EF
:1004E8003C6B1AEF09F03C6B9CEF08F03C6BF0EFAB
:1004F80008F03C6BBDEF08F03C6B390E3B6F390CD4
:100508003C6B3A0E3B6F3A0C3C6BAEEF08F03C6B21
:10051800C3EF08F03C6B23EF09F03C6B93EF08F056
:100528003C6BF9EF08F03C6BBAEF08F03C6B14EF4A
:1005380009F03C6B81EF08F03C6BEDEF08F03C6B89
:100548002FEF09F03C6BD2EF08F03C6BD5EF08F0C9
:100558003C6B32EF09F03C6B9FEF08F03C6B08EF07
:1005680009F03C6BE1EF08F03C6B3BEF09F03C6BAA
:10057800A8EF08F03C6B11EF09F03C6B26EF09F08F
:100588003C6BC6EF08F03C6B500E3B6F500C3C6B5D
:10059800ABEF08F03C6B44EF09F03C6BDBEF08F085
:1005A8003C6B02EF09F03C6BA2EF08F03C6B38EFB4
:1005B80009F03C6BCCEF08F03C6B84EF08F03C6B27
:1005C800E7EF08F03C6BEAEF08F03C6B87EF08F0C8
:1005D8003C6B1DEF09F03C6B5D0E3B6F5D0C3C6B9B
:1005E800F3EF08F03C6B96EF08F03C6B600E3B6F46
:1005F800600C3C6B610E3B6F610C3C6B620E3B6F99
:10060800620C3C6B630E3B6F630C3C6B640E3B6F80
:10061800640C3C6B650E3B6F650C3C6B660E3B6F68
:10062800660C3C6B670E3B6F670C3C6B680E3B6F50
:10063800680C3C6B690E3B6F690C3C6B6A0E3B6F38
:100648006A0C3C6B6B0E3B6F6B0C3C6B6C0E3B6F20
:100658006C0C3C6B6D0E3B6F6D0C3C6B6E0E3B6F08
:100668006E0C3C6B6F0E3B6F6F0C3C6B700E3B6FF0
:10067800700C3C6B710E3B6F710C3C6B720E3B6FD8
:10068800720C3C6B730E3B6F730C3C6B740E3B6FC0
:10069800740C3C6B750E3B6F750C3C6B760E3B6FA8
:1006A800760C3C6B770E3B6F770C3C6B780E3B6F90
:1006B800780C3C6B790E3B6F790C3C6B7A0E3B6F78
:1006C8007A0C3C6B7B0E3B6F7B0C3C6B7C0E3B6F60
:1006D8007C0C3C6B7D0E3B6F7D0C3C6B7E0E3B6F48
:1006E8007E0C3C6B7F0E3B6F7F0C040E3C6F75EFEE
:1006F80008F0040E3C6F7BEF08F0200E44EF08F082
:10070800040E3C6FDBEF08F0200E40EF08F0200EDF
:1007180058EF08F0200E3C6F3B6F200C200E68EF5E
:1007280008F0200E3C6F72EF08F0200E50EF08F032
:10073800040E3C6F4DEF09F0200E64EF08F0040E34
:100748003C6FB7EF08F0040E3C6F7EEF08F0040E24
:100758003C6F17EF09F0040E3C6F29EF09F0040E07
:100768003C6F44EF09F0200E34EF08F0200E54EFF0
:1007780008F0200E5CEF08F0200E3CEF08F0200E89
:1007880030EF08F0200E4CEF08F0200E38EF08F09C
:10079800210E30EF08F0040E3C6FE7EF08F0200E52
:1007A80060EF08F0040E3C6FEAEF08F0040E3C6FAF
:1007B8001DEF09F0040E3C6F87EF08F0040E3C6F44
:1007C80096EF08F03C6BA00E3B6FA00C040E3C6F3C
:1007D800C0EF08F0040E3C6FF3EF08F0040E3C6F16
:1007E8006FEF08F03C6BA40E3B6FA40C040E3C6F3B
:1007F800900E3B6F900C3C6BA60E3B6FA60C3C6BAF
:10080800A70E3B6FA70C040E3C6F50EF09F03C6B32
:10081800A90E3B6FA90C040E3C6F3B6F040C3C6B9C
:10082800AB0E3B6FAB0C3C6B72EF08F03C6BAD0E44
:100838003B6FAD0C3C6BAE0E3B6FAE0C040E3C6FC9
:100848006CEF08F03C6BB00E3B6FB00C3C6BB10E1C
:100858003B6FB10C040E3C6F4AEF09F0040E3C6F7D
:1008680038EF09F0040E3C6F910E3B6F910C3C6B16
:10087800B50E3B6FB50C3C6BB60E3B6FB60C3C6BC4
:10088800B70E3B6FB70C040E3C6FABEF08F0210EB0
:10089800FBD3040E3C6F02EF09F03C6BBB0E3B6FC1
:1008A800BB0C040E3C6F84EF08F0040E3C6F78EF2D
:1008B80008F0040E3C6FA2EF08F0040E3C6FCCEF7A
:1008C80008F0040E3C6F90EF08F0040E3C6FFCEF4C
:1008D80008F0040E3C6F3EEF09F0040ED9D3040E65
:1008E800C3D3040E3C6FF6EF08F0040ECDD3040E0C
:1008F8003C6F2CEF09F0040EB3D3040ED1D3040ED1
:10090800BFD3040E3C6F20EF09F0040ED1D3040EC0
:10091800AFD3040EB1D3040E3C6F05EF09F0040EFB
:100928003C6FC9EF08F0040ECFD3040E95D3040E24
:100938003C6F0EEF09F0040E3C6FD8EF08F0040E80
:100948003C6F47EF09F0040EAFD3040E3C6FEDD3B4
:10095800040E3C6FB1EF08F0040E3C6F0BEF09F08A
:10096800040E3C6FDEEF08F0040E3C6F41EF09F017
:10097800040E3C6FE6D3040E3C6FFFEF08F0040E44
:100988003C6FCFEF08F0040E3C6F35EF09F0040E12
:1009980083D3040E3C6FBDD3040E3C6FB7D3040E53
:1009A8003C6FE4EF08F0040E3C6FDAD3040E3C6FA2
:1009B8001AEF09F0040E3C6FBBD3040E3C6FF0EF46
:1009C80008F0040E3C6FD5D3040E7AD3040E74D30A
:1009D800040E3C6FBFD3040E3C6FD1D3040E3C6FA2
:1009E80023EF09F0040E3C6F9AD3040E3C6FFDD33D
:1009F800040E3C6FBBD3040E3C6F14EF09F0040ED9
:100A08003C6F7BD3040E3C6FE4D3040E3C6F2FEF96
:100A180009F0040E3C6FC2D3040E3C6FC2D3040E1F
:100A28003C6F32EF09F0040E3C6F85D3040E3C6F27
:100A3800EBD3040E3C6FC1D3040E3C6F3BEF09F0BF
:100A4800040E3C6F81D3040E3C6FE7D3040E3C6F59
:100A5800F9D3040E3C6F96D301013D5101E192D4C4
:100A6800010A01E192D4030A01E192D4010A01E1E9
:100A780092D4070A01E192D4010A01E193D4030A4E
:100A880001E193D4010A01E193D40F0A01E193D45F
:100A9800010A01E193D4030A01E193D4010A01E1B7
:100AA80093D4070A01E193D4010A01E193D4030A1C
:100AB80001E194D4010A01E194D41F0A01E194D41C
:100AC800010A01E194D4030A01E194D4010A01E185
:100AD80094D4070A01E195D4010A01E196D4030AE6
:100AE80001E196D4010A01E197D40F0A01E197D4F4
:100AF800010A01E198D4030A01E199D4010A01E14C
:100B08009AD4070A01E19AD4010A01E19BD4030AA5
:100B180001E19CD4010A01E19DD43F0A01E19DD481
:100B2800010A01E19DD4030A01E19ED4010A01E111
:100B38009FD4070A01E19FD4010A01E19FD4030A67
:100B480001E19FD4010A01E1A0D40F0A01E1A0D478
:100B5800010A01E1A0D4030A01E1A0D4010A01E1DC
:100B6800A0D4070A01E1A0D4010A01E1A0D4030A34
:100B780001E1A0D4010A01E1A0D41F0A01E1A0D437
:100B8800010A01E1A1D4030A01E1A1D4010A01E1AA
:100B9800A1D4070A01E1A1D4010A01E1A1D4030A01
:100BA80001E1A1D4010A01E1A1D40F0A01E1A1D414
:100BB800010A01E1A1D4030A01E1A2D4010A01E179
:100BC800A3D4070A01E1A3D4010A01E1A3D4030ACB
:100BD80001E1A3D4010A01E1A3D47F0A01E1A3D46E
:100BE800010A01E1A3D4030A01E1A3D4010A01E146
:100BF800A3D4070A01E1A3D4010A01E1A3D4030A9B
:100C080001E1A3D4010A01E1A3D40F0A01E1A3D4AD
:100C1800010A01E1A3D4030A01E1A3D4010A01E115
:100C2800A3D4070A01E1A3D4010A01E1A3D4030A6A
:100C380001E1A3D4010A01E1A3D41F0A01E1A3D46D
:100C4800010A01E1A4D4030A01E1A4D4010A01E1E3
:100C5800A4D4070A01E1A4D4010A01E1A4D4030A37
:100C680001E1A4D4010A01E1A4D40F0A01E1A4D44A
:100C7800010A01E1A4D4030A01E1A4D4010A01E1B3
:100C8800A4D4070A01E1A4D4010A01E1A4D4030A07
:100C980001E1A5D4010A01E1A5D43F0A01E1A5D4E7
:100CA800010A01E1A6D4030A01E1A7D4010A01E17E
:100CB800A8D4070A01E1A9D4010A01E1AAD4030AC8
:100CC80001E1ABD4010A01E1ACD40F0A01E1ADD4D2
:100CD800010A01E1AED4030A01E1AFD4010A01E13E
:100CE800B0D4070A01E1B1D4010A01E1B2D4030A80
:100CF80001E1B3D4010A01E1B4D41F0A01E1B5D47A
:100D0800010A01E1B6D4030A01E1B7D4010A01E1FD
:100D1800B8D4070A01E1B9D4010A01E1BAD4030A37
:100D280001E1BBD4010A01E1BCD40F0A01E1BDD441
:100D3800010A01E1BED4030A01E1BFD4010A01E1BD
:100D4800C0D4070A01E1C1D4010A01E1C2D4030AEF
:100D580001E1C3D4010A01E1C4D4FF0A01E1C5D409
:100D6800010A01E1C6D4030A01E1C7D4010A01E17D
:100D7800C7D4070A01E1C8D4010A01E1C8D4030AAB
:100D880001E1C8D4010A01E1C9D40F0A01E1C9D4BB
:100D9800010A01E1CAD4030A01E1CAD4010A01E146
:100DA800CBD4070A01E1CBD4010A01E1CCD4030A70
:100DB80001E1CDD4010A01E1CED41F0A01E1CFD46B
:100DC800010A01E1D0D4030A01E1D0D4010A01E10A
:100DD800D0D4070A01E1D0D4010A01E1D0D4030A32
:100DE80001E1D0D4010A01E1D0D40F0A02E194EF65
:100DF80002F0010A01E1CCD4030A01E1CCD4010AD2
:100E080001E1CDD4070A01E1CDD4010A01E1CED434
:100E1800030A01E1CFD4010A01E1D0D43F0A01E17C
:100E2800D1D4010A01E1D2D4030A01E1D3D4010AE1
:100E380001E1D4D4070A01E1D5D4010A01E1D6D4ED
:100E4800030A01E1D8D4010A01E1D9D40F0A01E16A
:100E5800DAD4010A01E1DBD4030A01E1DCD4010A96
:100E680001E1DDD4070A01E1DED4010A01E1DED4A3
:100E7800030A01E1DFD4010A01E1E0D41F0A01E11C
:100E8800E1D4010A01E1E2D4030A01E1E3D4010A51
:100E980001E1E4D4070A01E1E5D4010A01E1E7D45C
:100EA800030A01E1E8D4010A01E1E9D40F0A01E1EA
:100EB800EAD4010A01E1EBD4030A01E1EAD4010A08
:100EC80001E1EBD4070A01E1ECD4010A01E1EDD418
:100ED800030A01E1EED4010A01E1EFD47F0A01E13E
:100EE800F0D4010A01E1F1D4030A01E1F2D4010AC4
:100EF80001E1F3D4070A01E1F2D4010A01E1F1D4D6
:100F0800030A01E1F2D4010A01E1F1D40F0A01E177
:100F1800F2D4010A01E1F1D4030A01E1F0D4010A93
:100F280001E1EFD4070A01E1F0D4010A01E1EFD4AD
:100F3800030A01E1EED4010A01E1EDD41F0A01E13F
:100F4800EED4010A01E1EFD4030A01E1EED4010A6B
:100F580001E1EDD4070A01E1EED4010A01E1EFD481
:100F6800030A01E1F0D4010A01E1EFD40F0A01E11B
:100F7800EFD4010A01E1F0D4030A01E1F1D4010A36
:100F880001E1F2D4070A01E1F3D4010A01E1F3D443
:100F9800030A01E1F4D4010A01E1F5D43F0A01E1B1
:100FA800F6D4010A01E1F5D4030A01E1F5D4010AF6
:100FB80001E1F5D4070A01E1F6D4010A01E1F6D40A
:100FC800030A01E1F7D4010A01E1F7D40F0A01E1AC
:100FD800F8D4010A01E1F8D4030A01E1F7D4010ABF
:100FE80001E1F6D4070A01E1F6D4010A01E1F6D4D9
:100FF800030A01E1F7D4010A01E1F7D41F0A01E16C
:10100800F7D4010A01E1F7D4030A01E1F8D4010A8F
:1010180001E1F8D4070A01E1F8D4010A01E1F9D4A1
:10102800030A01E1F9D4010A01E1F9D40F0A01E147
:10103800FAD4010A01E1FAD4030A01E1FAD4010A57
:1010480001E1FAD4070A01E1FBD4010A01E1FBD46A
:10105800030A01E1FBD4FDD43C6F220E3B6F220C46
:101068003C6F180E3B6F180C3C6F140E3B6F140C42
:101078003C6F1D0E3B6F1D0C3C6F1E0E3B6F1E0C14
:101088003C6F1A0E3B6F1A0C3C6F160E3B6F160C1A
:101098003C6F130E3B6F130C3C6F300E3B6F300CE4
:1010A8003C6F190E3B6F190C3C6F260E3B6F260CDC
:1010B8003C6F1C0E3B6F1C0C3C6F3A0E3B6F3A0C9E
:1010C8003C6F390E3B6F390C3C6F210E3B6F210C86
:1010D800070E3B6F070C080E3B6F080CAC0E3B6FFE
:1010E800AC0C020E3B6F020C050E3B6F050C030E99
:1010F8003B6F030C0C0E3B6F0C0C420E3B6F420C0B
:10110800580E3B6F580C5B0E3B6F5B0C320E3B6FFF
:10111800320C310E3B6F310C100E3B6F100C3E0E33
:101128003B6F3E0C5F0E3B6F5F0C270E3B6F270C2F
:10113800360E3B6F360C480E3B6F480C550E3B6F16
:10114800550C2C0E3B6F2C0C4C0E3B6F4C0C510E5F
:101158003B6F510C3B0E3B6F3B0C280E3B6F280C32
:10116800340E3B6F340C0A0E3B6F0A0C400E3B6F7B
:10117800400C380E3B6F380C0E0E3B6F0E0C3C0EBD
:101188003B6F3C0C4F0E3B6F4F0C200E3B6F200CFF
:10119800570E3B6F570C2E0E3B6F2E0C450E3B6FB8
:1011A800450C460E3B6F460C240E3B6F240C530E29
:1011B8003B6F530C2A0E3B6F2A0C4A0E3B6F4A0CAE
:1011C800330E3B6F330C590E3B6F590C5A0E3B6F65
:1011D8005A0C430E3B6F430C370E3B6F370C5E0EB9
:1011E8003B6F5E0C150E3B6F150C3F0E3B6F3F0CB3
:1011F800110E3B6F110C2D0E3B6F2D0C540E3B6FD7
:10120800540C1F0E3B6F1F0C490E3B6F490C290EE7
:101218003B6F290C230E3B6F230C4D0E3B6F4D0C7F
:10122800410E3B6F410C0B0E3B6F0B0C350E3B6FA9
:10123800350C5C0E3B6F5C0C1B0E3B6F1B0C3D0EA4
:101248003B6F3D0C4E0E3B6F4E0C0F0E3B6F0F0C61
:10125800170E3B6F170C440E3B6F440C470E3B6F49
:10126800470C2F0E3B6F2F0C560E3B6F560C4B0E38
:101278003B6F4B0C120E3B6F120C2B0E3B6F2B0C63
:10128800520E3B6F520C250E3B6F250C060E3B6F22
:10129800060C090E3B6F090C010E3B6F010C65EC47
:1012A8003CF0506B5FDB700E0101A3DB5EEC33F0AA
:1012B80062DB70C20CF271C20DF272C20EF273C21E
:1012C8000FF202016C6B6C51040D3C0E0101776F3B
:1012D800020E6ADB6C51020D1CDB6C2B040E6C6574
:1012E800F2D76D6B6D51040D680E0101776F020E18
:1012F8005BDB6D51020D0A0E4CDB0BDB6D2B6D5168
:10130800F1E06E6B6E51040D140E0101776F020E41
:101318004BDB6E51020D0C0E3CDBFBDA6E2B090E1B
:101328006E65F0D7760E01013B6F020E3C6FDCEC68
:101338002EF020EE01F07E51D9267F51DA22E0DA34
:101348000A0E010152EC17F066EC36F03B51DF6EE5
:1013580000DB0A0E57EC17F05EEC33F00CDB0201F1
:1013680020EE01F07C51D9267D51DA22C9DA060E29
:10137800010152EC17F066EC36F03B51DF6EE9DA0A
:10138800060E57EC17F05EEC33F0F5DAB9DA180E02
:1013980052EC17F066EC36F03BC170F23CC171F2CA
:1013A8003DC172F23EC173F2020120EE01F07851A4
:1013B800D9267951DA22A4DA0A0E010152EC17F083
:1013C80066EC36F03B51E0DA7651D9267751DA22CD
:1013D800C0DA0A0E010157EC17F05EEC33F03B510E
:1013E800D3DA8051D9268151DA220CC23BF10DC2E1
:1013F8003CF10EC23DF10FC23EF1A00E01013F6F5C
:10140800050E406F416B426B5EEC33F03B29BCDA52
:101418009451D9269551F9DA5E50E0EC41F0B4DAEE
:101428009251D9269351FCDA5E5086EC40F0DF6E7B
:10143800020120EE02F09051D9269151DA22300EA5
:10144800DF6E90C2D9FF91C2DAFFDF8220EE02F090
:101458008E51D9268F51DA22320EDF6E8EC2D9FF15
:101468008FC2DAFFDF8220EE01F08A51D9268B5134
:10147800CCDA5C50E0EC41F087DA8851D926895102
:10148800CFDA5C5086EC40F07FDA8451D92685515A
:10149800BCDA5B50E0EC41F077DA8251D92683510F
:1014A800BFDA5B5086EC40F0DF6E090E0201526F26
:1014B800756B7551F4D982C2DEFF83C2DDFFE5D9B1
:1014C80084C2DEFF85C2DDFFE0D988C2DEFF89C2A3
:1014D800DDFFDBD98AC2DEFF8BC2DDFFD6D992C21F
:1014E800DEFF93C2DDFFD1D994C2DEFF95C2DDFFD6
:1014F800CCD976C2DEFF77C2DDFFC7D978C2DEFF5E
:1015080079C2DDFFC2D97CC2DEFF7DC2DDFFBDD955
:101518007EC2DEFF7FC2DDFF752B060E6F6F51693D
:101528006F51BDD9DECF77F1DDCF78F177C1D9FF23
:1015380078C1DAFFDF803FDA10EE01F08A51E12648
:101548008B51E222E7500101776F020110EE01F0A2
:101558008851E126895147DA77254F6F020110EE4D
:1015680001F08451E1268551E222E7500101786FAC
:10157800020110EE01F08251E126835134DA782518
:10158800506F020110EE01F09451E1269551E222CC
:10159800E7500101796F020110EE01F09251E12646
:1015A800935121DA792587EC37F0DF6E760E4E6F8E
:1015B800020E4F6F30EC26F055DA6FEC41F0020165
:1015C800516F512914E06F516AD910EE01F02FECD8
:1015D80014F051C2E7FFA8D9D7EC40F002015251EC
:1015E8006F1902E16F6B01D06F2B010E506F280E3F
:1015F800FC190CE1FC6B98D9D7EC40F00201525170
:101608006F1902E16F6B8CD76F2B8AD72C0EFC19E0
:1016180009E1FC6B965104E0960502E0966B80D7D1
:10162800962B7ED7290EFC190CE1FC6B7DD9D7ECE3
:1016380040F002016F5103E152C26FF271D76F0798
:101648006FD72A0EFC1901E019D1FC6B746B50514D
:1016580001E100D14FD92BD9B9D931D90201746F21
:101668000C0E746505D060D9D7EC40F0020E60D03E
:1016780074C253F224EE43F012EE00F00B0EDBCFEF
:10168800E3FFE806FCE230D912D99CD918D9020147
:10169800746F74C277F1030E0101771703E11D0E11
:1016A8000201016F7AD903D9CFD909D90201746F20
:1016B80001010CD9D96E020E7A21DA6E0201745139
:1016C800DE5C1BE220EE01F0BFD9AAD9FFD8C4D94D
:1016D80086EC40F059D95651D926575196D9F6D8A3
:1016E800BBD9E0EC41F0DF6E760E416F020E426F1F
:1016F800D7EC40F002016F6BADD081D9D8D899D919
:10170800DED80201746F170E746505D00DD9D7ECB9
:1017180040F0070E0DD07ED9CAD887D9D0D802019B
:10172800746F3B0E746507D0FFD8D7EC40F0090EF4
:1017380002016F6F8FD0746B0101776978690201BC
:101748003AD9DF500101796F7A6B7751792778514F
:101758007A2379C13BF17AC13CF1000E3CBFFF0E00
:101768003D6F3E6F18EC26F09BEC3EF03BC17BF1E1
:101778003CC17CF13DC17DF13EC17EF1020120EE0C
:1017880001F057D965D93BD9D5D857D99BEC3EF04C
:101798003B517B257F6F3C517C21806F3D517D21E2
:1017A800816F3E517E21826F020120EE01F03DD90A
:1017B8004FD930D9BFD83C0E20EC26F09BEC3EF038
:1017C8003B517F250201106F01013C51802102012C
:1017D800116F01013D5181210201126F01013E513A
:1017E80082210201136F10C23BF111C23CF112C2F7
:1017F8003DF113C23EF1640E010120EC26F09BEC92
:101808003EF0E8D8CAD853D81FD959D85B6E020120
:1018180071D84DD8DBD853D85C6E020165D847D84B
:10182800D1D84DD85E6E67EC2FF0961903E096512B
:1018380056EC41F043C049F144C04AF145C04BF170
:1018480046C04CF15BC04DF15CC04EF15EC04FF13B
:10185800A6EC29F00201745101E062D6505102E071
:1018680065EF3CF0FA39E832030B961902E165EFAF
:101878003CF0965156EC41F065EF3CF02B0EFC190C
:1018880001E04ED6FC6B65EF3CF0752B7551020DEF
:10189800540EF324D96E020EF420DA6E1200020DF3
:1018A800540EF324D96E020EF420DA6E1200DA22F6
:1018B800DF500101776F020120EE01F01200DA22F9
:1018C800DF500A0DF3500101772512007769786916
:1018D800020153510101796F7A6B77517927785159
:1018E8007A23000E7925120020EE01F05E51D926E8
:1018F8005F51120020EE01F05A51D9265B511200B7
:1019080070C23BF171C23CF172C23DF173C23EF14B
:101918001200760EF324D96E020EF420DA6E77C127
:10192800DEFF78C1DDFF1200760E0101416F020E65
:10193800426F1200DA22DF50F326000EF422F3CFB2
:101948003BF1F4CF3CF101013CBFFF0E3D6F3E6F10
:10195800120070C23BF171C23CF172C23DF173C218
:101968003EF1120043C03BF144C03CF145C03DF19B
:1019780046C03EF112003BC170F23CC171F23DC15C
:1019880072F23EC173F21200DF6E020120EE01F026
:101998001200F326000EF422000C020120EE01F0E2
:1019A8005651D92657511200786FF3507727F450C3
:1019B80078230201120020EE01F08051D9268151CE
:1019C800DA2212005C51D9265D5112005851D926ED
:1019D800595112003BC143F03CC144F03DC145F0B0
:1019E8003EC146F01200E222E7500A0DF350010111
:1019F80012003F6F170E406F416B426B170C20EEC1
:101A080001F06251D92663511200DA220A0E01014F
:101A18003B6F0A0C20EE01F06651D926675112007F
:101A2800DA220A0E01013B6F0A0C6451D92665516E
:101A380012006051D92661511200100E3F6F0E0E30
:101A4800406F416B426B0E0C5451D9265551120010
:101A5800DA22DF500A0D1200E16E020E7A21E26EE0
:101A6800E7501200090E01013B6F000C65EC3CF0D9
:101A780003018451FC0B0209846FF30E84170101E2
:101A88008351841116E0B0DBDF50030B866FB6DBA1
:101A9800FC0B86190301846FA7DB0101DF30E832F4
:101AA800030B866F86478647A9DBF30B861903016C
:101AB800846FD1C3DBF2D2C3DCF2D3C3DDF2DB0E19
:101AC8000301426F020E436F25EED6F011EE8AF045
:101AD800110EDBCFE3FFE806FCE28A0E446F010E2D
:101AE800456F23EE9DF012EE36F0040EDBCFE3FFD8
:101AF800E806FCE2360E466F020E476F23EEA2F0B0
:101B080012EE3BF0040EDBCFE3FFE806FCE23B0EEF
:101B1800486F020E496F23EEA7F012EE40F0040E54
:101B2800DBCFE3FFE806FCE2400E4A6F020E4B6F84
:101B380023EEACF012EE45F0040EDBCFE3FFE8062F
:101B4800FCE2450E4C6F020E4D6F23EEB1F012EE23
:101B58004AF0040EDBCFE3FFE806FCE24A0E4E6FC4
:101B6800020E4F6F24EE7AF011EEBDF0050EDBCFBA
:101B7800E3FFE806FCE2BD0E506F010E516F23EE45
:101B8800B6F012EE4FF0040EDBCFE3FFE806FCE2FE
:101B98004F0E526F020E536F24EE80F012EE00F0DB
:101BA800050EDBCFE3FFE806FCE2000E546F020EE1
:101BB800556FDB0E566F020E576F8A0E586F010E67
:101BC800596F24EE86F012EE06F0050EDBCFE3FF28
:101BD800E806FCE2060E5A6F020E5B6F24EE8CF0EC
:101BE80012EE0CF0050EDBCFE3FFE806FCE20C0E6C
:101BF8005C6F020E5D6F24EE92F012EE12F0050E8D
:101C0800DBCFE3FFE806FCE2120E5E6F020E5F6FA9
:101C180024EE98F012EE18F0050EDBCFE3FFE8068D
:101C2800FCE2180E606F020E616F24EE9EF012EE59
:101C38001EF0050EDBCFE3FFE806FCE21E0E626F26
:101C4800020E636F24EEA4F012EE24F0050EDBCF33
:101C5800E3FFE806FCE2240E646F020E656F24EED3
:101C6800AAF012EE2AF0050EDBCFE3FFE806FCE24D
:101C78002A0E666F020E676F24EEB0F012EE30F097
:101C8800050EDBCFE3FFE806FCE2300E686F020EBC
:101C9800696FD4C354F2D5C355F2D6C356F2540E65
:101CA8006A6F020E6B6FE0C3DEF2E1C3DFF2DE0E95
:101CB8006C6F020E6D6FE2C3E0F2E3C3E1F2E00E77
:101CC8006E6F020E6F6FE4C3E2F2E5C3E3F2E20E59
:101CD800706F020E716FE6C3E4F2E7C3E5F2E40E3B
:101CE800726F020E736FE8C3E6F2E9C3E7F2E60E1D
:101CF800746F020E756FEAC3E8F2EBC3E9F2E80EFF
:101D0800766F020E776FECC3EAF2EDC3EBF2EA0EE0
:101D1800786F020E796FEEC3ECF2EFC3EDF2EC0EC2
:101D28007A6F020E7B6FF0C3EEF2F1C3EFF2EE0EA4
:101D38007C6F020E7D6F0101855103E11F0E856FD7
:101D480001D085070301856B8551040D030E28DA40
:101D5800FFD985C3DFFF8551040DFAD9DF90030150
:101D68008551040DF5D9DF828551040D15DAF0D9B6
:101D7800DF6A8551040D020E13DAEAD9200EDF6EF0
:101D88008551040D570E0101866F020E876FF350BF
:101D98008627F450872303018551D2D986C1DEFFF7
:101DA80087C1DDFF852B200E8565CED70201D96B53
:101DB8000301866B836B0201F06BF16BF26BF36BC3
:101DC80001018151821123E003017E6B18D00301C8
:101DD800EBD903017E51040D020EE2D9570EF3240C
:101DE800E16E020EF420E26EDFCFE7FF7E51040DB4
:101DF800D3D9AED9010EDF6E7EC386F37E2BD4D93C
:101E0800DF50E5E185510301865D01E2862B030180
:101E1800835120E0F0C23FF1F1C240F1F2C241F13A
:101E2800F3C242F12C0E0101436F010EECD906EC0E
:101E38003AF000090FE00301836BE9D90BE20101D5
:101E480085517ED910EE01F02FEC14F0E75002E135
:101E58000301862B1D0E0201FC65A4D0280EFC612F
:101E6800A1D0FC51030183190DE1020120EE01F01C
:101E7800F451D926F551DA22DF5001E103D0F44BB1
:101E8800F52B1DD0C40EC8D98431E832030B0A0DD6
:101E98000201FC51F326000EF422D890F336F436F2
:101EA80001018651F3268751F422420EF324D96E9C
:101EB800030EF420DA6EDECFF4F2DDCFF5F2020184
:101EC800FC510301831935E00101855139D910EE20
:101ED80001F02FEC14F0E7502CE185510301865DE9
:101EE80003E2835101E0862B0101855129D981D96B
:101EF80085C1F8F212D0FE0E0101866F87690201D2
:101F0800F8512DD90201F8513BD9F85119D910EEE1
:101F180003F02FEC14F0E72AF8070201F851030147
:101F2800865DE9E386510CD980C3DEFF81C3DDFFFE
:101F380004D00301865104D95CD9F4C2D9FFF5C293
:101F4800DAFF3AD9DFCFE7FF8451030BE80602E155
:101F5800865104E08451030B020A08E120EE02F0E6
:101F68003ED92AD9E75038EC20F0DF6E030120EE85
:101F780003F035D986C3DFFF20EE01F030D9010E1A
:101F8800DF6EFCC283F30201FC6B010E27EC43F009
:101F9800BAEC43F03BC1F0F23CC1F1F23DC1F2F2C0
:101FA8003EC1F3F2000E01013B6F030E3C6F200EA1
:101FB8003D6F87EC41F003018651C2D8DECF86F130
:101FC800DDCF87F186C1D9FF87C1DAFFDF80000E38
:101FD8000101456F030E466F200E476F486BCBEC2F
:101FE80037F0280E0201FC1914E1FC6B10D901E34B
:101FF8000ED78651A5D810EE01F02FEC14F0E7505B
:1020080001E105D7862B000E27EC43F00301836B13
:10201800FED6290EFC190AE1FC6B0301865101E189
:10202800F6D68607000E27EC43F0F0D72A0EFC19E7
:1020380024E1FC6B0301826B200E826501D013D072
:1020480082517ED810EE01F02FEC14F0E7500BE02F
:10205800825176D810EE02F02FEC14F0B4D8E7CF06
:10206800DFFF822BE9D7AFD8DF6A65EC3CF09C0E26
:102078000101816F010E826F12002B0EFC1907E11E
:10208800FC6B65EC3CF00101816B826B12002C0E3D
:10209800FC1949E1FC6B0301835101E0862B865151
:1020A80001E1B5D6FE0EB8D8865159D8DECFF6F282
:1020B800DDCFF7F2020120EE01F08CD8DF6A20EEC6
:1020C80002F088D8200EDF6E20EE03F083D81F0EB2
:1020D800DF6E030186057F6F1F0E7F6501D01DD05F
:1020E8007F510101866F876BD89086378737020E3C
:1020F8008627000E8723000E8625D96E030E8721BA
:10210800DA6E03017F513CD87F511AD810EE03F0E4
:102118002FEC14F0E7067F2BDFD7F6C23EF3F7C2A9
:102128003FF3860773D72D0EFC1901E070D6FC6BC0
:10213800840E01014E6F030E4F6F33EC24F067D607
:10214800020D000EF324D96E030EF420DA6E12008D
:10215800570EF324D96E020EF420DA6E1200010134
:10216800886F896BD8908837893786518827875137
:102178008923000E8825D96E030E8921DA6E120094
:10218800020D000EF324E16E030EF420E26EDECFA2
:10219800E6FFDDCFE5FF1200F32A000EF422000C63
:1021A800F326000EF422000C7E5101018125D96E20
:1021B800000E8221DA6E120010EE02F08051E12644
:1021C8008151E22212009C0E8225D96EDA6A010E34
:1021D800DA221200F651D926F751DA22120080517C
:1021E800D9268151DA22120083C1D9FF84C1DAFFCE
:1021F8001200DECF80F3DDCF81F31200030184519A
:10220800010186191200446F456B466B000C0101F1
:1022180085510301865D12000101866F87690301FC
:102228001200800E01015A1907E15B0505E158C14A
:102238001EF259C11FF204D05AC11EF25BC11FF22F
:10224800020169DB160E0101486F020E496F720E1A
:102258004A6F020E4B6F1EC24CF11FC24DF141EC8A
:1022680037F00201206B722909E1732907E174290B
:1022780005E1752903E14FDB010E206F72C23BF1C6
:1022880073C23CF174C23DF175C23EF13A0E0101D0
:102298003F6F020E406F3C0E416F020E426F6B0E95
:1022A800436F020E446F6C0E456F020E466FD2EC00
:1022B80038F065EC3CF0010E6D6F786B0A0E7865AE
:1022C80001D032D07851040D030E08DBE9DA78C268
:1022D800DFFF7851040DF32A000EF422E1DADF6AF9
:1022E8007851040D020EFADADBDA300EDF6E78511F
:1022F800040DD6DADF907851040DD2DADF927851E6
:10230800040D3E0E01015C6F020E5D6FF3505C27F9
:10231800F4505D2302017851020D000EF324D96EAA
:10232800020EF2DA782BCAD73A0E486F46832D0E82
:10233800546F52833A0E606F5E83796B79517FDAFE
:102348003E0EDE6E020E83DA7ADA420EDE6E020E80
:102358007EDA75DA4A0EDE6E020E79DA70DA4E0E21
:10236800DE6E020E74DA6BDA560EDE6E020E6FDA6D
:1023780066DA5A0EDE6E020E6ADA61DA620EDE6E16
:10238800020E65DA5CDA660EDE6E020EDD6E792B01
:102398002B0EFC1904E1FC6B65EC3CF0000C2A0EDA
:1023A800FC1901E028D2FC6B3C5101015C6F020171
:1023B8003D5101015D6F5E6B5F6B0B0ED8905C3712
:1023C8005D375E375F37E82EF9D76BC260F1616B16
:1023D800626B636B160ED89060376137623763376C
:1023E800E82EF9D76CC264F1656B666B676B1D0EDE
:1023F800D8906437653766376737E82EF9D7605164
:102408006425686F61516521696F625166216A6F41
:10241800635167216B6F5C5168256C6F5D51692151
:102428006D6F5E516A216E6F5F516B216F6F020194
:102438003A5101016C250201726F3B5101016D2176
:102448000201736F000E01016E210201746F000E0C
:1024580001016F210201756F160E0101486F020E0E
:10246800496F720E4A6F020E4B6F58C14CF159C139
:102478004DF1F3EC3DF065EC3CF0010C3CC27AF216
:102488003DC27BF222DAB4EC3FF03B510201676FA8
:10249800FED9E7EC3EF0F1D9060E3D6FB4EC3FF003
:1024A8003B510201636F7AC23BF108DAE7EC3EF078
:1024B800E4D90A0E3D6FB4EC3FF03B5102015B6F6B
:1024C800E6D9E7EC3EF03B510201576F3AC27AF287
:1024D8003BC27BF2FAD9B4EC3FF03B5102014F6F9B
:1024E800D6D9E7EC3EF0C9D9060E3D6FB4EC3FF003
:1024F8003B5102014B6F7AC23BF1E0D9E7EC3EF069
:10250800BCD90A0E3D6FB4EC3FF03B510201436F5A
:10251800BED9E7EC3EF03B5102013F6F6E6B070EF0
:102528006E6501D00FD06E518AD910EE02F093D9A2
:102538006E5185D9F7EC26F098EC3CF0E76E020175
:102548006E2BEDD7CFD9CBEC37F02D0E0201FC194D
:1025580003E0200501E057D1FC6B206B776BCCD9E9
:1025680087EC41F0020177516AD9DECF5CF1DDCF0B
:102578005DF15CC1D9FF5DC1DAFFDF806F6B070ECB
:102588006F6501D00FD06F515AD910EE02F063D9A0
:102598006F5155D9F7EC26F098EC3CF0E76E020144
:1025A8006F2BEDD79FD9CBEC37F02B0E0201FC191E
:1025B80004E1FC6B65EC3CF026D12A0EFC1901E025
:1025C800ABD0FC6B010E6A6F396B6FD03951040DBB
:1025D800F3CF71F2715133D910EE01F03CD9E750C5
:1025E800216F715164D9020E3FD93AD934D9E750D5
:1025F8000201226F71515BD9040E36D931D92BD91A
:10260800E7500201236F715152D9060E2DD928D9EE
:1026180022D9E7500201246F21510A0D225180D995
:10262800F4BE08D0F45003E1180EF35C03E371C262
:1026380077F20ED023510A0D245172D9F4BE0AD074
:10264800F45003E13C0EF35C05E37151020F776F20
:102658006A6B2AD021C23BF101013C6B020E3E6F2E
:10266800580E3D6F07EC42F0020122513C0DF3CFAA
:102678005CF1F4CF5DF123510A0DF35001015C27A1
:10268800F4505D233B515C273C515D2302012451EA
:1026980001015C27000E5D2302013951020D250E50
:1026A800F324D96E020E30D9392B020E396102D0CB
:1026B8006A518CE16A5122E02551275D265128593B
:1026C8001DE2706B030E706501D015D07051B7D83C
:1026D80010EE01F0C0D87051EAD8080EC5D8DA6EED
:1026E80000EE01F0DE50E926DD50EA22E7CFEFFFE9
:1026F8000201702BE7D7040E776F6A6B6A511CE0F2
:10270800FBD887EC41F025C23AF226C23BF227C239
:102718003CF228C23DF277D0280EFC1906E1FC6B8A
:10272800070E776109D0772B07D0290EFC1904E131
:10273800FC6B775101E0770736EC0DF06FEC41F058
:102748000201766F762901E10AD7775178D810EE21
:1027580001F081D876C2E7FF070E776100D7772BA3
:10276800FED6080E0101456F090E466F02016B5136
:1027780031EC3FF0070E3B6F010E6FEC41F00201A8
:10278800766F762906E0765124EC41F002016B1B46
:102798003AD01E0EFC1903E1FC6B6B6B34D02D0E86
:1027A800FC1931E1FC6B7F0E6B6F2DD0040E01011B
:1027B800456F080E466F02016C5131EC3FF0030E75
:1027C8003B6F010E6FEC41F00201766F762906E04F
:1027D800765124EC41F002016C1B15D01E0EFC1939
:1027E80003E1FC6B6C6B0FD02D0EFC190CE1FC6B3C
:1027F800070E6C6F08D06D51010A01E13FD6030A3C
:10280800B0E0010AD3E0280E0201FC190AE1FC6BD2
:1028180065EC3CF0030E6D1902E1010E0CD06D2B36
:10282800B7D5290EFC1901E0B3D5FC6B65EC3CF07B
:102838006D0503E1030E6D6FABD56D07A9D5020DCC
:10284800290EF324D96E020EF420DA6E1200DD6E22
:10285800792B79511200DE50E126DD50E222120078
:10286800DA6E10EE01F012005C27000E5D23290ECF
:102878005C25D96E020E5D2112003BC17AF23CC183
:102888007BF27AC23BF17BC23CF13E6B12007AC20A
:102898003BF17BC23CF101013E6B0A0E3D6F0A0C15
:1028A8003E0EF324D96E020EF420DA6E12000101F6
:1028B8005C6F5D6BD8905C375D3712007BC23CF172
:1028C80001013E6B060E3D6F060C7AC23BF17BC2DE
:1028D8003CF101013E6B0A0E3D6F0A0CF326000E17
:1028E800F422000C000E0101456F020E466F0B0E1C
:1028F800476F050E486F050C290E01013B6F020E4C
:102908003C6F080E3D6F080CF420DA6E5CC1DEFFE8
:102918005DC1DDFF1200726B736B746B756B120017
:10292800F326000EF422000CFAA703D0FA9765EC00
:102938003CF0200EFC191AE1800EFE1904E1FF0597
:1029480002E1F9A113D0FC6B65EC3CF0F9B104D0BD
:102958000101A46BA42B02D00101A46B0201F9515F
:102968000101A419FE0BA4190201F96F2D0EFC191F
:102978000EE1800EFE1902E1FF0509E0F9A107D07A
:10298800FC6BFEC2A2F1FFC2A3F129EC35F0F9B34A
:102998000DD01FEC24F0ADDAD7EC28F0B0DA020144
:1029A800F9A103D0F99165EC3CF0F983800EFE198A
:1029B80002E1FF0502E0F9B1DED05450FD11C86F05
:1029C800C8512AE0C0C3B7F2C1C3B8F2C2C3B9F252
:1029D800C3C3BAF2010EC36FC851010BAB6FD890D5
:1029E800C833AB0509E1B8C2B7F2B9C2B8F2C351EE
:1029F80098EC3CF00201B96FC32B030EC365ECD70A
:102A0800B70E0101456F020E466F476B0D0E486FFA
:102A1800010E496F19EC36F024EE59F012EE91F0E0
:102A2800080EDBCFE3FFE806FCE2B6EC0CF0640E20
:102A3800010139DA5EEC33F0FFD90A0E2FDA66ECC1
:102A480036F03B5198EC3CF00201986F0FDA0A0E11
:102A5800010129DA5EEC33F0EFD9060E1FDA66ECD5
:102A680036F03B5198EC3CF00201976FFFD9060E07
:102A7800010119DA5EEC33F0DFD90A0E0FDA66ECE1
:102A880036F03B5198EC3CF00201956FEFD90A0EF5
:102A9800010109DA5EEC33F0CFD9060EFFD966ECF6
:102AA80036F03B5198EC3CF00201946FDFD9060EEA
:102AB8000101F9D95EEC33F03BC1CDF23CC1CEF255
:102AC8003DC1CFF23EC1D0F2D1D9180EECD95EEC9F
:102AD80033F03B290201AC6FC0D9180E0101DED9D1
:102AE80066EC36F03BC1CDF23CC1CEF23DC1CFF22F
:102AF8003EC1D0F2B2D90A0ED1D966EC36F03B51BC
:102B080098EC3CF00201926FB1D90A0E0101CBD9C1
:102B18005EEC33F03B5198EC3CF00201916F54505D
:102B2800FD11C86F070EC81903E0B06B050E02D07F
:102B3800B06B040EAF6F910E0101456F020E466F28
:102B4800476BAFC248F1496B19EC36F0070E02012A
:102B5800C81903E0B26B020E02D0B26B010EB16F5E
:102B6800AC5150EC39F012EC27F0476BB1C248F188
:102B7800496B19EC36F00201F9B9F9B105D0020E2A
:102B88000101456FFE0E54D1800EFE1903E1FF05C9
:102B980001E145D125EEE8F012EE9AF0100EDBCFF8
:102BA800E3FFE806FCE2070E9A6F010EB56FF9A184
:102BB80003D0B56BF10E9F6FBE6BBF6BC06BC16B63
:102BC8007C0E0101486F020E496FBE0E4A6F020E5D
:102BD8004B6FFEC24CF1FFC24DF141EC37F0BEC263
:102BE8003BF1BFC23CF1C0C23DF1C1C23EF1B30EE0
:102BF8003F6F020E406FC90E416F020E426FB60E54
:102C0800436F020E446FC20E456F020E466FD2EC40
:102C180038F0FBC349F1FCC34AF1FDC34BF1FEC3D5
:102C28004CF1CB0E4D6F020E4E6FBD0E4F6F020E64
:102C3800506FC9EC3BF058D945D9B4EC3FF03B5143
:102C480098EC3CF00201A56F38D932D9E7EC3EF098
:102C58005BD94AD93E6B060E3D6FB4EC3FF03B5151
:102C680098EC3CF00201A46F28D901013E6B060ED6
:102C78003D6FE7EC3EF048D93A0E0201A36F34D914
:102C8800010120D9B4EC3FF03B5198EC3CF0020133
:102C9800A26F13D90DD9E7EC3EF03B5198EC3CF00C
:102CA8000201A16F010EC46F030EC46501D012D0DA
:102CB800C251010BAD6FD890C233AD0509E1A8C26E
:102CC800A7F2A9C2A8F2C45198EC3CF00201A96F7E
:102CD800C42BEAD7BD5150EC39F03BC1BBF23CC123
:102CE800BCF2BBC2F6FFBCC2F7FF0800F5CF9CF2EE
:102CF800010E0201BB250101A46F000E0201BC21D7
:102D08000101A56FA4C1F6FFA5C1F7FF0800F5CF23
:102D18009DF29A0E456F020E466FB5C247F1486B99
:102D2800496B19EC36F00201F9A1120024EE12F0F9
:102D380012EE84F00C0EDBCFE3FFE806FCE2C76B73
:102D48000C0EC66FC6079BD80A0E3D6FB4EC3FF059
:102D58003B5198EC3CF0C1D80A0E3D6FE7EC3EF0D1
:102D6800B5D88DD8060E3D6FB4EC3FF03B5198ECCA
:102D78003CF0B3D8060E3D6FE7EC3EF0A7D8D8A0DC
:102D8800C707C6077CD80A0E3D6FB4EC3FF03B512D
:102D980098EC3CF0DF6E0201C607D8A0C707840E86
:102DA800C625D96E020EC721DA6EC9C23BF1CAC266
:102DB8003CF17ED8E7EC3EF03B5198EC3CF0DF6EFE
:102DC800FEC2A4F1FFC2A5F1D890A533A433D890D0
:102DD800A533A433D890A533A433A4290201C56F21
:102DE8000A0E01013B6F0201C551E0EC41F098EC7D
:102DF8003CF00201AE6F85C286F2AEC285F20A0EC1
:102E080001013B6F0201C55186EC40F00201C56F1C
:102E1800C551E6E1840E0101456F020E09D0F9A102
:102E280003D065EC3CF0F991E00E0101456FFD0E11
:102E380013EC1EF019EF36F03BC1CDF23CC1CEF2D7
:102E48003DC1CFF23EC1D0F2CDC23BF1CEC23CF182
:102E5800CFC23DF1D0C23EF11200CDC23BF1CEC28D
:102E68003CF1CFC23DF1D0C23EF11200CDC23BF1E0
:102E7800CEC23CF1CFC23DF1D0C23EF11200D8A083
:102E8800C707840EC625D96E020EC721DA6EC9C2DD
:102E98003BF1CAC23CF101013E6B12003F6F406B2F
:102EA800416B426B12003F6F406B416B426B1200EB
:102EB80001013E6B0A0E3D6F0A0CCBC23BF1CCC23E
:102EC8003CF112003E6B0A0E3D6F0A0C3BC1C9F281
:102ED8003CC1CAF20201C6071200DF6EC9C23BF14B
:102EE800CAC23CF13E6B1200CBC23BF1CCC23CF1F2
:102EF8001200FB0E0101586F030E596F120058C1E2
:102F0800FEF259C1FFF212003BC1CBF23CC1CCF238
:102F180012000201FAA51200FA95FBA1120043DA89
:102F28002ADA76EC2CF0000901E01200C10E256EB9
:102F3800FF0E21DA76EC2CF0000901E012003B0EBE
:102F4800256EFC0E266E72EC43F023C027F024C0D9
:102F580028F02DDA76EC2CF0000901E1E5D012DA40
:102F6800090E1F6ECCEC43F00001A56F0BDA080EBA
:102F78001F6ECCEC43F028DA5E6E04DA0C0E1F6E7E
:102F8800CCEC43F00001A56FFDD90B0E1F6ECCEC05
:102F980043F01ADA5C6EF6D90F0E1F6ECCEC43F0D4
:102FA8000001A56FEFD90E0E1F6ECCEC43F00CDAC2
:102FB8005B6E180E1F6EE6D9CCEC43F00001A56FCE
:102FC800170E1F6EDFD9CCEC43F00A0D0001A55196
:102FD800F324A66F000EF420A76FA86BA7BFA8075D
:102FE800A851A96FAA69AB695BC031F05CC030F029
:102FF8005E500FEC38F00001AC6FAD6BAA51AC27F6
:10300800AB51AD23ACC036F0ADC037F0000E37BEC3
:10301800FF0E386E396E800E3A6E510E3B6E010E01
:103028003C6E3D6AC1EC3EF036C0AEF037C0AFF042
:1030380038C0B0F039C0B1F0110E1F6EA3D9CCEC76
:1030480043F00A0D120E1F6E9DD9CCEC43F09FD9A8
:10305800100E3A6E0E0E3B6E3C6A3D6AC1EC3EF0B5
:1030680036500001AE25B26F3750AF21B36F3850DC
:10307800B021B46F3950B121B56F140E1F6E82D9CB
:10308800CCEC43F00A0D150E1F6E7CD9CCEC43F046
:103098007ED93C0EA8D9C1EC3EF036500001B225CD
:1030A800B66F3750B321B76F3850B421B86F395065
:1030B800B521B96FA651B6250101306F0001A7519E
:1030C800B7210101316F0001A851B8210101326F08
:1030D8000001A951B9210101336F30C136F031C166
:1030E80037F032C138F033C139F0640E7CD9C1EC05
:1030F8003EF036C034F137C035F138C036F139C04A
:1031080037F134C12AF035C12BF036C12CF037C164
:103118002DF078EC34F034C143F035C144F036C1B9
:1031280045F037C146F01200170E256EFC0E266ECC
:1031380063EC43F023C027F024C028F038D976EC9C
:103148002CF0000964E0210E1C6E010E1D6E1F6A32
:103158000B0E1E6E206A79EC42F001013A6B0B0EE1
:103168003A25D96EDA6A050EDA22210E3A25E16E81
:10317800E26A010EE222DFCFE7FF3A2B090E3A6539
:10318800EED7210E2D6E010E2E6EBCEC33F02DC045
:1031980038F12EC039F101013851391122E11ED917
:1031A8001E6A08EC43F00201FA91000E1C6E010E33
:1031B8001D6E1F6A210E1E6E206A79EC42F009D935
:1031C800920E1E6EFD0E1F6E74EC3EF002D9210E9B
:1031D8001E6E010E1F6E74EC3EF0000E1C6E010E8A
:1031E800B9D0CA0E1C6EFF0E1D6E1E6A08EC43F0A5
:1031F8000201FA81E00E1C6E040E1D6E110E010113
:1032080038251E6E000E39211F6EF2EF3FF08C0E2E
:10321800256EFC0E266E54EC43F023C027F024C024
:1032280028F0C5D876EC2CF0000965E0F4C4ECF081
:103238000201FAA958D0340E0001EC1902E1546ACF
:10324800D7D0370EEC1902E15480D2D0380EEC19E1
:1032580002E15482CDD0390EEC1902E15484C8D071
:10326800300EEC1907E10201F989546AA4D86AEC16
:1032780040F0BED0350EEC1906E10201F999FA8743
:103288009AD86AEF40F0230EEC19D8A41200020174
:10329800FB83FA91A3D8010E1E6E08EC43F0C3EC31
:1032A80043F01CC02CF11DC02DF11EC02EF11FC013
:1032B8002FF179D860D876EC2CF00009D8A4120048
:1032C8002CC120F02DC121F02EC122F02FC123F0F6
:1032D800640E246E000E256A266A276AB9EC3AF055
:1032E8000009E7E012002A0E0001EC19D8A4120028
:1032F8000201FA891200770E256EFC0E3CD876EC96
:103308002CF0000904E00201FA91FA9912009A0ED1
:10331800256EFC0E30D876EC2CF00009F4E1820E14
:10332800256EFC0E28D876EC2CF00009ECE16B0E2B
:10333800256EFC0E20D876EC2CF00009E4E1940E02
:10334800256EFC0E18D876EC2CF0000906E00F0E5E
:103358001C6EFF0E1D6E4AEF2EF0590E256EFC0EE8
:103368000AD876EC2CF00009D8B412000201FA91C0
:10337800FA99F99F1200266E276A286A2A6A020EAD
:10338800296E020CC20E1D6E040E1E6E1200F3266C
:10339800000EF422F3CF36F0F4CF37F037BEFF0E2D
:1033A800386E396E12009F0E256EFC0E12002A6AC6
:1033B800020E296E020C030E1D6EFC0E1C6E000E12
:1033C800F9B9010E1E6E12000A0DF3500001A52571
:1033D8001200000E1C6E010E1D6E1200B70E1C6E40
:1033E800FF0E1D6E12003A6E3B6A3C6A3D6A12007F
:1033F8000201FA871200000E3B6F020E3C6F3E6B13
:10340800490E3D6F3F6B2DEC42F0000E3E6F020EF1
:103418003F6FD40E406FFE0E416F4CEC3EF0020140
:10342800F9B931D0E1D9940E406FFF0E416F4CECE1
:103438003EF023EE8EF012EE64F0040EDBCFE3FFD5
:10344800E806FCE2F8D9936FD8909233FD519215B3
:1034580009E0D0D99351BAD9D9D90201935198EC3E
:103468003CF005D0C7D99351B1D9D0D92D0EDF6E14
:10347800020193079351E8E1B7D9640E406F020E39
:10348800416F4CEC3EF0B0D98D0E406FFF0E416F8E
:103498004CEC3EF023EE93F012EE69F0040EDBCF15
:1034A800E3FFE806FCE2C7D9946FD89092335450F2
:1034B800921509E09FD9945189D9AFD90201945145
:1034C80098EC3CF005D096D9945180D9A6D92D0E08
:1034D800DF6E020194079451E8E186D9690E406FC6
:1034E800020E416F4CEC3EF00201F9A907D07CD9DD
:1034F800CE0E406FFD0E416F4CEC3EF00201F9B963
:1035080058D143C08EF244C08FF245C090F246C0F5
:1035180091F295D9D7EC28F0A1D9800E020188192B
:103528000AE1890508E18E6B8F6B906B916B87D9E7
:10353800D7EC28F093D9800E020188190AE1890591
:1035480008E152D97E0E406FFD0E416F4CEC3EF003
:1035580030D14AD9C70E406FFE0E416F4CEC3EF099
:1035680025EEC3F012EE51F0120EDBCFE3FFE806B2
:10357800FCE2510E01013B6F020E3C6F3E6B130ED5
:103588003D6F3F6B2DEC42F00201846B856B866BBF
:10359800876B490E0101486F020E496F840E4A6F0E
:1035A800020E4B6F88C24CF189C24DF141EC37F0E5
:1035B80084C23BF185C23CF186C23DF187C23EF12F
:1035C8007F0E3F6F020E406F8A0E416F020E426FF0
:1035D800810E436F020E446F820E456F020E466FD6
:1035E800D2EC38F08EC249F18FC24AF190C24BF149
:1035F80091C24CF18C0E4D6F020E4E6F830E4F6FC1
:10360800020E506FC9EC3BF0EDC073F2EEC074F2DD
:10361800EFC075F28CC23BF18DC23CF12DD9B4ECF0
:103628003FF0EDD8730E4D6F020E14D96CEC2FF0ED
:103638008CC23BF18DC23CF11BD9E7EC3EF03BC19B
:103648008CF23CC18DF2C8C376F2C9C377F2CAC303
:1036580078F28CC249F18DC24AF14B6B4C6B760EF5
:103668004D6F020EF7D86CEC2FF0CBC379F2CCC3B8
:103678007AF2CDC37BF28AC23BF18BC23CF1FCD813
:10368800B4EC3FF0BCD8790E4D6F020EE3D86CEC69
:103698002FF08AC23BF18BC23CF1EAD8E7EC3EF04E
:1036A8003BC18AF23CC18BF2CEC37CF2CFC37DF220
:1036B800D0C37EF28AC249F18BC24AF14B6B4C6B84
:1036C8007C0E4D6F020EC6D86CEC2FF0510E3E6F7B
:1036D800020E3F6F0201835150EC39F03BC140F1BB
:1036E8003CC141F14CEC3EF079D8BDD84CEC3EF0F1
:1036F80075D8760E406F020E416F4CEC3EF06ED8D6
:10370800A4D84CEC3EF06AD8730E406F020E416F9D
:103718004CEC3EF063D8EB0E406FFF0E416F4CEC63
:103728003EF05CD87C0E406F020E416F4CEC3EF0D0
:1037380055D88BD84CEC3EF051D8790E406F020E1C
:10374800416F4CEC3EF04AD88ED84CEC3EF023EE5C
:1037580098F012EE6EF0040EDBCFE3FFE806FCE211
:103768006AD8956F955117E0D89092338251921587
:1037780009E040D895512AD857D80201955198ECBC
:103788003CF005D037D8955121D84ED82D0EDF6E94
:1037980002019507E7D722D86E0E406F020E416FDF
:1037A8004CEC3EF021D8510E406F020E416F4CECAC
:1037B8003EF01AD87E0E406FFF0E416F4CEC3EF083
:1037C800000E0101836F020E846F12000101876FE2
:1037D800886B85518727865188231200510E010175
:1037E8003E6F020E3F6F1200000E01013E6F020E87
:1037F8003F6F1200010185698669020112003BC111
:1038080049F13CC14AF14B6B4C6B1200640E8725A1
:10381800D96E020E8821DA6E1200690E8725D96EDC
:10382800020E8821DA6E12006E0E8725D96E020EFE
:103838008821DA6E1200080E0201926F030C8E0EB8
:103848000101586F020E596F1200BF0E406FFF0E34
:10385800416F12004E6F020E4F6F020C58C188F272
:1038680059C189F21200740E406FFF0E416F1200A9
:103878003E6B3C0E3D6F3C0C3E6B3C0E3D6F3C0C72
:1038880065EC3CF0FED93A6F356B0A01355116E10B
:103898003D0E0101486F0A0E496F3ACA4AF13BCA08
:1038A8004BF195EC3BF00A014D6B5B6B010E356FEC
:1038B8005D0504E03D6B4D6B4E6B5B6BD7C32BFA1C
:1038C800D8C32CFAD9C32DFA800E3A2501013B6FD3
:1038D800FE0E0A013B2101013C6F3E6B210E3D6F3C
:1038E800E7EC3EF03B2B000E3C233BC149F13CC1C9
:1038F8004AF14B6B4C6B2B0E4D6F0A0ED3EC28F034
:103908006CEC2FF02B0E456F0A0E97D919EC36F098
:103918000A015D050FE13D0E0101456F0A0E94D9BC
:1039280019EC36F04E0E0101456F0A0E78D919ECE4
:1039380036F00ED0F10E0101456FFD0E85D919EC58
:1039480036F0E30E0101456FFD0E69D919EC36F02A
:103958002D0E0201FC1901E0E6D0FC6B24EE4FF0BD
:103968001AEE00F0090EDBCFE3FFE806FCE2000EDA
:1039780001014E6F0A0E4F6F506B25EC2BF00A01B8
:10398800376F37056FE165EC3CF00A013651FC0BE7
:103998000109366F3651F30B0409366F5D0503E0F4
:1039A8002E6B2F6B04D03D0E2E6F0A0E2F6F2ECA72
:1039B80081F12FCA82F153D9100E856F3AEC0DF0C0
:1039C80034D901E162D73C6B0AD017D93D0E3C25AA
:1039D800E16EE26A0A0EE222DFCFE7FF3C2B0DD947
:1039E800DF50F3E13D0E3C25D96EDA6A0A0EDA2281
:1039F800DF6A3651F30B0809366F5D0503E0306B5B
:103A0800316B04D04E0E306F0A0E316F30CA81F11F
:103A180031CA82F124D90D0E856F3AEC0DF005D923
:103A280001E132D73C6B0AD0E8D8EED8E16E0A0E35
:103A3800C421E26EDFCFE7FF0A013C2BDED8DF505E
:103A4800F3E1E2D8D96E0A0EC421DA6EDF6A010EFC
:103A58000A015D6F3D0E0101486F0A0EFAD861EC4C
:103A68003BF013D7020E371921E13251F30B080945
:103A7800326F0101816B826B320E836F0A0E846F85
:103A88000D0E856F3AEC0DF081C133FA82C134FA1C
:103A98000A013351341101E1F8D633CA3EF134CA70
:103AA8003FF1B3EC36F00201FA81EFD6030E371975
:103AB80019E15D0501E0E9D6540E01014E6FFE0ED5
:103AC8004F6F2FEC40F0000901E1DFD60A0E01012B
:103AD800486F0A0EBED861EC3BF00A01356B65EC05
:103AE8003CF0D3D6040E371901E0CFD6000E010101
:103AF8004E6FFD0E4F6F2FEC40F0000901E1C5D667
:103B0800BAD8B5EC2DF0010E0101516F800E506F3F
:103B1800030E536F8F0E526F546BFBEC36F0A5D823
:103B2800B5EC2DF0B2D61F0EFC1926E1FC6BFAA1FC
:103B380009D0CA0E01013B6FFF0E3C6F3D6BE8ECEC
:103B480042F0A3D60A015D0501E09FD6130E0101DC
:103B58004E6FFE0E4F6F2FEC40F0000901E195D635
:103B68000A015D0501E091D64E0E01013E6F0A0E75
:103B78003F6FB3EC36F097D7210EFC190DE1FC6BC3
:103B8800B70E01013B6FFF0E3C6F3D6BE8EC42F056
:103B98000201FA91FA9979D6280EFC190EE1FC6B0C
:103BA8006F0E0A013A5D030E3B5905E2210E3A27D2
:103BB800000E3B2392D765D812D0290EFC1911E1CB
:103BC800FC6B810E0A013A5D010E3B5905E3210E9B
:103BD8003A5F000E3B5B81D7030E3B6F6F0E3A6F67
:103BE8007CD72B0EFC1903E1FC6B65EF3CF01E0E35
:103BF800FC1901E04AD6FC6BDED73C513825D96E5A
:103C0800000E3921DA6E12003C510101C36FC46BFA
:103C1800110EC327000EC4233D0EC3251200466FA4
:103C2800010E476F486B496B010C81C138FA82C19C
:103C380039FA0A01385139111200466F010E476FDF
:103C48000E0E486F496B0E0C466F476B486B496BFD
:103C58001200496F3ACA4AF13BCA4BF11200360EBC
:103C68000101836F0A0E846F1200760E01013B6F0B
:103C7800FF0E3C6F1200BA0E01013B6FFD0E3C6F48
:103C88001200010E0A013B6F800C1C6E1C50070AC3
:103C9800D8B4ED0C270AD8B4200C010AD8B4210CEA
:103CA800030AD8B4220C010AD8B4230C070AD8B4E2
:103CB800240C010AD8B4250C030AD8B4260C0E0A21
:103CC800D8B4280C010AD8B4290C030AD8B42A0C91
:103CD800010AD8B42B0C070AD8B42C0C010AD8B4A2
:103CE8002D0C030AD8B42E0C010AD8B42F0C1F0AC5
:103CF800D8B4300C010AD8B4310C030AD8B4320C49
:103D0800010AD8B4330C070AD8B4340C010AD8B461
:103D1800350C030AD8B4360C010AD8B4370C0F0A8C
:103D2800D8B4380C010AD8B4390C030AD8B43A0C00
:103D3800010AD8B43B0C070AD8B43C0C010AD8B421
:103D48003D0C030AD8B43E0C010AD8B43F0C7F0AD4
:103D5800D8B4400C010AD8B4410C030AD8B4420CB8
:103D6800010AD8B4430C070AD8B4440C010AD8B4E1
:103D7800450C030AD8B4460C010AD8B4470C0F0AFC
:103D8800D8B4480C010AD8B4490C030AD8B44A0C70
:103D9800010AD8B44B0C070AD8B44C0C010AD8B4A1
:103DA8004D0C030AD8B44E0C010AD8B44F0C1F0AA4
:103DB800D8B4500C010AD8B4510C030AD8B4520C28
:103DC800010AD8B4530C070AD8B4540C010AD8B461
:103DD800550C030AD8B4560C010AD8B4570C0F0A6C
:103DE800D8B4580C010AD8B4590C030AD8B45A0CE0
:103DF800010AD8B45B0C070AD8B42F0C010AD8B44E
:103E08005D0C030AD8B45E0C010AD8B45F0C3F0AF3
:103E1800D8B4600C010AD8B4610C030AD8B4620C97
:103E2800010AD8B4630C070AD8B4640C010AD8B4E0
:103E3800650C030AD8B4660C010AD8B4670C0F0ADB
:103E4800D8B4680C010AD8B4690C030AD8B46A0C4F
:103E5800010AD8B46B0C070AD8B46C0C010AD8B4A0
:103E68006D0C030AD8B46E0C010AD8B46F0C1F0A83
:103E7800D8B4700C010AD8B4710C030AD8B4720C07
:103E8800010AD8B4730C070AD8B4740C010AD8B460
:103E9800750C030AD8B4760C010AD8B4770C0F0A4B
:103EA800D8B4780C010AD8B4790C030AD8B47A0CBF
:103EB800040AD8B4E90CEC0AD8B4270C050AD8B41B
:103EC8002D0C3F0AD8B4A20C030AD8B4C80C1B0A9C
:103ED800D8B4EF0C080AD8B4B50C010AD8B4CC0C85
:103EE800020AD8B4C90C7B0AD8B4410C010AD8B468
:103EF800A00C030AD8B4420C010AD8B4A10C070AD2
:103F0800D8B4E00C010AD8B4450C030AD8B4A30C01
:103F1800010AD8B4A40C0F0AD8B4A50C010AD8B465
:103F2800A60C030AD8B44B0C010AD8B4A70C070A8C
:103F3800D8B44D0C010AD8B4480C030AD8B44F0CB5
:103F4800010AD8B4A80C1F0AD8B4500C010AD8B476
:103F5800430C030AD8B4540C010AD8B4A90C070AB4
:103F6800D8B4AA0C010AD8B4580C030AD8B4E10C86
:103F7800010AD8B4AB0C0F0AD8B4AC0C010AD8B4F7
:103F8800E20C030AD8B4AD0C010AD8B4AE0C070A87
:103F9800D8B4C40C010AD8B4AF0C030AD8B4B00C16
:103FA800010AD8B4B10C3F0AD8B4610C010AD8B4DC
:103FB800B20C030AD8B4B30C010AD8B4B40C070A7B
:103FC800D8B4E30C010AD8B4650C030AD8B4B60C0B
:103FD800010AD8B4B70C0F0AD8B4B80C010AD8B47F
:103FE800B90C030AD8B4BA0C010AD8B4BB0C070A36
:103FF800D8B4BC0C010AD8B4BD0C030AD8B46F0CF1
:10400800010AD8B4BE0C1F0AD8B4700C010AD8B47F
:10401800630C030AD8B4BF0C010AD8B4790C070A98
:10402800D8B4E40C010AD8B4780C030AD8B4E50C67
:10403800010AD8B4C00C0F0AD8B4C10C010AD8B40C
:10404800E60C030AD8B4C20C010AD8B4C30C070A98
:10405800D8B4C40C010AD8B4C50C030AD8B4C60C29
:10406800010AD8B4C70C3F0C01013B6F02D03B5189
:10407800120001013B51410AD8B4610C030AD8B4BB
:10408800620C010AD8B4630C070AD8B4640C010A9C
:10409800D8B4650C030AD8B4660C010AD8B4670C06
:1040A8000F0AD8B4680C010AD8B4690C030AD8B44A
:1040B8006A0C010AD8B46B0C070AD8B46C0C010A54
:1040C800D8B46D0C030AD8B46E0C010AD8B46F0CBE
:1040D8001F0AD8B4700C010AD8B4710C030AD8B4FA
:1040E800720C010AD8B4730C070AD8B4740C010A0C
:1040F800D8B4750C030AD8B4760C010AD8B4770C76
:104108000F0AD8B4780C010AD8B4790C030AD8B4C9
:104118007A0C3B0AD8B4410C030AD8B4420C010A01
:10412800D8B4430C070AD8B4440C010AD8B4450CD7
:10413800030AD8B4460C010AD8B4470C0F0AD8B4FD
:10414800480C010AD8B4490C030AD8B44A0C010A2D
:10415800D8B44B0C070AD8B44C0C010AD8B44D0C8F
:10416800030AD8B44E0C010AD8B44F0C1F0AD8B4AD
:10417800500C010AD8B4510C030AD8B4520C010AE5
:10418800D8B4530C070AD8B4540C010AD8B4550C47
:10419800030AD8B4560C010AD8B4570C0F0AD8B47D
:1041A800580C010AD8B4590C030AD8B45A0CD20ACC
:1041B800D8B4B80C100AD8B4A80C780AD8B4E00C53
:1041C800010AD8B4E10C030AD8B4E20C010AD8B445
:1041D800E30C070AD8B4E40C010AD8B4E50C030AC6
:1041E800D8B4E60C010AD8B4E70C0F0AD8B4E80C26
:1041F800010AD8B4E90C030AD8B4EA0C010AD8B405
:10420800EB0C070AD8B4EC0C010AD8B4ED0C030A7D
:10421800D8B4EE0C010AD8B4EF0C1F0AD8B4F00CCD
:10422800010AD8B4F10C030AD8B4F20C010AD8B4C4
:10423800F30C070AD8B4F40C010AD8B4F50C030A35
:10424800D8B4F60C010AD8B4F70C0F0AD8B4F80C95
:10425800010AD8B4F90C030AD8B4FA0C010AD8B484
:10426800FB0C070AD8B4FC0C010AD8B4FD0C030AED
:10427800D8B4FE0C010AD8B4FF0C3F0AD8B4C00C5D
:10428800010AD8B4C10C030AD8B4C20C010AD8B4C4
:10429800C30C070AD8B4C40C010AD8B4C50C030A65
:1042A800D8B4C60C010AD8B4C70C0F0AD8B4C80CC5
:1042B800010AD8B4C90C030AD8B4CA0C010AD8B484
:1042C800CB0C070AD8B4CC0C010AD8B4CD0C030A1D
:1042D800D8B4CE0C010AD8B4CF0C1F0AD8B4D00C6D
:1042E800010AD8B4D10C030AD8B4D20C010AD8B444
:1042F800D30C070AD8B4D40C010AD8B4D50C030AD5
:10430800D8B4D60C010AD8B4D70C0F0AD8B4D80C34
:10431800010AD8B4D90C030AD8B4DA0C010AD8B403
:10432800DB0C070AD8B4DC0C010AD8B4DD0C030A8C
:10433800D8B4DE0C010AD8B4DF0C99D60201F9AF63
:1043480012006A0E01013B6F0A0E3C6F020E51D932
:104358002DEC42F03ED948D94CEC3EF03FD974ECF4
:104368003FF03BC1B3F13CC1B4F189C1B1F18AC19D
:10437800B2F1B1C1F6FFB2C1F7FF000EF86E0F0E31
:10438800F76403D00800F55002D0B9EC2EF02B0AE0
:1043980003E10101B14BB22B16D9AD0E406FFF0EF0
:1043A800416F4CEC3EF0DAC3A3F1DBC3A4F1DCC3EC
:1043B800A5F1B1C13BF1B2C13CF174EC3FF03BC196
:1043C80049F13CC14AF14B6B4C6BA30E4D6F010E8A
:1043D80014D97CEC35F0FDD8A30E406F010E416F67
:1043E8004CEC3EF0F0D8B70E406FFE0E416F4CEC2F
:1043F8003EF089C144F18AC145F1FDEC32F044C177
:10440800A9F145C1AAF1E5D8A9C140F1AAC141F174
:104418004CEC3EF0D8D8E8D84CEC3EF0D4D8ED0EB1
:10442800406FFF0E416F4CEC3EF08BC13BF18CC1ED
:104438003CF174EC3FF0D8903B35AB6F3C35AC6F3A
:10444800DDC3A6F1DEC3A7F1DFC3A8F1ABC149F113
:10445800ACC14AF14B6B4C6BA60E4D6F010ECDD81B
:104468007CEC35F0B6D8A60E406F010E416F4CECCF
:104478003EF0B4D874EC3FF06A0E3B25536F0A0E39
:104488003C21546F8BC155F18CC156F1690E576FA1
:104498000C0E586F93EC38F06A0E3B6F0A0E3C6FA7
:1044A80074EC3FF0B3513B5FB4513C5BD8903C3166
:1044B8008D6F3B31B36F8DC1B4F18BD8F80E406F5F
:1044C800FF0E416F4CEC3EF001019B6B9C6B9D6BAA
:1044D8009E6BB45113E1640EB35D10E2B45106E172
:1044E8000A0EB35D03E2B06B020E02D0B06B030E8E
:1044F800AF6FAFC1ADF1B0C1AEF103D0AE6B040E7A
:10450800AD6FB3C149F1B4C14AF14B6B4C6B9B0E13
:104518004D6F010E4E6FADC14FF16CEC2FF024EED4
:104528001FF011EE8FF00B0EDBCFE3FFE806FCE285
:104538008F0E3E6F010E3F6F9B0E406F010E416F55
:104548004CEC3EF00201FB918F0E01013B6F010E16
:10455800B1EC2DF0E8EC42F0BAEC43F03BC19FF12E
:104568003CC1A0F13DC1A1F13EC1A2F127D81FD89D
:10457800CEEC2BF0000911E19FC13FF1A0C140F141
:10458800A1C141F1A2C142F1E80E436F030E07EC4D
:1045980011F006EC3AF00009E9E06A0E3B6F0A0EEA
:1045A800B1EC2DF0E8EC42F00201FB811200436F00
:1045B800446B456B476B030E466F030CE70E010116
:1045C800426FFF0E12006A0E01013E6F0A0E3F6F26
:1045D80012006A0E3E6F0A0E3F6F12006A0E01014A
:1045E8003B6F0A0E3C6F1200AF0E406FFF0E416F1B
:1045F80012003E6F3D6B3F6B12004E6F020E4F6F05
:10460800020CFB81030E01013C6F3B6940EC42F058
:10461800E80615E10401FE6B010E18EC2DF0000907
:1046280003E00201FA8F0BD00101506B320E4F6F7D
:1046380011EC40F00401FE2B010EFE65EDD7FBD80E
:104648007DEC17F0D7EC28F083EC17F00201FBA300
:1046580016D0FB93E00E0101896F040E8A6FFFEC00
:1046680019F0F8D8A2EC21F0E00E01013B6F040E1E
:104678003C6F3E6B0E0E3D6F3F6B2DEC42F002011E
:10468800F9B705D0FC5103E0FC6BD5EC43F0F9A772
:10469800DDD798EC14F02D0E0201FC1930E1F9B1C8
:1046A8002ED0FC6B0401FF6B24EE72F014EEF6F0D2
:1046B800070EDBCFE3FFE806FCE2F60E01014E6FC2
:1046C800040E4F6FFFC450F125EC2BF00401FF6F6F
:1046D800FF0504E1B9D829EC35F00BD0020EFF191B
:1046E80003E144EC1CF005D0030EFF1902E1F0ECE5
:1046F80030F00401FF51E1E165EC3CF0A7D7280E4A
:10470800FC1905E1FC6BA0D829EC35F09FD7290EE0
:10471800FC1904E1FC6B44EC1CF098D72C0EFC1936
:1047280016E1FC6BF9A792D7F9B504D00301876BA2
:10473800872B02D00301876B874787470201F9510E
:1047480003018719FB0B87190201F96F7FD71E0E2A
:10475800FC1912E1FC6BF989546A030E01013C6FE4
:10476800FC0E3B6F0201000EF9B9010E01013D6F0D
:10477800F8EC42F0020120D0250EFC1905E1F9B150
:1047880003D0FC6B010E0FD0260EFC1905E1F9B120
:1047980003D0FC6B020E07D0270EFC1906E1F9B115
:1047A80004D0FC6B040E541AE5D7220EFC1906E15E
:1047B800F9B104D0FC6B546AFA8748D7230EFC1968
:1047C80005E1F9B103D0FC6BF999C7D71F0EFC19A5
:1047D80004E1FC6BDDEC43F039D7210EFC1904E150
:1047E800FC6BF7EC2FF032D72A0EFC190CE1FC6BAE
:1047F800AC0E0101896FFE0E8A6FFFEC19F02AD802
:10480800A2EC21F023D72B0EFC1908E0240EFC198A
:1048180001E01CD7F9A902D0F9A118D72B0EFC1971
:1048280006E109D8F9A103D0F99165EC3CF0FC6BDD
:1048380036EC43F005D743C0FBF344C0FCF345C056
:10484800FDF346C0FEF31200010E0101A36F800EB6
:10485800A26F800C83C18BF184C18CF1120065ECCE
:104868003CF0DBD80101DF50030B506F8019FC0BC3
:104878005019806FD2D8DF30E832030B506F5047A1
:10488800504780515019F30B5019806F0D0EF66E7A
:10489800FC0EF76E21EE68F0090EE1D8FEE2F70E85
:1048A800F66EFB0EF76E21EE52F0150ED8D8FEE22A
:1048B800C4C37AF1C5C37BF1C6C37CF1C7C37DF11C
:1048C80024EE6AF011EE72F0070EDBCFE3FFE80684
:1048D800FCE201017E6B8051030B030D680E506FE3
:1048E800010EABD87E51B5D87A0E7E25E16EE26A0C
:1048F800010EE222DFCFE7FF7E2B020E7E65EBD7AB
:104908007F6B8031E832030B070D520E506F010E9A
:1049180094D87F519ED8720E7F25E16EE26A010E0F
:10492800E222DFCFE7FF7F2B060E7F65EAD77A0EFC
:10493800456F010E466F476B020E486F496B19ECC5
:1049480036F0720E0101456F010E466F476B070E78
:10495800486F496B19EC36F0230E0201FC190CE183
:1049680061D8506F020E506105D08051030B506F13
:10497800502B19D0FC0E0CD0240EFC190BE157D883
:10498800506F020E506103D05ED8502B1CD0F30E2E
:1049980080179FD7260EFC190FE144D809E08051F3
:1049A800030B506F500780515019FC0B501914D04D
:1049B8008051FC0B020910D0270EFC190FE137D8E3
:1049C80008E041D850075037503780515019F30B41
:1049D800EDD78051F30B0809806F7BD72A0EFC199D
:1049E80015E120D8506F19D8DF18FC0B5019DF6E6D
:1049F8008031E832030B506F10D850475047DF50D2
:104A08005019F30B5019DF6E65EF3CF02B0EFC19B3
:104A180001E05FD7FC6B65EF3CF04EC1D9FF4FC199
:104A2800DAFF1200FC6B01018051030B1200FC6BD2
:104A380001018031E832030B1200516FF350502707
:104A4800F450512312008031506F5031030B506FD6
:104A580012005025D96E000E5121DA6E120009009D
:104A6800F5CFDEFFE80612000201F99FF26AF16A4B
:104A7800F06A9E6AA16A9D6AA06A9F6AA26AD06A61
:104A8800546A65EC3CF00001EB6B1F0EEA6FCD50E9
:104A9800CF0B1009CD6ED08EF28CF28EF28CCA84B8
:104AA800CD8EC80ECF6ECE6ACD809D800F0EC16EA2
:104AB800926A800E936E946A5D5001013B6FC1D873
:104AC800B3D89BEC3EF03BC15EFA3CC15FFA3DC1F6
:104AD80060FA3EC161FA57503B6F3C6B3D6B3E6BD1
:104AE80021EC0DF09BEC3EF03B510A015E25626F14
:104AF80001013C510A015F21636F01013D510A0127
:104B08006021646F01013E510A016121656F5850AF
:104B180001013B6F3C6B9DD88FD89BEC3EF03B511D
:104B28000A016225666F01013C510A016321676F22
:104B380001013D510A016421686F01013E510A01DA
:104B48006521696F800E66250301886FAE0E0A0124
:104B580067210301896FFE0E0A01682103018A6F2C
:104B6800FF0E0A01692103018B6F88C33BF189C3DA
:104B78003CF18AC33DF18BC33EF1640E01015CD860
:104B88009BEC3EF0EEEC0CF0896A8A6A8B6A240E84
:104B9800CA6E030E3C6FFC0E3B6F40EC42F00A01FC
:104BA8005E6F5E3B0201F9510A015E19EF0B5E1957
:104BB8000201F96F03018D6B000EF36F060EF46F9F
:104BC8008D2B8D5129D8000EDE6E070E3ED824D8C5
:104BD800000EDE6E080E39D81FD8000EDE6E090EE4
:104BE800DD6E8D2B8C6B8C5117D8DECF3BF1DDCF72
:104BF8003CF1010E0101FDEC22F02DEC42F0030125
:104C08008C2B030E8C65EFD7B2EC42F0D5EC43F059
:104C180005EC23F0C2EF01F0020DF30EF324D96E78
:104C2800030EF420DA6E1200800E3F6F510E406FB3
:104C3800010E416F426B010C3F6F406B416B426B41
:104C480012003C6B3D6B3E6B1200DD6E8D2B8D515F
:104C580012003D6B3E6B3C0C5C6BB4D8DECF52F15E
:104C6800DDCF53F152C1D9FF53C1DAFFDFB219D0FA
:104C7800A9D810EE02F02FEC14F05C51020D4EC1D1
:104C880052F14FC153F1F3505227F45053230C0EF5
:104C98005225D96E000E5321DA6EA5D898EC3CF057
:104CA800E76E90D810EE03F02FEC14F05CC1E7FF2C
:104CB8005C2B090E5C65D1D75D6B9DD8DA6EDECFB3
:104CC80050F1DDCF51F150C1D9FF51C1DAFFDFB248
:104CD8000BD091D8FFEC37F02FEC14F08CD8DA6EAB
:104CE80082D898EC3CF0E76E86D803EC38F02FECCD
:104CF80014F05DC1E7FF5D2B040E5D65DED720EE85
:104D08000AF088D85AEC2FF02FEC14F07CD86BD826
:104D180098EC3CF0E76E77D810EE03F02FEC14F027
:104D2800E76A0C0E4E25456F000E4F21466F0A0E9E
:104D3800476F486BCBEC37F04EC145F14FC146F198
:104D4800050E476F140E486FCBEC37F05CD810EEA9
:104D580001F02FEC14F0E75050EC39F05FD8C4ECB8
:104D68002BF019EC36F024EEB6F011EE54F0050EE7
:104D7800DBCFE3FFE806FCE2010120EE20F04AD891
:104D8800DA22DF505A6F5A5106E05A0504E0020E43
:104D98005A1901E05A6BBC0E456FFF0E466F476B00
:104DA80042D819EC36F001015A51020D540EF32481
:104DB800D96E010EF420BEEC2BF0010E476F33D8EC
:104DC80019EF36F05C51020D4EC150F14FC151F14F
:104DD800F3505027F45051230C0E5025D96E000E75
:104DE8005121DA6E120000EE01F0DE50E926DD50A6
:104DF800EA22EF5012005D51020DF3504E25D96E94
:104E0800F4504F21120020EE0AF04E51D9264F518E
:104E1800DA2212004E51D9264F5112003BC145F1FA
:104E28003CC146F112000C0E486F496B0C0C020194
:104E3800F9B988D0800E4B5C010E4C5801E382D042
:104E48000001966B976B986B996B960E286E4BC00A
:104E580029F04CC02AF0800E52EC38F00001962957
:104E680006E1972904E1982902E1992966E096511B
:104E7800886F070E9715896F0B0E366EB7D8362ECA
:104E8800FDD796518A6F070E97158B6F0B0E366EEE
:104E9800ADD8362EFDD796517F0B926F070E366E22
:104EA800A5D8362EFDD79651070B936F935145E041
:104EB800925143E043C01CF044C01DF045C01EF0B1
:104EC80046C01FF0700E206E170E216E226A236AEC
:104ED8001AEC34F01CC090F01DC091F090C01CF08A
:104EE80091C01DF0050E1F6EA00E1E6ED3EC3FF094
:104EF8001CC08EF01DC08FF090C01CF091C01DF03A
:104F0800050E1F6EA00E1E6E0CEC3FF01C28000153
:104F1800946F94519FEC41F00001946F9451921555
:104F28000CE088518E5D89518F5907E38E518A5D57
:104F38008F518B5902E393515612080E4B26000EDF
:104F48004C22000CF9B904D056C08CF0000102D0F4
:104F580000018C6B8D6B8CC0FDF2566A4B6A4C6AF3
:104F680054500201FD11200D81501F0BF310000158
:104F7800956F9551E00B551832E0030E1D6EF60E35
:104F88001C6E58C01EF06AEC40F0030E1D6EF70E42
:104F98001C6E57C01EF06AEC40F0030E1D6EF80E32
:104FA8001C6E5DC01EF06AEC40F0030E1D6EF90E1B
:104FB8001C6E5BC01EF06AEC40F0030E1D6EFA0E0C
:104FC8001C6E5CC01EF06AEC40F0030E1D6EFB0EFA
:104FD8001C6E5EC01EF06AEC40F00201FA87000108
:104FE8009551E00B556E95C081FF1200D89099330A
:104FF80098339733963312008E6B8F6B896B8A6B5D
:105008008B6B8C6B790E486F010E496F890E4A6F56
:10501800010E4B6F72C14CF173C14DF141EC37F089
:10502800010E8D6F906B790E9025D96EDA6A010E9C
:10503800DA22DE2801E08D6B902B070E9065F3D7FE
:10504800800E721902E173051CE0740504E18D05F8
:1050580004E1010E03D08D51FCE0000E876F886BD0
:10506800875188110EE072C177F173C178F1D89039
:105078007833773387D877298E6F000E78218F6F32
:1050880013D072C158F173C159F174C15AF15C6BF4
:105098005B6B61EC31F058C172F159C173F1800E4C
:1050A8007219E1E17305DFE18E518F1119E0F0C04B
:1050B80081F1F1C082F1F2C083F18EC149F18FC153
:1050C8004AF14B6B4C6B810E4D6F010E68D86CEC3E
:1050D8002FF0810E456F010E5CD819EC36F006D022
:1050E800EA0E456FFF0E55D819EC36F0010174052C
:1050F80039E1800E751902E176052CE0BA0E456F8C
:10510800FE0E13EC1EF019EC36F0F3C084F1F4C077
:1051180085F1F5C086F175C177F176C178F10101A5
:1051280031D8D89078337733772B000E782377C12E
:1051380049F178C14AF14B6B4C6B840E4D6F010EEF
:105148002ED86CEC2FF0840E456F010E21EC1EF06A
:1051580019EC36F0860E0101456FFF0E28EC1EF0A3
:1051680019EC36F06E0E0101456FFF0E466F476B66
:10517800060E486F496B19EC36F072C172F173C1B3
:1051880073F11200D89078337733D8907833773327
:105198001200466F476B0E0E486F496B0E0C4E6F30
:1051A800030E4F6F030C7C6B7D6B010E6C6F800ED2
:1051B8006B6F756B7F6B806B816B826B5E0E486F5C
:1051C800010E496F7F0E4A6F010E4B6F7CC14CF187
:1051D8007DC14DF141EC37F0080E7C27000E7D2390
:1051E8007F2907E1802905E1812903E1822901E17D
:1051F80088D07FC13BF180C13CF181C13DF182C1C2
:105208003EF1730E3F6F010E406F6D0E416F010E40
:10521800426F770E436F010E446F760E456F010E95
:10522800466FD2EC38F076516CE07E6B7751010B0B
:105238006A6FD89077336A0560E17E513B6F25EC41
:1052480026F018EC26F09BEC3EF03BC15AF13CC12D
:105258005BF13DC15CF13EC15DF173C13BF174C1CD
:105268003CF12DEC26F020EC26F09BEC3EF03B5177
:105278005A25666F3C515B21676F3D515C21686F11
:105288003E515D21696F66C13BF167C13CF168C160
:105298003DF169C13EF1640E20EC26F09BEC3EF036
:1052A8003BC178F13CC179F13DC17AF13EC17BF156
:1052B8006F51785D7051795971517A5972517B5992
:1052C80002E375511AE139D87851DE5C7951DE581C
:1052D8007A51DE587B51DE5810E2010E756F78C1A5
:1052E8006FF179C170F17AC171F17BC172F1F80E79
:1052F8007C256B6FFF0E7D216C6F7E2B060E7E6505
:1053080095D7800E7C5D010E7D5901E253D7750556
:105318000AE113D86FC1DEFF70C1DEFF71C1DEFF85
:1053280072C1DEFF05D009D8DE6ADE6ADE6ADD6A90
:105338006BC158F16CC159F1120058C1D9FF59C15C
:10534800DAFF1200C0D801E11200B8D8D8B4F9AF1A
:105358001200FBA1120025EEA4F011EE50F01E0E73
:10536800DBCFE3FFE806FCE2B6EC0CF0700E0101BF
:10537800FDEC0CF05EEC33F087D80A0E52EC17F017
:1053880066EC36F03B5198EC3CF0666F8ED80A0E0E
:1053980057EC17F05EEC33F077D8060E52EC17F0A6
:1053A80066EC36F03B5198EC3CF0656F7ED8060E03
:1053B80057EC17F05EEC33F067D8180E52EC17F084
:1053C80066EC36F03BC173F13CC174F13DC175F137
:1053D8003EC176F173C13BF174C13CF175C13DF139
:1053E80076C13EF10A0E52EC17F066EC36F03B51EE
:1053F80098EC3CF0636F59D80A0E57EC17F05EEC46
:1054080033F03BC173F13CC174F13DC175F13EC14C
:1054180076F1735198EC3CF0626F0A0E3B6F5B506B
:10542800E0EC41F098EC3CF0606F0A0E3B6F5B508B
:1054380086EC40F098EC3CF05F6F0A0E3B6F5C50D6
:10544800E0EC41F098EC3CF05D6F0A0E3B6F5C506D
:1054580086EC40F098EC3CF05C6F0A0E3B6F5E50B7
:10546800E0EC41F098EC3CF05A6F0A0E3B6F5E504E
:1054780086EC40F098EC3CF0596F500E3B6F010EF3
:10548800B1EC2DF0E8EF42F03BC173F13CC174F18F
:105498003DC175F13EC176F173C13BF174C13CF178
:1054A80075C13DF176C13EF1120073C13BF174C183
:1054B8003CF175C13DF176C13EF11200FA39E8328E
:1054C800030B020A1200FA39E832030BE80612004D
:1054D8000AEE6AF012EE00F0EE6AE550E150FCE1E7
:1054E800E250FAE109EE00F011EE00F0EE6AE55044
:1054F800E150FCE1E250FAE108EE00F011EE00F0B4
:10550800EE6AE550E150FCE1E250FAE107EE00F006
:1055180011EE00F0EE6AE550E150FCE1E250FAE1EC
:1055280006EE00F011EE00F0EE6AE550E150FCE105
:10553800E250FAE105EE00F0A40EEE6AE806FDE19D
:1055480004EEC2F0340EEE6AE806FDE103EEF3F075
:105558000C0EEE6AE806FDE10201FD6BFC6BFB6BCD
:10556800FA6BF96B00EEDAF0130EEE6AE806FDE16D
:1055780000EE43F0160EEE6AE806FDE1420EF66E06
:105588007C0EF76E000EF86E05EEA4F010EE55F0E6
:105598000900F5CFEEFFE550E150FAE1380EF66E5E
:1055A800650EF76E000EF86E04EE00F010EEC2F015
:1055B8000900F5CFEEFFE550E150FAE1960EF66EE0
:1055C800790EF76E000EF86E03EE8EF010EE65F0B1
:1055D8000900F5CFEEFFE550E150FAE13A0EF66E1C
:1055E800880EF76E000EF86E0900F5CFFEF209007E
:1055F800F5CFFFF2F60EF66E870EF76E000EF86E18
:1056080000EEEDF010EE09F00900F5CFEEFFE550E1
:10561800E150FAE1300EF66E880EF76E000EF86E65
:1056280000EE59F010EE06F00900F5CFEEFFE55058
:10563800E150FAE15F905F92000EF86E000138EFDA
:1056480025F065EC3CF00101505101E05007505144
:1056580001E1536A566B01D0562B5651020DF35097
:105668004E25D96EF4504F21DA6EDE50DE10F4E18B
:105678005607535013E170D888D819EC36F0010159
:105688005651505D1EE259D8020E5325D96E000EB0
:10569800542170D875D819EC36F013D0530411E1A1
:1056A800010150510AE049D8FE0E5325D96EFF0E6C
:1056B800542160D86AD819EC36F04ED861D819EC64
:1056C80036F0F60E0101456FFF0E466F53C047F1E5
:1056D800486B496B19EC36F02A0E0201FC1905E1FA
:1056E800FC6B01015029556F23D02B0EFC1904E1E6
:1056F800FC6B0101556B1CD0280EFC190BE1FC6BEF
:105708000101505104E05007530401E1536A65EC6C
:105718003CF0AFD7290EFC19ACE1FC6B01015651E6
:10572800505DF5E2502B5350F2E1010E536EEFD766
:1057380065EC3CF00101555112005051516F526B0C
:10574800D890513752374EC153F14FC154F151518E
:10575800532752515423120001015051020DF350A6
:105768004E25D96EF4504F21DA6EDECF45F1DDCFEC
:1057780046F11200DA6EDECF45F1DDCF46F11200B8
:10578800010E476F486F496B010C476B010E486F5C
:10579800496B010C42C13BF143C13CF11AEC42F0A8
:1057A80042C148F143C149F13B5148273C51492383
:1057B800FF0E4825546FFF0E4921556F47BF09D08A
:1057C80046C14CF147C14DF146C14EF147C14FF1B9
:1057D80005D04C6B4D6B4F6B020E4E6F4CC158F1A0
:1057E8004DC159F161D0D8905835D96E593570D816
:1057F800DECF5AF1DDCF5BF1506B516B5E6B5F6BA7
:1058080025D058D848C1F6FF49C1F7FF0800F55020
:10581800566F576B5E51FE085C6F5F51D8A0E82A3F
:1058280000085D6F4ED8DF504A6F4B6B4A515619CE
:1058380003E14B51571908E0100E5619571104E0AF
:10584800516B010E506F0CD05E4B5F2B33D8425119
:10585800485D4351495904E35F5102E15E29D1E3B0
:10586800505151111FE14451451112E0526B536BD5
:105878005D510EE15C290CE224D852514425E16EB9
:10588800535145212BD8524B532B5C4B5D2BF0D7F2
:105898005AC13BF15BC13CF1010EFDEC22F02DEC4D
:1058A80042F0010C584B592B58514E5D59514F59E4
:1058B8009AE2000C5E51545D486F5F515559496F2B
:1058C80012005C515A25D96E5D515B21DA6E1200C7
:1058D800DA6EF30ED926030EDA221200E26EDFCF5B
:1058E800E7FF120025C01CF026C01DF08CEC42F02A
:1058F80025C02BF026C02CF01C502B261D502C2226
:10590800FF0E2B24376EFF0E2C20386E2ABE09D0CE
:1059180029C02FF02AC030F029C031F02AC032F057
:1059280005D02F6A306A326A020E316E2FC03BF002
:1059380030C03CF065D0D8903B34D96E3C346CEC28
:105948002CF0DECF3DF0DDCF3EF0336A346A416A99
:10595800426A25D05BD82BC0F6FF2CC0F7FF0800A1
:10596800F550396E3A6A4150FE083F6E4250D8A051
:10597800E82A0008406E51D8DF502D6E2E6A2D504F
:10598800391803E12E503A1808E0100E39183A1069
:1059980004E0346A010E336E0CD0414A422A36D8EC
:1059A80025502B5C26502C5804E3425002E1412834
:1059B800D1E33350341022E127502810D8B4010C19
:1059C800356A366A40500FE13F280DE226D8355037
:1059D8002724E16E3650282072EC2CF0354A362AFE
:1059E8003F4A402AEFD73DC01CF03EC01DF0010ED3
:1059F8001F6E1E6A206A79EC42F0010C3B4A3C2A71
:105A08003B50315C3C50325896E2000C4150375CB8
:105A18002B6E425038582C6E12003F503D24D96EE0
:105A280040503E20DA6E12000101606F0201F99FBA
:105A3800E4EC43F094EC3DF0605106E0360E3B6F29
:105A4800FD0E3C6FB5EC2DF0F30E01013B6FFF0E20
:105A580084D8E8EC42F0F30E3B6FFF0E7ED8E8ECFA
:105A680042F0506B140E4F6F11EC40F06CD8CEEC36
:105A78002BF000091CE1605161E0506BC80E4F6FBC
:105A880011EC40F0500E3B6FFD0E3C6FB5EC2DF065
:105A9800E2EC22F0DBEC22F0CEEC2BF000094EE039
:105AA800FA0E3B6FFF0E59D8E8EC42F047D0605130
:105AB80006E0A60E3B6FFD0E3C6FB5EC2DF0B20E66
:105AC80001013B6FFF0E49D8E8EC42F03CD8CEEC20
:105AD8002BF00009FBE0605106E0670E3B6FFD0EFE
