:0400000085EF01F097
:0E0008005D82E9CF10F0EACF11F0EFED23F0AA
:100018005D80D8CFB8F0E8CFB9F0E0CFBAF0E1CF43
:10002800BBF0E2CFBCF0D9CFBDF0DACFBEF0F3CF52
:10003800BFF0F4CFC0F0F6CFC1F0F7CFC2F0F8CFE1
:10004800C3F0F5CFC4F004009EA03DD10201FA2B05
:10005800000EFB23FC23FD239E90C80ECF2657ECF1
:1000680015F00201F6510001D25DB46F0201F7519B
:100078000001D359B56F0201F8510001D459B66F88
:100088000201F9510001D559B76FB7BF0AD0B7516E
:10009800B61105E1710EB45D170EB55902E3010EF4
:1000A80001D0000EC56FC55104E0D0EC28F0000166
:1000B800DC93DDA908D0600EC66F040EC76F400E32
:1000C800CD6F040E07D0000EC66F040EC76F200E4A
:1000D800CD6F040ECE6FDCADA9D0640E551802E0CA
:1000E800DDA1A4D0D16BCF6BD06B640E55181BE08B
:1000F800D151010DF33AF43AF00EF416F3500F0B08
:10010800F412F00EF316CDC0B4F0CEC0B5F0F35033
:10011800B427F450B523CF51B425D96ED051B521A9
:10012800DA6EDFA274D0D151100DC6C0B4F0C7C0CA
:10013800B5F0F350B427F450B523CF51B425D96E98
:10014800D051B521DA6EDF50C86FD151400DF35050
:10015800CF258009A5EC29F00001D151010DF33A12
:10016800F43AF00EF416F3500F0BF412F00EF316E7
:10017800CDC0B4F0CEC0B5F0F350B427F450B523D9
:10018800CF51B425D96ED051B521DA6EDFA01FD07A
:10019800D151010DF33AF43AF00EF416F3500F0B67
:1001A800F412F00EF316CDC0B4F0CEC0B5F0F35093
:1001B800B427F450B523CF51B425D96ED051B52109
:1001C800DA6EDFA002D0DDB302D05F0EC86FC8516F
:1001D80080EC0BF0B4EC23F00001D151010DF33A9F
:1001E800F43AF00EF416F3500F0BF412F00EF31667
:1001F800CDC0B4F0CEC0B5F0F350B427F450B52359
:10020800CF51B425D96ED051B521DA6EDF92CF4BDC
:10021800D02BD0BF6AD7D05104E1100ECF5D01E2D8
:1002280064D7D12B010ED1655ED7DD91555002E020
:10023800550610D0DD81640E556EDDB303D0B46B66
:10024800B42B02D00001B46BB447DD51B419FD0BD7
:10025800B419DD6F4E5002E04E0633D0E16B81AE2B
:1002680023D00F0E4F1802E14F6A01D04F2A4FC01A
:10027800C9F0CA6BCC6B040ECB6F020ECA03F350E5
:10028800CA6FC9B1CA2BD890C933CB07D8A0CC073D
:10029800CCBF04D0CC51F1E1CB05EFE2CA51020D3D
:1002A800F3CF81FF54680DD054280BE14FC054F0B0
:1002B800545094EC25F00001E16F0A0E4E6E86EC66
:1002C8002AF0A8EC12F0F2B4F294C4C0F5FFC3C04F
:1002D800F8FFC2C0F7FFC1C0F6FFC0C0F4FFBFC03F
:1002E800F3FFBEC0DAFFBDC0D9FFBCC0E2FFBBC090
:1002F800E1FFBAC0E0FFB9C0E8FFB8C0D8FF5D9021
:1003080010000EEF19F061EC25F00201E151FC0B31
:100318000209E16FF30EE117010149514A1116E094
:10032800B0DBDF50030B4C6FB6DBFC0B4C19020142
:10033800E16FA7DB0101DF30E832030B4C6F4C475C
:100348004C47A9DBF30B4C190201E16F8CC3E0F1B8
:100358008DC3E1F18EC3E2F1E00E03019E6F010E41
:100368009F6F24EE9EF011EE50F0110EDBCFE3FFED
:10037800E806FCE2500EA06F010EA16F23EE66F0B6
:1003880011EEBFF0040EDBCFE3FFE806FCE2BF0E80
:10039800A26F010EA36F23EE6BF011EEC4F0040EF2
:1003A800DBCFE3FFE806FCE2C40EA46F010EA56FE5
:1003B80023EE70F011EEC9F0040EDBCFE3FFE80680
:1003C800FCE2C90EA66F010EA76F23EE75F011EEC1
:1003D800CEF0040EDBCFE3FFE806FCE2CE0EA86FFA
:1003E800010EA96F23EE7AF011EED3F0040EDBCFE5
:1003F800E3FFE806FCE2D30EAA6F010EAB6F23EE13
:100408002AF011EE83F0050EDBCFE3FFE806FCE2ED
:10041800830EAC6F010EAD6F23EE7FF011EED8F0B6
:10042800040EDBCFE3FFE806FCE2D80EAE6F010E48
:10043800AF6F23EE30F011EE89F0050EDBCFE3FF4E
:10044800E806FCE2890EB06F010EB16FE00EB26FE4
:10045800010EB36F500EB46F010EB56F23EE36F078
:1004680011EE8FF0050EDBCFE3FFE806FCE28F0EFE
:10047800B66F010EB76F23EE3CF011EE95F0050E46
:10048800DBCFE3FFE806FCE2950EB86F010EB96F0B
:1004980023EE42F011EE9BF0050EDBCFE3FFE806FA
:1004A800FCE29B0EBA6F010EBB6F23EE48F011EE13
:1004B800A1F0050EDBCFE3FFE806FCE2A10EBC6F5E
:1004C800010EBD6F23EE4EF011EEA7F0050EDBCF47
:1004D800E3FFE806FCE2A70EBE6F010EBF6F23EE36
:1004E80054F011EEADF0050EDBCFE3FFE806FCE2B9
:1004F800AD0EC06F010EC16F23EE5AF011EEB3F0CE
:10050800050EDBCFE3FFE806FCE2B30EC26F010E77
:10051800C36F23EE60F011EEB9F0050EDBCFE3FFF9
:10052800E806FCE2B90EC46F010EC56F8FC3DDF19A
:1005380090C3DEF191C3DFF1DD0EC66F010EC76F08
:10054800E6C0E3F1E7C0E4F1E30EC86F010EC96F3E
:10055800E8C0E5F1E9C0E6F1E50ECA6F010ECB6F20
:10056800EAC0E7F1EBC0E8F1E70ECC6F010ECD6F02
:10057800EAC2C6F2EBC2C7F2C60ECE6F020ECF6F4A
:10058800ECC2C8F2EDC2C9F2C80ED06F020ED16F2C
:10059800EEC2CAF2EFC2CBF2CA0ED26F020ED36F0E
:1005A800F0C2CCF2F1C2CDF2CC0ED46F020ED56FF0
:1005B800F2C2CEF2F3C2CFF2CE0ED66F020ED76FD2
:1005C800F4C2D0F2F5C2D1F2D00ED86F020ED96FB4
:1005D80001014B5103E11F0E4B6F01D04B07020184
:1005E800E26BE251040D030E1EDAF4D9E2C2DFFF1A
:1005F800E251040DEFD9DF90E251040DEBD9DF820F
:10060800E2510CDAE7D9DF6AE251040D020E0BDA87
:10061800E1D9200EDF6EE251040D000E01014C6F8E
:10062800020E4D6FF3504C27F4504D230201E25156
:10063800C4D94CC1DEFF4DC1DDFFE22B200EE265BF
:10064800D0D7826BE36BE06BD26BD36BD46BD56B7B
:1006580001014751481122E00201DB6B17D002016A
:10066800E6D90201DB51040D020EDDD9000EF32498
:10067800E16E020EF420E26EDFCFE7FFDB51CED948
:10068800A9D9010EDF6EDBC2E3F2DB2BD0D9DF5034
:10069800E6E14B510201E35D01E2E32B0201E05187
:1006A80022E0D2C204F1D3C205F1D4C206F1D5C208
:1006B80007F12C0E0101086F010E096F000E0A6B7D
:1006C8000B6B7DEC22F000090EE00201E06BD4D93F
:1006D8000AE201014B5171D910EE01F076D9E750C9
:1006E80002E10201E32B1D0E0001E1659DD0280EF9
:1006F800E1619AD0E1510201E0190CE120EE01F02C
:10070800D651D926D751DA22DF5001E103D0D64B92
:10071800D72B1DD0C40EA6D9E131E832030B0A0D40
:100728000001E151F326000EF422D890F336F43696
:1007380001014C51F3264D51F4229E0EF324D96E3B
:10074800030EF420DA6EDECFD6F2DDCFD7F2000149
:10075800E1510201E0192FE001014B512ED910EEB1
:1007680001F033D9E75027E14B510201E35D03E281
:10077800E05101E0E32B01014B511FD987D94BC14F
:10078800DAF20ED0FE0E6ED9DA512BD90201DA5107
:1007980039D9DA5112D910EE03F017D9E72ADA0756
:1007A8000201DA51E35DEEE3E35107D9DDC2DEFF72
:1007B800DEC2DDFF04D00201E351FFD867D9D6C2FB
:1007C800D9FFD7C2DAFF3BD9DFCFE7FFE151030BEF
:1007D800E80602E1E35104E0E151030B020A08E1F3
:1007E80020EE02F03AD92BD9E75044EC0FF0DF6E37
:1007F800020120EE03F031D9E3C2DFFF20EE01F061
:100808002CD9010EDF6EE1C0E0F20001E16B010EB0
:100818000AEC2AF068EC2AF000C1D2F201C1D3F246
:1008280002C1D4F203C1D5F2840E0101006F020E99
:10083800016F200E026FA0EC28F00201E351BDD831
:10084800DECF4CF1DDCF4DF14CC1D9FF4DC1DAFF00
:10085800DF80840E0101096F020E0A6F200E0B6FF4
:100868000C6BFCEC22F0280E0001E11913E1E16B9E
:1008780003D901E313D7E351A0D810EE01F0A5D8AE
:10088800E75001E10BD7E32B000E0AEC2AF0020136
:10089800E06B04D7290EE1190AE1E16B0201E3518B
:1008A80001E1FCD6E307000E0AEC2AF0F0D72A0E85
:1008B800E11922E1E16B0201DF6B200EDF6501D057
:1008C80011D0DF517AD810EE01F07FD8E7500AE056
:1008D800DF5173D810EE02F078D8B8D8E7CFDFFF31
:1008E800DF2BEBD7B3D8DF6A61EC25F0620E01018C
:1008F800476F010E486F12002B0EE11907E1E16BFB
:1009080061EC25F00101476B486B12002C0EE119D0
:1009180047E1E16B0201E05101E0E32BE35101E122
:10092800BDD6FE0E9FD8E3515CD8DECFD8F2DDCF1E
:10093800D9F2020120EE01F09AD8DF6A20EE02F027
:1009480096D8200EDF6E20EE03F091D81F0EDF6ED2
:10095800E305DC6F1F0EDC6501D01CD0DC51010102
:100968004C6F4D6BD8904C374D37020E4C27000E0C
:100978004D23840E4C25D96E020E4D21DA6E0201EC
:10098800DC5140D8DC5119D810EE03F01ED8E70628
:10099800DC2BE0D7D8C2C2F2D9C2C3F2E30777D7BB
:1009A8002D0EE11901E07AD6E16BE10E0101146F19
:1009B800020E156FAEEC10F071D6020D840EF32402
:1009C800D96E020EF420DA6E1200DE50E126DD50F8
:1009D800E2221200000EF324D96E020EF420DA6E21
:1009E800120001014E6F4F6BD8904E374F374C5164
:1009F8004E274D514F23840E4E25D96E020E4F219E
:100A0800DA6E1200020D840EF324E16E020EF42059
:100A1800E26EDECFE6FFDDCFE5FF1200040DF32A1C
:100A2800000EF422000CF326000EF422000CDB5119
:100A380001014725D96E000E4821DA6E120010EE2A
:100A480002F0DD51E126DE51E2221200620EDF25BE
:100A5800D96EDA6A010EDA221200DD51D926DE518A
:100A6800DA22120001014C6F4D6902011200D851BF
:100A7800D926D951DA22120001014B510201E35D56
:100A8800120049C1D9FF4AC1DAFF1200DECFDDF2F8
:100A9800DDCFDEF212000201E15101014C19120012
:100AA80061EC25F0DC89EADA700E01012FDBACEC91
:100AB8001EF09EDA93C133F194C134F195C135F13A
:100AC80096C136F18F6B8F51040D640E1B6F010EAA
:100AD800DEDA8F51020D71DA8F2B040E8F65F3D792
:100AE800906B9051040D980E1B6F010ED0DA905147
:100AF800020D0A0E94DA61DA902B9051F2E0916BB4
:100B08009151040D3B0E1B6F010EC1DA9151020D7C
:100B18000C0E85DA52DA912B090E9165F1D79C0EED
:100B2800006F010E016FF5EC1BF020EE01F0A451EF
:100B3800D926A551DA2232DA0A0E3DEC0BF061EC27
:100B480021F00051DF6E4BDA0A0E42EC0BF0ACECF0
:100B58001EF04EDA20EE01F0A251D926A351DA2276
:100B68001DDA060E3DEC0BF061EC21F00051DF6E52
:100B780036DA060E42EC0BF0ACEC1EF039DA0EDA7F
:100B8800180E3DEC0BF061EC21F000C193F101C1AE
:100B980094F102C195F103C196F120EE01F09E5146
:100BA800D9269F51DA22FAD90A0E3DEC0BF061ECF6
:100BB80021F00051DF6E20EE01F09C51D9269D51A5
:100BC800DA220DDA0A0E42EC0BF0ACEC1EF0005102
:100BD800DF6E20EE01F0A651D926A751DA2233C1E3
:100BE80000F134C101F135C102F136C103F1A00EA3
:100BF800046F050E056F066B076BACEC1EF0002941
:100C0800DF6E20EE01F0BA51D926BB5171DAF051EE
:100C1800F9EC28F0DF6E20EE01F0B851D926B95171
:100C280070DAF051B8EC27F0DF6E20EE02F0B65122
:100C3800D926B751DA22300EDF6EB6C1D9FFB7C157
:100C4800DAFFDF8220EE02F0B451D926B551DA225C
:100C5800320EDF6EB4C1D9FFB5C1DAFFDF8220EEF4
:100C680001F0B051D926B15143DAEF51F9EC28F02F
:100C7800DF6E20EE01F0AE51D926AF5142DAEF51C6
:100C8800B8EC27F0DF6E20EE01F0AA51D926AB515F
:100C98002FDAEE51F9EC28F0DF6E20EE01F0A851C2
:100CA800D926A9512EDAEE51B8EC27F0DF6EA8C18B
:100CB80079F1A9C17AF1AAC17BF1ABC17CF1AEC1CE
:100CC8007DF1AFC17EF1B0C17FF1B1C180F1B8C192
:100CD80081F1B9C182F1BAC183F1BBC184F1A6C166
:100CE80085F1A7C186F19CC187F19DC188F19EC19C
:100CF80089F19FC18AF1A2C18BF1A3C18CF1A4C172
:100D08008DF1A5C18EF1070E926F636901019CD91F
:100D1800DECF1BF1DDCF1CF11BC1D9FF1CC1DAFFEF
:100D2800DF809C0E126F010E136F09EC17F0090E8D
:100D3800006F000E88EC28F00101636F632910E052
:100D480083D910EE01F0E9EC04F063C1E7FF71D933
:100D580009EC28F00A0E921902E1926B01D0922B4D
:100D6800280E0001E1190BE1BFD9ABD909EC28F035
:100D78000A0E921902E1926BC9D7922BC7D7290E96
:100D8800E1190BE1B1D99DD909EC28F0925103E1A1
:100D98000A0E926FBBD79207B9D72A0EE11901E064
:100DA800DDD0E16BF4D8E1D865D912D90C0E97657E
:100DB80005D03FD909EC28F0020E5CD097C178F134
:100DC80024EEE0F011EE27F00B0EDBCFE3FFE80690
:100DD800FCE2EDD8CAD84AD9FBD897C11BF1030E5B
:100DE8001B1702E11D0E286F29D9BFD886D9F0D864
:100DF800C2D8D96E010E1E21DA6E9751DE5C19E257
:100E080020EE01F07AD9DA220A0E006FB4D884D91C
:100E1800B8EC27F0DF6E12D9DA220A0E006FABD8D1
:100E28007BD9F9EC28F0DF6E04D909EC28F0926B35
:100E38008FD03FD9976F070E976505D0FAD809EC80
:100E480028F0060E17D029D990D846D9C1D8170E40
:100E5800976505D0EED809EC28F0070E0BD023D9FA
:100E680084D83ED9B5D83B0E976506D0E2D809ECB0
:100E780028F0090E926F6CD0976B1B691C6919D901
:100E88001D6F1E6B1B511D271C511E231DC100F118
:100E98001EC101F1000E01BFFF0E026F036F6BEC64
:100EA80014F0B3EC26F000C11FF101C120F102C11A
:100EB80021F103C122F120EE01F00ED933D9EDD88A
:100EC800A0D803D9B3EC26F000511F25236F015198
:100ED8002021246F02512121256F03512221266FE1
:100EE80020EE01F0FDD81ED9DED88BD83C0E77EC69
:100EF80014F0B3EC26F000512325376F015124215B
:100F0800386F02512521396F035126213A6F37C1B5
:100F180000F138C101F139C102F13AC103F1640E9F
:100F280077EC14F0B3EC26F098D888D81ED8E5D81A
:100F3800DA2279D8EE6F2BD818D89CD8DA2273D851
:100F4800EF6F010134D811D891D8DA226CD8F06F3C
:100F58000101975101E0DAD661EF25F02B0EE11976
:100F680001E0D4D6E16B61EF25F0DA22DF501B6F88
:100F780020EE01F012001B691C6978511D6F1E6B71
:100F88001B511D271C511E23270E1D251200010170
:100F980020EE01F07F51D9268051120093C100F153
:100FA80094C101F195C102F196C103F1120020EE3E
:100FB80001F08351D926845112009C0EF324D96E76
:100FC800010EF420DA6E1BC1DEFF1CC1DDFF12002A
:100FD800DA22DF500A0DF3501B25976F120093C1D8
:100FE80000F194C101F195C102F196C103F112001B
:100FF80000C193F101C194F102C195F103C196F1C9
:101008001200DA22DF50F326000EF422F3CF00F1AB
:10101800F4CF01F101BFFF0E026F036F1200F32638
:10102800000EF422000CDF500A0DF3501B250001BE
:1010380012009C0E066F010E076F120020EE01F0E1
:101048007B51D9267C5112009251020D790EF3245E
:10105800D96E010EF420DA6E120000C1D2F001C17F
:10106800D3F002C1D4F003C1D5F012008151D926C2
:10107800825112007D51D9267E511200D2C000F152
:10108800D3C001F1D4C002F1D5C003F112001C6F26
:10109800F3501B27F4501C23120020EE01F0895155
:1010A800D9268A51120020EE01F08D51D9268E5191
:1010B800120020EE01F08551D9268651DA22DF5040
:1010C8001200066F010E076F1200100E046F0E0E4D
:1010D800056F066B076B0E0C8751D92688511200D5
:1010E8008B51D9268C511200E16B9C0E0101120024
:1010F800DA220A0E006F00010A0C7951D9267A51BA
:101108001200DA220A0E006F00010A0C046F170E93
:10111800056F066B076B170CE16E010E1E21E26E60
:10112800E7501200DA22DF500A0D1200DDAD03D0BD
:10113800DD9D61EC25F0200EE11913E1800EEC191C
:1011480004E1ED0502E1DCA10CD0E16B61EC25F0D6
:10115800DCB102D0CDDA02D001015A6BC0DAFE0B45
:10116800C3DA2D0EE1190EE1800EEC1902E1ED054E
:1011780009E0DCA107D0E16BECC058F1EDC059F1F2
:101188004CEC1AF0DCB30DD08FEC12F0E20E9CECB4
:1011980013F0A0DA0001DCA103D0DC9161EC25F0AA
:1011A800DC83800EEC1902E1ED0502E0DCB1E9D048
:1011B80087DA0001DCA502D09BDA02D001015A6B64
:1011C800A851010ED8B4000E5A190FE061EC25F0B1
:1011D8000101A85103E05A6B5A2B02D001015A6B46
:1011E8005A475A477CDAFB0B7FDA0101A85127E0FE
:1011F80084C397F185C398F186C399F187C39AF19F
:10120800010EA36FA851010B8B6FD890A8338B05E3
:1012180008E198C197F199C198F1A3512EEC25F0F6
:10122800996FA32B030EA365EDD7970E096F010ED7
:101238000A6F0B6B0D0E0C6F0D6B73EC20F024EE28
:10124800ECF011EE71F0080EDBCFE3FFE806FCE2EC
:1012580042EC08F0640E010111DAACEC1EF0DCD9A6
:101268000A0E07DA61EC21F000512EEC25F0786FB8
:10127800EDD90A0E03DAACEC1EF0CED9060EF9D978
:1012880061EC21F000512EEC25F0776FDFD9060EC6
:10129800F5D9ACEC1EF0C0D90A0EEBD961EC21F0FF
:1012A80000512EEC25F0756FD1D90A0EE7D9ACECB8
:1012B8001EF0B2D9060EDDD961EC21F000512EECFA
:1012C80025F0746FC3D9060ED9D9ACEC1EF000C155
:1012D800ADF101C1AEF102C1AFF103C1B0F1B6D9B0
:1012E800180ECCD9ACEC1EF000298C6FA6D9180EBC
:1012F800C0D961EC21F000C1ADF101C1AEF102C16C
:10130800AFF103C1B0F199D90A0EB3D961EC21F05C
:1013180000512EEC25F0726F99D90A0EAFD9ACECBA
:101328001EF000512EEC25F0716F0001C9D9070E8F
:10133800A81903E0906B050E02D0906B040E8F6F16
:10134800710E096F010E0A6F0B6B8FC10CF10D6BDB
:1013580073EC20F0070E0101A81903E0926B020E4E
:1013680002D0926B010E916F8C513BEC23F000C1BF
:1013780009F101C10AF10B6B91C10CF10D6B73EC12
:1013880020F00001DCBFDCB105D0DB0E0101096FE4
:10139800FE0E3ED1800EEC1903E1ED0501E12FD1DF
:1013A80024EEC2F011EE7AF0100EDBCFE3FFE80670
:1013B800FCE2070E01017A6F010E956F0001DCA1B6
:1013C80004D00101956BF10E7F6F01019E6B9F6B3D
:1013D800A06BA16B5C0E0D6F010E0E6F9E0E0F6F52
:1013E800010E106FECC011F1EDC012F1F6EC21F016
:1013F8009EC100F19FC101F1A0C102F1A1C103F199
:10140800930E046F010E056FA90E066F010E076F8C
:10141800960E086F010E096FA20E0A6F010E0B6F70
:10142800BDEC22F0E2C00EF1E3C00FF1E4C010F110
:10143800E5C011F1AB0E126F010E136F9D0E146F04
:10144800010E156F5EEC24F02AD90A0E026F23EC08
:1014580027F000512EEC25F0856F15D90A0E026F82
:10146800D9EC26F032D91BD9060E026F23EC27F0EF
:1014780000512EEC25F0846F06D9060E026FD9ECC8
:1014880026F023D93A0E836F0AD90A0E026F23EC8D
:1014980027F000512EEC25F0826FF5D80A0E026F66
:1014A800D9EC26F000512EEC25F0816F010EA46FC7
:1014B800030EA46501D011D0A251010B8D6FD890F5
:1014C800A2338D0508E188C187F189C188F1A4514B
:1014D8002EEC25F0896FA42BEBD79D513BEC23F024
:1014E80000C19BF101C19CF19BC1F6FF9CC1F7FFB4
:1014F8000800F5CF7CF19B295A6F000E9C215B6F89
:101508005AC1F6FF5BC1F7FF0800F5CF7DF17A0EEF
:10151800096F010E0A6F95C10BF10C6B0D6B73EC23
:1015280020F00001DCA1120024EED3F011EE64F0EB
:101538000C0EDBCFE3FFE806FCE20101A76B0C0E03
:10154800A66F8DD8B2D80A0E026F23EC27F000518F
:101558002EEC25F0DF6E9DD80A0E026FD9EC26F02E
:10156800AAD87DD8A2D8060E026F23EC27F0005126
:101578002EEC25F0DF6E8DD8060E026FD9EC26F022
:101588009AD8A607D8A0A7076AD88FD80A0E026FDC
:1015980023EC27F000512EEC25F0DF6E60D879D8C7
:1015A8000A0E026FD9EC26F000512EEC25F0DF6E02
:1015B800ECC05AF1EDC05BF1D8905B335A33D89048
:1015C8005B335A33D8905B335A335A29A56F0A0EC6
:1015D800006FA551F9EC28F02EEC25F08E6F65C14F
:1015E80066F18EC165F10A0E006FA551B8EC27F0BF
:1015F800A56FA551ECE1640E096F010E09D0DCA1BD
:1016080003D061EC25F0DC91B90E0101096FFE0EE3
:101618000FEC0FF073EF20F000C1ADF101C1AEF196
:1016280002C1AFF103C1B0F1ADC100F1AEC101F12A
:10163800AFC102F1B0C103F11200ADC100F1AEC1FA
:1016480001F1AFC102F1B0C103F11200ADC100F167
:10165800AEC101F1AFC102F1B0C103F11200A6079A
:10166800D8A0A707640EA625D96E010EA721DA6EA9
:101678001200046F056B066B076B1200046F056B95
:10168800066B076B1200ABC100F1ACC101F1036B33
:101698001200A9C100F1AAC101F1036B1200ABC18C
:1016A80000F1ACC101F1036B1200A9C100F1AAC19C
:1016B80001F1036B120000C1A9F101C1AAF11200E6
:1016C800DF510101FB11A86F120000C1ABF101C18C
:1016D800ACF112001DC1ECF01EC1EDF012000001CA
:1016E800DC5101015A1912005A190001DC6F12006D
:1016F80001015A6B5A2B12001C6E1C50070AD8B4F1
:10170800ED0C270AD8B4200C010AD8B4210C030A1E
:10171800D8B4220C010AD8B4230C070AD8B4240C74
:10172800010AD8B4250C030AD8B4260C0E0AD8B47A
:10173800280C010AD8B4290C030AD8B42A0C010AC7
:10174800D8B42B0C070AD8B42C0C010AD8B42D0C29
:10175800030AD8B42E0C010AD8B42F0C1F0AD8B427
:10176800300C010AD8B4310C030AD8B4320C010A7F
:10177800D8B4330C070AD8B4340C010AD8B4350CE1
:10178800030AD8B4360C010AD8B4370C0F0AD8B4F7
:10179800380C010AD8B4390C030AD8B43A0C010A37
:1017A800D8B43B0C070AD8B43C0C010AD8B43D0C99
:1017B800030AD8B43E0C010AD8B43F0C7F0AD8B447
:1017C800400C010AD8B4410C030AD8B4420C010AEF
:1017D800D8B4430C070AD8B4440C010AD8B4450C51
:1017E800030AD8B4460C010AD8B4470C0F0AD8B477
:1017F800480C010AD8B4490C030AD8B44A0C010AA7
:10180800D8B44B0C070AD8B44C0C010AD8B44D0C08
:10181800030AD8B44E0C010AD8B44F0C1F0AD8B426
:10182800500C010AD8B4510C030AD8B4520C010A5E
:10183800D8B4530C070AD8B4540C010AD8B4550CC0
:10184800030AD8B4560C010AD8B4570C0F0AD8B4F6
:10185800580C010AD8B4590C030AD8B45A0C010A16
:10186800D8B45B0C070AD8B42F0C010AD8B45D0CA5
:10187800030AD8B45E0C010AD8B45F0C3F0AD8B486
:10188800600C010AD8B4610C030AD8B4620C010ACE
:10189800D8B4630C070AD8B4640C010AD8B4650C30
:1018A800030AD8B4660C010AD8B4670C0F0AD8B476
:1018B800680C010AD8B4690C030AD8B46A0C010A86
:1018C800D8B46B0C070AD8B46C0C010AD8B46D0CE8
:1018D800030AD8B46E0C010AD8B46F0C1F0AD8B426
:1018E800700C010AD8B4710C030AD8B4720C010A3E
:1018F800D8B4730C070AD8B4740C010AD8B4750CA0
:10190800030AD8B4760C010AD8B4770C0F0AD8B4F5
:10191800780C010AD8B4790C030AD8B47A0C040AF2
:10192800D8B4E90CEC0AD8B4270C050AD8B42D0CA5
:101938003F0AD8B4A20C030AD8B4C80C1B0AD8B4FE
:10194800EF0C080AD8B4B50C010AD8B4CC0C020ABA
:10195800D8B4C90C7B0AD8B4410C010AD8B4A00C7D
:10196800030AD8B4420C010AD8B4A10C070AD8B4A7
:10197800E00C010AD8B4450C030AD8B4A30C010A38
:10198800D8B4A40C0F0AD8B4A50C010AD8B4A60C74
:10199800030AD8B44B0C010AD8B4A70C070AD8B468
:1019A8004D0C010AD8B4480C030AD8B44F0C010AEC
:1019B800D8B4A80C1F0AD8B4500C010AD8B4430CE8
:1019C800030AD8B4540C010AD8B4A90C070AD8B42D
:1019D800AA0C010AD8B4580C030AD8B4E10C010ABD
:1019E800D8B4AB0C0F0AD8B4AC0C010AD8B4E20CCA
:1019F800030AD8B4AD0C010AD8B4AE0C070AD8B49F
:101A0800C40C010AD8B4AF0C030AD8B4B00C010A4C
:101A1800D8B4B10C3F0AD8B4610C010AD8B4B20CDE
:101A2800030AD8B4B30C010AD8B4B40C070AD8B462
:101A3800E30C010AD8B4650C030AD8B4B60C010A41
:101A4800D8B4B70C0F0AD8B4B80C010AD8B4B90C7A
:101A5800030AD8B4BA0C010AD8B4BB0C070AD8B424
:101A6800BC0C010AD8B4BD0C030AD8B46F0C010A27
:101A7800D8B4BE0C1F0AD8B4700C010AD8B4630CD1
:101A8800030AD8B4BF0C010AD8B4790C070AD8B431
:101A9800E40C010AD8B4780C030AD8B4E50C010A9E
:101AA800D8B4C00C0F0AD8B4C10C010AD8B4E60CDB
:101AB800030AD8B4C20C010AD8B4C30C070AD8B4B4
:101AC800C40C010AD8B4C50C030AD8B4C60C010A60
:101AD800D8B4C70C3F0C61EC25F0CED9386F336B06
:101AE8000501335116E13B0E01010D6F050E0E6F16
:101AF80038C50FF139C510F1C6EC24F005014B6B60
:101B0800596B010E336F5B0504E03B6B4B6B4C6B01
:101B1800596B92C329F593C32AF594C32BF5790E13
:101B280038250101006FFE0E050139210101016F01
:101B3800036B210E026FD9EC26F0002B000E012357
:101B480000C10DF101C10EF10F6B106B290E116F61
:101B5800050E05EC17F068EC1FF0290E096F050E4D
:101B680073D973EC20F005015B050FE13B0E010111
:101B7800096F050E70D973EC20F04C0E0101096F46
:101B8800050E49D973EC20F00ED0CA0E0101096F79
:101B9800FE0E61D973EC20F0BC0E0101096FFE0E38
:101BA8003AD973EC20F02D0E0001E11901E0C6D0FE
:101BB800E16B23EE0AF015EE00F0070EDBCFE3FF32
:101BC800E806FCE2000E0101146F050E156F166B96
:101BD800BDEC17F00501346F34056FE161EC25F0B9
:101BE80005013551FC0B0109356F3551F30B04091B
:101BF800356F5B0503E02C6B2D6B04D03B0E2C6F0F
:101C0800050E2D6F2CC547F12DC548F129D9100EA9
:101C18004B6F87EC01F010D901E162D73A6B0AD01B
:101C2800F3D83B0E3A25E16EE26A050EE222DFCFD9
:101C3800E7FF3A2BE9D8DF50F3E13B0E3A25D96E9E
:101C4800DA6A050EDA22DF6A3551F30B0809356FB7
:101C58005B0503E02E6B2F6B04D04C0E2E6F050E28
:101C68002F6F2EC547F12FC548F1FAD80D0E4B6FCF
:101C780087EC01F0E1D801E132D73A6B0AD0C4D839
:101C8800D0D8E16E050EEA21E26EDFCFE7FF05014D
:101C98003A2BBAD8DF50F3E1C4D8D96E050EEA2141
:101CA800DA6EDF6A010E05015B6F3B0E01010D6FF5
:101CB800050EDCD892EC24F013D7020E341921E17A
:101CC8003051F30B0809306F0101476B486B300E38
:101CD800496F050E4A6F0D0E4B6F87EC01F047C137
:101CE80031F548C132F505013151321101E1F8D61B
:101CF80031C503F132C504F1AEEC21F00001DD87F6
:101D0800EFD6030E341901E0EBD65B0501E0E8D607
:101D18001C0E0101146FFF0E156F23EC28F000094B
:101D280001E1DED6080E01010D6F050E9FD892EC79
:101D380024F00501336B61EC25F0D2D61F0EE119B2
:101D480022E1E16BDDA709D0D70E0101006FFF0E7C
:101D5800016F026BC9EC29F0C3D6EC0E0101146FB8
:101D6800FE0E156F23EC28F0000901E1B9D6050134
:101D78005B0501E0B5D64C0E0101036F050E046F3B
:101D8800AEEC21F0BBD7210EE1190DE1E16BDB0EC2
:101D98000101006FFF0E016F026BC9EC29F0000111
:101DA800DD97DD9F9DD6280EE1190EE1E16B760ED9
:101DB8000501385D030E395905E2210E3827000E5A
:101DC8003923B7D759D812D0290EE11911E1E16B9F
:101DD800880E0501385D010E395905E3210E385F7B
:101DE800000E395BA6D7030E396F760E386FA1D770
:101DF8002B0EE11903E1E16B61EF25F01E0EE119ED
:101E080001E06ED6E16BDED73A513625D96E000E69
:101E18003721DA6E12000A6F010E0B6F0C6B0D6B17
:101E2800010C3A510101E96FEA6B110EE927000E26
:101E3800EA233B0EE925120047C136F548C137F5BC
:101E480005013651371112000A6F010E0B6F0E0E85
:101E58000C6F0D6B0E0C0A6F0B6B0C6B0D6B12007D
:101E6800350E0101496F050E4A6F12000E6F38C515
:101E78000FF139C510F11200010E0501396F870CF9
:101E88000101006F02D00051120001010051410A06
:101E9800D8B4610C030AD8B4620C010AD8B4630C34
:101EA800070AD8B4640C010AD8B4650C030AD8B47C
:101EB800660C010AD8B4670C0F0AD8B4680C010A7A
:101EC800D8B4690C030AD8B46A0C010AD8B46B0CEC
:101ED800070AD8B46C0C010AD8B46D0C030AD8B43C
:101EE8006E0C010AD8B46F0C1F0AD8B4700C010A22
:101EF800D8B4710C030AD8B4720C010AD8B4730CA4
:101F0800070AD8B4740C010AD8B4750C030AD8B4FB
:101F1800760C010AD8B4770C0F0AD8B4780C010AE9
:101F2800D8B4790C030AD8B47A0C3B0AD8B4410C5B
:101F3800030AD8B4420C010AD8B4430C070AD8B42F
:101F4800440C010AD8B4450C030AD8B4460C010A5B
:101F5800D8B4470C0F0AD8B4480C010AD8B4490CB5
:101F6800030AD8B44A0C010AD8B44B0C070AD8B4EF
:101F78004C0C010AD8B44D0C030AD8B44E0C010A13
:101F8800D8B44F0C1F0AD8B4500C010AD8B4510C5D
:101F9800030AD8B4520C010AD8B4530C070AD8B4AF
:101FA800540C010AD8B4550C030AD8B4560C010ACB
:101FB800D8B4570C0F0AD8B4580C010AD8B4590C25
:101FC800030AD8B45A0CD20AD8B4B80C100AD8B438
:101FD800A80C780AD8B4E00C010AD8B4E10C030ABA
:101FE800D8B4E20C010AD8B4E30C070AD8B4E40C5C
:101FF800010AD8B4E50C030AD8B4E60C010AD8B42F
:10200800E70C0F0AD8B4E80C010AD8B4E90C030AA3
:10201800D8B4EA0C010AD8B4EB0C070AD8B4EC0C13
:10202800010AD8B4ED0C030AD8B4EE0C010AD8B4EE
:10203800EF0C1F0AD8B4F00C010AD8B4F10C030A4B
:10204800D8B4F20C010AD8B4F30C070AD8B4F40CCB
:10205800010AD8B4F50C030AD8B4F60C010AD8B4AE
:10206800F70C0F0AD8B4F80C010AD8B4F90C030A13
:10207800D8B4FA0C010AD8B4FB0C070AD8B4FC0C83
:10208800010AD8B4FD0C030AD8B4FE0C010AD8B46E
:10209800FF0C3F0AD8B4C00C010AD8B4C10C030A1B
:1020A800D8B4C20C010AD8B4C30C070AD8B4C40CFB
:1020B800010AD8B4C50C030AD8B4C60C010AD8B4AE
:1020C800C70C0F0AD8B4C80C010AD8B4C90C030A43
:1020D800D8B4CA0C010AD8B4CB0C070AD8B4CC0CB3
:1020E800010AD8B4CD0C030AD8B4CE0C010AD8B46E
:1020F800CF0C1F0AD8B4D00C010AD8B4D10C030AEB
:10210800D8B4D20C010AD8B4D30C070AD8B4D40C6A
:10211800010AD8B4D50C030AD8B4D60C010AD8B42D
:10212800D70C0F0AD8B4D80C010AD8B4D90C030AB2
:10213800D8B4DA0C010AD8B4DB0C070AD8B4DC0C22
:10214800010AD8B4DD0C030AD8B4DE0C010AD8B4ED
:10215800DF0C99D661EC25F0DBD80101DF50030BC9
:10216800166F4619FC0B1619466FD2D8DF30E832C5
:10217800030B166F1647164746511619F30B161917
:10218800466FBF0EF66EFD0EF76E21EE2EF0090EAD
:10219800E1D8FEE2A90EF66EFD0EF76E21EE18F0FC
:1021A800150ED8D8FEE288C340F189C341F18AC32D
:1021B80042F18BC343F123EE1AF011EE38F0070E0B
:1021C800DBCFE3FFE806FCE20101446B4651030B59
:1021D800030D2E0E166F010EB7D84451A9D8400E24
:1021E8004425E16EE26A010EE222DFCFE7FF442BCD
:1021F800020E4465EBD7456B4631E832030B070DF9
:10220800180E166F010EA0D8455192D8380E4525E4
:10221800E16EE26A010EE222DFCFE7FF452B060EF0
:102228004565EAD7400E096F010E0A6F0B6B020E67
:102238000C6F0D6B73EC20F0380E0101096F010E65
:102248000A6F0B6B070E0C6F0D6B73EC20F0230EEF
:102258000001E1190CE161D8166F020E166105D074
:102268004651030B166F162B19D0FC0E0CD0240EFA
:10227800E1190BE163D8166F020E166103D052D82C
:10228800162B1CD0F30E46179FD7260EE1190FE127
:1022980044D809E04651030B166F16074651161924
:1022A800FC0B161914D04651FC0B020910D0270E4E
:1022B800E1190FE143D808E035D816071637163765
:1022C80046511619F30BEDD74651F30B0809466F23
:1022D8007BD72A0EE11915E120D8166F19D8DF1817
:1022E800FC0B1619DF6E4631E832030B166F10D857
:1022F80016471647DF501619F30B1619DF6E61EFF4
:1023080025F02B0EE11901E05FD7E16B61EF25F0B5
:1023180014C1D9FF15C1DAFF1200E16B0101465162
:10232800030B12004631166F1631030B166F12009D
:102338001625D96E000E1721DA6E1200E16B010125
:102348004631E832030B1200176FF3501627F4508A
:10235800172312000900F5CFDEFFE8061200010E70
:10236800DEEC1AF00001DC99D6D8E20E9CEC13F0F2
:10237800CFD00001DCBD05D0E15103E0E16B71EC89
:102388002AF0DCADF6D79AEC08F02D0E0001E11921
:102398002FE1DCB12DD0E16B0101F46B23EE22F0CB
:1023A80011EEECF0070EDBCFE3FFE806FCE2EC0EE3
:1023B800146F010E156FF4C116F1BDEC17F0F46F30
:1023C800F40505E1010EBCD84CEC1AF00BD0020E56
:1023D800F41903E16FEC0DF005D0030EF41902E1D6
:1023E800C6EC25F00101F451E2E161EC25F0C1D71A
:1023F800280EE11907E1E16B010E0101A1D84CECAF
:102408001AF0B7D7290EE11904E1E16B6FEC0DF072
:10241800B0D72C0EE11916E1E16BDCADAAD7DCBB15
:1024280004D00101EB6BEB2B02D00101EB6BEB3B12
:10243800EB470001DC510101EB19DF0BEB1900013F
:10244800DC6F97D71E0EE11907E1E16BDC8FDF6BBC
:102458006BD8EAEC29F08DD7250EE11907E1DCB13C
:1024680005D0E16B61EC25F0010E13D0260EE119C1
:1024780007E1DCB105D0E16B61EC25F0020E09D073
:10248800270EE11908E1DCB106D0E16B61EC25F01B
:10249800040EDF1B6ED7220EE11907E1DCB105D06F
:1024A800E16B61EC25F0DF6B64D7230EE11908E1DD
:1024B800DCB106D0E16BDC9F37D8EAEC29F095D780
:1024C8001F0EE11904E1E16B79EC2AF052D7210ED5
:1024D800E11904E1E16B6EEC1BF04BD72B0EE1190F
:1024E80008E0240EE11901E044D7DCAF02D0DCA1FA
:1024F80040D72B0EE11906E10ED8DCA103D0DC9100
:1025080061EC25F0E16B90EC2AF0E20E9CEC13F004
:102518006EEC0BF02ED7D2C0E2F0D3C0E3F0D4C0FB
:10252800E4F0D5C0E5F01200010E0101016F860E3E
:10253800006F0001000EDCBF010E0101026F1200E6
:10254800596F800E586F800CDDAB1200DD9B3F0E7B
:10255800256EFE0ED9D8ADEC19F0000901E0120085
:10256800D20E256EFF0ED0D8ADEC19F0000901E0AF
:102578001200ED0E256EFD0E266E46EC2AF023C0E5
:1025880027F024C028F0D0D8ADEC19F0000901E0FC
:102598001200C90E256EFD0E266E37EC2AF023C0F8
:1025A80027F024C028F0C0D8ADEC19F0000938E0B5
:1025B800A60E1C6E1D6A1F6A0B0E1E6E206A6CEC3E
:1025C80029F00001B36B670EB325D96EDA6A050EE0
:1025D800DA22B351A60FE16EE26ADFCFE7FFB32B31
:1025E800090EB365F0D7A60EC4EC1FF02DC0B1F0EC
:1025F8002EC0B2F0B151B21109E1DB0E1C6EFF0E14
:102608001D6E1E6AFAEC29F0DD971200D70E1C6EBB
:10261800FF0E1D6E1E6AFAEC29F00001DD8712001C
:102628002C0E256EFE0E266E28EC2AF023C027F00D
:1026380024C028F079D8ADEC19F0000932E09CC329
:10264800E0F00001DDAF28D0340EE01902E1DF6BC5
:1026580005D0370EE01904E1DF810001DD8DDDD7FB
:10266800380EE01902E1DF83F8D7390EE01902E1EC
:10267800DF85F3D7300EE01906E1DC8FDF6B4BD82E
:102688009CEC27F0EAD7350EE019C7E1DC9FDD8D19
:1026980042D89CEC27F0C1D72A0EE019BEE1DD8FA5
:1026A800BCD7170E256EFE0E2FD8ADEC19F0000919
:1026B80018E13A0E256EFE0E27D8ADEC19F0000988
:1026C80010E1220E256EFE0E1FD8ADEC19F00009A0
:1026D80008E10B0E256EFE0E17D8ADEC19F00009B7
:1026E80004E00001DD97DD8F1200340E256EFE0E2A
:1026F8000BD8ADEC19F00009D8B412006C0E1C6EA2
:10270800FF0E1D6EF6EF1CF0266E276A286A2A6AED
:10271800020E296E020C010E1D6E860E1C6E000E36
:10272800DCBF010E1E6E12002A6A020E296E020C10
:102738000101486F416B426B010E316F800E306FA3
:102748003A6B446B456B466B476B230E0D6F010E5E
:102758000E6F440E0F6F010E106F41C111F142C18F
:1027680012F1F6EC21F0080E4127000E422344290D
:1027780007E1452905E1462903E1472901E187D019
:1027880044C100F145C101F146C102F147C103F15D
:10279800380E046F010E056F320E066F010E076FBB
:1027A8003C0E086F010E096F3B0E0A6F010E0B6F8E
:1027B800BDEC22F03B516BE0436B3C51010B2F6F9A
:1027C800D8903C332F055FE14351006F88D87FD8FC
:1027D800B3EC26F000C11FF101C120F102C121F1C3
:1027E80003C122F138C100F139C101F1026B036B59
:1027F8003C0E79D8B3EC26F000511F252B6F015100
:1028080020212C6F025121212D6F035122212E6F7F
:102818002BC100F12CC101F12DC102F12EC103F130
:10282800640E61D8B3EC26F000C13DF101C13EF160
:1028380002C13FF103C140F134513D5D35513E596C
:1028480036513F593751405902E33A511CE148513A
:10285800D96EDA6A3D51DE5C3E51DE583F51DE5892
:102868004051DE5810E2010E3A6F3DC134F13EC1CD
:1028780035F13FC136F140C137F1F80E4125306FCF
:10288800FF0E4221316F432B060E436596D7800E0B
:10289800415D010E425901E254D73A050CE1485115
:1028A800D96EDA6A34C1DEFF35C1DEFF36C1DEFF1C
:1028B80037C1DEFF07D04851D96EDA6ADE6ADE6AB0
:1028C800DE6ADD6A30C11DF131C11EF11200800ED1
:1028D800046F510E056F010E066F076B010C016B3B
:1028E800026B036B1200046F056B066B076B12001B
:1028F8000001DC97DD95F26AF16AF06A9E6AA16AC6
:102908009D6AA06A9F6AA26AD06ADF6B61EC25F0B3
:10291800D08EF28CF28EF28CCA84CD8EC80ECF6E19
:10292800CE6ACD809D800F0EC16E926A800E936E26
:10293800946A5A500101006F73EC14F06BEC14F0B8
:10294800B3EC26F000C1DAF301C1DBF302C1DCF31A
:1029580003C1DDF35250A2D869EC08F0B3EC26F0BD
:1029680000510301DA25DE6F010101510301DB216A
:10297800DF6F010102510301DC21E06F0101035106
:102988000301DD21E16F5350010188D83C0E77EC3B
:1029980014F0B3EC26F000510301DE25E26F0101CB
:1029A80001510301DF21E36F010102510301E0211D
:1029B800E46F010103510301E121E56F800EE22577
:1029C8000101F56FAE0E0301E3210101F66FFE0E62
:1029D8000301E4210101F76FFF0E0301E521010165
:1029E800F86FF5C100F1F6C101F1F7C102F1F8C1C4
:1029F80003F1640E77EC14F0B3EC26F031EC08F038
:102A0800896A8A6A8B6A240ECA6E010E016F860E65
:102A1800006F46EC29F00301DA6FDA33DA3300018C
:102A2800DC510301DA197F0BDA190001DC6F0101AF
:102A3800FA6B000E436E060E446EFA2BFA5124D838
:102A4800000EDE6E070E26D81FD8000EDE6E080EAA
:102A580021D81AD8000EDE6E090EDD6EFA2BF96B3E
:102A6800F95112D8DECF00F1DDCF01F105EC19F0F4
:102A780033EC29F0F92B030EF965F2D771EC2AF043
:102A8800B3EC11F085EF01F0020DF350430FD96E4E
:102A9800DA6A1200DD6EFA2BFA511200006F016B30
:102AA800026B036B12000001DCA71200DCBF86D0AA
:102AB800800E4B5C010E4C5801E380D0966B976BEF
:102AC800986B996B960E286E4BC029F04CC02AF073
:102AD800800E3CEC22F00001962906E1972904E1DA
:102AE800982902E1992965E09651886F070E971594
:102AF800896F0B0E366EACD8362EFDD796518A6F7D
:102B0800070E97158B6F0B0E366EA2D8362EFDD793
:102B180096517F0B926F070E366E9AD8362EFDD7D8
:102B28009651070B936F935144E0925142E0D2C003
:102B38001CF0D3C01DF0D4C01EF0D5C01FF0700E1D
:102B4800206E170E216E226A236A0AEC1FF01CC041
:102B580090F01DC091F090C01CF091C01DF0050EC2
:102B68001F6EA00E1E6E42EC27F01CC08EF01DC01A
:102B78008FF090C01CF091C01DF0050E1F6EA00EC6
:102B88001E6EFEEC26F01C28946F9451B8EC28F0C9
:102B98000001946F945192150CE088518E5D895113
:102BA8008F5907E38E518A5D8F518B5902E39351F8
:102BB8005112040E4B26000E4C22000CDCBF03D031
:102BC80051C08CF001D08C6B8D6B8CC0FBF1516ABD
:102BD8004B6A4C6ADF510101FB11200D81501F0B1C
:102BE800F3100001956F9551E00B50182AE058C07A
:102BF8001CF01D6A53C01EF09CEC27F057C01CF057
:102C08001D6A52C01EF09CEC27F05BC01CF01D6AC8
:102C18005AC01EF09CEC27F056C01CF01D6AEEC08E
:102C28001EF09CEC27F059C01CF01D6AEFC01EF086
:102C38009CEC27F05CC01CF01D6AF0C01EF09CECF8
:102C480027F000019551E00B506E95C081FF1200EE
:102C5800D89099339833973396331200536B546B4B
:102C68004E6B4F6B506B516B3E0E0D6F010E0E6F1E
:102C78004E0E0F6F010E106F37C111F138C112F1EE
:102C8800F6EC21F0010E526F556B3E0E5525D96EAC
:102C9800DA6A010EDA22DE2801E0526B552B070EA4
:102CA8005565F3D7800E371902E138051CE0390560
:102CB80004E1520504E1010E03D05251FCE0000E7C
:102CC8004C6F4D6B4C514D110EE037C13CF138C182
:102CD8003DF1D8903D333C3387D83C29536F000EE3
:102CE8003D21546F13D037C11DF138C11EF139C1D0
:102CF8001FF1216B206B6DEC1DF01DC137F11EC15A
:102D080038F1800E3719E1E13805DFE153515411EC
:102D180019E0E4C246F1E5C247F1E6C248F153C101
:102D28000DF154C10EF10F6B106B460E116F010EB1
:102D380068D868EC1FF0460E096F010E5CD873EC7A
:102D480020F006D0F40E096FFF0E55D873EC20F072
:102D58000101390539E1800E3A1902E13B052CE001
:102D6800480E096FFF0E0FEC0FF073EC20F0E7C26E
:102D780049F1E8C24AF1E9C24BF13AC13CF13BC121
:102D88003DF1010131D8D8903D333C333C2B000E46
:102D98003D233CC10DF13DC10EF10F6B106B490E87
:102DA800116F010E2ED868EC1FF0490E096F010E45
:102DB80028EC0FF073EC20F0AD0E0101096FFF0E47
:102DC8002FEC0FF073EC20F0A50E0101096FFF0E38
:102DD8000A6F0B6B060E0C6F0D6B73EC20F037C18E
:102DE80037F138C138F11200D8903D333C33D890D0
:102DF8003D333C3312000A6F0B6B0E0E0C6F0D6BDC
:102E08000E0C126F030E136F030C196B80D8DECFF4
:102E180016F1DDCF17F116C1D9FF17C1DAFFDFB2FE
:102E280019D075D810EE02F0E9EC04F01951020D32
:102E380012C116F113C117F1F3501627F4501723D6
:102E48000C0E1625D96E000E1721DA6E7ED82EECE0
:102E580025F0E76E5CD810EE03F0E9EC04F019C138
:102E6800E7FF192B090E1965D1D71A6B65D8DECF84
:102E780014F1DDCF15F114C1D9FF15C1DAFFDFB2A6
:102E88000AD05AD810EE02F0E9EC04F055D85DD813
:102E98002EEC25F0E76E1A51020DF3501225D96E6B
:102EA800F450132145D8E9EC04F01AC1E7FF1A2BB6
:102EB800040E1A65DBD751D874EC1CF0E9EC04F069
:102EC8004CD8DA2242D82EEC25F0E76E46D8DA2222
:102ED80010EE03F0E9EC04F0E76A0C0E44D80A0E91
:102EE8000B6F010E0C6FFCEC22F012C109F113C13B
:102EF8000AF1050E0B6F150E0C6FFCEC22F00A0E92
:102F080032D8010E0B6F120E0C6FFCEF22F0195124
:102F1800020D12C114F113C115F1F3501427F45026
:102F280015230C0E1425D96E000E1521DA6E120029
:102F3800DA6E10EE03F012001A51020DF35012254A
:102F4800D96EF4501321DA6E120000EE01F0DE5053
:102F5800E926DD50EA22EF50120020EE0AF0125165
:102F6800D926135112001225096F000E13210A6F7A
:102F7800120061EC25F00101165101E01607165107
:102F880002E10001DE6B01011C6B01D01C2B1C51FE
:102F9800020DF3501425D96EF4501521DA6EDE5067
:102FA800DE10F4E11C070001DE5113E172D885D868
:102FB80073EC20F001011C51165D1EE25BD8020E75
:102FC8001925D96E000E1A2172D87CD873EC20F01E
:102FD80013D0DE0511E1010116510AE04BD8FE0EAF
:102FE8001925D96EFF0E1A2162D867D873EC20F024
:102FF80050D868D873EC20F0FD0E0101096FFF0E60
:103008000A6FDEC00BF10C6B0D6B73EC20F02A0E0F
:103018000001E11905E1E16B010116291B6F25D0BB
:103028002B0EE11904E1E16B01011B6B1ED0280E88
:10303800E1190CE1E16B0101165105E016070001E9
:10304800DE0501E1DE6B61EC25F0ADD7290EE11953
:10305800AAE1E16B01011C51165DF5E2162B000196
:10306800DE51F1E1010EDE6FEED761EC25F00101D2
:103078001B5112001651176F186BD8901737183755
:1030880014C119F115C11AF11751192718511A232A
:10309800120001011651020DF3501425D96EF45097
:1030A8001521DA6EDECF09F1DDCF0AF11200DA6EF2
:1030B800DECF09F1DDCF0AF112000B6B010E0C6FA8
:1030C8000D6B010C010E0B6F0C6F0D6B010C07C122
:1030D80000F108C101F120EC29F007C10DF108C188
:1030E8000EF100510D2701510E23FF0E0D25196F0A
:1030F800FF0E0E211A6F0CBF09D00BC111F10CC1C4
:1031080012F10BC113F10CC114F105D0116B126B44
:10311800146B020E136F11C11DF112C11EF15DD0A7
:103128001D5148EC15F0DECF1FF1DDCF20F1156BF6
:10313800166B236B246B25D056D80DC1F6FF0EC134
:10314800F7FF0800F5501B6F1C6B2351FE08216F19
:103158002451D8A0E82A0008226F4CD8DF500F6FFE
:10316800106B0F511B1903E110511C1908E0100EC8
:103178001B191C1104E0166B010E156F0CD0234BA4
:10318800242B31D807510D5D08510E5904E3245101
:1031980002E12329D1E3155116111DE109510A1144
:1031A80012E0176B186B22510EE121290CE222D88C
:1031B80017510925E16E18510A2128D8174B182BE9
:1031C800214B222BF0D71FC100F120C101F119D8E2
:1031D80033EC29F0010C1D4B1E2B1D51135D1E51A4
:1031E80014599EE2000C2351195D0D6F24511A5990
:1031F8000E6F120021511F25D96E22512021DA6E3F
:103208001200010E036F026B046B010CE26EDFCF3C
:10321800E7FF120009EE00F011EE00F0EE6AE5504B
:10322800E150FCE1E250FAE108EE00F011EE00F0A6
:10323800EE6AE550E150FCE1E250FAE107EE00F0F9
:1032480011EE00F0EE6AE550E150FCE1E250FAE1DF
:1032580006EE00F011EE00F0EE6AE550E150FCE1F8
:10326800E250FAE105EE5CF0240EEE6AE806FDE1B4
:1032780004EE00F09E0EEE6AE806FDE102EEF6F0BE
:10328800080EEE6AE806FDE10101FB6B00EED2F0E4
:10329800140EEE6AE806FDE100EE43F0110EEE6A48
:1032A800E806FDE10E0EF66E4D0EF76E000EF86E96
:1032B80004EE9EF010EE57F00900F5CFEEFFE55052
:1032C800E150FAE1880EF66E410EF76E000EF86EC8
:1032D80003EE00F010EE9EF00900F5CFEEFFE5508A
:1032E800E150FAE1BE0EF66E540EF76E000EF86E5F
:1032F80002EEE4F010EE12F00900F5CFEEFFE55013
:10330800E150FAE1000EF66E550EF76E000EF86EFB
:1033180000EEE6F010EE0BF00900F5CFEEFFE550F9
:10332800E150FAE1160EF66E550EF76E000EF86EC5
:1033380000EE54F010EE09F00900F5CFEEFFE5506D
:10334800E150FAE15D905D92000EF86E00017CEFAD
:1033580014F025C01CF026C01DF07FEC29F025C014
:103368002BF026C02CF01C502B261D502C22FF0EB3
:103378002B24376EFF0E2C20386E2ABE09D029C0A8
:103388002FF02AC030F029C031F02AC032F005D021
:103398002F6A306A326A020E316E2FC03BF030C09D
:1033A8003CF062D03B5048EC15F0DECF3DF0DDCF6D
:1033B8003EF0336A346A416A426A25D05BD82BC032
:1033C800F6FF2CC0F7FF0800F550396E3A6A4150F5
:1033D800FE083F6E4250D8A0E82A0008406E51D837
:1033E800DF502D6E2E6A2D50391803E12E503A18F1
:1033F80008E0100E39183A1004E0346A010E336EF2
:103408000CD0414A422A36D825502B5C26502C58DD
:1034180004E3425002E14128D1E33350341022E161
:1034280027502810D8B4010C356A366A40500FE18D
:103438003F280DE226D835502724E16E3650282043
:103448000AEC19F0354A362A3F4A402AEFD73DC0E0
:103458001CF03EC01DF0010E1F6E1E6A206A6CEC47
:1034680029F0010C3B4A3C2A3B50315C3C50325815
:1034780099E2000C4150375C2B6E425038582C6E44
:1034880012003F503D24D96E40503E20DA6E1200A3
:1034980061EC25F0800E0101581902E1590504E09C
:1034A80058C1D6F059C1D7F0D6C037F1D7C038F1D6
:1034B8000101396B010E3B6F800E3A6F32EC16F04A
:1034C80037C1D6F038C1D7F0800E0001D61902E115
:1034D800D70514E02C0EE11911E1FD0E0101146F5E
:1034E800FE0E156F23EC28F0000908E0E16BD6C04A
:1034F8000DF1D7C00EF170EC28F0D6D7230EE119E4
:1035080009E1E16B010E0101576F800E566F1DEC4A
:1035180020F0CAD7800ED61902E1D7050BE0210E9C
:10352800E11908E1E16BD6C056F1D7C057F11DEC9F
:1035380020F0BAD7800ED61902E1D70510E02D0E7B
:10354800E1190DE1E16BD6C000F1D7C001F1010E20
:103558000101036F800E026F92EC2AF0A5D7280EA6
:10356800E11905E11ED8206B6DEC1DF008D0290E7D
:10357800E1190AE116D8010E206F6DEC1DF01DC18E
:10358800D6F01EC1D7F090D72B0EE11903E1E16BFD
:1035980061EF25F01E0EE11987E1E16BD66BD76B61
:1035A80083D7E16BD6C01DF1D7C01EF101011F6B97
:1035B800216B12000101256F0001DD95DAEC29F07D
:1035C80028EC26F0255109E061EC25F05D0E01019B
:1035D800006FFE0E016F78EC1CF0FA0E0101006F0F
:1035E800FF0E70D8C9EC29F00101156B140E146F89
:1035F80061EC27F03F0E5DD86BEC18F0000913E181
:10360800255152E063D861EC27F061EC25F0770E84
:103618000101006FFE0E016F78EC1CF0010156D815
:1036280061EC27F041D00001DD850101255109E059
:1036380061EC25F0A50E0101006FFE0E016F78EC1C
:103648001CF0CD0E0101006FFF0E3CD8C9EC29F02B
:103658003F0E01012ED86BEC18F00009F9E08E0E30
:10366800006FFE0E016F78EC1CF0810E0101006FF7
:10367800FF0E28D8C9EC29F03F0E01011AD86BECCF
:1036880018F00009F9E0420E006FFE0E016F78ECA9
:103698001CF001012551D8B41200156B780E146F77
:1036A80061EC27F061EF25F0255102E061EF25F08C
:1036B8001200076FFE0E086F096B0A6B0C6B020E87
:1036C8000B6F020C016F010E026F010C156BC80E17
:1036D800146FC80C61EC25F00501206B03019551AE
:1036E80048EC15F0DECFE9F1DDCFEAF1DF0E01019C
:1036F800E9250501236F000E0101EA210501246F68
:10370800266B23C5D9FF24C5DAFF000E2625E16EF6
:10371800E26A050EE222DFCFE7FF234B242B55D8C0
:10372800DF5003E152D8200EDF6E262B1F0E2665D0
:10373800E8D7000E0101096F050E0A6F4DD873EC2A
:1037480020F0210E0001E1190FE1E16B0DEC29F0E9
:103758000501256F2551C2E0255155EC2AF00501D8
:10376800255128EC26F0BAD72D0EE11915E1E16BA9
:103778000101476B486B496B4A6B4B6B87EC01F057
:1037880047C121F548C122F521C500F122C501F143
:10379800026BC9EC29F0A2D7280EE11906E1E16B0A
:1037A800030195519BE0950799D7290EE11907E187
:1037B800E16B030E0301956191D7952B8FD72B0EE3
:1037C800E1198CE1E16B61EF25F0000E2625D96E39
:1037D800DA6A050EDA2212000B6B0C6B010E0D6F04
:1037E800010C066B5BD8DF9059D8DF92062B090EC7
:1037F8000665F8D7076B6BD848D8DF9068D845D8E6
:10380800DF92072B040E0765F6D720EE0AF030D8B2
:10381800DF9020EE0AF02CD8DF9220EE04F0005161
:10382800D92601515DD8E9EC04F03A0EE76E20EE96
:1038380004F01ED8DF8220EE16F00051D92601517F
:103848004FD8E9EC04F02F0EE76E20EE16F010D8F2
:10385800DF8220EE10F00051D926015141D8E9EC61
:1038680004F02F0EE76E20EE10F002D8DF8212006F
:103878000051D9260151DA22DECF02F1DDCF03F162
:1038880002C1D9FF03C1DAFF1200DECF02F1DDCF9A
:1038980003F102C1D9FF03C1DAFF12000651020D7C
:1038A80000C102F101C103F1F3500227F4500323D0
:1038B8000C0E0225D96E000E0321DA6EDECF04F15C
:1038C800DDCF05F104C1D9FF05C1DAFF12000751A8
:1038D800020DF3500025D96EF4500121DA6E120062
:1038E800DA2210EE02F012000A6B0B6B0A51100D6F
:1038F800600E026F040E52D8200EDF6E0A516DEC76
:1039080026F063D84BD8DF9001010A516DEC26F000
:103918005CD844D8DF820B2B0F0E0B65E7D70A2B38
:10392800010E0A65E2D7066B076B33D0096B086B8B
:1039380025D009516DEC26F048D8036FF3500227C3
:10394800F450032308510225D96E000E0321DA6EC4
:10395800DF8201012FD80951100D600E046F040E8B
:10396800056FF3500427F450052308510425D96E38
:10397800000E052132D8064B072B082B100E0861C4
:1039880004D018D80800F550D4E1092B010E0965B8
:10399800CED710D80800F550C9E11BD0036FF350FB
:1039A8000227F45003230B510225D96E000E032180
:1039B800DA6E120006510025026F07510121036FCC
:1039C80002C1F6FF03C1F7FF1200400E026F040E9A
:1039D80012000001DD89DD811200DA6E0800F5CFE2
:1039E800DFFF1200266A276A2650100D600E1E6E31
:1039F800040E54D8200EDF6E26506DEC26F065D8E4
:103A08004DD80401DF9026506DEC26F05ED846D8DC
:103A1800DF82272A0F0E2764E7D7262A010E26649D
:103A2800E2D7226A236A34D0256A246A26D0255030
:103A38006DEC26F04AD81F6EF3501E26F4501F2254
:103A480024501E24D96E000E1F20DA6E0401DF8276
:103A580031D82550100D600E206E040E216EF350E3
:103A68002026F450212224502024D96E000E212033
:103A7800F1EC1CF0224A232A242A100E246004D0D8
:103A880019D80800F550D3E1252A010E2564CDD7B1
:103A980011D80800F550C8E1EDEF1CF01F6EF35087
:103AA8001E26F4501F2227501E24D96E000E1F20F8
:103AB800DA6E120022501C241E6E23501D201F6E29
:103AC8001EC0F6FF1FC0F7FF1200400E1E6E040E48
:103AD8001200800E1D1906E11E0504E1010E1E6F7D
:103AE800780E1D6F1DC135F11EC136F1010E2C6F08
:103AF800800E2B6F205121110DE1780E351905E14B
:103B0800360503E1356B366B11D0080E3527000EEC
:103B180036230CD03551361105E1010E366F780E7B
:103B2800356F04D0080E355F000E365B2F6B306B97
:103B3800316B326B230E0D6F010E0E6F2F0E0F6F50
:103B4800010E106F35C111F136C112F1F6EC21F0FA
:103B5800010E336F346B230E3425D96EDA6A010EE9
:103B6800DA22DE2801E0336B342B070E3465F3D7F5
:103B78001F0504E1330504E1010E03D03351FCE0D5
:103B8800000E2D6F2E6B2D512E1105E035C12BF136
:103B980036C12CF106D01D513519ACE11E5136192C
:103BA800A9E12BC11DF12CC11EF112000C6E0D0EE6
:103BB8000C1803E14DA44D8036D00A0E0C1805E10F
:103BC8004DA003D04DA44D822ED04DB002D04DA2B1
:103BD80002D04D904D920A0E0C1825E04D940D6AB6
:103BE8000E6A0D504924086E0E504A20096E0828A6
:103BF800D96E000E0920DA6E0D504924E16E0E5080
:103C08004A20E26EDFCFE7FF0D4A0E2A0E5003E18D
:103C1800FE0E0D5CE6E320EEFEF04950D9264A5030
:103C2800DA220CC0DFFF4DB04DA212004D904D922C
:103C38004D8443C00AF044C00BF00F6A0F50020DC8
:103C4800F350450FD96EDA6A0F50020DF350430F47
:103C5800E16EE26ADECFE6FFDDCFE5FF0F2A020E56
:103C68000F64ECD70AC049F00BC04AF049C001F014
:103C78004AC002F0010E046E036A056A92EC29F04C
:103C88000001DD8B1200F2CF05F1F29EF29C8290CA
:103C980082945AD8E82EFED7042FFCD755D8E82EA0
:103CA800FED7042FFCD7030E57EC28F0410E046F03
:103CB800EE0EE82EFED7042FFCD700D0030E57ECEB
:103CC80028F0DC0E00D0E82EFDD7030E57EC28F0C4
:103CD800850EE82EFED700F0020E57EC28F0850E70
:103CE800E82EFED700F02C0EE5EC28F0850EE82E25
:103CF800FED700F0080EE5EC28F0850EE82EFED77A
:103D080000F0010EE5EC28F0850EE82EFED700F055
:103D1800120EE5EC28F0850EE82EFED700F0829012
:103D28008294010EE5EC28F01A0E0101046FF80EDA
:103D3800E82EFED7042FFCD700D0F2507F0B0101EC
:103D480005118009F26E1200820E0101046FDE0C6B
:103D5800096B07AF0AD0071F061F051F046D000E69
:103D6800052306230723010E096F03AF0AD0031F9B
:103D7800021F011F006D000E012302230323010E01
:103D8800091B0A6B0B6B0C6B0D6B045105110611AB
:103D9800071129E0010E086F06D0D89004370537BF
:103DA80006370737082B07AFF8D7D8900A370B37ED
:103DB8000C370D370451005D055101590651025960
:103DC8000751035909E30451005F0551015B06518E
:103DD800025B0751035B0A81D8900733063305332A
:103DE8000433082FE2D7095108E00D1F0C1F0B1FE1
:103DF8000A6D000E0B230C230D230AC100F10BC121
:103E080001F10CC102F10DC103F11200256A23AEC4
:103E18000AD0231E221E211E206C000E21222222DF
:103E28002322010E256E1FAE0AD01F1E1E1E1D1E48
:103E38001C6C000E1D221E221F22010E251A266A46
:103E4800276A286A296A205021102210231029E0A5
:103E5800010E246E06D0D89020362136223623361D
:103E6800242A23AEF8D7D89026362736283629367E
:103E780020501C5C21501D5822501E5823501F589A
:103E880009E320501C5E21501D5A22501E5A23500F
:103E98001F5A2680D8902332223221322032242EF3
:103EA800E2D7255008E0291E281E271E266C000E82
:103EB80027222822292226C01CF027C01DF028C04E
:103EC8001EF029C01FF0120054D8FF0E1425D96E19
:103ED800FF0E1521DA6EDF5001E11307010E166F90
:103EE80048D81651145DD96E1551D8A01505DA6E4B
:103EF8000DC100F10EC101F10FC102F110C103F1B2
:103F08000A0E046F056B066B076BF7EC25F0005182
:103F18002EEC25F0DF6E0DC100F10EC101F10FC1CD
:103F280002F110C103F10A0E046F056B066B076BF3
:103F380079EC23F000C10DF101C10EF102C10FF1BE
:103F480003C110F1162B165113C114F1156B145F30
:103F5800000E155B142B152315BF000C155103E13A
:103F68001405D8A012000D510E110F111011B8E14F
:103F7800120013511125146F000E1221156F120033
:103F8800806F0001816B826B850E296E2A6A8251CF
:103F9800210D870EF3242B6E010EF4202C6EFAEC03
:103FA80024F00001A50538E1836B01D0832B83C081
:103FB8002FF0120E2F262F50850FD96EDA6ADF5098
:103FC800F5E1846B15D08451805DD96EDA6A090EEB
:103FD800D926845185088325E16EE26A110EE1260F
:103FE800DE50E61802E0816B15D0010E816F842B3C
:103FF8000A0E84610FD0845183C02FF0306A2F5E7F
:10400800000E305A2F2A302230BE04D03050DBE167
:104018002F04D9E2815104E1822B0F0E8265B4D7B7
:10402800815104E0850E2D6E2E6A12002D6A2E6ACB
:10403800120061EC25F0D8C037F1D9C038F1010E73
:104048000101396F56C13AF157C13BF132EC16F014
:1040580037C1D8F038C1D9F0800E0001D81902E173
:10406800D90515E02D0EE11912E1E16BD8C000F178
:10407800D9C001F156C102F157C103F192EC2AF0FF
:10408800E806D9E123D8206B6DEC1DF00DD0280E81
:10409800E11902E1E16BF6D7290EE1190AE1E16BBA
:1040A80015D8206F6DEC1DF01DC1D8F01EC1D9F0D8
:1040B800C2D72B0EE11903E1E16B61EF25F01E0E6B
:1040C800E119B9E1E16BD86BD96BB5D7D8C01DF14F
:1040D800D9C01EF1010E01011F6F216B010C116B7C
:1040E800126B30D00BC113F101010B6B010E13657C
:1040F80001D028D00CC110F10C6B12D010C100F106
:1041080001012AD8F76403D00800F55001D032D84D
:104118000101016F135113EC21F0114B122B102BDD
:10412800100E106109D018D8F76403D00800F550B4
:1041380001D020D80009E2E101010D5101E112008E
:10414800132BD4D709D8F76403D00800F55001D051
:1041580011D80009C7E11200115109250E6F12513B
:104168000A210F6F0EC1F6FF0FC1F7FF000EF86EA0
:104178000F0E1200F6CFE9FFF7CFEAFFEF5012005B
:10418800BBFFC1FFC7FFB4FF00008BFF3AFF9DFFD5
:1041980000000DFF2BFF94FF00002020202020208E
:1041A800200055FF61FF77FF0000707172733700C0
:1041B8007778797A3900E0E1E2E33200E4E5E6E78E
:1041C8003300E8E9EAEB3400ECEDEEEF3500F0F10E
:1041D800F2F33600F4F7F6F73700F8F9FAFB38008F
:1041E800FCFDFEFF390061626332006465663300DE
:1041F80067686934006A6B6C35006D6E6F360074E1
:104208007576380020202000202020002030003043
:104218002B00202000022020202020202000086FD2
:1042280001C107F13FD832D8DF50066F010E046F85
:1042380008516DEC26F03DD829D8DFB204D00651DC
:10424800071901E1046B010108516DEC26F031D822
:104258001DD804B102D0DF9201D0DF82010E010126
:10426800056F0001DDB105D001010651071901E113
:10427800056B010105B103D00001DD9102D00001F9
:10428800DD8110D803D807C1DFFF1200036FF35098
:104298000227F450032300510225D96E000E032192
:1042A800DA6E120001010851100D000E026F040EA3
:1042B8001200200E026F040E1200096B03AF03D028
:1042C80040D8010E096F07AF08D0071F061F051F4A
:1042D800046D000E0523062307230451051106115A
:1042E800071123E0010E086F06D0D8900437053770
:1042F80006370737082B07AFF8D70451005D05517B
:104308000159065102590751035908E30451005F46
:104318000551015B0651025B0751035BD8900733D7
:10432800063305330433082FE8D7095101E009D8CB
:1043380000C100F101C101F102C102F103C103F1A1
:104348001200031F021F011F006D000E012302232C
:104358000323000C01010351041101E1120024EEB2
:10436800B0F011EE07F0110EDBCFE3FFE806FCE238
:10437800196B09D02BD820D8E16E010E0621E26E08
:10438800DFCFE7FF192B22D8DF50F4E115D825D865
:104398003B0EDF6E1951056F066B040E0527000EE4
:1043A8000623070E052519D8DF6A070E006F010ED0
:1043B80066EC1BF0C9EF29F01951056F066B030E67
:1043C8000527000E0623070E05251200195103259F
:1043D800D96E000E0421DA6E1200D96E010E062184
:1043E800DA6E12000DC104F10EC105F111C106F11A
:1043F80012C107F1096B080E086FD3EC27F01C6B8C
:10440800030E1B6F1B510D25D96E1C510E21DA6E40
:10441800DF5029D8DECF13F1DECF14F1DECF15F14E
:10442800DECF16F115C116F114C115F113C114F13F
:10443800136B1325176F000E1421186F000E15212A
:10444800196F000E16211A6F0ED817C1DEFF18C19A
:10445800DEFF19C1DEFF1AC1DEFF1B07D8A01C074B
:104468001CBF1200CFD70FC1D9FF10C1DAFF12004D
:10447800336E29C020F02AC021F0236A080E226E6C
:1044880033503DEC28F0356A030E346E2850D96E4F
:10449800DA6ADECF2BF0DECF2CF0DECF2DF0DECFC8
:1044A8002EF02DC02EF02CC02DF02BC02CF02B6A36
:1044B80033503424D96EDA6ADF502B242F6E000E65
:1044C8002C20306E000E2D20316E000E2E20326E04
:1044D8002850D96EDA6A2FC0DEFF30C0DEFF31C047
:1044E800DEFF32C0DEFF3406D8A0350635BE120026
:1044F800CDD768EC2AF000C110F101C111F102C159
:1045080012F103C113F101010451105D0551115954
:10451800065112590751135919E20451105D0C6FD5
:10452800055111590D6F065112590E6F0751135944
:104538000F6FFF0E0C25106FFF0E0D21116FFF0E70
:104548000E21126F0F0E0F21136F08D00451105F48
:104558000551115B0651125B0751135B0851105D41
:10456800095111590A5112590B511359D8B0010C5C
:10457800000C25D804C1D9FF05C1DAFF32D82BD8E1
:104588000C2FFDD71CD806C1D9FF07C1DAFF29D8DF
:1045980022D80C2FFDD700517F0B08C1D9FF09C1C4
:1045A800DAFFDF6E070E0C6F16D80C2FFDD70051FF
:1045B800070B0AC1D9FF0BC1DAFFDF6E12000C69C5
:1045C800070E0D6F00C10EF101C10FF10C510E174E
:1045D8000D510F171200D890033302330133003303
:1045E80012000EC1DEFF0FC1DDFF0B0E0C6F0B0CAE
:1045F800116B31D034D89CEC17F0E9EC04F0E7509B
:104608000C25106F10390F0B0F6F0F0502E1100EFC
:10461800105F10C100F123D8DA6E10EE02F0E9EC59
:1046280004F0E750016F0F5113EC21F010C100F1B5
:1046380016D8DA6EDECF0DF1DDCF0EF10DC1D9FF40
:104648000EC1DAFF000EDFB0010E016F0F5158ECFA
:1046580026F00101112B0B51115DCCE31200115111
:10466800020DF3500925D96EF4500A211200026F89
:104678000101020505E1E20E006FFF0E016F120055
:10468800020E021905E1EB0E006FFF0E016F12001A
:10469800030E021905E1E50E006FFF0E016F12000F
:1046A800040E021905E1F10E006FFF0E016F1200F2
:1046B800050E021905E1EE0E006FFF0E016F1200E4
:1046C800060E021905E1DF0E006FFF0E016F1200E2
:1046D800070E021905E1E80E006FFF0E016F1200C8
:1046E800F70E006FFF0E016F1200086B096B0A6B63
:1046F8000B6B045105110611071129E0010E0C6F0F
:1047080006D0D89004370537063707370C2B07AF84
:10471800F8D7D890083709370A370B370451005DA6
:1047280005510159065102590751035909E304512A
:10473800005F0551015B0651025B0751035B08816D
:10474800D89007330633053304330C2FE2D708C15A
:1047580000F109C101F10AC102F10BC103F1120014
:10476800236E82840001DCABDDB703D01F6A206AA8
:1047780003D0206A200E1F6E2338E8461F0B1E0B3D
:104788001F1023D819EC2AF01AD819EC2AF08284C1
:104798000001DCABDDB703D0216A226A03D0226AAC
:1047A800200E216E2350100DF338E8461F0B1E0B08
:1047B80021100BD819EC2AF002D819EF2AF08290B0
:1047C80082941D6A050E1C6E190C806E82801D6A0B
:1047D800010E1C6E0A0C0600E1CF12F0E2CF13F0B6
:1047E800D9CF14F0DACF15F0F3CF16F0F4CF17F0D5
:1047F800F6CF18F0F7CF19F0F8CF1AF0F5CF1BF075
:1048080004009EAA04D0AE50DAEC1DF003D09EB886
:1048180028EC24F01BC0F5FF1AC0F8FF19C0F7FFF9
:1048280018C0F6FF17C0F4FF16C0F3FF15C0DAFF73
:1048380014C0D9FF13C0E2FF12C0E1FF11C0EAFFA4
:1048480010C0E9FF5D9211000001DA51DB1104E1AB
:10485800ACA202D0AC9A120025D8F76403D00800A5
:10486800F55002D0BEEC20F000090AE1ACA2FED758
:104878000D0EAD6E0A0EAD6E0001DA6BDB6B120029
:104888000001DA51DB11D8B412000CD8F76403D058
:104898000800F55002D0BEEC20F0AD6E0001DA4BF6
:1048A800DB2B1200DAC0F6FFDBC0F7FF000EF86E54
:1048B8000F0E12000EC100F10FC101F110C102F17B
:1048C80011C103F1700E8AEC08F0ACEC1EF000C1C7
:1048D80016F101C117F116C100F117C101F1050E5A
:1048E800036FA00E026F23EC27F012C1D9FF13C18A
:1048F800DAFF00C1DEFF01C1DDFF16C100F117C1FB
:1049080001F1050E036FA00E026FD9EC26F0002905
:1049180014C1D9FF15C1DAFFDF6E12000DC104F111
:104928000EC105F10FC106F110C107F1096B110E97
:10493800086F7FEC27F0110E0F27000E1023110EC1
:1049480016D80E0E086F7FEC27F00E0E0F27000EFC
:1049580010231F0E0CD8010E086F7FEC27F00F4BA9
:10496800102B200E04D8010E086F7FEF27F00D25BD
:10497800046F000E0E21056F0FC106F110C107F17B
:10498800096B12000DC104F10EC105F10FC106F14A
:1049980010C107F1096B110E086FD3EC27F0110E47
:1049A8000F27000E1023110E16D80E0E086FD3EC29
:1049B80027F00E0E0F27000E10231F0E0CD8010E25
:1049C800086FD3EC27F00F4B102B200E04D8010EE4
:1049D800086FD3EF27F00D25046F000E0E21056F29
:1049E8000FC106F110C107F1096B120029C020F0B0
:1049F8002AC021F02BC022F02CC023F0256A110E0A
:104A0800246EEEEC27F0110E2B26000E2C22110E30
:104A180016D80E0E246EEEEC27F00E0E2B26000E86
:104A28002C221F0E0CD8010E246EEEEC27F02B4A18
:104A38002C2A200E04D8010E246EEEEF27F029242C
:104A4800206E000E2A20216E2BC022F02CC023F0ED
:104A5800256A1200006F01010051D8B4300C010A18
:104A6800D8B4310C030AD8B4320C010AD8B4330CC8
:104A7800070AD8B4340C010AD8B4350C030AD8B4E0
:104A8800360C010AD8B4370C0F0AD8B4380C010A0E
:104A9800D8B4390C030AD8B4410C010AD8B4420C72
:104AA800070AD8B4430C010AD8B4440C030AD8B492
:104AB800450C010AD8B4460C3F0C0101026B036B8C
:104AC8000251100D000E006F040E1AD8200EDF6E72
:104AD80002516DEC26F020D813D8DF900101025165
:104AE8006DEC26F019D80CD8DF82032B0F0E036566
:104AF800E7D7022B010E0265E2D70001DD81010C28
:104B0800016FF3500027F450012303510025D96E9B
:104B1800000E0121DA6E1200200E006F040E120042
:104B28001C6E1C50D8B4270C010AD8B42B0C030AED
:104B3800D8B42A0C010AD8B4290C070AD8B4280C0E
:104B4800010AD8B42D0C030AD8B4210C010AD8B430
:104B5800240C0F0AD8B41F0C010AD8B4200C030A7D
:104B6800D8B4230C010AD8B4220C070AD8B4260CEE
:104B7800010AD8B41E0C030AD8B42C0C010AD8B404
:104B8800250C000C0001E16B0101C56B23EE12F04E
:104B980011EEBCF0070EDBCFE3FFE806FCE2BC0E2B
:104BA800146F010E156FC5C116F1BDEC17F0C56F76
:104BB800C50503E154EC05F012D0020EC51909E150
:104BC8000DEC29F0C46FC4510AE0C45155EC2AF029
:104BD80006D0030EC51903E1010EDEEC1AF001013F
:104BE800C551DDE11200045105110611071123E03A
:104BF800010E086F06D0D8900437053706370737F7
:104C0800082B07AFF8D70451005D0551015906512B
:104C180002590751035908E30451005F0551015B2C
:104C28000651025B0751035BD890073306330533FF
:104C38000433082FE8D700C100F101C101F102C116
:104C480002F103C103F112000101026F020504E140
:104C5800200E016F8C0E17D0020E021904E1100EFF
:104C6800016F450E10D0040E021904E1020E016F07
:104C7800080E09D0050E021903E1016BAC0E03D032
:104C8800040E016F100E006F948C948EB886AC845D
:104C980000C1AFFF01C1B0FF9F8A9F88AC98AB8E5F
:104CA8009D8A9D88AB881200046F0101015105E0BF
:104CB80004510FD819D8DF8004D004510AD814D869
:104CC800DF900101045105D80FD8DF820001DD8192
:104CD8001200010DF33AF43AF00EF416F3500F0BEC
:104CE800F412F00EF316F00C200E026F040E036F90
:104CF800F3500227F450032300510225D96E000E09
:104D08000321DA6E12002D3D3F2B3B3A28292E2C29
:104D18002A213C3E7E2F220041544420202020207E
:104D2800202020202020202020002020202020209B
:104D38002020202020202020202000B9202020EF23
:104D4800EE202D2D3A2D2D001F1C1F1E1F1E1F1F6C
:0D4D58001E1F1E1F2D2D3A2D2D3A2D2D0052
:104D6600086B096B0A6B0B6B00A108D0045108276E
:104D76000551092306510A2307510B23D8900437FE
:104D8600053706370737D89003330233013300332C
:104D96000051011102110311E7E108C100F109C137
:104DA60001F10AC102F10BC103F11200056B066B9A
:104DB600025103111BE0010E046F04D0D890023794
:104DC6000337042B03AFFAD7D890053706370251BD
:104DD600005D0351015905E30251005F0351015B78
:104DE6000581D89003330233042FEED705C100F1B5
:104DF60006C101F11200216A226A1E501F101BE033
:104E0600010E206E04D0D8901E361F36202A1FAE03
:104E1600FAD7D890213622361E501C5C1F501D58DA
:104E260005E31E501C5E1F501D5A2180D8901F326C
:104E36001E32202EEED721C01CF022C01DF012001B
:104E46000251031117E0010E046F04D0D890023707
:104E56000337042B03AFFAD70251005D0351015902
:104E660004E30251005F0351015BD8900333023320
:104E7600042FF2D700C100F101C101F112001E504A
:104E86001F1017E0010E206E04D0D8901E361F3674
:104E9600202A1FAEFAD71E501C5C1F501D5804E373
:104EA6001E501C5E1F501D5AD8901F321E32202ED7
:104EB600F2D71CC01CF01DC01DF0120068EC2AF0D1
:104EC60000C116F101C117F102C118F103C119F1B0
:104ED60016C104F117C105F118C106F119C107F190
:104EE60014C108F115C109F101010A6B0B6B7DECC8
:104EF60022F00009EDE012000C6B12D00C510625D1
:104F0600006F000E0721016F0C510425D96E000EAB
:104F16000521DA6EDF50026FEAEC29F001010C2B55
:104F26000C510A6F0B6B08510A5D09510B59E6E3E8
:104F36001200F2CF1FF0F29EF29C04001DC0AAFFE1
:104F46001CC0A9FF1EC0A8FF03D81FC0F2FF120095
:104F5600A69EA69CA684550EA76EAA0EA76EA6822E
:104F6600A694A6B2FED7A19812000101016F036BA9
:104F7600005114E0010E026F03D0D8900037022BC7
:104F860000AFFBD7D89003370051015D03E3005112
:104F9600015F0381D8900033022FF4D7035112002A
:104FA6000C6B10D00C510425D96E000E0521DA6E5B
:104FB6000C510625006F000E0721016F46EC29F003
:104FC600DF6E0C2B0C510A6F0B6B08510A5D0951F1
:104FD6000B59E8E31200286A10D028502024D96E15
:104FE600000E2120DA6E285022241C6E000E23208B
:104FF6001D6EB7EC29F0DF6E282A2850266E276A28
:105006002450265C25502758E8E312000C0E12D8CF
:105016000A0E026FA0EC28F006C100F107C101F1EB
:10502600050E026FA0EC28F00A0E04D8010E026FDE
:10503600A0EF28F00625006F000E0721016F120071
:1050460061EC25F014C109F115C10AF10101F0EC7A
:105056001BF073EC20F02A0E0001E11904E1E16B6C
:1050660061EC25F0010C2B0EE119ECE1E16B61EC32
:1050760025F0000C266E276A0ED026502724D96EFE
:10508600DA6A275020241C6E000E21201D6EB7EC14
:1050960029F0DF6E272A2750246E256A2250245CC9
:1050A60023502558EAE312000101006F82940001A3
:1050B600DCABDDB704D00101016B026B04D001014A
:1050C600026B200E016F0051020DF3501E0B0111F1
:1050D60000D0806E8280829012000F0E0101006F58
:1050E600010E016F036B080E026F046933EC29F0A1
:1050F6000F0E046F010E056F0DC106F10EC107F10B
:10510600096B080E086F7FEF27F0016F1D0E000177
:10511600E165FF0C280EE161FF0CE151E20F010190
:10512600026F0151025D08E30251005D05E30001D3
:10513600E16B010102511200FF0C056B12D0055103
:10514600020DF3500025D96EF4500121DA6EDECF40
:1051560003F1DDCF04F103C1D9FF04C1DAFFDF900B
:10516600052B0251055DEBE312001C6E1C50010A73
:10517600D8B4010C030AD8B4020C010AD8B4040C42
:10518600070AD8B4080C010AD8B4100C030AD8B41C
:10519600200C010AD8B4400C000C00D0480ED225D1
:1051A6000201F66FF40E0001D3210201F76FFF0E24
:1051B6000001D4210201F86FFF0E0001D521020182
:1051C600F96F12000101036F03390F0B57EC28F03A
:1051D600850EE82EFED700F0010103510F0B57ECA8
:1051E60028F0850EE82EFED700F012000101016FAF
:1051F600080E026F036BD89001350335036FD89004
:1052060001370051035D02E30051035F022FF3D71C
:105216000351120023EE00F011EE1DF0090EDBCF54
:10522600E3FFE806FCE21D0E0101146F010E156F87
:10523600DAEC29F0166FBDEF17F0026B036B04D0A2
:10524600024B032B004B012B00C1F6FF01C1F7FFF8
:105256000800F550F5E102C100F103C101F11200A9
:10526600056B066B0AD005510025D96E0651012142
:10527600DA6E04C1DFFF054B062B0251055D0351B3
:105286000659F1E31200F2CF02F1F29EF29C0400FD
:1052960001C1AAFF00C1A9FFA69EA69CA680A8CF11
:1052A60003F102C1F2FF0101035112001C6E829448
:1052B6000001DCABDDB703D01D6A1E6A03D01E6A8F
:1052C600200E1D6E1C50020DF3501E0B1D106CEFB0
:1052D60028F0216A226A0AD021501C24D96E225055
:1052E6001D20DA6E20C0DFFF214A222A1E50215CD3
:1052F6001F502258F1E312001E6A1F6A04D01E4A8C
:105306001F2A1C4A1D2A1CC0F6FF1DC0F7FF0800F5
:10531600F550F5E11EC01CF01FC01DF01200066A14
:10532600076A0AD006500124D96E07500220DA6EA9
:1053360005C0DFFF064A072A0350065C04500758DB
:10534600F1E312001F6E1F380F0B59EC29F0850E82
:10535600E82EFED700F01F500F0B59EC29F0850EF2
:10536600E82EFED700F01200F2CF1EF0F29EF29C5D
:1053760004001DC0AAFF1CC0A9FFA69EA69CA6806D
:10538600A8CF1FF01EC0F2FF1F50120000510111DE
:10539600D8B4120000C1DAF001C1DBF0AC8A0251C8
:1053A600D8B412000001DA51DB11FCE11200030E41
:1053B6000101016F980E006F46EC29F0046F04514D
:1053C60002E0042902E1030E046F04511200F2CF39
:1053D60003F1F29EF29C040001C1AAFF00C1A9FFDD
:1053E60002C1A8FFABEC27F003C1F2FF12001C506C
:1053F6001D10D8B412001CC0DAF01DC0DBF0AC8A58
:105406001E50D8B41200DA51DB11FDE11200010181
:10541600006F0001DD81640E556E010100B103D0FD
:105426000001DD9302D00001DD8312001E6E09D05B
:10543600CC6A1EC0CBFF9E929EA2FED71C06D8A0A9
:105446001D061C501D10F4E11200960E1C6E030E74
:105456001D6E1F6A080E1E6E206A6CEC29F0960EF1
:10546600236E030E246E12005C0E1C6E050E1D6E5E
:105476001F6A240E1E6E206A6CEC29F05C0E236EE9
:10548600050E246E1200800E1C6E040E1D6E1F6A21
:105496001E0E1E6E206A6CEC29F0800E236E040E22
:1054A600246E12000101046F030E016F980E006F47
:1054B60004C102F1EAEF29F0202000202000340088
:1054C60035003600370038003900FAC200F1FBC259
:1054D60001F1FCC202F1FDC203F1120047EC1EF01D
:1054E6000C0EE5EC28F00001DC8D1200DC9B080EAA
:1054F600E5EC28F00001DC9D12003100320033009B
:0555060080010101011C
:10550C00DDA91200E16BDD991200FF4683818084D6
:03551C0001828584
:06552000D1EF28F012009B
:10FDA80000456E676C697368D0F3F1F1EAE8E92001
:10FDB8002020203132330020E0E020C0E020C0C005
:10FDC800002B434C49503A202210101010101010EC
:10FDD800101010101010222C3134352C22222C2C0B
:10FDE80022222C30002B43434C4B3A202210102F58
:10FDF80010102F10102C10103A10103A101010106C
:10FE08001022004E4F204449414C544F4E45004E5D
:10FE18004F2043415252494552004E4F20414E53C4
:10FE2800574552002B44544D463A10004552524F04
:10FE3800520042555359004F4B00CDE0F1F2F0EE1D
:10FE4800E9EAE020ECEEE4F3EBFF2E2E2E204F4BF8
:10FE580020204F4B00CFEEE8F1EA2047534D2D20EC
:10FE68002020202020ECEEE4F3EBFF2E2E2E00477E
:10FE7800534D2DECEEE4F3EBFC20EDE5202020EDD6
:10FE8800E0E9E4E5ED00CDE0F1F2F0EEE9EAE020AA
:10FE9800ECEEE4F3EBFF2E2E2E204F4B00CDE0F1DD
:10FEA800F2F0EEE9EAE020ECEEE4F3EBFF2E2E2E82
:10FEB800002020202020202020202020202020205A
:10FEC800200020202020203CEFF3F1F2EE3E2020FD
:10FED800202000D0E0F1EFE8F1E0EDE8E520EEF2D7
:10FEE800EAEB2E00CEF2EFF0E0E2E8F2FC20E2FBD3
:10FEF800E7EEE23F00D3E4E0EBE8F2FC20E7E0EFD6
:10FF0800E8F1FC3F00D3F1F2E0EDEEE22E20E2F062
:10FF1800E5ECFF00D3E4E0EBE8F2FC20EDEEECE5E5
:10FF2800F03F00D1EAEEF0EEF1F2FC2055534152D9
:10FF38005400CDE0E1F0E0F2FC20EDEEECE5F0005D
:10FF4800EAEEEFE8F0EEE2E0F2FC20F100CFEBE0C1
:10FF5800EDE8F0EEE2F9E8EA00D2E5EB2E20EAED72
:10FF6800E8E3E000CEF8E8E1EAE02047534D00CDB1
:10FF7800E0F1F2F0EEE9EAE80041542B444445543C
:10FF88003D3100C8E7ECE5EDE8F2FC00496E697424
:10FF98002047534D00D3E4E0EBE8F2FC00E7E0EF44
:10FFA800E8F1FC2000EDEEE2E0FF200020313932DC
:10FFB80030300020313230300020323430300020F0
:10FFC8003936303000415445300052494E470041DF
:10FFD80054410041544800F1E100EFED00F1F00018
:10FFE800E2F100E2F200EFF200F7F2002D2D003FFF
:08FFF8003F00415400BB000072
:020000040030CA
:0E000000FF861E1EFF0581FF0FC00FE00F40A0
:00000001FF
