:0400000094EF01F088
:0E0008005B82E9CF10F0EACF11F0C6ED27F0D1
:100018005B80D8CF16F1E8CF17F1E0CF18F1E1CF28
:1000280019F1E2CF1AF1D9CF1BF1DACF1CF1F3CFD6
:100038001DF1F4CF1EF1F6CF1FF1F7CF20F1F8CF65
:1000480021F1F5CF22F104009EA04CD10001BE2B76
:10005800000EBF23C023C1239E90C80ECF2652ECAA
:1000680018F04B50BA5D0101126F4C500001BB599A
:100078000101136F4D500001BC590101146F4E501E
:100088000001BD590101156F15BF0AD01551141192
:1000980005E1710E125D170E135902E3010E01D02E
:1000A800000E236F235103E0AEEC2EF0C293000143
:1000B800C3A909D0440E0101246F050E256FB30EA4
:1000C8002B6F040E08D0240E0101246F050E256F36
:1000D800930E2B6F040E2C6F0001C2ADAED0640ED0
:1000E800591802E0C3A1A9D001012F6B2D6B2E6B0B
:1000F800640E59181BE02F51010DF33AF43AF00E33
:10010800F416F3500F0BF412F00EF3162BC112F184
:100118002CC113F1F3501227F45013232D5112253B
:10012800D96E2E511321DA6EDFA277D02F51100D20
:1001380024C112F125C113F1F3501227F4501323EF
:100148002D511225D96E2E511321DA6EDF50266FEC
:100158002F51400DF3502D25800929EC2EF0010177
:100168002F51010DF33AF43AF00EF416F3500F0B39
:10017800F412F00EF3162BC112F12CC113F1F35047
:100188001227F45013232D511225D96E2E51132105
:10019800DA6EDFA021D02F51010DF33AF43AF00EB8
:1001A800F416F3500F0BF412F00EF3162BC112F1E4
:1001B8002CC113F1F3501227F45013232D5112259B
:1001C800D96E2E511321DA6EDFA003D00001C3B31C
:1001D80003D05F0E0101266F0101265165EC0EF078
:1001E8008BEC27F001012F51010DF33AF43AF00E90
:1001F800F416F3500F0BF412F00EF3162BC112F194
:100208002CC113F1F3501227F45013232D5112254A
:10021800D96E2E511321DA6EDF922D4B2E2B2EBF65
:1002280067D72E5104E1100E2D5D01E261D72F2B07
:10023800010E2F655BD70001C391595002E05906A2
:1002480016D0C381640E596EC3B304D00101126B7A
:10025800122B02D00101126B12470001C351010198
:100268001219FD0B12190001C36F21EC2FF0525027
:1002780002E0520635D00001CE6B81AE24D00F0EBD
:10028800531802E1536A01D0532A53C027F10101E0
:10029800286B2A6B040E296F020E2803F350286F6F
:1002A80027B1282BD89027332907D8A02A072ABF97
:1002B80004D02A51F1E12905EFE22851020DF3CFCC
:1002C80081FF58680DD058280BE153C058F058509A
:1002D80006EC2AF00001CE6F0A0E526E7EEC2FF06B
:1002E80054EC10F0F2B4F29422C1F5FF21C1F8FFEA
:1002F80020C1F7FF1FC1F6FF1EC1F4FF1DC1F3FFA8
:100308001CC1DAFF1BC1D9FF1AC1E2FF19C1E1FF05
:1003180018C1E0FF17C1E8FF16C1D8FF5B901000B5
:10032800F1EF1BF0A0EC29F0C2899FDB700E0101F0
:10033800D6DB5DEC20F05EDB76C20CF277C20DF204
:1003480078C20EF279C20FF202016C6B6C51040D87
:10035800410E0101546F020E56DB6C51020DE4DAB6
:100368006C2B040E6C65F2D76D6B6D51040D700E1D
:100378000101546F020E47DB6D51020D0A0EF6DAC9
:10038800D3DA6D2B6D51F1E06E6B6E51040D140EC6
:100398000101546F020E37DB6E51020D0C0EE6DAC6
:1003A800C3DA6E2B090E6E65F0D76F6B6F51040DB3
:1003B8003C0E0101546F020E26DB6F51020D200E18
:1003C800D5DAB2DA6F2B6F51F1E07B0E0101306F95
:1003D800020E316F87EC1CF0020120EE01F0835110
:1003E800D9268451DA22DADA0A0E010133EC0CF04C
:1003F80071EC23F03051DF6EF4DA0A0ED8DA5DECD6
:1004080020F0F8DA020120EE01F08151D92682515C
:10041800DA22C4DA060E010133EC0CF071EC23F099
:100428003051DF6EDEDA060EC2DA5DEC20F0E2DA79
:10043800B5DA180E33EC0CF071EC23F030C176F21B
:1004480031C177F232C178F233C179F2020120EE7C
:1004580001F07D51D9267E51DA22A0DA0A0E010177
:1004680033EC0CF071EC23F03051D4DA7B51D926FF
:100478007C51DA22B6DA0A0E2DEC0CF05DEC20F095
:100488003051C8DA8551D9268651DA220CC230F1AA
:100498000DC231F10EC232F10FC233F1A00E0101CB
:1004A800346F050E356F366B376B5DEC20F03029F5
:1004B800B1DA9951D9269A51E1DAED5143EC2DF090
:1004C800A9DA9751D9269851DFDAED5132EC2CF0A0
:1004D800DF6E020120EE02F09551D9269651DA22FC
:1004E800300EDF6E95C2D9FF96C2DAFFDF8220EEAA
:1004F80002F09351D9269451DA22320EDF6E93C25C
:10050800D9FF94C2DAFFDF8220EE01F08F51D9269D
:100518009051B4DAEC5143EC2DF07CDA8D51D926A8
:100528008E51B2DAEC5132EC2CF074DA8951D926BA
:100538008A51A4DAEB5143EC2DF06CDA8751D926B5
:100548008851A2DAEB5132EC2CF0DF6E050E020175
:10055800566F7A6B7A51D8D987C2DEFF88C2DDFF21
:10056800C9D989C2DEFF8AC2DDFFC4D98DC2DEFFC8
:100578008EC2DDFFBFD98FC2DEFF90C2DDFFBAD9C0
:1005880097C2DEFF98C2DDFFB5D999C2DEFF9AC2D5
:10059800DDFFB0D97BC2DEFF7CC2DDFFABD97DC2F7
:1005A800DEFF7EC2DDFFA6D981C2DEFF82C2DDFF8B
:1005B800A1D983C2DEFF84C2DDFF7A2B060E746FD9
:1005C800406902017451A0D9DECF54F1DDCF55F155
:1005D80054C1D9FF55C1DAFFDF8028DA10EE01F0E7
:1005E8008F51E1269051E222E7500101546F020138
:1005F80010EE01F08D51E1268E514CDA5425446FEE
:10060800020110EE01F08951E1268A51E222E750F9
:100618000101556F020110EE01F08751E126885162
:1006280039DA5525456F020110EE01F09951E1269E
:100638009A51E222E7500101566F020110EE01F0D3
:100648009751E126985126DA562596EC24F0DF6E6C
:100658007B0E446F020E456FA8EC15F0090E0101E0
:10066800306F000ED0EC2CF00201406F402912E0F0
:1006780074514AD910EE01F05FEC16F040C2E7FF62
:100688009BD983EC2CF002015651741902E1746B6A
:1006980001D0742B280E0001CE190CE1CE6B8CD939
:1006A80083EC2CF002015651741902E1746B89D75E
:1006B800742B87D72C0ECE1910E1CE6B0201BDD951
:1006C800DF50556F020E551903E1010E556F01D029
:1006D800552BB3D955C2DFFF74D7290ECE190CE1BB
:1006E800CE6B6AD983EC2CF00201745103E156C237
:1006F80074F267D7740765D72A0ECE1901E0F3D0D4
:10070800CE6B38D909D9A4D91AD90C0E756505D07C
:1007180053D983EC2CF0020E5ED075C257F224EE4A
:1007280030F012EE00F00B0EDBCFE3FFE806FCE240
:1007380028D9F2D889D903D975C254F1030E010119
:10074800541703E11D0E0201016F69D9E5D8C3D919
:10075800F6D80101FDD8D96E020E5721DA6E0201D2
:100768007551DE5C21E220EE01F0B5D9DA220A0EDD
:100778000101306FEDD8B9D932EC2CF04BD95A5170
:10078800D9265B51DA220A0E0101306FE1D8ADD9C2
:1007980043EC2DF0DF6E7B0E366F020E376F83EC65
:1007A8002CF00201746B99D081D9B6D885D9C7D8F5
:1007B800170E756505D000D983EC2CF0070E0BD009
:1007C8006FD9AAD884D9BBD83B0E756507D0F4D8A1
:1007D80083EC2CF0090E0201746F7FD0756B010158
:1007E80054695569020122D9DF500101566F576BD0
:1007F800545156275551572356C130F157C131F13D
:10080800000E31BFFF0E326F336F41EC18F0C8ECA9
:100818002AF030C158F131C159F132C15AF133C10E
:100828005BF1020120EE01F047D965D93FD9CAD85A
:1008380047D9C8EC2AF0305158255C6F31515921FD
:100848005D6F32515A215E6F33515B215F6F020138
:1008580020EE01F03CD94FD923D9B4D83C0E4DEC49
:1008680018F0C8EC2AF030515C250201106F010124
:1008780031515D210201116F010132515E210201E6
:10088800126F010133515F210201136F10C230F161
:1008980011C231F112C232F113C233F1640E0101F7
:1008A8004DEC18F0C8EC2AF0D7D8B9D835D813D9F8
:1008B800DA226DD8EB6F5ED82FD8CAD8DA2267D87B
:1008C800EC6F02015ED828D8BFD8DA2260D8ED6F65
:1008D8000201B3D8DF5057EC2DF00201755101E049
:1008E80070D6A0EF29F02B0ECE1901E06AD6CE6B98
:1008F800A0EF29F07A2B7A51020D580EF324D96E05
:10090800020EF420DA6E1200020D580EF324D96E8E
:10091800020EF420DA6E1200DA22DF500101546F61
:10092800020120EE01F012007B0EF324D96E020EB4
:10093800F420DA6E54C1DEFF55C1DDFF1200DA2261
:10094800DF500A0DF350010154250201756F1200A2
:1009580054695569020157510101566F576B54513B
:10096800562755515723000E56251200F326000E20
:10097800F422000C020120EE01F05E51D9265F51ED
:10098800120020EE01F06251D92663511200DF50A7
:100998000A0DF350010154250001120076C230F10E
:1009A80077C231F178C232F179C233F11200346F73
:1009B800356B366B376B12007B0E0101366F020EFA
:1009C800376F1200DA22DF50F326000EF422F3CF3D
:1009D80030F1F4CF31F1010131BFFF0E326F336FC7
:1009E800120076C230F177C231F178C232F179C2A1
:1009F80033F1120030C176F231C177F232C178F2A8
:100A080033C179F21200556FF3505427F45055232F
:100A180002011200DF6E020120EE01F01200020155
:100A280020EE01F05A51D9265B51120020EE01F058
:100A38008551D9268651DA22120020EE01F09B5109
:100A4800D9269C51DA2212006051D9266151120030
:100A58005C51D9265D51120030C1BAF031C1BBF0EA
:100A680032C1BCF033C1BDF01200BAC030F1BBC016
:100A780031F1BCC032F1BDC033F11200DA220A0EE6
:100A88000101306F00010A0CDA220A0E0101306FF1
:100A980000010A0CE222E7500A0DF350010112008E
:100AA80020EE01F06A51D9266B51120020EE01F0B8
:100AB8006651D926675112006451D9266551120032
:100AC800100E346F0E0E356F366B376B0E0C685187
:100AD800D926695112005851D92659511200346F3C
:100AE800170E356F366B376B170CE16E020E5721F8
:100AF800E26EE7501200DA22DF500A0D1200A0EC75
:100B080029F003018651FC0B0209866FF30E861744
:100B1800010179517A1116E0BBDBDF50030B7C6FC2
:100B2800C1DBFC0B7C190301866FB2DB0101DF30EE
:100B3800E832030B7C6F7C477C47B4DBF30B7C19F2
:100B48000301866FDBC3C6F2DCC3C7F2DDC3C8F29C
:100B5800C60E0301426F020E436F25EEC2F011EE7E
:100B680080F0110EDBCFE3FFE806FCE2800E446F55
:100B7800010E456F23EEBDF012EE24F0040EDBCF1C
:100B8800E3FFE806FCE2240E466F020E476F23EEF1
:100B9800C2F012EE29F0040EDBCFE3FFE806FCE218
:100BA800290E486F020E496F23EEC7F012EE2EF0A1
:100BB800040EDBCFE3FFE806FCE22E0E4A6F020EBE
:100BC8004B6F23EECCF012EE33F0040EDBCFE3FFD5
:100BD800E806FCE2330E4C6F020E4D6F23EED1F0A7
:100BE80012EE38F0040EDBCFE3FFE806FCE2380E25
:100BF8004E6F020E4F6F23EE99F011EEB3F0050E13
:100C0800DBCFE3FFE806FCE2B30E506F010E516F35
:100C180023EED6F012EE3DF0040EDBCFE3FFE8063C
:100C2800FCE23D0E526F020E536F23EE9FF011EE61
:100C3800B9F0050EDBCFE3FFE806FCE2B90E546F0E
:100C4800010E556FC60E566F020E576F800E586F05
:100C5800010E596F23EEA5F011EEBFF0050EDBCFA4
:100C6800E3FFE806FCE2BF0E5A6F010E5B6F23EE4E
:100C7800ABF011EEC5F0050EDBCFE3FFE806FCE2B2
:100C8800C50E5C6F010E5D6F23EEB1F012EE00F041
:100C9800050EDBCFE3FFE806FCE2000E5E6F020EF6
:100CA8005F6F23EEB7F012EE06F0050EDBCFE3FF21
:100CB800E806FCE2060E606F020E616F24EE7BF020
:100CC80012EE0CF0050EDBCFE3FFE806FCE20C0E9B
:100CD800626F020E636F24EE81F012EE12F0050EC1
:100CE800DBCFE3FFE806FCE2120E646F020E656FCD
:100CF80024EE87F012EE18F0050EDBCFE3FFE806CE
:100D0800FCE2180E666F020E676F24EE8DF012EE8D
:100D18001EF0050EDBCFE3FFE806FCE21E0E686F4F
:100D2800020E696FDEC3CBF1DFC3CCF1E0C3CDF1B6
:100D3800CB0E6A6F010E6B6FE4C3C9F2E5C3CAF24A
:100D4800C90E6C6F020E6D6FE6C3CBF2E7C3CCF22F
:100D5800CB0E6E6F020E6F6FE8C3CDF2E9C3CEF211
:100D6800CD0E706F020E716FEAC3CFF2EBC3D0F2F3
:100D7800CF0E726F020E736FECC3D1F2EDC3D2F2D5
:100D8800D10E746F020E756FEEC3D3F2EFC3D4F2B7
:100D9800D30E766F020E776FF0C3D5F2F1C3D6F299
:100DA800D50E786F020E796FF2C3D7F2F3C3D8F27B
:100DB800D70E7A6F020E7B6FF4C3D9F2F5C3DAF25D
:100DC800D90E7C6F020E7D6F01017B5103E11F0E6E
:100DD8007B6F01D07B070301876B8751040D030EDE
:100DE80029DAFFD987C3DFFF8751040DFAD9DF90CD
:100DF80003018751040DF5D9DF82875116DAF1D93D
:100E0800DF6A8751040D020E15DAEBD9200EDF6E6A
:100E18008751040D420E01017C6F020E7D6FF35065
:100E28007C27F4507D2303018751D3D97CC1DEFF91
:100E38007DC1DDFF872B200E8765CFD70201C46BEC
:100E48000301886B856B0201DB6BDC6BDD6BDE6B92
:100E580001017751781122E00301806B17D003015B
:100E6800EDD903018051040D020EE4D9420EF3249A
:100E7800E16E020EF420E26EDFCFE7FF8051D5D994
:100E8800B0D9010EDF6E80C388F3802BD7D9DF502D
:100E9800E6E17B510301885D01E2882B030185515E
:100EA80023E0DBC234F1DCC235F1DDC236F1DEC24B
:100EB80037F12C0E0101386F010E396F000E3A6BB5
:100EC8003B6BA0EC25F000090FE00301856BD6D938
:100ED8000BE201017B517DD910EE01F05FEC16F0B9
:100EE800E75002E10301882B1D0E0001CE65A4D056
:100EF800280ECE61A1D0CE51030185190DE1020162
:100F080020EE01F0DF51D926E051DA22DF5001E16D
:100F180003D0DF4BE02B1DD0C40EB5D98631E832A3
:100F2800030B0A0D0001CE51F326000EF422D890CF
:100F3800F336F43601017C51F3267D51F422420E3A
:100F4800F324D96E030EF420DA6EDECFDFF2DDCFA4
:100F5800E0F20001CE510301851935E001017B5112
:100F680038D910EE01F05FEC16F0E7502CE17B5118
:100F78000301885D03E2855101E0882B01017B5163
:100F880028D98BD97BC1E1F212D0FE0E01017C6F0A
:100F98007D690201E1512CD90201E1513AD9E151AF
:100FA80018D910EE03F05FEC16F0E72AE10702010A
:100FB800E1510301885DE9E388510BD982C3DEFF63
:100FC80083C3DDFF04D00301885103D966D9DFC28A
:100FD800D9FFE0C2DAFF3AD9DFCFE7FF8651030B2A
:100FE800E80602E1885104E08651030B020A08E191
:100FF80020EE02F039D92AD9E75041EC12F0DF6E21
:10100800030120EE03F030D988C3DFFF20EE01F0A2
:101018002BD9010EDF6ECEC085F30001CE6B010E19
:101028009FEC2EF04BEC2FF030C1DBF231C1DCF23B
:1010380032C1DDF233C1DEF2000E0101306F030E62
:10104800316F200E326FE8EC2CF003018851C1D8C3
:10105800DECF7CF1DDCF7DF17CC1D9FF7DC1DAFF28
:10106800DF80000E0101396F030E3A6F200E3B6FCF
:101078003C6B1DEC25F0280E0001CE1914E1CE6B57
:10108800FDD801E30BD78851A4D810EE01F05FEC2E
:1010980016F0E75001E102D7882B000E9FEC2EF0E6
:1010A8000301856BFBD6290ECE190AE1CE6B03012D
:1010B800885101E1F3D68807000E9FEC2EF0F0D797
:1010C8002A0ECE1924E1CE6B0301846B200E8465B1
:1010D80001D013D084517DD810EE01F05FEC16F0EA
:1010E800E7500BE0845175D810EE02F05FEC16F073
:1010F800B4D8E7CFDFFF842BE9D7AFD8DF6AA0ECFD
:1011080029F0920E0101776F010E786F12002B0EF5
:10111800CE1907E1CE6BA0EC29F00101776B786B53
:1011280012002C0ECE1948E1CE6B0301855101E067
:10113800882B885101E1B2D6FE0EA5D8885158D81F
:10114800DECF7EF3DDCF7FF3030120EE01F091D8EF
:10115800DF6A20EE02F08DD8200EDF6E20EE03F05D
:1011680088D81F0EDF6E8805816F1F0E816501D03C
:101178001DD0815101017C6F7D6BD8907C377D3704
:10118800020E7C27000E7D23000E7C25D96E030EEF
:101198007D21DA6E030181513CD881511AD810EEB5
:1011A80003F05FEC16F0E706812BDFD77EC33EF332
:1011B8007FC33FF3880774D72D0ECE1901E06ED692
:1011C800CE6B860E0101446F030E456FABEC13F036
:1011D80065D6020D000EF324D96E030EF420DA6EE4
:1011E8001200420EF324D96E020EF420DA6E1200B9
:1011F80001017E6F7F6BD8907E377F377C517E27C9
:101208007D517F23000E7E25D96E030E7F21DA6E75
:101218001200020D000EF324E16E030EF420E26EBC
:10122800DECFE6FFDDCFE5FF1200040DF32A000E46
:10123800F422000CF326000EF422000C8051010168
:101248007725D96E000E7821DA6E120010EE02F0C2
:101258008251E1268351E2221200920E8425D96E32
:10126800DA6A010EDA2212008251D9268351DA2273
:1012780012007E51D9267F51DA22120001017B51DA
:101288000301885D120001017C6F7D690301120072
:1012980079C1D9FF7AC1DAFF1200DECF82F3DDCF40
:1012A80083F312000301865101017C191200C3ADBA
:1012B80003D0C39DA0EC29F0200ECE1913E1800EB7
:1012C800E81904E1E90502E1C2A10CD0CE6BA0EC5B
:1012D80029F0C2B102D0FADA02D00101956BF1DA35
:1012E800FE0BF8DA2D0ECE190EE1800EE81902E198
:1012F800E90509E0C2A107D0CE6BE8C093F1E9C0C7
:1013080094F1D3EC21F0C2B30DD08DEC15F0D00ED2
:1013180072EC17F0D1DA0001C2A103D0C291A0EC9F
:1013280029F0C283800EE81902E1E90502E0C2B1A2
:10133800F5D0B9DA0001C2A502D0C8DA02D001019D
:10134800956B02014C51010ED8B4000E010195199C
:101358000EE0A0EC29F002014C5102E0B7DA02D00D
:101368000101956B95479547ACDAFB0BB3DA02019F
:101378004C5129E0DAC03BF2DBC03CF2DCC03DF264
:10138800DDC03EF2010E476F4C51010B316FD89012
:101398004C33310509E13CC23BF23DC23CF24751B6
:1013A8006DEC29F002013D6F472B030E4765ECD722
:1013B8003B0E0101396F020E3A6F3B6B0D0E3C6F0D
:1013C8003D6BD2EC22F024EE5AF012EE15F0080E26
:1013D800DBCFE3FFE806FCE239EC05F0640E39DA0E
:1013E8005DEC20F004DA0A0E3ADA71EC23F03051A1
:1013F8006DEC29F002011C6F14DA0A0E2ADA5DEC92
:1014080020F0F5D9060E2BDA71EC23F030516DEC93
:1014180029F002011B6F05DA060E1BDA5DEC20F0DD
:10142800E6D90A0E1CDA71EC23F030516DEC29F084
:101438000201196FF6D90A0E0CDA5DEC20F0D7D943
:10144800060E0DDA71EC23F030516DEC29F0020133
:10145800186FE7D9060EFDD95DEC20F030C151F2C6
:1014680031C152F232C153F233C154F2DAD9180EF3
:10147800DBEC04F05DEC20F030290201326FC8D9B2
:10148800180E0101ECD971EC23F030C151F231C1D1
:1014980052F232C153F233C154F2BAD90A0EDFD92B
:1014A80071EC23F030516DEC29F00201166FB9D9B7
:1014B8000A0ECFD95DEC20F030516DEC29F0020115
:1014C800156F0001F0D9070E4C1903E0376B050EB4
:1014D80002D0376B040E366F150E0101396F020EFC
:1014E8003A6F3B6B36C23CF13D6BD2EC22F0070EF3
:1014F80002014C1903E0396B020E02D0396B010E60
:10150800386F32511FEC26F030C139F131C13AF150
:101518003B6B38C23CF13D6BD2EC22F00001C2BFFC
:10152800C2B105D0A00E0101396FFE0E5CD1800E4C
:10153800E81903E1E90501E14DD124EE12F012EEBC
:101548001EF0100EDBCFE3FFE806FCE2070E0201F7
:101558001E6F010E3A6F0001C2A104D002013A6B5E
:10156800F10E236F0201436B446B456B466B000E13
:1015780001013D6F020E3E6F430E3F6F020E406F3A
:10158800E8C041F1E9C042F150EC24F043C230F127
:1015980044C231F145C232F146C233F12F0E346FE5
:1015A800020E356F4D0E366F020E376F350E386FDF
:1015B800020E396F420E3A6F020E3B6FE0EC25F0D7
:1015C800D0C03EF1D1C03FF1D2C040F1D3C041F10B
:1015D8004F0E426F020E436F410E446F020E456F6D
:1015E80035EC28F056D964D97FEC2BF030516DECEE
:1015F80029F00201296F38D90A0E326F14EC2BF04A
:101608004DD947D9336B060E326F7FEC2BF0305132
:101618006DEC29F00201286F27D9060E326F14EC01
:101628002BF03CD93A0E0201276F33D9010140D97A
:101638007FEC2BF030516DEC29F00201266F14D9A4
:101648000A0E326F14EC2BF030516DEC29F00201C8
:10165800256F010E486F030E486501D012D0425124
:10166800010B336FD8904233330509E12CC22BF2BA
:101678002DC22CF248516DEC29F002012D6F482B38
:10168800EAD741511FEC26F030C13FF231C140F298
:101698003FC2F6FF40C2F7FF0800F5CF20F2010E67
:1016A80002013F250101956F000E02014021010151
:1016B800966F95C1F6FF96C1F7FF0800F5CF21F2A6
:1016C8001E0E396F020E3A6F3AC23BF13C6B3D6B0E
:1016D800D2EC22F00001C2A1120024EE23F012EE97
:1016E80008F00C0EDBCFE3FFE806FCE202014B6BCF
:1016F8000C0E4A6F4A079ED80A0E326F7FEC2BF009
:1017080030516DEC29F0BED80A0E326F14EC2BF074
:10171800B2D890D8060E326F7FEC2BF030516DECBA
:1017280029F0B0D8060E326F14EC2BF0A4D8D8A04C
:101738004B074A077FD80A0E326F7FEC2BF03051E7
:101748006DEC29F0DF6E02014A07D8A04B07080E9E
:101758004A25D96E020E4B21DA6E4DC230F14EC2C7
:1017680031F10101336B0A0E326F14EC2BF030515A
:101778006DEC29F0DF6EE8C095F1E9C096F1D890DC
:1017880096339533D89096339533D89096339533CE
:1017980095290201496F0A0E0101306F0201495172
:1017A80043EC2DF06DEC29F00201346F09C20AF206
:1017B80034C209F20A0E0101306F0201495132ECBC
:1017C8002CF00201496F4951E6E1080E0101396F19
:1017D800020E09D0C2A103D0A0EC29F0C2917E0E5E
:1017E8000101396FFE0E30EC0EF0D2EF22F030C15D
:1017F80051F231C152F232C153F233C154F251C2E3
:1018080030F152C231F153C232F154C233F11200F5
:1018180051C230F152C231F153C232F154C233F1E4
:10182800120051C230F152C231F153C232F154C2E6
:1018380033F11200D8A04B07080E4A25D96E020EC4
:101848004B21DA6E4DC230F14EC231F10101336BDA
:1018580012000101346F356B366B376B1200346F31
:10186800356B366B376B12004FC230F150C231F115
:101878000101336B120030C14DF231C14EF2020149
:101888004A071200DF6E4DC230F14EC231F1336BA0
:1018980012004FC230F150C231F1120030C14FF284
:1018A80031C150F21200CC51CF1102014C6F12001D
:1018B800336B0A0E326F0A0C4DC1E8F04EC1E9F0E5
:1018C80012000001C2510101951912000101956B26
:1018D800952B120095190001C26F1200A0EC29F097
:1018E800ECD99E6F9A6B05019A5116E1A10E010180
:1018F8003D6F050E3E6F9EC53FF19FC540F1D1EC8F
:1019080028F00501B16BBF6B010E9A6FC10504E0A9
:10191800A16BB16BB26BBF6BE1C38FF5E2C390F5FE
:10192800E3C391F5790E9E250101306FFE0E050186
:101938009F210101316F336B210E326F14EC2BF0B4
:10194800302B000E312330C13DF131C13EF13F6BE8
:10195800406B8F0E416F050EFDEC19F077EC21F00E
:101968008F0E396F050E91D9D2EC22F00501C10511
:101978000FE1A10E0101396F050E8ED9D2EC22F0CC
:10198800B20E0101396F050E67D9D2EC22F00ED0E4
:101998008F0E0101396FFE0E7FD9D2EC22F0810E35
:1019A8000101396FFE0E58D9D2EC22F02D0E00013C
:1019B800CE1901E0E0D0CE6B24EE3CF015EE64F0D9
:1019C800090EDBCFE3FFE806FCE2640E0101446F79
:1019D800050E456F466B01EC1AF005019B6F9B05E0
:1019E8006FE1A0EC29F005019951FC0B0109996FF1
:1019F8009951F30B0409996FC10503E0926B936B3E
:101A080004D0A10E926F050E936F92C577F193C51E
:101A180078F147D9100E7B6F83EC05F02ED901E1E0
:101A280062D7A06B0AD011D9A10EA025E16EE26A97
:101A3800050EE222DFCFE7FFA02B07D9DF50F3E145
:101A4800A10EA025D96EDA6A050EDA22DF6A99514D
:101A5800F30B0809996FC10503E0946B956B04D0EB
:101A6800B20E946F050E956F94C577F195C578F110
:101A780018D90D0E7B6F83EC05F0FFD801E132D742
:101A8800A06B0AD0E2D8EED8E16E050ECF21E26E47
:101A9800DFCFE7FF0501A02BD8D8DF50F3E1E2D86C
:101AA800D96E050ECF21DA6EDF6A010E0501C16F0E
:101AB800A10E01013D6F050EFAD89DEC28F013D751
:101AC800020E9B1921E19651F30B0809966F01014B
:101AD800776B786B960E796F050E7A6F0D0E7B6FAC
:101AE80083EC05F077C197F578C198F50501975112
:101AF800981101E1F8D697C533F198C534F108EC8F
:101B080024F00001C387EFD6030E9B1919E1C10524
:101B180001E0E9D6F20E0101446FFE0E456FDBECE1
:101B28002BF0000901E1DFD66E0E01013D6F050EB5
:101B3800BED89DEC28F005019A6BA0EC29F0D3D60D
:101B4800040E9B1901E0CFD6C90E0101446FFD0EAA
:101B5800456FDBEC2BF0000901E1C5D6010E010150
:101B6800476F870E466F030E496F960E486F4A6B94
:101B78009BEC26F0B8D61F0ECE1926E1CE6BC3A774
:101B880009D0D30E0101306FFF0E316F326B4DEC6F
:101B98002EF0A9D60501C10501E0A5D6B10E0101B7
:101BA800446FFE0E456FDBEC2BF0000901E19BD67C
:101BB8000501C10501E097D6B20E0101336F050E8C
:101BC800346F08EC24F09DD7210ECE190DE1CE6BB1
:101BD800DB0E0101306FFF0E316F326B4DEC2EF0D2
:101BE8000001C397C39F7FD6280ECE190EE1CE6B96
:101BF800760E05019E5D030E9F5905E2210E9E2774
:101C0800000E9F2398D759D812D0290ECE1911E16A
:101C1800CE6B880E05019E5D010E9F5905E3210ECE
:101C28009E5F000E9F5B87D7030E9F6F760E9E6F99
:101C380082D72B0ECE1903E1CE6BA0EF29F01E0E32
:101C4800CE1901E050D6CE6BDED7A0519C25D96EB7
:101C5800000E9D21DA6E12003A6F010E3B6F3C6B4D
:101C68003D6B010CA0510101CE6FCF6B110ECE2739
:101C7800000ECF23A10ECE25120077C19CF578C1A6
:101C88009DF505019C519D1112003A6F010E3B6FA5
:101C98000E0E3C6F3D6B0E0C3A6F3B6B3C6B3D6B15
:101CA8001200990E0101796F050E7A6F12003E6FCE
:101CB8009EC53FF19FC540F11200010E05019F6FBF
:101CC800870C1C6E1C50070AD8B4ED0C270AD8B430
:101CD800200C010AD8B4210C030AD8B4220C010A3A
:101CE800D8B4230C070AD8B4240C010AD8B4250C9C
:101CF800030AD8B4260C0E0AD8B4280C010AD8B4A2
:101D0800290C030AD8B42A0C010AD8B42B0C070AE8
:101D1800D8B42C0C010AD8B42D0C030AD8B42E0C54
:101D2800010AD8B42F0C1F0AD8B4300C010AD8B451
:101D3800310C030AD8B4320C010AD8B4330C070AA0
:101D4800D8B4340C010AD8B4350C030AD8B4360C0C
:101D5800010AD8B4370C0F0AD8B4380C010AD8B421
:101D6800390C030AD8B43A0C010AD8B43B0C070A58
:101D7800D8B43C0C010AD8B43D0C030AD8B43E0CC4
:101D8800010AD8B43F0C7F0AD8B4400C010AD8B471
:101D9800410C030AD8B4420C010AD8B4430C070A10
:101DA800D8B4440C010AD8B4450C030AD8B4460C7C
:101DB800010AD8B4470C0F0AD8B4480C010AD8B4A1
:101DC800490C030AD8B44A0C010AD8B44B0C070AC8
:101DD800D8B44C0C010AD8B44D0C030AD8B44E0C34
:101DE800010AD8B44F0C1F0AD8B4500C010AD8B451
:101DF800510C030AD8B4520C010AD8B4530C070A80
:101E0800D8B4540C010AD8B4550C030AD8B4560CEB
:101E1800010AD8B4570C0F0AD8B4580C010AD8B420
:101E2800590C030AD8B45A0C010AD8B45B0C070A37
:101E3800D8B42F0C010AD8B45D0C030AD8B45E0CD0
:101E4800010AD8B45F0C3F0AD8B4600C010AD8B4B0
:101E5800610C030AD8B4620C010AD8B4630C070AEF
:101E6800D8B4640C010AD8B4650C030AD8B4660C5B
:101E7800010AD8B4670C0F0AD8B4680C010AD8B4A0
:101E8800690C030AD8B46A0C010AD8B46B0C070AA7
:101E9800D8B46C0C010AD8B46D0C030AD8B46E0C13
:101EA800010AD8B46F0C1F0AD8B4700C010AD8B450
:101EB800710C030AD8B4720C010AD8B4730C070A5F
:101EC800D8B4740C010AD8B4750C030AD8B4760CCB
:101ED800010AD8B4770C0F0AD8B4780C010AD8B420
:101EE800790C030AD8B47A0C040AD8B4E90CEC0AC1
:101EF800D8B4270C050AD8B42D0C3F0AD8B4A20CC4
:101F0800030AD8B4C80C1B0AD8B4EF0C080AD8B412
:101F1800B50C010AD8B4CC0C020AD8B4C90C7B0A97
:101F2800D8B4410C010AD8B4A00C030AD8B4420CA6
:101F3800010AD8B4A10C070AD8B4E00C010AD8B435
:101F4800450C030AD8B4A30C010AD8B4A40C0F0A90
:101F5800D8B4A50C010AD8B4A60C030AD8B44B0C03
:101F6800010AD8B4A70C070AD8B44D0C010AD8B492
:101F7800480C030AD8B44F0C010AD8B4A80C1F0A9D
:101F8800D8B4500C010AD8B4430C030AD8B4540C82
:101F9800010AD8B4A90C070AD8B4AA0C010AD8B403
:101FA800580C030AD8B4E10C010AD8B4AB0C0F0AD8
:101FB800D8B4AC0C010AD8B4E20C030AD8B4AD0CFE
:101FC800010AD8B4AE0C070AD8B4C40C010AD8B4B4
:101FD800AF0C030AD8B4B00C010AD8B4B10C3F0A4C
:101FE800D8B4610C010AD8B4B20C030AD8B4B30C43
:101FF800010AD8B4B40C070AD8B4E30C010AD8B45F
:10200800650C030AD8B4B60C010AD8B4B70C0F0A89
:10201800D8B4B80C010AD8B4B90C030AD8B4BA0CAD
:10202800010AD8B4BB0C070AD8B4BC0C010AD8B44E
:10203800BD0C030AD8B46F0C010AD8B4BE0C1F0A31
:10204800D8B4700C010AD8B4630C030AD8B4BF0C16
:10205800010AD8B4790C070AD8B4E40C010AD8B438
:10206800780C030AD8B4E50C010AD8B4C00C0F0ADE
:10207800D8B4C10C010AD8B4E60C030AD8B4C20C0F
:10208800010AD8B4C30C070AD8B4C40C010AD8B4DE
:10209800C50C030AD8B4C60C010AD8B4C70C3F0C47
:1020A8000001C3AB1200C39B870E256EFD0EB6D987
:1020B80052EC1BF0000901E01200CE0E256EFF0E57
:1020C800ADD952EC1BF0000901E01200350E256E67
:1020D800FD0E266EEAEC2EF023C027F024C028F06F
:1020E800BED952EC1BF0000901E1D5D00001C2872E
:1020F8009CD9090E1F6E54EC2FF00001A56F95D9DD
:10210800080E1F6E54EC2FF0AED9ED6F8ED90C0E61
:102118001F6E54EC2FF00001A56F87D90B0E1F6EB0
:1021280054EC2FF0A0D9EC6F80D90F0E1F6E54EC31
:102138002FF00001A56F79D90E0E1F6E54EC2FF009
:1021480092D9EB6F180E1F6E70D954EC2FF0000166
:10215800A56F170E1F6E69D954EC2FF00A0D0001F8
:10216800A551F324A66F000EF420A76FA86BA7BF94
:10217800A807A851A96FAA69AB69EBC031F0ECC0F8
:1021880030F0ED51DAEC24F00001AC6FAD6BAA51E0
:10219800AC27AB51AD23ACC036F0ADC037F0000E64
:1021A80037BEFF0E386E396E800E3A6E510E3B6E9A
:1021B800010E3C6E3D6AEEEC2AF036C0AEF037C038
:1021C800AFF038C0B0F039C0B1F0110E1F6E2DD984
:1021D80054EC2FF00A0D120E1F6E27D954EC2FF075
:1021E80029D9100E3A6E0E0E3B6E3C6A3D6AEEEC33
:1021F8002AF036500001AE25B26F3750AF21B36FC9
:102208003850B021B46F3950B121B56F140E1F6E1C
:102218000CD954EC2FF00A0D150E1F6E06D954EC8C
:102228002FF008D93C0E24D9EEEC2AF036500001E4
:10223800B225B66F3750B321B76F3850B421B86F95
:102248003950B521B96FA651B62501010B6F0001B0
:10225800A751B72101010C6F0001A851B821010154
:102268000D6F0001A951B92101010E6F0BC136F0A4
:102278000CC137F00DC138F00EC139F0640EF8D832
:10228800EEEC2AF036C0BAF037C0BBF038C0BCF06C
:1022980039C0BDF01200110E256EFD0E266EDBEC66
:1022A8002EF023C027F024C028F0D9D852EC1BF018
:1022B800000940E0000E1C6E010E1D6E1F6A0B0E19
:1022C8001E6E206AF0EC2DF00101116B0B0E11252A
:1022D800D96EDA6A050EDA22000E1125E16EE26A7D
:1022E800010EE222DFCFE7FF112B090E1165EED7B1
:1022F800000E2D6E010E2E6E19EC21F02DC00FF17F
:102308002EC010F101010F5110110AE1DB0E1C6EF5
:10231800FF0E1D6E1E6A5EEC2EF00001C3971200C0
:10232800D30E1C6EFF0E1D6E1E6A5EEC2EF00001B1
:10233800C3871200740E256EFD0E266ECCEC2EF0AF
:1023480023C027F024C028F08AD852EC1BF00009DB
:1023580032E0FCC3CDF00001C3AF28D0340ECD1954
:1023680002E1CC6B05D0370ECD1904E1CC81000118
:10237800C38DDDD7380ECD1902E1CC83F8D7390EDD
:10238800CD1902E1CC85F3D7300ECD1906E1C28F05
:10239800CC6B5CD816EC2CF0EAD7350ECD19C7E11A
:1023A800C29FC38D53D816EC2CF0C1D72A0ECD1975
:1023B800BEE1C38FBCD75F0E256EFD0E2FD852EC41
:1023C8001BF0000904E00001C397C39F1200820EAE
:1023D800256EFD0E23D852EC1BF00009F4E16A0EBD
:1023E800256EFD0E1BD852EC1BF00009ECE1530ED4
:1023F800256EFD0E13D852EC1BF00009E4E17C0EAB
:10240800256EFD0E0BD852EC1BF00009D8B4120053
:102418005C0E1C6EFF0E1D6EA7EF1EF0266E276A5F
:10242800286A2A6A020E296E020CD30E1D6E040E4B
:102438001E6E1200F326000EF422F3CF36F0F4CF0E
:1024480037F037BEFF0E386E396E1200010E1D6E62
:10245800860E1C6E000EC2BF010E1E6E12002A6A86
:10246800020E296E020C0A0DF3500001A525120078
:102478003A6E3B6A3C6A3D6A12000101306F02D035
:102488003051120001013051410AD8B4610C030ADD
:10249800D8B4620C010AD8B4630C070AD8B4640C27
:1024A800010AD8B4650C030AD8B4660C010AD8B47A
:1024B800670C0F0AD8B4680C010AD8B4690C030A6F
:1024C800D8B46A0C010AD8B46B0C070AD8B46C0CDF
:1024D800010AD8B46D0C030AD8B46E0C010AD8B43A
:1024E8006F0C1F0AD8B4700C010AD8B4710C030A17
:1024F800D8B4720C010AD8B4730C070AD8B4740C97
:10250800010AD8B4750C030AD8B4760C010AD8B4F9
:10251800770C0F0AD8B4780C010AD8B4790C030ADE
:10252800D8B47A0C3B0AD8B4410C030AD8B4420C8C
:10253800010AD8B4430C070AD8B4440C010AD8B429
:10254800450C030AD8B4460C010AD8B4470C0F0A44
:10255800D8B4480C010AD8B4490C030AD8B44A0CB8
:10256800010AD8B44B0C070AD8B44C0C010AD8B4E9
:102578004D0C030AD8B44E0C010AD8B44F0C1F0AEC
:10258800D8B4500C010AD8B4510C030AD8B4520C70
:10259800010AD8B4530C070AD8B4540C010AD8B4A9
:1025A800550C030AD8B4560C010AD8B4570C0F0AB4
:1025B800D8B4580C010AD8B4590C030AD8B45A0C28
:1025C800D20AD8B4B80C100AD8B4A80C780AD8B46F
:1025D800E00C010AD8B4E10C030AD8B4E20C010AF1
:1025E800D8B4E30C070AD8B4E40C010AD8B4E50C53
:1025F800030AD8B4E60C010AD8B4E70C0F0AD8B419
:10260800E80C010AD8B4E90C030AD8B4EA0C010AA8
:10261800D8B4EB0C070AD8B4EC0C010AD8B4ED0C0A
:10262800030AD8B4EE0C010AD8B4EF0C1F0AD8B4C8
:10263800F00C010AD8B4F10C030AD8B4F20C010A60
:10264800D8B4F30C070AD8B4F40C010AD8B4F50CC2
:10265800030AD8B4F60C010AD8B4F70C0F0AD8B498
:10266800F80C010AD8B4F90C030AD8B4FA0C010A18
:10267800D8B4FB0C070AD8B4FC0C010AD8B4FD0C7A
:10268800030AD8B4FE0C010AD8B4FF0C3F0AD8B428
:10269800C00C010AD8B4C10C030AD8B4C20C010A90
:1026A800D8B4C30C070AD8B4C40C010AD8B4C50CF2
:1026B800030AD8B4C60C010AD8B4C70C0F0AD8B498
:1026C800C80C010AD8B4C90C030AD8B4CA0C010A48
:1026D800D8B4CB0C070AD8B4CC0C010AD8B4CD0CAA
:1026E800030AD8B4CE0C010AD8B4CF0C1F0AD8B448
:1026F800D00C010AD8B4D10C030AD8B4D20C010A00
:10270800D8B4D30C070AD8B4D40C010AD8B4D50C61
:10271800030AD8B4D60C010AD8B4D70C0F0AD8B417
:10272800D80C010AD8B4D90C030AD8B4DA0C010AB7
:10273800D8B4DB0C070AD8B4DC0C010AD8B4DD0C19
:10274800030AD8B4DE0C010AD8B4DF0C99D6A0EC81
:1027580029F0D9D80101DF50030B466F7619FC0B1D
:102768004619766FD0D8DF30E832030B466F4647FC
:10277800464776514619F30B4619766F070EF66EE3
:10278800FD0EF76E21EE5EF0090EDFD8FEE2F10EC7
:10279800F66EFC0EF76E21EE48F0150ED6D8FEE266
:1027A800DEC070F1DFC071F1E0C072F1E1C073F119
:1027B80024EE6BF011EE68F0070EDBCFE3FFE806BE
:1027C800FCE20101746B7651030B030D5E0E466F3C
:1027D800010EB5D87451A7D8700E7425E16EE26A5F
:1027E800010EE222DFCFE7FF742B020E7465EBD7F0
:1027F800756B7631E832030B070D480E466F010EF4
:102808009ED8755190D8680E7525E16EE26A010E62
:10281800E222DFCFE7FF752B060E7565EAD7700E4B
:10282800396F010E3A6F3B6B95D8D2EC22F0680EE7
:102838000101396F010E3A6F3B6B070E3C6F3D6B20
:10284800D2EC22F0230E0001CE190CE161D8466FBC
:10285800020E466105D07651030B466F462B19D000
:10286800FC0E0CD0240ECE190BE163D8466F020E75
:10287800466103D052D8462B1CD0F30E7617A1D749
:10288800260ECE190FE144D809E07651030B466FA6
:10289800460776514619FC0B461914D07651FC0BA5
:1028A800020910D0270ECE190FE143D808E035D819
:1028B80046074637463776514619F30BEDD776511A
:1028C800F30B0809766F7DD72A0ECE1915E120D8AB
:1028D800466F19D8DF18FC0B4619DF6E7631E832DF
:1028E800030B466F10D846474647DF504619F30B8F
:1028F8004619DF6EA0EF29F02B0ECE1901E061D743
:10290800CE6BA0EF29F044C1D9FF45C1DAFF120010
:10291800CE6B01017651030B12007631466F4631BA
:10292800030B466F12004625D96E000E4721DA6E5A
:102938001200CE6B01017631E832030B1200476FAB
:10294800F3504627F450472312000900F5CFDEFF65
:10295800E8061200020E3C6F3D6B020C010E18ECEB
:102968001DF00001C299D5D8D00E72EC17F0CED068
:102978000001C2BD05D0CE5103E0CE6B5DEC2FF057
:10298800C2ADF6D75BEC09F02D0E0001CE1930E18F
:10299800C2B12ED0CE6B0301926B24EE73F013EE0E
:1029A8008AF0070EDBCFE3FFE806FCE28A0E01019E
:1029B800446F030E456F92C346F101EC1AF0030110
:1029C800926F920504E1BAD8D3EC21F00BD0020E35
:1029D800921903E172EC0CF005D0030E921902E192
:1029E8005DEC26F003019251E1E1A0EC29F0C0D79B
:1029F800280ECE1905E1CE6BA1D8D3EC21F0B8D7BB
:102A0800290ECE1904E1CE6B72EC0CF0B1D72C0E66
:102A1800CE1916E1CE6BC2ADABD7C2BB04D0030151
:102A2800896B892B02D00301896B893B8947000197
:102A3800C25103018919DF0B89190001C26F98D7A8
:102A48001E0ECE1907E1CE6BC28FCC6B6BD87FEC14
:102A58002EF08ED7250ECE1907E1C2B105D0CE6B68
:102A6800A0EC29F0010E13D0260ECE1907E1C2B151
:102A780005D0CE6BA0EC29F0020E09D0270ECE1996
:102A880008E1C2B106D0CE6BA0EC29F0040ECC1B35
:102A98006FD7220ECE1907E1C2B105D0CE6BA0ECDC
:102AA80029F0CC6B65D7230ECE1908E1C2B106D048
:102AB800CE6BC29F37D87FEC2EF097D71F0ECE195A
:102AC80004E1CE6B6DEC2FF053D7210ECE1904E143
:102AD800CE6BA8EC1DF04CD72B0ECE1908E0240EB7
:102AE800CE1901E045D7C2AF02D0C2A141D72B0E03
:102AF800CE1906E10ED8C2A103D0C291A0EC29F0EC
:102B0800CE6B8FEC2FF0D00E72EC17F060EC0CF05F
:102B18002FD7BAC0D0F0BBC0D1F0BCC0D2F0BDC076
:102B2800D3F01200010E0101316F860E306F0001E3
:102B3800000EC2BF010E0101326F1200010E010129
:102B4800946F800E936F800C526BBAD8DECF48F129
:102B5800DDCF49F148C1D9FF49C1DAFFDFB218D04A
:102B6800AFD810EE02F0A7D85251020D44C148F177
:102B780045C149F1F3504827F45049230C0E482524
:102B8800D96E000E4921DA6EBCD86DEC29F0E76EDB
:102B980097D810EE03F08FD852C1E7FF522B090ED9
:102BA8005265D3D7536B9DD8DECF46F1DDCF47F1C1
:102BB80046C1D9FF47C1DAFFDFB209D092D810EE7B
:102BC80002F079D88ED89DD86DEC29F0E76E535174
:102BD800020DF3504425D96EF450452153EC25F0ED
:102BE8006AD853C1E7FF532B040E5365DCD782D84C
:102BF80010EE02F060D87ED884D86DEC29F0E76E2C
:102C080079D810EE03F057D8E76A0C0E4425396FCF
:102C1800000E45213A6F0A0E3B6F010E3C6F1DEC0A
:102C280025F044C139F145C13AF1050E3B6F150E47
:102C38003C6F1DEC25F05ED810EE01F03CD8E75053
:102C4800466F476B46C139F147C13AF1010E3B6FF8
:102C5800AEEC14F0D2EC22F020EED4F011EE4AF0F3
:102C6800050EDBCFE3FFE806FCE2010143D810EED6
:102C780001F021D8E750506F505106E0500504E0AC
:102C8800020E501901E0506BC90E396FFF0E3A6FF2
:102C98003B6B3FD8D2EC22F001015051020D4A0E95
:102CA800F324D96E010EF4209FEC1AF0010E3B6F4D
:102CB80030D8D2EF22F0DE50E126DD50E2221200B9
:102CC8005251020D44C146F145C147F1F350462720
:102CD800F45047230C0E4625D96E000E4721DA6EB4
:102CE80012005351020DF3504425D96EF45045217A
:102CF800DA6E120020EE0AF04451D9264551DA2244
:102D0800120000EE01F0DE50E926DD50EA22EF5015
:102D180012000C0E3C6F3D6B0C0C0001C297C39562
:102D2800F26AF16AF06A9E6AA16A9D6AA06A9F6A5D
:102D3800A26AD06ACC6BA0EC29F0D08EF28CF28E0D
:102D4800F28CCA84CD8EC80ECF6ECE6ACD809D809F
:102D58000F0EC16E926A800E936E946A5A500101EA
:102D6800306F49EC18F041EC18F0C8EC2AF030C18B
:102D7800F1F431C1F2F432C1F3F433C1F4F4565032
:102D8800A8D864EC05F0C8EC2AF030510401F1250C
:102D9800F56F010131510401F221F66F0101325141
:102DA8000401F321F76F010133510401F421F86F95
:102DB800575001018ED83C0E4DEC18F0C8EC2AF0A3
:102DC80030510401F525F96F010131510401F62153
:102DD800FA6F010132510401F721FB6F01013351F0
:102DE8000401F821FC6F800EF9250301936FAE0EE4
:102DF8000401FA210301946FFE0E0401FB21030173
:102E0800956FFF0E0401FC210301966F93C330F107
:102E180094C331F195C332F196C333F1640E0101C5
:102E28004DEC18F0C8EC2AF030EC05F0896A8A6A93
:102E38008B6A240ECA6E010E316F860E306FB7ECA6
:102E48002DF00401F16FF133F1330001C251040197
:102E5800F1197F0BF1190001C26F0301986B000E85
:102E6800436E060E446E982B985129D8000EDE6EDC
:102E7800070E2BD824D8000EDE6E080E26D81FD8D1
:102E8800000EDE6E090EDD6E982B976B975117D8E2
:102E9800DECF30F1DDCF31F1010E01014EEC1BF038
:102EA800A4EC2DF00301972B030E9765EFD78FEC59
:102EB8002EF05DEC2FF0B2EC14F094EF01F0020D5F
:102EC800F350430FD96EDA6A1200DD6E982B9851D1
:102ED8001200306F316B326B336B12000101746F6B
:102EE800716B726B010E616F800E606F6A6B756B30
:102EF800766B776B786B530E3D6F010E3E6F750ED8
:102F08003F6F010E406F71C141F172C142F150EC47
:102F180024F0080E7127000E7223752907E176291F
:102F280005E1772903E1782901E187D075C130F1FE
:102F380076C131F177C132F178C133F1680E346F5F
:102F4800010E356F620E366F010E376F6C0E386FDB
:102F5800010E396F6B0E3A6F010E3B6FE0EC25F0F6
:102F68006B516BE0736B6C51010B5F6FD8906C33D6
:102F78005F055FE17351306F88D87FD8C8EC2AF0BD
:102F880030C14FF131C150F132C151F133C152F169
:102F980068C130F169C131F1326B336B3C0E79D8BD
:102FA800C8EC2AF030514F255B6F315150215C6FCE
:102FB800325151215D6F335152215E6F5BC130F147
:102FC8005CC131F15DC132F15EC133F1640E61D88B
:102FD800C8EC2AF030C16DF131C16EF132C16FF128
:102FE80033C170F164516D5D65516E5966516F5909
:102FF8006751705902E36A511CE17451D96EDA6A5B
:103008006D51DE5C6E51DE586F51DE587051DE58DE
:1030180010E2010E6A6F6DC164F16EC165F16FC196
:1030280066F170C167F1F80E7125606FFF0E7221AD
:10303800616F732B060E736596D7800E715D010E56
:10304800725901E254D76A050CE17451D96EDA6AF3
:1030580064C1DEFF65C1DEFF66C1DEFF67C1DEFF5A
:1030680007D07451D96EDA6ADE6ADE6ADE6ADD6A12
:1030780060C14DF161C14EF11200800E346F510EE6
:10308800356F010E366F376B010C316B326B336B5A
:103098001200346F356B366B376B1200C2A7120003
:1030A800C2BF86D0800E4F5C010E505801E380D01D
:1030B800966B976B986B996B960E286E4FC029F09C
:1030C80050C02AF0800E5FEC25F00001962906E139
:1030D800972904E1982902E1992965E09651886FBA
:1030E800070E9715896F0B0E366EAAD8362EFDD7A8
:1030F80096518A6F070E97158B6F0B0E366EA0D8F8
:10310800362EFDD796517F0B926F070E366E98D8E4
:10311800362EFDD79651070B936F935144E0925189
:1031280042E0BAC01CF0BBC01DF0BCC01EF0BDC060
:103138001FF0700E206E170E216E226A236ABBECF8
:1031480020F01CC090F01DC091F090C01CF091C000
:103158001DF0050E1F6EA00E1E6E9EEC2BF01CC0FF
:103168008EF01DC08FF090C01CF091C01DF0050EB0
:103178001F6EA00E1E6E39EC2BF01C28946F945114
:1031880000EC2DF00001946F945192150CE08851D9
:103198008E5D89518F5907E38E518A5D8F518B5906
:1031A80002E393515512040E4F26000E5022000CD4
:1031B800C2BF03D055C08CF001D08C6B8D6B8CC016
:1031C800CFF0556A4F6A506ACC51CF11200D81500B
:1031D8001F0BF310956F9551E00B54182AE01D6AE8
:1031E800800E1C6E57C01EF016EC2CF01D6A810E66
:1031F8001C6E56C01EF016EC2CF01D6A820E1C6E5A
:103208005AC01EF016EC2CF01D6A830E1C6EEBC023
:103218001EF016EC2CF01D6A840E1C6EECC01EF01D
:1032280016EC2CF01D6A850E1C6EEDC01EF016EC17
:103238002CF000019551E00B546E95C081FF1200EF
:10324800D89099339833973396331200836B846BF5
:103258007E6B7F6B806B816B6E0E3D6F010E3E6FD8
:103268007E0E3F6F010E406F67C141F168C142F1A8
:1032780050EC24F0010E826F856B6E0E8525D96E99
:10328800DA6A010EDA22DE2801E0826B852B070E4E
:103298008565F3D7800E671902E168051CE06905AA
:1032A80004E1820504E1010E03D08251FCE0000E26
:1032B8007C6F7D6B7C517D110EE067C16CF168C13C
:1032C8006DF1D8906D336C3387D86C29836F000EFD
:1032D8006D21846F13D067C14DF168C14EF169C18A
:1032E8004FF1516B506B1EEC1FF04DC167F14EC191
:1032F80068F1800E6719E1E16805DFE18351841107
:1033080019E0E2C076F1E3C077F1E4C078F183C157
:103318003DF184C13EF13F6B406B760E416F010E6B
:1033280068D877EC21F0760E396F010E5CD8D2ECB4
:1033380022F006D0F40E396FFF0E55D8D2EC22F0E9
:103348000101690539E1800E6A1902E16B052CE07B
:103358002C0E396FFF0E30EC0EF0D2EC22F0E5C0E7
:1033680079F1E6C07AF1E7C07BF16AC16CF16BC113
:103378006DF1010131D8D8906D336C336C2B000E90
:103388006D236CC13DF16DC13EF13F6B406B790E11
:10339800416F010E2ED877EC21F0790E396F010EAE
:1033A80049EC0EF0D2EC22F0A40E0101396FFF0EA9
:1033B80050EC0EF0D2EC22F08D0E0101396FFF0EA9
:1033C8003A6F3B6B060E3C6F3D6BD2EC22F067C147
:1033D80067F168C168F11200D8906D336C33D890EA
:1033E8006D336C3312003A6F3B6B0E0E3C6F3D6BC6
:1033F8000E0C426F030E436F030CA0EC29F0010181
:10340800465101E04607465102E10001CB6B01013C
:103418004C6B01D04C2B4C51020DF3504425D96E06
:10342800F4504521DA6EDE50DE10F4E14C0700015D
:10343800CB5113E172D885D8D2EC22F001014C515E
:10344800465D1EE25BD8020E4925D96E000E4A2160
:1034580072D87CD8D2EC22F013D0CB0511E101014F
:1034680046510AE04BD8FE0E4925D96EFF0E4A2177
:1034780062D867D8D2EC22F050D868D8D2EC22F0C3
:10348800FD0E0101396FFF0E3A6FCBC03BF13C6B6B
:103498003D6BD2EC22F02A0E0001CE1905E1CE6B6D
:1034A800010146294B6F25D02B0ECE1904E1CE6BB6
:1034B80001014B6B1ED0280ECE190CE1CE6B010119
:1034C800465105E046070001CB0501E1CB6BA0ECB6
:1034D80029F0ADD7290ECE19AAE1CE6B01014C51C6
:1034E800465DF5E2462B0001CB51F1E1010ECB6FB1
:1034F800EED7A0EC29F001014B5112004651476F5D
:10350800486BD8904737483744C149F145C14AF11B
:103518004751492748514A23120001014651020DDB
:10352800F3504425D96EF4504521DA6EDECF39F1D7
:10353800DDCF3AF11200DA6EDECF39F1DDCF3AF1A4
:1035480012003B6B010E3C6F3D6B010C010E3B6F93
:103558003C6F3D6B010C37C130F138C131F191EC52
:103568002DF037C13DF138C13EF130513D27315181
:103578003E23FF0E3D25496FFF0E3E214A6F3CBF9B
:1035880009D03BC141F13CC142F13BC143F13CC1CF
:1035980044F105D0416B426B446B020E436F41C14D
:1035A8004DF142C14EF15ED04D5163EC17F0DECFC4
:1035B8004FF1DDCF50F1456B466B536B546B25D003
:1035C80057D83DC1F6FF3EC1F7FF0800F5504B6FD5
:1035D8004C6B5351FE08516F5451D8A0E82A00088B
:1035E800526F4DD8DF503F6F406B3F514B1903E18D
:1035F80040514C1908E0100E4B194C1104E0466B71
:10360800010E456F0CD0534B542B32D837513D5DCA
:1036180038513E5904E3545102E15329D1E345514D
:1036280046111EE139513A1112E0476B486B52516D
:103638000EE151290CE223D847513925E16E485152
:103648003A2124D8474B482B514B522BF0D74FC126
:1036580030F150C131F1010E1DD8A4EC2DF0010C50
:103668004D4B4E2B4D51435D4E5144599DE2000C3C
:103678005351495D3D6F54514A593E6F12005151A3
:103688004F25D96E52515021DA6E1200E26EDFCF0B
:10369800E7FF1200336F326B346B120025C01CF049
:1036A80026C01DF003EC2EF025C02BF026C02CF010
:1036B8001C502B261D502C22FF0E2B24376EFF0E7C
:1036C8002C20386E2ABE09D029C02FF02AC030F02D
:1036D80029C031F02AC032F005D02F6A306A326A28
:1036E800020E316E2FC03BF030C03CF062D03B5030
:1036F80063EC17F0DECF3DF0DDCF3EF0336A346A7D
:10370800416A426A25D05BD82BC0F6FF2CC0F7FF70
:103718000800F550396E3A6A4150FE083F6E425033
:10372800D8A0E82A0008406E51D8DF502D6E2E6AC6
:103738002D50391803E12E503A1808E0100E3918A8
:103748003A1004E0346A010E336E0CD0414A422A22
:1037580036D825502B5C26502C5804E3425002E101
:103768004128D1E33350341022E127502810D8B42F
:10377800010C356A366A40500FE13F280DE226D821
:1037880035502724E16E365028204AEC1BF0354A84
:10379800362A3F4A402AEFD73DC01CF03EC01DF0F4
:1037A800010E1F6E1E6A206AF0EC2DF0010C3B4AD8
:1037B8003C2A3B50315C3C50325899E2000C415055
:1037C800375C2B6E425038582C6E12003F503D2407
:1037D800D96E40503E20DA6E120009EE00F011EE6C
:1037E80000F0EE6AE550E150FCE1E250FAE108EE43
:1037F80000F011EE00F0EE6AE550E150FCE1E25015
:10380800FAE107EE00F011EE00F0EE6AE550E15043
:10381800FCE1E250FAE106EE00F011EE00F0EE6A8B
:10382800E550E150FCE1E250FAE105EE00F0640EEB
:10383800EE6AE806FDE104EE93F05E0EEE6AE80635
:10384800FDE100EEBAF01A0EEE6AE806FDE100EEC0
:1038580043F0150EEE6AE806FDE1840EF66E5E0E84
:10386800F76E000EF86E05EEC2F010EE12F00900C9
:10387800F5CFEEFFE550E150FAE17C0EF66E470E0B
:10388800F76E000EF86E04EE00F010EE93F00900EB
:10389800F5CFEEFFE550E150FAE1A60EF66E530EB5
:1038A800F76E000EF86E03EE99F010EE65F0090061
:1038B800F5CFEEFFE550E150FAE10E0EF66E5E0E22
:1038C800F76E000EF86E00EED4F010EE1AF0090054
:1038D800F5CFEEFFE550E150FAE1240EF66E5F0EEB
:1038E800F76E000EF86E0900F5CF58F00900F5CF15
:1038F80059F00900F5CF5AF05B905B92000EF86E14
:10390800000191EF16F0366B69D8DF9067D8DF9227
:10391800362B090E3665F8D7376B79D856D8DF902D
:1039280076D853D8DF92372B040E3765F6D720EEBA
:103938000AF03ED8DF9020EE0AF03AD8DF9220EE67
:1039480004F03051D92631516BD85FEC16F03A0E9D
:10395800E76E20EE04F02CD8DF8220EE16F030510E
:10396800D92631515DD85FEC16F02F0EE76E20EEA8
:1039780016F01ED8DF8220EE10F03051D9263151D2
:103988004FD85FEC16F02F0EE76E20EE10F010D82F
:10399800DF8220EE20F03051D9263151DA2210EEA4
:1039A80001F05FEC16F00001C451030BE76E120042
:1039B8003051D9263151DA22DECF32F1DDCF33F161
:1039C80032C1D9FF33C1DAFF1200DECF32F1DDCFC9
:1039D80033F132C1D9FF33C1DAFF12003651020D7B
:1039E80030C132F131C133F1F3503227F45033236F
:1039F8000C0E3225D96E000E3321DA6EDECF34F18B
:103A0800DDCF35F134C1D9FF35C1DAFF12003751A6
:103A1800020DF3503025D96EF4503121DA6E1200C0
:103A2800DA2210EE02F012000101556F0001C39571
:103A38006FEC2EF069EC2AF0555109E0A0EC29F062
:103A4800FF0E0101306FFD0E316F29EC1EF0FA0EEA
:103A58000101306FFF0E70D84DEC2EF00101456B5F
:103A6800140E446FBDEC2BF0870E5DD8AFEC1AF046
:103A7800000913E1555152E063D8BDEC2BF0A0ECDE
:103A880029F0190E0101306FFE0E316F29EC1EF07E
:103A9800010156D8BDEC2BF041D00001C3850101CE
:103AA800555109E0A0EC29F0470E0101306FFE0ED8
:103AB800316F29EC1EF0C40E0101306FFF0E3CD8A7
:103AC8004DEC2EF0870E01012ED8AFEC1AF000094C
:103AD800F9E0300E306FFE0E316F29EC1EF0710EDA
:103AE8000101306FFF0E28D84DEC2EF0870E010132
:103AF8001AD8AFEC1AF00009F9E0E40E306FFD0EA9
:103B0800316F29EC1EF001015551D8B41200456BF4
:103B1800780E446FBDEC2BF0A0EF29F0555102E070
:103B2800A0EF29F01200376FFD0E386F396B3A6B32
:103B38003C6B020E3B6F020C316F010E326F010CB1
:103B4800456BC80E446FC80CA0EC29F00501846BC6
:103B58000001EA5163EC17F0DECFCEF1DDCFCFF1F3
:103B6800DF0E0101CE250501876F000E0101CF216F
:103B78000501886F8A6B87C5D9FF88C5DAFF640E8F
:103B88008A25E16EE26A050EE222DFCFE7FF874B66
:103B9800882B54D8DF5003E151D8200EDF6E8A2BD2
:103BA8001F0E8A65E8D7640E0101396F050E3A6F5A
:103BB800F4EC2BF0D2EC22F0210E0001CE190FE12B
:103BC800CE6B6BEC2DF00501896F8951C1E08951ED
:103BD80038EC2FF00501895169EC2AF0B9D72D0E80
:103BE800CE1915E1CE6B0101776B786B796B7A6B27
:103BF8007B6B83EC05F077C185F578C186F585C5C3
:103C080030F186C531F1326B4DEC2EF0A1D7280E7C
:103C1800CE1905E1CE6BEA519BE0EA0799D7290E48
:103C2800CE1906E1CE6B030EEA6192D7EA2B90D744
:103C38002B0ECE198DE1CE6BA0EF29F0640E8A25EC
:103C4800D96EDA6A050EDA2212003A6B3B6B3A51EA
:103C5800100D440E326F050E52D8200EDF6E3A5109
:103C6800AEEC2AF063D84BD8DF9001013A51AEECA4
:103C78002AF05CD844D8DF823B2B0F0E3B65E7D790
:103C88003A2B010E3A65E2D7366B376B33D0396B76
:103C9800386B25D03951AEEC2AF048D8336FF35041
:103CA8003227F450332338513225D96E000E332190
:103CB800DA6EDF8201012FD83951100D440E346FAE
:103CC800050E356FF3503427F45035233851342519
:103CD800D96E000E352132D8364B372B382B100EC3
:103CE800386104D018D80800F550D4E1392B010EFA
:103CF8003965CED710D80800F550C9E11BD0336F0D
:103D0800F3503227F45033233B513225D96E000E3D
:103D18003321DA6E120036513025326F3751312196
:103D2800336F32C1F6FF33C1F7FF1200B30E326FA3
:103D3800040E12000001C389C3811200DA6E080064
:103D4800F5CFDFFF1200266A276A2650100D440EB1
:103D58001E6E050E54D8200EDF6E2650AEEC2AF0EB
:103D680065D84DD80401DF902650AEEC2AF05ED815
:103D780046D8DF82272A0F0E2764E7D7262A010EA6
:103D88002664E2D7226A236A34D0256A246A26D0B8
:103D98002550AEEC2AF04AD81F6EF3501E26F45078
:103DA8001F2224501E24D96E000E1F20DA6E040133
:103DB800DF8231D82550100D440E206E050E216E7D
:103DC800F3502026F450212224502024D96E000ECE
:103DD8002120A2EC1EF0224A232A242A100E246055
:103DE80004D019D80800F550D3E1252A010E25641E
:103DF800CDD711D80800F550C8E19EEF1EF01F6E10
:103E0800F3501E26F4501F2227501E24D96E000E90
:103E18001F20DA6E120022501C241E6E23501D2013
:103E28001F6E1EC0F6FF1FC0F7FF1200B30E1E6EF6
:103E3800040E1200800E4D1906E14E0504E1010E34
:103E48004E6F780E4D6F4DC165F14EC166F1010E92
:103E58005C6F800E5B6F505151110DE1780E651942
:103E680005E1660503E1656B666B11D0080E6527F1
:103E7800000E66230CD06551661105E1010E666FD0
:103E8800780E656F04D0080E655F000E665B5F6B89
:103E9800606B616B626B530E3D6F010E3E6F5F0E80
:103EA8003F6F010E406F65C141F166C142F150ECB0
:103EB80024F0010E636F646B530E6425D96EDA6AC1
:103EC800010EDA22DE2801E0636B642B070E6465BD
:103ED800F3D74F0504E1630504E1010E03D06351F4
:103EE800FCE0000E5D6F5E6B5D515E1105E065C123
:103EF8005BF166C15CF106D04D516519ACE14E51DC
:103F08006619A9E15BC14DF15CC14EF112000C6E5E
:103F18000D0E0C1803E151A4518036D00A0E0C186E
:103F280005E151A003D051A451822ED051B002D046
:103F380051A202D0519051920A0E0C1825E05194CA
:103F48000D6A0E6A0D504924086E0E504A20096EFB
:103F58000828D96E000E0920DA6E0D504924E16E4A
:103F68000E504A20E26EDFCFE7FF0D4A0E2A0E50B0
:103F780003E1FE0E0D5CE6E320EEFEF04950D92683
:103F88004A50DA220CC0DFFF51B051A21200519002
:103F98005192518443C00AF044C00BF00F6A0F508D
:103FA800020DF350450FD96EDA6A0F50020DF35027
:103FB800430FE16EE26ADECFE6FFDDCFE5FF0F2AB1
:103FC800020E0F64ECD70AC049F00BC04AF049C092
:103FD80001F04AC002F0010E046E036A056A16EC8D
:103FE8002EF00001C38B1200F2CF35F1F29EF29C45
:103FF800829082945AD8E82EFED7342FFCD755D811
:10400800E82EFED7342FFCD7030EB7EC2CF0410E68
:10401800346FEE0EE82EFED7342FFCD700D0030EF7
:10402800B7EC2CF0DC0E00D0E82EFDD7030EB7EC71
:104038002CF0850EE82EFED700F0020EB7EC2CF01F
:10404800850EE82EFED700F02C0E2FEC2DF0850EF5
:10405800E82EFED700F0080E2FEC2DF0850EE82E86
:10406800FED700F0010E2FEC2DF0850EE82EFED7BE
:1040780000F0120E2FEC2DF0850EE82EFED700F082
:1040880082908294010E2FEC2DF01A0E0101346FEC
:10409800F80EE82EFED7342FFCD700D0F2507F0B55
:1040A800010135118009F26E1200820E0101346F90
:1040B800DE0C396B37AF0AD0371F361F351F346D0A
:1040C800000E352336233723010E396F33AF0AD05C
:1040D800331F321F311F306D000E3123322333233B
:1040E800010E391B3A6B3B6B3C6B3D6B3451351100
:1040F8003611371129E0010E386F06D0D8903437C1
:10410800353736373737382B37AFF8D7D8903A376F
:104118003B373C373D373451305D35513159365195
:1041280032593751335909E33451305F3551315BD6
:104138003651325B3751335B3A81D8903733363357
:1041480035333433382FE2D7395108E03D1F3C1F4F
:104158003B1F3A6D000E3B233C233D233AC130F10F
:104168003BC131F13CC132F13DC133F11200256A46
:1041780023AE0AD0231E221E211E206C000E2122EF
:1041880022222322010E256E1FAE0AD01F1E1E1EDC
:104198001D1E1C6C000E1D221E221F22010E251A38
:1041A800266A276A286A296A2050211022102310BB
:1041B80029E0010E246E06D0D8902036213622360A
:1041C8002336242A23AEF8D7D89026362736283621
:1041D800293620501C5C21501D5822501E5823504F
:1041E8001F5809E320501C5E21501D5A22501E5AA8
:1041F80023501F5A2680D89023322232213220326F
:10420800242EE2D7255008E0291E281E271E266CDA
:10421800000E27222822292226C01CF027C01DF0C4
:1042280028C01EF029C01FF012000001806B816BAE
:10423800840E296E2A6A8151210D870EF3242B6E74
:10424800010EF4202C6E39EC29F00001A4053EE1A2
:10425800826B01D0822B82C02FF0120E2F262F5096
:10426800840FD96EDA6ADF50F5E1836B1BD0835176
:104278002D5C2F6E000E2E58306E090E2F24D96E2D
:10428800000E3020DA6E835184088225E16EE26ADE
:10429800110EE126DE50E61802E0806B15D0010E03
:1042A800806F832B0A0E83610FD0835182C02FF059
:1042B800306A2F5E000E305A2F2A302230BE04D0CA
:1042C8003050D5E12F04D3E2805104E1812B0F0E49
:1042D8008165AED7805104E0840E2D6E2E6A1200DF
:1042E8002D6A2E6A120054D8FF0E4425D96EFF0E8F
:1042F8004521DA6EDF5001E14307010E466F48D8C9
:104308004651445DD96E4551D8A04505DA6E3DC188
:1043180030F13EC131F13FC132F140C133F10A0EF3
:10432800346F356B366B376B38EC2AF030516DECE7
:1043380029F0DF6E3DC130F13EC131F13FC132F1AC
:1043480040C133F10A0E346F356B366B376B50EC66
:1043580027F030C13DF131C13EF132C13FF133C1E7
:1043680040F1462B465143C144F1456B445F000E72
:10437800455B442B452345BF000C455103E14405EB
:10438800D8A012003D513E113F114011B8E1120072
:1043980043514125446F000E4221456F1200A0ECA5
:1043A80029F0800E0101931902E1940504E093C1FC
:1043B800C5F094C1C6F0C5C067F1C6C068F1010177
:1043C800696B010E6B6F800E6A6F2AEC19F067C17A
:1043D800C5F068C1C6F0800E0001C51902E1C60526
:1043E8000BE02D0ECE1908E1CE6BC5C088F1C6C012
:1043F80089F181EC22F0DFD7280ECE1905E11ED80D
:10440800506B1EEC1FF008D0290ECE190AE116D801
:10441800010E506F1EEC1FF04DC1C5F04EC1C6F025
:10442800CAD72B0ECE1903E1CE6BA0EF29F01E0ED2
:10443800CE19C1E1CE6BC56BC66BBDD7CE6BC5C0FF
:104448004DF1C6C04EF101014F6B516B1200A0EC4B
:1044580029F0C7C067F1C8C068F1010E0101696F92
:1044680086C16AF187C16BF12AEC19F067C1C7F000
:1044780068C1C8F0800E0001C71902E1C80515E03F
:104488002D0ECE1912E1CE6BC7C030F1C8C031F184
:1044980086C132F187C133F194EC2FF0E806D9E1F7
:1044A80023D8506B1EEC1FF00DD0280ECE1902E158
:1044B800CE6BF6D7290ECE190AE1CE6B15D8506F00
:1044C8001EEC1FF04DC1C7F04EC1C8F0C2D72B0E6D
:1044D800CE1903E1CE6BA0EF29F01E0ECE19B9E17B
:1044E800CE6BC76BC86BB5D7C7C04DF1C8C04EF10E
:1044F800010E01014F6F516B010CA0EC29F024EE65
:1045080063F011EE8AF0070EDBCFE3FFE806FCE26A
:104518008A0E0101446F010E456F466B01EC1AF0DB
:10452800926F920506E1010E876F800E866F2BEF62
:1045380022F0020E921909E188C130F189C131F1E6
:10454800010E336F800E326F800C030E921906E154
:1045580088C186F189C187F12BEF22F0040E9219E8
:1045680006E188C13DF189C13EF118EF2DF0050E35
:104578009219D8A41200AB0E446FFD0E456FDBEC08
:104588002BF00009D8B412000101476B466B010EED
:10459800496F7F0E486F4A6B9BEF26F0416B426B69
:1045A80030D03BC143F101013B6B010E436501D0A3
:1045B80028D03CC140F13C6B12D040C130F1010120
:1045C8002AD8F76403D00800F55001D032D8010189
:1045D800316F435123EC23F0414B422B402B100EFB
:1045E800406109D018D8F76403D00800F55001D00D
:1045F80020D80009E2E101013D5101E11200432BFD
:10460800D4D709D8F76403D00800F55001D011D8E1
:104618000009C7E11200415139253E6F42513A2144
:104628003F6F3EC1F6FF3FC1F7FF000EF86E0F0E59
:104638001200F6CFE9FFF7CFEAFFEF501200386F0C
:1046480031C137F13FD832D8DF50366F010E346FA1
:104658003851AEEC2AF03DD829D8DFB204D0365113
:10466800371901E1346B01013851AEEC2AF031D829
:104678001DD834B102D0DF9201D0DF82010E0101D2
:10468800356F0001C3B105D001013651371901E179
:10469800356B010135B103D00001C39102D000018F
:1046A800C38110D803D837C1DFFF1200336FF3502E
:1046B8003227F450332330513225D96E000E33217E
:1046C800DA6E120001013851100D240E326F050EFA
:1046D8001200930E326F040E1200396B33AF03D001
:1046E80040D8010E396F37AF08D0371F361F351F36
:1046F800346D000E352336233723345135113611E6
:10470800371123E0010E386F06D0D890343735378B
:1047180036373737382B37AFF8D73451305D355106
:104728003159365132593751335908E33451305FD2
:104738003551315B3651325B3751335BD890373363
:10474800363335333433382FE8D7395101E009D8B7
:1047580030C130F131C131F132C132F133C133F1FD
:104768001200331F321F311F306D000E31233223E8
:104778003323000C415444202020202020202020D6
:104788002020202020002020202020202020202041
:1047980020202020202000B9202020EFEE202D2DE1
:1047A8003A2D2D001F1C1F1E1F1E1F1F1E1F1E1F00
:1047B80075FE10FF65FE39FF0000E3FE01FF84FF70
:1047C8001EFF0000B2FFB8FFBEFFABFF00002D2D9B
:1047D8003A2D2D3A2D2D006DFE5BFED3FE000020F4
:1047E8002020202020200045FF51FF67FF0000F017
:1047F800F1F2F33600F4F7F6F73700F8F9FAFB3878
:0748080000FCFDFEFF39007A
:1048100001013351341101E1120024EE00F011EED8
:1048200037F0110EDBCFE3FFE806FCE2496B09D05D
:104830002BD820D8E16E010E3621E26EDFCFE7FFE4
:10484000492B22D8DF50F4E115D825D83B0EDF6E76
:104850004951356F366B040E3527000E3623370E5F
:10486000352519D8DF6A370E306F010EA0EC1DF028
:104870004DEF2EF04951356F366B030E3527000E84
:104880003623370E3525120049513325D96E000ED7
:104890003421DA6E1200D96E010E3621DA6E120062
:1048A0003DC134F13EC135F141C136F142C137F16C
:1048B000396B080E386F4DEC2CF04C6B030E4B6FC0
:1048C0004B513D25D96E4C513E21DA6EDF5029D82F
:1048D000DECF43F1DECF44F1DECF45F1DECF46F14E
:1048E00045C146F144C145F143C144F1436B432501
:1048F000476F000E4421486F000E4521496F000E9E
:1049000046214A6F0ED847C1DEFF48C1DEFF49C1CC
:10491000DEFF4AC1DEFF4B07D8A04C074CBF120098
:10492000CFD73FC1D9FF40C1DAFF1200496F030E54
:104930000101446103D00C0E44274907396B050E71
:10494000386F4429306F316B000E3123336B0D0EFD
:10495000326F7EEC2DF030C136F131C137F1D8EC39
:1049600026F04551466F476B36514627375147234E
:1049700049514627000E47234941E8423F0B46274D
:10498000000E47233369FE0E326F316B306B7EECC5
:104990002DF03051462731514723050E46253E6FF5
:1049A000000E47213F6F416B070E406F69EC28F006
:1049B0003E291200356E030E306003D00C0E3026F7
:1049C0003506256A050E246E30281C6E1D6A000E01
:1049D0001D221F6A0D0E1E6EDDEC2DF01CC022F094
:1049E0001DC023F014EC27F03150326E336A225090
:1049F00032262350332235503226000E33223540E2
:104A0000E8423F0B3226000E33221F68FE0E1E6E58
:104A10001D6A1C6ADDEC2DF01C5032261D5033221D
:104A2000050E32242A6E000E33202B6E2D6A070EDF
:104A30002C6E05EC29F02A281200416B30D037D8B3
:104A400032D85FEC16F0E7503C25406F40390F0B31
:104A50003F6F3F0502E1100E405F40C130F127D8A3
:104A6000DA6E10EE02F05FEC16F0E750316F3F5156
:104A700023EC23F040C130F11AD8DA6EDECF3DF1DD
:104A8000DDCF3EF13DC1D9FF3EC1DAFF000EDFB000
:104A9000010E316F3F5199EC2AF00101412B3B513E
:104AA000415DCDE31200DA6E10EE03F012004151C9
:104AB000020DF3503925D96EF4503A211200336EAD
:104AC00029C020F02AC021F0236A080E226E33503C
:104AD0009DEC2CF0356A030E346E2850D96EDA6ADC
:104AE000DECF2BF0DECF2CF0DECF2DF0DECF2EF0A0
:104AF0002DC02EF02CC02DF02BC02CF02B6A335083
:104B00003424D96EDA6ADF502B242F6E000E2C204D
:104B1000306E000E2D20316E000E2E20326E285089
:104B2000D96EDA6A2FC0DEFF30C0DEFF31C0DEFF93
:104B300032C0DEFF3406D8A0350635BE1200CDD710
:104B40004BEC2FF030C140F131C141F132C142F1A3
:104B500033C143F101013451405D35514159365162
:104B600042593751435919E23451405D3C6F355138
:104B700041593D6F365142593E6F375143593F6F4E
:104B8000FF0E3C25406FFF0E3D21416FFF0E3E2181
:104B9000426F0F0E3F21436F08D03451405F3551B3
:104BA000415B3651425B3751435B3851405D39516F
:104BB00041593A5142593B514359D8B0010C000C6C
:104BC00025D834C1D9FF35C1DAFF32D82BD83C2FD4
:104BD000FDD71CD836C1D9FF37C1DAFF29D822D872
:104BE0003C2FFDD730517F0B38C1D9FF39C1DAFFD7
:104BF000DF6E070E3C6F16D83C2FFDD73051070BE8
:104C00003AC1D9FF3BC1DAFFDF6E12003C69070EE3
:104C10003D6F30C13EF131C13FF13C513E173D5136
:104C20003F171200D8903333323331333033120010
:104C30003EC1DEFF3FC1DDFF0B0E3C6F0B0C0101DF
:104C4000326F320505E1E20E306FFF0E316F120058
:104C5000020E321905E1EB0E306FFF0E316F1200BC
:104C6000030E321905E1E50E306FFF0E316F1200B1
:104C7000040E321905E1F10E306FFF0E316F120094
:104C8000050E321905E1EE0E306FFF0E316F120086
:104C9000060E321905E1DF0E306FFF0E316F120084
:104CA000070E321905E1E80E306FFF0E316F12006A
:104CB000F70E306FFF0E316F12000001CE6B010155
:104CC0006B6B24EE46F011EE60F0090EDBCFE3FFD4
:104CD000E806FCE2600E446F010E456F6BC146F1C1
:104CE00001EC1AF06B6F6B0503E196EC01F01FD03D
:104CF000020E6B1909E16BEC2DF06A6F6A5117E037
:104D00006A5138EC2FF013D0030E6B1904E1010E39
:104D100018EC1DF00CD0040E6B1909E1476B466BC3
:104D2000030E496F4869010E4A6F9BEC26F00101A2
:104D30006B51D0E112004A0513E1C20E446FFE0E22
:104D4000456FDBEC2BF00009D8B412008A0E01018C
:104D5000446FFD0E456FDBEC2BF00009D8B4120058
:104D600046C14FF147C150F10AD04FC130F150C197
:104D700031F132697FEC2EF001014F4B502B0101D4
:104D80004B694C6948C14DF149C14EF14B514D271A
:104D90004C514E234D514F5D4E515059E6E34A055B
:104DA000D8A412009D0E306FFF0E316F29EF1EF058
:104DB0003B6B39AF06D0386D391FD8B0392B010E97
:104DC0003B6F37AF06D0366D371FD8B0372B010E8B
:104DD0003B1B3C6B3D6B385139111BE0010E3A6FA8
:104DE00004D0D890383739373A2B39AFFAD7D89022
:104DF0003C373D373851365D3951375905E3385125
:104E0000365F3951375B3C81D890393338333A2F8C
:104E1000EED73B5104E03C6D3D1FD8B03D2B3CC16B
:104E200036F13DC137F11200276A25AE06D0246C59
:104E3000251ED8B0252A010E276E23AE06D0226C7F
:104E4000231ED8B0232A010E271A286A296A245063
:104E500025101BE0010E266E04D0D890243625368E
:104E6000262A25AEFAD7D890283629362450225C37
:104E70002550235805E32450225E2550235A2880CC
:104E8000D89025322432262EEED7275004E0286C05
:104E9000291ED8B0292A28C022F029C023F01200E8
:104EA000396B3A6B3B6B3C6B345135113611371112
:104EB00029E0010E386F06D0D890343735373637B1
:104EC0003737382B37AFF8D7D89039373A373B37A1
:104ED0003C373451305D35513159365132593751A3
:104EE000335909E33451305F3551315B3651325B10
:104EF0003751335B3981D8903733363335333433D8
:104F0000382FE2D739C130F13AC131F13BC132F12A
:104F10003CC133F11200236E82840001C2ABC3B7DF
:104F200003D01F6A206A03D0206A200E1F6E233828
:104F3000E8461F0B1E0B1F1023D8BDEC2EF01AD80D
:104F4000BDEC2EF082840001C2ABC3B703D0216A4E
:104F5000226A03D0226A200E216E2350100DF338EE
:104F6000E8461F0B1E0B21100BD8BDEC2EF002D80B
:104F7000BDEF2EF0829082941D6A050E1C6E190CF6
:104F8000806E82801D6A010E1C6E0A0C0600E1CF45
:104F900012F0E2CF13F0D9CF14F0DACF15F0F3CF3F
:104FA00016F0F4CF17F0F6CF18F0F7CF19F0F8CFCE
:104FB0001AF0F5CF1BF004009EAA04D0AE508BEC83
:104FC0001FF003D09EB8FFEC27F01BC0F5FF1AC0FE
:104FD000F8FF19C0F7FF18C0F6FF17C0F4FF16C09E
:104FE000F3FF15C0DAFF14C0D9FF13C0E2FF12C0EF
:104FF000E1FF11C0EAFF10C0E9FF5B921100000160
:10500000C951CA1104E1ACA202D0AC9A120025D851
:10501000F76403D00800F55002D01DEC23F000091E
:105020000AE1ACA2FED70D0EAD6E0A0EAD6E000108
:10503000C96BCA6B12000001C951CA11D8B4120061
:105040000CD8F76403D00800F55002D01DEC23F013
:10505000AD6E0001C94BCA2B1200C9C0F6FFCAC011
:10506000F7FF000EF86E0F0E12003EC130F13FC187
:1050700031F140C132F141C133F1700E73EC05F0F2
:105080005DEC20F030C146F131C147F146C130F14D
:1050900047C131F1050E336FA00E326F7FEC2BF05C
:1050A00042C1D9FF43C1DAFF30C1DEFF31C1DDFFAC
:1050B00046C130F147C131F1050E336FA00E326F9A
:1050C00014EC2BF0302944C1D9FF45C1DAFFDF6E63
:1050D0001200436B3FAF06D03E6D3F1FD8B03F2B51
:1050E000010E436F41AF04D0406D411FD8B0412B3A
:1050F0004051411117E0010E426F04D0D890403763
:105100004137422B41AFFAD740513E5D41513F59A3
:1051100004E340513E5F41513F5BD89041334033FF
:10512000422FF2D7435104E03E6D3F1FD8B03F2BD2
:105130003EC13EF13FC13FF112003DC134F13EC1DD
:1051400035F13FC136F140C137F1396B110E386F7F
:10515000F9EC2BF0110E3F27000E4023110E16D84C
:105160000E0E386FF9EC2BF00E0E3F27000E402389
:105170001F0E0CD8010E386FF9EC2BF03F4B402B73
:10518000200E04D8010E386FF9EF2BF03D25346F57
:10519000000E3E21356F3FC136F140C137F1396B0A
:1051A00012003DC134F13EC135F13FC136F140C17D
:1051B00037F1396B110E386F4DEC2CF0110E3F2783
:1051C000000E4023110E16D80E0E386F4DEC2CF049
:1051D0000E0E3F27000E40231F0E0CD8010E386F15
:1051E0004DEC2CF03F4B402B200E04D8010E386FB5
:1051F0004DEF2CF03D25346F000E3E21356F3FC141
:1052000036F140C137F1396B12002F6A2BAE06D050
:105210002A6C2B1ED8B02B2A010E2F6E2DAE04D077
:105220002C6C2D1ED8B02D2A2C502D1017E0010EFD
:105230002E6E04D0D8902C362D362E2A2DAEFAD7CD
:105240002C502A5C2D502B5804E32C502A5E2D50F4
:105250002B5AD8902D322C322E2EF2D72F5004E01C
:105260002A6C2B1ED8B02B2A2AC02AF02BC02BF078
:10527000120029C020F02AC021F02BC022F02CC03F
:1052800023F0256A110E246E68EC2CF0110E2B26EB
:10529000000E2C22110E16D80E0E246E68EC2CF087
:1052A0000E0E2B26000E2C221F0E0CD8010E246E83
:1052B00068EC2CF02B4A2C2A200E04D8010E246E08
:1052C00068EF2CF02924206E000E2A20216E2BC0BE
:1052D00022F02CC023F0256A12000101306F3051FA
:1052E000D8B4300C010AD8B4310C030AD8B4320C4B
:1052F000010AD8B4330C070AD8B4340C010AD8B464
:10530000350C030AD8B4360C010AD8B4370C0F0A8E
:10531000D8B4380C010AD8B4390C030AD8B4410CFB
:10532000010AD8B4420C070AD8B4430C010AD8B415
:10533000440C030AD8B4450C010AD8B4460C3F0CFF
:105340000101326B336B3251100D240E306F050E9C
:105350001AD8200EDF6E3251AEEC2AF020D813D8C6
:10536000DF9001013251AEEC2AF019D80CD8DF825F
:10537000332B0F0E3365E7D7322B010E3265E2D7A0
:105380000001C381010C316FF3503027F4503123F9
:1053900033513025D96E000E3121DA6E1200930E92
:1053A000306F040E12007071727337007778797A5B
:1053B0003900E0E1E2E33200E4E5E6E73300E8E962
:1053C000EAEB3400ECEDEEEF35006162633200642D
:1053D0006566330067686934006A6B6C35006D6E12
:1053E0006F36007475763800203000302B00202096
:1053F0000031003200330034003500360037003809
:0B540000003900202020202020200088
:10540C001C6E1C50D8B4270C010AD8B42B0C030A00
:10541C00D8B42A0C010AD8B4290C070AD8B4280C21
:10542C00010AD8B42D0C030AD8B4210C010AD8B443
:10543C00240C0F0AD8B41F0C010AD8B4200C030A90
:10544C00D8B4230C010AD8B4220C070AD8B4260C01
:10545C00010AD8B41E0C030AD8B42C0C010AD8B417
:10546C00250C000C345135113611371123E0010E87
:10547C00386F06D0D8903437353736373737382B26
:10548C0037AFF8D73451305D355131593651325927
:10549C003751335908E33451305F3551315B365154
:1054AC00325B3751335BD890373336333533343343
:1054BC00382FE8D730C130F131C131F132C132F17E
:1054CC0033C133F112000101306F300504E1200EBD
:1054DC00326F8C0E17D0020E301904E1100E326FA1
:1054EC00450E10D0040E301904E1020E326F080E76
:1054FC0009D0050E301903E1326BAC0E03D0040E4B
:10550C00326F100E316F948C948EB886AC8431C18E
:10551C00AFFF32C1B0FF9F8A9F88AC98AB8E9D8A3B
:10552C009D88AB881200346F0101315105E0345174
:10553C000FD819D8DF8004D034510AD814D8DF9092
:10554C000101345105D80FD8DF820001C38112004C
:10555C00010DF33AF43AF00EF416F3500F0BF4126B
:10556C00F00EF316F00C930E326F040E336FF350F3
:10557C003227F450332330513225D96E000E3321AB
:10558C00DA6E1200386B396B3A6B3B6B30A108D07A
:10559C00345138273551392336513A2337513B236F
:1055AC00D8903437353736373737D89033333233A2
:1055BC00313330333051311132113311E7E138C10D
:1055CC0030F139C131F13AC132F13BC133F1120042
:1055DC003E6A3F6A406A416A36A008D03A503E267D
:1055EC003B503F223C5040223D504122D8903A360D
:1055FC003B363C363D36D89039323832373236323B
:10560C003650371038103910E7E13EC036F03FC045
:10561C0037F040C038F041C039F01200356B366BB2
:10562C00325133111BE0010E346F04D0D890323755
:10563C003337342B33AFFAD7D8903537363732511E
:10564C00305D3351315905E33251305F3351315BA9
:10565C003581D89033333233342FEED735C130F116
:10566C0036C131F11200216A226A1E501F101BE054
:10567C00010E206E04D0D8901E361F36202A1FAE85
:10568C00FAD7D890213622361E501C5C1F501D585C
:10569C0005E31E501C5E1F501D5A2180D8901F32EE
:1056AC001E32202EEED721C01CF022C01DF012009D
:1056BC001C6E1C50300AD8B4000C010AD8B4010C72
:1056CC00030AD8B4020C010AD8B4030C070AD8B4E4
:1056DC00040C010AD8B4050C030AD8B4060C010A50
:1056EC00D8B4070C0F0AD8B4080C010AD8B4090CAA
:1056FC00000C3251331117E0010E346F04D0D890E6
:10570C0032373337342B33AFFAD73251305D335114
:10571C00315904E33251305F3351315BD89033331C
:10572C003233342FF2D730C130F131C131F11200A4
:10573C001E501F1017E0010E206E04D0D8901E369C
:10574C001F36202A1FAEFAD71E501C5C1F501D5846
:10575C0004E31E501C5E1F501D5AD8901F321E327F
:10576C00202EF2D71CC01CF01DC01DF012004BECFB
:10577C002FF030C146F131C147F132C148F133C18C
:10578C0049F146C134F147C135F148C136F149C13F
:10579C0037F144C138F145C139F101013A6B3B6B2A
:1057AC00A0EC25F00009EDE01200A0EC29F044C1BA
:1057BC0039F145C13AF1010111D8D2EC22F02A0E8F
:1057CC000001CE1904E1CE6BA0EC29F0010C2B0EDC
:1057DC00CE19EDE1CE6BA0EC29F0000C3B6B3C6BD1
:1057EC00010E3D6F010C3C6B12D03C513625306FD5
:1057FC00000E3721316F3C513425D96E000E352106
:10580C00DA6EDF50326F7FEC2EF001013C2B3C51F5
:10581C003A6F3B6B38513A5D39513B59E6E3120014
:10582C00F2CF1FF0F29EF29C04001DC0AAFF1CC018
:10583C00A9FF1EC0A8FF03D81FC0F2FF1200A69E2E
:10584C00A69CA684550EA76EAA0EA76EA682A69439
:10585C00A6B2FED7A19812000101316F336B305103
:10586C0014E0010E326F03D0D8903037322B30AFAA
:10587C00FBD7D89033373051315D03E33051315F72
:10588C003381D8903033322FF4D7335112003C6B24
:10589C0010D03C513425D96E000E3521DA6E3C51B6
:1058AC003625306F000E3721316FB7EC2DF0DF6EDF
:1058BC003C2B3C513A6F3B6B38513A5D39513B595B
:1058CC00E8E31200286A10D028502024D96E000E6C
:1058DC002120DA6E285022241C6E000E23201D6E0F
:1058EC003BEC2EF0DF6E282A2850266E276A2450B7
:1058FC00265C25502758E8E312000C0E12D80A0E2D
:10590C00326FE8EC2CF036C130F137C131F1050EB5
:10591C00326FE8EC2CF00A0E04D8010E326FE8EF6F
:10592C002CF03625306F000E3721316F1200266EA9
:10593C00276A0ED026502724D96EDA6A27502024E5
:10594C001C6E000E21201D6E3BEC2EF0DF6E272A04
:10595C002750246E256A2250245C23502558EAE3F4
:10596C0012000101306F82940001C2ABC3B704D0A6
:10597C000101316B326B04D00101326B200E316F9F
:10598C003051020DF3501E0B311100D0806E82800D
:10599C0082901200316F1D0E0001CE65FF0C280E97
:1059AC00CE61FF0CCE51E20F0101326F3151325DED
:1059BC0008E33251305D05E30001CE6B0101325139
:1059CC001200FF0C356B12D03551020DF3503025FF
:1059DC00D96EF4503121DA6EDECF33F1DDCF34F1F4
:1059EC0033C1D9FF34C1DAFFDF90352B3251355D2D
:1059FC00EBE312001C6E1C50010AD8B4010C030A14
:105A0C00D8B4020C010AD8B4040C070AD8B4080C98
:105A1C00010AD8B4100C030AD8B4200C010AD8B46B
:105A2C00400C000C3F0E306F010E316F336B080EC3
:105A3C00326F3469A4EC2DF03F0E346F010E356FCC
:105A4C003DC136F13EC137F1396B080E386FF9EFB5
:105A5C002BF00101336F33390F0BB7EC2CF0850EA3
:105A6C00E82EFED700F0010133510F0BB7EC2CF0F0
:105A7C00850EE82EFED700F012000101316F080EE2
:105A8C00326F336BD89031353335336FD890313723
:105A9C003051335D02E33051335F322FF3D7335142
:105AAC0012000101346F030E316F990E306F34C147
:105ABC0032F17FEC2EF00001C45101013419FC0BC2
:105ACC00341900D00001C46F120024EE50F011EE16
